{
  "_format": "hh-sol-artifact-1",
  "contractName": "ClaimReward",
  "sourceName": "contracts/ClaimReward.sol",
  "abi": [
    {
      "anonymous": false,
      "inputs": [
        {
          "indexed": true,
          "internalType": "address",
          "name": "user",
          "type": "address"
        },
        {
          "indexed": false,
          "internalType": "uint256",
          "name": "canClaimedAmount",
          "type": "uint256"
        }
      ],
      "name": "Claimed",
      "type": "event"
    },
    {
      "anonymous": false,
      "inputs": [
        {
          "indexed": true,
          "internalType": "address",
          "name": "sender",
          "type": "address"
        },
        {
          "indexed": true,
          "internalType": "uint256",
          "name": "index",
          "type": "uint256"
        },
        {
          "components": [
            {
              "internalType": "string",
              "name": "name",
              "type": "string"
            },
            {
              "internalType": "address",
              "name": "token",
              "type": "address"
            },
            {
              "internalType": "uint256",
              "name": "totalAmount",
              "type": "uint256"
            },
            {
              "internalType": "uint256",
              "name": "remainingAmount",
              "type": "uint256"
            },
            {
              "internalType": "uint256",
              "name": "unlockSteps",
              "type": "uint256"
            },
            {
              "internalType": "uint256",
              "name": "unlockPeriod",
              "type": "uint256"
            },
            {
              "internalType": "uint256",
              "name": "paymentDate",
              "type": "uint256"
            }
          ],
          "indexed": false,
          "internalType": "struct ClaimReward.Pool",
          "name": "pool",
          "type": "tuple"
        }
      ],
      "name": "CreatedPool",
      "type": "event"
    },
    {
      "anonymous": false,
      "inputs": [
        {
          "indexed": true,
          "internalType": "address",
          "name": "previousGovernor",
          "type": "address"
        },
        {
          "indexed": true,
          "internalType": "address",
          "name": "newGovernor",
          "type": "address"
        }
      ],
      "name": "GovernorshipTransferred",
      "type": "event"
    },
    {
      "anonymous": false,
      "inputs": [
        {
          "indexed": false,
          "internalType": "address[]",
          "name": "users",
          "type": "address[]"
        },
        {
          "indexed": true,
          "internalType": "uint256",
          "name": "index",
          "type": "uint256"
        },
        {
          "indexed": false,
          "internalType": "uint256[]",
          "name": "rewardAmounts",
          "type": "uint256[]"
        }
      ],
      "name": "GrantedReward",
      "type": "event"
    },
    {
      "inputs": [],
      "name": "claim",
      "outputs": [],
      "stateMutability": "nonpayable",
      "type": "function"
    },
    {
      "inputs": [
        {
          "internalType": "string",
          "name": "name",
          "type": "string"
        },
        {
          "internalType": "address",
          "name": "token",
          "type": "address"
        },
        {
          "internalType": "uint256",
          "name": "totalAmount",
          "type": "uint256"
        },
        {
          "internalType": "uint256",
          "name": "unlockSteps",
          "type": "uint256"
        },
        {
          "internalType": "uint256",
          "name": "unlockPeriod",
          "type": "uint256"
        },
        {
          "internalType": "uint256",
          "name": "paymentDate",
          "type": "uint256"
        }
      ],
      "name": "createActivityPool",
      "outputs": [],
      "stateMutability": "nonpayable",
      "type": "function"
    },
    {
      "inputs": [
        {
          "internalType": "bytes32",
          "name": "key",
          "type": "bytes32"
        },
        {
          "internalType": "address",
          "name": "addr",
          "type": "address"
        }
      ],
      "name": "getConfig",
      "outputs": [
        {
          "internalType": "uint256",
          "name": "",
          "type": "uint256"
        }
      ],
      "stateMutability": "view",
      "type": "function"
    },
    {
      "inputs": [
        {
          "internalType": "bytes32",
          "name": "key",
          "type": "bytes32"
        }
      ],
      "name": "getConfig",
      "outputs": [
        {
          "internalType": "uint256",
          "name": "",
          "type": "uint256"
        }
      ],
      "stateMutability": "view",
      "type": "function"
    },
    {
      "inputs": [
        {
          "internalType": "bytes32",
          "name": "key",
          "type": "bytes32"
        },
        {
          "internalType": "uint256",
          "name": "index",
          "type": "uint256"
        }
      ],
      "name": "getConfig",
      "outputs": [
        {
          "internalType": "uint256",
          "name": "",
          "type": "uint256"
        }
      ],
      "stateMutability": "view",
      "type": "function"
    },
    {
      "inputs": [
        {
          "internalType": "address",
          "name": "user",
          "type": "address"
        }
      ],
      "name": "getRewardHistory",
      "outputs": [
        {
          "internalType": "uint256",
          "name": "totalClaimed",
          "type": "uint256"
        },
        {
          "internalType": "uint256",
          "name": "totalCanClaim",
          "type": "uint256"
        },
        {
          "internalType": "uint256",
          "name": "totalReward",
          "type": "uint256"
        },
        {
          "components": [
            {
              "internalType": "uint256",
              "name": "paymentDate",
              "type": "uint256"
            },
            {
              "internalType": "string",
              "name": "name",
              "type": "string"
            },
            {
              "internalType": "uint256",
              "name": "rewardAmount",
              "type": "uint256"
            },
            {
              "internalType": "uint256",
              "name": "claimedAmount",
              "type": "uint256"
            },
            {
              "internalType": "uint256",
              "name": "canClaimedAmount",
              "type": "uint256"
            },
            {
              "internalType": "uint256",
              "name": "unlockSteps",
              "type": "uint256"
            },
            {
              "internalType": "uint256",
              "name": "unlockPeriod",
              "type": "uint256"
            }
          ],
          "internalType": "struct ClaimReward.UserRewardHistory[]",
          "name": "userRewardHistorys",
          "type": "tuple[]"
        }
      ],
      "stateMutability": "view",
      "type": "function"
    },
    {
      "inputs": [],
      "name": "governor",
      "outputs": [
        {
          "internalType": "address",
          "name": "",
          "type": "address"
        }
      ],
      "stateMutability": "view",
      "type": "function"
    },
    {
      "inputs": [
        {
          "internalType": "address",
          "name": "_governor",
          "type": "address"
        }
      ],
      "name": "initialize",
      "outputs": [],
      "stateMutability": "nonpayable",
      "type": "function"
    },
    {
      "inputs": [
        {
          "internalType": "uint256",
          "name": "",
          "type": "uint256"
        }
      ],
      "name": "pools",
      "outputs": [
        {
          "internalType": "string",
          "name": "name",
          "type": "string"
        },
        {
          "internalType": "address",
          "name": "token",
          "type": "address"
        },
        {
          "internalType": "uint256",
          "name": "totalAmount",
          "type": "uint256"
        },
        {
          "internalType": "uint256",
          "name": "remainingAmount",
          "type": "uint256"
        },
        {
          "internalType": "uint256",
          "name": "unlockSteps",
          "type": "uint256"
        },
        {
          "internalType": "uint256",
          "name": "unlockPeriod",
          "type": "uint256"
        },
        {
          "internalType": "uint256",
          "name": "paymentDate",
          "type": "uint256"
        }
      ],
      "stateMutability": "view",
      "type": "function"
    },
    {
      "inputs": [],
      "name": "renounceGovernorship",
      "outputs": [],
      "stateMutability": "nonpayable",
      "type": "function"
    },
    {
      "inputs": [
        {
          "internalType": "bytes32",
          "name": "key",
          "type": "bytes32"
        },
        {
          "internalType": "uint256",
          "name": "value",
          "type": "uint256"
        }
      ],
      "name": "setConfig",
      "outputs": [],
      "stateMutability": "nonpayable",
      "type": "function"
    },
    {
      "inputs": [
        {
          "internalType": "bytes32",
          "name": "key",
          "type": "bytes32"
        },
        {
          "internalType": "address",
          "name": "addr",
          "type": "address"
        },
        {
          "internalType": "uint256",
          "name": "value",
          "type": "uint256"
        }
      ],
      "name": "setConfig",
      "outputs": [],
      "stateMutability": "nonpayable",
      "type": "function"
    },
    {
      "inputs": [
        {
          "internalType": "bytes32",
          "name": "key",
          "type": "bytes32"
        },
        {
          "internalType": "uint256",
          "name": "index",
          "type": "uint256"
        },
        {
          "internalType": "uint256",
          "name": "value",
          "type": "uint256"
        }
      ],
      "name": "setConfig",
      "outputs": [],
      "stateMutability": "nonpayable",
      "type": "function"
    },
    {
      "inputs": [
        {
          "internalType": "address[]",
          "name": "users",
          "type": "address[]"
        },
        {
          "internalType": "uint256",
          "name": "index",
          "type": "uint256"
        },
        {
          "internalType": "uint256[]",
          "name": "rewardAmounts",
          "type": "uint256[]"
        }
      ],
      "name": "setUserReward",
      "outputs": [],
      "stateMutability": "nonpayable",
      "type": "function"
    },
    {
      "inputs": [
        {
          "internalType": "address",
          "name": "newGovernor",
          "type": "address"
        }
      ],
      "name": "transferGovernorship",
      "outputs": [],
      "stateMutability": "nonpayable",
      "type": "function"
    },
    {
      "inputs": [
        {
          "internalType": "address",
          "name": "",
          "type": "address"
        },
        {
          "internalType": "uint256",
          "name": "",
          "type": "uint256"
        }
      ],
      "name": "usersRewards",
      "outputs": [
        {
          "internalType": "uint256",
          "name": "index",
          "type": "uint256"
        },
        {
          "internalType": "uint256",
          "name": "rewardAmount",
          "type": "uint256"
        },
        {
          "internalType": "uint256",
          "name": "claimedAmount",
          "type": "uint256"
        }
      ],
      "stateMutability": "view",
      "type": "function"
    }
  ],
  "bytecode": "0x608060405234801561001057600080fd5b50611ee6806100206000396000f3fe608060405234801561001057600080fd5b50600436106101045760003560e060020a900480639d7f73151161009b578063c4d66de81161006a578063c4d66de814610213578063cbaeadb414610226578063ddf2be3f14610249578063f09d1f591461025c57610104565b80639d7f7315146101b4578063ac4afa38146101c7578063b21544f3146101ed578063b6aa515b1461020057610104565b806352665f47116100d757806352665f47146101665780636dd5b69d1461018657806381c0c263146101995780638ec872e3146101a157610104565b80630c340a24146101095780630db0bf591461012757806315fe96dc146101495780634e71d92d1461015e575b600080fd5b61011161026f565b60405161011e91906118d1565b60405180910390f35b61013a6101353660046115cd565b61027e565b60405161011e93929190611d6b565b61015c610157366004611769565b6102bd565b005b61015c6102e2565b6101796101743660046116fa565b61066c565b60405161011e9190611d62565b6101796101943660046116e2565b61068e565b61015c6106a0565b6101796101af366004611769565b61070e565b61015c6101c23660046117b5565b610721565b6101da6101d53660046116e2565b61092a565b60405161011e97969594939291906119c3565b61015c6101fb366004611734565b610a0b565b61015c61020e3660046115b2565b610a3c565b61015c6102213660046115b2565b610a5f565b6102396102343660046115b2565b610b4e565b60405161011e9493929190611d81565b61015c61025736600461178a565b610ef2565b61015c61026a3660046115f7565b610f15565b603354600160a060020a031681565b6036602052816000526040600020818154811061029757fe5b600091825260209091206003909102018054600182015460029092015490935090915083565b603354600160a060020a031633146102d457600080fd5b6102de82826110e8565b5050565b336000908152603660209081526040808320805482518185028101850190935280835260609492939192909184015b828210156103615783829060005260206000209060030201604051806060016040529081600082015481526020016001820154815260200160028201548152505081526020019060010190610311565b5050505090506000808251905060005b818110156105e8576103816113f6565b84828151811061038d57fe5b60200260200101519050806040015181602001511180156103cf575060358160000151815481106103ba57fe5b90600052602060002090600702016006015442115b156105df576103dc611417565b60358260000151815481106103ed57fe5b6000918252602091829020604080516007939093029091018054600260018216156101009081026000190190921604601f81018690049095028401810190925260e083018481529293909284929091849184018282801561048f5780601f106104645761010080835404028352916020019161048f565b820191906000526020600020905b81548152906001019060200180831161047257829003601f168201915b50505091835250506001820154600160a060020a0316602082015260028201546040820152600382015460608201526004820154608080830191909152600583015460a083015260069092015460c090910152810151909150158015906104fa575060008160a00151115b1561059c5760008160a001518260c0015142038161051457fe5b04905080156105965760008260800151821061053b57506040830151602084015103610558565b836040015182846080015186602001518161055257fe5b04020390505b33600090815260366020526040902080548291908790811061057657fe5b600091825260209091206002600390920201018054909101905595909501945b506105dd565b602080830151336000908152603690925260409091208054859081106105be57fe5b9060005260206000209060030201600201819055508160200151850194505b505b50600101610371565b508115610626576106263383603560008154811061060257fe5b6000918252602090912060016007909202010154600160a060020a0316919061110f565b33600160a060020a03167fd8138f8a3f377c5259ca548e70e4c2de94f129f5a11036a15b69513cba2b426a8360405161065f9190611d62565b60405180910390a2505050565b600160a060020a03811682186000908152603460205260409020545b92915050565b60009081526034602052604090205490565b603354600160a060020a031633146106b757600080fd5b603354604051600091600160a060020a0316907fc7c0c772add429241571afb3805861fb3cfa2af374534088b76cdb4325a87e9a908390a36033805473ffffffffffffffffffffffffffffffffffffffff19169055565b1860009081526034602052604090205490565b603354600160a060020a0316331461073857600080fd5b836107615760405160e560020a62461bcd02815260040161075890611bcc565b60405180910390fd5b6032865111156107865760405160e560020a62461bcd02815260040161075890611b38565b603554156107dd57603560008154811061079c57fe5b6000918252602090912060016007909202010154600160a060020a038681169116146107dd5760405160e560020a62461bcd02815260040161075890611b01565b6107e5611417565b868152600160a060020a03861660208083019190915260408201869052606082018690526080820185905260a0820184905260c08201839052603580546001810182556000919091528251805191928492600785027fcfa4bec1d3298408bb5afcfcd9c430549c5b31f8aa5c5848151c0a55f473c34d019261086b92849291019061145d565b50602082015160018201805473ffffffffffffffffffffffffffffffffffffffff1916600160a060020a0392831617905560408301516002830155606083015160038301556080830151600483015560a0830151600583015560c0909201516006909101556108de908816333089611195565b8033600160a060020a03167f6d18f31a6c4a6a8ce3658db2496b23d88a5787ee3ceac8d29dc5e4715a76c967846040516109189190611cf4565b60405180910390a35050505050505050565b6035818154811061093757fe5b60009182526020918290206007919091020180546040805160026001841615610100026000190190931692909204601f8101859004850283018501909152808252919350918391908301828280156109d05780601f106109a5576101008083540402835291602001916109d0565b820191906000526020600020905b8154815290600101906020018083116109b357829003601f168201915b505050600184015460028501546003860154600487015460058801546006909801549697600160a060020a0390941696929550909350919087565b603354600160a060020a03163314610a2257600080fd5b610a37600160a060020a0383168418826110e8565b505050565b603354600160a060020a03163314610a5357600080fd5b610a5c816111bf565b50565b600054610100900460ff1680610a785750610a7861123b565b80610a86575060005460ff16155b610aa55760405160e560020a62461bcd02815260040161075890611b6f565b600054610100900460ff16158015610ad0576000805460ff1961ff0019909116610100171660011790555b603354600160a060020a0316331480610af25750603354600160a060020a0316155b610b115760405160e560020a62461bcd02815260040161075890611a10565b6033805473ffffffffffffffffffffffffffffffffffffffff1916600160a060020a03841617905580156102de576000805461ff00191690555050565b60008060006060806036600087600160a060020a0316600160a060020a03168152602001908152602001600020805480602002602001604051908101604052809291908181526020016000905b82821015610beb5783829060005260206000209060030201604051806060016040529081600082015481526020016001820154815260200160028201548152505081526020019060010190610b9b565b5050505090506000806000808451905060608167ffffffffffffffff81118015610c1457600080fd5b50604051908082528060200260200182016040528015610c4e57816020015b610c3b6114db565b815260200190600190039081610c335790505b50905060005b82811015610edf57610c646113f6565b878281518110610c7057fe5b60209081029190910181015160408101519181015198820198968701969092501115610ed657610c9e611417565b6035826000015181548110610caf57fe5b6000918252602091829020604080516007939093029091018054600260018216156101009081026000190190921604601f81018690049095028401810190925260e0830184815292939092849290918491840182828015610d515780601f10610d2657610100808354040283529160200191610d51565b820191906000526020600020905b815481529060010190602001808311610d3457829003601f168201915b50505091835250506001820154600160a060020a03166020820152600282015460408201526003820154606082015260048201546080820152600582015460a082015260069091015460c0909101529050610daa6114db565b60c0808301805183528351602080850191909152608085015160a0808601919091528501519284019290925290840151604080840191909152840151606083015251421115610ebb5760008260800151118015610e0b575060008260a00151115b8015610e3857506035836000015181548110610e2357fe5b90600052602060002090600702016006015442115b15610ea95760008260a001518360c00151420381610e5257fe5b0490508015610ea357600083608001518210610e7957506040840151602085015103610e96565b8460400151828560800151876020015181610e9057fe5b04020390505b6080830181905298909801975b50610ebb565b60208301516080820181905297909701965b80858581518110610ec857fe5b602002602001018190525050505b50600101610c54565b50939a9299509097509195509350505050565b603354600160a060020a03163314610f0957600080fd5b610a37838318826110e8565b603354600160a060020a03163314610f2c57600080fd5b8051835114610f505760405160e560020a62461bcd02815260040161075890611aa4565b82516000805b82811015610f8357838181518110610f6a57fe5b6020026020010151820191508080600101915050610f56565b508060358581548110610f9257fe5b9060005260206000209060070201600301541015610fc55760405160e560020a62461bcd02815260040161075890611c29565b60005b828110156110a657610fd86113f6565b8581528451859083908110610fe957fe5b602002602001015181602001818152505084828151811061100657fe5b60200260200101516035878154811061101b57fe5b9060005260206000209060070201600301600082825403925050819055506036600088848151811061104957fe5b602090810291909101810151600160a060020a031682528181019290925260409081016000908120805460018181018355918352918490208551600390930201918255928401518184015592015160029092019190915501610fc8565b50837f7664580287887991d18c5fe10963b566093ea2f8ff3bd4e8b0014a2502226eab86856040516110d9929190611922565b60405180910390a25050505050565b60008281526034602052604090205481146102de5760009182526034602052604090912055565b610a378363a9059cbb60e060020a028484604051602401611131929190611909565b60408051601f198184030181529190526020810180517bffffffffffffffffffffffffffffffffffffffffffffffffffffffff167fffffffff0000000000000000000000000000000000000000000000000000000090931692909217909152611241565b6111b9846323b872dd60e060020a02858585604051602401611131939291906118e5565b50505050565b600160a060020a0381166111d257600080fd5b603354604051600160a060020a038084169216907fc7c0c772add429241571afb3805861fb3cfa2af374534088b76cdb4325a87e9a90600090a36033805473ffffffffffffffffffffffffffffffffffffffff1916600160a060020a0392909216919091179055565b303b1590565b6060611296826040518060400160405280602081526020017f5361666545524332303a206c6f772d6c6576656c2063616c6c206661696c656481525085600160a060020a03166112d39092919063ffffffff16565b805190915015610a3757808060200190518101906112b491906116c2565b610a375760405160e560020a62461bcd02815260040161075890611c97565b60606112e284846000856112ec565b90505b9392505050565b606030318311156113125760405160e560020a62461bcd02815260040161075890611a47565b61131b856113b4565b61133a5760405160e560020a62461bcd02815260040161075890611c60565b6000606086600160a060020a0316858760405161135791906118b5565b60006040518083038185875af1925050503d8060008114611394576040519150601f19603f3d011682016040523d82523d6000602084013e611399565b606091505b50915091506113a98282866113ba565b979650505050505050565b3b151590565b606083156113c95750816112e5565b8251156113d95782518084602001fd5b8160405160e560020a62461bcd02815260040161075891906119b0565b60405180606001604052806000815260200160008152602001600081525090565b6040518060e00160405280606081526020016000600160a060020a0316815260200160008152602001600081526020016000815260200160008152602001600081525090565b828054600181600116156101000203166002900490600052602060002090601f016020900481019282601f1061149e57805160ff19168380011785556114cb565b828001600101855582156114cb579182015b828111156114cb5782518255916020019190600101906114b0565b506114d7929150611518565b5090565b6040518060e00160405280600081526020016060815260200160008152602001600081526020016000815260200160008152602001600081525090565b5b808211156114d75760008155600101611519565b8035600160a060020a038116811461068857600080fd5b600082601f830112611554578081fd5b813561156761156282611e64565b611e3d565b81815291506020808301908481018184028601820187101561158857600080fd5b60005b848110156115a75781358452928201929082019060010161158b565b505050505092915050565b6000602082840312156115c3578081fd5b6112e5838361152d565b600080604083850312156115df578081fd5b6115e9848461152d565b946020939093013593505050565b60008060006060848603121561160b578081fd5b833567ffffffffffffffff80821115611622578283fd5b818601915086601f830112611635578283fd5b813561164361156282611e64565b80828252602080830192508086018b828387028901011115611663578788fd5b8796505b8487101561168d576116798c8261152d565b845260019690960195928101928101611667565b509097508801359550505060408601359150808211156116ab578283fd5b506116b886828701611544565b9150509250925092565b6000602082840312156116d3578081fd5b815180151581146112e5578182fd5b6000602082840312156116f3578081fd5b5035919050565b6000806040838503121561170c578182fd5b823591506020830135600160a060020a0381168114611729578182fd5b809150509250929050565b600080600060608486031215611748578283fd5b83359250611759856020860161152d565b9150604084013590509250925092565b6000806040838503121561177b578182fd5b50508035926020909101359150565b60008060006060848603121561179e578283fd5b505081359360208301359350604090920135919050565b60008060008060008060c087890312156117cd578182fd5b863567ffffffffffffffff808211156117e4578384fd5b818901915089601f8301126117f7578384fd5b813581811115611805578485fd5b6020915061181b601f8201601f19168301611e3d565b8181528b8383860101111561182e578586fd5b81838501848301379081018201859052975061184c8a8a830161152d565b979a9799505050506040860135956060810135956080820135955060a0909101359350915050565b815260200190565b600160a060020a03169052565b600081518084526118a1816020860160208601611e84565b601f01601f19169290920160200192915050565b600082516118c7818460208701611e84565b9190910192915050565b600160a060020a0391909116815260200190565b600160a060020a039384168152919092166020820152604081019190915260600190565b600160a060020a03929092168252602082015260400190565b604080825283519082018190526000906020906060840190828701845b828110156119625761195284835161187c565b928401929084019060010161193f565b505050838103828501528085516119798184611d62565b91508387019250845b818110156119a357611995838551611874565b938501939250600101611982565b5090979650505050505050565b6000602082526112e56020830184611889565b600060e082526119d660e083018a611889565b600160a060020a039890981660208301525060408101959095526060850193909352608084019190915260a083015260c090910152919050565b60208082526010908201527f696e76616c696420676f7665726e6f7200000000000000000000000000000000604082015260600190565b60208082526026908201527f416464726573733a20696e73756666696369656e742062616c616e636520666f60408201527f722063616c6c0000000000000000000000000000000000000000000000000000606082015260800190565b60208082526026908201527f7573657273202620726577617264416d6f756e7473206c656e6774682064696660408201527f666572656e740000000000000000000000000000000000000000000000000000606082015260800190565b6020808252600f908201527f746f6b656e20646966666572656e740000000000000000000000000000000000604082015260600190565b6020808252601e908201527f746865206c656e677468206f66206e616d6520697320746f6f206c6f6e670000604082015260600190565b6020808252602e908201527f436f6e747261637420696e7374616e63652068617320616c726561647920626560408201527f656e20696e697469616c697a6564000000000000000000000000000000000000606082015260800190565b60208082526021908201527f7468652076616c7565206f6620746f74616c416d6f756e74206973207a65726f60408201527f2e00000000000000000000000000000000000000000000000000000000000000606082015260800190565b6020808252601e908201527f72656d61696e696e67416d6f756e74206e6f742073756666696369656e740000604082015260600190565b6020808252601d908201527f416464726573733a2063616c6c20746f206e6f6e2d636f6e7472616374000000604082015260600190565b6020808252602a908201527f5361666545524332303a204552433230206f7065726174696f6e20646964206e60408201527f6f74207375636365656400000000000000000000000000000000000000000000606082015260800190565b600060208252825160e06020840152611d11610100840182611889565b9050600160a060020a0360208501511660408401526040840151606084015260608401516080840152608084015160a084015260a084015160c084015260c084015160e08401528091505092915050565b90815260200190565b9283526020830191909152604082015260600190565b6000608080830187845260208781860152604087818701526060848188015283885180865260a095508589019150858582028a0101858b01895b83811015611e2957609f198c8403018552815160e08151855289820151818b870152611de982870182611889565b838b0151878c0152898401518a8801528d8401518e8801528c8401518d88015260c093840151939096019290925250509387019390870190600101611dbb565b50909e9d5050505050505050505050505050565b60405181810167ffffffffffffffff81118282101715611e5c57600080fd5b604052919050565b600067ffffffffffffffff821115611e7a578081fd5b5060209081020190565b60005b83811015611e9f578181015183820152602001611e87565b838111156111b9575050600091015256fea26469706673582212204db9aac1426fe3cc9d4bbce3b556e16c17d6baf872de7afe3788b8fb9dfd99d464736f6c634300060c0033",
  "linkReferences": {},
  "deployedLinkReferences": {}
}