{
  "_format": "hh-sol-artifact-1",
  "contractName": "DeFineBadgeBlindBox",
  "sourceName": "contracts/DeFineBadgeBlindBox.sol",
  "abi": [
    {
      "inputs": [
        {
          "internalType": "address",
          "name": "_signer",
          "type": "address"
        }
      ],
      "stateMutability": "nonpayable",
      "type": "constructor"
    },
    {
      "anonymous": false,
      "inputs": [
        {
          "indexed": false,
          "internalType": "address",
          "name": "minter",
          "type": "address"
        },
        {
          "indexed": false,
          "internalType": "uint256",
          "name": "tokenId",
          "type": "uint256"
        },
        {
          "indexed": false,
          "internalType": "uint256",
          "name": "level",
          "type": "uint256"
        },
        {
          "indexed": false,
          "internalType": "string",
          "name": "name",
          "type": "string"
        },
        {
          "indexed": false,
          "internalType": "address",
          "name": "nftAddress",
          "type": "address"
        },
        {
          "indexed": false,
          "internalType": "string",
          "name": "badgeType",
          "type": "string"
        }
      ],
      "name": "Mint",
      "type": "event"
    },
    {
      "anonymous": false,
      "inputs": [
        {
          "indexed": true,
          "internalType": "address",
          "name": "previousOwner",
          "type": "address"
        },
        {
          "indexed": true,
          "internalType": "address",
          "name": "newOwner",
          "type": "address"
        }
      ],
      "name": "OwnershipTransferred",
      "type": "event"
    },
    {
      "inputs": [
        {
          "internalType": "string",
          "name": "name",
          "type": "string"
        }
      ],
      "name": "claimBenefits",
      "outputs": [],
      "stateMutability": "nonpayable",
      "type": "function"
    },
    {
      "inputs": [
        {
          "internalType": "string",
          "name": "name",
          "type": "string"
        },
        {
          "internalType": "uint256",
          "name": "mintPrice",
          "type": "uint256"
        },
        {
          "internalType": "address",
          "name": "acceptCurrency",
          "type": "address"
        },
        {
          "internalType": "uint256",
          "name": "startTime",
          "type": "uint256"
        },
        {
          "internalType": "uint256",
          "name": "endTime",
          "type": "uint256"
        },
        {
          "internalType": "uint256[]",
          "name": "levelNums",
          "type": "uint256[]"
        },
        {
          "internalType": "string[]",
          "name": "levelTypes",
          "type": "string[]"
        },
        {
          "internalType": "uint256",
          "name": "feeRate",
          "type": "uint256"
        },
        {
          "internalType": "address",
          "name": "beneficiary",
          "type": "address"
        },
        {
          "internalType": "address",
          "name": "nftAddress",
          "type": "address"
        }
      ],
      "name": "createPool",
      "outputs": [],
      "stateMutability": "nonpayable",
      "type": "function"
    },
    {
      "inputs": [
        {
          "internalType": "string",
          "name": "name",
          "type": "string"
        },
        {
          "internalType": "address",
          "name": "_payee",
          "type": "address"
        }
      ],
      "name": "distribution",
      "outputs": [],
      "stateMutability": "nonpayable",
      "type": "function"
    },
    {
      "inputs": [
        {
          "internalType": "address",
          "name": "_payee",
          "type": "address"
        },
        {
          "internalType": "uint256",
          "name": "_amount",
          "type": "uint256"
        },
        {
          "internalType": "address",
          "name": "_currency",
          "type": "address"
        }
      ],
      "name": "emergencyWithdraw",
      "outputs": [],
      "stateMutability": "nonpayable",
      "type": "function"
    },
    {
      "inputs": [
        {
          "internalType": "string",
          "name": "name",
          "type": "string"
        },
        {
          "internalType": "uint256",
          "name": "_nonce",
          "type": "uint256"
        },
        {
          "internalType": "bytes",
          "name": "_signature",
          "type": "bytes"
        },
        {
          "internalType": "uint256",
          "name": "maxCount",
          "type": "uint256"
        }
      ],
      "name": "mintBox",
      "outputs": [],
      "stateMutability": "payable",
      "type": "function"
    },
    {
      "inputs": [],
      "name": "owner",
      "outputs": [
        {
          "internalType": "address",
          "name": "",
          "type": "address"
        }
      ],
      "stateMutability": "view",
      "type": "function"
    },
    {
      "inputs": [],
      "name": "renounceOwnership",
      "outputs": [],
      "stateMutability": "nonpayable",
      "type": "function"
    },
    {
      "inputs": [
        {
          "internalType": "string",
          "name": "name",
          "type": "string"
        },
        {
          "internalType": "address",
          "name": "_currency",
          "type": "address"
        }
      ],
      "name": "setAcceptCurrency",
      "outputs": [],
      "stateMutability": "nonpayable",
      "type": "function"
    },
    {
      "inputs": [
        {
          "internalType": "string",
          "name": "name",
          "type": "string"
        },
        {
          "internalType": "address",
          "name": "_beneficiary",
          "type": "address"
        }
      ],
      "name": "setBeneficary",
      "outputs": [],
      "stateMutability": "nonpayable",
      "type": "function"
    },
    {
      "inputs": [
        {
          "internalType": "string",
          "name": "name",
          "type": "string"
        },
        {
          "internalType": "uint256",
          "name": "_time",
          "type": "uint256"
        }
      ],
      "name": "setEndTime",
      "outputs": [],
      "stateMutability": "nonpayable",
      "type": "function"
    },
    {
      "inputs": [
        {
          "internalType": "string",
          "name": "name",
          "type": "string"
        },
        {
          "internalType": "uint256",
          "name": "_rate",
          "type": "uint256"
        }
      ],
      "name": "setFeeRate",
      "outputs": [],
      "stateMutability": "nonpayable",
      "type": "function"
    },
    {
      "inputs": [
        {
          "internalType": "string",
          "name": "name",
          "type": "string"
        },
        {
          "internalType": "uint256",
          "name": "_levels",
          "type": "uint256"
        }
      ],
      "name": "setLevels",
      "outputs": [],
      "stateMutability": "nonpayable",
      "type": "function"
    },
    {
      "inputs": [
        {
          "internalType": "string",
          "name": "name",
          "type": "string"
        },
        {
          "internalType": "uint256",
          "name": "_mintPrice",
          "type": "uint256"
        }
      ],
      "name": "setMintPrice",
      "outputs": [],
      "stateMutability": "nonpayable",
      "type": "function"
    },
    {
      "inputs": [
        {
          "internalType": "string",
          "name": "name",
          "type": "string"
        },
        {
          "internalType": "bool",
          "name": "needVerify",
          "type": "bool"
        }
      ],
      "name": "setNeedVerify",
      "outputs": [],
      "stateMutability": "nonpayable",
      "type": "function"
    },
    {
      "inputs": [
        {
          "internalType": "string",
          "name": "name",
          "type": "string"
        },
        {
          "internalType": "address",
          "name": "_address",
          "type": "address"
        }
      ],
      "name": "setNftAddress",
      "outputs": [],
      "stateMutability": "nonpayable",
      "type": "function"
    },
    {
      "inputs": [
        {
          "internalType": "string",
          "name": "name",
          "type": "string"
        },
        {
          "internalType": "uint256",
          "name": "_nonce",
          "type": "uint256"
        }
      ],
      "name": "setNonce",
      "outputs": [],
      "stateMutability": "nonpayable",
      "type": "function"
    },
    {
      "inputs": [
        {
          "internalType": "string",
          "name": "name",
          "type": "string"
        },
        {
          "internalType": "uint256",
          "name": "_time",
          "type": "uint256"
        }
      ],
      "name": "setStartTime",
      "outputs": [],
      "stateMutability": "nonpayable",
      "type": "function"
    },
    {
      "inputs": [
        {
          "internalType": "string",
          "name": "name",
          "type": "string"
        },
        {
          "internalType": "uint256",
          "name": "userLimit",
          "type": "uint256"
        }
      ],
      "name": "setUserLimit",
      "outputs": [],
      "stateMutability": "nonpayable",
      "type": "function"
    },
    {
      "inputs": [],
      "name": "signer",
      "outputs": [
        {
          "internalType": "address",
          "name": "",
          "type": "address"
        }
      ],
      "stateMutability": "view",
      "type": "function"
    },
    {
      "inputs": [
        {
          "internalType": "bytes",
          "name": "sig",
          "type": "bytes"
        }
      ],
      "name": "splitSignature",
      "outputs": [
        {
          "internalType": "bytes32",
          "name": "r",
          "type": "bytes32"
        },
        {
          "internalType": "bytes32",
          "name": "s",
          "type": "bytes32"
        },
        {
          "internalType": "uint8",
          "name": "v",
          "type": "uint8"
        }
      ],
      "stateMutability": "pure",
      "type": "function"
    },
    {
      "inputs": [
        {
          "internalType": "string",
          "name": "name",
          "type": "string"
        }
      ],
      "name": "toggleSaleState",
      "outputs": [],
      "stateMutability": "nonpayable",
      "type": "function"
    },
    {
      "inputs": [
        {
          "internalType": "address",
          "name": "newOwner",
          "type": "address"
        }
      ],
      "name": "transferOwnership",
      "outputs": [],
      "stateMutability": "nonpayable",
      "type": "function"
    },
    {
      "inputs": [
        {
          "internalType": "string",
          "name": "name",
          "type": "string"
        },
        {
          "internalType": "uint256",
          "name": "_level",
          "type": "uint256"
        },
        {
          "internalType": "uint256",
          "name": "_count",
          "type": "uint256"
        }
      ],
      "name": "updateLevel",
      "outputs": [],
      "stateMutability": "nonpayable",
      "type": "function"
    },
    {
      "inputs": [
        {
          "internalType": "string",
          "name": "",
          "type": "string"
        },
        {
          "internalType": "address",
          "name": "",
          "type": "address"
        }
      ],
      "name": "userMinted",
      "outputs": [
        {
          "internalType": "uint256",
          "name": "",
          "type": "uint256"
        }
      ],
      "stateMutability": "view",
      "type": "function"
    },
    {
      "inputs": [
        {
          "internalType": "address",
          "name": "_signer",
          "type": "address"
        },
        {
          "internalType": "address",
          "name": "_to",
          "type": "address"
        },
        {
          "internalType": "string",
          "name": "_type",
          "type": "string"
        },
        {
          "internalType": "uint256",
          "name": "_nonce",
          "type": "uint256"
        },
        {
          "internalType": "bytes",
          "name": "signature",
          "type": "bytes"
        }
      ],
      "name": "verify",
      "outputs": [
        {
          "internalType": "address",
          "name": "",
          "type": "address"
        }
      ],
      "stateMutability": "pure",
      "type": "function"
    },
    {
      "inputs": [
        {
          "internalType": "address",
          "name": "_signer",
          "type": "address"
        },
        {
          "internalType": "address",
          "name": "_to",
          "type": "address"
        },
        {
          "internalType": "string",
          "name": "_type",
          "type": "string"
        },
        {
          "internalType": "uint256",
          "name": "_nonce",
          "type": "uint256"
        },
        {
          "internalType": "bytes",
          "name": "signature",
          "type": "bytes"
        },
        {
          "internalType": "uint256",
          "name": "maxCount",
          "type": "uint256"
        }
      ],
      "name": "verify",
      "outputs": [
        {
          "internalType": "address",
          "name": "",
          "type": "address"
        }
      ],
      "stateMutability": "pure",
      "type": "function"
    }
  ],
  "bytecode": "0x60806040526000600660006101000a81548173ffffffffffffffffffffffffffffffffffffffff021916908373ffffffffffffffffffffffffffffffffffffffff1602179055503480156200005357600080fd5b5060405162004ceb38038062004ceb8339818101604052810190620000799190620001c4565b620000996200008d620000e160201b60201c565b620000e960201b60201c565b80600260006101000a81548173ffffffffffffffffffffffffffffffffffffffff021916908373ffffffffffffffffffffffffffffffffffffffff160217905550506200023e565b600033905090565b60008060009054906101000a900473ffffffffffffffffffffffffffffffffffffffff169050816000806101000a81548173ffffffffffffffffffffffffffffffffffffffff021916908373ffffffffffffffffffffffffffffffffffffffff1602179055508173ffffffffffffffffffffffffffffffffffffffff168173ffffffffffffffffffffffffffffffffffffffff167f8be0079c531659141344cd1fd0a4f28419497f9722a3daafe3b4186f6b6457e060405160405180910390a35050565b600081519050620001be8162000224565b92915050565b600060208284031215620001d757600080fd5b6000620001e784828501620001ad565b91505092915050565b6000620001fd8262000204565b9050919050565b600073ffffffffffffffffffffffffffffffffffffffff82169050919050565b6200022f81620001f0565b81146200023b57600080fd5b50565b614a9d806200024e6000396000f3fe6080604052600436106101815760003560e01c80638da5cb5b116100d1578063b32cc1211161008a578063e3642f3111610064578063e3642f3114610543578063f2fde38b1461056c578063fbcbba1d14610595578063fbf81308146105be57610181565b8063b32cc121146104b4578063bb28c3f2146104dd578063e04c36a61461050657610181565b80638da5cb5b146103b35780639e831914146103de578063a11b3495146103fa578063a28d5b0614610423578063a7bb58031461044c578063a90b7b8d1461048b57610181565b8063551512de1161013e578063693e6cd111610118578063693e6cd114610321578063715018a61461034a57806379195db4146103615780638358ff651461038a57610181565b8063551512de1461029257806358b9ba82146102bb5780635f906ebe146102e457610181565b80630314c06b146101865780630a5d0f2f146101af57806316b79f1f146101d85780631e31549e14610201578063238ac9331461023e578063258caba914610269575b600080fd5b34801561019257600080fd5b506101ad60048036038101906101a8919061385a565b6105e7565b005b3480156101bb57600080fd5b506101d660048036038101906101d19190613902565b6106c7565b005b3480156101e457600080fd5b506101ff60048036038101906101fa919061385a565b61076d565b005b34801561020d57600080fd5b5061022860048036038101906102239190613600565b61084d565b60405161023591906141ad565b60405180910390f35b34801561024a57600080fd5b506102536108ef565b60405161026091906141ad565b60405180910390f35b34801561027557600080fd5b50610290600480360381019061028b9190613819565b610915565b005b34801561029e57600080fd5b506102b960048036038101906102b49190613760565b6109fc565b005b3480156102c757600080fd5b506102e260048036038101906102dd919061385a565b610bae565b005b3480156102f057600080fd5b5061030b6004803603810190610306919061385a565b610c8e565b6040516103189190614563565b60405180910390f35b34801561032d57600080fd5b50610348600480360381019061034391906138ae565b610cc9565b005b34801561035657600080fd5b5061035f610d82565b005b34801561036d57600080fd5b5061038860048036038101906103839190613902565b610e0a565b005b34801561039657600080fd5b506103b160048036038101906103ac9190613902565b610eb0565b005b3480156103bf57600080fd5b506103c8610f56565b6040516103d591906141ad565b60405180910390f35b6103f860048036038101906103f39190613a79565b610f7f565b005b34801561040657600080fd5b50610421600480360381019061041c9190613902565b611a62565b005b34801561042f57600080fd5b5061044a60048036038101906104459190613819565b611c46565b005b34801561045857600080fd5b50610473600480360381019061046e91906137d8565b611f24565b60405161048293929190614297565b60405180910390f35b34801561049757600080fd5b506104b260048036038101906104ad9190613956565b611f8c565b005b3480156104c057600080fd5b506104db60048036038101906104d69190613902565b6123c3565b005b3480156104e957600080fd5b5061050460048036038101906104ff9190613902565b61267f565b005b34801561051257600080fd5b5061052d600480360381019061052891906136a7565b612725565b60405161053a91906141ad565b60405180910390f35b34801561054f57600080fd5b5061056a60048036038101906105659190613902565b6127ca565b005b34801561057857600080fd5b50610593600480360381019061058e91906135d7565b612870565b005b3480156105a157600080fd5b506105bc60048036038101906105b7919061385a565b612968565b005b3480156105ca57600080fd5b506105e560048036038101906105e09190613b0c565b612e5f565b005b6105ef612f84565b73ffffffffffffffffffffffffffffffffffffffff1661060d610f56565b73ffffffffffffffffffffffffffffffffffffffff1614610663576040517f08c379a000000000000000000000000000000000000000000000000000000000815260040161065a906144a3565b60405180910390fd5b806003836040516106749190614159565b9081526020016040518091039020600b0160006101000a81548173ffffffffffffffffffffffffffffffffffffffff021916908373ffffffffffffffffffffffffffffffffffffffff1602179055505050565b6106cf612f84565b73ffffffffffffffffffffffffffffffffffffffff166106ed610f56565b73ffffffffffffffffffffffffffffffffffffffff1614610743576040517f08c379a000000000000000000000000000000000000000000000000000000000815260040161073a906144a3565b60405180910390fd5b806003836040516107549190614159565b9081526020016040518091039020600501819055505050565b610775612f84565b73ffffffffffffffffffffffffffffffffffffffff16610793610f56565b73ffffffffffffffffffffffffffffffffffffffff16146107e9576040517f08c379a00000000000000000000000000000000000000000000000000000000081526004016107e0906144a3565b60405180910390fd5b806003836040516107fa9190614159565b908152602001604051809103902060030160006101000a81548173ffffffffffffffffffffffffffffffffffffffff021916908373ffffffffffffffffffffffffffffffffffffffff1602179055505050565b600080858585604051602001610865939291906140d6565b604051602081830303815290604052805190602001209050600080600061088b86611f24565b925092509250600184828585604051600081526020016040526040516108b494939291906142ce565b6020604051602081039080840390855afa1580156108d6573d6000803e3d6000fd5b5050506020604051035194505050505095945050505050565b600260009054906101000a900473ffffffffffffffffffffffffffffffffffffffff1681565b61091d612f84565b73ffffffffffffffffffffffffffffffffffffffff1661093b610f56565b73ffffffffffffffffffffffffffffffffffffffff1614610991576040517f08c379a0000000000000000000000000000000000000000000000000000000008152600401610988906144a3565b60405180910390fd5b6003816040516109a19190614159565b908152602001604051809103902060000160009054906101000a900460ff16156003826040516109d19190614159565b908152602001604051809103902060000160006101000a81548160ff02191690831515021790555050565b610a04612f84565b73ffffffffffffffffffffffffffffffffffffffff16610a22610f56565b73ffffffffffffffffffffffffffffffffffffffff1614610a78576040517f08c379a0000000000000000000000000000000000000000000000000000000008152600401610a6f906144a3565b60405180910390fd5b600660009054906101000a900473ffffffffffffffffffffffffffffffffffffffff1673ffffffffffffffffffffffffffffffffffffffff168173ffffffffffffffffffffffffffffffffffffffff161415610b1a578273ffffffffffffffffffffffffffffffffffffffff166108fc839081150290604051600060405180830381858888f19350505050158015610b14573d6000803e3d6000fd5b50610ba9565b8073ffffffffffffffffffffffffffffffffffffffff1663a9059cbb84846040518363ffffffff1660e01b8152600401610b559291906141ff565b602060405180830381600087803b158015610b6f57600080fd5b505af1158015610b83573d6000803e3d6000fd5b505050506040513d601f19601f82011682018060405250810190610ba791906137af565b505b505050565b610bb6612f84565b73ffffffffffffffffffffffffffffffffffffffff16610bd4610f56565b73ffffffffffffffffffffffffffffffffffffffff1614610c2a576040517f08c379a0000000000000000000000000000000000000000000000000000000008152600401610c21906144a3565b60405180910390fd5b80600383604051610c3b9190614159565b9081526020016040518091039020600d0160006101000a81548173ffffffffffffffffffffffffffffffffffffffff021916908373ffffffffffffffffffffffffffffffffffffffff1602179055505050565b600482805160208101820180518482526020830160208501208183528095505050505050602052806000526040600020600091509150505481565b610cd1612f84565b73ffffffffffffffffffffffffffffffffffffffff16610cef610f56565b73ffffffffffffffffffffffffffffffffffffffff1614610d45576040517f08c379a0000000000000000000000000000000000000000000000000000000008152600401610d3c906144a3565b60405180910390fd5b80600383604051610d569190614159565b908152602001604051809103902060000160016101000a81548160ff0219169083151502179055505050565b610d8a612f84565b73ffffffffffffffffffffffffffffffffffffffff16610da8610f56565b73ffffffffffffffffffffffffffffffffffffffff1614610dfe576040517f08c379a0000000000000000000000000000000000000000000000000000000008152600401610df5906144a3565b60405180910390fd5b610e086000612f8c565b565b610e12612f84565b73ffffffffffffffffffffffffffffffffffffffff16610e30610f56565b73ffffffffffffffffffffffffffffffffffffffff1614610e86576040517f08c379a0000000000000000000000000000000000000000000000000000000008152600401610e7d906144a3565b60405180910390fd5b80600383604051610e979190614159565b9081526020016040518091039020601001819055505050565b610eb8612f84565b73ffffffffffffffffffffffffffffffffffffffff16610ed6610f56565b73ffffffffffffffffffffffffffffffffffffffff1614610f2c576040517f08c379a0000000000000000000000000000000000000000000000000000000008152600401610f23906144a3565b60405180910390fd5b80600383604051610f3d9190614159565b9081526020016040518091039020600401819055505050565b60008060009054906101000a900473ffffffffffffffffffffffffffffffffffffffff16905090565b8360011515600382604051610f949190614159565b908152602001604051809103902060000160009054906101000a900460ff16151514610ff5576040517f08c379a0000000000000000000000000000000000000000000000000000000008152600401610fec90614423565b60405180910390fd5b600660009054906101000a900473ffffffffffffffffffffffffffffffffffffffff1673ffffffffffffffffffffffffffffffffffffffff1660038660405161103e9190614159565b9081526020016040518091039020600d0160009054906101000a900473ffffffffffffffffffffffffffffffffffffffff1673ffffffffffffffffffffffffffffffffffffffff1614156110c7576040517f08c379a00000000000000000000000000000000000000000000000000000000081526004016110be90614523565b60405180910390fd5b426003866040516110d89190614159565b908152602001604051809103902060040154111561112b576040517f08c379a000000000000000000000000000000000000000000000000000000000815260040161112290614483565b60405180910390fd5b4260038660405161113c9190614159565b908152602001604051809103902060050154101561118f576040517f08c379a000000000000000000000000000000000000000000000000000000000815260040161118690614363565b60405180910390fd5b60006003866040516111a19190614159565b908152602001604051809103902060020154116111f3576040517f08c379a00000000000000000000000000000000000000000000000000000000081526004016111ea90614343565b60405180910390fd5b6003856040516112039190614159565b9081526020016040518091039020601001546004866040516112259190614159565b908152602001604051809103902060003373ffffffffffffffffffffffffffffffffffffffff1673ffffffffffffffffffffffffffffffffffffffff16815260200190815260200160002054106112b1576040517f08c379a00000000000000000000000000000000000000000000000000000000081526004016112a8906143e3565b60405180910390fd5b816004866040516112c29190614159565b908152602001604051809103902060003373ffffffffffffffffffffffffffffffffffffffff1673ffffffffffffffffffffffffffffffffffffffff168152602001908152602001600020541061134e576040517f08c379a0000000000000000000000000000000000000000000000000000000008152600401611345906143a3565b60405180910390fd5b60038560405161135e9190614159565b908152602001604051809103902060000160019054906101000a900460ff16156114485760006113b4600260009054906101000a900473ffffffffffffffffffffffffffffffffffffffff163388888888612725565b90508073ffffffffffffffffffffffffffffffffffffffff16600260009054906101000a900473ffffffffffffffffffffffffffffffffffffffff1673ffffffffffffffffffffffffffffffffffffffff1614611446576040517f08c379a000000000000000000000000000000000000000000000000000000000815260040161143d90614383565b60405180910390fd5b505b600060038660405161145a9190614159565b908152602001604051809103902060010154111561166657600660009054906101000a900473ffffffffffffffffffffffffffffffffffffffff1673ffffffffffffffffffffffffffffffffffffffff166003866040516114bb9190614159565b908152602001604051809103902060030160009054906101000a900473ffffffffffffffffffffffffffffffffffffffff1673ffffffffffffffffffffffffffffffffffffffff161415611572576003856040516115199190614159565b90815260200160405180910390206001015434101561156d576040517f08c379a000000000000000000000000000000000000000000000000000000000815260040161156490614543565b60405180910390fd5b611665565b6003856040516115829190614159565b908152602001604051809103902060030160009054906101000a900473ffffffffffffffffffffffffffffffffffffffff1673ffffffffffffffffffffffffffffffffffffffff166323b872dd33306003896040516115e19190614159565b9081526020016040518091039020600101546040518463ffffffff1660e01b8152600401611611939291906141c8565b602060405180830381600087803b15801561162b57600080fd5b505af115801561163f573d6000803e3d6000fd5b505050506040513d601f19601f8201168201806040525081019061166391906137af565b505b5b6003856040516116769190614159565b9081526020016040518091039020600f01546003866040516116989190614159565b9081526020016040518091039020600a0160008282546116b8919061468e565b925050819055506003856040516116cf9190614159565b9081526020016040518091039020600e01546003866040516116f19190614159565b9081526020016040518091039020600c016000828254611711919061468e565b92505081905550600061174e866117496003896040516117319190614159565b90815260200160405180910390206002015489613050565b61310c565b905060016003876040516117629190614159565b90815260200160405180910390206002015461177e919061476f565b60038760405161178e9190614159565b90815260200160405180910390206002018190555060006003876040516117b59190614159565b908152602001604051809103902060080182815481106117fe577f4e487b7100000000000000000000000000000000000000000000000000000000600052603260045260246000fd5b9060005260206000200180546118139061486e565b80601f016020809104026020016040519081016040528092919081815260200182805461183f9061486e565b801561188c5780601f106118615761010080835404028352916020019161188c565b820191906000526020600020905b81548152906001019060200180831161186f57829003601f168201915b5050505050905060006003886040516118a59190614159565b9081526020016040518091039020600d0160009054906101000a900473ffffffffffffffffffffffffffffffffffffffff1673ffffffffffffffffffffffffffffffffffffffff1663ea37c2a983336040518363ffffffff1660e01b8152600401611911929190614313565b602060405180830381600087803b15801561192b57600080fd5b505af115801561193f573d6000803e3d6000fd5b505050506040513d601f19601f820116820180604052508101906119639190613b73565b90506004886040516119759190614159565b908152602001604051809103902060003373ffffffffffffffffffffffffffffffffffffffff1673ffffffffffffffffffffffffffffffffffffffff16815260200190815260200160002060008154809291906119d1906148a0565b91905055507fbdf3471e93cdcd9bcd5ec42ba5d7f19daa1cceeae275df895a9b65db3f7aeb263382858b60038d604051611a0b9190614159565b9081526020016040518091039020600d0160009054906101000a900473ffffffffffffffffffffffffffffffffffffffff1687604051611a5096959493929190614228565b60405180910390a15050505050505050565b611a6a612f84565b73ffffffffffffffffffffffffffffffffffffffff16611a88610f56565b73ffffffffffffffffffffffffffffffffffffffff1614611ade576040517f08c379a0000000000000000000000000000000000000000000000000000000008152600401611ad5906144a3565b60405180910390fd5b8181600384604051611af09190614159565b9081526020016040518091039020600101819055506000600382604051611b179190614159565b90815260200160405180910390206002015411611b69576040517f08c379a0000000000000000000000000000000000000000000000000000000008152600401611b6090614443565b60405180910390fd5b6000612710600383604051611b7e9190614159565b908152602001604051809103902060090154600384604051611ba09190614159565b908152602001604051809103902060010154611bbc9190614715565b611bc691906146e4565b905080600383604051611bd99190614159565b908152602001604051809103902060010154611bf5919061476f565b600383604051611c059190614159565b9081526020016040518091039020600e018190555080600383604051611c2b9190614159565b9081526020016040518091039020600f018190555050505050565b80600381604051611c579190614159565b9081526020016040518091039020600b0160009054906101000a900473ffffffffffffffffffffffffffffffffffffffff1673ffffffffffffffffffffffffffffffffffffffff163373ffffffffffffffffffffffffffffffffffffffff1614611cf6576040517f08c379a0000000000000000000000000000000000000000000000000000000008152600401611ced90614403565b60405180910390fd5b6000600383604051611d089190614159565b9081526020016040518091039020600c015411611d5a576040517f08c379a0000000000000000000000000000000000000000000000000000000008152600401611d51906144c3565b60405180910390fd5b6000600383604051611d6c9190614159565b908152602001604051809103902060030160009054906101000a900473ffffffffffffffffffffffffffffffffffffffff1690506000600384604051611db29190614159565b9081526020016040518091039020600c015490506000600385604051611dd89190614159565b9081526020016040518091039020600c0181905550600660009054906101000a900473ffffffffffffffffffffffffffffffffffffffff1673ffffffffffffffffffffffffffffffffffffffff168273ffffffffffffffffffffffffffffffffffffffff161415611e8f573373ffffffffffffffffffffffffffffffffffffffff166108fc829081150290604051600060405180830381858888f19350505050158015611e89573d6000803e3d6000fd5b50611f1e565b8173ffffffffffffffffffffffffffffffffffffffff1663a9059cbb33836040518363ffffffff1660e01b8152600401611eca9291906141ff565b602060405180830381600087803b158015611ee457600080fd5b505af1158015611ef8573d6000803e3d6000fd5b505050506040513d601f19601f82011682018060405250810190611f1c91906137af565b505b50505050565b60008060006041845114611f6d576040517f08c379a0000000000000000000000000000000000000000000000000000000008152600401611f64906144e3565b60405180910390fd5b6020840151925060408401519150606084015160001a90509193909250565b611f94612f84565b73ffffffffffffffffffffffffffffffffffffffff16611fb2610f56565b73ffffffffffffffffffffffffffffffffffffffff1614612008576040517f08c379a0000000000000000000000000000000000000000000000000000000008152600401611fff906144a3565b60405180910390fd5b6000612710848b6120199190614715565b61202391906146e4565b9050600080600090505b875181101561210b5787818151811061206f577f4e487b7100000000000000000000000000000000000000000000000000000000600052603260045260246000fd5b602002602001015160058e6040516120879190614159565b90815260200160405180910390206000838152602001908152602001600020819055508781815181106120e3577f4e487b7100000000000000000000000000000000000000000000000000000000600052603260045260246000fd5b6020026020010151826120f6919061468e565b91508080612103906148a0565b91505061202d565b5060006040518061024001604052806001151581526020016001151581526020018d81526020018381526020018c73ffffffffffffffffffffffffffffffffffffffff1681526020018b81526020018a81526020016000815260200188518152602001888152602001878152602001600081526020018673ffffffffffffffffffffffffffffffffffffffff168152602001600081526020018573ffffffffffffffffffffffffffffffffffffffff168152602001848e6121cc919061476f565b8152602001848152602001600181525090508060038e6040516121ef9190614159565b908152602001604051809103902060008201518160000160006101000a81548160ff02191690831515021790555060208201518160000160016101000a81548160ff021916908315150217905550604082015181600101556060820151816002015560808201518160030160006101000a81548173ffffffffffffffffffffffffffffffffffffffff021916908373ffffffffffffffffffffffffffffffffffffffff16021790555060a0820151816004015560c0820151816005015560e0820151816006015561010082015181600701556101208201518160080190805190602001906122de92919061321a565b50610140820151816009015561016082015181600a015561018082015181600b0160006101000a81548173ffffffffffffffffffffffffffffffffffffffff021916908373ffffffffffffffffffffffffffffffffffffffff1602179055506101a082015181600c01556101c082015181600d0160006101000a81548173ffffffffffffffffffffffffffffffffffffffff021916908373ffffffffffffffffffffffffffffffffffffffff1602179055506101e082015181600e015561020082015181600f0155610220820151816010015590505050505050505050505050505050565b6123cb612f84565b73ffffffffffffffffffffffffffffffffffffffff166123e9610f56565b73ffffffffffffffffffffffffffffffffffffffff161461243f576040517f08c379a0000000000000000000000000000000000000000000000000000000008152600401612436906144a3565b60405180910390fd5b81816003846040516124519190614159565b908152602001604051809103902060090181905550600061271060038560405161247b9190614159565b90815260200160405180910390206009015460038660405161249d9190614159565b9081526020016040518091039020600101546124b99190614715565b6124c391906146e4565b9050806003856040516124d69190614159565b9081526020016040518091039020600101546124f2919061476f565b6003856040516125029190614159565b9081526020016040518091039020600e0181905550806003856040516125289190614159565b9081526020016040518091039020600f01819055505060006003826040516125509190614159565b908152602001604051809103902060020154116125a2576040517f08c379a000000000000000000000000000000000000000000000000000000000815260040161259990614443565b60405180910390fd5b60006127106003836040516125b79190614159565b9081526020016040518091039020600901546003846040516125d99190614159565b9081526020016040518091039020600101546125f59190614715565b6125ff91906146e4565b9050806003836040516126129190614159565b90815260200160405180910390206001015461262e919061476f565b60038360405161263e9190614159565b9081526020016040518091039020600e0181905550806003836040516126649190614159565b9081526020016040518091039020600f018190555050505050565b612687612f84565b73ffffffffffffffffffffffffffffffffffffffff166126a5610f56565b73ffffffffffffffffffffffffffffffffffffffff16146126fb576040517f08c379a00000000000000000000000000000000000000000000000000000000081526004016126f2906144a3565b60405180910390fd5b8060038360405161270c9190614159565b9081526020016040518091039020600601819055505050565b6000808686868560405160200161273f949392919061410f565b604051602081830303815290604052805190602001209050600080600061276587611f24565b9250925092506001848285856040516000815260200160405260405161278e94939291906142ce565b6020604051602081039080840390855afa1580156127b0573d6000803e3d6000fd5b505050602060405103519450505050509695505050505050565b6127d2612f84565b73ffffffffffffffffffffffffffffffffffffffff166127f0610f56565b73ffffffffffffffffffffffffffffffffffffffff1614612846576040517f08c379a000000000000000000000000000000000000000000000000000000000815260040161283d906144a3565b60405180910390fd5b806003836040516128579190614159565b9081526020016040518091039020600701819055505050565b612878612f84565b73ffffffffffffffffffffffffffffffffffffffff16612896610f56565b73ffffffffffffffffffffffffffffffffffffffff16146128ec576040517f08c379a00000000000000000000000000000000000000000000000000000000081526004016128e3906144a3565b60405180910390fd5b600073ffffffffffffffffffffffffffffffffffffffff168173ffffffffffffffffffffffffffffffffffffffff16141561295c576040517f08c379a0000000000000000000000000000000000000000000000000000000008152600401612953906143c3565b60405180910390fd5b61296581612f8c565b50565b612970612f84565b73ffffffffffffffffffffffffffffffffffffffff1661298e610f56565b73ffffffffffffffffffffffffffffffffffffffff16146129e4576040517f08c379a00000000000000000000000000000000000000000000000000000000081526004016129db906144a3565b60405180910390fd5b60006003836040516129f69190614159565b9081526020016040518091039020600c01541180612a3557506000600383604051612a219190614159565b9081526020016040518091039020600a0154115b612a74576040517f08c379a0000000000000000000000000000000000000000000000000000000008152600401612a6b90614463565b60405180910390fd5b6000600383604051612a869190614159565b9081526020016040518091039020600c015490506000600384604051612aac9190614159565b9081526020016040518091039020600a015490506000600385604051612ad29190614159565b9081526020016040518091039020600c01819055506000600385604051612af99190614159565b9081526020016040518091039020600a0181905550600660009054906101000a900473ffffffffffffffffffffffffffffffffffffffff1673ffffffffffffffffffffffffffffffffffffffff16600385604051612b579190614159565b908152602001604051809103902060030160009054906101000a900473ffffffffffffffffffffffffffffffffffffffff1673ffffffffffffffffffffffffffffffffffffffff161415612c79578273ffffffffffffffffffffffffffffffffffffffff166108fc829081150290604051600060405180830381858888f19350505050158015612beb573d6000803e3d6000fd5b50600384604051612bfc9190614159565b9081526020016040518091039020600b0160009054906101000a900473ffffffffffffffffffffffffffffffffffffffff1673ffffffffffffffffffffffffffffffffffffffff166108fc839081150290604051600060405180830381858888f19350505050158015612c73573d6000803e3d6000fd5b50612e59565b600384604051612c899190614159565b908152602001604051809103902060030160009054906101000a900473ffffffffffffffffffffffffffffffffffffffff1673ffffffffffffffffffffffffffffffffffffffff1663a9059cbb84836040518363ffffffff1660e01b8152600401612cf59291906141ff565b602060405180830381600087803b158015612d0f57600080fd5b505af1158015612d23573d6000803e3d6000fd5b505050506040513d601f19601f82011682018060405250810190612d4791906137af565b50600384604051612d589190614159565b908152602001604051809103902060030160009054906101000a900473ffffffffffffffffffffffffffffffffffffffff1673ffffffffffffffffffffffffffffffffffffffff1663a9059cbb600386604051612db59190614159565b9081526020016040518091039020600b0160009054906101000a900473ffffffffffffffffffffffffffffffffffffffff16846040518363ffffffff1660e01b8152600401612e059291906141ff565b602060405180830381600087803b158015612e1f57600080fd5b505af1158015612e33573d6000803e3d6000fd5b505050506040513d601f19601f82011682018060405250810190612e5791906137af565b505b50505050565b612e67612f84565b73ffffffffffffffffffffffffffffffffffffffff16612e85610f56565b73ffffffffffffffffffffffffffffffffffffffff1614612edb576040517f08c379a0000000000000000000000000000000000000000000000000000000008152600401612ed2906144a3565b60405180910390fd5b6001600384604051612eed9190614159565b908152602001604051809103902060070154612f09919061476f565b821115612f4b576040517f08c379a0000000000000000000000000000000000000000000000000000000008152600401612f4290614503565b60405180910390fd5b80600584604051612f5c9190614159565b9081526020016040518091039020600084815260200190815260200160002081905550505050565b600033905090565b60008060009054906101000a900473ffffffffffffffffffffffffffffffffffffffff169050816000806101000a81548173ffffffffffffffffffffffffffffffffffffffff021916908373ffffffffffffffffffffffffffffffffffffffff1602179055508173ffffffffffffffffffffffffffffffffffffffff168173ffffffffffffffffffffffffffffffffffffffff167f8be0079c531659141344cd1fd0a4f28419497f9722a3daafe3b4186f6b6457e060405160405180910390a35050565b6000808344426003866040516130669190614159565b90815260200160405180910390206006015460405160200161308a93929190614170565b6040516020818303038152906040528051906020012060001c6130ad9190614917565b905060016003846040516130c19190614159565b9081526020016040518091039020600601546130dd919061468e565b6003846040516130ed9190614159565b9081526020016040518091039020600601819055508091505092915050565b600080600090505b6003846040516131249190614159565b9081526020016040518091039020600701548110156132125760058460405161314d9190614159565b90815260200160405180910390206000828152602001908152602001600020548310156131c2576005846040516131849190614159565b9081526020016040518091039020600082815260200190815260200160002060008154809291906131b490614844565b919050555080915050613214565b6005846040516131d29190614159565b9081526020016040518091039020600082815260200190815260200160002054836131fd919061476f565b9250808061320a906148a0565b915050613114565b505b92915050565b828054828255906000526020600020908101928215613269579160200282015b8281111561326857825182908051906020019061325892919061327a565b509160200191906001019061323a565b5b5090506132769190613300565b5090565b8280546132869061486e565b90600052602060002090601f0160209004810192826132a857600085556132ef565b82601f106132c157805160ff19168380011785556132ef565b828001600101855582156132ef579182015b828111156132ee5782518255916020019190600101906132d3565b5b5090506132fc9190613324565b5090565b5b8082111561332057600081816133179190613341565b50600101613301565b5090565b5b8082111561333d576000816000905550600101613325565b5090565b50805461334d9061486e565b6000825580601f1061335f575061337e565b601f01602090049060005260206000209081019061337d9190613324565b5b50565b600061339461338f846145af565b61457e565b9050808382526020820190508260005b858110156133d457813585016133ba8882613583565b8452602084019350602083019250506001810190506133a4565b5050509392505050565b60006133f16133ec846145db565b61457e565b9050808382526020820190508285602086028201111561341057600080fd5b60005b85811015613440578161342688826135ad565b845260208401935060208301925050600181019050613413565b5050509392505050565b600061345d61345884614607565b61457e565b90508281526020810184848401111561347557600080fd5b613480848285614802565b509392505050565b600061349b61349684614637565b61457e565b9050828152602081018484840111156134b357600080fd5b6134be848285614802565b509392505050565b6000813590506134d581614a22565b92915050565b600082601f8301126134ec57600080fd5b81356134fc848260208601613381565b91505092915050565b600082601f83011261351657600080fd5b81356135268482602086016133de565b91505092915050565b60008135905061353e81614a39565b92915050565b60008151905061355381614a39565b92915050565b600082601f83011261356a57600080fd5b813561357a84826020860161344a565b91505092915050565b600082601f83011261359457600080fd5b81356135a4848260208601613488565b91505092915050565b6000813590506135bc81614a50565b92915050565b6000815190506135d181614a50565b92915050565b6000602082840312156135e957600080fd5b60006135f7848285016134c6565b91505092915050565b600080600080600060a0868803121561361857600080fd5b6000613626888289016134c6565b9550506020613637888289016134c6565b945050604086013567ffffffffffffffff81111561365457600080fd5b61366088828901613583565b9350506060613671888289016135ad565b925050608086013567ffffffffffffffff81111561368e57600080fd5b61369a88828901613559565b9150509295509295909350565b60008060008060008060c087890312156136c057600080fd5b60006136ce89828a016134c6565b96505060206136df89828a016134c6565b955050604087013567ffffffffffffffff8111156136fc57600080fd5b61370889828a01613583565b945050606061371989828a016135ad565b935050608087013567ffffffffffffffff81111561373657600080fd5b61374289828a01613559565b92505060a061375389828a016135ad565b9150509295509295509295565b60008060006060848603121561377557600080fd5b6000613783868287016134c6565b9350506020613794868287016135ad565b92505060406137a5868287016134c6565b9150509250925092565b6000602082840312156137c157600080fd5b60006137cf84828501613544565b91505092915050565b6000602082840312156137ea57600080fd5b600082013567ffffffffffffffff81111561380457600080fd5b61381084828501613559565b91505092915050565b60006020828403121561382b57600080fd5b600082013567ffffffffffffffff81111561384557600080fd5b61385184828501613583565b91505092915050565b6000806040838503121561386d57600080fd5b600083013567ffffffffffffffff81111561388757600080fd5b61389385828601613583565b92505060206138a4858286016134c6565b9150509250929050565b600080604083850312156138c157600080fd5b600083013567ffffffffffffffff8111156138db57600080fd5b6138e785828601613583565b92505060206138f88582860161352f565b9150509250929050565b6000806040838503121561391557600080fd5b600083013567ffffffffffffffff81111561392f57600080fd5b61393b85828601613583565b925050602061394c858286016135ad565b9150509250929050565b6000806000806000806000806000806101408b8d03121561397657600080fd5b60008b013567ffffffffffffffff81111561399057600080fd5b61399c8d828e01613583565b9a505060206139ad8d828e016135ad565b99505060406139be8d828e016134c6565b98505060606139cf8d828e016135ad565b97505060806139e08d828e016135ad565b96505060a08b013567ffffffffffffffff8111156139fd57600080fd5b613a098d828e01613505565b95505060c08b013567ffffffffffffffff811115613a2657600080fd5b613a328d828e016134db565b94505060e0613a438d828e016135ad565b935050610100613a558d828e016134c6565b925050610120613a678d828e016134c6565b9150509295989b9194979a5092959850565b60008060008060808587031215613a8f57600080fd5b600085013567ffffffffffffffff811115613aa957600080fd5b613ab587828801613583565b9450506020613ac6878288016135ad565b935050604085013567ffffffffffffffff811115613ae357600080fd5b613aef87828801613559565b9250506060613b00878288016135ad565b91505092959194509250565b600080600060608486031215613b2157600080fd5b600084013567ffffffffffffffff811115613b3b57600080fd5b613b4786828701613583565b9350506020613b58868287016135ad565b9250506040613b69868287016135ad565b9150509250925092565b600060208284031215613b8557600080fd5b6000613b93848285016135c2565b91505092915050565b613ba5816147a3565b82525050565b613bbc613bb7826147a3565b6148e9565b82525050565b613bcb816147c1565b82525050565b6000613bdc82614667565b613be68185614672565b9350613bf6818560208601614811565b613bff81614a04565b840191505092915050565b6000613c1582614667565b613c1f8185614683565b9350613c2f818560208601614811565b80840191505092915050565b6000613c48600f83614672565b91507f6d617820636170207265616368656400000000000000000000000000000000006000830152602082019050919050565b6000613c88600c83614672565b91507f4d696e7420636c6f7365642e00000000000000000000000000000000000000006000830152602082019050919050565b6000613cc8601183614672565b91507f696e76616c6964207369676e61747572650000000000000000000000000000006000830152602082019050919050565b6000613d08601983614672565b91507f73696e676c652075736572206c696d69742072656163686564000000000000006000830152602082019050919050565b6000613d48602683614672565b91507f4f776e61626c653a206e6577206f776e657220697320746865207a65726f206160008301527f64647265737300000000000000000000000000000000000000000000000000006020830152604082019050919050565b6000613dae601283614672565b91507f75736572206c696d6974207265616368656400000000000000000000000000006000830152602082019050919050565b6000613dee601583614672565b91507f666f7262696464656e20746f20776974686472617700000000000000000000006000830152602082019050919050565b6000613e2e601283614672565b91507f53616c65206973206e6f742061637469766500000000000000000000000000006000830152602082019050919050565b6000613e6e600e83614672565b91507f706f6f6c206e6f742065786973740000000000000000000000000000000000006000830152602082019050919050565b6000613eae601183614672565b91507f6e6f206d6f6e657920746f20646973742e0000000000000000000000000000006000830152602082019050919050565b6000613eee601183614672565b91507f4d696e74206e6f7420737461727465642e0000000000000000000000000000006000830152602082019050919050565b6000613f2e602083614672565b91507f4f776e61626c653a2063616c6c6572206973206e6f7420746865206f776e65726000830152602082019050919050565b6000613f6e601283614672565b91507f6e6f206d6f6e657920746f20636c61696d2e00000000000000000000000000006000830152602082019050919050565b6000613fae601883614672565b91507f696e76616c6964207369676e6174757265206c656e67746800000000000000006000830152602082019050919050565b6000613fee600d83614672565b91507f6c6576656c20696e76616c6964000000000000000000000000000000000000006000830152602082019050919050565b600061402e601483614672565b91507f4e66742061646472657373206e6f74207365742e0000000000000000000000006000830152602082019050919050565b600061406e601383614672565b91507f496e73756666696369656e742066756e64732e000000000000000000000000006000830152602082019050919050565b6140aa816147eb565b82525050565b6140c16140bc826147eb565b61490d565b82525050565b6140d0816147f5565b82525050565b60006140e28286613bab565b6014820191506140f28285613c0a565b91506140fe82846140b0565b602082019150819050949350505050565b600061411b8287613bab565b60148201915061412b8286613c0a565b915061413782856140b0565b60208201915061414782846140b0565b60208201915081905095945050505050565b60006141658284613c0a565b915081905092915050565b600061417c82866140b0565b60208201915061418c82856140b0565b60208201915061419c82846140b0565b602082019150819050949350505050565b60006020820190506141c26000830184613b9c565b92915050565b60006060820190506141dd6000830186613b9c565b6141ea6020830185613b9c565b6141f760408301846140a1565b949350505050565b60006040820190506142146000830185613b9c565b61422160208301846140a1565b9392505050565b600060c08201905061423d6000830189613b9c565b61424a60208301886140a1565b61425760408301876140a1565b81810360608301526142698186613bd1565b90506142786080830185613b9c565b81810360a083015261428a8184613bd1565b9050979650505050505050565b60006060820190506142ac6000830186613bc2565b6142b96020830185613bc2565b6142c660408301846140c7565b949350505050565b60006080820190506142e36000830187613bc2565b6142f060208301866140c7565b6142fd6040830185613bc2565b61430a6060830184613bc2565b95945050505050565b6000604082019050818103600083015261432d8185613bd1565b905061433c6020830184613b9c565b9392505050565b6000602082019050818103600083015261435c81613c3b565b9050919050565b6000602082019050818103600083015261437c81613c7b565b9050919050565b6000602082019050818103600083015261439c81613cbb565b9050919050565b600060208201905081810360008301526143bc81613cfb565b9050919050565b600060208201905081810360008301526143dc81613d3b565b9050919050565b600060208201905081810360008301526143fc81613da1565b9050919050565b6000602082019050818103600083015261441c81613de1565b9050919050565b6000602082019050818103600083015261443c81613e21565b9050919050565b6000602082019050818103600083015261445c81613e61565b9050919050565b6000602082019050818103600083015261447c81613ea1565b9050919050565b6000602082019050818103600083015261449c81613ee1565b9050919050565b600060208201905081810360008301526144bc81613f21565b9050919050565b600060208201905081810360008301526144dc81613f61565b9050919050565b600060208201905081810360008301526144fc81613fa1565b9050919050565b6000602082019050818103600083015261451c81613fe1565b9050919050565b6000602082019050818103600083015261453c81614021565b9050919050565b6000602082019050818103600083015261455c81614061565b9050919050565b600060208201905061457860008301846140a1565b92915050565b6000604051905081810181811067ffffffffffffffff821117156145a5576145a46149d5565b5b8060405250919050565b600067ffffffffffffffff8211156145ca576145c96149d5565b5b602082029050602081019050919050565b600067ffffffffffffffff8211156145f6576145f56149d5565b5b602082029050602081019050919050565b600067ffffffffffffffff821115614622576146216149d5565b5b601f19601f8301169050602081019050919050565b600067ffffffffffffffff821115614652576146516149d5565b5b601f19601f8301169050602081019050919050565b600081519050919050565b600082825260208201905092915050565b600081905092915050565b6000614699826147eb565b91506146a4836147eb565b9250827fffffffffffffffffffffffffffffffffffffffffffffffffffffffffffffffff038211156146d9576146d8614948565b5b828201905092915050565b60006146ef826147eb565b91506146fa836147eb565b92508261470a57614709614977565b5b828204905092915050565b6000614720826147eb565b915061472b836147eb565b9250817fffffffffffffffffffffffffffffffffffffffffffffffffffffffffffffffff048311821515161561476457614763614948565b5b828202905092915050565b600061477a826147eb565b9150614785836147eb565b92508282101561479857614797614948565b5b828203905092915050565b60006147ae826147cb565b9050919050565b60008115159050919050565b6000819050919050565b600073ffffffffffffffffffffffffffffffffffffffff82169050919050565b6000819050919050565b600060ff82169050919050565b82818337600083830152505050565b60005b8381101561482f578082015181840152602081019050614814565b8381111561483e576000848401525b50505050565b600061484f826147eb565b9150600082141561486357614862614948565b5b600182039050919050565b6000600282049050600182168061488657607f821691505b6020821081141561489a576148996149a6565b5b50919050565b60006148ab826147eb565b91507fffffffffffffffffffffffffffffffffffffffffffffffffffffffffffffffff8214156148de576148dd614948565b5b600182019050919050565b60006148f4826148fb565b9050919050565b600061490682614a15565b9050919050565b6000819050919050565b6000614922826147eb565b915061492d836147eb565b92508261493d5761493c614977565b5b828206905092915050565b7f4e487b7100000000000000000000000000000000000000000000000000000000600052601160045260246000fd5b7f4e487b7100000000000000000000000000000000000000000000000000000000600052601260045260246000fd5b7f4e487b7100000000000000000000000000000000000000000000000000000000600052602260045260246000fd5b7f4e487b7100000000000000000000000000000000000000000000000000000000600052604160045260246000fd5b6000601f19601f8301169050919050565b60008160601b9050919050565b614a2b816147a3565b8114614a3657600080fd5b50565b614a42816147b5565b8114614a4d57600080fd5b50565b614a59816147eb565b8114614a6457600080fd5b5056fea26469706673582212209b6093ddeaf104e85e7700ce735dad1d2e50340c8471130491eaffd1839827aa64736f6c63430008000033",
  "linkReferences": {},
  "deployedLinkReferences": {}
}