{
  "_format": "hh-sol-artifact-1",
  "contractName": "DeFineVotingPortalV2",
  "sourceName": "contracts/DeFineVotingPortalV2.sol",
  "abi": [
    {
      "anonymous": false,
      "inputs": [
        {
          "indexed": true,
          "internalType": "address",
          "name": "previousGovernor",
          "type": "address"
        },
        {
          "indexed": true,
          "internalType": "address",
          "name": "newGovernor",
          "type": "address"
        }
      ],
      "name": "GovernorshipTransferred",
      "type": "event"
    },
    {
      "anonymous": false,
      "inputs": [
        {
          "indexed": false,
          "internalType": "uint256",
          "name": "id",
          "type": "uint256"
        }
      ],
      "name": "ProposalCanceled",
      "type": "event"
    },
    {
      "anonymous": false,
      "inputs": [
        {
          "indexed": false,
          "internalType": "uint256",
          "name": "id",
          "type": "uint256"
        },
        {
          "indexed": false,
          "internalType": "address",
          "name": "proposer",
          "type": "address"
        },
        {
          "indexed": false,
          "internalType": "address[]",
          "name": "targets",
          "type": "address[]"
        },
        {
          "indexed": false,
          "internalType": "uint256[]",
          "name": "values",
          "type": "uint256[]"
        },
        {
          "indexed": false,
          "internalType": "string[]",
          "name": "signatures",
          "type": "string[]"
        },
        {
          "indexed": false,
          "internalType": "bytes[]",
          "name": "calldatas",
          "type": "bytes[]"
        },
        {
          "indexed": false,
          "internalType": "uint256",
          "name": "startTime",
          "type": "uint256"
        },
        {
          "indexed": false,
          "internalType": "uint256",
          "name": "endTime",
          "type": "uint256"
        },
        {
          "indexed": false,
          "internalType": "string",
          "name": "title",
          "type": "string"
        },
        {
          "indexed": false,
          "internalType": "string",
          "name": "description",
          "type": "string"
        }
      ],
      "name": "ProposalCreated",
      "type": "event"
    },
    {
      "anonymous": false,
      "inputs": [
        {
          "indexed": false,
          "internalType": "uint256",
          "name": "id",
          "type": "uint256"
        },
        {
          "indexed": false,
          "internalType": "address",
          "name": "claimer",
          "type": "address"
        }
      ],
      "name": "ProposalDepositWithdrawn",
      "type": "event"
    },
    {
      "anonymous": false,
      "inputs": [
        {
          "indexed": false,
          "internalType": "uint256",
          "name": "id",
          "type": "uint256"
        }
      ],
      "name": "ProposalExecuted",
      "type": "event"
    },
    {
      "anonymous": false,
      "inputs": [
        {
          "indexed": false,
          "internalType": "uint256",
          "name": "id",
          "type": "uint256"
        },
        {
          "indexed": false,
          "internalType": "uint256",
          "name": "eta",
          "type": "uint256"
        }
      ],
      "name": "ProposalQueued",
      "type": "event"
    },
    {
      "anonymous": false,
      "inputs": [
        {
          "indexed": false,
          "internalType": "address",
          "name": "voter",
          "type": "address"
        },
        {
          "indexed": false,
          "internalType": "uint256",
          "name": "proposalId",
          "type": "uint256"
        },
        {
          "indexed": false,
          "internalType": "bool",
          "name": "support",
          "type": "bool"
        },
        {
          "indexed": false,
          "internalType": "uint256",
          "name": "votes",
          "type": "uint256"
        }
      ],
      "name": "VoteCast",
      "type": "event"
    },
    {
      "inputs": [
        {
          "internalType": "uint256",
          "name": "proposalId",
          "type": "uint256"
        }
      ],
      "name": "cancel",
      "outputs": [],
      "stateMutability": "nonpayable",
      "type": "function"
    },
    {
      "inputs": [
        {
          "internalType": "uint256",
          "name": "proposalId",
          "type": "uint256"
        },
        {
          "internalType": "bool",
          "name": "support",
          "type": "bool"
        },
        {
          "internalType": "uint256",
          "name": "voteCount",
          "type": "uint256"
        },
        {
          "internalType": "bytes",
          "name": "signature",
          "type": "bytes"
        }
      ],
      "name": "castVoteBySig",
      "outputs": [],
      "stateMutability": "nonpayable",
      "type": "function"
    },
    {
      "inputs": [
        {
          "internalType": "uint256",
          "name": "proposalId",
          "type": "uint256"
        }
      ],
      "name": "claim",
      "outputs": [],
      "stateMutability": "nonpayable",
      "type": "function"
    },
    {
      "inputs": [
        {
          "internalType": "uint256",
          "name": "proposalId",
          "type": "uint256"
        }
      ],
      "name": "execute",
      "outputs": [],
      "stateMutability": "payable",
      "type": "function"
    },
    {
      "inputs": [
        {
          "internalType": "uint256",
          "name": "proposalId",
          "type": "uint256"
        }
      ],
      "name": "getProposalQuorumCount",
      "outputs": [
        {
          "internalType": "uint256",
          "name": "",
          "type": "uint256"
        }
      ],
      "stateMutability": "view",
      "type": "function"
    },
    {
      "inputs": [],
      "name": "globalPendingTime",
      "outputs": [
        {
          "internalType": "uint256",
          "name": "",
          "type": "uint256"
        }
      ],
      "stateMutability": "view",
      "type": "function"
    },
    {
      "inputs": [],
      "name": "governor",
      "outputs": [
        {
          "internalType": "address",
          "name": "",
          "type": "address"
        }
      ],
      "stateMutability": "view",
      "type": "function"
    },
    {
      "inputs": [
        {
          "internalType": "address",
          "name": "_governor",
          "type": "address"
        }
      ],
      "name": "initialize",
      "outputs": [],
      "stateMutability": "nonpayable",
      "type": "function"
    },
    {
      "inputs": [],
      "name": "maxDuration",
      "outputs": [
        {
          "internalType": "uint256",
          "name": "",
          "type": "uint256"
        }
      ],
      "stateMutability": "view",
      "type": "function"
    },
    {
      "inputs": [],
      "name": "minDuration",
      "outputs": [
        {
          "internalType": "uint256",
          "name": "",
          "type": "uint256"
        }
      ],
      "stateMutability": "view",
      "type": "function"
    },
    {
      "inputs": [],
      "name": "proposalCount",
      "outputs": [
        {
          "internalType": "uint256",
          "name": "",
          "type": "uint256"
        }
      ],
      "stateMutability": "view",
      "type": "function"
    },
    {
      "inputs": [],
      "name": "proposalMaxOperations",
      "outputs": [
        {
          "internalType": "uint256",
          "name": "",
          "type": "uint256"
        }
      ],
      "stateMutability": "view",
      "type": "function"
    },
    {
      "inputs": [],
      "name": "proposalThresholdCount",
      "outputs": [
        {
          "internalType": "uint256",
          "name": "",
          "type": "uint256"
        }
      ],
      "stateMutability": "view",
      "type": "function"
    },
    {
      "inputs": [
        {
          "internalType": "uint256",
          "name": "",
          "type": "uint256"
        }
      ],
      "name": "proposals",
      "outputs": [
        {
          "internalType": "uint256",
          "name": "id",
          "type": "uint256"
        },
        {
          "internalType": "address",
          "name": "proposer",
          "type": "address"
        },
        {
          "internalType": "uint256",
          "name": "proposalThresholdCount",
          "type": "uint256"
        },
        {
          "internalType": "uint256",
          "name": "eta",
          "type": "uint256"
        },
        {
          "internalType": "uint256",
          "name": "createTime",
          "type": "uint256"
        },
        {
          "internalType": "uint256",
          "name": "startTime",
          "type": "uint256"
        },
        {
          "internalType": "uint256",
          "name": "endTime",
          "type": "uint256"
        },
        {
          "internalType": "uint256",
          "name": "forVotes",
          "type": "uint256"
        },
        {
          "internalType": "uint256",
          "name": "againstVotes",
          "type": "uint256"
        },
        {
          "internalType": "uint256",
          "name": "blockHeight",
          "type": "uint256"
        },
        {
          "internalType": "bool",
          "name": "canceled",
          "type": "bool"
        },
        {
          "internalType": "bool",
          "name": "executed",
          "type": "bool"
        },
        {
          "internalType": "bool",
          "name": "withdrawn",
          "type": "bool"
        }
      ],
      "stateMutability": "view",
      "type": "function"
    },
    {
      "inputs": [
        {
          "internalType": "address[]",
          "name": "targets",
          "type": "address[]"
        },
        {
          "internalType": "uint256[]",
          "name": "values",
          "type": "uint256[]"
        },
        {
          "internalType": "string[]",
          "name": "signatures",
          "type": "string[]"
        },
        {
          "internalType": "bytes[]",
          "name": "calldatas",
          "type": "bytes[]"
        },
        {
          "internalType": "uint256",
          "name": "endTime",
          "type": "uint256"
        },
        {
          "internalType": "string",
          "name": "title",
          "type": "string"
        },
        {
          "internalType": "string",
          "name": "description",
          "type": "string"
        }
      ],
      "name": "propose",
      "outputs": [
        {
          "internalType": "uint256",
          "name": "",
          "type": "uint256"
        }
      ],
      "stateMutability": "nonpayable",
      "type": "function"
    },
    {
      "inputs": [
        {
          "internalType": "uint256",
          "name": "proposalId",
          "type": "uint256"
        }
      ],
      "name": "queue",
      "outputs": [],
      "stateMutability": "nonpayable",
      "type": "function"
    },
    {
      "inputs": [],
      "name": "quorumVoteCount",
      "outputs": [
        {
          "internalType": "uint256",
          "name": "",
          "type": "uint256"
        }
      ],
      "stateMutability": "view",
      "type": "function"
    },
    {
      "inputs": [
        {
          "internalType": "uint256",
          "name": "",
          "type": "uint256"
        },
        {
          "internalType": "address",
          "name": "",
          "type": "address"
        }
      ],
      "name": "receipts",
      "outputs": [
        {
          "internalType": "bool",
          "name": "hasVoted",
          "type": "bool"
        },
        {
          "internalType": "bool",
          "name": "support",
          "type": "bool"
        },
        {
          "internalType": "uint256",
          "name": "votes",
          "type": "uint256"
        }
      ],
      "stateMutability": "view",
      "type": "function"
    },
    {
      "inputs": [],
      "name": "renounceGovernorship",
      "outputs": [],
      "stateMutability": "nonpayable",
      "type": "function"
    },
    {
      "inputs": [
        {
          "internalType": "uint256",
          "name": "proposalId",
          "type": "uint256"
        },
        {
          "internalType": "uint256",
          "name": "time",
          "type": "uint256"
        }
      ],
      "name": "setEndTime",
      "outputs": [],
      "stateMutability": "nonpayable",
      "type": "function"
    },
    {
      "inputs": [
        {
          "internalType": "uint256",
          "name": "time",
          "type": "uint256"
        }
      ],
      "name": "setGlobalPendingTime",
      "outputs": [],
      "stateMutability": "nonpayable",
      "type": "function"
    },
    {
      "inputs": [
        {
          "internalType": "address",
          "name": "timelock_",
          "type": "address"
        },
        {
          "internalType": "address",
          "name": "_voteToken",
          "type": "address"
        },
        {
          "internalType": "address",
          "name": "_signer",
          "type": "address"
        },
        {
          "internalType": "uint256",
          "name": "_quorumVoteCount",
          "type": "uint256"
        },
        {
          "internalType": "uint256",
          "name": "_proposalThresholdCount",
          "type": "uint256"
        },
        {
          "internalType": "uint256",
          "name": "_globalPendingTime",
          "type": "uint256"
        },
        {
          "internalType": "uint256",
          "name": "_minDuration",
          "type": "uint256"
        },
        {
          "internalType": "uint256",
          "name": "_maxDuration",
          "type": "uint256"
        }
      ],
      "name": "setInitialValue",
      "outputs": [],
      "stateMutability": "nonpayable",
      "type": "function"
    },
    {
      "inputs": [
        {
          "internalType": "uint256",
          "name": "_duration",
          "type": "uint256"
        }
      ],
      "name": "setMaxDuration",
      "outputs": [],
      "stateMutability": "nonpayable",
      "type": "function"
    },
    {
      "inputs": [
        {
          "internalType": "uint256",
          "name": "_duration",
          "type": "uint256"
        }
      ],
      "name": "setMinDuration",
      "outputs": [],
      "stateMutability": "nonpayable",
      "type": "function"
    },
    {
      "inputs": [
        {
          "internalType": "uint256",
          "name": "count",
          "type": "uint256"
        }
      ],
      "name": "setProposalThrehold",
      "outputs": [],
      "stateMutability": "nonpayable",
      "type": "function"
    },
    {
      "inputs": [
        {
          "internalType": "uint256",
          "name": "count",
          "type": "uint256"
        }
      ],
      "name": "setQuorumVotes",
      "outputs": [],
      "stateMutability": "nonpayable",
      "type": "function"
    },
    {
      "inputs": [
        {
          "internalType": "address",
          "name": "_signer",
          "type": "address"
        }
      ],
      "name": "setSigner",
      "outputs": [],
      "stateMutability": "nonpayable",
      "type": "function"
    },
    {
      "inputs": [
        {
          "internalType": "uint256",
          "name": "proposalId",
          "type": "uint256"
        },
        {
          "internalType": "uint256",
          "name": "time",
          "type": "uint256"
        }
      ],
      "name": "setStartTime",
      "outputs": [],
      "stateMutability": "nonpayable",
      "type": "function"
    },
    {
      "inputs": [
        {
          "internalType": "address",
          "name": "timelock_",
          "type": "address"
        }
      ],
      "name": "setTimelock",
      "outputs": [],
      "stateMutability": "nonpayable",
      "type": "function"
    },
    {
      "inputs": [
        {
          "internalType": "bytes",
          "name": "sig",
          "type": "bytes"
        }
      ],
      "name": "splitSignature",
      "outputs": [
        {
          "internalType": "bytes32",
          "name": "r",
          "type": "bytes32"
        },
        {
          "internalType": "bytes32",
          "name": "s",
          "type": "bytes32"
        },
        {
          "internalType": "uint8",
          "name": "v",
          "type": "uint8"
        }
      ],
      "stateMutability": "pure",
      "type": "function"
    },
    {
      "inputs": [
        {
          "internalType": "uint256",
          "name": "proposalId",
          "type": "uint256"
        }
      ],
      "name": "state",
      "outputs": [
        {
          "internalType": "enum DeFineVotingPortalV2.ProposalState",
          "name": "",
          "type": "uint8"
        }
      ],
      "stateMutability": "view",
      "type": "function"
    },
    {
      "inputs": [],
      "name": "timelock",
      "outputs": [
        {
          "internalType": "contract TimelockInterface",
          "name": "",
          "type": "address"
        }
      ],
      "stateMutability": "view",
      "type": "function"
    },
    {
      "inputs": [
        {
          "internalType": "address",
          "name": "newGovernor",
          "type": "address"
        }
      ],
      "name": "transferGovernorship",
      "outputs": [],
      "stateMutability": "nonpayable",
      "type": "function"
    },
    {
      "inputs": [
        {
          "internalType": "address",
          "name": "_voteToken",
          "type": "address"
        },
        {
          "internalType": "address",
          "name": "_voter",
          "type": "address"
        },
        {
          "internalType": "uint256",
          "name": "_voteCount",
          "type": "uint256"
        },
        {
          "internalType": "uint256",
          "name": "_blockHeight",
          "type": "uint256"
        },
        {
          "internalType": "bytes",
          "name": "signature",
          "type": "bytes"
        }
      ],
      "name": "verify",
      "outputs": [
        {
          "internalType": "address",
          "name": "",
          "type": "address"
        }
      ],
      "stateMutability": "pure",
      "type": "function"
    },
    {
      "inputs": [],
      "name": "voteToken",
      "outputs": [
        {
          "internalType": "address",
          "name": "",
          "type": "address"
        }
      ],
      "stateMutability": "view",
      "type": "function"
    }
  ],
  "bytecode": "0x608060405234801561001057600080fd5b50613470806100206000396000f3fe6080604052600436106102085760003560e060020a900480637bdbe4d01161011c578063c4d66de8116100a4578063d33219b411610073578063d33219b414610714578063da35c66414610734578063ddf0b0091461074a578063fd101f0f1461076a578063fe0d94c11461078057600080fd5b8063c4d66de814610694578063c59321d3146106b4578063cf0f34c4146106d4578063cffc18eb146106f457600080fd5b8063a7bb5803116100eb578063a7bb5803146105d6578063abfbac4b14610614578063b6aa515b14610634578063ba278e0814610654578063bdacb3031461067457600080fd5b80637bdbe4d01461057657806381c0c2631461058b578063823363c6146105a05780639d5b353f146105c057600080fd5b80633e4f49e61161019f578063567157611161016e57806356715761146104ea5780635920739f1461050057806364b279fa146105205780636c19e783146105405780636db5c8fd1461056057600080fd5b80633e4f49e61461041e57806340e58ee51461044b5780634178b2491461046b57806355b3d285146104d457600080fd5b80631674bade116101db5780631674bade146103905780632e61f514146103b057806335efd9f1146103de578063379607f5146103fe57600080fd5b8063013cf08b1461020d57806302ec8f9e146103165780630c340a2414610338578063160d66ae14610370575b600080fd5b34801561021957600080fd5b506102a1610228366004612e53565b603d602052600090815260409020805460018201546002830154600384015460088501546009860154600a870154600b880154600c890154600d8a0154600e909a01549899600160a060020a039098169896979596949593949293919290919060ff80821691610100810482169162010000909104168d565b604080519d8e52600160a060020a03909c1660208e01529a8c019990995260608b019790975260808a019590955260a089019390935260c088019190915260e08701526101008601526101208501521515610140840152151561016083015215156101808201526101a0015b60405180910390f35b34801561032257600080fd5b50610336610331366004612e53565b610793565b005b34801561034457600080fd5b5060335461035890600160a060020a031681565b604051600160a060020a03909116815260200161030d565b34801561037c57600080fd5b5060345461035890600160a060020a031681565b34801561039c57600080fd5b506103366103ab366004612e53565b6107af565b3480156103bc57600080fd5b506103d06103cb366004612c69565b6107cb565b60405190815260200161030d565b3480156103ea57600080fd5b506103d06103f9366004612e53565b610c41565b34801561040a57600080fd5b50610336610419366004612e53565b610c7c565b34801561042a57600080fd5b5061043e610439366004612e53565b610f01565b60405161030d919061311f565b34801561045757600080fd5b50610336610466366004612e53565b6110ff565b34801561047757600080fd5b506104b7610486366004612e6c565b603e6020908152600092835260408084209091529082529020805460019091015460ff808316926101009004169083565b60408051931515845291151560208401529082015260600161030d565b3480156104e057600080fd5b506103d060375481565b3480156104f657600080fd5b506103d0603a5481565b34801561050c57600080fd5b5061033661051b366004612b86565b611288565b34801561052c57600080fd5b5061033661053b366004612e53565b6112f7565b34801561054c57600080fd5b5061033661055b366004612b6b565b611313565b34801561056c57600080fd5b506103d0603b5481565b34801561058257600080fd5b506103d0600a81565b34801561059757600080fd5b5061033661134c565b3480156105ac57600080fd5b506103366105bb366004612e53565b6113ad565b3480156105cc57600080fd5b506103d060385481565b3480156105e257600080fd5b506105f66105f1366004612d9f565b6113c9565b60408051938452602084019290925260ff169082015260600161030d565b34801561062057600080fd5b5061033661062f366004612efb565b611440565b34801561064057600080fd5b5061033661064f366004612b6b565b61146c565b34801561066057600080fd5b5061033661066f366004612efb565b61148f565b34801561068057600080fd5b5061033661068f366004612b6b565b6114bb565b3480156106a057600080fd5b506103366106af366004612b6b565b6114f4565b3480156106c057600080fd5b506103366106cf366004612e98565b611577565b3480156106e057600080fd5b506103366106ef366004612e53565b61161f565b34801561070057600080fd5b5061035861070f366004612bf7565b61163b565b34801561072057600080fd5b50603c5461035890600160a060020a031681565b34801561074057600080fd5b506103d060365481565b34801561075657600080fd5b50610336610765366004612e53565b611716565b34801561077657600080fd5b506103d060395481565b61033661078e366004612e53565b611ad9565b603354600160a060020a031633146107aa57600080fd5b603755565b603354600160a060020a031633146107c657600080fd5b603a55565b600080603954426107dc9190613314565b905084811061085b5760405160e560020a62461bcd02815260206004820152603260248201527f70726f706f73653a3a2073746172742074696d65206d7573742062652065617260448201527f6c696572207468616e20656e642074696d65000000000000000000000000000060648201526084015b60405180910390fd5b603a54610868828761332c565b11801561087f5750603b5461087d828761332c565b105b6108ce5760405160e560020a62461bcd02815260206004820152601a60248201527f70726f706f73653a3a20696c6c6567616c206475726174696f6e0000000000006044820152606401610852565b875189511480156108e0575086518951145b80156108ed575085518951145b6109625760405160e560020a62461bcd02815260206004820152602f60248201527f70726f706f73653a2070726f706f73616c2066756e6374696f6e20696e666f7260448201527f6d6174696f6e206d69736d6174636800000000000000000000000000000000006064820152608401610852565b600a895111156109b75760405160e560020a62461bcd02815260206004820152601960248201527f70726f706f73653a20746f6f206d616e7920616374696f6e73000000000000006044820152606401610852565b6038546034546109d691600160a060020a039091169033903090611d98565b603680549060006109e6836133ad565b91905055506000604051806102200160405280603654815260200133600160a060020a031681526020016038548152602001600081526020018b81526020018a815260200189815260200188815260200142815260200160395442610a4b9190613314565b815260208082018990526000604080840182905260608085018390524360808087019190915260a0860184905260c0860184905260e09095018390526036548352603d8452918190208551815585840151600182018054600160a060020a031916600160a060020a039092169190911790559085015160028201559084015160038201559183015180519394508493610aea92600485019201906126d2565b5060a08201518051610b06916005840191602090910190612737565b5060c08201518051610b22916006840191602090910190612772565b5060e08201518051610b3e9160078401916020909101906127cb565b506101008281015160088301556101208301516009830155610140830151600a830155610160830151600b830155610180830151600c8301556101a0830151600d8301556101c0830151600e90920180546101e08501516102009095015161ffff1990911693151561ff001916939093179315159091029290921762ff000019166201000091151591909102179055603754603680546000908152603f602052604090819020929092555490517fb88787ccad609a4d41058c8a0928927dd2516296c139d218d1e9131c2c219bd391610c289133908e908e908e908e908a908f908f908f906131ba565b60405180910390a1505060365498975050505050505050565b6000818152603f6020526040812054610c64575068056bc75e2d63100000919050565b506000908152603f602052604090205490565b919050565b6000818152603d6020526040902060010154600160a060020a03163314610d0e5760405160e560020a62461bcd02815260206004820152603060248201527f636c61696d3a206f6e6c792070726f706f73616c206f776e657220636f756c6460448201527f20636c61696d2070726f706f73616c2e000000000000000000000000000000006064820152608401610852565b6000610d1982610f01565b90506002816007811115610d2f57610d2f6133e1565b1415610da65760405160e560020a62461bcd02815260206004820152602560248201527f636c61696d3a2063616e6e6f7420636c61696d2063616e63656c65642070726f60448201527f706f73616c0000000000000000000000000000000000000000000000000000006064820152608401610852565b6000816007811115610dba57610dba6133e1565b1415610e305760405160e560020a62461bcd028152602060048201526024808201527f636c61696d3a2063616e6e6f7420636c61696d2070656e64696e672070726f7060448201527f6f73616c000000000000000000000000000000000000000000000000000000006064820152608401610852565b6001816007811115610e4457610e446133e1565b1415610ebb5760405160e560020a62461bcd02815260206004820152602360248201527f636c61696d3a2063616e6e6f7420636c61696d206163746976652070726f706f60448201527f73616c00000000000000000000000000000000000000000000000000000000006064820152608401610852565b610ec482611e49565b604080518381523360208201527f44a031cefb740fbc1d06fd16317f45b358f208b59e2259383b04a91110d0476691015b60405180910390a15050565b60008160365410158015610f155750600082115b610f8a5760405160e560020a62461bcd02815260206004820152602960248201527f476f7665726e6f72416c7068613a3a73746174653a20696e76616c696420707260448201527f6f706f73616c20696400000000000000000000000000000000000000000000006064820152608401610852565b6000828152603d6020526040812090610fa284610c41565b600e83015490915060ff1615610fbc575060029392505050565b81600901544211610fd1575060009392505050565b81600a01544211610fe6575060019392505050565b81600c015482600b015411158061100f57508082600c015483600b015461100d9190613314565b105b1561101e575060039392505050565b6003820154611031575060049392505050565b600e820154610100900460ff161561104d575060079392505050565b603c60009054906101000a9004600160a060020a0316600160a060020a031663c1a287e26040518163ffffffff1660e060020a02815260040160206040518083038186803b15801561109e57600080fd5b505afa1580156110b2573d6000803e3d6000fd5b505050506040513d601f19601f820116820180604052508101906110d69190612d86565b82600301546110e59190613314565b42106110f5575060069392505050565b5060059392505050565b6000818152603d6020526040902060010154600160a060020a031633146111915760405160e560020a62461bcd02815260206004820152603260248201527f63616e63656c3a206f6e6c792070726f706f73616c206f776e657220636f756c60448201527f642063616e63656c2070726f706f73616c2e00000000000000000000000000006064820152608401610852565b600061119c82610f01565b905060078160078111156111b2576111b26133e1565b14156112295760405160e560020a62461bcd02815260206004820152602760248201527f63616e63656c3a2063616e6e6f742063616e63656c206578656375746564207060448201527f726f706f73616c000000000000000000000000000000000000000000000000006064820152608401610852565b6000828152603d60205260409020600e8101805460ff1916600117905561124f83611e49565b6040518381527f789cf55be980739dad1d0699b93b58e806b51c9d96619bfa8fe0a28abaa7b30c906020015b60405180910390a1505050565b603354600160a060020a0316331461129f57600080fd5b603c8054600160a060020a0319908116600160a060020a039a8b1617909155603480548216988a1698909817909755603580549097169590971694909417909455603791909155603855603991909155603a55603b55565b603354600160a060020a0316331461130e57600080fd5b603955565b603354600160a060020a0316331461132a57600080fd5b60358054600160a060020a031916600160a060020a0392909216919091179055565b603354600160a060020a0316331461136357600080fd5b603354604051600091600160a060020a0316907fc7c0c772add429241571afb3805861fb3cfa2af374534088b76cdb4325a87e9a908390a360338054600160a060020a0319169055565b603354600160a060020a031633146113c457600080fd5b603855565b600080600083516041146114225760405160e560020a62461bcd02815260206004820152601860248201527f696e76616c6964207369676e6174757265206c656e67746800000000000000006044820152606401610852565b50505060208101516040820151606090920151909260009190911a90565b603354600160a060020a0316331461145757600080fd5b6000918252603d6020526040909120600a0155565b603354600160a060020a0316331461148357600080fd5b61148c81611ef3565b50565b603354600160a060020a031633146114a657600080fd5b6000918252603d602052604090912060090155565b603354600160a060020a031633146114d257600080fd5b603c8054600160a060020a031916600160a060020a0392909216919091179055565b600054610100900460ff16806115095750303b155b80611517575060005460ff16155b6115365760405160e560020a62461bcd0281526004016108529061315d565b600054610100900460ff16158015611558576000805461ffff19166101011790555b61156182611f62565b8015611573576000805461ff00191690555b5050565b6034546000858152603d60205260408120600d015490916115a891600160a060020a0390911690339086908661163b565b603554909150600160a060020a0380831691161461160b5760405160e560020a62461bcd02815260206004820181905260248201527f63617374566f746542795369673a20696e76616c6964207369676e61747572656044820152606401610852565b61161733868686612024565b505b50505050565b603354600160a060020a0316331461163657600080fd5b603b55565b6040516c01000000000000000000000000600160a060020a038088168202602084015286160260348201526048810184905260688101839052600090819060880160405160208183030381529060405280519060200120905060008060006116a2866113c9565b60408051600081526020810180835289905260ff8316918101919091526060810184905260808101839052929550909350915060019060a0016020604051602081039080840390855afa1580156116fd573d6000803e3d6000fd5b5050604051601f1901519b9a5050505050505050505050565b600461172182610f01565b6007811115611732576117326133e1565b146117cf5760405160e560020a62461bcd028152602060048201526044602482018190527f476f7665726e6f72427261766f3a3a71756575653a2070726f706f73616c2063908201527f616e206f6e6c792062652071756575656420696620697420697320737563636560648201527f6564656400000000000000000000000000000000000000000000000000000000608482015260a401610852565b6000818152603d6020526040902060048101546118315760405160e560020a62461bcd02815260206004820152601a60248201527f71756575653a2070726f706f73616c206e6f20616374696f6e730000000000006044820152606401610852565b603c54604080517f6a42b8f80000000000000000000000000000000000000000000000000000000081529051600092600160a060020a031691636a42b8f8916004808301926020929190829003018186803b15801561188f57600080fd5b505afa1580156118a3573d6000803e3d6000fd5b505050506040513d601f19601f820116820180604052508101906118c79190612d86565b6118d19042613314565b905060005b6004830154811015611a9b57611a898360040182815481106118fa576118fa6133fa565b600091825260209091200154600585018054600160a060020a039092169184908110611928576119286133fa565b9060005260206000200154856006018481548110611948576119486133fa565b90600052602060002001805461195d9061336f565b80601f01602080910402602001604051908101604052809291908181526020018280546119899061336f565b80156119d65780601f106119ab576101008083540402835291602001916119d6565b820191906000526020600020905b8154815290600101906020018083116119b957829003601f168201915b50505050508660070185815481106119f0576119f06133fa565b906000526020600020018054611a059061336f565b80601f0160208091040260200160405190810160405280929190818152602001828054611a319061336f565b8015611a7e5780601f10611a5357610100808354040283529160200191611a7e565b820191906000526020600020905b815481529060010190602001808311611a6157829003601f168201915b50505050508661220c565b80611a93816133ad565b9150506118d6565b506003820181905560408051848152602081018390527f9a2e42fd6722813d69113e7d0079d3d940171428df7373df9c7f7617cfda2892910161127b565b6005611ae482610f01565b6007811115611af557611af56133e1565b14611b915760405160e560020a62461bcd02815260206004820152604560248201527f476f7665726e6f72427261766f3a3a657865637574653a2070726f706f73616c60448201527f2063616e206f6e6c79206265206578656375746564206966206974206973207160648201527f7565756564000000000000000000000000000000000000000000000000000000608482015260a401610852565b6000818152603d602052604090206004810154611bf35760405160e560020a62461bcd02815260206004820152601c60248201527f657865637574653a2070726f706f73616c206e6f20616374696f6e73000000006044820152606401610852565b600e8101805461ff00191661010017905560005b6004820154811015611d6757603c54600583018054600160a060020a0390921691630825f38f919084908110611c3f57611c3f6133fa565b9060005260206000200154846004018481548110611c5f57611c5f6133fa565b600091825260209091200154600586018054600160a060020a039092169186908110611c8d57611c8d6133fa565b9060005260206000200154866006018681548110611cad57611cad6133fa565b90600052602060002001876007018781548110611ccc57611ccc6133fa565b9060005260206000200188600301546040518763ffffffff1660e060020a028152600401611cfe9594939291906130e5565b6000604051808303818588803b158015611d1757600080fd5b505af1158015611d2b573d6000803e3d6000fd5b50505050506040513d6000823e601f3d908101601f19168201604052611d549190810190612ddc565b5080611d5f816133ad565b915050611c07565b506040518281527f712ae1383f79ac853f8d882153778e0260ef8f03b504e2866e0593e04d2b291f90602001610ef5565b604051600160a060020a03808516602483015283166044820152606481018290526116199085907f23b872dd00000000000000000000000000000000000000000000000000000000906084015b60408051601f198184030181529190526020810180517bffffffffffffffffffffffffffffffffffffffffffffffffffffffff167fffffffff0000000000000000000000000000000000000000000000000000000090931692909217909152612401565b6000818152603d60205260409020600e015462010000900460ff1615611eb45760405160e560020a62461bcd02815260206004820152601660248201527f636c61696d3a20616c726561647920636c61696d6564000000000000000000006044820152606401610852565b6000818152603d60205260409020600e8101805462ff00001916620100001790556002015460345461148c91600160a060020a039091169033906124ee565b600160a060020a038116611f0657600080fd5b603354604051600160a060020a038084169216907fc7c0c772add429241571afb3805861fb3cfa2af374534088b76cdb4325a87e9a90600090a360338054600160a060020a031916600160a060020a0392909216919091179055565b600054610100900460ff1680611f775750303b155b80611f85575060005460ff16155b611fa45760405160e560020a62461bcd0281526004016108529061315d565b600054610100900460ff16158015611fc6576000805461ffff19166101011790555b60338054600160a060020a031916600160a060020a0384169081179091556040516000907fc7c0c772add429241571afb3805861fb3cfa2af374534088b76cdb4325a87e9a908290a38015611573576000805461ff00191690555050565b600161202f84610f01565b6007811115612040576120406133e1565b146120b65760405160e560020a62461bcd02815260206004820152602e60248201527f476f7665726e6f72416c7068613a3a5f63617374566f74653a20766f74696e6760448201527f206973206e6f74206163746976650000000000000000000000000000000000006064820152608401610852565b6000838152603d60209081526040808320603e8352818420600160a060020a0389168552909252909120805460ff161561215b5760405160e560020a62461bcd02815260206004820152602d60248201527f476f7665726e6f72416c7068613a3a5f63617374566f74653a20766f7465722060448201527f616c726561647920766f746564000000000000000000000000000000000000006064820152608401610852565b831561217b578282600b01546121719190613314565b600b830155612191565b8282600c015461218b9190613314565b600c8301555b8054841515610100810261ffff199092169190911760019081178355820184905560408051600160a060020a03891681526020810188905290810191909152606081018490527f877856338e13f63d0c36822ff0ef736b80934cd90574a3a5bc9262c39d217c469060800160405180910390a1505050505050565b603c54604051600160a060020a039091169063f2b065379061223a9088908890889088908890602001613098565b60408051601f1981840301815290829052805160209091012060e060020a63ffffffff8416028252600482015260240160206040518083038186803b15801561228257600080fd5b505afa158015612296573d6000803e3d6000fd5b505050506040513d601f19601f820116820180604052508101906122ba9190612d69565b156123565760405160e560020a62461bcd02815260206004820152605560248201527f476f7665726e6f72427261766f3a3a71756575654f72526576657274496e746560448201527f726e616c3a206964656e746963616c2070726f706f73616c20616374696f6e2060648201527f616c726561647920717565756564206174206574610000000000000000000000608482015260a401610852565b603c546040517f3a66f901000000000000000000000000000000000000000000000000000000008152600160a060020a0390911690633a66f901906123a79088908890889088908890600401613098565b602060405180830381600087803b1580156123c157600080fd5b505af11580156123d5573d6000803e3d6000fd5b505050506040513d601f19601f820116820180604052508101906123f99190612d86565b505050505050565b6000612456826040518060400160405280602081526020017f5361666545524332303a206c6f772d6c6576656c2063616c6c206661696c656481525085600160a060020a03166125379092919063ffffffff16565b8051909150156124e957808060200190518101906124749190612d69565b6124e95760405160e560020a62461bcd02815260206004820152602a60248201527f5361666545524332303a204552433230206f7065726174696f6e20646964206e60448201527f6f742073756363656564000000000000000000000000000000000000000000006064820152608401610852565b505050565b604051600160a060020a0383166024820152604481018290526124e99084907fa9059cbb0000000000000000000000000000000000000000000000000000000090606401611de5565b60606125468484600085612550565b90505b9392505050565b606030318311156125cc5760405160e560020a62461bcd02815260206004820152602660248201527f416464726573733a20696e73756666696369656e742062616c616e636520666f60448201527f722063616c6c00000000000000000000000000000000000000000000000000006064820152608401610852565b843b61261d5760405160e560020a62461bcd02815260206004820152601d60248201527f416464726573733a2063616c6c20746f206e6f6e2d636f6e74726163740000006044820152606401610852565b60008086600160a060020a03168587604051612639919061307c565b60006040518083038185875af1925050503d8060008114612676576040519150601f19603f3d011682016040523d82523d6000602084013e61267b565b606091505b509150915061268b828286612696565b979650505050505050565b606083156126a5575081612549565b8251156126b55782518084602001fd5b8160405160e560020a62461bcd028152600401610852919061314a565b828054828255906000526020600020908101928215612727579160200282015b828111156127275782518254600160a060020a031916600160a060020a039091161782556020909201916001909101906126f2565b50612733929150612824565b5090565b828054828255906000526020600020908101928215612727579160200282015b82811115612727578251825591602001919060010190612757565b8280548282559060005260206000209081019282156127bf579160200282015b828111156127bf57825180516127af918491602090910190612839565b5091602001919060010190612792565b506127339291506128ac565b828054828255906000526020600020908101928215612818579160200282015b828111156128185782518051612808918491602090910190612839565b50916020019190600101906127eb565b506127339291506128c9565b5b808211156127335760008155600101612825565b8280546128459061336f565b90600052602060002090601f0160209004810192826128675760008555612727565b82601f1061288057805160ff1916838001178555612727565b828001600101855582156127275791820182811115612727578251825591602001919060010190612757565b808211156127335760006128c082826128e6565b506001016128ac565b808211156127335760006128dd82826128e6565b506001016128c9565b5080546128f29061336f565b6000825580601f10612902575050565b601f01602090049060005260206000209081019061148c9190612824565b8035600160a060020a0381168114610c7757600080fd5b600082601f83011261294857600080fd5b8135602061295d612958836132c8565b613297565b828152818101908583018385028701840188101561297a57600080fd5b60005b858110156129a05761298e82612920565b8452928401929084019060010161297d565b5090979650505050505050565b600082601f8301126129be57600080fd5b813560206129ce612958836132c8565b82815281810190858301838502870184018810156129eb57600080fd5b6000805b86811015612a2e57823567ffffffffffffffff811115612a0d578283fd5b612a1b8b88838d0101612b1a565b86525093850193918501916001016129ef565b509198975050505050505050565b600082601f830112612a4d57600080fd5b81356020612a5d612958836132c8565b8281528181019085830183850287018401881015612a7a57600080fd5b6000805b86811015612a2e57823567ffffffffffffffff811115612a9c578283fd5b612aaa8b88838d0101612b1a565b8652509385019391850191600101612a7e565b600082601f830112612ace57600080fd5b81356020612ade612958836132c8565b8281528181019085830183850287018401881015612afb57600080fd5b60005b858110156129a057813584529284019290840190600101612afe565b600082601f830112612b2b57600080fd5b8135612b39612958826132ec565b818152846020838601011115612b4e57600080fd5b816020850160208301376000918101602001919091529392505050565b600060208284031215612b7d57600080fd5b61254982612920565b600080600080600080600080610100898b031215612ba357600080fd5b612bac89612920565b9750612bba60208a01612920565b9650612bc860408a01612920565b979a96995096976060810135975060808101359660a0820135965060c0820135955060e0909101359350915050565b600080600080600060a08688031215612c0f57600080fd5b612c1886612920565b9450612c2660208701612920565b93506040860135925060608601359150608086013567ffffffffffffffff811115612c5057600080fd5b612c5c88828901612b1a565b9150509295509295909350565b600080600080600080600060e0888a031215612c8457600080fd5b873567ffffffffffffffff80821115612c9c57600080fd5b612ca88b838c01612937565b985060208a0135915080821115612cbe57600080fd5b612cca8b838c01612abd565b975060408a0135915080821115612ce057600080fd5b612cec8b838c01612a3c565b965060608a0135915080821115612d0257600080fd5b612d0e8b838c016129ad565b955060808a0135945060a08a0135915080821115612d2b57600080fd5b612d378b838c01612b1a565b935060c08a0135915080821115612d4d57600080fd5b50612d5a8a828b01612b1a565b91505092959891949750929550565b600060208284031215612d7b57600080fd5b81516125498161342c565b600060208284031215612d9857600080fd5b5051919050565b600060208284031215612db157600080fd5b813567ffffffffffffffff811115612dc857600080fd5b612dd484828501612b1a565b949350505050565b600060208284031215612dee57600080fd5b815167ffffffffffffffff811115612e0557600080fd5b8201601f81018413612e1657600080fd5b8051612e24612958826132ec565b818152856020838501011115612e3957600080fd5b612e4a826020830160208601613343565b95945050505050565b600060208284031215612e6557600080fd5b5035919050565b60008060408385031215612e7f57600080fd5b82359150612e8f60208401612920565b90509250929050565b60008060008060808587031215612eae57600080fd5b843593506020850135612ec08161342c565b925060408501359150606085013567ffffffffffffffff811115612ee357600080fd5b612eef87828801612b1a565b91505092959194509250565b60008060408385031215612f0e57600080fd5b50508035926020909101359150565b600081518084526020808501808196508284028101915082860160005b85811015612f64578284038952612f52848351612fac565b98850198935090840190600101612f3a565b5091979650505050505050565b600081518084526020808501945080840160005b83811015612fa157815187529582019590820190600101612f85565b509495945050505050565b60008151808452612fc4816020860160208601613343565b601f01601f19169290920160200192915050565b805460009060028104600180831680612ff257607f831692505b60208084108214156130175760e060020a634e487b7102600052602260045260246000fd5b83885281801561302e576001811461304257613070565b60ff19861689830152604089019650613070565b876000528160002060005b868110156130685781548b820185015290850190830161304d565b8a0183019750505b50505050505092915050565b6000825161308e818460208701613343565b9190910192915050565b600160a060020a038616815284602082015260a0604082015260006130c060a0830186612fac565b82810360608401526130d28186612fac565b9150508260808301529695505050505050565b600160a060020a038616815284602082015260a06040820152600061310d60a0830186612fd8565b82810360608401526130d28186612fd8565b60208101600883106131445760e060020a634e487b7102600052602160045260246000fd5b91905290565b6020815260006125496020830184612fac565b6020808252602e908201527f436f6e747261637420696e7374616e63652068617320616c726561647920626560408201527f656e20696e697469616c697a6564000000000000000000000000000000000000606082015260800190565b60006101408083018d84526020600160a060020a03808f16828701528360408701528293508d5180845261016087019450828f01935060005b818110156132115784518316865294830194938301936001016131f3565b50505050508281036060840152613228818b612f71565b9050828103608084015261323c818a612f1d565b905082810360a08401526132508189612f1d565b90508660c08401528560e08401528281036101008401526132718186612fac565b90508281036101208401526132868185612fac565b9d9c50505050505050505050505050565b604051601f8201601f1916810167ffffffffffffffff811182821017156132c0576132c0613413565b604052919050565b600067ffffffffffffffff8211156132e2576132e2613413565b5060209081020190565b600067ffffffffffffffff82111561330657613306613413565b50601f01601f191660200190565b60008219821115613327576133276133c8565b500190565b60008282101561333e5761333e6133c8565b500390565b60005b8381101561335e578181015183820152602001613346565b838111156116195750506000910152565b60028104600182168061338357607f821691505b602082108114156133a75760e060020a634e487b7102600052602260045260246000fd5b50919050565b60006000198214156133c1576133c16133c8565b5060010190565b60e060020a634e487b7102600052601160045260246000fd5b60e060020a634e487b7102600052602160045260246000fd5b60e060020a634e487b7102600052603260045260246000fd5b60e060020a634e487b7102600052604160045260246000fd5b801515811461148c57600080fdfea26469706673582212203599745bd3be69e69bede47959817ad8c7122e6738f0911bdbd5805a6a37ae7564736f6c63430008070033",
  "linkReferences": {},
  "deployedLinkReferences": {}
}