{
  "_format": "hh-sol-artifact-1",
  "contractName": "DeFineBadgeForBlindBox",
  "sourceName": "contracts/DeFineBadgeForBlindBox.sol",
  "abi": [
    {
      "inputs": [
        {
          "internalType": "string",
          "name": "_name",
          "type": "string"
        },
        {
          "internalType": "string",
          "name": "_symbol",
          "type": "string"
        },
        {
          "internalType": "string",
          "name": "_baseURI",
          "type": "string"
        },
        {
          "internalType": "address",
          "name": "_signer",
          "type": "address"
        }
      ],
      "stateMutability": "nonpayable",
      "type": "constructor"
    },
    {
      "anonymous": false,
      "inputs": [
        {
          "indexed": true,
          "internalType": "address",
          "name": "account",
          "type": "address"
        },
        {
          "indexed": true,
          "internalType": "address",
          "name": "operator",
          "type": "address"
        },
        {
          "indexed": false,
          "internalType": "bool",
          "name": "approved",
          "type": "bool"
        }
      ],
      "name": "ApprovalForAll",
      "type": "event"
    },
    {
      "anonymous": false,
      "inputs": [
        {
          "indexed": true,
          "internalType": "address",
          "name": "previousGovernor",
          "type": "address"
        },
        {
          "indexed": true,
          "internalType": "address",
          "name": "newGovernor",
          "type": "address"
        }
      ],
      "name": "GovernorshipTransferred",
      "type": "event"
    },
    {
      "anonymous": false,
      "inputs": [
        {
          "indexed": true,
          "internalType": "address",
          "name": "owner",
          "type": "address"
        },
        {
          "indexed": false,
          "internalType": "string",
          "name": "_type",
          "type": "string"
        },
        {
          "indexed": false,
          "internalType": "uint256",
          "name": "_id",
          "type": "uint256"
        }
      ],
      "name": "Mint",
      "type": "event"
    },
    {
      "anonymous": false,
      "inputs": [
        {
          "indexed": true,
          "internalType": "address",
          "name": "operator",
          "type": "address"
        },
        {
          "indexed": true,
          "internalType": "address",
          "name": "from",
          "type": "address"
        },
        {
          "indexed": true,
          "internalType": "address",
          "name": "to",
          "type": "address"
        },
        {
          "indexed": false,
          "internalType": "uint256[]",
          "name": "ids",
          "type": "uint256[]"
        },
        {
          "indexed": false,
          "internalType": "uint256[]",
          "name": "values",
          "type": "uint256[]"
        }
      ],
      "name": "TransferBatch",
      "type": "event"
    },
    {
      "anonymous": false,
      "inputs": [
        {
          "indexed": true,
          "internalType": "address",
          "name": "operator",
          "type": "address"
        },
        {
          "indexed": true,
          "internalType": "address",
          "name": "from",
          "type": "address"
        },
        {
          "indexed": true,
          "internalType": "address",
          "name": "to",
          "type": "address"
        },
        {
          "indexed": false,
          "internalType": "uint256",
          "name": "id",
          "type": "uint256"
        },
        {
          "indexed": false,
          "internalType": "uint256",
          "name": "value",
          "type": "uint256"
        }
      ],
      "name": "TransferSingle",
      "type": "event"
    },
    {
      "anonymous": false,
      "inputs": [
        {
          "indexed": false,
          "internalType": "string",
          "name": "value",
          "type": "string"
        },
        {
          "indexed": true,
          "internalType": "uint256",
          "name": "id",
          "type": "uint256"
        }
      ],
      "name": "URI",
      "type": "event"
    },
    {
      "inputs": [
        {
          "internalType": "uint256",
          "name": "",
          "type": "uint256"
        }
      ],
      "name": "BadgesInfo",
      "outputs": [
        {
          "internalType": "string",
          "name": "_type",
          "type": "string"
        },
        {
          "internalType": "uint256",
          "name": "_maxCount",
          "type": "uint256"
        },
        {
          "internalType": "uint256",
          "name": "startAt",
          "type": "uint256"
        },
        {
          "internalType": "uint256",
          "name": "endAt",
          "type": "uint256"
        },
        {
          "internalType": "uint256",
          "name": "_mintLimit",
          "type": "uint256"
        },
        {
          "internalType": "address",
          "name": "_minter",
          "type": "address"
        }
      ],
      "stateMutability": "view",
      "type": "function"
    },
    {
      "inputs": [
        {
          "internalType": "string",
          "name": "_type",
          "type": "string"
        },
        {
          "internalType": "address",
          "name": "_to",
          "type": "address"
        }
      ],
      "name": "airdrop",
      "outputs": [
        {
          "internalType": "uint256",
          "name": "",
          "type": "uint256"
        }
      ],
      "stateMutability": "nonpayable",
      "type": "function"
    },
    {
      "inputs": [
        {
          "internalType": "address",
          "name": "account",
          "type": "address"
        },
        {
          "internalType": "uint256",
          "name": "id",
          "type": "uint256"
        }
      ],
      "name": "balanceOf",
      "outputs": [
        {
          "internalType": "uint256",
          "name": "",
          "type": "uint256"
        }
      ],
      "stateMutability": "view",
      "type": "function"
    },
    {
      "inputs": [
        {
          "internalType": "address[]",
          "name": "accounts",
          "type": "address[]"
        },
        {
          "internalType": "uint256[]",
          "name": "ids",
          "type": "uint256[]"
        }
      ],
      "name": "balanceOfBatch",
      "outputs": [
        {
          "internalType": "uint256[]",
          "name": "",
          "type": "uint256[]"
        }
      ],
      "stateMutability": "view",
      "type": "function"
    },
    {
      "inputs": [],
      "name": "baseURI",
      "outputs": [
        {
          "internalType": "string",
          "name": "",
          "type": "string"
        }
      ],
      "stateMutability": "view",
      "type": "function"
    },
    {
      "inputs": [
        {
          "internalType": "string",
          "name": "_type",
          "type": "string"
        },
        {
          "internalType": "uint256",
          "name": "_endTime",
          "type": "uint256"
        }
      ],
      "name": "getEndTime",
      "outputs": [
        {
          "internalType": "uint256",
          "name": "",
          "type": "uint256"
        }
      ],
      "stateMutability": "nonpayable",
      "type": "function"
    },
    {
      "inputs": [
        {
          "internalType": "string",
          "name": "_type",
          "type": "string"
        },
        {
          "internalType": "uint256",
          "name": "_count",
          "type": "uint256"
        }
      ],
      "name": "getMaxCount",
      "outputs": [
        {
          "internalType": "uint256",
          "name": "",
          "type": "uint256"
        }
      ],
      "stateMutability": "nonpayable",
      "type": "function"
    },
    {
      "inputs": [
        {
          "internalType": "string",
          "name": "_type",
          "type": "string"
        },
        {
          "internalType": "uint256",
          "name": "_limit",
          "type": "uint256"
        }
      ],
      "name": "getMintLimit",
      "outputs": [
        {
          "internalType": "uint256",
          "name": "",
          "type": "uint256"
        }
      ],
      "stateMutability": "nonpayable",
      "type": "function"
    },
    {
      "inputs": [
        {
          "internalType": "string",
          "name": "_type",
          "type": "string"
        },
        {
          "internalType": "uint256",
          "name": "_startTime",
          "type": "uint256"
        }
      ],
      "name": "getStartTime",
      "outputs": [
        {
          "internalType": "uint256",
          "name": "",
          "type": "uint256"
        }
      ],
      "stateMutability": "nonpayable",
      "type": "function"
    },
    {
      "inputs": [],
      "name": "governor",
      "outputs": [
        {
          "internalType": "address",
          "name": "",
          "type": "address"
        }
      ],
      "stateMutability": "view",
      "type": "function"
    },
    {
      "inputs": [
        {
          "internalType": "address",
          "name": "governor_",
          "type": "address"
        }
      ],
      "name": "initialize",
      "outputs": [],
      "stateMutability": "nonpayable",
      "type": "function"
    },
    {
      "inputs": [
        {
          "internalType": "address",
          "name": "account",
          "type": "address"
        },
        {
          "internalType": "address",
          "name": "operator",
          "type": "address"
        }
      ],
      "name": "isApprovedForAll",
      "outputs": [
        {
          "internalType": "bool",
          "name": "",
          "type": "bool"
        }
      ],
      "stateMutability": "view",
      "type": "function"
    },
    {
      "inputs": [
        {
          "internalType": "string",
          "name": "_type",
          "type": "string"
        },
        {
          "internalType": "uint256",
          "name": "_nonce",
          "type": "uint256"
        },
        {
          "internalType": "bytes",
          "name": "_signature",
          "type": "bytes"
        }
      ],
      "name": "mint",
      "outputs": [],
      "stateMutability": "nonpayable",
      "type": "function"
    },
    {
      "inputs": [
        {
          "internalType": "uint256",
          "name": "",
          "type": "uint256"
        }
      ],
      "name": "mintedCount",
      "outputs": [
        {
          "internalType": "uint256",
          "name": "",
          "type": "uint256"
        }
      ],
      "stateMutability": "view",
      "type": "function"
    },
    {
      "inputs": [],
      "name": "name",
      "outputs": [
        {
          "internalType": "string",
          "name": "",
          "type": "string"
        }
      ],
      "stateMutability": "view",
      "type": "function"
    },
    {
      "inputs": [
        {
          "internalType": "string",
          "name": "_type",
          "type": "string"
        },
        {
          "internalType": "uint256",
          "name": "_maxCount",
          "type": "uint256"
        },
        {
          "internalType": "uint256",
          "name": "startAt",
          "type": "uint256"
        },
        {
          "internalType": "uint256",
          "name": "endAt",
          "type": "uint256"
        },
        {
          "internalType": "uint256",
          "name": "_mintLimit",
          "type": "uint256"
        },
        {
          "internalType": "address",
          "name": "minter",
          "type": "address"
        }
      ],
      "name": "newBadge",
      "outputs": [
        {
          "internalType": "bool",
          "name": "",
          "type": "bool"
        }
      ],
      "stateMutability": "nonpayable",
      "type": "function"
    },
    {
      "inputs": [],
      "name": "renounceGovernorship",
      "outputs": [],
      "stateMutability": "nonpayable",
      "type": "function"
    },
    {
      "inputs": [
        {
          "internalType": "address",
          "name": "from",
          "type": "address"
        },
        {
          "internalType": "address",
          "name": "to",
          "type": "address"
        },
        {
          "internalType": "uint256[]",
          "name": "ids",
          "type": "uint256[]"
        },
        {
          "internalType": "uint256[]",
          "name": "amounts",
          "type": "uint256[]"
        },
        {
          "internalType": "bytes",
          "name": "data",
          "type": "bytes"
        }
      ],
      "name": "safeBatchTransferFrom",
      "outputs": [],
      "stateMutability": "nonpayable",
      "type": "function"
    },
    {
      "inputs": [
        {
          "internalType": "address",
          "name": "from",
          "type": "address"
        },
        {
          "internalType": "address",
          "name": "to",
          "type": "address"
        },
        {
          "internalType": "uint256",
          "name": "id",
          "type": "uint256"
        },
        {
          "internalType": "uint256",
          "name": "amount",
          "type": "uint256"
        },
        {
          "internalType": "bytes",
          "name": "data",
          "type": "bytes"
        }
      ],
      "name": "safeTransferFrom",
      "outputs": [],
      "stateMutability": "nonpayable",
      "type": "function"
    },
    {
      "inputs": [
        {
          "internalType": "address",
          "name": "operator",
          "type": "address"
        },
        {
          "internalType": "bool",
          "name": "approved",
          "type": "bool"
        }
      ],
      "name": "setApprovalForAll",
      "outputs": [],
      "stateMutability": "nonpayable",
      "type": "function"
    },
    {
      "inputs": [
        {
          "internalType": "string",
          "name": "_type",
          "type": "string"
        },
        {
          "internalType": "uint256",
          "name": "_endTime",
          "type": "uint256"
        }
      ],
      "name": "setEndTime",
      "outputs": [
        {
          "internalType": "bool",
          "name": "",
          "type": "bool"
        }
      ],
      "stateMutability": "nonpayable",
      "type": "function"
    },
    {
      "inputs": [
        {
          "internalType": "string",
          "name": "_type",
          "type": "string"
        },
        {
          "internalType": "uint256",
          "name": "_count",
          "type": "uint256"
        }
      ],
      "name": "setMaxCount",
      "outputs": [
        {
          "internalType": "bool",
          "name": "",
          "type": "bool"
        }
      ],
      "stateMutability": "nonpayable",
      "type": "function"
    },
    {
      "inputs": [
        {
          "internalType": "string",
          "name": "_type",
          "type": "string"
        },
        {
          "internalType": "uint256",
          "name": "_limit",
          "type": "uint256"
        }
      ],
      "name": "setMintLimit",
      "outputs": [
        {
          "internalType": "bool",
          "name": "",
          "type": "bool"
        }
      ],
      "stateMutability": "nonpayable",
      "type": "function"
    },
    {
      "inputs": [
        {
          "internalType": "string",
          "name": "_type",
          "type": "string"
        },
        {
          "internalType": "address",
          "name": "_address",
          "type": "address"
        }
      ],
      "name": "setMinter",
      "outputs": [
        {
          "internalType": "bool",
          "name": "",
          "type": "bool"
        }
      ],
      "stateMutability": "nonpayable",
      "type": "function"
    },
    {
      "inputs": [
        {
          "internalType": "address",
          "name": "_signer",
          "type": "address"
        }
      ],
      "name": "setSigner",
      "outputs": [
        {
          "internalType": "bool",
          "name": "",
          "type": "bool"
        }
      ],
      "stateMutability": "nonpayable",
      "type": "function"
    },
    {
      "inputs": [
        {
          "internalType": "string",
          "name": "_type",
          "type": "string"
        },
        {
          "internalType": "uint256",
          "name": "_startTime",
          "type": "uint256"
        }
      ],
      "name": "setStartTime",
      "outputs": [
        {
          "internalType": "bool",
          "name": "",
          "type": "bool"
        }
      ],
      "stateMutability": "nonpayable",
      "type": "function"
    },
    {
      "inputs": [
        {
          "internalType": "string",
          "name": "_baseURI",
          "type": "string"
        }
      ],
      "name": "setURI",
      "outputs": [
        {
          "internalType": "bool",
          "name": "",
          "type": "bool"
        }
      ],
      "stateMutability": "nonpayable",
      "type": "function"
    },
    {
      "inputs": [],
      "name": "signer",
      "outputs": [
        {
          "internalType": "address",
          "name": "",
          "type": "address"
        }
      ],
      "stateMutability": "view",
      "type": "function"
    },
    {
      "inputs": [
        {
          "internalType": "bytes",
          "name": "sig",
          "type": "bytes"
        }
      ],
      "name": "splitSignature",
      "outputs": [
        {
          "internalType": "bytes32",
          "name": "r",
          "type": "bytes32"
        },
        {
          "internalType": "bytes32",
          "name": "s",
          "type": "bytes32"
        },
        {
          "internalType": "uint8",
          "name": "v",
          "type": "uint8"
        }
      ],
      "stateMutability": "pure",
      "type": "function"
    },
    {
      "inputs": [
        {
          "internalType": "bytes4",
          "name": "interfaceId",
          "type": "bytes4"
        }
      ],
      "name": "supportsInterface",
      "outputs": [
        {
          "internalType": "bool",
          "name": "",
          "type": "bool"
        }
      ],
      "stateMutability": "view",
      "type": "function"
    },
    {
      "inputs": [],
      "name": "symbol",
      "outputs": [
        {
          "internalType": "string",
          "name": "",
          "type": "string"
        }
      ],
      "stateMutability": "view",
      "type": "function"
    },
    {
      "inputs": [],
      "name": "toogleSaleIsActive",
      "outputs": [],
      "stateMutability": "nonpayable",
      "type": "function"
    },
    {
      "inputs": [
        {
          "internalType": "address",
          "name": "newGovernor",
          "type": "address"
        }
      ],
      "name": "transferGovernorship",
      "outputs": [],
      "stateMutability": "nonpayable",
      "type": "function"
    },
    {
      "inputs": [
        {
          "internalType": "string",
          "name": "",
          "type": "string"
        }
      ],
      "name": "typeList",
      "outputs": [
        {
          "internalType": "uint256",
          "name": "",
          "type": "uint256"
        }
      ],
      "stateMutability": "view",
      "type": "function"
    },
    {
      "inputs": [
        {
          "internalType": "uint256",
          "name": "tokenId",
          "type": "uint256"
        }
      ],
      "name": "uri",
      "outputs": [
        {
          "internalType": "string",
          "name": "",
          "type": "string"
        }
      ],
      "stateMutability": "view",
      "type": "function"
    },
    {
      "inputs": [
        {
          "internalType": "uint256",
          "name": "",
          "type": "uint256"
        },
        {
          "internalType": "address",
          "name": "",
          "type": "address"
        }
      ],
      "name": "userMinted",
      "outputs": [
        {
          "internalType": "uint256",
          "name": "",
          "type": "uint256"
        }
      ],
      "stateMutability": "view",
      "type": "function"
    },
    {
      "inputs": [
        {
          "internalType": "address",
          "name": "_signer",
          "type": "address"
        },
        {
          "internalType": "address",
          "name": "_to",
          "type": "address"
        },
        {
          "internalType": "string",
          "name": "_type",
          "type": "string"
        },
        {
          "internalType": "uint256",
          "name": "_nonce",
          "type": "uint256"
        },
        {
          "internalType": "bytes",
          "name": "signature",
          "type": "bytes"
        }
      ],
      "name": "verify",
      "outputs": [
        {
          "internalType": "address",
          "name": "",
          "type": "address"
        }
      ],
      "stateMutability": "pure",
      "type": "function"
    },
    {
      "inputs": [
        {
          "internalType": "address",
          "name": "_signer",
          "type": "address"
        },
        {
          "internalType": "address",
          "name": "_to",
          "type": "address"
        },
        {
          "internalType": "string",
          "name": "_type",
          "type": "string"
        },
        {
          "internalType": "uint256",
          "name": "_nonce",
          "type": "uint256"
        },
        {
          "internalType": "bytes",
          "name": "signature",
          "type": "bytes"
        },
        {
          "internalType": "uint256",
          "name": "maxCount",
          "type": "uint256"
        }
      ],
      "name": "verify",
      "outputs": [
        {
          "internalType": "address",
          "name": "",
          "type": "address"
        }
      ],
      "stateMutability": "pure",
      "type": "function"
    }
  ],
  "bytecode": "0x60806040523480156200001157600080fd5b5060405162006e0f38038062006e0f8339818101604052810190620000379190620008c7565b603b8054620000469062000d09565b80601f0160208091040260200160405190810160405280929190818152602001828054620000749062000d09565b8015620000c55780601f106200009957610100808354040283529160200191620000c5565b820191906000526020600020905b815481529060010190602001808311620000a757829003601f168201915b5050505050620000db816200020260201b60201c565b506001603760006101000a81548160ff02191690831515021790555083603990805190602001906200010f9291906200078e565b5082603a9080519060200190620001289291906200078e565b5081620001563073ffffffffffffffffffffffffffffffffffffffff166200021e60201b620027fc1760201c565b6040516020016200016992919062000aa1565b604051602081830303815290604052603b90805190602001906200018f9291906200078e565b5080603c60006101000a81548173ffffffffffffffffffffffffffffffffffffffff021916908373ffffffffffffffffffffffffffffffffffffffff160217905550620001e2826200020260201b60201c565b620001f833620002b260201b62001d5b1760201c565b5050505062000e34565b80603690805190602001906200021a9291906200078e565b5050565b6060600082141562000268576040518060400160405280600481526020017f30783030000000000000000000000000000000000000000000000000000000008152509050620002ad565b600082905060005b6000821462000296578080620002869062000d3f565b915050600882901c915062000270565b620002a884826200046860201b60201c565b925050505b919050565b600060019054906101000a900460ff1680620002da5750620002d96200077760201b60201c565b5b80620002f1575060008054906101000a900460ff16155b62000333576040517f08c379a00000000000000000000000000000000000000000000000000000000081526004016200032a9062000af8565b60405180910390fd5b60008060019054906101000a900460ff16159050801562000384576001600060016101000a81548160ff02191690831515021790555060016000806101000a81548160ff0219169083151502179055505b81603360006101000a81548173ffffffffffffffffffffffffffffffffffffffff021916908373ffffffffffffffffffffffffffffffffffffffff160217905550603360009054906101000a900473ffffffffffffffffffffffffffffffffffffffff1673ffffffffffffffffffffffffffffffffffffffff16600073ffffffffffffffffffffffffffffffffffffffff167fc7c0c772add429241571afb3805861fb3cfa2af374534088b76cdb4325a87e9a60405160405180910390a38015620004645760008060016101000a81548160ff0219169083151502179055505b5050565b6060600060028360026200047d919062000c05565b62000489919062000ba8565b67ffffffffffffffff811115620004c9577f4e487b7100000000000000000000000000000000000000000000000000000000600052604160045260246000fd5b6040519080825280601f01601f191660200182016040528015620004fc5781602001600182028036833780820191505090505b5090507f3000000000000000000000000000000000000000000000000000000000000000816000815181106200055b577f4e487b7100000000000000000000000000000000000000000000000000000000600052603260045260246000fd5b60200101907effffffffffffffffffffffffffffffffffffffffffffffffffffffffffffff1916908160001a9053507f780000000000000000000000000000000000000000000000000000000000000081600181518110620005e6577f4e487b7100000000000000000000000000000000000000000000000000000000600052603260045260246000fd5b60200101907effffffffffffffffffffffffffffffffffffffffffffffffffffffffffffff1916908160001a9053506000600184600262000628919062000c05565b62000634919062000ba8565b90505b600181111562000726577f3031323334353637383961626364656600000000000000000000000000000000600f8616601081106200069e577f4e487b7100000000000000000000000000000000000000000000000000000000600052603260045260246000fd5b1a60f81b828281518110620006dc577f4e487b7100000000000000000000000000000000000000000000000000000000600052603260045260246000fd5b60200101907effffffffffffffffffffffffffffffffffffffffffffffffffffffffffffff1916908160001a905350600485901c9450806200071e9062000cda565b905062000637565b50600084146200076d576040517f08c379a0000000000000000000000000000000000000000000000000000000008152600401620007649062000ad6565b60405180910390fd5b8091505092915050565b6000803090506000813b9050600081149250505090565b8280546200079c9062000d09565b90600052602060002090601f016020900481019282620007c057600085556200080c565b82601f10620007db57805160ff19168380011785556200080c565b828001600101855582156200080c579182015b828111156200080b578251825591602001919060010190620007ee565b5b5090506200081b91906200081f565b5090565b5b808211156200083a57600081600090555060010162000820565b5090565b6000620008556200084f8462000b4e565b62000b1a565b9050828152602081018484840111156200086e57600080fd5b6200087b84828562000ca4565b509392505050565b600081519050620008948162000e1a565b92915050565b600082601f830112620008ac57600080fd5b8151620008be8482602086016200083e565b91505092915050565b60008060008060808587031215620008de57600080fd5b600085015167ffffffffffffffff811115620008f957600080fd5b62000907878288016200089a565b945050602085015167ffffffffffffffff8111156200092557600080fd5b62000933878288016200089a565b935050604085015167ffffffffffffffff8111156200095157600080fd5b6200095f878288016200089a565b9250506060620009728782880162000883565b91505092959194509250565b60006200098b8262000b81565b62000997818562000b9d565b9350620009a981856020860162000ca4565b80840191505092915050565b6000620009c460208362000b8c565b91507f537472696e67733a20686578206c656e67746820696e73756666696369656e746000830152602082019050919050565b600062000a06602e8362000b8c565b91507f436f6e747261637420696e7374616e63652068617320616c726561647920626560008301527f656e20696e697469616c697a65640000000000000000000000000000000000006020830152604082019050919050565b600062000a6e60018362000b9d565b91507f2f000000000000000000000000000000000000000000000000000000000000006000830152600182019050919050565b600062000aaf82856200097e565b915062000abd82846200097e565b915062000aca8262000a5f565b91508190509392505050565b6000602082019050818103600083015262000af181620009b5565b9050919050565b6000602082019050818103600083015262000b1381620009f7565b9050919050565b6000604051905081810181811067ffffffffffffffff8211171562000b445762000b4362000deb565b5b8060405250919050565b600067ffffffffffffffff82111562000b6c5762000b6b62000deb565b5b601f19601f8301169050602081019050919050565b600081519050919050565b600082825260208201905092915050565b600081905092915050565b600062000bb58262000c9a565b915062000bc28362000c9a565b9250827fffffffffffffffffffffffffffffffffffffffffffffffffffffffffffffffff0382111562000bfa5762000bf962000d8d565b5b828201905092915050565b600062000c128262000c9a565b915062000c1f8362000c9a565b9250817fffffffffffffffffffffffffffffffffffffffffffffffffffffffffffffffff048311821515161562000c5b5762000c5a62000d8d565b5b828202905092915050565b600062000c738262000c7a565b9050919050565b600073ffffffffffffffffffffffffffffffffffffffff82169050919050565b6000819050919050565b60005b8381101562000cc457808201518184015260208101905062000ca7565b8381111562000cd4576000848401525b50505050565b600062000ce78262000c9a565b9150600082141562000cfe5762000cfd62000d8d565b5b600182039050919050565b6000600282049050600182168062000d2257607f821691505b6020821081141562000d395762000d3862000dbc565b5b50919050565b600062000d4c8262000c9a565b91507fffffffffffffffffffffffffffffffffffffffffffffffffffffffffffffffff82141562000d825762000d8162000d8d565b5b600182019050919050565b7f4e487b7100000000000000000000000000000000000000000000000000000000600052601160045260246000fd5b7f4e487b7100000000000000000000000000000000000000000000000000000000600052602260045260246000fd5b7f4e487b7100000000000000000000000000000000000000000000000000000000600052604160045260246000fd5b62000e258162000c66565b811462000e3157600080fd5b50565b615fcb8062000e446000396000f3fe608060405234801561001057600080fd5b50600436106102305760003560e01c80636c19e78311610130578063c733241c116100b8578063e985e9c51161007c578063e985e9c514610762578063ea37c2a914610792578063eec9c3c8146107c2578063f242432a146107f2578063feb993741461080e57610230565b8063c733241c14610698578063daeb0aa6146106c8578063e04c36a6146106d2578063e16b482314610702578063e6d3da8b1461073257610230565b806395d89b41116100ff57806395d89b41146105f4578063a22cb46514610612578063a7bb58031461062e578063b6aa515b14610660578063c4d66de81461067c57610230565b80636c19e7831461055a5780637ba30d761461058a57806381c0c263146105ba5780638358ff65146105c457610230565b806317aaafd0116101be5780634e1273f4116101825780634e1273f41461047757806351de7e59146104a75780635e354332146104d7578063634d98fe146105075780636c0360eb1461053c57610230565b806317aaafd0146103ad5780631e31549e146103dd578063238ac9331461040d5780632eb2c2d61461042b578063359b73381461044757610230565b806306fdde031161020557806306fdde03146102f55780630a5d0f2f146103135780630c340a24146103435780630e89341c1461036157806310662e911461039157610230565b80628e444414610235578062fdd58e1461026557806301ffc9a71461029557806302fe5305146102c5575b600080fd5b61024f600480360381019061024a9190614752565b61083e565b60405161025c91906158f8565b60405180910390f35b61027f600480360381019061027a9190614582565b6109f8565b60405161028c91906158f8565b60405180910390f35b6102af60048036038101906102aa919061462a565b610ac2565b6040516102bc91906154c7565b60405180910390f35b6102df60048036038101906102da91906146bd565b610ba4565b6040516102ec91906154c7565b60405180910390f35b6102fd610c29565b60405161030a919061555e565b60405180910390f35b61032d60048036038101906103289190614752565b610cb7565b60405161033a91906154c7565b60405180910390f35b61034b610d58565b6040516103589190615391565b60405180910390f35b61037b600480360381019061037691906148c6565b610d7e565b604051610388919061555e565b60405180910390f35b6103ab60048036038101906103a691906147a6565b610db2565b005b6103c760048036038101906103c29190614825565b610e85565b6040516103d491906154c7565b60405180910390f35b6103f760048036038101906103f29190614357565b61107c565b6040516104049190615391565b60405180910390f35b61041561111e565b6040516104229190615391565b60405180910390f35b61044560048036038101906104409190614298565b611144565b005b610461600480360381019061045c9190614752565b6111e5565b60405161046e91906158f8565b60405180910390f35b610491600480360381019061048c91906145be565b61139f565b60405161049e919061546e565b60405180910390f35b6104c160048036038101906104bc9190614752565b611550565b6040516104ce91906154c7565b60405180910390f35b6104f160048036038101906104ec91906148c6565b6115f1565b6040516104fe91906158f8565b60405180910390f35b610521600480360381019061051c91906148c6565b611609565b604051610533969594939291906155b0565b60405180910390f35b6105446116ed565b604051610551919061555e565b60405180910390f35b610574600480360381019061056f9190614233565b61177b565b60405161058191906154c7565b60405180910390f35b6105a4600480360381019061059f9190614752565b611821565b6040516105b191906154c7565b60405180910390f35b6105c26118c2565b005b6105de60048036038101906105d99190614752565b6119dd565b6040516105eb91906154c7565b60405180910390f35b6105fc611a7e565b604051610609919061555e565b60405180910390f35b61062c60048036038101906106279190614546565b611b0c565b005b6106486004803603810190610643919061467c565b611c8d565b604051610657939291906154e2565b60405180910390f35b61067a60048036038101906106759190614233565b611cf5565b005b61069660048036038101906106919190614233565b611d5b565b005b6106b260048036038101906106ad91906146bd565b611f02565b6040516106bf91906158f8565b60405180910390f35b6106d0611f30565b005b6106ec60048036038101906106e791906143fe565b611fb6565b6040516106f99190615391565b60405180910390f35b61071c60048036038101906107179190614752565b61205b565b60405161072991906158f8565b60405180910390f35b61074c600480360381019061074791906148ef565b612215565b60405161075991906158f8565b60405180910390f35b61077c6004803603810190610777919061425c565b61223a565b60405161078991906154c7565b60405180910390f35b6107ac60048036038101906107a791906146fe565b6122ce565b6040516107b991906158f8565b60405180910390f35b6107dc60048036038101906107d79190614752565b6124c6565b6040516107e991906158f8565b60405180910390f35b61080c600480360381019061080791906144b7565b612680565b005b610828600480360381019061082391906146fe565b612721565b60405161083591906154c7565b60405180910390f35b6000603360009054906101000a900473ffffffffffffffffffffffffffffffffffffffff1673ffffffffffffffffffffffffffffffffffffffff163373ffffffffffffffffffffffffffffffffffffffff161461089a57600080fd5b6000603d6000603e866040516108b09190615356565b90815260200160405180910390205481526020019081526020016000206040518060c00160405290816000820180546108e890615cc2565b80601f016020809104026020016040519081016040528092919081815260200182805461091490615cc2565b80156109615780601f1061093657610100808354040283529160200191610961565b820191906000526020600020905b81548152906001019060200180831161094457829003601f168201915b50505050508152602001600182015481526020016002820154815260200160038201548152602001600482015481526020016005820160009054906101000a900473ffffffffffffffffffffffffffffffffffffffff1673ffffffffffffffffffffffffffffffffffffffff1673ffffffffffffffffffffffffffffffffffffffff16815250509050806020015191505092915050565b60008073ffffffffffffffffffffffffffffffffffffffff168373ffffffffffffffffffffffffffffffffffffffff161415610a69576040517f08c379a0000000000000000000000000000000000000000000000000000000008152600401610a60906156d8565b60405180910390fd5b6034600083815260200190815260200160002060008473ffffffffffffffffffffffffffffffffffffffff1673ffffffffffffffffffffffffffffffffffffffff16815260200190815260200160002054905092915050565b60007fd9b67a26000000000000000000000000000000000000000000000000000000007bffffffffffffffffffffffffffffffffffffffffffffffffffffffff1916827bffffffffffffffffffffffffffffffffffffffffffffffffffffffff19161480610b8d57507f0e89341c000000000000000000000000000000000000000000000000000000007bffffffffffffffffffffffffffffffffffffffffffffffffffffffff1916827bffffffffffffffffffffffffffffffffffffffffffffffffffffffff1916145b80610b9d5750610b9c82612882565b5b9050919050565b6000603360009054906101000a900473ffffffffffffffffffffffffffffffffffffffff1673ffffffffffffffffffffffffffffffffffffffff163373ffffffffffffffffffffffffffffffffffffffff1614610c0057600080fd5b81603b9080519060200190610c16929190613f2b565b50610c20826128ec565b60019050919050565b60398054610c3690615cc2565b80601f0160208091040260200160405190810160405280929190818152602001828054610c6290615cc2565b8015610caf5780601f10610c8457610100808354040283529160200191610caf565b820191906000526020600020905b815481529060010190602001808311610c9257829003601f168201915b505050505081565b6000603360009054906101000a900473ffffffffffffffffffffffffffffffffffffffff1673ffffffffffffffffffffffffffffffffffffffff163373ffffffffffffffffffffffffffffffffffffffff1614610d1357600080fd5b6000603d6000603e86604051610d299190615356565b908152602001604051809103902054815260200190815260200160002090508281600301819055505092915050565b603360009054906101000a900473ffffffffffffffffffffffffffffffffffffffff1681565b6060603b610d8b83612906565b604051602001610d9c92919061536d565b6040516020818303038152906040529050919050565b6000610de3603c60009054906101000a900473ffffffffffffffffffffffffffffffffffffffff163386868661107c565b90508073ffffffffffffffffffffffffffffffffffffffff16603c60009054906101000a900473ffffffffffffffffffffffffffffffffffffffff1673ffffffffffffffffffffffffffffffffffffffff1614610e75576040517f08c379a0000000000000000000000000000000000000000000000000000000008152600401610e6c90615698565b60405180910390fd5b610e7f8433612ab3565b50505050565b6000603360009054906101000a900473ffffffffffffffffffffffffffffffffffffffff1673ffffffffffffffffffffffffffffffffffffffff163373ffffffffffffffffffffffffffffffffffffffff1614610ee157600080fd5b6000603e88604051610ef39190615356565b90815260200160405180910390205414610f42576040517f08c379a0000000000000000000000000000000000000000000000000000000008152600401610f3990615738565b60405180910390fd5b600160386000828254610f559190615ab6565b9250508190555060006040518060c001604052808981526020018881526020018781526020018681526020018581526020018473ffffffffffffffffffffffffffffffffffffffff16815250905080603d600060385481526020019081526020016000206000820151816000019080519060200190610fd5929190613f2b565b506020820151816001015560408201518160020155606082015181600301556080820151816004015560a08201518160050160006101000a81548173ffffffffffffffffffffffffffffffffffffffff021916908373ffffffffffffffffffffffffffffffffffffffff160217905550905050603854603e8960405161105b9190615356565b90815260200160405180910390208190555060019150509695505050505050565b600080858585604051602001611094939291906152d3565b60405160208183030381529060405280519060200120905060008060006110ba86611c8d565b925092509250600184828585604051600081526020016040526040516110e39493929190615519565b6020604051602081039080840390855afa158015611105573d6000803e3d6000fd5b5050506020604051035194505050505095945050505050565b603c60009054906101000a900473ffffffffffffffffffffffffffffffffffffffff1681565b61114c612f18565b73ffffffffffffffffffffffffffffffffffffffff168573ffffffffffffffffffffffffffffffffffffffff16148061119257506111918561118c612f18565b61223a565b5b6111d1576040517f08c379a00000000000000000000000000000000000000000000000000000000081526004016111c890615778565b60405180910390fd5b6111de8585858585612f20565b5050505050565b6000603360009054906101000a900473ffffffffffffffffffffffffffffffffffffffff1673ffffffffffffffffffffffffffffffffffffffff163373ffffffffffffffffffffffffffffffffffffffff161461124157600080fd5b6000603d6000603e866040516112579190615356565b90815260200160405180910390205481526020019081526020016000206040518060c001604052908160008201805461128f90615cc2565b80601f01602080910402602001604051908101604052809291908181526020018280546112bb90615cc2565b80156113085780601f106112dd57610100808354040283529160200191611308565b820191906000526020600020905b8154815290600101906020018083116112eb57829003601f168201915b50505050508152602001600182015481526020016002820154815260200160038201548152602001600482015481526020016005820160009054906101000a900473ffffffffffffffffffffffffffffffffffffffff1673ffffffffffffffffffffffffffffffffffffffff1673ffffffffffffffffffffffffffffffffffffffff16815250509050806080015191505092915050565b606081518351146113e5576040517f08c379a00000000000000000000000000000000000000000000000000000000081526004016113dc90615878565b60405180910390fd5b6000835167ffffffffffffffff811115611428577f4e487b7100000000000000000000000000000000000000000000000000000000600052604160045260246000fd5b6040519080825280602002602001820160405280156114565781602001602082028036833780820191505090505b50905060005b8451811015611545576114ef8582815181106114a1577f4e487b7100000000000000000000000000000000000000000000000000000000600052603260045260246000fd5b60200260200101518583815181106114e2577f4e487b7100000000000000000000000000000000000000000000000000000000600052603260045260246000fd5b60200260200101516109f8565b828281518110611528577f4e487b7100000000000000000000000000000000000000000000000000000000600052603260045260246000fd5b6020026020010181815250508061153e90615cf4565b905061145c565b508091505092915050565b6000603360009054906101000a900473ffffffffffffffffffffffffffffffffffffffff1673ffffffffffffffffffffffffffffffffffffffff163373ffffffffffffffffffffffffffffffffffffffff16146115ac57600080fd5b6000603d6000603e866040516115c29190615356565b908152602001604051809103902054815260200190815260200160002090508281600401819055505092915050565b603f6020528060005260406000206000915090505481565b603d60205280600052604060002060009150905080600001805461162c90615cc2565b80601f016020809104026020016040519081016040528092919081815260200182805461165890615cc2565b80156116a55780601f1061167a576101008083540402835291602001916116a5565b820191906000526020600020905b81548152906001019060200180831161168857829003601f168201915b5050505050908060010154908060020154908060030154908060040154908060050160009054906101000a900473ffffffffffffffffffffffffffffffffffffffff16905086565b603b80546116fa90615cc2565b80601f016020809104026020016040519081016040528092919081815260200182805461172690615cc2565b80156117735780601f1061174857610100808354040283529160200191611773565b820191906000526020600020905b81548152906001019060200180831161175657829003601f168201915b505050505081565b6000603360009054906101000a900473ffffffffffffffffffffffffffffffffffffffff1673ffffffffffffffffffffffffffffffffffffffff163373ffffffffffffffffffffffffffffffffffffffff16146117d757600080fd5b81603c60006101000a81548173ffffffffffffffffffffffffffffffffffffffff021916908373ffffffffffffffffffffffffffffffffffffffff16021790555060019050919050565b6000603360009054906101000a900473ffffffffffffffffffffffffffffffffffffffff1673ffffffffffffffffffffffffffffffffffffffff163373ffffffffffffffffffffffffffffffffffffffff161461187d57600080fd5b6000603d6000603e866040516118939190615356565b908152602001604051809103902054815260200190815260200160002090508281600101819055505092915050565b603360009054906101000a900473ffffffffffffffffffffffffffffffffffffffff1673ffffffffffffffffffffffffffffffffffffffff163373ffffffffffffffffffffffffffffffffffffffff161461191c57600080fd5b600073ffffffffffffffffffffffffffffffffffffffff16603360009054906101000a900473ffffffffffffffffffffffffffffffffffffffff1673ffffffffffffffffffffffffffffffffffffffff167fc7c0c772add429241571afb3805861fb3cfa2af374534088b76cdb4325a87e9a60405160405180910390a36000603360006101000a81548173ffffffffffffffffffffffffffffffffffffffff021916908373ffffffffffffffffffffffffffffffffffffffff160217905550565b6000603360009054906101000a900473ffffffffffffffffffffffffffffffffffffffff1673ffffffffffffffffffffffffffffffffffffffff163373ffffffffffffffffffffffffffffffffffffffff1614611a3957600080fd5b6000603d6000603e86604051611a4f9190615356565b908152602001604051809103902054815260200190815260200160002090508281600201819055505092915050565b603a8054611a8b90615cc2565b80601f0160208091040260200160405190810160405280929190818152602001828054611ab790615cc2565b8015611b045780601f10611ad957610100808354040283529160200191611b04565b820191906000526020600020905b815481529060010190602001808311611ae757829003601f168201915b505050505081565b8173ffffffffffffffffffffffffffffffffffffffff16611b2b612f18565b73ffffffffffffffffffffffffffffffffffffffff161415611b82576040517f08c379a0000000000000000000000000000000000000000000000000000000008152600401611b7990615838565b60405180910390fd5b8060356000611b8f612f18565b73ffffffffffffffffffffffffffffffffffffffff1673ffffffffffffffffffffffffffffffffffffffff16815260200190815260200160002060008473ffffffffffffffffffffffffffffffffffffffff1673ffffffffffffffffffffffffffffffffffffffff16815260200190815260200160002060006101000a81548160ff0219169083151502179055508173ffffffffffffffffffffffffffffffffffffffff16611c3c612f18565b73ffffffffffffffffffffffffffffffffffffffff167f17307eab39ab6107e8899845ad3d59bd9653f200f220920489ca2b5937696c3183604051611c8191906154c7565b60405180910390a35050565b60008060006041845114611cd6576040517f08c379a0000000000000000000000000000000000000000000000000000000008152600401611ccd90615858565b60405180910390fd5b6020840151925060408401519150606084015160001a90509193909250565b603360009054906101000a900473ffffffffffffffffffffffffffffffffffffffff1673ffffffffffffffffffffffffffffffffffffffff163373ffffffffffffffffffffffffffffffffffffffff1614611d4f57600080fd5b611d5881613283565b50565b600060019054906101000a900460ff1680611d7a5750611d7961337d565b5b80611d90575060008054906101000a900460ff16155b611dcf576040517f08c379a0000000000000000000000000000000000000000000000000000000008152600401611dc6906157f8565b60405180910390fd5b60008060019054906101000a900460ff161590508015611e1f576001600060016101000a81548160ff02191690831515021790555060016000806101000a81548160ff0219169083151502179055505b81603360006101000a81548173ffffffffffffffffffffffffffffffffffffffff021916908373ffffffffffffffffffffffffffffffffffffffff160217905550603360009054906101000a900473ffffffffffffffffffffffffffffffffffffffff1673ffffffffffffffffffffffffffffffffffffffff16600073ffffffffffffffffffffffffffffffffffffffff167fc7c0c772add429241571afb3805861fb3cfa2af374534088b76cdb4325a87e9a60405160405180910390a38015611efe5760008060016101000a81548160ff0219169083151502179055505b5050565b603e818051602081018201805184825260208301602085012081835280955050505050506000915090505481565b603360009054906101000a900473ffffffffffffffffffffffffffffffffffffffff1673ffffffffffffffffffffffffffffffffffffffff163373ffffffffffffffffffffffffffffffffffffffff1614611f8a57600080fd5b603760009054906101000a900460ff1615603760006101000a81548160ff021916908315150217905550565b60008086868685604051602001611fd0949392919061530c565b6040516020818303038152906040528051906020012090506000806000611ff687611c8d565b9250925092506001848285856040516000815260200160405260405161201f9493929190615519565b6020604051602081039080840390855afa158015612041573d6000803e3d6000fd5b505050602060405103519450505050509695505050505050565b6000603360009054906101000a900473ffffffffffffffffffffffffffffffffffffffff1673ffffffffffffffffffffffffffffffffffffffff163373ffffffffffffffffffffffffffffffffffffffff16146120b757600080fd5b6000603d6000603e866040516120cd9190615356565b90815260200160405180910390205481526020019081526020016000206040518060c001604052908160008201805461210590615cc2565b80601f016020809104026020016040519081016040528092919081815260200182805461213190615cc2565b801561217e5780601f106121535761010080835404028352916020019161217e565b820191906000526020600020905b81548152906001019060200180831161216157829003601f168201915b50505050508152602001600182015481526020016002820154815260200160038201548152602001600482015481526020016005820160009054906101000a900473ffffffffffffffffffffffffffffffffffffffff1673ffffffffffffffffffffffffffffffffffffffff1673ffffffffffffffffffffffffffffffffffffffff16815250509050806060015191505092915050565b6040602052816000526040600020602052806000526040600020600091509150505481565b6000603560008473ffffffffffffffffffffffffffffffffffffffff1673ffffffffffffffffffffffffffffffffffffffff16815260200190815260200160002060008373ffffffffffffffffffffffffffffffffffffffff1673ffffffffffffffffffffffffffffffffffffffff16815260200190815260200160002060009054906101000a900460ff16905092915050565b6000826000603d6000603e846040516122e79190615356565b90815260200160405180910390205481526020019081526020016000206040518060c001604052908160008201805461231f90615cc2565b80601f016020809104026020016040519081016040528092919081815260200182805461234b90615cc2565b80156123985780601f1061236d57610100808354040283529160200191612398565b820191906000526020600020905b81548152906001019060200180831161237b57829003601f168201915b50505050508152602001600182015481526020016002820154815260200160038201548152602001600482015481526020016005820160009054906101000a900473ffffffffffffffffffffffffffffffffffffffff1673ffffffffffffffffffffffffffffffffffffffff1673ffffffffffffffffffffffffffffffffffffffff168152505090508060a0015173ffffffffffffffffffffffffffffffffffffffff163373ffffffffffffffffffffffffffffffffffffffff1614612493576040517f08c379a000000000000000000000000000000000000000000000000000000000815260040161248a906157d8565b60405180910390fd5b61249d8585612ab3565b603e856040516124ad9190615356565b9081526020016040518091039020549250505092915050565b6000603360009054906101000a900473ffffffffffffffffffffffffffffffffffffffff1673ffffffffffffffffffffffffffffffffffffffff163373ffffffffffffffffffffffffffffffffffffffff161461252257600080fd5b6000603d6000603e866040516125389190615356565b90815260200160405180910390205481526020019081526020016000206040518060c001604052908160008201805461257090615cc2565b80601f016020809104026020016040519081016040528092919081815260200182805461259c90615cc2565b80156125e95780601f106125be576101008083540402835291602001916125e9565b820191906000526020600020905b8154815290600101906020018083116125cc57829003601f168201915b50505050508152602001600182015481526020016002820154815260200160038201548152602001600482015481526020016005820160009054906101000a900473ffffffffffffffffffffffffffffffffffffffff1673ffffffffffffffffffffffffffffffffffffffff1673ffffffffffffffffffffffffffffffffffffffff16815250509050806040015191505092915050565b612688612f18565b73ffffffffffffffffffffffffffffffffffffffff168573ffffffffffffffffffffffffffffffffffffffff1614806126ce57506126cd856126c8612f18565b61223a565b5b61270d576040517f08c379a0000000000000000000000000000000000000000000000000000000008152600401612704906156f8565b60405180910390fd5b61271a8585858585613394565b5050505050565b6000603360009054906101000a900473ffffffffffffffffffffffffffffffffffffffff1673ffffffffffffffffffffffffffffffffffffffff163373ffffffffffffffffffffffffffffffffffffffff161461277d57600080fd5b6000603d6000603e866040516127939190615356565b90815260200160405180910390205481526020019081526020016000209050828160050160006101000a81548173ffffffffffffffffffffffffffffffffffffffff021916908373ffffffffffffffffffffffffffffffffffffffff1602179055505092915050565b60606000821415612844576040518060400160405280600481526020017f3078303000000000000000000000000000000000000000000000000000000000815250905061287d565b600082905060005b6000821461286e57808061285f90615cf4565b915050600882901c915061284c565b6128788482613619565b925050505b919050565b60007f01ffc9a7000000000000000000000000000000000000000000000000000000007bffffffffffffffffffffffffffffffffffffffffffffffffffffffff1916827bffffffffffffffffffffffffffffffffffffffffffffffffffffffff1916149050919050565b8060369080519060200190612902929190613f2b565b5050565b6060600082141561294e576040518060400160405280600181526020017f30000000000000000000000000000000000000000000000000000000000000008152509050612aae565b600082905060005b6000821461298057808061296990615cf4565b915050600a826129799190615b0c565b9150612956565b60008167ffffffffffffffff8111156129c2577f4e487b7100000000000000000000000000000000000000000000000000000000600052604160045260246000fd5b6040519080825280601f01601f1916602001820160405280156129f45781602001600182028036833780820191505090505b5090505b60008514612aa757600182612a0d9190615b97565b9150600a85612a1c9190615d6b565b6030612a289190615ab6565b60f81b818381518110612a64577f4e487b7100000000000000000000000000000000000000000000000000000000600052603260045260246000fd5b60200101907effffffffffffffffffffffffffffffffffffffffffffffffffffffffffffff1916908160001a905350600a85612aa09190615b0c565b94506129f8565b8093505050505b919050565b603760009054906101000a900460ff16612b02576040517f08c379a0000000000000000000000000000000000000000000000000000000008152600401612af990615718565b60405180910390fd5b6000603e83604051612b149190615356565b90815260200160405180910390205490506000603d60008381526020019081526020016000206040518060c0016040529081600082018054612b5590615cc2565b80601f0160208091040260200160405190810160405280929190818152602001828054612b8190615cc2565b8015612bce5780601f10612ba357610100808354040283529160200191612bce565b820191906000526020600020905b815481529060010190602001808311612bb157829003601f168201915b50505050508152602001600182015481526020016002820154815260200160038201548152602001600482015481526020016005820160009054906101000a900473ffffffffffffffffffffffffffffffffffffffff1673ffffffffffffffffffffffffffffffffffffffff1673ffffffffffffffffffffffffffffffffffffffff1681525050905060008211612c9a576040517f08c379a0000000000000000000000000000000000000000000000000000000008152600401612c9190615818565b60405180910390fd5b8060400151421015612ce1576040517f08c379a0000000000000000000000000000000000000000000000000000000008152600401612cd8906158d8565b60405180910390fd5b8060600151421115612d28576040517f08c379a0000000000000000000000000000000000000000000000000000000008152600401612d1f90615678565b60405180910390fd5b8060200151603f60008481526020019081526020016000205410612d81576040517f08c379a0000000000000000000000000000000000000000000000000000000008152600401612d78906156b8565b60405180910390fd5b80608001516040600084815260200190815260200160002060008573ffffffffffffffffffffffffffffffffffffffff1673ffffffffffffffffffffffffffffffffffffffff1681526020019081526020016000205410612e17576040517f08c379a0000000000000000000000000000000000000000000000000000000008152600401612e0e906157b8565b60405180910390fd5b612e338383600160405180602001604052806000815250613913565b603f60008381526020019081526020016000206000815480929190612e5790615cf4565b91905055506040600083815260200190815260200160002060008473ffffffffffffffffffffffffffffffffffffffff1673ffffffffffffffffffffffffffffffffffffffff1681526020019081526020016000206000815480929190612ebd90615cf4565b91905055508273ffffffffffffffffffffffffffffffffffffffff167fec4de1eef14af3ae5d77facf1ed7a9d3d50f6285573ee0ec155fc11217fc34428584604051612f0a929190615580565b60405180910390a250505050565b600033905090565b8151835114612f64576040517f08c379a0000000000000000000000000000000000000000000000000000000008152600401612f5b90615898565b60405180910390fd5b600073ffffffffffffffffffffffffffffffffffffffff168473ffffffffffffffffffffffffffffffffffffffff161415612fd4576040517f08c379a0000000000000000000000000000000000000000000000000000000008152600401612fcb90615758565b60405180910390fd5b6000612fde612f18565b9050612fee818787878787613aaa565b60005b84518110156131ee576000858281518110613035577f4e487b7100000000000000000000000000000000000000000000000000000000600052603260045260246000fd5b60200260200101519050600085838151811061307a577f4e487b7100000000000000000000000000000000000000000000000000000000600052603260045260246000fd5b6020026020010151905060006034600084815260200190815260200160002060008b73ffffffffffffffffffffffffffffffffffffffff1673ffffffffffffffffffffffffffffffffffffffff1681526020019081526020016000205490508181101561311c576040517f08c379a000000000000000000000000000000000000000000000000000000000815260040161311390615798565b60405180910390fd5b8181036034600085815260200190815260200160002060008c73ffffffffffffffffffffffffffffffffffffffff1673ffffffffffffffffffffffffffffffffffffffff16815260200190815260200160002081905550816034600085815260200190815260200160002060008b73ffffffffffffffffffffffffffffffffffffffff1673ffffffffffffffffffffffffffffffffffffffff16815260200190815260200160002060008282546131d39190615ab6565b92505081905550505050806131e790615cf4565b9050612ff1565b508473ffffffffffffffffffffffffffffffffffffffff168673ffffffffffffffffffffffffffffffffffffffff168273ffffffffffffffffffffffffffffffffffffffff167f4a39dc06d4c0dbc64b70af90fd698a233a518aa5d07e595d983b8c0526c8f7fb8787604051613265929190615490565b60405180910390a461327b818787878787613ab2565b505050505050565b600073ffffffffffffffffffffffffffffffffffffffff168173ffffffffffffffffffffffffffffffffffffffff1614156132bd57600080fd5b8073ffffffffffffffffffffffffffffffffffffffff16603360009054906101000a900473ffffffffffffffffffffffffffffffffffffffff1673ffffffffffffffffffffffffffffffffffffffff167fc7c0c772add429241571afb3805861fb3cfa2af374534088b76cdb4325a87e9a60405160405180910390a380603360006101000a81548173ffffffffffffffffffffffffffffffffffffffff021916908373ffffffffffffffffffffffffffffffffffffffff16021790555050565b6000803090506000813b9050600081149250505090565b600073ffffffffffffffffffffffffffffffffffffffff168473ffffffffffffffffffffffffffffffffffffffff161415613404576040517f08c379a00000000000000000000000000000000000000000000000000000000081526004016133fb90615758565b60405180910390fd5b600061340e612f18565b905061342e81878761341f88613c82565b61342888613c82565b87613aaa565b60006034600086815260200190815260200160002060008873ffffffffffffffffffffffffffffffffffffffff1673ffffffffffffffffffffffffffffffffffffffff168152602001908152602001600020549050838110156134c6576040517f08c379a00000000000000000000000000000000000000000000000000000000081526004016134bd90615798565b60405180910390fd5b8381036034600087815260200190815260200160002060008973ffffffffffffffffffffffffffffffffffffffff1673ffffffffffffffffffffffffffffffffffffffff16815260200190815260200160002081905550836034600087815260200190815260200160002060008873ffffffffffffffffffffffffffffffffffffffff1673ffffffffffffffffffffffffffffffffffffffff168152602001908152602001600020600082825461357d9190615ab6565b925050819055508573ffffffffffffffffffffffffffffffffffffffff168773ffffffffffffffffffffffffffffffffffffffff168373ffffffffffffffffffffffffffffffffffffffff167fc3d58168c5ae7397731d063d5bbf3d657854427343f4c083240f7aacaa2d0f6288886040516135fa929190615913565b60405180910390a4613610828888888888613d48565b50505050505050565b60606000600283600261362c9190615b3d565b6136369190615ab6565b67ffffffffffffffff811115613675577f4e487b7100000000000000000000000000000000000000000000000000000000600052604160045260246000fd5b6040519080825280601f01601f1916602001820160405280156136a75781602001600182028036833780820191505090505b5090507f300000000000000000000000000000000000000000000000000000000000000081600081518110613705577f4e487b7100000000000000000000000000000000000000000000000000000000600052603260045260246000fd5b60200101907effffffffffffffffffffffffffffffffffffffffffffffffffffffffffffff1916908160001a9053507f78000000000000000000000000000000000000000000000000000000000000008160018151811061378f577f4e487b7100000000000000000000000000000000000000000000000000000000600052603260045260246000fd5b60200101907effffffffffffffffffffffffffffffffffffffffffffffffffffffffffffff1916908160001a905350600060018460026137cf9190615b3d565b6137d99190615ab6565b90505b60018111156138c5577f3031323334353637383961626364656600000000000000000000000000000000600f861660108110613841577f4e487b7100000000000000000000000000000000000000000000000000000000600052603260045260246000fd5b1a60f81b82828151811061387e577f4e487b7100000000000000000000000000000000000000000000000000000000600052603260045260246000fd5b60200101907effffffffffffffffffffffffffffffffffffffffffffffffffffffffffffff1916908160001a905350600485901c9450806138be90615c98565b90506137dc565b5060008414613909576040517f08c379a000000000000000000000000000000000000000000000000000000000815260040161390090615638565b60405180910390fd5b8091505092915050565b600073ffffffffffffffffffffffffffffffffffffffff168473ffffffffffffffffffffffffffffffffffffffff161415613983576040517f08c379a000000000000000000000000000000000000000000000000000000000815260040161397a906158b8565b60405180910390fd5b600061398d612f18565b90506139ae8160008761399f88613c82565b6139a888613c82565b87613aaa565b826034600086815260200190815260200160002060008773ffffffffffffffffffffffffffffffffffffffff1673ffffffffffffffffffffffffffffffffffffffff1681526020019081526020016000206000828254613a0e9190615ab6565b925050819055508473ffffffffffffffffffffffffffffffffffffffff16600073ffffffffffffffffffffffffffffffffffffffff168273ffffffffffffffffffffffffffffffffffffffff167fc3d58168c5ae7397731d063d5bbf3d657854427343f4c083240f7aacaa2d0f628787604051613a8c929190615913565b60405180910390a4613aa381600087878787613d48565b5050505050565b505050505050565b613ad18473ffffffffffffffffffffffffffffffffffffffff16613f18565b15613c7a578373ffffffffffffffffffffffffffffffffffffffff1663bc197c8187878686866040518663ffffffff1660e01b8152600401613b179594939291906153ac565b602060405180830381600087803b158015613b3157600080fd5b505af1925050508015613b6257506040513d601f19601f82011682018060405250810190613b5f9190614653565b60015b613bf157613b6e615e83565b80613b795750613bb6565b806040517f08c379a0000000000000000000000000000000000000000000000000000000008152600401613bad919061555e565b60405180910390fd5b6040517f08c379a0000000000000000000000000000000000000000000000000000000008152600401613be890615618565b60405180910390fd5b63bc197c8160e01b7bffffffffffffffffffffffffffffffffffffffffffffffffffffffff1916817bffffffffffffffffffffffffffffffffffffffffffffffffffffffff191614613c78576040517f08c379a0000000000000000000000000000000000000000000000000000000008152600401613c6f90615658565b60405180910390fd5b505b505050505050565b60606000600167ffffffffffffffff811115613cc7577f4e487b7100000000000000000000000000000000000000000000000000000000600052604160045260246000fd5b604051908082528060200260200182016040528015613cf55781602001602082028036833780820191505090505b5090508281600081518110613d33577f4e487b7100000000000000000000000000000000000000000000000000000000600052603260045260246000fd5b60200260200101818152505080915050919050565b613d678473ffffffffffffffffffffffffffffffffffffffff16613f18565b15613f10578373ffffffffffffffffffffffffffffffffffffffff1663f23a6e6187878686866040518663ffffffff1660e01b8152600401613dad959493929190615414565b602060405180830381600087803b158015613dc757600080fd5b505af1925050508015613df857506040513d601f19601f82011682018060405250810190613df59190614653565b60015b613e8757613e04615e83565b80613e0f5750613e4c565b806040517f08c379a0000000000000000000000000000000000000000000000000000000008152600401613e43919061555e565b60405180910390fd5b6040517f08c379a0000000000000000000000000000000000000000000000000000000008152600401613e7e90615618565b60405180910390fd5b63f23a6e6160e01b7bffffffffffffffffffffffffffffffffffffffffffffffffffffffff1916817bffffffffffffffffffffffffffffffffffffffffffffffffffffffff191614613f0e576040517f08c379a0000000000000000000000000000000000000000000000000000000008152600401613f0590615658565b60405180910390fd5b505b505050505050565b600080823b905060008111915050919050565b828054613f3790615cc2565b90600052602060002090601f016020900481019282613f595760008555613fa0565b82601f10613f7257805160ff1916838001178555613fa0565b82800160010185558215613fa0579182015b82811115613f9f578251825591602001919060010190613f84565b5b509050613fad9190613fb1565b5090565b5b80821115613fca576000816000905550600101613fb2565b5090565b6000613fe1613fdc8461596d565b61593c565b9050808382526020820190508285602086028201111561400057600080fd5b60005b8581101561403057816140168882614122565b845260208401935060208301925050600181019050614003565b5050509392505050565b600061404d61404884615999565b61593c565b9050808382526020820190508285602086028201111561406c57600080fd5b60005b8581101561409c5781614082888261421e565b84526020840193506020830192505060018101905061406f565b5050509392505050565b60006140b96140b4846159c5565b61593c565b9050828152602081018484840111156140d157600080fd5b6140dc848285615c56565b509392505050565b60006140f76140f2846159f5565b61593c565b90508281526020810184848401111561410f57600080fd5b61411a848285615c56565b509392505050565b60008135905061413181615f39565b92915050565b600082601f83011261414857600080fd5b8135614158848260208601613fce565b91505092915050565b600082601f83011261417257600080fd5b813561418284826020860161403a565b91505092915050565b60008135905061419a81615f50565b92915050565b6000813590506141af81615f67565b92915050565b6000815190506141c481615f67565b92915050565b600082601f8301126141db57600080fd5b81356141eb8482602086016140a6565b91505092915050565b600082601f83011261420557600080fd5b81356142158482602086016140e4565b91505092915050565b60008135905061422d81615f7e565b92915050565b60006020828403121561424557600080fd5b600061425384828501614122565b91505092915050565b6000806040838503121561426f57600080fd5b600061427d85828601614122565b925050602061428e85828601614122565b9150509250929050565b600080600080600060a086880312156142b057600080fd5b60006142be88828901614122565b95505060206142cf88828901614122565b945050604086013567ffffffffffffffff8111156142ec57600080fd5b6142f888828901614161565b935050606086013567ffffffffffffffff81111561431557600080fd5b61432188828901614161565b925050608086013567ffffffffffffffff81111561433e57600080fd5b61434a888289016141ca565b9150509295509295909350565b600080600080600060a0868803121561436f57600080fd5b600061437d88828901614122565b955050602061438e88828901614122565b945050604086013567ffffffffffffffff8111156143ab57600080fd5b6143b7888289016141f4565b93505060606143c88882890161421e565b925050608086013567ffffffffffffffff8111156143e557600080fd5b6143f1888289016141ca565b9150509295509295909350565b60008060008060008060c0878903121561441757600080fd5b600061442589828a01614122565b965050602061443689828a01614122565b955050604087013567ffffffffffffffff81111561445357600080fd5b61445f89828a016141f4565b945050606061447089828a0161421e565b935050608087013567ffffffffffffffff81111561448d57600080fd5b61449989828a016141ca565b92505060a06144aa89828a0161421e565b9150509295509295509295565b600080600080600060a086880312156144cf57600080fd5b60006144dd88828901614122565b95505060206144ee88828901614122565b94505060406144ff8882890161421e565b93505060606145108882890161421e565b925050608086013567ffffffffffffffff81111561452d57600080fd5b614539888289016141ca565b9150509295509295909350565b6000806040838503121561455957600080fd5b600061456785828601614122565b92505060206145788582860161418b565b9150509250929050565b6000806040838503121561459557600080fd5b60006145a385828601614122565b92505060206145b48582860161421e565b9150509250929050565b600080604083850312156145d157600080fd5b600083013567ffffffffffffffff8111156145eb57600080fd5b6145f785828601614137565b925050602083013567ffffffffffffffff81111561461457600080fd5b61462085828601614161565b9150509250929050565b60006020828403121561463c57600080fd5b600061464a848285016141a0565b91505092915050565b60006020828403121561466557600080fd5b6000614673848285016141b5565b91505092915050565b60006020828403121561468e57600080fd5b600082013567ffffffffffffffff8111156146a857600080fd5b6146b4848285016141ca565b91505092915050565b6000602082840312156146cf57600080fd5b600082013567ffffffffffffffff8111156146e957600080fd5b6146f5848285016141f4565b91505092915050565b6000806040838503121561471157600080fd5b600083013567ffffffffffffffff81111561472b57600080fd5b614737858286016141f4565b925050602061474885828601614122565b9150509250929050565b6000806040838503121561476557600080fd5b600083013567ffffffffffffffff81111561477f57600080fd5b61478b858286016141f4565b925050602061479c8582860161421e565b9150509250929050565b6000806000606084860312156147bb57600080fd5b600084013567ffffffffffffffff8111156147d557600080fd5b6147e1868287016141f4565b93505060206147f28682870161421e565b925050604084013567ffffffffffffffff81111561480f57600080fd5b61481b868287016141ca565b9150509250925092565b60008060008060008060c0878903121561483e57600080fd5b600087013567ffffffffffffffff81111561485857600080fd5b61486489828a016141f4565b965050602061487589828a0161421e565b955050604061488689828a0161421e565b945050606061489789828a0161421e565b93505060806148a889828a0161421e565b92505060a06148b989828a01614122565b9150509295509295509295565b6000602082840312156148d857600080fd5b60006148e68482850161421e565b91505092915050565b6000806040838503121561490257600080fd5b60006149108582860161421e565b925050602061492185828601614122565b9150509250929050565b6000614937838361528f565b60208301905092915050565b61494c81615bcb565b82525050565b61496361495e82615bcb565b615d3d565b82525050565b600061497482615a4a565b61497e8185615a78565b935061498983615a25565b8060005b838110156149ba5781516149a1888261492b565b97506149ac83615a6b565b92505060018101905061498d565b5085935050505092915050565b6149d081615bdd565b82525050565b6149df81615be9565b82525050565b60006149f082615a55565b6149fa8185615a89565b9350614a0a818560208601615c65565b614a1381615e58565b840191505092915050565b6000614a2982615a60565b614a338185615a9a565b9350614a43818560208601615c65565b614a4c81615e58565b840191505092915050565b6000614a6282615a60565b614a6c8185615aab565b9350614a7c818560208601615c65565b80840191505092915050565b60008154614a9581615cc2565b614a9f8186615aab565b94506001821660008114614aba5760018114614acb57614afe565b60ff19831686528186019350614afe565b614ad485615a35565b60005b83811015614af657815481890152600182019150602081019050614ad7565b838801955050505b50505092915050565b6000614b14603483615a9a565b91507f455243313135353a207472616e7366657220746f206e6f6e204552433131353560008301527f526563656976657220696d706c656d656e7465720000000000000000000000006020830152604082019050919050565b6000614b7a602083615a9a565b91507f537472696e67733a20686578206c656e67746820696e73756666696369656e746000830152602082019050919050565b6000614bba602883615a9a565b91507f455243313135353a204552433131353552656365697665722072656a6563746560008301527f6420746f6b656e730000000000000000000000000000000000000000000000006020830152604082019050919050565b6000614c20601583615a9a565b91507f6d696e7420697320616c726561647920656e64656400000000000000000000006000830152602082019050919050565b6000614c60601183615a9a565b91507f696e76616c6964207369676e61747572650000000000000000000000000000006000830152602082019050919050565b6000614ca0601483615a9a565b91507f6d696e74206d61782063617020726561636865640000000000000000000000006000830152602082019050919050565b6000614ce0602b83615a9a565b91507f455243313135353a2062616c616e636520717565727920666f7220746865207a60008301527f65726f20616464726573730000000000000000000000000000000000000000006020830152604082019050919050565b6000614d46602983615a9a565b91507f455243313135353a2063616c6c6572206973206e6f74206f776e6572206e6f7260008301527f20617070726f76656400000000000000000000000000000000000000000000006020830152604082019050919050565b6000614dac601283615a9a565b91507f53616c65206973206e6f742061637469766500000000000000000000000000006000830152602082019050919050565b6000614dec601783615a9a565b91507f5479706520697320616c726561647920637265617465640000000000000000006000830152602082019050919050565b6000614e2c602583615a9a565b91507f455243313135353a207472616e7366657220746f20746865207a65726f20616460008301527f64726573730000000000000000000000000000000000000000000000000000006020830152604082019050919050565b6000614e92603283615a9a565b91507f455243313135353a207472616e736665722063616c6c6572206973206e6f742060008301527f6f776e6572206e6f7220617070726f76656400000000000000000000000000006020830152604082019050919050565b6000614ef8602a83615a9a565b91507f455243313135353a20696e73756666696369656e742062616c616e636520666f60008301527f72207472616e73666572000000000000000000000000000000000000000000006020830152604082019050919050565b6000614f5e601b83615a9a565b91507f6d696e74207065722075736572206c696d6974207265616368656400000000006000830152602082019050919050565b6000614f9e600b83615a9a565b91507f6f6e6c79206d696e7465720000000000000000000000000000000000000000006000830152602082019050919050565b6000614fde602e83615a9a565b91507f436f6e747261637420696e7374616e63652068617320616c726561647920626560008301527f656e20696e697469616c697a65640000000000000000000000000000000000006020830152604082019050919050565b6000615044601283615a9a565b91507f696e76616c6964206261646765207479706500000000000000000000000000006000830152602082019050919050565b6000615084602983615a9a565b91507f455243313135353a2073657474696e6720617070726f76616c2073746174757360008301527f20666f722073656c6600000000000000000000000000000000000000000000006020830152604082019050919050565b60006150ea601883615a9a565b91507f696e76616c6964207369676e6174757265206c656e67746800000000000000006000830152602082019050919050565b600061512a602983615a9a565b91507f455243313135353a206163636f756e747320616e6420696473206c656e67746860008301527f206d69736d6174636800000000000000000000000000000000000000000000006020830152604082019050919050565b6000615190602883615a9a565b91507f455243313135353a2069647320616e6420616d6f756e7473206c656e6774682060008301527f6d69736d617463680000000000000000000000000000000000000000000000006020830152604082019050919050565b60006151f6602183615a9a565b91507f455243313135353a206d696e7420746f20746865207a65726f2061646472657360008301527f73000000000000000000000000000000000000000000000000000000000000006020830152604082019050919050565b600061525c601183615a9a565b91507f6d696e7420646f657327742073746172740000000000000000000000000000006000830152602082019050919050565b61529881615c3f565b82525050565b6152a781615c3f565b82525050565b6152be6152b982615c3f565b615d61565b82525050565b6152cd81615c49565b82525050565b60006152df8286614952565b6014820191506152ef8285614a57565b91506152fb82846152ad565b602082019150819050949350505050565b60006153188287614952565b6014820191506153288286614a57565b915061533482856152ad565b60208201915061534482846152ad565b60208201915081905095945050505050565b60006153628284614a57565b915081905092915050565b60006153798285614a88565b91506153858284614a57565b91508190509392505050565b60006020820190506153a66000830184614943565b92915050565b600060a0820190506153c16000830188614943565b6153ce6020830187614943565b81810360408301526153e08186614969565b905081810360608301526153f48185614969565b9050818103608083015261540881846149e5565b90509695505050505050565b600060a0820190506154296000830188614943565b6154366020830187614943565b615443604083018661529e565b615450606083018561529e565b818103608083015261546281846149e5565b90509695505050505050565b600060208201905081810360008301526154888184614969565b905092915050565b600060408201905081810360008301526154aa8185614969565b905081810360208301526154be8184614969565b90509392505050565b60006020820190506154dc60008301846149c7565b92915050565b60006060820190506154f760008301866149d6565b61550460208301856149d6565b61551160408301846152c4565b949350505050565b600060808201905061552e60008301876149d6565b61553b60208301866152c4565b61554860408301856149d6565b61555560608301846149d6565b95945050505050565b600060208201905081810360008301526155788184614a1e565b905092915050565b6000604082019050818103600083015261559a8185614a1e565b90506155a9602083018461529e565b9392505050565b600060c08201905081810360008301526155ca8189614a1e565b90506155d9602083018861529e565b6155e6604083018761529e565b6155f3606083018661529e565b615600608083018561529e565b61560d60a0830184614943565b979650505050505050565b6000602082019050818103600083015261563181614b07565b9050919050565b6000602082019050818103600083015261565181614b6d565b9050919050565b6000602082019050818103600083015261567181614bad565b9050919050565b6000602082019050818103600083015261569181614c13565b9050919050565b600060208201905081810360008301526156b181614c53565b9050919050565b600060208201905081810360008301526156d181614c93565b9050919050565b600060208201905081810360008301526156f181614cd3565b9050919050565b6000602082019050818103600083015261571181614d39565b9050919050565b6000602082019050818103600083015261573181614d9f565b9050919050565b6000602082019050818103600083015261575181614ddf565b9050919050565b6000602082019050818103600083015261577181614e1f565b9050919050565b6000602082019050818103600083015261579181614e85565b9050919050565b600060208201905081810360008301526157b181614eeb565b9050919050565b600060208201905081810360008301526157d181614f51565b9050919050565b600060208201905081810360008301526157f181614f91565b9050919050565b6000602082019050818103600083015261581181614fd1565b9050919050565b6000602082019050818103600083015261583181615037565b9050919050565b6000602082019050818103600083015261585181615077565b9050919050565b60006020820190508181036000830152615871816150dd565b9050919050565b600060208201905081810360008301526158918161511d565b9050919050565b600060208201905081810360008301526158b181615183565b9050919050565b600060208201905081810360008301526158d1816151e9565b9050919050565b600060208201905081810360008301526158f18161524f565b9050919050565b600060208201905061590d600083018461529e565b92915050565b6000604082019050615928600083018561529e565b615935602083018461529e565b9392505050565b6000604051905081810181811067ffffffffffffffff8211171561596357615962615e29565b5b8060405250919050565b600067ffffffffffffffff82111561598857615987615e29565b5b602082029050602081019050919050565b600067ffffffffffffffff8211156159b4576159b3615e29565b5b602082029050602081019050919050565b600067ffffffffffffffff8211156159e0576159df615e29565b5b601f19601f8301169050602081019050919050565b600067ffffffffffffffff821115615a1057615a0f615e29565b5b601f19601f8301169050602081019050919050565b6000819050602082019050919050565b60008190508160005260206000209050919050565b600081519050919050565b600081519050919050565b600081519050919050565b6000602082019050919050565b600082825260208201905092915050565b600082825260208201905092915050565b600082825260208201905092915050565b600081905092915050565b6000615ac182615c3f565b9150615acc83615c3f565b9250827fffffffffffffffffffffffffffffffffffffffffffffffffffffffffffffffff03821115615b0157615b00615d9c565b5b828201905092915050565b6000615b1782615c3f565b9150615b2283615c3f565b925082615b3257615b31615dcb565b5b828204905092915050565b6000615b4882615c3f565b9150615b5383615c3f565b9250817fffffffffffffffffffffffffffffffffffffffffffffffffffffffffffffffff0483118215151615615b8c57615b8b615d9c565b5b828202905092915050565b6000615ba282615c3f565b9150615bad83615c3f565b925082821015615bc057615bbf615d9c565b5b828203905092915050565b6000615bd682615c1f565b9050919050565b60008115159050919050565b6000819050919050565b60007fffffffff0000000000000000000000000000000000000000000000000000000082169050919050565b600073ffffffffffffffffffffffffffffffffffffffff82169050919050565b6000819050919050565b600060ff82169050919050565b82818337600083830152505050565b60005b83811015615c83578082015181840152602081019050615c68565b83811115615c92576000848401525b50505050565b6000615ca382615c3f565b91506000821415615cb757615cb6615d9c565b5b600182039050919050565b60006002820490506001821680615cda57607f821691505b60208210811415615cee57615ced615dfa565b5b50919050565b6000615cff82615c3f565b91507fffffffffffffffffffffffffffffffffffffffffffffffffffffffffffffffff821415615d3257615d31615d9c565b5b600182019050919050565b6000615d4882615d4f565b9050919050565b6000615d5a82615e69565b9050919050565b6000819050919050565b6000615d7682615c3f565b9150615d8183615c3f565b925082615d9157615d90615dcb565b5b828206905092915050565b7f4e487b7100000000000000000000000000000000000000000000000000000000600052601160045260246000fd5b7f4e487b7100000000000000000000000000000000000000000000000000000000600052601260045260246000fd5b7f4e487b7100000000000000000000000000000000000000000000000000000000600052602260045260246000fd5b7f4e487b7100000000000000000000000000000000000000000000000000000000600052604160045260246000fd5b6000601f19601f8301169050919050565b60008160601b9050919050565b60008160e01c9050919050565b600060443d1015615e9357615f36565b60046000803e615ea4600051615e76565b6308c379a08114615eb55750615f36565b60405160043d036004823e80513d602482011167ffffffffffffffff82111715615ee157505050615f36565b808201805167ffffffffffffffff811115615f00575050505050615f36565b8060208301013d8501811115615f1b57505050505050615f36565b615f2482615e58565b60208401016040528296505050505050505b90565b615f4281615bcb565b8114615f4d57600080fd5b50565b615f5981615bdd565b8114615f6457600080fd5b50565b615f7081615bf3565b8114615f7b57600080fd5b50565b615f8781615c3f565b8114615f9257600080fd5b5056fea26469706673582212204c362a84ccda77e57a6b2d1eddefa6dae1ccd6791222e165d9c6a0c32599c12e64736f6c63430008000033",
  "linkReferences": {},
  "deployedLinkReferences": {}
}