{
  "_format": "hh-sol-artifact-1",
  "contractName": "DeFineAmpl",
  "sourceName": "contracts/DeFineAmpl.sol",
  "abi": [
    {
      "inputs": [
        {
          "internalType": "string",
          "name": "_name",
          "type": "string"
        },
        {
          "internalType": "string",
          "name": "_symbol",
          "type": "string"
        },
        {
          "internalType": "string",
          "name": "_baseURI",
          "type": "string"
        },
        {
          "internalType": "address",
          "name": "_signer",
          "type": "address"
        }
      ],
      "stateMutability": "nonpayable",
      "type": "constructor"
    },
    {
      "anonymous": false,
      "inputs": [
        {
          "indexed": true,
          "internalType": "address",
          "name": "account",
          "type": "address"
        },
        {
          "indexed": true,
          "internalType": "address",
          "name": "operator",
          "type": "address"
        },
        {
          "indexed": false,
          "internalType": "bool",
          "name": "approved",
          "type": "bool"
        }
      ],
      "name": "ApprovalForAll",
      "type": "event"
    },
    {
      "anonymous": false,
      "inputs": [
        {
          "indexed": true,
          "internalType": "address",
          "name": "previousGovernor",
          "type": "address"
        },
        {
          "indexed": true,
          "internalType": "address",
          "name": "newGovernor",
          "type": "address"
        }
      ],
      "name": "GovernorshipTransferred",
      "type": "event"
    },
    {
      "anonymous": false,
      "inputs": [
        {
          "indexed": true,
          "internalType": "address",
          "name": "owner",
          "type": "address"
        },
        {
          "indexed": false,
          "internalType": "uint256",
          "name": "threshold",
          "type": "uint256"
        },
        {
          "indexed": false,
          "internalType": "bool",
          "name": "isPositive",
          "type": "bool"
        }
      ],
      "name": "Mint",
      "type": "event"
    },
    {
      "anonymous": false,
      "inputs": [
        {
          "indexed": true,
          "internalType": "address",
          "name": "operator",
          "type": "address"
        },
        {
          "indexed": true,
          "internalType": "address",
          "name": "from",
          "type": "address"
        },
        {
          "indexed": true,
          "internalType": "address",
          "name": "to",
          "type": "address"
        },
        {
          "indexed": false,
          "internalType": "uint256[]",
          "name": "ids",
          "type": "uint256[]"
        },
        {
          "indexed": false,
          "internalType": "uint256[]",
          "name": "values",
          "type": "uint256[]"
        }
      ],
      "name": "TransferBatch",
      "type": "event"
    },
    {
      "anonymous": false,
      "inputs": [
        {
          "indexed": true,
          "internalType": "address",
          "name": "operator",
          "type": "address"
        },
        {
          "indexed": true,
          "internalType": "address",
          "name": "from",
          "type": "address"
        },
        {
          "indexed": true,
          "internalType": "address",
          "name": "to",
          "type": "address"
        },
        {
          "indexed": false,
          "internalType": "uint256",
          "name": "id",
          "type": "uint256"
        },
        {
          "indexed": false,
          "internalType": "uint256",
          "name": "value",
          "type": "uint256"
        }
      ],
      "name": "TransferSingle",
      "type": "event"
    },
    {
      "anonymous": false,
      "inputs": [
        {
          "indexed": false,
          "internalType": "string",
          "name": "value",
          "type": "string"
        },
        {
          "indexed": true,
          "internalType": "uint256",
          "name": "id",
          "type": "uint256"
        }
      ],
      "name": "URI",
      "type": "event"
    },
    {
      "inputs": [
        {
          "internalType": "uint256",
          "name": "",
          "type": "uint256"
        }
      ],
      "name": "BadgesInfo",
      "outputs": [
        {
          "internalType": "uint256",
          "name": "threshold",
          "type": "uint256"
        },
        {
          "internalType": "uint256",
          "name": "count",
          "type": "uint256"
        },
        {
          "internalType": "uint256",
          "name": "startAt",
          "type": "uint256"
        },
        {
          "internalType": "bool",
          "name": "isPositive",
          "type": "bool"
        }
      ],
      "stateMutability": "view",
      "type": "function"
    },
    {
      "inputs": [
        {
          "internalType": "uint256",
          "name": "_id",
          "type": "uint256"
        },
        {
          "internalType": "address",
          "name": "_to",
          "type": "address"
        },
        {
          "internalType": "uint256",
          "name": "_rebaseDays",
          "type": "uint256"
        },
        {
          "internalType": "bool",
          "name": "_isPositive",
          "type": "bool"
        },
        {
          "internalType": "uint256",
          "name": "_nonce",
          "type": "uint256"
        },
        {
          "internalType": "bytes",
          "name": "_signature",
          "type": "bytes"
        },
        {
          "internalType": "bytes",
          "name": "_data",
          "type": "bytes"
        }
      ],
      "name": "airdrop",
      "outputs": [],
      "stateMutability": "nonpayable",
      "type": "function"
    },
    {
      "inputs": [
        {
          "internalType": "address",
          "name": "account",
          "type": "address"
        },
        {
          "internalType": "uint256",
          "name": "id",
          "type": "uint256"
        }
      ],
      "name": "balanceOf",
      "outputs": [
        {
          "internalType": "uint256",
          "name": "",
          "type": "uint256"
        }
      ],
      "stateMutability": "view",
      "type": "function"
    },
    {
      "inputs": [
        {
          "internalType": "address[]",
          "name": "accounts",
          "type": "address[]"
        },
        {
          "internalType": "uint256[]",
          "name": "ids",
          "type": "uint256[]"
        }
      ],
      "name": "balanceOfBatch",
      "outputs": [
        {
          "internalType": "uint256[]",
          "name": "",
          "type": "uint256[]"
        }
      ],
      "stateMutability": "view",
      "type": "function"
    },
    {
      "inputs": [],
      "name": "baseURI",
      "outputs": [
        {
          "internalType": "string",
          "name": "",
          "type": "string"
        }
      ],
      "stateMutability": "view",
      "type": "function"
    },
    {
      "inputs": [],
      "name": "governor",
      "outputs": [
        {
          "internalType": "address",
          "name": "",
          "type": "address"
        }
      ],
      "stateMutability": "view",
      "type": "function"
    },
    {
      "inputs": [
        {
          "internalType": "address",
          "name": "governor_",
          "type": "address"
        }
      ],
      "name": "initialize",
      "outputs": [],
      "stateMutability": "nonpayable",
      "type": "function"
    },
    {
      "inputs": [
        {
          "internalType": "address",
          "name": "account",
          "type": "address"
        },
        {
          "internalType": "address",
          "name": "operator",
          "type": "address"
        }
      ],
      "name": "isApprovedForAll",
      "outputs": [
        {
          "internalType": "bool",
          "name": "",
          "type": "bool"
        }
      ],
      "stateMutability": "view",
      "type": "function"
    },
    {
      "inputs": [],
      "name": "miner",
      "outputs": [
        {
          "internalType": "address",
          "name": "",
          "type": "address"
        }
      ],
      "stateMutability": "view",
      "type": "function"
    },
    {
      "inputs": [
        {
          "internalType": "uint256",
          "name": "_id",
          "type": "uint256"
        },
        {
          "internalType": "uint256",
          "name": "_rebaseDays",
          "type": "uint256"
        },
        {
          "internalType": "bool",
          "name": "_isPositive",
          "type": "bool"
        },
        {
          "internalType": "uint256",
          "name": "_nonce",
          "type": "uint256"
        },
        {
          "internalType": "bytes",
          "name": "_signature",
          "type": "bytes"
        },
        {
          "internalType": "bytes",
          "name": "_data",
          "type": "bytes"
        }
      ],
      "name": "mint",
      "outputs": [],
      "stateMutability": "nonpayable",
      "type": "function"
    },
    {
      "inputs": [],
      "name": "name",
      "outputs": [
        {
          "internalType": "string",
          "name": "",
          "type": "string"
        }
      ],
      "stateMutability": "view",
      "type": "function"
    },
    {
      "inputs": [
        {
          "internalType": "address",
          "name": "",
          "type": "address"
        }
      ],
      "name": "negativeClaimed",
      "outputs": [
        {
          "internalType": "bool",
          "name": "",
          "type": "bool"
        }
      ],
      "stateMutability": "view",
      "type": "function"
    },
    {
      "inputs": [
        {
          "internalType": "uint256",
          "name": "_threshold",
          "type": "uint256"
        },
        {
          "internalType": "uint256",
          "name": "startAt",
          "type": "uint256"
        },
        {
          "internalType": "bool",
          "name": "_isPositive",
          "type": "bool"
        }
      ],
      "name": "newBadge",
      "outputs": [
        {
          "internalType": "bool",
          "name": "",
          "type": "bool"
        }
      ],
      "stateMutability": "nonpayable",
      "type": "function"
    },
    {
      "inputs": [
        {
          "internalType": "address",
          "name": "",
          "type": "address"
        }
      ],
      "name": "positiveClaimed",
      "outputs": [
        {
          "internalType": "bool",
          "name": "",
          "type": "bool"
        }
      ],
      "stateMutability": "view",
      "type": "function"
    },
    {
      "inputs": [],
      "name": "renounceGovernorship",
      "outputs": [],
      "stateMutability": "nonpayable",
      "type": "function"
    },
    {
      "inputs": [
        {
          "internalType": "address",
          "name": "from",
          "type": "address"
        },
        {
          "internalType": "address",
          "name": "to",
          "type": "address"
        },
        {
          "internalType": "uint256[]",
          "name": "ids",
          "type": "uint256[]"
        },
        {
          "internalType": "uint256[]",
          "name": "amounts",
          "type": "uint256[]"
        },
        {
          "internalType": "bytes",
          "name": "data",
          "type": "bytes"
        }
      ],
      "name": "safeBatchTransferFrom",
      "outputs": [],
      "stateMutability": "nonpayable",
      "type": "function"
    },
    {
      "inputs": [
        {
          "internalType": "address",
          "name": "from",
          "type": "address"
        },
        {
          "internalType": "address",
          "name": "to",
          "type": "address"
        },
        {
          "internalType": "uint256",
          "name": "id",
          "type": "uint256"
        },
        {
          "internalType": "uint256",
          "name": "amount",
          "type": "uint256"
        },
        {
          "internalType": "bytes",
          "name": "data",
          "type": "bytes"
        }
      ],
      "name": "safeTransferFrom",
      "outputs": [],
      "stateMutability": "nonpayable",
      "type": "function"
    },
    {
      "inputs": [
        {
          "internalType": "address",
          "name": "operator",
          "type": "address"
        },
        {
          "internalType": "bool",
          "name": "approved",
          "type": "bool"
        }
      ],
      "name": "setApprovalForAll",
      "outputs": [],
      "stateMutability": "nonpayable",
      "type": "function"
    },
    {
      "inputs": [
        {
          "internalType": "address",
          "name": "_miner",
          "type": "address"
        }
      ],
      "name": "setMinter",
      "outputs": [
        {
          "internalType": "bool",
          "name": "",
          "type": "bool"
        }
      ],
      "stateMutability": "nonpayable",
      "type": "function"
    },
    {
      "inputs": [
        {
          "internalType": "address",
          "name": "_signer",
          "type": "address"
        }
      ],
      "name": "setSigner",
      "outputs": [
        {
          "internalType": "bool",
          "name": "",
          "type": "bool"
        }
      ],
      "stateMutability": "nonpayable",
      "type": "function"
    },
    {
      "inputs": [
        {
          "internalType": "string",
          "name": "_baseURI",
          "type": "string"
        }
      ],
      "name": "setURI",
      "outputs": [
        {
          "internalType": "bool",
          "name": "",
          "type": "bool"
        }
      ],
      "stateMutability": "nonpayable",
      "type": "function"
    },
    {
      "inputs": [],
      "name": "signer",
      "outputs": [
        {
          "internalType": "address",
          "name": "",
          "type": "address"
        }
      ],
      "stateMutability": "view",
      "type": "function"
    },
    {
      "inputs": [
        {
          "internalType": "bytes",
          "name": "sig",
          "type": "bytes"
        }
      ],
      "name": "splitSignature",
      "outputs": [
        {
          "internalType": "bytes32",
          "name": "r",
          "type": "bytes32"
        },
        {
          "internalType": "bytes32",
          "name": "s",
          "type": "bytes32"
        },
        {
          "internalType": "uint8",
          "name": "v",
          "type": "uint8"
        }
      ],
      "stateMutability": "pure",
      "type": "function"
    },
    {
      "inputs": [
        {
          "internalType": "bytes4",
          "name": "interfaceId",
          "type": "bytes4"
        }
      ],
      "name": "supportsInterface",
      "outputs": [
        {
          "internalType": "bool",
          "name": "",
          "type": "bool"
        }
      ],
      "stateMutability": "view",
      "type": "function"
    },
    {
      "inputs": [],
      "name": "symbol",
      "outputs": [
        {
          "internalType": "string",
          "name": "",
          "type": "string"
        }
      ],
      "stateMutability": "view",
      "type": "function"
    },
    {
      "inputs": [
        {
          "internalType": "address",
          "name": "newGovernor",
          "type": "address"
        }
      ],
      "name": "transferGovernorship",
      "outputs": [],
      "stateMutability": "nonpayable",
      "type": "function"
    },
    {
      "inputs": [
        {
          "internalType": "uint256",
          "name": "tokenId",
          "type": "uint256"
        }
      ],
      "name": "uri",
      "outputs": [
        {
          "internalType": "string",
          "name": "",
          "type": "string"
        }
      ],
      "stateMutability": "view",
      "type": "function"
    },
    {
      "inputs": [
        {
          "internalType": "address",
          "name": "_signer",
          "type": "address"
        },
        {
          "internalType": "address",
          "name": "_to",
          "type": "address"
        },
        {
          "internalType": "uint256",
          "name": "_rebaseDays",
          "type": "uint256"
        },
        {
          "internalType": "bool",
          "name": "_isPositive",
          "type": "bool"
        },
        {
          "internalType": "uint256",
          "name": "_nonce",
          "type": "uint256"
        },
        {
          "internalType": "bytes",
          "name": "signature",
          "type": "bytes"
        }
      ],
      "name": "verify",
      "outputs": [
        {
          "internalType": "address",
          "name": "",
          "type": "address"
        }
      ],
      "stateMutability": "pure",
      "type": "function"
    }
  ],
  "bytecode": "0x60806040523480156200001157600080fd5b506040516200321638038062003216833981016040819052620000349162000402565b603a805462000043906200050d565b80601f016020809104026020016040519081016040528092919081815260200182805462000071906200050d565b8015620000c25780601f106200009657610100808354040283529160200191620000c2565b820191906000526020600020905b815481529060010190602001808311620000a457829003601f168201915b5050505050620000e1816200018b640100000000026401000000009004565b508351620000f7906038906020870190620002b1565b5082516200010d906039906020860190620002b1565b5081516200012390603a906020850190620002b1565b50603e8054600160a060020a031916600160a060020a03831617905562000153826401000000006200018b810204565b603d8054600160a060020a03191633908117909155620001819064010000000062000b78620001a482021704565b5050505062000592565b8051620001a0906036906020840190620002b1565b5050565b600054610100900460ff1680620001c95750620001c9640100000000620002ab810204565b80620001d8575060005460ff16155b6200021a576040517f08c379a00000000000000000000000000000000000000000000000000000000081526004016200021190620004b0565b60405180910390fd5b600054610100900460ff1615801562000246576000805460ff1961ff0019909116610100171660011790555b60338054600160a060020a031916600160a060020a0384811691909117918290556040519116906000907fc7c0c772add429241571afb3805861fb3cfa2af374534088b76cdb4325a87e9a908290a38015620001a0576000805461ff00191690555050565b303b1590565b828054620002bf906200050d565b90600052602060002090601f016020900481019282620002e357600085556200032e565b82601f10620002fe57805160ff19168380011785556200032e565b828001600101855582156200032e579182015b828111156200032e57825182559160200191906001019062000311565b506200033c92915062000340565b5090565b5b808211156200033c576000815560010162000341565b600082601f83011262000368578081fd5b81516001604060020a038082111562000385576200038562000563565b6040516020601f8401601f1916820181018381118382101715620003ad57620003ad62000563565b6040528382528584018101871015620003c4578485fd5b8492505b83831015620003e75785830181015182840182015291820191620003c8565b83831115620003f857848185840101525b5095945050505050565b6000806000806080858703121562000418578384fd5b84516001604060020a03808211156200042f578586fd5b6200043d8883890162000357565b9550602087015191508082111562000453578485fd5b620004618883890162000357565b9450604087015191508082111562000477578384fd5b50620004868782880162000357565b60608701519093509050600160a060020a0381168114620004a5578182fd5b939692955090935050565b6020808252602e908201527f436f6e747261637420696e7374616e63652068617320616c726561647920626560408201527f656e20696e697469616c697a6564000000000000000000000000000000000000606082015260800190565b6002810460018216806200052257607f821691505b602082108114156200055d577f4e487b7100000000000000000000000000000000000000000000000000000000600052602260045260246000fd5b50919050565b7f4e487b7100000000000000000000000000000000000000000000000000000000600052604160045260246000fd5b612c7480620005a26000396000f3fe608060405234801561001057600080fd5b50600436106101e0576000357c0100000000000000000000000000000000000000000000000000000000900480636c19e78311610116578063b6aa515b116100b4578063dbabf1b91161008e578063dbabf1b9146103cb578063e985e9c5146103de578063f242432a146103f1578063fca3b5aa14610404576101e0565b8063b6aa515b14610392578063b82c7678146103a5578063c4d66de8146103b8576101e0565b806395d89b41116100f057806395d89b4114610342578063a05c2b171461034a578063a22cb4651461035d578063a7bb580314610370576101e0565b80636c19e783146103145780636ddc33731461032757806381c0c2631461033a576101e0565b8063238ac933116101835780634e1273f41161015d5780634e1273f4146102b6578063585b09e9146102d6578063634d98fe146102e95780636c0360eb1461030c576101e0565b8063238ac933146102915780632eb2c2d614610299578063349dc329146102ae576101e0565b806306fdde03116101bf57806306fdde03146102415780630c340a24146102565780630e89341c1461026b57806310fcf7971461027e576101e0565b8062fdd58e146101e557806301ffc9a71461020e57806302fe53051461022e575b600080fd5b6101f86101f3366004611d68565b610417565b6040516102059190612997565b60405180910390f35b61022161021c366004611e4f565b610473565b60405161020591906122f7565b61022161023c366004611eba565b6104ed565b61024961052c565b6040516102059190612339565b61025e6105ba565b604051610205919061220a565b610249610279366004611f00565b6105c9565b61022161028c366004611b6b565b6105fd565b61025e610612565b6102ac6102a7366004611bb7565b610621565b005b61025e610682565b6102c96102c4366004611d91565b610691565b60405161020591906122bf565b61025e6102e4366004611c5d565b6107c0565b6102fc6102f7366004611f00565b610865565b60405161020594939291906129be565b61024961088f565b610221610322366004611b6b565b61089c565b610221610335366004611b6b565b6108e8565b6102ac6108fd565b61024961096b565b610221610358366004611fbd565b610978565b6102ac61036b366004611d3f565b610a24565b61038361037e366004611e87565b610af5565b60405161020593929190612302565b6102ac6103a0366004611b6b565b610b3c565b6102ac6103b3366004611ff1565b610b5f565b6102ac6103c6366004611b6b565b610b78565b6102ac6103d9366004611f18565b610c5b565b6102216103ec366004611b85565b610ca2565b6102ac6103ff366004611cdc565b610cd0565b610221610412366004611b6b565b610d2a565b6000600160a060020a03831661044b5760405160e560020a62461bcd02815260040161044290612474565b60405180910390fd5b506000908152603460209081526040808320600160a060020a03949094168352929052205490565b6000600160e060020a031982167fd9b67a260000000000000000000000000000000000000000000000000000000014806104d65750600160e060020a031982167f0e89341c00000000000000000000000000000000000000000000000000000000145b806104e557506104e582610d76565b90505b919050565b603354600090600160a060020a0316331461050757600080fd5b815161051a90603a90602085019061197a565b5061052482610da8565b506001919050565b6038805461053990612aa8565b80601f016020809104026020016040519081016040528092919081815260200182805461056590612aa8565b80156105b25780601f10610587576101008083540402835291602001916105b2565b820191906000526020600020905b81548152906001019060200180831161059557829003601f168201915b505050505081565b603354600160a060020a031681565b6060603a6105d683610dbb565b6040516020016105e7929190612161565b6040516020818303038152906040529050919050565b60416020526000908152604090205460ff1681565b603e54600160a060020a031681565b610629610f37565b600160a060020a031685600160a060020a0316148061064f575061064f856103ec610f37565b61066e5760405160e560020a62461bcd028152600401610442906125f9565b61067b8585858585610f3c565b5050505050565b603d54600160a060020a031681565b606081518351146106b75760405160e560020a62461bcd02815260040161044290612849565b6000835167ffffffffffffffff8111156106e45760e060020a634e487b7102600052604160045260246000fd5b60405190808252806020026020018201604052801561070d578160200160208202803683370190505b50905060005b84518110156107b85761077a8582815181106107425760e060020a634e487b7102600052603260045260246000fd5b602002602001015185838151811061076d5760e060020a634e487b7102600052603260045260246000fd5b6020026020010151610417565b82828151811061079d5760e060020a634e487b7102600052603260045260246000fd5b60209081029190910101526107b181612ae6565b9050610713565b509392505050565b600080868686866040516020016107da9493929190612108565b604051602081830303815290604052805190602001209050600080600061080086610af5565b92509250925060018482858560405160008152602001604052604051610829949392919061231b565b6020604051602081039080840390855afa15801561084b573d6000803e3d6000fd5b5050604051601f1901519c9b505050505050505050505050565b603f6020526000908152604090208054600182015460028301546003909301549192909160ff1684565b603a805461053990612aa8565b603354600090600160a060020a031633146108b657600080fd5b50603e8054600160a060020a03831673ffffffffffffffffffffffffffffffffffffffff199091161790556001919050565b60406020819052600091825290205460ff1681565b603354600160a060020a0316331461091457600080fd5b603354604051600091600160a060020a0316907fc7c0c772add429241571afb3805861fb3cfa2af374534088b76cdb4325a87e9a908390a36033805473ffffffffffffffffffffffffffffffffffffffff19169055565b6039805461053990612aa8565b603d54600090600160a060020a031633146109a85760405160e560020a62461bcd028152600401610442906126ea565b6001603760008282546109bb9190612a35565b90915550506040805160808101825294855260006020808701828152878401968752941515606088019081526037548352603f9091529190209451855591516001808601919091559251600285015550516003909201805460ff19169215159290921790915590565b81600160a060020a0316610a36610f37565b600160a060020a03161415610a605760405160e560020a62461bcd028152600401610442906127b5565b8060356000610a6d610f37565b600160a060020a03908116825260208083019390935260409182016000908120918716808252919093529120805460ff191692151592909217909155610ab1610f37565b600160a060020a03167f17307eab39ab6107e8899845ad3d59bd9653f200f220920489ca2b5937696c3183604051610ae991906122f7565b60405180910390a35050565b60008060008351604114610b1e5760405160e560020a62461bcd02815260040161044290612812565b50505060208101516040820151606090920151909260009190911a90565b603354600160a060020a03163314610b5357600080fd5b610b5c8161111f565b50565b610b6f873388888888888861119b565b50505050505050565b600054610100900460ff1680610b915750610b9161149a565b80610b9f575060005460ff16155b610bbe5760405160e560020a62461bcd02815260040161044290612721565b600054610100900460ff16158015610be9576000805460ff1961ff0019909116610100171660011790555b6033805473ffffffffffffffffffffffffffffffffffffffff1916600160a060020a0384811691909117918290556040519116906000907fc7c0c772add429241571afb3805861fb3cfa2af374534088b76cdb4325a87e9a908290a38015610c57576000805461ff00191690555b5050565b603d54600160a060020a03163314610c885760405160e560020a62461bcd028152600401610442906126ea565b610c98888888888888888861119b565b5050505050505050565b600160a060020a03918216600090815260356020908152604080832093909416825291909152205460ff1690565b610cd8610f37565b600160a060020a031685600160a060020a03161480610cfe5750610cfe856103ec610f37565b610d1d5760405160e560020a62461bcd028152600401610442906124d1565b61067b85858585856114a0565b603354600090600160a060020a03163314610d4457600080fd5b50603d8054600160a060020a03831673ffffffffffffffffffffffffffffffffffffffff199091161790556001919050565b600160e060020a031981167f01ffc9a70000000000000000000000000000000000000000000000000000000014919050565b8051610c5790603690602084019061197a565b606081610dfc575060408051808201909152600181527f300000000000000000000000000000000000000000000000000000000000000060208201526104e8565b8160005b8115610e265780610e1081612ae6565b9150610e1f9050600a83612a4d565b9150610e00565b60008167ffffffffffffffff811115610e525760e060020a634e487b7102600052604160045260246000fd5b6040519080825280601f01601f191660200182016040528015610e7c576020820181803683370190505b5090505b8415610f2f57610e91600183612a61565b9150610e9e600a86612b01565b610ea9906030612a35565b7f010000000000000000000000000000000000000000000000000000000000000002818381518110610eee5760e060020a634e487b7102600052603260045260246000fd5b60200101907effffffffffffffffffffffffffffffffffffffffffffffffffffffffffffff1916908160001a905350610f28600a86612a4d565b9450610e80565b949350505050565b335b90565b8151835114610f605760405160e560020a62461bcd028152600401610442906128a6565b600160a060020a038416610f895760405160e560020a62461bcd0281526004016104429061259c565b6000610f93610f37565b9050610fa3818787878787611117565b60005b84518110156110b1576000858281518110610fd45760e060020a634e487b7102600052603260045260246000fd5b6020026020010151905060008583815181106110035760e060020a634e487b7102600052603260045260246000fd5b6020908102919091018101516000848152603483526040808220600160a060020a038e1683529093529190912054909150818110156110575760405160e560020a62461bcd0281526004016104429061268d565b6000838152603460209081526040808320600160a060020a038e8116855292528083208585039055908b16825281208054849290611096908490612a35565b92505081905550505050806110aa90612ae6565b9050610fa6565b5084600160a060020a031686600160a060020a031682600160a060020a03167f4a39dc06d4c0dbc64b70af90fd698a233a518aa5d07e595d983b8c0526c8f7fb87876040516111019291906122d2565b60405180910390a46111178187878787876115e4565b505050505050565b600160a060020a03811661113257600080fd5b603354604051600160a060020a038084169216907fc7c0c772add429241571afb3805861fb3cfa2af374534088b76cdb4325a87e9a90600090a36033805473ffffffffffffffffffffffffffffffffffffffff1916600160a060020a0392909216919091179055565b6000888152603f6020908152604091829020825160808101845281548082526001830154938201939093526002820154938101939093526003015460ff16151560608301526111ff5760405160e560020a62461bcd0281526004016104429061277e565b85151581606001511515146112295760405160e560020a62461bcd0281526004016104429061277e565b80604001514210156112505760405160e560020a62461bcd02815260040161044290612960565b85156112b5576105dc603b54111561127d5760405160e560020a62461bcd02815260040161044290612406565b3360009081526040602081905290205460ff16156112b05760405160e560020a62461bcd0281526004016104429061252e565b61130f565b6105dc603c5411156112dc5760405160e560020a62461bcd02815260040161044290612565565b3360009081526041602052604090205460ff161561130f5760405160e560020a62461bcd0281526004016104429061252e565b80518710156113335760405160e560020a62461bcd02815260040161044290612656565b603e5460009061135090600160a060020a03168a8a8a8a8a6107c0565b603e54909150600160a060020a038083169116146113835760405160e560020a62461bcd0281526004016104429061243d565b6113c6898b600187878080601f01602080910402602001604051908101604052809392919081815260200183838082843760009201919091525061172d92505050565b861561141057600160a060020a0389166000908152604060208190528120805460ff19166001908117909155603b805491929091611405908490612a35565b9091555061144f9050565b600160a060020a0389166000908152604160205260408120805460ff19166001908117909155603c805491929091611449908490612a35565b90915550505b8151606083015160405133927ff9288aa3c16d157f87dbf24b824f702d4c76887d38e8fd6ef8212ad19a712aee92611486926129a0565b60405180910390a250505050505050505050565b303b1590565b600160a060020a0384166114c95760405160e560020a62461bcd0281526004016104429061259c565b60006114d3610f37565b90506114f38187876114e488611812565b6114ed88611812565b87611117565b6000848152603460209081526040808320600160a060020a038a168452909152902054838110156115395760405160e560020a62461bcd0281526004016104429061268d565b6000858152603460209081526040808320600160a060020a038b8116855292528083208785039055908816825281208054869290611578908490612a35565b9250508190555085600160a060020a031687600160a060020a031683600160a060020a03167fc3d58168c5ae7397731d063d5bbf3d657854427343f4c083240f7aacaa2d0f6288886040516115ce9291906129b0565b60405180910390a4610b6f82888888888861186e565b6115f684600160a060020a0316611974565b15611117576040517fbc197c81000000000000000000000000000000000000000000000000000000008152600160a060020a0385169063bc197c8190611648908990899088908890889060040161221e565b602060405180830381600087803b15801561166257600080fd5b505af1925050508015611692575060408051601f3d908101601f1916820190925261168f91810190611e6b565b60015b6116e15761169e612b83565b806116a957506116c6565b8060405160e560020a62461bcd0281526004016104429190612339565b60405160e560020a62461bcd0281526004016104429061234c565b600160e060020a031981167fbc197c810000000000000000000000000000000000000000000000000000000014610b6f5760405160e560020a62461bcd028152600401610442906123a9565b600160a060020a0384166117565760405160e560020a62461bcd02815260040161044290612903565b6000611760610f37565b9050611772816000876114e488611812565b6000848152603460209081526040808320600160a060020a0389168452909152812080548592906117a4908490612a35565b9250508190555084600160a060020a03166000600160a060020a031682600160a060020a03167fc3d58168c5ae7397731d063d5bbf3d657854427343f4c083240f7aacaa2d0f6287876040516117fb9291906129b0565b60405180910390a461067b8160008787878761186e565b6040805160018082528183019092526060916000919060208083019080368337019050509050828160008151811061185d5760e060020a634e487b7102600052603260045260246000fd5b602090810291909101015292915050565b61188084600160a060020a0316611974565b15611117576040517ff23a6e61000000000000000000000000000000000000000000000000000000008152600160a060020a0385169063f23a6e61906118d2908990899088908890889060040161227c565b602060405180830381600087803b1580156118ec57600080fd5b505af192505050801561191c575060408051601f3d908101601f1916820190925261191991810190611e6b565b60015b6119285761169e612b83565b600160e060020a031981167ff23a6e610000000000000000000000000000000000000000000000000000000014610b6f5760405160e560020a62461bcd028152600401610442906123a9565b3b151590565b82805461198690612aa8565b90600052602060002090601f0160209004810192826119a857600085556119ee565b82601f106119c157805160ff19168380011785556119ee565b828001600101855582156119ee579182015b828111156119ee5782518255916020019190600101906119d3565b506119fa9291506119fe565b5090565b5b808211156119fa57600081556001016119ff565b600067ffffffffffffffff831115611a2d57611a2d612b47565b611a40601f8401601f19166020016129db565b9050828152838383011115611a5457600080fd5b828260208301376000602084830101529392505050565b8035600160a060020a03811681146104e857600080fd5b600082601f830112611a92578081fd5b81356020611aa7611aa283612a05565b6129db565b8281528181019085830183850287018401881015611ac3578586fd5b855b85811015611ae157813584529284019290840190600101611ac5565b5090979650505050505050565b803580151581146104e857600080fd5b60008083601f840112611b0f578182fd5b50813567ffffffffffffffff811115611b26578182fd5b602083019150836020828501011115611b3e57600080fd5b9250929050565b600082601f830112611b55578081fd5b611b6483833560208501611a13565b9392505050565b600060208284031215611b7c578081fd5b611b6482611a6b565b60008060408385031215611b97578081fd5b611ba083611a6b565b9150611bae60208401611a6b565b90509250929050565b600080600080600060a08688031215611bce578081fd5b611bd786611a6b565b9450611be560208701611a6b565b9350604086013567ffffffffffffffff80821115611c01578283fd5b611c0d89838a01611a82565b94506060880135915080821115611c22578283fd5b611c2e89838a01611a82565b93506080880135915080821115611c43578283fd5b50611c5088828901611b45565b9150509295509295909350565b60008060008060008060c08789031215611c75578081fd5b611c7e87611a6b565b9550611c8c60208801611a6b565b945060408701359350611ca160608801611aee565b92506080870135915060a087013567ffffffffffffffff811115611cc3578182fd5b611ccf89828a01611b45565b9150509295509295509295565b600080600080600060a08688031215611cf3578081fd5b611cfc86611a6b565b9450611d0a60208701611a6b565b93506040860135925060608601359150608086013567ffffffffffffffff811115611d33578182fd5b611c5088828901611b45565b60008060408385031215611d51578182fd5b611d5a83611a6b565b9150611bae60208401611aee565b60008060408385031215611d7a578182fd5b611d8383611a6b565b946020939093013593505050565b60008060408385031215611da3578182fd5b823567ffffffffffffffff80821115611dba578384fd5b818501915085601f830112611dcd578384fd5b81356020611ddd611aa283612a05565b82815281810190858301838502870184018b1015611df9578889fd5b8896505b84871015611e2257611e0e81611a6b565b835260019690960195918301918301611dfd565b5096505086013592505080821115611e38578283fd5b50611e4585828601611a82565b9150509250929050565b600060208284031215611e60578081fd5b8135611b6481612c28565b600060208284031215611e7c578081fd5b8151611b6481612c28565b600060208284031215611e98578081fd5b813567ffffffffffffffff811115611eae578182fd5b610f2f84828501611b45565b600060208284031215611ecb578081fd5b813567ffffffffffffffff811115611ee1578182fd5b8201601f81018413611ef1578182fd5b610f2f84823560208401611a13565b600060208284031215611f11578081fd5b5035919050565b60008060008060008060008060e0898b031215611f33578586fd5b88359750611f4360208a01611a6b565b965060408901359550611f5860608a01611aee565b94506080890135935060a089013567ffffffffffffffff80821115611f7b578384fd5b611f878c838d01611b45565b945060c08b0135915080821115611f9c578384fd5b50611fa98b828c01611afe565b999c989b5096995094979396929594505050565b600080600060608486031215611fd1578081fd5b8335925060208401359150611fe860408501611aee565b90509250925092565b600080600080600080600060c0888a03121561200b578081fd5b873596506020880135955061202260408901611aee565b945060608801359350608088013567ffffffffffffffff80821115612045578283fd5b6120518b838c01611b45565b945060a08a0135915080821115612066578283fd5b506120738a828b01611afe565b989b979a50959850939692959293505050565b6000815180845260208085019450808401835b838110156120b557815187529582019590820190600101612099565b509495945050505050565b600081518084526120d8816020860160208601612a78565b601f01601f19169290920160200192915050565b600081516120fe818560208601612a78565b9290920192915050565b600160a060020a03949094166c01000000000000000000000000028452601484019290925215157f0100000000000000000000000000000000000000000000000000000000000000026034830152603582015260550190565b825460009081906002810460018083168061217d57607f831692505b60208084108214156121a05760e060020a634e487b710287526022600452602487fd5b8180156121b457600181146121c5576121f1565b60ff198616895284890196506121f1565b6121ce8b612a29565b885b868110156121e95781548b8201529085019083016121d0565b505084890196505b50505050505061220181856120ec565b95945050505050565b600160a060020a0391909116815260200190565b6000600160a060020a03808816835280871660208401525060a0604083015261224a60a0830186612086565b828103606084015261225c8186612086565b9050828103608084015261227081856120c0565b98975050505050505050565b6000600160a060020a03808816835280871660208401525084604083015283606083015260a060808301526122b460a08301846120c0565b979650505050505050565b600060208252611b646020830184612086565b6000604082526122e56040830185612086565b82810360208401526122018185612086565b901515815260200190565b928352602083019190915260ff16604082015260600190565b93845260ff9290921660208401526040830152606082015260800190565b600060208252611b6460208301846120c0565b60208082526034908201527f455243313135353a207472616e7366657220746f206e6f6e204552433131353560408201527f526563656976657220696d706c656d656e746572000000000000000000000000606082015260800190565b60208082526028908201527f455243313135353a204552433131353552656365697665722072656a6563746560408201527f6420746f6b656e73000000000000000000000000000000000000000000000000606082015260800190565b6020808252601d908201527f6e6f206d6f726520706f73697469766520726562617365206261646765000000604082015260600190565b60208082526011908201527f696e76616c6964207369676e6174757265000000000000000000000000000000604082015260600190565b6020808252602b908201527f455243313135353a2062616c616e636520717565727920666f7220746865207a60408201527f65726f2061646472657373000000000000000000000000000000000000000000606082015260800190565b60208082526029908201527f455243313135353a2063616c6c6572206973206e6f74206f776e6572206e6f7260408201527f20617070726f7665640000000000000000000000000000000000000000000000606082015260800190565b60208082526015908201527f616c726561647920636c61696d65642062616467650000000000000000000000604082015260600190565b6020808252601d908201527f6e6f206d6f7265206e6567617469766520726562617365206261646765000000604082015260600190565b60208082526025908201527f455243313135353a207472616e7366657220746f20746865207a65726f20616460408201527f6472657373000000000000000000000000000000000000000000000000000000606082015260800190565b60208082526032908201527f455243313135353a207472616e736665722063616c6c6572206973206e6f742060408201527f6f776e6572206e6f7220617070726f7665640000000000000000000000000000606082015260800190565b60208082526013908201527f696e76616c696420726562617365206461797300000000000000000000000000604082015260600190565b6020808252602a908201527f455243313135353a20696e73756666696369656e742062616c616e636520666f60408201527f72207472616e7366657200000000000000000000000000000000000000000000606082015260800190565b6020808252600b908201527f6f6e6c79206d696e746572000000000000000000000000000000000000000000604082015260600190565b6020808252602e908201527f436f6e747261637420696e7374616e63652068617320616c726561647920626560408201527f656e20696e697469616c697a6564000000000000000000000000000000000000606082015260800190565b60208082526012908201527f696e76616c696420626164676520747970650000000000000000000000000000604082015260600190565b60208082526029908201527f455243313135353a2073657474696e6720617070726f76616c2073746174757360408201527f20666f722073656c660000000000000000000000000000000000000000000000606082015260800190565b60208082526018908201527f696e76616c6964207369676e6174757265206c656e6774680000000000000000604082015260600190565b60208082526029908201527f455243313135353a206163636f756e747320616e6420696473206c656e67746860408201527f206d69736d617463680000000000000000000000000000000000000000000000606082015260800190565b60208082526028908201527f455243313135353a2069647320616e6420616d6f756e7473206c656e6774682060408201527f6d69736d61746368000000000000000000000000000000000000000000000000606082015260800190565b60208082526021908201527f455243313135353a206d696e7420746f20746865207a65726f2061646472657360408201527f7300000000000000000000000000000000000000000000000000000000000000606082015260800190565b60208082526011908201527f6d696e7420646f65732774207374617274000000000000000000000000000000604082015260600190565b90815260200190565b9182521515602082015260400190565b918252602082015260400190565b938452602084019290925260408301521515606082015260800190565b60405181810167ffffffffffffffff811182821017156129fd576129fd612b47565b604052919050565b600067ffffffffffffffff821115612a1f57612a1f612b47565b5060209081020190565b60009081526020902090565b60008219821115612a4857612a48612b15565b500190565b600082612a5c57612a5c612b2e565b500490565b600082821015612a7357612a73612b15565b500390565b60005b83811015612a93578181015183820152602001612a7b565b83811115612aa2576000848401525b50505050565b600281046001821680612abc57607f821691505b60208210811415612ae05760e060020a634e487b7102600052602260045260246000fd5b50919050565b6000600019821415612afa57612afa612b15565b5060010190565b600082612b1057612b10612b2e565b500690565b60e060020a634e487b7102600052601160045260246000fd5b60e060020a634e487b7102600052601260045260246000fd5b60e060020a634e487b7102600052604160045260246000fd5b7c0100000000000000000000000000000000000000000000000000000000900490565b600060443d1015612b9357610f39565b600481823e6308c379a0612ba78251612b60565b14612bb157610f39565b6040513d600319016004823e80513d67ffffffffffffffff8160248401118184111715612be15750505050610f39565b82840192508251915080821115612bfb5750505050610f39565b503d83016020828401011115612c1357505050610f39565b601f01601f1916810160200160405291505090565b600160e060020a031981168114610b5c57600080fdfea264697066735822122002f159d5113ca3a88d240d1e4a4af48b96a65fd3a68008f4379ade31aa256a9464736f6c63430008000033",
  "linkReferences": {},
  "deployedLinkReferences": {}
}