{
  "_format": "hh-sol-artifact-1",
  "contractName": "DeFineVotingPortal",
  "sourceName": "contracts/DeFineVotingPortal.sol",
  "abi": [
    {
      "anonymous": false,
      "inputs": [
        {
          "indexed": true,
          "internalType": "address",
          "name": "previousGovernor",
          "type": "address"
        },
        {
          "indexed": true,
          "internalType": "address",
          "name": "newGovernor",
          "type": "address"
        }
      ],
      "name": "GovernorshipTransferred",
      "type": "event"
    },
    {
      "anonymous": false,
      "inputs": [
        {
          "indexed": false,
          "internalType": "uint256",
          "name": "id",
          "type": "uint256"
        }
      ],
      "name": "ProposalCanceled",
      "type": "event"
    },
    {
      "anonymous": false,
      "inputs": [
        {
          "indexed": false,
          "internalType": "uint256",
          "name": "id",
          "type": "uint256"
        },
        {
          "indexed": false,
          "internalType": "address",
          "name": "proposer",
          "type": "address"
        },
        {
          "indexed": false,
          "internalType": "uint256",
          "name": "startTime",
          "type": "uint256"
        },
        {
          "indexed": false,
          "internalType": "uint256",
          "name": "endTime",
          "type": "uint256"
        },
        {
          "indexed": false,
          "internalType": "string",
          "name": "title",
          "type": "string"
        },
        {
          "indexed": false,
          "internalType": "string",
          "name": "description",
          "type": "string"
        }
      ],
      "name": "ProposalCreated",
      "type": "event"
    },
    {
      "anonymous": false,
      "inputs": [
        {
          "indexed": false,
          "internalType": "uint256",
          "name": "id",
          "type": "uint256"
        },
        {
          "indexed": false,
          "internalType": "address",
          "name": "claimer",
          "type": "address"
        }
      ],
      "name": "ProposalDepositWithdrawn",
      "type": "event"
    },
    {
      "anonymous": false,
      "inputs": [
        {
          "indexed": false,
          "internalType": "uint256",
          "name": "id",
          "type": "uint256"
        }
      ],
      "name": "ProposalExecuted",
      "type": "event"
    },
    {
      "anonymous": false,
      "inputs": [
        {
          "indexed": false,
          "internalType": "address",
          "name": "voter",
          "type": "address"
        },
        {
          "indexed": false,
          "internalType": "uint256",
          "name": "proposalId",
          "type": "uint256"
        },
        {
          "indexed": false,
          "internalType": "bool",
          "name": "support",
          "type": "bool"
        },
        {
          "indexed": false,
          "internalType": "uint256",
          "name": "votes",
          "type": "uint256"
        }
      ],
      "name": "VoteCast",
      "type": "event"
    },
    {
      "inputs": [
        {
          "internalType": "uint256",
          "name": "proposalId",
          "type": "uint256"
        }
      ],
      "name": "cancel",
      "outputs": [],
      "stateMutability": "nonpayable",
      "type": "function"
    },
    {
      "inputs": [
        {
          "internalType": "uint256",
          "name": "proposalId",
          "type": "uint256"
        },
        {
          "internalType": "bool",
          "name": "support",
          "type": "bool"
        },
        {
          "internalType": "uint256",
          "name": "voteCount",
          "type": "uint256"
        },
        {
          "internalType": "bytes",
          "name": "signature",
          "type": "bytes"
        }
      ],
      "name": "castVoteBySig",
      "outputs": [],
      "stateMutability": "nonpayable",
      "type": "function"
    },
    {
      "inputs": [
        {
          "internalType": "uint256",
          "name": "proposalId",
          "type": "uint256"
        }
      ],
      "name": "claim",
      "outputs": [],
      "stateMutability": "nonpayable",
      "type": "function"
    },
    {
      "inputs": [
        {
          "internalType": "uint256",
          "name": "proposalId",
          "type": "uint256"
        }
      ],
      "name": "getProposalQuorumCount",
      "outputs": [
        {
          "internalType": "uint256",
          "name": "",
          "type": "uint256"
        }
      ],
      "stateMutability": "view",
      "type": "function"
    },
    {
      "inputs": [],
      "name": "globalPendingTime",
      "outputs": [
        {
          "internalType": "uint256",
          "name": "",
          "type": "uint256"
        }
      ],
      "stateMutability": "view",
      "type": "function"
    },
    {
      "inputs": [],
      "name": "governor",
      "outputs": [
        {
          "internalType": "address",
          "name": "",
          "type": "address"
        }
      ],
      "stateMutability": "view",
      "type": "function"
    },
    {
      "inputs": [
        {
          "internalType": "address",
          "name": "_governor",
          "type": "address"
        }
      ],
      "name": "initialize",
      "outputs": [],
      "stateMutability": "nonpayable",
      "type": "function"
    },
    {
      "inputs": [],
      "name": "maxDuration",
      "outputs": [
        {
          "internalType": "uint256",
          "name": "",
          "type": "uint256"
        }
      ],
      "stateMutability": "view",
      "type": "function"
    },
    {
      "inputs": [],
      "name": "minDuration",
      "outputs": [
        {
          "internalType": "uint256",
          "name": "",
          "type": "uint256"
        }
      ],
      "stateMutability": "view",
      "type": "function"
    },
    {
      "inputs": [],
      "name": "proposalThresholdCount",
      "outputs": [
        {
          "internalType": "uint256",
          "name": "",
          "type": "uint256"
        }
      ],
      "stateMutability": "view",
      "type": "function"
    },
    {
      "inputs": [
        {
          "internalType": "uint256",
          "name": "",
          "type": "uint256"
        }
      ],
      "name": "proposals",
      "outputs": [
        {
          "internalType": "uint256",
          "name": "id",
          "type": "uint256"
        },
        {
          "internalType": "address",
          "name": "proposer",
          "type": "address"
        },
        {
          "internalType": "uint256",
          "name": "eta",
          "type": "uint256"
        },
        {
          "internalType": "uint256",
          "name": "createTime",
          "type": "uint256"
        },
        {
          "internalType": "uint256",
          "name": "startTime",
          "type": "uint256"
        },
        {
          "internalType": "uint256",
          "name": "endTime",
          "type": "uint256"
        },
        {
          "internalType": "uint256",
          "name": "forVotes",
          "type": "uint256"
        },
        {
          "internalType": "uint256",
          "name": "againstVotes",
          "type": "uint256"
        },
        {
          "internalType": "uint256",
          "name": "blockHeight",
          "type": "uint256"
        },
        {
          "internalType": "bool",
          "name": "canceled",
          "type": "bool"
        },
        {
          "internalType": "bool",
          "name": "executed",
          "type": "bool"
        },
        {
          "internalType": "bool",
          "name": "withdrawn",
          "type": "bool"
        }
      ],
      "stateMutability": "view",
      "type": "function"
    },
    {
      "inputs": [
        {
          "internalType": "uint256",
          "name": "endTime",
          "type": "uint256"
        },
        {
          "internalType": "string",
          "name": "title",
          "type": "string"
        },
        {
          "internalType": "string",
          "name": "description",
          "type": "string"
        }
      ],
      "name": "propose",
      "outputs": [
        {
          "internalType": "uint256",
          "name": "",
          "type": "uint256"
        }
      ],
      "stateMutability": "nonpayable",
      "type": "function"
    },
    {
      "inputs": [],
      "name": "quorumVoteCount",
      "outputs": [
        {
          "internalType": "uint256",
          "name": "",
          "type": "uint256"
        }
      ],
      "stateMutability": "view",
      "type": "function"
    },
    {
      "inputs": [
        {
          "internalType": "uint256",
          "name": "",
          "type": "uint256"
        },
        {
          "internalType": "address",
          "name": "",
          "type": "address"
        }
      ],
      "name": "receipts",
      "outputs": [
        {
          "internalType": "bool",
          "name": "hasVoted",
          "type": "bool"
        },
        {
          "internalType": "bool",
          "name": "support",
          "type": "bool"
        },
        {
          "internalType": "uint256",
          "name": "votes",
          "type": "uint256"
        }
      ],
      "stateMutability": "view",
      "type": "function"
    },
    {
      "inputs": [],
      "name": "renounceGovernorship",
      "outputs": [],
      "stateMutability": "nonpayable",
      "type": "function"
    },
    {
      "inputs": [
        {
          "internalType": "uint256",
          "name": "proposalId",
          "type": "uint256"
        },
        {
          "internalType": "uint256",
          "name": "time",
          "type": "uint256"
        }
      ],
      "name": "setEndTime",
      "outputs": [],
      "stateMutability": "nonpayable",
      "type": "function"
    },
    {
      "inputs": [
        {
          "internalType": "uint256",
          "name": "proposalId",
          "type": "uint256"
        },
        {
          "internalType": "bool",
          "name": "status",
          "type": "bool"
        }
      ],
      "name": "setExecute",
      "outputs": [],
      "stateMutability": "payable",
      "type": "function"
    },
    {
      "inputs": [
        {
          "internalType": "uint256",
          "name": "time",
          "type": "uint256"
        }
      ],
      "name": "setGlobalPendingTime",
      "outputs": [],
      "stateMutability": "nonpayable",
      "type": "function"
    },
    {
      "inputs": [
        {
          "internalType": "address",
          "name": "_voteToken",
          "type": "address"
        },
        {
          "internalType": "address",
          "name": "_signer",
          "type": "address"
        },
        {
          "internalType": "uint256",
          "name": "_quorumVoteCount",
          "type": "uint256"
        },
        {
          "internalType": "uint256",
          "name": "_proposalThresholdCount",
          "type": "uint256"
        },
        {
          "internalType": "uint256",
          "name": "_globalPendingTime",
          "type": "uint256"
        },
        {
          "internalType": "uint256",
          "name": "_minDuration",
          "type": "uint256"
        },
        {
          "internalType": "uint256",
          "name": "_maxDuration",
          "type": "uint256"
        }
      ],
      "name": "setInitialValue",
      "outputs": [],
      "stateMutability": "nonpayable",
      "type": "function"
    },
    {
      "inputs": [
        {
          "internalType": "uint256",
          "name": "_duration",
          "type": "uint256"
        }
      ],
      "name": "setMaxDuration",
      "outputs": [],
      "stateMutability": "nonpayable",
      "type": "function"
    },
    {
      "inputs": [
        {
          "internalType": "uint256",
          "name": "_duration",
          "type": "uint256"
        }
      ],
      "name": "setMinDuration",
      "outputs": [],
      "stateMutability": "nonpayable",
      "type": "function"
    },
    {
      "inputs": [
        {
          "internalType": "uint256",
          "name": "count",
          "type": "uint256"
        }
      ],
      "name": "setProposalThrehold",
      "outputs": [],
      "stateMutability": "nonpayable",
      "type": "function"
    },
    {
      "inputs": [
        {
          "internalType": "uint256",
          "name": "count",
          "type": "uint256"
        }
      ],
      "name": "setQuorumVotes",
      "outputs": [],
      "stateMutability": "nonpayable",
      "type": "function"
    },
    {
      "inputs": [
        {
          "internalType": "address",
          "name": "_signer",
          "type": "address"
        }
      ],
      "name": "setSigner",
      "outputs": [],
      "stateMutability": "nonpayable",
      "type": "function"
    },
    {
      "inputs": [
        {
          "internalType": "uint256",
          "name": "proposalId",
          "type": "uint256"
        },
        {
          "internalType": "uint256",
          "name": "time",
          "type": "uint256"
        }
      ],
      "name": "setStartTime",
      "outputs": [],
      "stateMutability": "nonpayable",
      "type": "function"
    },
    {
      "inputs": [
        {
          "internalType": "bytes",
          "name": "sig",
          "type": "bytes"
        }
      ],
      "name": "splitSignature",
      "outputs": [
        {
          "internalType": "bytes32",
          "name": "r",
          "type": "bytes32"
        },
        {
          "internalType": "bytes32",
          "name": "s",
          "type": "bytes32"
        },
        {
          "internalType": "uint8",
          "name": "v",
          "type": "uint8"
        }
      ],
      "stateMutability": "pure",
      "type": "function"
    },
    {
      "inputs": [
        {
          "internalType": "uint256",
          "name": "proposalId",
          "type": "uint256"
        }
      ],
      "name": "state",
      "outputs": [
        {
          "internalType": "enum DeFineVotingPortal.ProposalState",
          "name": "",
          "type": "uint8"
        }
      ],
      "stateMutability": "view",
      "type": "function"
    },
    {
      "inputs": [
        {
          "internalType": "address",
          "name": "newGovernor",
          "type": "address"
        }
      ],
      "name": "transferGovernorship",
      "outputs": [],
      "stateMutability": "nonpayable",
      "type": "function"
    },
    {
      "inputs": [
        {
          "internalType": "address",
          "name": "_voteToken",
          "type": "address"
        },
        {
          "internalType": "address",
          "name": "_voter",
          "type": "address"
        },
        {
          "internalType": "uint256",
          "name": "_voteCount",
          "type": "uint256"
        },
        {
          "internalType": "uint256",
          "name": "_blockHeight",
          "type": "uint256"
        },
        {
          "internalType": "bytes",
          "name": "signature",
          "type": "bytes"
        }
      ],
      "name": "verify",
      "outputs": [
        {
          "internalType": "address",
          "name": "",
          "type": "address"
        }
      ],
      "stateMutability": "pure",
      "type": "function"
    },
    {
      "inputs": [],
      "name": "voteToken",
      "outputs": [
        {
          "internalType": "address",
          "name": "",
          "type": "address"
        }
      ],
      "stateMutability": "view",
      "type": "function"
    }
  ],
  "bytecode": "0x608060405234801561001057600080fd5b50612170806100206000396000f3fe6080604052600436106101ea576000357c0100000000000000000000000000000000000000000000000000000000900480636db5c8fd11610114578063b6aa515b116100b2578063cf0f34c411610081578063cf0f34c414610670578063cffc18eb14610690578063f1d8c777146106b0578063fd101f0f146106c357600080fd5b8063b6aa515b146105f0578063ba278e0814610610578063c4d66de814610630578063c59321d31461065057600080fd5b8063823363c6116100ee578063823363c61461055c5780639d5b353f1461057c578063a7bb580314610592578063abfbac4b146105d057600080fd5b80636db5c8fd146105115780637eaf85781461052757806381c0c2631461054757600080fd5b80633e4f49e61161018c57806355b3d2851161015b57806355b3d285146104a557806356715761146104bb57806364b279fa146104d15780636c19e783146104f157600080fd5b80633e4f49e6146103cf57806340e58ee5146103fc5780634116b4af1461041c5780634178b2491461043c57600080fd5b8063160d66ae116101c8578063160d66ae146103415780631674bade1461036157806335efd9f114610381578063379607f5146103af57600080fd5b8063013cf08b146101ef57806302ec8f9e146102e75780630c340a2414610309575b600080fd5b3480156101fb57600080fd5b5061027b61020a366004611dce565b603c6020526000908152604090208054600182015460028301546003840154600485015460058601546006870154600788015460088901546009909901549798600160a060020a039097169795969495939492939192909160ff80821691610100810482169162010000909104168c565b604080519c8d52600160a060020a03909b1660208d0152998b019890985260608a0196909652608089019490945260a088019290925260c087015260e0860152610100850152151561012084015215156101408301521515610160820152610180015b60405180910390f35b3480156102f357600080fd5b50610307610302366004611dce565b6106d9565b005b34801561031557600080fd5b5060335461032990600160a060020a031681565b604051600160a060020a0390911681526020016102de565b34801561034d57600080fd5b5060345461032990600160a060020a031681565b34801561036d57600080fd5b5061030761037c366004611dce565b6106f5565b34801561038d57600080fd5b506103a161039c366004611dce565b610711565b6040519081526020016102de565b3480156103bb57600080fd5b506103076103ca366004611dce565b61074c565b3480156103db57600080fd5b506103ef6103ea366004611dce565b6109d5565b6040516102de9190611f7d565b34801561040857600080fd5b50610307610417366004611dce565b610b40565b34801561042857600080fd5b50610307610437366004611d1e565b610cc9565b34801561044857600080fd5b50610488610457366004611de7565b603d6020908152600092835260408084209091529082529020805460019091015460ff808316926101009004169083565b6040805193151584529115156020840152908201526060016102de565b3480156104b157600080fd5b506103a160375481565b3480156104c757600080fd5b506103a1603a5481565b3480156104dd57600080fd5b506103076104ec366004611dce565b610d34565b3480156104fd57600080fd5b5061030761050c366004611c91565b610d50565b34801561051d57600080fd5b506103a1603b5481565b34801561053357600080fd5b506103a1610542366004611ea6565b610d96565b34801561055357600080fd5b5061030761107c565b34801561056857600080fd5b50610307610577366004611dce565b6110ea565b34801561058857600080fd5b506103a160385481565b34801561059e57600080fd5b506105b26105ad366004611d99565b611106565b60408051938452602084019290925260ff16908201526060016102de565b3480156105dc57600080fd5b506103076105eb366004611f13565b61117d565b3480156105fc57600080fd5b5061030761060b366004611c91565b6111a9565b34801561061c57600080fd5b5061030761062b366004611f13565b6111cc565b34801561063c57600080fd5b5061030761064b366004611c91565b6111f8565b34801561065c57600080fd5b5061030761066b366004611e43565b61127b565b34801561067c57600080fd5b5061030761068b366004611dce565b611323565b34801561069c57600080fd5b506103296106ab366004611cac565b61133f565b6103076106be366004611e13565b61141a565b3480156106cf57600080fd5b506103a160395481565b603354600160a060020a031633146106f057600080fd5b603755565b603354600160a060020a0316331461070c57600080fd5b603a55565b6000818152603e6020526040812054610734575068056bc75e2d63100000919050565b506000908152603e602052604090205490565b919050565b6000818152603c6020526040902060010154600160a060020a031633146107e35760405160e560020a62461bcd02815260206004820152603060248201527f636c61696d3a206f6e6c792070726f706f73616c206f776e657220636f756c6460448201527f20636c61696d2070726f706f73616c2e0000000000000000000000000000000060648201526084015b60405180910390fd5b60006107ee826109d5565b90506002816007811115610804576108046120fa565b141561087b5760405160e560020a62461bcd02815260206004820152602560248201527f636c61696d3a2063616e6e6f7420636c61696d2063616e63656c65642070726f60448201527f706f73616c00000000000000000000000000000000000000000000000000000060648201526084016107da565b600081600781111561088f5761088f6120fa565b14156109055760405160e560020a62461bcd028152602060048201526024808201527f636c61696d3a2063616e6e6f7420636c61696d2070656e64696e672070726f7060448201527f6f73616c0000000000000000000000000000000000000000000000000000000060648201526084016107da565b6001816007811115610919576109196120fa565b14156109905760405160e560020a62461bcd02815260206004820152602360248201527f636c61696d3a2063616e6e6f7420636c61696d206163746976652070726f706f60448201527f73616c000000000000000000000000000000000000000000000000000000000060648201526084016107da565b61099982611497565b604080518381523360208201527f44a031cefb740fbc1d06fd16317f45b358f208b59e2259383b04a91110d04766910160405180910390a15050565b600081603654101580156109e95750600082115b610a5e5760405160e560020a62461bcd02815260206004820152602960248201527f476f7665726e6f72416c7068613a3a73746174653a20696e76616c696420707260448201527f6f706f73616c206964000000000000000000000000000000000000000000000060648201526084016107da565b6000828152603c6020526040812090610a7684610711565b600983015490915060ff1615610a90575060029392505050565b81600401544211610aa5575060009392505050565b81600501544211610aba575060019392505050565b81600701548260060154111580610ae357508082600701548360060154610ae1919061206b565b105b15610af2575060039392505050565b6002820154610b05575060049392505050565b6009820154610100900460ff1615610b21575060079392505050565b81600201544210610b36575060069392505050565b5060059392505050565b6000818152603c6020526040902060010154600160a060020a03163314610bd25760405160e560020a62461bcd02815260206004820152603260248201527f63616e63656c3a206f6e6c792070726f706f73616c206f776e657220636f756c60448201527f642063616e63656c2070726f706f73616c2e000000000000000000000000000060648201526084016107da565b6000610bdd826109d5565b90506007816007811115610bf357610bf36120fa565b1415610c6a5760405160e560020a62461bcd02815260206004820152602760248201527f63616e63656c3a2063616e6e6f742063616e63656c206578656375746564207060448201527f726f706f73616c0000000000000000000000000000000000000000000000000060648201526084016107da565b6000828152603c6020526040902060098101805460ff19166001179055610c9083611497565b6040518381527f789cf55be980739dad1d0699b93b58e806b51c9d96619bfa8fe0a28abaa7b30c906020015b60405180910390a1505050565b603354600160a060020a03163314610ce057600080fd5b60348054600160a060020a0398891673ffffffffffffffffffffffffffffffffffffffff19918216179091556035805497909816961695909517909555603792909255603855603955603a91909155603b55565b603354600160a060020a03163314610d4b57600080fd5b603955565b603354600160a060020a03163314610d6757600080fd5b6035805473ffffffffffffffffffffffffffffffffffffffff1916600160a060020a0392909216919091179055565b60008060395442610da7919061206b565b9050848110610e215760405160e560020a62461bcd02815260206004820152603260248201527f707572706f73653a3a2073746172742074696d65206d7573742062652065617260448201527f6c696572207468616e20656e642074696d65000000000000000000000000000060648201526084016107da565b603a54610e2e8287612083565b118015610e455750603b54610e438287612083565b105b610e945760405160e560020a62461bcd02815260206004820152601a60248201527f707572706f73653a3a20696c6c6567616c206475726174696f6e00000000000060448201526064016107da565b603854603454610eb391600160a060020a03909116903390309061153f565b60368054906000610ec3836120c6565b91905055506000604051806101800160405280603654815260200133600160a060020a031681526020016000815260200142815260200160395442610f08919061206b565b815260208082018990526000604080840182905260608085018390524360808087019190915260a080870185905260c080880186905260e0978801869052603680548752603c88528587208a5181558a89015160018201805473ffffffffffffffffffffffffffffffffffffffff1916600160a060020a039092169190911790558a8701516002820155948a015160038601559289015160048501559088015160058401558701516006830155948601516007820155610100808701516008830155610120870151600990920180546101408901516101608a015161ffff1990921694151561ff001916949094179315159092029290921762ff00001916620100009115159190910217905560375484548352603e9093529081902091909155905490519192507fd13343fafe34c623111af16dc426a9287142fbbda898c3e02f9689839eb66d3b916110659190339086908b908b908b90612018565b60405180910390a1603654925050505b9392505050565b603354600160a060020a0316331461109357600080fd5b603354604051600091600160a060020a0316907fc7c0c772add429241571afb3805861fb3cfa2af374534088b76cdb4325a87e9a908390a36033805473ffffffffffffffffffffffffffffffffffffffff19169055565b603354600160a060020a0316331461110157600080fd5b603855565b6000806000835160411461115f5760405160e560020a62461bcd02815260206004820152601860248201527f696e76616c6964207369676e6174757265206c656e677468000000000000000060448201526064016107da565b50505060208101516040820151606090920151909260009190911a90565b603354600160a060020a0316331461119457600080fd5b6000918252603c602052604090912060050155565b603354600160a060020a031633146111c057600080fd5b6111c9816115f0565b50565b603354600160a060020a031633146111e357600080fd5b6000918252603c602052604090912060040155565b600054610100900460ff168061120d5750303b155b8061121b575060005460ff16155b61123a5760405160e560020a62461bcd0281526004016107da90611fbb565b600054610100900460ff1615801561125c576000805461ffff19166101011790555b6112658261166c565b8015611277576000805461ff00191690555b5050565b6034546000858152603c602052604081206008015490916112ac91600160a060020a0390911690339086908661133f565b603554909150600160a060020a0380831691161461130f5760405160e560020a62461bcd02815260206004820181905260248201527f63617374566f746542795369673a20696e76616c6964207369676e617475726560448201526064016107da565b61131b3386868661173b565b505b50505050565b603354600160a060020a0316331461133a57600080fd5b603b55565b6040516c01000000000000000000000000600160a060020a038088168202602084015286160260348201526048810184905260688101839052600090819060880160405160208183030381529060405280519060200120905060008060006113a686611106565b60408051600081526020810180835289905260ff8316918101919091526060810184905260808101839052929550909350915060019060a0016020604051602081039080840390855afa158015611401573d6000803e3d6000fd5b5050604051601f1901519b9a5050505050505050505050565b603354600160a060020a0316331461143157600080fd5b6000828152603c6020526040902060098101805461ff0019166101008415159081029190911790915560011415611492576040518381527f712ae1383f79ac853f8d882153778e0260ef8f03b504e2866e0593e04d2b291f90602001610cbc565b505050565b6000818152603c602052604090206009015462010000900460ff16156115025760405160e560020a62461bcd02815260206004820152601660248201527f636c61696d3a20616c726561647920636c61696d65640000000000000000000060448201526064016107da565b6000818152603c60205260409020600901805462ff00001916620100001790556038546034546111c991600160a060020a03909116903390611923565b604051600160a060020a038085166024830152831660448201526064810182905261131d9085907f23b872dd00000000000000000000000000000000000000000000000000000000906084015b60408051601f198184030181529190526020810180517bffffffffffffffffffffffffffffffffffffffffffffffffffffffff167fffffffff000000000000000000000000000000000000000000000000000000009093169290921790915261196c565b600160a060020a03811661160357600080fd5b603354604051600160a060020a038084169216907fc7c0c772add429241571afb3805861fb3cfa2af374534088b76cdb4325a87e9a90600090a36033805473ffffffffffffffffffffffffffffffffffffffff1916600160a060020a0392909216919091179055565b600054610100900460ff16806116815750303b155b8061168f575060005460ff16155b6116ae5760405160e560020a62461bcd0281526004016107da90611fbb565b600054610100900460ff161580156116d0576000805461ffff19166101011790555b6033805473ffffffffffffffffffffffffffffffffffffffff1916600160a060020a0384169081179091556040516000907fc7c0c772add429241571afb3805861fb3cfa2af374534088b76cdb4325a87e9a908290a38015611277576000805461ff00191690555050565b6001611746846109d5565b6007811115611757576117576120fa565b146117cd5760405160e560020a62461bcd02815260206004820152602a60248201527f476f7665726e6f72416c7068613a3a5f63617374566f74653a20766f74696e6760448201527f20697320636c6f7365640000000000000000000000000000000000000000000060648201526084016107da565b6000838152603c60209081526040808320603d8352818420600160a060020a0389168552909252909120805460ff16156118725760405160e560020a62461bcd02815260206004820152602d60248201527f476f7665726e6f72416c7068613a3a5f63617374566f74653a20766f7465722060448201527f616c726561647920766f7465640000000000000000000000000000000000000060648201526084016107da565b831561189257828260060154611888919061206b565b60068301556118a8565b8282600701546118a2919061206b565b60078301555b8054841515610100810261ffff199092169190911760019081178355820184905560408051600160a060020a03891681526020810188905290810191909152606081018490527f877856338e13f63d0c36822ff0ef736b80934cd90574a3a5bc9262c39d217c469060800160405180910390a1505050505050565b604051600160a060020a0383166024820152604481018290526114929084907fa9059cbb000000000000000000000000000000000000000000000000000000009060640161158c565b60006119c1826040518060400160405280602081526020017f5361666545524332303a206c6f772d6c6576656c2063616c6c206661696c656481525085600160a060020a0316611a549092919063ffffffff16565b80519091501561149257808060200190518101906119df9190611d7c565b6114925760405160e560020a62461bcd02815260206004820152602a60248201527f5361666545524332303a204552433230206f7065726174696f6e20646964206e60448201527f6f7420737563636565640000000000000000000000000000000000000000000060648201526084016107da565b6060611a638484600085611a6b565b949350505050565b60603031831115611ae75760405160e560020a62461bcd02815260206004820152602660248201527f416464726573733a20696e73756666696369656e742062616c616e636520666f60448201527f722063616c6c000000000000000000000000000000000000000000000000000060648201526084016107da565b843b611b385760405160e560020a62461bcd02815260206004820152601d60248201527f416464726573733a2063616c6c20746f206e6f6e2d636f6e747261637400000060448201526064016107da565b60008086600160a060020a03168587604051611b549190611f61565b60006040518083038185875af1925050503d8060008114611b91576040519150601f19603f3d011682016040523d82523d6000602084013e611b96565b606091505b5091509150611ba6828286611bb1565b979650505050505050565b60608315611bc0575081611075565b825115611bd05782518084602001fd5b8160405160e560020a62461bcd0281526004016107da9190611fa8565b8035600160a060020a038116811461074757600080fd5b600082601f830112611c1557600080fd5b813567ffffffffffffffff80821115611c3057611c30612113565b604051601f8301601f19908116603f01168101908282118183101715611c5857611c58612113565b81604052838152866020858801011115611c7157600080fd5b836020870160208301376000602085830101528094505050505092915050565b600060208284031215611ca357600080fd5b61107582611bed565b600080600080600060a08688031215611cc457600080fd5b611ccd86611bed565b9450611cdb60208701611bed565b93506040860135925060608601359150608086013567ffffffffffffffff811115611d0557600080fd5b611d1188828901611c04565b9150509295509295909350565b600080600080600080600060e0888a031215611d3957600080fd5b611d4288611bed565b9650611d5060208901611bed565b96999698505050506040850135946060810135946080820135945060a0820135935060c0909101359150565b600060208284031215611d8e57600080fd5b81516110758161212c565b600060208284031215611dab57600080fd5b813567ffffffffffffffff811115611dc257600080fd5b611a6384828501611c04565b600060208284031215611de057600080fd5b5035919050565b60008060408385031215611dfa57600080fd5b82359150611e0a60208401611bed565b90509250929050565b60008060408385031215611e2657600080fd5b823591506020830135611e388161212c565b809150509250929050565b60008060008060808587031215611e5957600080fd5b843593506020850135611e6b8161212c565b925060408501359150606085013567ffffffffffffffff811115611e8e57600080fd5b611e9a87828801611c04565b91505092959194509250565b600080600060608486031215611ebb57600080fd5b83359250602084013567ffffffffffffffff80821115611eda57600080fd5b611ee687838801611c04565b93506040860135915080821115611efc57600080fd5b50611f0986828701611c04565b9150509250925092565b60008060408385031215611f2657600080fd5b50508035926020909101359150565b60008151808452611f4d81602086016020860161209a565b601f01601f19169290920160200192915050565b60008251611f7381846020870161209a565b9190910192915050565b6020810160088310611fa25760e060020a634e487b7102600052602160045260246000fd5b91905290565b6020815260006110756020830184611f35565b6020808252602e908201527f436f6e747261637420696e7374616e63652068617320616c726561647920626560408201527f656e20696e697469616c697a6564000000000000000000000000000000000000606082015260800190565b868152600160a060020a038616602082015284604082015283606082015260c06080820152600061204c60c0830185611f35565b82810360a084015261205e8185611f35565b9998505050505050505050565b6000821982111561207e5761207e6120e1565b500190565b600082821015612095576120956120e1565b500390565b60005b838110156120b557818101518382015260200161209d565b8381111561131d5750506000910152565b60006000198214156120da576120da6120e1565b5060010190565b60e060020a634e487b7102600052601160045260246000fd5b60e060020a634e487b7102600052602160045260246000fd5b60e060020a634e487b7102600052604160045260246000fd5b80151581146111c957600080fdfea26469706673582212200fba1ed9adea830cf768262257cd57fbe2e7c4fce8cb91a79da8fa916a4dffc364736f6c63430008070033",
  "linkReferences": {},
  "deployedLinkReferences": {}
}