{
  "_format": "hh-sol-artifact-1",
  "contractName": "DeFineVotingPortal",
  "sourceName": "contracts/DeFineVotingPortal.sol",
  "abi": [
    {
      "anonymous": false,
      "inputs": [
        {
          "indexed": true,
          "internalType": "address",
          "name": "previousGovernor",
          "type": "address"
        },
        {
          "indexed": true,
          "internalType": "address",
          "name": "newGovernor",
          "type": "address"
        }
      ],
      "name": "GovernorshipTransferred",
      "type": "event"
    },
    {
      "anonymous": false,
      "inputs": [
        {
          "indexed": false,
          "internalType": "uint256",
          "name": "id",
          "type": "uint256"
        }
      ],
      "name": "ProposalCanceled",
      "type": "event"
    },
    {
      "anonymous": false,
      "inputs": [
        {
          "indexed": false,
          "internalType": "uint256",
          "name": "id",
          "type": "uint256"
        },
        {
          "indexed": false,
          "internalType": "address",
          "name": "proposer",
          "type": "address"
        },
        {
          "indexed": false,
          "internalType": "uint256",
          "name": "startTime",
          "type": "uint256"
        },
        {
          "indexed": false,
          "internalType": "uint256",
          "name": "endTime",
          "type": "uint256"
        },
        {
          "indexed": false,
          "internalType": "string",
          "name": "title",
          "type": "string"
        },
        {
          "indexed": false,
          "internalType": "string",
          "name": "description",
          "type": "string"
        }
      ],
      "name": "ProposalCreated",
      "type": "event"
    },
    {
      "anonymous": false,
      "inputs": [
        {
          "indexed": false,
          "internalType": "uint256",
          "name": "id",
          "type": "uint256"
        }
      ],
      "name": "ProposalExecuted",
      "type": "event"
    },
    {
      "anonymous": false,
      "inputs": [
        {
          "indexed": false,
          "internalType": "address",
          "name": "voter",
          "type": "address"
        },
        {
          "indexed": false,
          "internalType": "uint256",
          "name": "proposalId",
          "type": "uint256"
        },
        {
          "indexed": false,
          "internalType": "bool",
          "name": "support",
          "type": "bool"
        },
        {
          "indexed": false,
          "internalType": "uint256",
          "name": "votes",
          "type": "uint256"
        }
      ],
      "name": "VoteCast",
      "type": "event"
    },
    {
      "inputs": [
        {
          "internalType": "uint256",
          "name": "proposalId",
          "type": "uint256"
        }
      ],
      "name": "cancel",
      "outputs": [],
      "stateMutability": "nonpayable",
      "type": "function"
    },
    {
      "inputs": [
        {
          "internalType": "uint256",
          "name": "proposalId",
          "type": "uint256"
        },
        {
          "internalType": "bool",
          "name": "support",
          "type": "bool"
        },
        {
          "internalType": "uint256",
          "name": "voteCount",
          "type": "uint256"
        },
        {
          "internalType": "bytes",
          "name": "signature",
          "type": "bytes"
        }
      ],
      "name": "castVoteBySig",
      "outputs": [],
      "stateMutability": "nonpayable",
      "type": "function"
    },
    {
      "inputs": [
        {
          "internalType": "uint256",
          "name": "proposalId",
          "type": "uint256"
        }
      ],
      "name": "getProposalQuorumCount",
      "outputs": [
        {
          "internalType": "uint256",
          "name": "",
          "type": "uint256"
        }
      ],
      "stateMutability": "view",
      "type": "function"
    },
    {
      "inputs": [],
      "name": "globalPendingTime",
      "outputs": [
        {
          "internalType": "uint256",
          "name": "",
          "type": "uint256"
        }
      ],
      "stateMutability": "view",
      "type": "function"
    },
    {
      "inputs": [],
      "name": "governor",
      "outputs": [
        {
          "internalType": "address",
          "name": "",
          "type": "address"
        }
      ],
      "stateMutability": "view",
      "type": "function"
    },
    {
      "inputs": [
        {
          "internalType": "address",
          "name": "_governor",
          "type": "address"
        }
      ],
      "name": "initialize",
      "outputs": [],
      "stateMutability": "nonpayable",
      "type": "function"
    },
    {
      "inputs": [],
      "name": "maxDuration",
      "outputs": [
        {
          "internalType": "uint256",
          "name": "",
          "type": "uint256"
        }
      ],
      "stateMutability": "view",
      "type": "function"
    },
    {
      "inputs": [],
      "name": "minDuration",
      "outputs": [
        {
          "internalType": "uint256",
          "name": "",
          "type": "uint256"
        }
      ],
      "stateMutability": "view",
      "type": "function"
    },
    {
      "inputs": [],
      "name": "proposalThresholdCount",
      "outputs": [
        {
          "internalType": "uint256",
          "name": "",
          "type": "uint256"
        }
      ],
      "stateMutability": "view",
      "type": "function"
    },
    {
      "inputs": [
        {
          "internalType": "uint256",
          "name": "",
          "type": "uint256"
        }
      ],
      "name": "proposals",
      "outputs": [
        {
          "internalType": "uint256",
          "name": "id",
          "type": "uint256"
        },
        {
          "internalType": "address",
          "name": "proposer",
          "type": "address"
        },
        {
          "internalType": "uint256",
          "name": "eta",
          "type": "uint256"
        },
        {
          "internalType": "uint256",
          "name": "createTime",
          "type": "uint256"
        },
        {
          "internalType": "uint256",
          "name": "startTime",
          "type": "uint256"
        },
        {
          "internalType": "uint256",
          "name": "endTime",
          "type": "uint256"
        },
        {
          "internalType": "uint256",
          "name": "forVotes",
          "type": "uint256"
        },
        {
          "internalType": "uint256",
          "name": "againstVotes",
          "type": "uint256"
        },
        {
          "internalType": "uint256",
          "name": "blockHeight",
          "type": "uint256"
        },
        {
          "internalType": "bool",
          "name": "canceled",
          "type": "bool"
        },
        {
          "internalType": "bool",
          "name": "executed",
          "type": "bool"
        }
      ],
      "stateMutability": "view",
      "type": "function"
    },
    {
      "inputs": [
        {
          "internalType": "uint256",
          "name": "endTime",
          "type": "uint256"
        },
        {
          "internalType": "string",
          "name": "title",
          "type": "string"
        },
        {
          "internalType": "string",
          "name": "description",
          "type": "string"
        }
      ],
      "name": "propose",
      "outputs": [
        {
          "internalType": "uint256",
          "name": "",
          "type": "uint256"
        }
      ],
      "stateMutability": "nonpayable",
      "type": "function"
    },
    {
      "inputs": [],
      "name": "quorumVoteCount",
      "outputs": [
        {
          "internalType": "uint256",
          "name": "",
          "type": "uint256"
        }
      ],
      "stateMutability": "view",
      "type": "function"
    },
    {
      "inputs": [
        {
          "internalType": "uint256",
          "name": "",
          "type": "uint256"
        },
        {
          "internalType": "address",
          "name": "",
          "type": "address"
        }
      ],
      "name": "receipts",
      "outputs": [
        {
          "internalType": "bool",
          "name": "hasVoted",
          "type": "bool"
        },
        {
          "internalType": "bool",
          "name": "support",
          "type": "bool"
        },
        {
          "internalType": "uint256",
          "name": "votes",
          "type": "uint256"
        }
      ],
      "stateMutability": "view",
      "type": "function"
    },
    {
      "inputs": [],
      "name": "renounceGovernorship",
      "outputs": [],
      "stateMutability": "nonpayable",
      "type": "function"
    },
    {
      "inputs": [
        {
          "internalType": "uint256",
          "name": "proposalId",
          "type": "uint256"
        },
        {
          "internalType": "uint256",
          "name": "time",
          "type": "uint256"
        }
      ],
      "name": "setEndTime",
      "outputs": [],
      "stateMutability": "nonpayable",
      "type": "function"
    },
    {
      "inputs": [
        {
          "internalType": "uint256",
          "name": "proposalId",
          "type": "uint256"
        },
        {
          "internalType": "bool",
          "name": "status",
          "type": "bool"
        }
      ],
      "name": "setExecute",
      "outputs": [],
      "stateMutability": "payable",
      "type": "function"
    },
    {
      "inputs": [
        {
          "internalType": "uint256",
          "name": "time",
          "type": "uint256"
        }
      ],
      "name": "setGlobalPendingTime",
      "outputs": [],
      "stateMutability": "nonpayable",
      "type": "function"
    },
    {
      "inputs": [
        {
          "internalType": "address",
          "name": "_voteToken",
          "type": "address"
        },
        {
          "internalType": "address",
          "name": "_signer",
          "type": "address"
        },
        {
          "internalType": "uint256",
          "name": "_quorumVoteCount",
          "type": "uint256"
        },
        {
          "internalType": "uint256",
          "name": "_proposalThresholdCount",
          "type": "uint256"
        },
        {
          "internalType": "uint256",
          "name": "_globalPendingTime",
          "type": "uint256"
        },
        {
          "internalType": "uint256",
          "name": "_minDuration",
          "type": "uint256"
        },
        {
          "internalType": "uint256",
          "name": "_maxDuration",
          "type": "uint256"
        },
        {
          "internalType": "address",
          "name": "_treasury",
          "type": "address"
        }
      ],
      "name": "setInitialValue",
      "outputs": [],
      "stateMutability": "nonpayable",
      "type": "function"
    },
    {
      "inputs": [
        {
          "internalType": "uint256",
          "name": "_duration",
          "type": "uint256"
        }
      ],
      "name": "setMaxDuration",
      "outputs": [],
      "stateMutability": "nonpayable",
      "type": "function"
    },
    {
      "inputs": [
        {
          "internalType": "uint256",
          "name": "_duration",
          "type": "uint256"
        }
      ],
      "name": "setMinDuration",
      "outputs": [],
      "stateMutability": "nonpayable",
      "type": "function"
    },
    {
      "inputs": [
        {
          "internalType": "uint256",
          "name": "count",
          "type": "uint256"
        }
      ],
      "name": "setProposalThrehold",
      "outputs": [],
      "stateMutability": "nonpayable",
      "type": "function"
    },
    {
      "inputs": [
        {
          "internalType": "uint256",
          "name": "count",
          "type": "uint256"
        }
      ],
      "name": "setQuorumVotes",
      "outputs": [],
      "stateMutability": "nonpayable",
      "type": "function"
    },
    {
      "inputs": [
        {
          "internalType": "address",
          "name": "_signer",
          "type": "address"
        }
      ],
      "name": "setSigner",
      "outputs": [],
      "stateMutability": "nonpayable",
      "type": "function"
    },
    {
      "inputs": [
        {
          "internalType": "uint256",
          "name": "proposalId",
          "type": "uint256"
        },
        {
          "internalType": "uint256",
          "name": "time",
          "type": "uint256"
        }
      ],
      "name": "setStartTime",
      "outputs": [],
      "stateMutability": "nonpayable",
      "type": "function"
    },
    {
      "inputs": [
        {
          "internalType": "address",
          "name": "_treasury",
          "type": "address"
        }
      ],
      "name": "setTreasury",
      "outputs": [],
      "stateMutability": "nonpayable",
      "type": "function"
    },
    {
      "inputs": [
        {
          "internalType": "bytes",
          "name": "sig",
          "type": "bytes"
        }
      ],
      "name": "splitSignature",
      "outputs": [
        {
          "internalType": "bytes32",
          "name": "r",
          "type": "bytes32"
        },
        {
          "internalType": "bytes32",
          "name": "s",
          "type": "bytes32"
        },
        {
          "internalType": "uint8",
          "name": "v",
          "type": "uint8"
        }
      ],
      "stateMutability": "pure",
      "type": "function"
    },
    {
      "inputs": [
        {
          "internalType": "uint256",
          "name": "proposalId",
          "type": "uint256"
        }
      ],
      "name": "state",
      "outputs": [
        {
          "internalType": "enum DeFineVotingPortal.ProposalState",
          "name": "",
          "type": "uint8"
        }
      ],
      "stateMutability": "view",
      "type": "function"
    },
    {
      "inputs": [
        {
          "internalType": "address",
          "name": "newGovernor",
          "type": "address"
        }
      ],
      "name": "transferGovernorship",
      "outputs": [],
      "stateMutability": "nonpayable",
      "type": "function"
    },
    {
      "inputs": [],
      "name": "treasury",
      "outputs": [
        {
          "internalType": "address",
          "name": "",
          "type": "address"
        }
      ],
      "stateMutability": "view",
      "type": "function"
    },
    {
      "inputs": [
        {
          "internalType": "address",
          "name": "_voteToken",
          "type": "address"
        },
        {
          "internalType": "address",
          "name": "_voter",
          "type": "address"
        },
        {
          "internalType": "uint256",
          "name": "_voteCount",
          "type": "uint256"
        },
        {
          "internalType": "uint256",
          "name": "_blockHeight",
          "type": "uint256"
        },
        {
          "internalType": "bytes",
          "name": "signature",
          "type": "bytes"
        }
      ],
      "name": "verify",
      "outputs": [
        {
          "internalType": "address",
          "name": "",
          "type": "address"
        }
      ],
      "stateMutability": "pure",
      "type": "function"
    },
    {
      "inputs": [],
      "name": "voteToken",
      "outputs": [
        {
          "internalType": "address",
          "name": "",
          "type": "address"
        }
      ],
      "stateMutability": "view",
      "type": "function"
    }
  ],
  "bytecode": "0x608060405234801561001057600080fd5b50611de1806100206000396000f3fe6080604052600436106101f5576000357c0100000000000000000000000000000000000000000000000000000000900480637eaf85781161011f578063c4d66de8116100b2578063dc0cc31d11610081578063dc0cc31d14610689578063f0f44260146106a9578063f1d8c777146106c9578063fd101f0f146106dc57600080fd5b8063c4d66de814610609578063c59321d314610629578063cf0f34c414610649578063cffc18eb1461066957600080fd5b8063a7bb5803116100ee578063a7bb58031461056b578063abfbac4b146105a9578063b6aa515b146105c9578063ba278e08146105e957600080fd5b80637eaf85781461050057806381c0c26314610520578063823363c6146105355780639d5b353f1461055557600080fd5b806340e58ee51161019757806361d027b31161016657806361d027b31461048a57806364b279fa146104aa5780636c19e783146104ca5780636db5c8fd146104ea57600080fd5b806340e58ee5146103d55780634178b249146103f557806355b3d2851461045e578063567157611461047457600080fd5b8063160d66ae116101d3578063160d66ae1461033a5780631674bade1461035a57806335efd9f11461037a5780633e4f49e6146103a857600080fd5b8063013cf08b146101fa57806302ec8f9e146102e05780630c340a2414610302575b600080fd5b34801561020657600080fd5b5061027c610215366004611a3f565b603d6020526000908152604090208054600182015460028301546003840154600485015460058601546006870154600788015460088901546009909901549798600160a060020a039097169795969495939492939192909160ff808216916101009004168b565b604080519b8c52600160a060020a03909a1660208c0152988a01979097526060890195909552608088019390935260a087019190915260c086015260e085015261010084015215156101208301521515610140820152610160015b60405180910390f35b3480156102ec57600080fd5b506103006102fb366004611a3f565b6106f2565b005b34801561030e57600080fd5b5060335461032290600160a060020a031681565b604051600160a060020a0390911681526020016102d7565b34801561034657600080fd5b5060345461032290600160a060020a031681565b34801561036657600080fd5b50610300610375366004611a3f565b61070e565b34801561038657600080fd5b5061039a610395366004611a3f565b61072a565b6040519081526020016102d7565b3480156103b457600080fd5b506103c86103c3366004611a3f565b610766565b6040516102d79190611bee565b3480156103e157600080fd5b506103006103f0366004611a3f565b6108d6565b34801561040157600080fd5b50610441610410366004611a58565b603e6020908152600092835260408084209091529082529020805460019091015460ff808316926101009004169083565b6040805193151584529115156020840152908201526060016102d7565b34801561046a57600080fd5b5061039a60385481565b34801561048057600080fd5b5061039a603b5481565b34801561049657600080fd5b5060375461032290600160a060020a031681565b3480156104b657600080fd5b506103006104c5366004611a3f565b610a5d565b3480156104d657600080fd5b506103006104e53660046118ec565b610a79565b3480156104f657600080fd5b5061039a603c5481565b34801561050c57600080fd5b5061039a61051b366004611b17565b610ab2565b34801561052c57600080fd5b50610300610d71565b34801561054157600080fd5b50610300610550366004611a3f565b610dd2565b34801561056157600080fd5b5061039a60395481565b34801561057757600080fd5b5061058b610586366004611a0a565b610dee565b60408051938452602084019290925260ff16908201526060016102d7565b3480156105b557600080fd5b506103006105c4366004611b84565b610e65565b3480156105d557600080fd5b506103006105e43660046118ec565b610e91565b3480156105f557600080fd5b50610300610604366004611b84565b610eb4565b34801561061557600080fd5b506103006106243660046118ec565b610ee0565b34801561063557600080fd5b50610300610644366004611ab4565b610f63565b34801561065557600080fd5b50610300610664366004611a3f565b61100b565b34801561067557600080fd5b50610322610684366004611907565b611027565b34801561069557600080fd5b506103006106a4366004611979565b611102565b3480156106b557600080fd5b506103006106c43660046118ec565b611170565b6103006106d7366004611a84565b6111a9565b3480156106e857600080fd5b5061039a603a5481565b603354600160a060020a0316331461070957600080fd5b603855565b603354600160a060020a0316331461072557600080fd5b603b55565b6000818152603f602052604081205461074e575069152d02c7e14af6800000919050565b506000908152603f602052604090205490565b919050565b6000816036541015801561077a5750600082115b6107f45760405160e560020a62461bcd02815260206004820152602960248201527f476f7665726e6f72416c7068613a3a73746174653a20696e76616c696420707260448201527f6f706f73616c206964000000000000000000000000000000000000000000000060648201526084015b60405180910390fd5b6000828152603d602052604081209061080c8461072a565b600983015490915060ff1615610826575060029392505050565b8160040154421161083b575060009392505050565b81600501544211610850575060019392505050565b81600701548260060154111580610879575080826007015483600601546108779190611cdc565b105b15610888575060039392505050565b600282015461089b575060049392505050565b6009820154610100900460ff16156108b7575060079392505050565b816002015442106108cc575060069392505050565b5060059392505050565b6000818152603d6020526040902060010154600160a060020a031633146109685760405160e560020a62461bcd02815260206004820152603260248201527f63616e63656c3a206f6e6c792070726f706f73616c206f776e657220636f756c60448201527f642063616e63656c2070726f706f73616c2e000000000000000000000000000060648201526084016107eb565b600061097382610766565b9050600781600781111561098957610989611d6b565b1415610a005760405160e560020a62461bcd02815260206004820152602760248201527f63616e63656c3a2063616e6e6f742063616e63656c206578656375746564207060448201527f726f706f73616c0000000000000000000000000000000000000000000000000060648201526084016107eb565b6000828152603d60205260409081902060098101805460ff1916600117905590517f789cf55be980739dad1d0699b93b58e806b51c9d96619bfa8fe0a28abaa7b30c90610a509085815260200190565b60405180910390a1505050565b603354600160a060020a03163314610a7457600080fd5b603a55565b603354600160a060020a03163314610a9057600080fd5b60358054600160a060020a031916600160a060020a0392909216919091179055565b600080603a5442610ac39190611cdc565b9050848110610b3d5760405160e560020a62461bcd02815260206004820152603260248201527f707572706f73653a3a2073746172742074696d65206d7573742062652065617260448201527f6c696572207468616e20656e642074696d65000000000000000000000000000060648201526084016107eb565b603b54610b4a8287611cf4565b118015610b615750603c54610b5f8287611cf4565b105b610bb05760405160e560020a62461bcd02815260206004820152601a60248201527f707572706f73653a3a20696c6c6567616c206475726174696f6e00000000000060448201526064016107eb565b603754603954603454610bd492600160a060020a0391821692339290911690611226565b60368054906000610be483611d37565b91905055506000604051806101600160405280603654815260200133600160a060020a0316815260200160008152602001428152602001603a5442610c299190611cdc565b815260208082018990526000604080840182905260608085018390524360808087019190915260a080870185905260c0968701859052603680548652603d87528486208951815589880151600182018054600160a060020a031916600160a060020a03909216919091179055898601516002820155938901516003850155918801516004840155870151600583015594860151600682015560e086015160078201556101008087015160088301556101208701516009909201805461014089015161ffff1990911693151561ff0019169390931792151590910291909117905560385484548352603f9093529081902091909155905490519192507fd13343fafe34c623111af16dc426a9287142fbbda898c3e02f9689839eb66d3b91610d5a9190339086908b908b908b90611c89565b60405180910390a1603654925050505b9392505050565b603354600160a060020a03163314610d8857600080fd5b603354604051600091600160a060020a0316907fc7c0c772add429241571afb3805861fb3cfa2af374534088b76cdb4325a87e9a908390a360338054600160a060020a0319169055565b603354600160a060020a03163314610de957600080fd5b603955565b60008060008351604114610e475760405160e560020a62461bcd02815260206004820152601860248201527f696e76616c6964207369676e6174757265206c656e677468000000000000000060448201526064016107eb565b50505060208101516040820151606090920151909260009190911a90565b603354600160a060020a03163314610e7c57600080fd5b6000918252603d602052604090912060050155565b603354600160a060020a03163314610ea857600080fd5b610eb1816112ae565b50565b603354600160a060020a03163314610ecb57600080fd5b6000918252603d602052604090912060040155565b600054610100900460ff1680610ef55750303b155b80610f03575060005460ff16155b610f225760405160e560020a62461bcd0281526004016107eb90611c2c565b600054610100900460ff16158015610f44576000805461ffff19166101011790555b610f4d8261131d565b8015610f5f576000805461ff00191690555b5050565b6034546000858152603d60205260408120600801549091610f9491600160a060020a03909116903390869086611027565b603554909150600160a060020a03808316911614610ff75760405160e560020a62461bcd02815260206004820181905260248201527f63617374566f746542795369673a20696e76616c6964207369676e617475726560448201526064016107eb565b611003338686866113df565b505b50505050565b603354600160a060020a0316331461102257600080fd5b603c55565b6040516c01000000000000000000000000600160a060020a0380881682026020840152861602603482015260488101849052606881018390526000908190608801604051602081830303815290604052805190602001209050600080600061108e86610dee565b60408051600081526020810180835289905260ff8316918101919091526060810184905260808101839052929550909350915060019060a0016020604051602081039080840390855afa1580156110e9573d6000803e3d6000fd5b5050604051601f1901519b9a5050505050505050505050565b603354600160a060020a0316331461111957600080fd5b60348054600160a060020a03998a16600160a060020a03199182161790915560358054988a1698821698909817909755603895909555603993909355603a91909155603b55603c5560378054919093169116179055565b603354600160a060020a0316331461118757600080fd5b60378054600160a060020a031916600160a060020a0392909216919091179055565b603354600160a060020a031633146111c057600080fd5b6000828152603d6020526040902060098101805461ff0019166101008415159081029190911790915560011415611221576040518381527f712ae1383f79ac853f8d882153778e0260ef8f03b504e2866e0593e04d2b291f90602001610a50565b505050565b60408051600160a060020a0385811660248301528416604482015260648082018490528251808303909101815260849091019091526020810180517bffffffffffffffffffffffffffffffffffffffffffffffffffffffff167f23b872dd000000000000000000000000000000000000000000000000000000001790526110059085906115c7565b600160a060020a0381166112c157600080fd5b603354604051600160a060020a038084169216907fc7c0c772add429241571afb3805861fb3cfa2af374534088b76cdb4325a87e9a90600090a360338054600160a060020a031916600160a060020a0392909216919091179055565b600054610100900460ff16806113325750303b155b80611340575060005460ff16155b61135f5760405160e560020a62461bcd0281526004016107eb90611c2c565b600054610100900460ff16158015611381576000805461ffff19166101011790555b60338054600160a060020a031916600160a060020a0384169081179091556040516000907fc7c0c772add429241571afb3805861fb3cfa2af374534088b76cdb4325a87e9a908290a38015610f5f576000805461ff00191690555050565b60016113ea84610766565b60078111156113fb576113fb611d6b565b146114715760405160e560020a62461bcd02815260206004820152602a60248201527f476f7665726e6f72416c7068613a3a5f63617374566f74653a20766f74696e6760448201527f20697320636c6f7365640000000000000000000000000000000000000000000060648201526084016107eb565b6000838152603d60209081526040808320603e8352818420600160a060020a0389168552909252909120805460ff16156115165760405160e560020a62461bcd02815260206004820152602d60248201527f476f7665726e6f72416c7068613a3a5f63617374566f74653a20766f7465722060448201527f616c726561647920766f7465640000000000000000000000000000000000000060648201526084016107eb565b83156115365782826006015461152c9190611cdc565b600683015561154c565b8282600701546115469190611cdc565b60078301555b8054841515610100810261ffff199092169190911760019081178355820184905560408051600160a060020a03891681526020810188905290810191909152606081018490527f877856338e13f63d0c36822ff0ef736b80934cd90574a3a5bc9262c39d217c469060800160405180910390a1505050505050565b600061161c826040518060400160405280602081526020017f5361666545524332303a206c6f772d6c6576656c2063616c6c206661696c656481525085600160a060020a03166116af9092919063ffffffff16565b805190915015611221578080602001905181019061163a91906119ed565b6112215760405160e560020a62461bcd02815260206004820152602a60248201527f5361666545524332303a204552433230206f7065726174696f6e20646964206e60448201527f6f7420737563636565640000000000000000000000000000000000000000000060648201526084016107eb565b60606116be84846000856116c6565b949350505050565b606030318311156117425760405160e560020a62461bcd02815260206004820152602660248201527f416464726573733a20696e73756666696369656e742062616c616e636520666f60448201527f722063616c6c000000000000000000000000000000000000000000000000000060648201526084016107eb565b843b6117935760405160e560020a62461bcd02815260206004820152601d60248201527f416464726573733a2063616c6c20746f206e6f6e2d636f6e747261637400000060448201526064016107eb565b60008086600160a060020a031685876040516117af9190611bd2565b60006040518083038185875af1925050503d80600081146117ec576040519150601f19603f3d011682016040523d82523d6000602084013e6117f1565b606091505b509150915061180182828661180c565b979650505050505050565b6060831561181b575081610d6a565b82511561182b5782518084602001fd5b8160405160e560020a62461bcd0281526004016107eb9190611c19565b8035600160a060020a038116811461076157600080fd5b600082601f83011261187057600080fd5b813567ffffffffffffffff8082111561188b5761188b611d84565b604051601f8301601f19908116603f011681019082821181831017156118b3576118b3611d84565b816040528381528660208588010111156118cc57600080fd5b836020870160208301376000602085830101528094505050505092915050565b6000602082840312156118fe57600080fd5b610d6a82611848565b600080600080600060a0868803121561191f57600080fd5b61192886611848565b945061193660208701611848565b93506040860135925060608601359150608086013567ffffffffffffffff81111561196057600080fd5b61196c8882890161185f565b9150509295509295909350565b600080600080600080600080610100898b03121561199657600080fd5b61199f89611848565b97506119ad60208a01611848565b965060408901359550606089013594506080890135935060a0890135925060c089013591506119de60e08a01611848565b90509295985092959890939650565b6000602082840312156119ff57600080fd5b8151610d6a81611d9d565b600060208284031215611a1c57600080fd5b813567ffffffffffffffff811115611a3357600080fd5b6116be8482850161185f565b600060208284031215611a5157600080fd5b5035919050565b60008060408385031215611a6b57600080fd5b82359150611a7b60208401611848565b90509250929050565b60008060408385031215611a9757600080fd5b823591506020830135611aa981611d9d565b809150509250929050565b60008060008060808587031215611aca57600080fd5b843593506020850135611adc81611d9d565b925060408501359150606085013567ffffffffffffffff811115611aff57600080fd5b611b0b8782880161185f565b91505092959194509250565b600080600060608486031215611b2c57600080fd5b83359250602084013567ffffffffffffffff80821115611b4b57600080fd5b611b578783880161185f565b93506040860135915080821115611b6d57600080fd5b50611b7a8682870161185f565b9150509250925092565b60008060408385031215611b9757600080fd5b50508035926020909101359150565b60008151808452611bbe816020860160208601611d0b565b601f01601f19169290920160200192915050565b60008251611be4818460208701611d0b565b9190910192915050565b6020810160088310611c135760e060020a634e487b7102600052602160045260246000fd5b91905290565b602081526000610d6a6020830184611ba6565b6020808252602e908201527f436f6e747261637420696e7374616e63652068617320616c726561647920626560408201527f656e20696e697469616c697a6564000000000000000000000000000000000000606082015260800190565b868152600160a060020a038616602082015284604082015283606082015260c060808201526000611cbd60c0830185611ba6565b82810360a0840152611ccf8185611ba6565b9998505050505050505050565b60008219821115611cef57611cef611d52565b500190565b600082821015611d0657611d06611d52565b500390565b60005b83811015611d26578181015183820152602001611d0e565b838111156110055750506000910152565b6000600019821415611d4b57611d4b611d52565b5060010190565b60e060020a634e487b7102600052601160045260246000fd5b60e060020a634e487b7102600052602160045260246000fd5b60e060020a634e487b7102600052604160045260246000fd5b8015158114610eb157600080fdfea2646970667358221220da4342d36aea25ba5a9ad23f35c8995ca47ef4b7cb9c34f05504e0c826535a1064736f6c63430008070033",
  "linkReferences": {},
  "deployedLinkReferences": {}
}