{
  "_format": "hh-sol-artifact-1",
  "contractName": "DeFineVotingPortalV2",
  "sourceName": "contracts/DeFineVotingPortalV2.sol",
  "abi": [
    {
      "anonymous": false,
      "inputs": [
        {
          "indexed": true,
          "internalType": "address",
          "name": "previousGovernor",
          "type": "address"
        },
        {
          "indexed": true,
          "internalType": "address",
          "name": "newGovernor",
          "type": "address"
        }
      ],
      "name": "GovernorshipTransferred",
      "type": "event"
    },
    {
      "anonymous": false,
      "inputs": [
        {
          "indexed": false,
          "internalType": "uint256",
          "name": "id",
          "type": "uint256"
        }
      ],
      "name": "ProposalCanceled",
      "type": "event"
    },
    {
      "anonymous": false,
      "inputs": [
        {
          "indexed": false,
          "internalType": "uint256",
          "name": "id",
          "type": "uint256"
        },
        {
          "indexed": false,
          "internalType": "address",
          "name": "proposer",
          "type": "address"
        },
        {
          "indexed": false,
          "internalType": "address[]",
          "name": "targets",
          "type": "address[]"
        },
        {
          "indexed": false,
          "internalType": "uint256[]",
          "name": "values",
          "type": "uint256[]"
        },
        {
          "indexed": false,
          "internalType": "string[]",
          "name": "signatures",
          "type": "string[]"
        },
        {
          "indexed": false,
          "internalType": "bytes[]",
          "name": "calldatas",
          "type": "bytes[]"
        },
        {
          "indexed": false,
          "internalType": "uint256",
          "name": "startTime",
          "type": "uint256"
        },
        {
          "indexed": false,
          "internalType": "uint256",
          "name": "endTime",
          "type": "uint256"
        },
        {
          "indexed": false,
          "internalType": "string",
          "name": "title",
          "type": "string"
        },
        {
          "indexed": false,
          "internalType": "string",
          "name": "description",
          "type": "string"
        }
      ],
      "name": "ProposalCreated",
      "type": "event"
    },
    {
      "anonymous": false,
      "inputs": [
        {
          "indexed": false,
          "internalType": "uint256",
          "name": "id",
          "type": "uint256"
        }
      ],
      "name": "ProposalExecuted",
      "type": "event"
    },
    {
      "anonymous": false,
      "inputs": [
        {
          "indexed": false,
          "internalType": "uint256",
          "name": "id",
          "type": "uint256"
        },
        {
          "indexed": false,
          "internalType": "uint256",
          "name": "eta",
          "type": "uint256"
        }
      ],
      "name": "ProposalQueued",
      "type": "event"
    },
    {
      "anonymous": false,
      "inputs": [
        {
          "indexed": false,
          "internalType": "address",
          "name": "voter",
          "type": "address"
        },
        {
          "indexed": false,
          "internalType": "uint256",
          "name": "proposalId",
          "type": "uint256"
        },
        {
          "indexed": false,
          "internalType": "bool",
          "name": "support",
          "type": "bool"
        },
        {
          "indexed": false,
          "internalType": "uint256",
          "name": "votes",
          "type": "uint256"
        }
      ],
      "name": "VoteCast",
      "type": "event"
    },
    {
      "inputs": [
        {
          "internalType": "uint256",
          "name": "proposalId",
          "type": "uint256"
        }
      ],
      "name": "cancel",
      "outputs": [],
      "stateMutability": "nonpayable",
      "type": "function"
    },
    {
      "inputs": [
        {
          "internalType": "uint256",
          "name": "proposalId",
          "type": "uint256"
        },
        {
          "internalType": "bool",
          "name": "support",
          "type": "bool"
        },
        {
          "internalType": "uint256",
          "name": "voteCount",
          "type": "uint256"
        },
        {
          "internalType": "bytes",
          "name": "signature",
          "type": "bytes"
        }
      ],
      "name": "castVoteBySig",
      "outputs": [],
      "stateMutability": "nonpayable",
      "type": "function"
    },
    {
      "inputs": [
        {
          "internalType": "uint256",
          "name": "proposalId",
          "type": "uint256"
        }
      ],
      "name": "execute",
      "outputs": [],
      "stateMutability": "payable",
      "type": "function"
    },
    {
      "inputs": [
        {
          "internalType": "uint256",
          "name": "proposalId",
          "type": "uint256"
        }
      ],
      "name": "getProposalQuorumCount",
      "outputs": [
        {
          "internalType": "uint256",
          "name": "",
          "type": "uint256"
        }
      ],
      "stateMutability": "view",
      "type": "function"
    },
    {
      "inputs": [],
      "name": "globalPendingTime",
      "outputs": [
        {
          "internalType": "uint256",
          "name": "",
          "type": "uint256"
        }
      ],
      "stateMutability": "view",
      "type": "function"
    },
    {
      "inputs": [],
      "name": "governor",
      "outputs": [
        {
          "internalType": "address",
          "name": "",
          "type": "address"
        }
      ],
      "stateMutability": "view",
      "type": "function"
    },
    {
      "inputs": [
        {
          "internalType": "address",
          "name": "_governor",
          "type": "address"
        }
      ],
      "name": "initialize",
      "outputs": [],
      "stateMutability": "nonpayable",
      "type": "function"
    },
    {
      "inputs": [],
      "name": "maxDuration",
      "outputs": [
        {
          "internalType": "uint256",
          "name": "",
          "type": "uint256"
        }
      ],
      "stateMutability": "view",
      "type": "function"
    },
    {
      "inputs": [],
      "name": "minDuration",
      "outputs": [
        {
          "internalType": "uint256",
          "name": "",
          "type": "uint256"
        }
      ],
      "stateMutability": "view",
      "type": "function"
    },
    {
      "inputs": [],
      "name": "proposalCount",
      "outputs": [
        {
          "internalType": "uint256",
          "name": "",
          "type": "uint256"
        }
      ],
      "stateMutability": "view",
      "type": "function"
    },
    {
      "inputs": [],
      "name": "proposalMaxOperations",
      "outputs": [
        {
          "internalType": "uint256",
          "name": "",
          "type": "uint256"
        }
      ],
      "stateMutability": "view",
      "type": "function"
    },
    {
      "inputs": [],
      "name": "proposalThresholdCount",
      "outputs": [
        {
          "internalType": "uint256",
          "name": "",
          "type": "uint256"
        }
      ],
      "stateMutability": "view",
      "type": "function"
    },
    {
      "inputs": [
        {
          "internalType": "uint256",
          "name": "",
          "type": "uint256"
        }
      ],
      "name": "proposals",
      "outputs": [
        {
          "internalType": "uint256",
          "name": "id",
          "type": "uint256"
        },
        {
          "internalType": "address",
          "name": "proposer",
          "type": "address"
        },
        {
          "internalType": "uint256",
          "name": "proposalThresholdCount",
          "type": "uint256"
        },
        {
          "internalType": "uint256",
          "name": "eta",
          "type": "uint256"
        },
        {
          "internalType": "uint256",
          "name": "createTime",
          "type": "uint256"
        },
        {
          "internalType": "uint256",
          "name": "startTime",
          "type": "uint256"
        },
        {
          "internalType": "uint256",
          "name": "endTime",
          "type": "uint256"
        },
        {
          "internalType": "uint256",
          "name": "forVotes",
          "type": "uint256"
        },
        {
          "internalType": "uint256",
          "name": "againstVotes",
          "type": "uint256"
        },
        {
          "internalType": "uint256",
          "name": "blockHeight",
          "type": "uint256"
        },
        {
          "internalType": "bool",
          "name": "canceled",
          "type": "bool"
        },
        {
          "internalType": "bool",
          "name": "executed",
          "type": "bool"
        }
      ],
      "stateMutability": "view",
      "type": "function"
    },
    {
      "inputs": [
        {
          "internalType": "address[]",
          "name": "targets",
          "type": "address[]"
        },
        {
          "internalType": "uint256[]",
          "name": "values",
          "type": "uint256[]"
        },
        {
          "internalType": "string[]",
          "name": "signatures",
          "type": "string[]"
        },
        {
          "internalType": "bytes[]",
          "name": "calldatas",
          "type": "bytes[]"
        },
        {
          "internalType": "uint256",
          "name": "endTime",
          "type": "uint256"
        },
        {
          "internalType": "string",
          "name": "title",
          "type": "string"
        },
        {
          "internalType": "string",
          "name": "description",
          "type": "string"
        }
      ],
      "name": "propose",
      "outputs": [
        {
          "internalType": "uint256",
          "name": "",
          "type": "uint256"
        }
      ],
      "stateMutability": "nonpayable",
      "type": "function"
    },
    {
      "inputs": [
        {
          "internalType": "uint256",
          "name": "proposalId",
          "type": "uint256"
        }
      ],
      "name": "queue",
      "outputs": [],
      "stateMutability": "nonpayable",
      "type": "function"
    },
    {
      "inputs": [],
      "name": "quorumVoteCount",
      "outputs": [
        {
          "internalType": "uint256",
          "name": "",
          "type": "uint256"
        }
      ],
      "stateMutability": "view",
      "type": "function"
    },
    {
      "inputs": [
        {
          "internalType": "uint256",
          "name": "",
          "type": "uint256"
        },
        {
          "internalType": "address",
          "name": "",
          "type": "address"
        }
      ],
      "name": "receipts",
      "outputs": [
        {
          "internalType": "bool",
          "name": "hasVoted",
          "type": "bool"
        },
        {
          "internalType": "bool",
          "name": "support",
          "type": "bool"
        },
        {
          "internalType": "uint256",
          "name": "votes",
          "type": "uint256"
        }
      ],
      "stateMutability": "view",
      "type": "function"
    },
    {
      "inputs": [],
      "name": "renounceGovernorship",
      "outputs": [],
      "stateMutability": "nonpayable",
      "type": "function"
    },
    {
      "inputs": [
        {
          "internalType": "uint256",
          "name": "proposalId",
          "type": "uint256"
        },
        {
          "internalType": "uint256",
          "name": "time",
          "type": "uint256"
        }
      ],
      "name": "setEndTime",
      "outputs": [],
      "stateMutability": "nonpayable",
      "type": "function"
    },
    {
      "inputs": [
        {
          "internalType": "uint256",
          "name": "time",
          "type": "uint256"
        }
      ],
      "name": "setGlobalPendingTime",
      "outputs": [],
      "stateMutability": "nonpayable",
      "type": "function"
    },
    {
      "inputs": [
        {
          "internalType": "address",
          "name": "timelock_",
          "type": "address"
        },
        {
          "internalType": "address",
          "name": "_voteToken",
          "type": "address"
        },
        {
          "internalType": "address",
          "name": "_signer",
          "type": "address"
        },
        {
          "internalType": "uint256",
          "name": "_quorumVoteCount",
          "type": "uint256"
        },
        {
          "internalType": "uint256",
          "name": "_proposalThresholdCount",
          "type": "uint256"
        },
        {
          "internalType": "uint256",
          "name": "_globalPendingTime",
          "type": "uint256"
        },
        {
          "internalType": "uint256",
          "name": "_minDuration",
          "type": "uint256"
        },
        {
          "internalType": "uint256",
          "name": "_maxDuration",
          "type": "uint256"
        },
        {
          "internalType": "address",
          "name": "_treasury",
          "type": "address"
        }
      ],
      "name": "setInitialValue",
      "outputs": [],
      "stateMutability": "nonpayable",
      "type": "function"
    },
    {
      "inputs": [
        {
          "internalType": "uint256",
          "name": "_duration",
          "type": "uint256"
        }
      ],
      "name": "setMaxDuration",
      "outputs": [],
      "stateMutability": "nonpayable",
      "type": "function"
    },
    {
      "inputs": [
        {
          "internalType": "uint256",
          "name": "_duration",
          "type": "uint256"
        }
      ],
      "name": "setMinDuration",
      "outputs": [],
      "stateMutability": "nonpayable",
      "type": "function"
    },
    {
      "inputs": [
        {
          "internalType": "uint256",
          "name": "count",
          "type": "uint256"
        }
      ],
      "name": "setProposalThrehold",
      "outputs": [],
      "stateMutability": "nonpayable",
      "type": "function"
    },
    {
      "inputs": [
        {
          "internalType": "uint256",
          "name": "count",
          "type": "uint256"
        }
      ],
      "name": "setQuorumVotes",
      "outputs": [],
      "stateMutability": "nonpayable",
      "type": "function"
    },
    {
      "inputs": [
        {
          "internalType": "address",
          "name": "_signer",
          "type": "address"
        }
      ],
      "name": "setSigner",
      "outputs": [],
      "stateMutability": "nonpayable",
      "type": "function"
    },
    {
      "inputs": [
        {
          "internalType": "uint256",
          "name": "proposalId",
          "type": "uint256"
        },
        {
          "internalType": "uint256",
          "name": "time",
          "type": "uint256"
        }
      ],
      "name": "setStartTime",
      "outputs": [],
      "stateMutability": "nonpayable",
      "type": "function"
    },
    {
      "inputs": [
        {
          "internalType": "address",
          "name": "timelock_",
          "type": "address"
        }
      ],
      "name": "setTimelock",
      "outputs": [],
      "stateMutability": "nonpayable",
      "type": "function"
    },
    {
      "inputs": [
        {
          "internalType": "address",
          "name": "_treasury",
          "type": "address"
        }
      ],
      "name": "setTreasury",
      "outputs": [],
      "stateMutability": "nonpayable",
      "type": "function"
    },
    {
      "inputs": [
        {
          "internalType": "bytes",
          "name": "sig",
          "type": "bytes"
        }
      ],
      "name": "splitSignature",
      "outputs": [
        {
          "internalType": "bytes32",
          "name": "r",
          "type": "bytes32"
        },
        {
          "internalType": "bytes32",
          "name": "s",
          "type": "bytes32"
        },
        {
          "internalType": "uint8",
          "name": "v",
          "type": "uint8"
        }
      ],
      "stateMutability": "pure",
      "type": "function"
    },
    {
      "inputs": [
        {
          "internalType": "uint256",
          "name": "proposalId",
          "type": "uint256"
        }
      ],
      "name": "state",
      "outputs": [
        {
          "internalType": "enum DeFineVotingPortalV2.ProposalState",
          "name": "",
          "type": "uint8"
        }
      ],
      "stateMutability": "view",
      "type": "function"
    },
    {
      "inputs": [],
      "name": "timelock",
      "outputs": [
        {
          "internalType": "contract TimelockInterface",
          "name": "",
          "type": "address"
        }
      ],
      "stateMutability": "view",
      "type": "function"
    },
    {
      "inputs": [
        {
          "internalType": "address",
          "name": "newGovernor",
          "type": "address"
        }
      ],
      "name": "transferGovernorship",
      "outputs": [],
      "stateMutability": "nonpayable",
      "type": "function"
    },
    {
      "inputs": [],
      "name": "treasury",
      "outputs": [
        {
          "internalType": "address",
          "name": "",
          "type": "address"
        }
      ],
      "stateMutability": "view",
      "type": "function"
    },
    {
      "inputs": [
        {
          "internalType": "address",
          "name": "_voteToken",
          "type": "address"
        },
        {
          "internalType": "address",
          "name": "_voter",
          "type": "address"
        },
        {
          "internalType": "uint256",
          "name": "_voteCount",
          "type": "uint256"
        },
        {
          "internalType": "uint256",
          "name": "_blockHeight",
          "type": "uint256"
        },
        {
          "internalType": "bytes",
          "name": "signature",
          "type": "bytes"
        }
      ],
      "name": "verify",
      "outputs": [
        {
          "internalType": "address",
          "name": "",
          "type": "address"
        }
      ],
      "stateMutability": "pure",
      "type": "function"
    },
    {
      "inputs": [],
      "name": "voteToken",
      "outputs": [
        {
          "internalType": "address",
          "name": "",
          "type": "address"
        }
      ],
      "stateMutability": "view",
      "type": "function"
    }
  ],
  "bytecode": "0x608060405234801561001057600080fd5b50613129806100206000396000f3fe6080604052600436106102135760003560e060020a90048063823363c61161011c578063cf0f34c4116100a4578063dc2b245811610073578063dc2b245814610720578063ddf0b00914610740578063f0f4426014610760578063fd101f0f14610780578063fe0d94c11461079657600080fd5b8063cf0f34c4146106aa578063cffc18eb146106ca578063d33219b4146106ea578063da35c6641461070a57600080fd5b8063b6aa515b116100eb578063b6aa515b1461060a578063ba278e081461062a578063bdacb3031461064a578063c4d66de81461066a578063c59321d31461068a57600080fd5b8063823363c6146105765780639d5b353f14610596578063a7bb5803146105ac578063abfbac4b146105ea57600080fd5b80634178b2491161019f57806364b279fa1161016e57806364b279fa146104f65780636c19e783146105165780636db5c8fd146105365780637bdbe4d01461054c57806381c0c2631461056157600080fd5b80634178b2491461044157806355b3d285146104aa57806356715761146104c057806361d027b3146104d657600080fd5b80631674bade116101e65780631674bade146103865780632e61f514146103a657806335efd9f1146103d45780633e4f49e6146103f457806340e58ee51461042157600080fd5b8063013cf08b1461021857806302ec8f9e1461030c5780630c340a241461032e578063160d66ae14610366575b600080fd5b34801561022457600080fd5b506102a2610233366004612b0c565b603e602052600090815260409020805460018201546002830154600384015460088501546009860154600a870154600b880154600c890154600d8a0154600e909a01549899600160a060020a039098169896979596949593949293919290919060ff808216916101009004168c565b604080519c8d52600160a060020a03909b1660208d0152998b019890985260608a0196909652608089019490945260a088019290925260c087015260e086015261010085015261012084015215156101408301521515610160820152610180015b60405180910390f35b34801561031857600080fd5b5061032c610327366004612b0c565b6107a9565b005b34801561033a57600080fd5b5060335461034e90600160a060020a031681565b604051600160a060020a039091168152602001610303565b34801561037257600080fd5b5060345461034e90600160a060020a031681565b34801561039257600080fd5b5061032c6103a1366004612b0c565b6107c5565b3480156103b257600080fd5b506103c66103c1366004612922565b6107e1565b604051908152602001610303565b3480156103e057600080fd5b506103c66103ef366004612b0c565b610c3b565b34801561040057600080fd5b5061041461040f366004612b0c565b610c77565b6040516103039190612dd8565b34801561042d57600080fd5b5061032c61043c366004612b0c565b610e75565b34801561044d57600080fd5b5061048d61045c366004612b25565b603f6020908152600092835260408084209091529082529020805460019091015460ff808316926101009004169083565b604080519315158452911515602084015290820152606001610303565b3480156104b657600080fd5b506103c660385481565b3480156104cc57600080fd5b506103c6603b5481565b3480156104e257600080fd5b5060375461034e90600160a060020a031681565b34801561050257600080fd5b5061032c610511366004612b0c565b610ffc565b34801561052257600080fd5b5061032c610531366004612810565b611018565b34801561054257600080fd5b506103c6603c5481565b34801561055857600080fd5b506103c6600a81565b34801561056d57600080fd5b5061032c611051565b34801561058257600080fd5b5061032c610591366004612b0c565b6110b2565b3480156105a257600080fd5b506103c660395481565b3480156105b857600080fd5b506105cc6105c7366004612a58565b6110ce565b60408051938452602084019290925260ff1690820152606001610303565b3480156105f657600080fd5b5061032c610605366004612bb4565b611145565b34801561061657600080fd5b5061032c610625366004612810565b611171565b34801561063657600080fd5b5061032c610645366004612bb4565b611194565b34801561065657600080fd5b5061032c610665366004612810565b6111c0565b34801561067657600080fd5b5061032c610685366004612810565b6111f9565b34801561069657600080fd5b5061032c6106a5366004612b51565b61127c565b3480156106b657600080fd5b5061032c6106c5366004612b0c565b611324565b3480156106d657600080fd5b5061034e6106e53660046128b0565b611340565b3480156106f657600080fd5b50603d5461034e90600160a060020a031681565b34801561071657600080fd5b506103c660365481565b34801561072c57600080fd5b5061032c61073b36600461282b565b61141b565b34801561074c57600080fd5b5061032c61075b366004612b0c565b611497565b34801561076c57600080fd5b5061032c61077b366004612810565b61185a565b34801561078c57600080fd5b506103c6603a5481565b61032c6107a4366004612b0c565b611893565b603354600160a060020a031633146107c057600080fd5b603855565b603354600160a060020a031633146107dc57600080fd5b603b55565b600080603a54426107f29190612fcd565b90508481106108715760405160e560020a62461bcd02815260206004820152603260248201527f70726f706f73653a3a2073746172742074696d65206d7573742062652065617260448201527f6c696572207468616e20656e642074696d65000000000000000000000000000060648201526084015b60405180910390fd5b603b5461087e8287612fe5565b1180156108955750603c546108938287612fe5565b105b6108e45760405160e560020a62461bcd02815260206004820152601a60248201527f70726f706f73653a3a20696c6c6567616c206475726174696f6e0000000000006044820152606401610868565b875189511480156108f6575086518951145b8015610903575085518951145b6109785760405160e560020a62461bcd02815260206004820152602f60248201527f70726f706f73653a2070726f706f73616c2066756e6374696f6e20696e666f7260448201527f6d6174696f6e206d69736d6174636800000000000000000000000000000000006064820152608401610868565b600a895111156109cd5760405160e560020a62461bcd02815260206004820152601960248201527f70726f706f73653a20746f6f206d616e7920616374696f6e73000000000000006044820152606401610868565b6037546039546034546109f192600160a060020a0391821692339290911690611b59565b60368054906000610a0183613066565b91905055506000604051806102000160405280603654815260200133600160a060020a031681526020016039548152602001600081526020018b81526020018a8152602001898152602001888152602001428152602001603a5442610a669190612fcd565b815260208082018990526000604080840182905260608085018390524360808087019190915260a0860184905260c09095018390526036548352603e8452918190208551815585840151600182018054600160a060020a031916600160a060020a039092169190911790559085015160028201559084015160038201559183015180519394508493610afe9260048501920190612377565b5060a08201518051610b1a9160058401916020909101906123dc565b5060c08201518051610b36916006840191602090910190612417565b5060e08201518051610b52916007840191602090910190612470565b506101008281015160088301556101208301516009830155610140830151600a830155610160830151600b830155610180830151600c8301556101a0830151600d8301556101c0830151600e90920180546101e09094015161ffff1990941692151561ff00191692909217921515029190911790556038546036805460009081526040602081905290819020929092555490517fb88787ccad609a4d41058c8a0928927dd2516296c139d218d1e9131c2c219bd391610c229133908e908e908e908e908a908f908f908f90612e73565b60405180910390a1505060365498975050505050505050565b600081815260406020819052812054610c5f575069152d02c7e14af6800000919050565b5060009081526040602081905290205490565b919050565b60008160365410158015610c8b5750600082115b610d005760405160e560020a62461bcd02815260206004820152602960248201527f476f7665726e6f72416c7068613a3a73746174653a20696e76616c696420707260448201527f6f706f73616c20696400000000000000000000000000000000000000000000006064820152608401610868565b6000828152603e6020526040812090610d1884610c3b565b600e83015490915060ff1615610d32575060029392505050565b81600901544211610d47575060009392505050565b81600a01544211610d5c575060019392505050565b81600c015482600b0154111580610d8557508082600c015483600b0154610d839190612fcd565b105b15610d94575060039392505050565b6003820154610da7575060049392505050565b600e820154610100900460ff1615610dc3575060079392505050565b603d60009054906101000a9004600160a060020a0316600160a060020a031663c1a287e26040518163ffffffff1660e060020a02815260040160206040518083038186803b158015610e1457600080fd5b505afa158015610e28573d6000803e3d6000fd5b505050506040513d601f19601f82011682018060405250810190610e4c9190612a3f565b8260030154610e5b9190612fcd565b4210610e6b575060069392505050565b5060059392505050565b6000818152603e6020526040902060010154600160a060020a03163314610f075760405160e560020a62461bcd02815260206004820152603260248201527f63616e63656c3a206f6e6c792070726f706f73616c206f776e657220636f756c60448201527f642063616e63656c2070726f706f73616c2e00000000000000000000000000006064820152608401610868565b6000610f1282610c77565b90506007816007811115610f2857610f2861309a565b1415610f9f5760405160e560020a62461bcd02815260206004820152602760248201527f63616e63656c3a2063616e6e6f742063616e63656c206578656375746564207060448201527f726f706f73616c000000000000000000000000000000000000000000000000006064820152608401610868565b6000828152603e602052604090819020600e8101805460ff1916600117905590517f789cf55be980739dad1d0699b93b58e806b51c9d96619bfa8fe0a28abaa7b30c90610fef9085815260200190565b60405180910390a1505050565b603354600160a060020a0316331461101357600080fd5b603a55565b603354600160a060020a0316331461102f57600080fd5b60358054600160a060020a031916600160a060020a0392909216919091179055565b603354600160a060020a0316331461106857600080fd5b603354604051600091600160a060020a0316907fc7c0c772add429241571afb3805861fb3cfa2af374534088b76cdb4325a87e9a908390a360338054600160a060020a0319169055565b603354600160a060020a031633146110c957600080fd5b603955565b600080600083516041146111275760405160e560020a62461bcd02815260206004820152601860248201527f696e76616c6964207369676e6174757265206c656e67746800000000000000006044820152606401610868565b50505060208101516040820151606090920151909260009190911a90565b603354600160a060020a0316331461115c57600080fd5b6000918252603e6020526040909120600a0155565b603354600160a060020a0316331461118857600080fd5b61119181611be1565b50565b603354600160a060020a031633146111ab57600080fd5b6000918252603e602052604090912060090155565b603354600160a060020a031633146111d757600080fd5b603d8054600160a060020a031916600160a060020a0392909216919091179055565b600054610100900460ff168061120e5750303b155b8061121c575060005460ff16155b61123b5760405160e560020a62461bcd02815260040161086890612e16565b600054610100900460ff1615801561125d576000805461ffff19166101011790555b61126682611c50565b8015611278576000805461ff00191690555b5050565b6034546000858152603e60205260408120600d015490916112ad91600160a060020a03909116903390869086611340565b603554909150600160a060020a038083169116146113105760405160e560020a62461bcd02815260206004820181905260248201527f63617374566f746542795369673a20696e76616c6964207369676e61747572656044820152606401610868565b61131c33868686611d12565b505b50505050565b603354600160a060020a0316331461133b57600080fd5b603c55565b6040516c01000000000000000000000000600160a060020a038088168202602084015286160260348201526048810184905260688101839052600090819060880160405160208183030381529060405280519060200120905060008060006113a7866110ce565b60408051600081526020810180835289905260ff8316918101919091526060810184905260808101839052929550909350915060019060a0016020604051602081039080840390855afa158015611402573d6000803e3d6000fd5b5050604051601f1901519b9a5050505050505050505050565b603354600160a060020a0316331461143257600080fd5b603d8054600160a060020a039a8b16600160a060020a03199182161790915560348054998b169982169990991790985560358054978a1697891697909717909655603894909455603992909255603a55603b55603c5560378054919093169116179055565b60046114a282610c77565b60078111156114b3576114b361309a565b146115505760405160e560020a62461bcd028152602060048201526044602482018190527f476f7665726e6f72427261766f3a3a71756575653a2070726f706f73616c2063908201527f616e206f6e6c792062652071756575656420696620697420697320737563636560648201527f6564656400000000000000000000000000000000000000000000000000000000608482015260a401610868565b6000818152603e6020526040902060048101546115b25760405160e560020a62461bcd02815260206004820152601a60248201527f71756575653a2070726f706f73616c206e6f20616374696f6e730000000000006044820152606401610868565b603d54604080517f6a42b8f80000000000000000000000000000000000000000000000000000000081529051600092600160a060020a031691636a42b8f8916004808301926020929190829003018186803b15801561161057600080fd5b505afa158015611624573d6000803e3d6000fd5b505050506040513d601f19601f820116820180604052508101906116489190612a3f565b6116529042612fcd565b905060005b600483015481101561181c5761180a83600401828154811061167b5761167b6130b3565b600091825260209091200154600585018054600160a060020a0390921691849081106116a9576116a96130b3565b90600052602060002001548560060184815481106116c9576116c96130b3565b9060005260206000200180546116de90613028565b80601f016020809104026020016040519081016040528092919081815260200182805461170a90613028565b80156117575780601f1061172c57610100808354040283529160200191611757565b820191906000526020600020905b81548152906001019060200180831161173a57829003601f168201915b5050505050866007018581548110611771576117716130b3565b90600052602060002001805461178690613028565b80601f01602080910402602001604051908101604052809291908181526020018280546117b290613028565b80156117ff5780601f106117d4576101008083540402835291602001916117ff565b820191906000526020600020905b8154815290600101906020018083116117e257829003601f168201915b505050505086611efa565b8061181481613066565b915050611657565b506003820181905560408051848152602081018390527f9a2e42fd6722813d69113e7d0079d3d940171428df7373df9c7f7617cfda28929101610fef565b603354600160a060020a0316331461187157600080fd5b60378054600160a060020a031916600160a060020a0392909216919091179055565b600561189e82610c77565b60078111156118af576118af61309a565b1461194b5760405160e560020a62461bcd02815260206004820152604560248201527f476f7665726e6f72427261766f3a3a657865637574653a2070726f706f73616c60448201527f2063616e206f6e6c79206265206578656375746564206966206974206973207160648201527f7565756564000000000000000000000000000000000000000000000000000000608482015260a401610868565b6000818152603e6020526040902060048101546119ad5760405160e560020a62461bcd02815260206004820152601c60248201527f657865637574653a2070726f706f73616c206e6f20616374696f6e73000000006044820152606401610868565b600e8101805461ff00191661010017905560005b6004820154811015611b2157603d54600583018054600160a060020a0390921691630825f38f9190849081106119f9576119f96130b3565b9060005260206000200154846004018481548110611a1957611a196130b3565b600091825260209091200154600586018054600160a060020a039092169186908110611a4757611a476130b3565b9060005260206000200154866006018681548110611a6757611a676130b3565b90600052602060002001876007018781548110611a8657611a866130b3565b9060005260206000200188600301546040518763ffffffff1660e060020a028152600401611ab8959493929190612d9e565b6000604051808303818588803b158015611ad157600080fd5b505af1158015611ae5573d6000803e3d6000fd5b50505050506040513d6000823e601f3d908101601f19168201604052611b0e9190810190612a95565b5080611b1981613066565b9150506119c1565b506040518281527f712ae1383f79ac853f8d882153778e0260ef8f03b504e2866e0593e04d2b291f9060200160405180910390a15050565b60408051600160a060020a0385811660248301528416604482015260648082018490528251808303909101815260849091019091526020810180517bffffffffffffffffffffffffffffffffffffffffffffffffffffffff167f23b872dd0000000000000000000000000000000000000000000000000000000017905261131e9085906120ef565b600160a060020a038116611bf457600080fd5b603354604051600160a060020a038084169216907fc7c0c772add429241571afb3805861fb3cfa2af374534088b76cdb4325a87e9a90600090a360338054600160a060020a031916600160a060020a0392909216919091179055565b600054610100900460ff1680611c655750303b155b80611c73575060005460ff16155b611c925760405160e560020a62461bcd02815260040161086890612e16565b600054610100900460ff16158015611cb4576000805461ffff19166101011790555b60338054600160a060020a031916600160a060020a0384169081179091556040516000907fc7c0c772add429241571afb3805861fb3cfa2af374534088b76cdb4325a87e9a908290a38015611278576000805461ff00191690555050565b6001611d1d84610c77565b6007811115611d2e57611d2e61309a565b14611da45760405160e560020a62461bcd02815260206004820152602e60248201527f476f7665726e6f72416c7068613a3a5f63617374566f74653a20766f74696e6760448201527f206973206e6f74206163746976650000000000000000000000000000000000006064820152608401610868565b6000838152603e60209081526040808320603f8352818420600160a060020a0389168552909252909120805460ff1615611e495760405160e560020a62461bcd02815260206004820152602d60248201527f476f7665726e6f72416c7068613a3a5f63617374566f74653a20766f7465722060448201527f616c726561647920766f746564000000000000000000000000000000000000006064820152608401610868565b8315611e69578282600b0154611e5f9190612fcd565b600b830155611e7f565b8282600c0154611e799190612fcd565b600c8301555b8054841515610100810261ffff199092169190911760019081178355820184905560408051600160a060020a03891681526020810188905290810191909152606081018490527f877856338e13f63d0c36822ff0ef736b80934cd90574a3a5bc9262c39d217c469060800160405180910390a1505050505050565b603d54604051600160a060020a039091169063f2b0653790611f289088908890889088908890602001612d51565b60408051601f1981840301815290829052805160209091012060e060020a63ffffffff8416028252600482015260240160206040518083038186803b158015611f7057600080fd5b505afa158015611f84573d6000803e3d6000fd5b505050506040513d601f19601f82011682018060405250810190611fa89190612a22565b156120445760405160e560020a62461bcd02815260206004820152605560248201527f476f7665726e6f72427261766f3a3a71756575654f72526576657274496e746560448201527f726e616c3a206964656e746963616c2070726f706f73616c20616374696f6e2060648201527f616c726561647920717565756564206174206574610000000000000000000000608482015260a401610868565b603d546040517f3a66f901000000000000000000000000000000000000000000000000000000008152600160a060020a0390911690633a66f901906120959088908890889088908890600401612d51565b602060405180830381600087803b1580156120af57600080fd5b505af11580156120c3573d6000803e3d6000fd5b505050506040513d601f19601f820116820180604052508101906120e79190612a3f565b505050505050565b6000612144826040518060400160405280602081526020017f5361666545524332303a206c6f772d6c6576656c2063616c6c206661696c656481525085600160a060020a03166121dc9092919063ffffffff16565b8051909150156121d757808060200190518101906121629190612a22565b6121d75760405160e560020a62461bcd02815260206004820152602a60248201527f5361666545524332303a204552433230206f7065726174696f6e20646964206e60448201527f6f742073756363656564000000000000000000000000000000000000000000006064820152608401610868565b505050565b60606121eb84846000856121f5565b90505b9392505050565b606030318311156122715760405160e560020a62461bcd02815260206004820152602660248201527f416464726573733a20696e73756666696369656e742062616c616e636520666f60448201527f722063616c6c00000000000000000000000000000000000000000000000000006064820152608401610868565b843b6122c25760405160e560020a62461bcd02815260206004820152601d60248201527f416464726573733a2063616c6c20746f206e6f6e2d636f6e74726163740000006044820152606401610868565b60008086600160a060020a031685876040516122de9190612d35565b60006040518083038185875af1925050503d806000811461231b576040519150601f19603f3d011682016040523d82523d6000602084013e612320565b606091505b509150915061233082828661233b565b979650505050505050565b6060831561234a5750816121ee565b82511561235a5782518084602001fd5b8160405160e560020a62461bcd0281526004016108689190612e03565b8280548282559060005260206000209081019282156123cc579160200282015b828111156123cc5782518254600160a060020a031916600160a060020a03909116178255602090920191600190910190612397565b506123d89291506124c9565b5090565b8280548282559060005260206000209081019282156123cc579160200282015b828111156123cc5782518255916020019190600101906123fc565b828054828255906000526020600020908101928215612464579160200282015b8281111561246457825180516124549184916020909101906124de565b5091602001919060010190612437565b506123d8929150612551565b8280548282559060005260206000209081019282156124bd579160200282015b828111156124bd57825180516124ad9184916020909101906124de565b5091602001919060010190612490565b506123d892915061256e565b5b808211156123d857600081556001016124ca565b8280546124ea90613028565b90600052602060002090601f01602090048101928261250c57600085556123cc565b82601f1061252557805160ff19168380011785556123cc565b828001600101855582156123cc57918201828111156123cc5782518255916020019190600101906123fc565b808211156123d8576000612565828261258b565b50600101612551565b808211156123d8576000612582828261258b565b5060010161256e565b50805461259790613028565b6000825580601f106125a7575050565b601f01602090049060005260206000209081019061119191906124c9565b8035600160a060020a0381168114610c7257600080fd5b600082601f8301126125ed57600080fd5b813560206126026125fd83612f81565b612f50565b828152818101908583018385028701840188101561261f57600080fd5b60005b8581101561264557612633826125c5565b84529284019290840190600101612622565b5090979650505050505050565b600082601f83011261266357600080fd5b813560206126736125fd83612f81565b828152818101908583018385028701840188101561269057600080fd5b6000805b868110156126d357823567ffffffffffffffff8111156126b2578283fd5b6126c08b88838d01016127bf565b8652509385019391850191600101612694565b509198975050505050505050565b600082601f8301126126f257600080fd5b813560206127026125fd83612f81565b828152818101908583018385028701840188101561271f57600080fd5b6000805b868110156126d357823567ffffffffffffffff811115612741578283fd5b61274f8b88838d01016127bf565b8652509385019391850191600101612723565b600082601f83011261277357600080fd5b813560206127836125fd83612f81565b82815281810190858301838502870184018810156127a057600080fd5b60005b85811015612645578135845292840192908401906001016127a3565b600082601f8301126127d057600080fd5b81356127de6125fd82612fa5565b8181528460208386010111156127f357600080fd5b816020850160208301376000918101602001919091529392505050565b60006020828403121561282257600080fd5b6121ee826125c5565b60008060008060008060008060006101208a8c03121561284a57600080fd5b6128538a6125c5565b985061286160208b016125c5565b975061286f60408b016125c5565b965060608a0135955060808a0135945060a08a0135935060c08a0135925060e08a013591506128a16101008b016125c5565b90509295985092959850929598565b600080600080600060a086880312156128c857600080fd5b6128d1866125c5565b94506128df602087016125c5565b93506040860135925060608601359150608086013567ffffffffffffffff81111561290957600080fd5b612915888289016127bf565b9150509295509295909350565b600080600080600080600060e0888a03121561293d57600080fd5b873567ffffffffffffffff8082111561295557600080fd5b6129618b838c016125dc565b985060208a013591508082111561297757600080fd5b6129838b838c01612762565b975060408a013591508082111561299957600080fd5b6129a58b838c016126e1565b965060608a01359150808211156129bb57600080fd5b6129c78b838c01612652565b955060808a0135945060a08a01359150808211156129e457600080fd5b6129f08b838c016127bf565b935060c08a0135915080821115612a0657600080fd5b50612a138a828b016127bf565b91505092959891949750929550565b600060208284031215612a3457600080fd5b81516121ee816130e5565b600060208284031215612a5157600080fd5b5051919050565b600060208284031215612a6a57600080fd5b813567ffffffffffffffff811115612a8157600080fd5b612a8d848285016127bf565b949350505050565b600060208284031215612aa757600080fd5b815167ffffffffffffffff811115612abe57600080fd5b8201601f81018413612acf57600080fd5b8051612add6125fd82612fa5565b818152856020838501011115612af257600080fd5b612b03826020830160208601612ffc565b95945050505050565b600060208284031215612b1e57600080fd5b5035919050565b60008060408385031215612b3857600080fd5b82359150612b48602084016125c5565b90509250929050565b60008060008060808587031215612b6757600080fd5b843593506020850135612b79816130e5565b925060408501359150606085013567ffffffffffffffff811115612b9c57600080fd5b612ba8878288016127bf565b91505092959194509250565b60008060408385031215612bc757600080fd5b50508035926020909101359150565b600081518084526020808501808196508284028101915082860160005b85811015612c1d578284038952612c0b848351612c65565b98850198935090840190600101612bf3565b5091979650505050505050565b600081518084526020808501945080840160005b83811015612c5a57815187529582019590820190600101612c3e565b509495945050505050565b60008151808452612c7d816020860160208601612ffc565b601f01601f19169290920160200192915050565b805460009060028104600180831680612cab57607f831692505b6020808410821415612cd05760e060020a634e487b7102600052602260045260246000fd5b838852818015612ce75760018114612cfb57612d29565b60ff19861689830152604089019650612d29565b876000528160002060005b86811015612d215781548b8201850152908501908301612d06565b8a0183019750505b50505050505092915050565b60008251612d47818460208701612ffc565b9190910192915050565b600160a060020a038616815284602082015260a060408201526000612d7960a0830186612c65565b8281036060840152612d8b8186612c65565b9150508260808301529695505050505050565b600160a060020a038616815284602082015260a060408201526000612dc660a0830186612c91565b8281036060840152612d8b8186612c91565b6020810160088310612dfd5760e060020a634e487b7102600052602160045260246000fd5b91905290565b6020815260006121ee6020830184612c65565b6020808252602e908201527f436f6e747261637420696e7374616e63652068617320616c726561647920626560408201527f656e20696e697469616c697a6564000000000000000000000000000000000000606082015260800190565b60006101408083018d84526020600160a060020a03808f16828701528360408701528293508d5180845261016087019450828f01935060005b81811015612eca578451831686529483019493830193600101612eac565b50505050508281036060840152612ee1818b612c2a565b90508281036080840152612ef5818a612bd6565b905082810360a0840152612f098189612bd6565b90508660c08401528560e0840152828103610100840152612f2a8186612c65565b9050828103610120840152612f3f8185612c65565b9d9c50505050505050505050505050565b604051601f8201601f1916810167ffffffffffffffff81118282101715612f7957612f796130cc565b604052919050565b600067ffffffffffffffff821115612f9b57612f9b6130cc565b5060209081020190565b600067ffffffffffffffff821115612fbf57612fbf6130cc565b50601f01601f191660200190565b60008219821115612fe057612fe0613081565b500190565b600082821015612ff757612ff7613081565b500390565b60005b83811015613017578181015183820152602001612fff565b8381111561131e5750506000910152565b60028104600182168061303c57607f821691505b602082108114156130605760e060020a634e487b7102600052602260045260246000fd5b50919050565b600060001982141561307a5761307a613081565b5060010190565b60e060020a634e487b7102600052601160045260246000fd5b60e060020a634e487b7102600052602160045260246000fd5b60e060020a634e487b7102600052603260045260246000fd5b60e060020a634e487b7102600052604160045260246000fd5b801515811461119157600080fdfea26469706673582212201c02c4142172376b273eb24316607ae39b975e34dc90a73ddcc05b853932f4a764736f6c63430008070033",
  "linkReferences": {},
  "deployedLinkReferences": {}
}