{
  "_format": "hh-sol-artifact-1",
  "contractName": "DeFineVotingPortalV2",
  "sourceName": "contracts/DeFineVotingPortalV2.sol",
  "abi": [
    {
      "anonymous": false,
      "inputs": [
        {
          "indexed": true,
          "internalType": "address",
          "name": "previousGovernor",
          "type": "address"
        },
        {
          "indexed": true,
          "internalType": "address",
          "name": "newGovernor",
          "type": "address"
        }
      ],
      "name": "GovernorshipTransferred",
      "type": "event"
    },
    {
      "anonymous": false,
      "inputs": [
        {
          "indexed": false,
          "internalType": "uint256",
          "name": "id",
          "type": "uint256"
        }
      ],
      "name": "ProposalCanceled",
      "type": "event"
    },
    {
      "anonymous": false,
      "inputs": [
        {
          "indexed": false,
          "internalType": "uint256",
          "name": "id",
          "type": "uint256"
        },
        {
          "indexed": false,
          "internalType": "address",
          "name": "proposer",
          "type": "address"
        },
        {
          "indexed": false,
          "internalType": "address[]",
          "name": "targets",
          "type": "address[]"
        },
        {
          "indexed": false,
          "internalType": "uint256[]",
          "name": "values",
          "type": "uint256[]"
        },
        {
          "indexed": false,
          "internalType": "string[]",
          "name": "signatures",
          "type": "string[]"
        },
        {
          "indexed": false,
          "internalType": "bytes[]",
          "name": "calldatas",
          "type": "bytes[]"
        },
        {
          "indexed": false,
          "internalType": "uint256",
          "name": "startTime",
          "type": "uint256"
        },
        {
          "indexed": false,
          "internalType": "uint256",
          "name": "endTime",
          "type": "uint256"
        },
        {
          "indexed": false,
          "internalType": "string",
          "name": "title",
          "type": "string"
        },
        {
          "indexed": false,
          "internalType": "string",
          "name": "description",
          "type": "string"
        }
      ],
      "name": "ProposalCreated",
      "type": "event"
    },
    {
      "anonymous": false,
      "inputs": [
        {
          "indexed": false,
          "internalType": "uint256",
          "name": "id",
          "type": "uint256"
        },
        {
          "indexed": false,
          "internalType": "address",
          "name": "claimer",
          "type": "address"
        }
      ],
      "name": "ProposalDepositWithdrawn",
      "type": "event"
    },
    {
      "anonymous": false,
      "inputs": [
        {
          "indexed": false,
          "internalType": "uint256",
          "name": "id",
          "type": "uint256"
        }
      ],
      "name": "ProposalExecuted",
      "type": "event"
    },
    {
      "anonymous": false,
      "inputs": [
        {
          "indexed": false,
          "internalType": "uint256",
          "name": "id",
          "type": "uint256"
        },
        {
          "indexed": false,
          "internalType": "uint256",
          "name": "eta",
          "type": "uint256"
        }
      ],
      "name": "ProposalQueued",
      "type": "event"
    },
    {
      "anonymous": false,
      "inputs": [
        {
          "indexed": false,
          "internalType": "address",
          "name": "voter",
          "type": "address"
        },
        {
          "indexed": false,
          "internalType": "uint256",
          "name": "proposalId",
          "type": "uint256"
        },
        {
          "indexed": false,
          "internalType": "bool",
          "name": "support",
          "type": "bool"
        },
        {
          "indexed": false,
          "internalType": "uint256",
          "name": "votes",
          "type": "uint256"
        }
      ],
      "name": "VoteCast",
      "type": "event"
    },
    {
      "inputs": [
        {
          "internalType": "uint256",
          "name": "proposalId",
          "type": "uint256"
        }
      ],
      "name": "cancel",
      "outputs": [],
      "stateMutability": "nonpayable",
      "type": "function"
    },
    {
      "inputs": [
        {
          "internalType": "uint256",
          "name": "proposalId",
          "type": "uint256"
        },
        {
          "internalType": "bool",
          "name": "support",
          "type": "bool"
        },
        {
          "internalType": "uint256",
          "name": "voteCount",
          "type": "uint256"
        },
        {
          "internalType": "bytes",
          "name": "signature",
          "type": "bytes"
        }
      ],
      "name": "castVoteBySig",
      "outputs": [],
      "stateMutability": "nonpayable",
      "type": "function"
    },
    {
      "inputs": [
        {
          "internalType": "uint256",
          "name": "proposalId",
          "type": "uint256"
        }
      ],
      "name": "claim",
      "outputs": [],
      "stateMutability": "nonpayable",
      "type": "function"
    },
    {
      "inputs": [
        {
          "internalType": "uint256",
          "name": "proposalId",
          "type": "uint256"
        }
      ],
      "name": "execute",
      "outputs": [],
      "stateMutability": "payable",
      "type": "function"
    },
    {
      "inputs": [],
      "name": "globalPendingTime",
      "outputs": [
        {
          "internalType": "uint256",
          "name": "",
          "type": "uint256"
        }
      ],
      "stateMutability": "view",
      "type": "function"
    },
    {
      "inputs": [],
      "name": "governor",
      "outputs": [
        {
          "internalType": "address",
          "name": "",
          "type": "address"
        }
      ],
      "stateMutability": "view",
      "type": "function"
    },
    {
      "inputs": [
        {
          "internalType": "address",
          "name": "_governor",
          "type": "address"
        }
      ],
      "name": "initialize",
      "outputs": [],
      "stateMutability": "nonpayable",
      "type": "function"
    },
    {
      "inputs": [],
      "name": "maxDuration",
      "outputs": [
        {
          "internalType": "uint256",
          "name": "",
          "type": "uint256"
        }
      ],
      "stateMutability": "view",
      "type": "function"
    },
    {
      "inputs": [],
      "name": "minDuration",
      "outputs": [
        {
          "internalType": "uint256",
          "name": "",
          "type": "uint256"
        }
      ],
      "stateMutability": "view",
      "type": "function"
    },
    {
      "inputs": [],
      "name": "proposalCount",
      "outputs": [
        {
          "internalType": "uint256",
          "name": "",
          "type": "uint256"
        }
      ],
      "stateMutability": "view",
      "type": "function"
    },
    {
      "inputs": [],
      "name": "proposalMaxOperations",
      "outputs": [
        {
          "internalType": "uint256",
          "name": "",
          "type": "uint256"
        }
      ],
      "stateMutability": "view",
      "type": "function"
    },
    {
      "inputs": [],
      "name": "proposalThresholdCount",
      "outputs": [
        {
          "internalType": "uint256",
          "name": "",
          "type": "uint256"
        }
      ],
      "stateMutability": "view",
      "type": "function"
    },
    {
      "inputs": [
        {
          "internalType": "uint256",
          "name": "",
          "type": "uint256"
        }
      ],
      "name": "proposals",
      "outputs": [
        {
          "internalType": "uint256",
          "name": "id",
          "type": "uint256"
        },
        {
          "internalType": "address",
          "name": "proposer",
          "type": "address"
        },
        {
          "internalType": "uint256",
          "name": "proposalThresholdCount",
          "type": "uint256"
        },
        {
          "internalType": "uint256",
          "name": "eta",
          "type": "uint256"
        },
        {
          "internalType": "uint256",
          "name": "createTime",
          "type": "uint256"
        },
        {
          "internalType": "uint256",
          "name": "startTime",
          "type": "uint256"
        },
        {
          "internalType": "uint256",
          "name": "endTime",
          "type": "uint256"
        },
        {
          "internalType": "uint256",
          "name": "forVotes",
          "type": "uint256"
        },
        {
          "internalType": "uint256",
          "name": "againstVotes",
          "type": "uint256"
        },
        {
          "internalType": "uint256",
          "name": "blockHeight",
          "type": "uint256"
        },
        {
          "internalType": "bool",
          "name": "canceled",
          "type": "bool"
        },
        {
          "internalType": "bool",
          "name": "executed",
          "type": "bool"
        },
        {
          "internalType": "bool",
          "name": "withdrawn",
          "type": "bool"
        }
      ],
      "stateMutability": "view",
      "type": "function"
    },
    {
      "inputs": [
        {
          "internalType": "address[]",
          "name": "targets",
          "type": "address[]"
        },
        {
          "internalType": "uint256[]",
          "name": "values",
          "type": "uint256[]"
        },
        {
          "internalType": "string[]",
          "name": "signatures",
          "type": "string[]"
        },
        {
          "internalType": "bytes[]",
          "name": "calldatas",
          "type": "bytes[]"
        },
        {
          "internalType": "uint256",
          "name": "endTime",
          "type": "uint256"
        },
        {
          "internalType": "string",
          "name": "title",
          "type": "string"
        },
        {
          "internalType": "string",
          "name": "description",
          "type": "string"
        }
      ],
      "name": "propose",
      "outputs": [
        {
          "internalType": "uint256",
          "name": "",
          "type": "uint256"
        }
      ],
      "stateMutability": "nonpayable",
      "type": "function"
    },
    {
      "inputs": [
        {
          "internalType": "uint256",
          "name": "proposalId",
          "type": "uint256"
        }
      ],
      "name": "queue",
      "outputs": [],
      "stateMutability": "nonpayable",
      "type": "function"
    },
    {
      "inputs": [],
      "name": "quorumVoteCount",
      "outputs": [
        {
          "internalType": "uint256",
          "name": "",
          "type": "uint256"
        }
      ],
      "stateMutability": "view",
      "type": "function"
    },
    {
      "inputs": [
        {
          "internalType": "uint256",
          "name": "",
          "type": "uint256"
        },
        {
          "internalType": "address",
          "name": "",
          "type": "address"
        }
      ],
      "name": "receipts",
      "outputs": [
        {
          "internalType": "bool",
          "name": "hasVoted",
          "type": "bool"
        },
        {
          "internalType": "bool",
          "name": "support",
          "type": "bool"
        },
        {
          "internalType": "uint256",
          "name": "votes",
          "type": "uint256"
        }
      ],
      "stateMutability": "view",
      "type": "function"
    },
    {
      "inputs": [],
      "name": "renounceGovernorship",
      "outputs": [],
      "stateMutability": "nonpayable",
      "type": "function"
    },
    {
      "inputs": [
        {
          "internalType": "uint256",
          "name": "proposalId",
          "type": "uint256"
        },
        {
          "internalType": "uint256",
          "name": "time",
          "type": "uint256"
        }
      ],
      "name": "setEndTime",
      "outputs": [],
      "stateMutability": "nonpayable",
      "type": "function"
    },
    {
      "inputs": [
        {
          "internalType": "uint256",
          "name": "time",
          "type": "uint256"
        }
      ],
      "name": "setGlobalPendingTime",
      "outputs": [],
      "stateMutability": "nonpayable",
      "type": "function"
    },
    {
      "inputs": [
        {
          "internalType": "address",
          "name": "timelock_",
          "type": "address"
        },
        {
          "internalType": "address",
          "name": "_voteToken",
          "type": "address"
        },
        {
          "internalType": "address",
          "name": "_signer",
          "type": "address"
        },
        {
          "internalType": "uint256",
          "name": "_quorumVoteCount",
          "type": "uint256"
        },
        {
          "internalType": "uint256",
          "name": "_proposalThresholdCount",
          "type": "uint256"
        },
        {
          "internalType": "uint256",
          "name": "_globalPendingTime",
          "type": "uint256"
        },
        {
          "internalType": "uint256",
          "name": "_minDuration",
          "type": "uint256"
        },
        {
          "internalType": "uint256",
          "name": "_maxDuration",
          "type": "uint256"
        }
      ],
      "name": "setInitialValue",
      "outputs": [],
      "stateMutability": "nonpayable",
      "type": "function"
    },
    {
      "inputs": [
        {
          "internalType": "uint256",
          "name": "_duration",
          "type": "uint256"
        }
      ],
      "name": "setMaxDuration",
      "outputs": [],
      "stateMutability": "nonpayable",
      "type": "function"
    },
    {
      "inputs": [
        {
          "internalType": "uint256",
          "name": "_duration",
          "type": "uint256"
        }
      ],
      "name": "setMinDuration",
      "outputs": [],
      "stateMutability": "nonpayable",
      "type": "function"
    },
    {
      "inputs": [
        {
          "internalType": "uint256",
          "name": "count",
          "type": "uint256"
        }
      ],
      "name": "setProposalThrehold",
      "outputs": [],
      "stateMutability": "nonpayable",
      "type": "function"
    },
    {
      "inputs": [
        {
          "internalType": "uint256",
          "name": "count",
          "type": "uint256"
        }
      ],
      "name": "setQuorumVotes",
      "outputs": [],
      "stateMutability": "nonpayable",
      "type": "function"
    },
    {
      "inputs": [
        {
          "internalType": "address",
          "name": "_signer",
          "type": "address"
        }
      ],
      "name": "setSigner",
      "outputs": [],
      "stateMutability": "nonpayable",
      "type": "function"
    },
    {
      "inputs": [
        {
          "internalType": "uint256",
          "name": "proposalId",
          "type": "uint256"
        },
        {
          "internalType": "uint256",
          "name": "time",
          "type": "uint256"
        }
      ],
      "name": "setStartTime",
      "outputs": [],
      "stateMutability": "nonpayable",
      "type": "function"
    },
    {
      "inputs": [
        {
          "internalType": "address",
          "name": "timelock_",
          "type": "address"
        }
      ],
      "name": "setTimelock",
      "outputs": [],
      "stateMutability": "nonpayable",
      "type": "function"
    },
    {
      "inputs": [
        {
          "internalType": "bytes",
          "name": "sig",
          "type": "bytes"
        }
      ],
      "name": "splitSignature",
      "outputs": [
        {
          "internalType": "bytes32",
          "name": "r",
          "type": "bytes32"
        },
        {
          "internalType": "bytes32",
          "name": "s",
          "type": "bytes32"
        },
        {
          "internalType": "uint8",
          "name": "v",
          "type": "uint8"
        }
      ],
      "stateMutability": "pure",
      "type": "function"
    },
    {
      "inputs": [
        {
          "internalType": "uint256",
          "name": "proposalId",
          "type": "uint256"
        }
      ],
      "name": "state",
      "outputs": [
        {
          "internalType": "enum DeFineVotingPortalV2.ProposalState",
          "name": "",
          "type": "uint8"
        }
      ],
      "stateMutability": "view",
      "type": "function"
    },
    {
      "inputs": [],
      "name": "timelock",
      "outputs": [
        {
          "internalType": "contract TimelockInterface",
          "name": "",
          "type": "address"
        }
      ],
      "stateMutability": "view",
      "type": "function"
    },
    {
      "inputs": [
        {
          "internalType": "address",
          "name": "newGovernor",
          "type": "address"
        }
      ],
      "name": "transferGovernorship",
      "outputs": [],
      "stateMutability": "nonpayable",
      "type": "function"
    },
    {
      "inputs": [
        {
          "internalType": "address",
          "name": "_voteToken",
          "type": "address"
        },
        {
          "internalType": "address",
          "name": "_voter",
          "type": "address"
        },
        {
          "internalType": "uint256",
          "name": "_voteCount",
          "type": "uint256"
        },
        {
          "internalType": "uint256",
          "name": "_blockHeight",
          "type": "uint256"
        },
        {
          "internalType": "bytes",
          "name": "signature",
          "type": "bytes"
        }
      ],
      "name": "verify",
      "outputs": [
        {
          "internalType": "address",
          "name": "",
          "type": "address"
        }
      ],
      "stateMutability": "pure",
      "type": "function"
    },
    {
      "inputs": [],
      "name": "voteToken",
      "outputs": [
        {
          "internalType": "address",
          "name": "",
          "type": "address"
        }
      ],
      "stateMutability": "view",
      "type": "function"
    }
  ],
  "bytecode": "0x608060405234801561001057600080fd5b50613148806100206000396000f3fe6080604052600436106101fd5760003560e060020a9004806381c0c26311610111578063c4d66de8116100a4578063d33219b411610073578063d33219b4146106e9578063da35c66414610709578063ddf0b0091461071f578063fd101f0f1461073f578063fe0d94c11461075557600080fd5b8063c4d66de814610669578063c59321d314610689578063cf0f34c4146106a9578063cffc18eb146106c957600080fd5b8063abfbac4b116100e0578063abfbac4b146105e9578063b6aa515b14610609578063ba278e0814610629578063bdacb3031461064957600080fd5b806381c0c26314610560578063823363c6146105755780639d5b353f14610595578063a7bb5803146105ab57600080fd5b806340e58ee5116101945780635920739f116101635780635920739f146104d557806364b279fa146104f55780636c19e783146105155780636db5c8fd146105355780637bdbe4d01461054b57600080fd5b806340e58ee5146104205780634178b2491461044057806355b3d285146104a957806356715761146104bf57600080fd5b80631674bade116101d05780631674bade146103855780632e61f514146103a5578063379607f5146103d35780633e4f49e6146103f357600080fd5b8063013cf08b1461020257806302ec8f9e1461030b5780630c340a241461032d578063160d66ae14610365575b600080fd5b34801561020e57600080fd5b5061029661021d366004612b60565b603d602052600090815260409020805460018201546002830154600384015460088501546009860154600a870154600b880154600c890154600d8a0154600e909a01549899600160a060020a039098169896979596949593949293919290919060ff80821691610100810482169162010000909104168d565b604080519d8e52600160a060020a03909c1660208e01529a8c019990995260608b019790975260808a019590955260a089019390935260c088019190915260e08701526101008601526101208501521515610140840152151561016083015215156101808201526101a0015b60405180910390f35b34801561031757600080fd5b5061032b610326366004612b60565b610768565b005b34801561033957600080fd5b5060335461034d90600160a060020a031681565b604051600160a060020a039091168152602001610302565b34801561037157600080fd5b5060345461034d90600160a060020a031681565b34801561039157600080fd5b5061032b6103a0366004612b60565b610784565b3480156103b157600080fd5b506103c56103c0366004612976565b6107a0565b604051908152602001610302565b3480156103df57600080fd5b5061032b6103ee366004612b60565b610c87565b3480156103ff57600080fd5b5061041361040e366004612b60565b610f0c565b6040516103029190612e10565b34801561042c57600080fd5b5061032b61043b366004612b60565b6110fd565b34801561044c57600080fd5b5061048c61045b366004612b79565b603e6020908152600092835260408084209091529082529020805460019091015460ff808316926101009004169083565b604080519315158452911515602084015290820152606001610302565b3480156104b557600080fd5b506103c560375481565b3480156104cb57600080fd5b506103c5603a5481565b3480156104e157600080fd5b5061032b6104f0366004612893565b611286565b34801561050157600080fd5b5061032b610510366004612b60565b6112f5565b34801561052157600080fd5b5061032b610530366004612871565b611311565b34801561054157600080fd5b506103c5603b5481565b34801561055757600080fd5b506103c5600a81565b34801561056c57600080fd5b5061032b61134a565b34801561058157600080fd5b5061032b610590366004612b60565b6113ab565b3480156105a157600080fd5b506103c560385481565b3480156105b757600080fd5b506105cb6105c6366004612aac565b6113c7565b60408051938452602084019290925260ff1690820152606001610302565b3480156105f557600080fd5b5061032b610604366004612c08565b61143e565b34801561061557600080fd5b5061032b610624366004612871565b61146a565b34801561063557600080fd5b5061032b610644366004612c08565b61148d565b34801561065557600080fd5b5061032b610664366004612871565b6114b9565b34801561067557600080fd5b5061032b610684366004612871565b6114f2565b34801561069557600080fd5b5061032b6106a4366004612ba5565b611575565b3480156106b557600080fd5b5061032b6106c4366004612b60565b61161d565b3480156106d557600080fd5b5061034d6106e4366004612904565b611639565b3480156106f557600080fd5b50603c5461034d90600160a060020a031681565b34801561071557600080fd5b506103c560365481565b34801561072b57600080fd5b5061032b61073a366004612b60565b611714565b34801561074b57600080fd5b506103c560395481565b61032b610763366004612b60565b611ad7565b603354600160a060020a0316331461077f57600080fd5b603755565b603354600160a060020a0316331461079b57600080fd5b603a55565b600080603954426107b19190612ff2565b90508481106108305760405160e560020a62461bcd02815260206004820152603260248201527f70726f706f73653a3a2073746172742074696d65206d7573742062652065617260448201527f6c696572207468616e20656e642074696d65000000000000000000000000000060648201526084015b60405180910390fd5b603a5461083d828761300a565b1180156108545750603b54610852828761300a565b105b6108a35760405160e560020a62461bcd02815260206004820152601a60248201527f70726f706f73653a3a20696c6c6567616c206475726174696f6e0000000000006044820152606401610827565b875189511480156108b5575086518951145b80156108c2575085518951145b6109375760405160e560020a62461bcd02815260206004820152602f60248201527f70726f706f73653a2070726f706f73616c2066756e6374696f6e20696e666f7260448201527f6d6174696f6e206d69736d6174636800000000000000000000000000000000006064820152608401610827565b600a8951111561098c5760405160e560020a62461bcd02815260206004820152601960248201527f70726f706f73653a20746f6f206d616e7920616374696f6e73000000000000006044820152606401610827565b6034546038546040517f23b872dd0000000000000000000000000000000000000000000000000000000081523360048201523060248201526044810191909152600160a060020a03909116906323b872dd90606401602060405180830381600087803b1580156109fb57600080fd5b505af1158015610a0f573d6000803e3d6000fd5b505050506040513d601f19601f82011682018060405250810190610a339190612a76565b5060368054906000610a4483613085565b91905055506000604051806102200160405280603654815260200133600160a060020a031681526020016038548152602001600081526020018b81526020018a815260200189815260200188815260200142815260200160395442610aa99190612ff2565b815260208082018990526000604080840182905260608085018390524360808087019190915260a0860184905260c0860184905260e09095018390526036548352603d8452918190208551815585840151600182018054600160a060020a031916600160a060020a039092169190911790559085015160028201559084015160038201559183015180519394508493610b4892600485019201906123d3565b5060a08201518051610b64916005840191602090910190612438565b5060c08201518051610b80916006840191602090910190612473565b5060e08201518051610b9c9160078401916020909101906124cc565b506101008281015160088301556101208301516009830155610140830151600a830155610160830151600b830155610180830151600c8301556101a0830151600d8301556101c0830151600e90920180546101e08501516102009095015161ffff1990911693151561ff001916939093179315159091029290921762ff0000191662010000911515919091021790556036546040517fb88787ccad609a4d41058c8a0928927dd2516296c139d218d1e9131c2c219bd391610c6e9133908e908e908e908e908a908f908f908f90612e98565b60405180910390a1505060365498975050505050505050565b6000818152603d6020526040902060010154600160a060020a03163314610d195760405160e560020a62461bcd02815260206004820152603060248201527f636c61696d3a206f6e6c792070726f706f73616c206f776e657220636f756c6460448201527f20636c61696d2070726f706f73616c2e000000000000000000000000000000006064820152608401610827565b6000610d2482610f0c565b90506002816007811115610d3a57610d3a6130b9565b1415610db15760405160e560020a62461bcd02815260206004820152602560248201527f636c61696d3a2063616e6e6f7420636c61696d2063616e63656c65642070726f60448201527f706f73616c0000000000000000000000000000000000000000000000000000006064820152608401610827565b6000816007811115610dc557610dc56130b9565b1415610e3b5760405160e560020a62461bcd028152602060048201526024808201527f636c61696d3a2063616e6e6f7420636c61696d2070656e64696e672070726f7060448201527f6f73616c000000000000000000000000000000000000000000000000000000006064820152608401610827565b6001816007811115610e4f57610e4f6130b9565b1415610ec65760405160e560020a62461bcd02815260206004820152602360248201527f636c61696d3a2063616e6e6f7420636c61696d206163746976652070726f706f60448201527f73616c00000000000000000000000000000000000000000000000000000000006064820152608401610827565b610ecf82611d96565b604080518381523360208201527f44a031cefb740fbc1d06fd16317f45b358f208b59e2259383b04a91110d0476691015b60405180910390a15050565b60008160365410158015610f205750600082115b610f955760405160e560020a62461bcd02815260206004820152602960248201527f476f7665726e6f72416c7068613a3a73746174653a20696e76616c696420707260448201527f6f706f73616c20696400000000000000000000000000000000000000000000006064820152608401610827565b6000828152603d60205260409020600e81015460ff1615610fb95750600292915050565b80600901544211610fcd5750600092915050565b80600a01544211610fe15750600192915050565b80600c015481600b015411158061100c575060375481600c015482600b015461100a9190612ff2565b105b1561101a5750600392915050565b600381015461102c5750600492915050565b600e810154610100900460ff16156110475750600792915050565b603c60009054906101000a9004600160a060020a0316600160a060020a031663c1a287e26040518163ffffffff1660e060020a02815260040160206040518083038186803b15801561109857600080fd5b505afa1580156110ac573d6000803e3d6000fd5b505050506040513d601f19601f820116820180604052508101906110d09190612a93565b81600301546110df9190612ff2565b42106110ee5750600692915050565b50600592915050565b50919050565b6000818152603d6020526040902060010154600160a060020a0316331461118f5760405160e560020a62461bcd02815260206004820152603260248201527f63616e63656c3a206f6e6c792070726f706f73616c206f776e657220636f756c60448201527f642063616e63656c2070726f706f73616c2e00000000000000000000000000006064820152608401610827565b600061119a82610f0c565b905060078160078111156111b0576111b06130b9565b14156112275760405160e560020a62461bcd02815260206004820152602760248201527f63616e63656c3a2063616e6e6f742063616e63656c206578656375746564207060448201527f726f706f73616c000000000000000000000000000000000000000000000000006064820152608401610827565b6000828152603d60205260409020600e8101805460ff1916600117905561124d83611d96565b6040518381527f789cf55be980739dad1d0699b93b58e806b51c9d96619bfa8fe0a28abaa7b30c906020015b60405180910390a1505050565b603354600160a060020a0316331461129d57600080fd5b603c8054600160a060020a0319908116600160a060020a039a8b1617909155603480548216988a1698909817909755603580549097169590971694909417909455603791909155603855603991909155603a55603b55565b603354600160a060020a0316331461130c57600080fd5b603955565b603354600160a060020a0316331461132857600080fd5b60358054600160a060020a031916600160a060020a0392909216919091179055565b603354600160a060020a0316331461136157600080fd5b603354604051600091600160a060020a0316907fc7c0c772add429241571afb3805861fb3cfa2af374534088b76cdb4325a87e9a908390a360338054600160a060020a0319169055565b603354600160a060020a031633146113c257600080fd5b603855565b600080600083516041146114205760405160e560020a62461bcd02815260206004820152601860248201527f696e76616c6964207369676e6174757265206c656e67746800000000000000006044820152606401610827565b50505060208101516040820151606090920151909260009190911a90565b603354600160a060020a0316331461145557600080fd5b6000918252603d6020526040909120600a0155565b603354600160a060020a0316331461148157600080fd5b61148a81611ec5565b50565b603354600160a060020a031633146114a457600080fd5b6000918252603d602052604090912060090155565b603354600160a060020a031633146114d057600080fd5b603c8054600160a060020a031916600160a060020a0392909216919091179055565b600054610100900460ff16806115075750303b155b80611515575060005460ff16155b6115345760405160e560020a62461bcd02815260040161082790612e3b565b600054610100900460ff16158015611556576000805461ffff19166101011790555b61155f82611f34565b8015611571576000805461ff00191690555b5050565b6034546000858152603d60205260408120600d015490916115a691600160a060020a03909116903390869086611639565b603554909150600160a060020a038083169116146116095760405160e560020a62461bcd02815260206004820181905260248201527f63617374566f746542795369673a20696e76616c6964207369676e61747572656044820152606401610827565b61161533868686611ff6565b505b50505050565b603354600160a060020a0316331461163457600080fd5b603b55565b6040516c01000000000000000000000000600160a060020a038088168202602084015286160260348201526048810184905260688101839052600090819060880160405160208183030381529060405280519060200120905060008060006116a0866113c7565b60408051600081526020810180835289905260ff8316918101919091526060810184905260808101839052929550909350915060019060a0016020604051602081039080840390855afa1580156116fb573d6000803e3d6000fd5b5050604051601f1901519b9a5050505050505050505050565b600461171f82610f0c565b6007811115611730576117306130b9565b146117cd5760405160e560020a62461bcd028152602060048201526044602482018190527f476f7665726e6f72427261766f3a3a71756575653a2070726f706f73616c2063908201527f616e206f6e6c792062652071756575656420696620697420697320737563636560648201527f6564656400000000000000000000000000000000000000000000000000000000608482015260a401610827565b6000818152603d60205260409020600481015461182f5760405160e560020a62461bcd02815260206004820152601a60248201527f71756575653a2070726f706f73616c206e6f20616374696f6e730000000000006044820152606401610827565b603c54604080517f6a42b8f80000000000000000000000000000000000000000000000000000000081529051600092600160a060020a031691636a42b8f8916004808301926020929190829003018186803b15801561188d57600080fd5b505afa1580156118a1573d6000803e3d6000fd5b505050506040513d601f19601f820116820180604052508101906118c59190612a93565b6118cf9042612ff2565b905060005b6004830154811015611a9957611a878360040182815481106118f8576118f86130d2565b600091825260209091200154600585018054600160a060020a039092169184908110611926576119266130d2565b9060005260206000200154856006018481548110611946576119466130d2565b90600052602060002001805461195b9061304d565b80601f01602080910402602001604051908101604052809291908181526020018280546119879061304d565b80156119d45780601f106119a9576101008083540402835291602001916119d4565b820191906000526020600020905b8154815290600101906020018083116119b757829003601f168201915b50505050508660070185815481106119ee576119ee6130d2565b906000526020600020018054611a039061304d565b80601f0160208091040260200160405190810160405280929190818152602001828054611a2f9061304d565b8015611a7c5780601f10611a5157610100808354040283529160200191611a7c565b820191906000526020600020905b815481529060010190602001808311611a5f57829003601f168201915b5050505050866121de565b80611a9181613085565b9150506118d4565b506003820181905560408051848152602081018390527f9a2e42fd6722813d69113e7d0079d3d940171428df7373df9c7f7617cfda28929101611279565b6005611ae282610f0c565b6007811115611af357611af36130b9565b14611b8f5760405160e560020a62461bcd02815260206004820152604560248201527f476f7665726e6f72427261766f3a3a657865637574653a2070726f706f73616c60448201527f2063616e206f6e6c79206265206578656375746564206966206974206973207160648201527f7565756564000000000000000000000000000000000000000000000000000000608482015260a401610827565b6000818152603d602052604090206004810154611bf15760405160e560020a62461bcd02815260206004820152601c60248201527f657865637574653a2070726f706f73616c206e6f20616374696f6e73000000006044820152606401610827565b600e8101805461ff00191661010017905560005b6004820154811015611d6557603c54600583018054600160a060020a0390921691630825f38f919084908110611c3d57611c3d6130d2565b9060005260206000200154846004018481548110611c5d57611c5d6130d2565b600091825260209091200154600586018054600160a060020a039092169186908110611c8b57611c8b6130d2565b9060005260206000200154866006018681548110611cab57611cab6130d2565b90600052602060002001876007018781548110611cca57611cca6130d2565b9060005260206000200188600301546040518763ffffffff1660e060020a028152600401611cfc959493929190612dd6565b6000604051808303818588803b158015611d1557600080fd5b505af1158015611d29573d6000803e3d6000fd5b50505050506040513d6000823e601f3d908101601f19168201604052611d529190810190612ae9565b5080611d5d81613085565b915050611c05565b506040518281527f712ae1383f79ac853f8d882153778e0260ef8f03b504e2866e0593e04d2b291f90602001610f00565b6000818152603d60205260409020600e015462010000900460ff1615611e015760405160e560020a62461bcd02815260206004820152601660248201527f636c61696d3a20616c726561647920636c61696d6564000000000000000000006044820152606401610827565b6000818152603d602052604090819020600e8101805462ff000019166201000017905560345460029091015491517fa9059cbb0000000000000000000000000000000000000000000000000000000081523360048201526024810192909252600160a060020a03169063a9059cbb90604401602060405180830381600087803b158015611e8d57600080fd5b505af1158015611ea1573d6000803e3d6000fd5b505050506040513d601f19601f820116820180604052508101906115719190612a76565b600160a060020a038116611ed857600080fd5b603354604051600160a060020a038084169216907fc7c0c772add429241571afb3805861fb3cfa2af374534088b76cdb4325a87e9a90600090a360338054600160a060020a031916600160a060020a0392909216919091179055565b600054610100900460ff1680611f495750303b155b80611f57575060005460ff16155b611f765760405160e560020a62461bcd02815260040161082790612e3b565b600054610100900460ff16158015611f98576000805461ffff19166101011790555b60338054600160a060020a031916600160a060020a0384169081179091556040516000907fc7c0c772add429241571afb3805861fb3cfa2af374534088b76cdb4325a87e9a908290a38015611571576000805461ff00191690555050565b600161200184610f0c565b6007811115612012576120126130b9565b146120885760405160e560020a62461bcd02815260206004820152602e60248201527f476f7665726e6f72416c7068613a3a5f63617374566f74653a20766f74696e6760448201527f206973206e6f74206163746976650000000000000000000000000000000000006064820152608401610827565b6000838152603d60209081526040808320603e8352818420600160a060020a0389168552909252909120805460ff161561212d5760405160e560020a62461bcd02815260206004820152602d60248201527f476f7665726e6f72416c7068613a3a5f63617374566f74653a20766f7465722060448201527f616c726561647920766f746564000000000000000000000000000000000000006064820152608401610827565b831561214d578282600b01546121439190612ff2565b600b830155612163565b8282600c015461215d9190612ff2565b600c8301555b8054841515610100810261ffff199092169190911760019081178355820184905560408051600160a060020a03891681526020810188905290810191909152606081018490527f877856338e13f63d0c36822ff0ef736b80934cd90574a3a5bc9262c39d217c469060800160405180910390a1505050505050565b603c54604051600160a060020a039091169063f2b065379061220c9088908890889088908890602001612d89565b60408051601f1981840301815290829052805160209091012060e060020a63ffffffff8416028252600482015260240160206040518083038186803b15801561225457600080fd5b505afa158015612268573d6000803e3d6000fd5b505050506040513d601f19601f8201168201806040525081019061228c9190612a76565b156123285760405160e560020a62461bcd02815260206004820152605560248201527f476f7665726e6f72427261766f3a3a71756575654f72526576657274496e746560448201527f726e616c3a206964656e746963616c2070726f706f73616c20616374696f6e2060648201527f616c726561647920717565756564206174206574610000000000000000000000608482015260a401610827565b603c546040517f3a66f901000000000000000000000000000000000000000000000000000000008152600160a060020a0390911690633a66f901906123799088908890889088908890600401612d89565b602060405180830381600087803b15801561239357600080fd5b505af11580156123a7573d6000803e3d6000fd5b505050506040513d601f19601f820116820180604052508101906123cb9190612a93565b505050505050565b828054828255906000526020600020908101928215612428579160200282015b828111156124285782518254600160a060020a031916600160a060020a039091161782556020909201916001909101906123f3565b50612434929150612525565b5090565b828054828255906000526020600020908101928215612428579160200282015b82811115612428578251825591602001919060010190612458565b8280548282559060005260206000209081019282156124c0579160200282015b828111156124c057825180516124b091849160209091019061253a565b5091602001919060010190612493565b506124349291506125ad565b828054828255906000526020600020908101928215612519579160200282015b82811115612519578251805161250991849160209091019061253a565b50916020019190600101906124ec565b506124349291506125ca565b5b808211156124345760008155600101612526565b8280546125469061304d565b90600052602060002090601f0160209004810192826125685760008555612428565b82601f1061258157805160ff1916838001178555612428565b828001600101855582156124285791820182811115612428578251825591602001919060010190612458565b808211156124345760006125c182826125e7565b506001016125ad565b808211156124345760006125de82826125e7565b506001016125ca565b5080546125f39061304d565b6000825580601f10612603575050565b601f01602090049060005260206000209081019061148a9190612525565b8035600160a060020a038116811461263857600080fd5b919050565b600082601f83011261264e57600080fd5b8135602061266361265e83612fa6565b612f75565b828152818101908583018385028701840188101561268057600080fd5b60005b858110156126a65761269482612621565b84529284019290840190600101612683565b5090979650505050505050565b600082601f8301126126c457600080fd5b813560206126d461265e83612fa6565b82815281810190858301838502870184018810156126f157600080fd5b6000805b8681101561273457823567ffffffffffffffff811115612713578283fd5b6127218b88838d0101612820565b86525093850193918501916001016126f5565b509198975050505050505050565b600082601f83011261275357600080fd5b8135602061276361265e83612fa6565b828152818101908583018385028701840188101561278057600080fd5b6000805b8681101561273457823567ffffffffffffffff8111156127a2578283fd5b6127b08b88838d0101612820565b8652509385019391850191600101612784565b600082601f8301126127d457600080fd5b813560206127e461265e83612fa6565b828152818101908583018385028701840188101561280157600080fd5b60005b858110156126a657813584529284019290840190600101612804565b600082601f83011261283157600080fd5b813561283f61265e82612fca565b81815284602083860101111561285457600080fd5b816020850160208301376000918101602001919091529392505050565b60006020828403121561288357600080fd5b61288c82612621565b9392505050565b600080600080600080600080610100898b0312156128b057600080fd5b6128b989612621565b97506128c760208a01612621565b96506128d560408a01612621565b979a96995096976060810135975060808101359660a0820135965060c0820135955060e0909101359350915050565b600080600080600060a0868803121561291c57600080fd5b61292586612621565b945061293360208701612621565b93506040860135925060608601359150608086013567ffffffffffffffff81111561295d57600080fd5b61296988828901612820565b9150509295509295909350565b600080600080600080600060e0888a03121561299157600080fd5b873567ffffffffffffffff808211156129a957600080fd5b6129b58b838c0161263d565b985060208a01359150808211156129cb57600080fd5b6129d78b838c016127c3565b975060408a01359150808211156129ed57600080fd5b6129f98b838c01612742565b965060608a0135915080821115612a0f57600080fd5b612a1b8b838c016126b3565b955060808a0135945060a08a0135915080821115612a3857600080fd5b612a448b838c01612820565b935060c08a0135915080821115612a5a57600080fd5b50612a678a828b01612820565b91505092959891949750929550565b600060208284031215612a8857600080fd5b815161288c81613104565b600060208284031215612aa557600080fd5b5051919050565b600060208284031215612abe57600080fd5b813567ffffffffffffffff811115612ad557600080fd5b612ae184828501612820565b949350505050565b600060208284031215612afb57600080fd5b815167ffffffffffffffff811115612b1257600080fd5b8201601f81018413612b2357600080fd5b8051612b3161265e82612fca565b818152856020838501011115612b4657600080fd5b612b57826020830160208601613021565b95945050505050565b600060208284031215612b7257600080fd5b5035919050565b60008060408385031215612b8c57600080fd5b82359150612b9c60208401612621565b90509250929050565b60008060008060808587031215612bbb57600080fd5b843593506020850135612bcd81613104565b925060408501359150606085013567ffffffffffffffff811115612bf057600080fd5b612bfc87828801612820565b91505092959194509250565b60008060408385031215612c1b57600080fd5b50508035926020909101359150565b600081518084526020808501808196508284028101915082860160005b85811015612c71578284038952612c5f848351612cb9565b98850198935090840190600101612c47565b5091979650505050505050565b600081518084526020808501945080840160005b83811015612cae57815187529582019590820190600101612c92565b509495945050505050565b60008151808452612cd1816020860160208601613021565b601f01601f19169290920160200192915050565b805460009060028104600180831680612cff57607f831692505b6020808410821415612d245760e060020a634e487b7102600052602260045260246000fd5b838852818015612d3b5760018114612d4f57612d7d565b60ff19861689830152604089019650612d7d565b876000528160002060005b86811015612d755781548b8201850152908501908301612d5a565b8a0183019750505b50505050505092915050565b600160a060020a038616815284602082015260a060408201526000612db160a0830186612cb9565b8281036060840152612dc38186612cb9565b9150508260808301529695505050505050565b600160a060020a038616815284602082015260a060408201526000612dfe60a0830186612ce5565b8281036060840152612dc38186612ce5565b6020810160088310612e355760e060020a634e487b7102600052602160045260246000fd5b91905290565b6020808252602e908201527f436f6e747261637420696e7374616e63652068617320616c726561647920626560408201527f656e20696e697469616c697a6564000000000000000000000000000000000000606082015260800190565b60006101408083018d84526020600160a060020a03808f16828701528360408701528293508d5180845261016087019450828f01935060005b81811015612eef578451831686529483019493830193600101612ed1565b50505050508281036060840152612f06818b612c7e565b90508281036080840152612f1a818a612c2a565b905082810360a0840152612f2e8189612c2a565b90508660c08401528560e0840152828103610100840152612f4f8186612cb9565b9050828103610120840152612f648185612cb9565b9d9c50505050505050505050505050565b604051601f8201601f1916810167ffffffffffffffff81118282101715612f9e57612f9e6130eb565b604052919050565b600067ffffffffffffffff821115612fc057612fc06130eb565b5060209081020190565b600067ffffffffffffffff821115612fe457612fe46130eb565b50601f01601f191660200190565b60008219821115613005576130056130a0565b500190565b60008282101561301c5761301c6130a0565b500390565b60005b8381101561303c578181015183820152602001613024565b838111156116175750506000910152565b60028104600182168061306157607f821691505b602082108114156110f75760e060020a634e487b7102600052602260045260246000fd5b6000600019821415613099576130996130a0565b5060010190565b60e060020a634e487b7102600052601160045260246000fd5b60e060020a634e487b7102600052602160045260246000fd5b60e060020a634e487b7102600052603260045260246000fd5b60e060020a634e487b7102600052604160045260246000fd5b801515811461148a57600080fdfea2646970667358221220743b243373ac99e304d785338b30e9eb2149c03d42f3241c7e275525f85539d364736f6c63430008070033",
  "linkReferences": {},
  "deployedLinkReferences": {}
}