{
  "fileName": "DFA1155NFT.sol",
  "contractName": "DFA1155NFT",
  "source": "pragma solidity ^0.6.0;\npragma experimental ABIEncoderV2;\n\nimport \"@openzeppelin/contracts/token/ERC1155/ERC1155.sol\";\nimport \"@openzeppelin/contracts/utils/Strings.sol\";\nimport \"./Governable.sol\";\n\ncontract DFA1155NFT is Governable, ERC1155 {\n  using Strings for uint256;\n\n  event Mint(address indexed owner, uint256 indexed tokenId, uint256 amount);\n\n  uint256 private _counter;\n  string public name;\n  string public symbol;\n  string public baseURI;\n\n\n  mapping(address => bool) public artist;\n\n  modifier onlyArtist() {\n    require(artist[msg.sender], \"only artist\");\n    _;\n  }\n\n  constructor (\n    string memory _name, \n    string memory _symbol, \n    string memory _baseURI\n  ) ERC1155(baseURI) public {\n    name = _name;\n    symbol = _symbol;\n    baseURI  = _baseURI;\n    _setURI(_baseURI);\n    super.initialize(msg.sender);\n  }\n\n  function setURI(string memory _baseURI) external governance returns (bool) {\n      baseURI = _baseURI;\n      _setURI(_baseURI);\n  }\n\n  function uri(uint256 tokenId) public view virtual override returns (string memory) {\n      return string(abi.encodePacked(baseURI, tokenId.toString()));\n  }\n\n  function mint(uint256 amount,bytes calldata data) public onlyArtist {\n    _counter += 1;\n    _mint(msg.sender, _counter, amount, data);\n    emit Mint(msg.sender, _counter, amount);\n  }\n\n  function setArtist(address _artist, bool enabled) external governance returns (bool) {\n        artist[_artist] = enabled;\n        return true;\n    }\n\n}\n",
  "sourcePath": "contracts/DFA1155NFT.sol",
  "abi": [
    {
      "inputs": [
        {
          "internalType": "string",
          "name": "_name",
          "type": "string"
        },
        {
          "internalType": "string",
          "name": "_symbol",
          "type": "string"
        },
        {
          "internalType": "string",
          "name": "_baseURI",
          "type": "string"
        }
      ],
      "stateMutability": "nonpayable",
      "type": "constructor"
    },
    {
      "anonymous": false,
      "inputs": [
        {
          "indexed": true,
          "internalType": "address",
          "name": "account",
          "type": "address"
        },
        {
          "indexed": true,
          "internalType": "address",
          "name": "operator",
          "type": "address"
        },
        {
          "indexed": false,
          "internalType": "bool",
          "name": "approved",
          "type": "bool"
        }
      ],
      "name": "ApprovalForAll",
      "type": "event"
    },
    {
      "anonymous": false,
      "inputs": [
        {
          "indexed": true,
          "internalType": "address",
          "name": "previousGovernor",
          "type": "address"
        },
        {
          "indexed": true,
          "internalType": "address",
          "name": "newGovernor",
          "type": "address"
        }
      ],
      "name": "GovernorshipTransferred",
      "type": "event"
    },
    {
      "anonymous": false,
      "inputs": [
        {
          "indexed": true,
          "internalType": "address",
          "name": "owner",
          "type": "address"
        },
        {
          "indexed": true,
          "internalType": "uint256",
          "name": "tokenId",
          "type": "uint256"
        },
        {
          "indexed": false,
          "internalType": "uint256",
          "name": "amount",
          "type": "uint256"
        }
      ],
      "name": "Mint",
      "type": "event"
    },
    {
      "anonymous": false,
      "inputs": [
        {
          "indexed": true,
          "internalType": "address",
          "name": "operator",
          "type": "address"
        },
        {
          "indexed": true,
          "internalType": "address",
          "name": "from",
          "type": "address"
        },
        {
          "indexed": true,
          "internalType": "address",
          "name": "to",
          "type": "address"
        },
        {
          "indexed": false,
          "internalType": "uint256[]",
          "name": "ids",
          "type": "uint256[]"
        },
        {
          "indexed": false,
          "internalType": "uint256[]",
          "name": "values",
          "type": "uint256[]"
        }
      ],
      "name": "TransferBatch",
      "type": "event"
    },
    {
      "anonymous": false,
      "inputs": [
        {
          "indexed": true,
          "internalType": "address",
          "name": "operator",
          "type": "address"
        },
        {
          "indexed": true,
          "internalType": "address",
          "name": "from",
          "type": "address"
        },
        {
          "indexed": true,
          "internalType": "address",
          "name": "to",
          "type": "address"
        },
        {
          "indexed": false,
          "internalType": "uint256",
          "name": "id",
          "type": "uint256"
        },
        {
          "indexed": false,
          "internalType": "uint256",
          "name": "value",
          "type": "uint256"
        }
      ],
      "name": "TransferSingle",
      "type": "event"
    },
    {
      "anonymous": false,
      "inputs": [
        {
          "indexed": false,
          "internalType": "string",
          "name": "value",
          "type": "string"
        },
        {
          "indexed": true,
          "internalType": "uint256",
          "name": "id",
          "type": "uint256"
        }
      ],
      "name": "URI",
      "type": "event"
    },
    {
      "inputs": [
        {
          "internalType": "address",
          "name": "",
          "type": "address"
        }
      ],
      "name": "artist",
      "outputs": [
        {
          "internalType": "bool",
          "name": "",
          "type": "bool"
        }
      ],
      "stateMutability": "view",
      "type": "function"
    },
    {
      "inputs": [
        {
          "internalType": "address",
          "name": "account",
          "type": "address"
        },
        {
          "internalType": "uint256",
          "name": "id",
          "type": "uint256"
        }
      ],
      "name": "balanceOf",
      "outputs": [
        {
          "internalType": "uint256",
          "name": "",
          "type": "uint256"
        }
      ],
      "stateMutability": "view",
      "type": "function"
    },
    {
      "inputs": [
        {
          "internalType": "address[]",
          "name": "accounts",
          "type": "address[]"
        },
        {
          "internalType": "uint256[]",
          "name": "ids",
          "type": "uint256[]"
        }
      ],
      "name": "balanceOfBatch",
      "outputs": [
        {
          "internalType": "uint256[]",
          "name": "",
          "type": "uint256[]"
        }
      ],
      "stateMutability": "view",
      "type": "function"
    },
    {
      "inputs": [],
      "name": "baseURI",
      "outputs": [
        {
          "internalType": "string",
          "name": "",
          "type": "string"
        }
      ],
      "stateMutability": "view",
      "type": "function"
    },
    {
      "inputs": [],
      "name": "governor",
      "outputs": [
        {
          "internalType": "address",
          "name": "",
          "type": "address"
        }
      ],
      "stateMutability": "view",
      "type": "function"
    },
    {
      "inputs": [
        {
          "internalType": "address",
          "name": "governor_",
          "type": "address"
        }
      ],
      "name": "initialize",
      "outputs": [],
      "stateMutability": "nonpayable",
      "type": "function"
    },
    {
      "inputs": [
        {
          "internalType": "address",
          "name": "account",
          "type": "address"
        },
        {
          "internalType": "address",
          "name": "operator",
          "type": "address"
        }
      ],
      "name": "isApprovedForAll",
      "outputs": [
        {
          "internalType": "bool",
          "name": "",
          "type": "bool"
        }
      ],
      "stateMutability": "view",
      "type": "function"
    },
    {
      "inputs": [
        {
          "internalType": "uint256",
          "name": "amount",
          "type": "uint256"
        },
        {
          "internalType": "bytes",
          "name": "data",
          "type": "bytes"
        }
      ],
      "name": "mint",
      "outputs": [],
      "stateMutability": "nonpayable",
      "type": "function"
    },
    {
      "inputs": [],
      "name": "name",
      "outputs": [
        {
          "internalType": "string",
          "name": "",
          "type": "string"
        }
      ],
      "stateMutability": "view",
      "type": "function"
    },
    {
      "inputs": [],
      "name": "renounceGovernorship",
      "outputs": [],
      "stateMutability": "nonpayable",
      "type": "function"
    },
    {
      "inputs": [
        {
          "internalType": "address",
          "name": "from",
          "type": "address"
        },
        {
          "internalType": "address",
          "name": "to",
          "type": "address"
        },
        {
          "internalType": "uint256[]",
          "name": "ids",
          "type": "uint256[]"
        },
        {
          "internalType": "uint256[]",
          "name": "amounts",
          "type": "uint256[]"
        },
        {
          "internalType": "bytes",
          "name": "data",
          "type": "bytes"
        }
      ],
      "name": "safeBatchTransferFrom",
      "outputs": [],
      "stateMutability": "nonpayable",
      "type": "function"
    },
    {
      "inputs": [
        {
          "internalType": "address",
          "name": "from",
          "type": "address"
        },
        {
          "internalType": "address",
          "name": "to",
          "type": "address"
        },
        {
          "internalType": "uint256",
          "name": "id",
          "type": "uint256"
        },
        {
          "internalType": "uint256",
          "name": "amount",
          "type": "uint256"
        },
        {
          "internalType": "bytes",
          "name": "data",
          "type": "bytes"
        }
      ],
      "name": "safeTransferFrom",
      "outputs": [],
      "stateMutability": "nonpayable",
      "type": "function"
    },
    {
      "inputs": [
        {
          "internalType": "address",
          "name": "operator",
          "type": "address"
        },
        {
          "internalType": "bool",
          "name": "approved",
          "type": "bool"
        }
      ],
      "name": "setApprovalForAll",
      "outputs": [],
      "stateMutability": "nonpayable",
      "type": "function"
    },
    {
      "inputs": [
        {
          "internalType": "address",
          "name": "_artist",
          "type": "address"
        },
        {
          "internalType": "bool",
          "name": "enabled",
          "type": "bool"
        }
      ],
      "name": "setArtist",
      "outputs": [
        {
          "internalType": "bool",
          "name": "",
          "type": "bool"
        }
      ],
      "stateMutability": "nonpayable",
      "type": "function"
    },
    {
      "inputs": [
        {
          "internalType": "string",
          "name": "_baseURI",
          "type": "string"
        }
      ],
      "name": "setURI",
      "outputs": [
        {
          "internalType": "bool",
          "name": "",
          "type": "bool"
        }
      ],
      "stateMutability": "nonpayable",
      "type": "function"
    },
    {
      "inputs": [
        {
          "internalType": "bytes4",
          "name": "interfaceId",
          "type": "bytes4"
        }
      ],
      "name": "supportsInterface",
      "outputs": [
        {
          "internalType": "bool",
          "name": "",
          "type": "bool"
        }
      ],
      "stateMutability": "view",
      "type": "function"
    },
    {
      "inputs": [],
      "name": "symbol",
      "outputs": [
        {
          "internalType": "string",
          "name": "",
          "type": "string"
        }
      ],
      "stateMutability": "view",
      "type": "function"
    },
    {
      "inputs": [
        {
          "internalType": "address",
          "name": "newGovernor",
          "type": "address"
        }
      ],
      "name": "transferGovernorship",
      "outputs": [],
      "stateMutability": "nonpayable",
      "type": "function"
    },
    {
      "inputs": [
        {
          "internalType": "uint256",
          "name": "tokenId",
          "type": "uint256"
        }
      ],
      "name": "uri",
      "outputs": [
        {
          "internalType": "string",
          "name": "",
          "type": "string"
        }
      ],
      "stateMutability": "view",
      "type": "function"
    }
  ],
  "bytecode": "0x60806040523480156200001157600080fd5b5060405162003c9038038062003c9083398181016040528101906200003791906200056f565b603b8054600181600116156101000203166002900480601f016020809104026020016040519081016040528092919081815260200182805460018160011615610100020316600290048015620000d15780601f10620000a557610100808354040283529160200191620000d1565b820191906000526020600020905b815481529060010190602001808311620000b357829003601f168201915b5050505050620000ee6301ffc9a760e01b620001ab60201b60201c565b620000ff816200028460201b60201c565b6200011763d9b67a2660e01b620001ab60201b60201c565b6200012f630e89341c60e01b620001ab60201b60201c565b508260399080519060200190620001489291906200046d565b5081603a9080519060200190620001619291906200046d565b5080603b90805190602001906200017a9291906200046d565b506200018c816200028460201b60201c565b620001a233620002a060201b62000f951760201c565b505050620007a0565b63ffffffff60e01b817bffffffffffffffffffffffffffffffffffffffffffffffffffffffff1916141562000217576040517f08c379a00000000000000000000000000000000000000000000000000000000081526004016200020e90620006ba565b60405180910390fd5b600160346000837bffffffffffffffffffffffffffffffffffffffffffffffffffffffff19167bffffffffffffffffffffffffffffffffffffffffffffffffffffffff1916815260200190815260200160002060006101000a81548160ff02191690831515021790555050565b80603790805190602001906200029c9291906200046d565b5050565b600060019054906101000a900460ff1680620002c85750620002c76200045660201b60201c565b5b80620002df575060008054906101000a900460ff16155b62000321576040517f08c379a00000000000000000000000000000000000000000000000000000000081526004016200031890620006dc565b60405180910390fd5b60008060019054906101000a900460ff16159050801562000372576001600060016101000a81548160ff02191690831515021790555060016000806101000a81548160ff0219169083151502179055505b81603360006101000a81548173ffffffffffffffffffffffffffffffffffffffff021916908373ffffffffffffffffffffffffffffffffffffffff160217905550603360009054906101000a900473ffffffffffffffffffffffffffffffffffffffff1673ffffffffffffffffffffffffffffffffffffffff16600073ffffffffffffffffffffffffffffffffffffffff167fc7c0c772add429241571afb3805861fb3cfa2af374534088b76cdb4325a87e9a60405160405180910390a38015620004525760008060016101000a81548160ff0219169083151502179055505b5050565b6000803090506000813b9050600081149250505090565b828054600181600116156101000203166002900490600052602060002090601f016020900481019282601f10620004b057805160ff1916838001178555620004e1565b82800160010185558215620004e1579182015b82811115620004e0578251825591602001919060010190620004c3565b5b509050620004f09190620004f4565b5090565b5b808211156200050f576000816000905550600101620004f5565b5090565b600082601f8301126200052557600080fd5b81516200053c62000536826200072c565b620006fe565b915080825260208301602083018583830111156200055957600080fd5b620005668382846200076a565b50505092915050565b6000806000606084860312156200058557600080fd5b600084015167ffffffffffffffff811115620005a057600080fd5b620005ae8682870162000513565b935050602084015167ffffffffffffffff811115620005cc57600080fd5b620005da8682870162000513565b925050604084015167ffffffffffffffff811115620005f857600080fd5b620006068682870162000513565b9150509250925092565b60006200061f601c8362000759565b91507f4552433136353a20696e76616c696420696e74657266616365206964000000006000830152602082019050919050565b600062000661602e8362000759565b91507f436f6e747261637420696e7374616e63652068617320616c726561647920626560008301527f656e20696e697469616c697a65640000000000000000000000000000000000006020830152604082019050919050565b60006020820190508181036000830152620006d58162000610565b9050919050565b60006020820190508181036000830152620006f78162000652565b9050919050565b6000604051905081810181811067ffffffffffffffff821117156200072257600080fd5b8060405250919050565b600067ffffffffffffffff8211156200074457600080fd5b601f19601f8301169050602081019050919050565b600082825260208201905092915050565b60005b838110156200078a5780820151818401526020810190506200076d565b838111156200079a576000848401525b50505050565b6134e080620007b06000396000f3fe608060405234801561001057600080fd5b50600436106101205760003560e01c806378b330ee116100ad578063c4d66de811610071578063c4d66de81461031b578063db7fd40814610337578063de8daee514610353578063e985e9c514610383578063f242432a146103b357610120565b806378b330ee1461028b57806381c0c263146102bb57806395d89b41146102c5578063a22cb465146102e3578063b6aa515b146102ff57610120565b80630c340a24116100f45780630c340a24146101d35780630e89341c146101f15780632eb2c2d6146102215780634e1273f41461023d5780636c0360eb1461026d57610120565b8062fdd58e1461012557806301ffc9a71461015557806302fe53051461018557806306fdde03146101b5575b600080fd5b61013f600480360381019061013a9190612538565b6103cf565b60405161014c91906130f0565b60405180910390f35b61016f600480360381019061016a91906125e0565b610499565b60405161017c9190612f13565b60405180910390f35b61019f600480360381019061019a9190612632565b610501565b6040516101ac9190612f13565b60405180910390f35b6101bd610582565b6040516101ca9190612f2e565b60405180910390f35b6101db610620565b6040516101e89190612ddd565b60405180910390f35b61020b60048036038101906102069190612673565b610646565b6040516102189190612f2e565b60405180910390f35b61023b600480360381019061023691906123ae565b61067a565b005b61025760048036038101906102529190612574565b610a3b565b6040516102649190612eba565b60405180910390f35b610275610b37565b6040516102829190612f2e565b60405180910390f35b6102a560048036038101906102a09190612349565b610bd5565b6040516102b29190612f13565b60405180910390f35b6102c3610bf5565b005b6102cd610d10565b6040516102da9190612f2e565b60405180910390f35b6102fd60048036038101906102f891906124fc565b610dae565b005b61031960048036038101906103149190612349565b610f2f565b005b61033560048036038101906103309190612349565b610f95565b005b610351600480360381019061034c919061269c565b61113c565b005b61036d600480360381019061036891906124fc565b611281565b60405161037a9190612f13565b60405180910390f35b61039d60048036038101906103989190612372565b61133e565b6040516103aa9190612f13565b60405180910390f35b6103cd60048036038101906103c8919061246d565b6113d2565b005b60008073ffffffffffffffffffffffffffffffffffffffff168373ffffffffffffffffffffffffffffffffffffffff161415610440576040517f08c379a000000000000000000000000000000000000000000000000000000000815260040161043790612f90565b60405180910390fd5b6035600083815260200190815260200160002060008473ffffffffffffffffffffffffffffffffffffffff1673ffffffffffffffffffffffffffffffffffffffff16815260200190815260200160002054905092915050565b600060346000837bffffffffffffffffffffffffffffffffffffffffffffffffffffffff19167bffffffffffffffffffffffffffffffffffffffffffffffffffffffff1916815260200190815260200160002060009054906101000a900460ff169050919050565b6000603360009054906101000a900473ffffffffffffffffffffffffffffffffffffffff1673ffffffffffffffffffffffffffffffffffffffff163373ffffffffffffffffffffffffffffffffffffffff161461055d57600080fd5b81603b908051906020019061057392919061204b565b5061057d82611715565b919050565b60398054600181600116156101000203166002900480601f0160208091040260200160405190810160405280929190818152602001828054600181600116156101000203166002900480156106185780601f106105ed57610100808354040283529160200191610618565b820191906000526020600020905b8154815290600101906020018083116105fb57829003601f168201915b505050505081565b603360009054906101000a900473ffffffffffffffffffffffffffffffffffffffff1681565b6060603b6106538361172f565b604051602001610664929190612db9565b6040516020818303038152906040529050919050565b81518351146106be576040517f08c379a00000000000000000000000000000000000000000000000000000000081526004016106b5906130b0565b60405180910390fd5b600073ffffffffffffffffffffffffffffffffffffffff168473ffffffffffffffffffffffffffffffffffffffff16141561072e576040517f08c379a000000000000000000000000000000000000000000000000000000000815260040161072590613010565b60405180910390fd5b610736611876565b73ffffffffffffffffffffffffffffffffffffffff168573ffffffffffffffffffffffffffffffffffffffff16148061077c575061077b85610776611876565b61133e565b5b6107bb576040517f08c379a00000000000000000000000000000000000000000000000000000000081526004016107b290613030565b60405180910390fd5b60006107c5611876565b90506107d581878787878761187e565b60005b84518110156109a65760008582815181106107ef57fe5b60200260200101519050600085838151811061080757fe5b6020026020010151905061088e816040518060600160405280602a8152602001613481602a91396035600086815260200190815260200160002060008d73ffffffffffffffffffffffffffffffffffffffff1673ffffffffffffffffffffffffffffffffffffffff168152602001908152602001600020546118869092919063ffffffff16565b6035600084815260200190815260200160002060008b73ffffffffffffffffffffffffffffffffffffffff1673ffffffffffffffffffffffffffffffffffffffff16815260200190815260200160002081905550610945816035600085815260200190815260200160002060008b73ffffffffffffffffffffffffffffffffffffffff1673ffffffffffffffffffffffffffffffffffffffff168152602001908152602001600020546118db90919063ffffffff16565b6035600084815260200190815260200160002060008a73ffffffffffffffffffffffffffffffffffffffff1673ffffffffffffffffffffffffffffffffffffffff1681526020019081526020016000208190555050508060010190506107d8565b508473ffffffffffffffffffffffffffffffffffffffff168673ffffffffffffffffffffffffffffffffffffffff168273ffffffffffffffffffffffffffffffffffffffff167f4a39dc06d4c0dbc64b70af90fd698a233a518aa5d07e595d983b8c0526c8f7fb8787604051610a1d929190612edc565b60405180910390a4610a33818787878787611930565b505050505050565b60608151835114610a81576040517f08c379a0000000000000000000000000000000000000000000000000000000008152600401610a7890613090565b60405180910390fd5b6060835167ffffffffffffffff81118015610a9b57600080fd5b50604051908082528060200260200182016040528015610aca5781602001602082028036833780820191505090505b50905060005b8451811015610b2c57610b09858281518110610ae857fe5b6020026020010151858381518110610afc57fe5b60200260200101516103cf565b828281518110610b1557fe5b602002602001018181525050806001019050610ad0565b508091505092915050565b603b8054600181600116156101000203166002900480601f016020809104026020016040519081016040528092919081815260200182805460018160011615610100020316600290048015610bcd5780601f10610ba257610100808354040283529160200191610bcd565b820191906000526020600020905b815481529060010190602001808311610bb057829003601f168201915b505050505081565b603c6020528060005260406000206000915054906101000a900460ff1681565b603360009054906101000a900473ffffffffffffffffffffffffffffffffffffffff1673ffffffffffffffffffffffffffffffffffffffff163373ffffffffffffffffffffffffffffffffffffffff1614610c4f57600080fd5b600073ffffffffffffffffffffffffffffffffffffffff16603360009054906101000a900473ffffffffffffffffffffffffffffffffffffffff1673ffffffffffffffffffffffffffffffffffffffff167fc7c0c772add429241571afb3805861fb3cfa2af374534088b76cdb4325a87e9a60405160405180910390a36000603360006101000a81548173ffffffffffffffffffffffffffffffffffffffff021916908373ffffffffffffffffffffffffffffffffffffffff160217905550565b603a8054600181600116156101000203166002900480601f016020809104026020016040519081016040528092919081815260200182805460018160011615610100020316600290048015610da65780601f10610d7b57610100808354040283529160200191610da6565b820191906000526020600020905b815481529060010190602001808311610d8957829003601f168201915b505050505081565b8173ffffffffffffffffffffffffffffffffffffffff16610dcd611876565b73ffffffffffffffffffffffffffffffffffffffff161415610e24576040517f08c379a0000000000000000000000000000000000000000000000000000000008152600401610e1b90613070565b60405180910390fd5b8060366000610e31611876565b73ffffffffffffffffffffffffffffffffffffffff1673ffffffffffffffffffffffffffffffffffffffff16815260200190815260200160002060008473ffffffffffffffffffffffffffffffffffffffff1673ffffffffffffffffffffffffffffffffffffffff16815260200190815260200160002060006101000a81548160ff0219169083151502179055508173ffffffffffffffffffffffffffffffffffffffff16610ede611876565b73ffffffffffffffffffffffffffffffffffffffff167f17307eab39ab6107e8899845ad3d59bd9653f200f220920489ca2b5937696c3183604051610f239190612f13565b60405180910390a35050565b603360009054906101000a900473ffffffffffffffffffffffffffffffffffffffff1673ffffffffffffffffffffffffffffffffffffffff163373ffffffffffffffffffffffffffffffffffffffff1614610f8957600080fd5b610f9281611b00565b50565b600060019054906101000a900460ff1680610fb45750610fb3611bfa565b5b80610fca575060008054906101000a900460ff16155b611009576040517f08c379a000000000000000000000000000000000000000000000000000000000815260040161100090613050565b60405180910390fd5b60008060019054906101000a900460ff161590508015611059576001600060016101000a81548160ff02191690831515021790555060016000806101000a81548160ff0219169083151502179055505b81603360006101000a81548173ffffffffffffffffffffffffffffffffffffffff021916908373ffffffffffffffffffffffffffffffffffffffff160217905550603360009054906101000a900473ffffffffffffffffffffffffffffffffffffffff1673ffffffffffffffffffffffffffffffffffffffff16600073ffffffffffffffffffffffffffffffffffffffff167fc7c0c772add429241571afb3805861fb3cfa2af374534088b76cdb4325a87e9a60405160405180910390a380156111385760008060016101000a81548160ff0219169083151502179055505b5050565b603c60003373ffffffffffffffffffffffffffffffffffffffff1673ffffffffffffffffffffffffffffffffffffffff16815260200190815260200160002060009054906101000a900460ff166111c8576040517f08c379a00000000000000000000000000000000000000000000000000000000081526004016111bf90612fd0565b60405180910390fd5b600160386000828254019250508190555061122b336038548585858080601f016020809104026020016040519081016040528093929190818152602001838380828437600081840152601f19601f82011690508083019250505050505050611c11565b6038543373ffffffffffffffffffffffffffffffffffffffff167f4c209b5fc8ad50758f13e2e1088ba56a560dff690a1c6fef26394f4c03821c4f8560405161127491906130f0565b60405180910390a3505050565b6000603360009054906101000a900473ffffffffffffffffffffffffffffffffffffffff1673ffffffffffffffffffffffffffffffffffffffff163373ffffffffffffffffffffffffffffffffffffffff16146112dd57600080fd5b81603c60008573ffffffffffffffffffffffffffffffffffffffff1673ffffffffffffffffffffffffffffffffffffffff16815260200190815260200160002060006101000a81548160ff0219169083151502179055506001905092915050565b6000603660008473ffffffffffffffffffffffffffffffffffffffff1673ffffffffffffffffffffffffffffffffffffffff16815260200190815260200160002060008373ffffffffffffffffffffffffffffffffffffffff1673ffffffffffffffffffffffffffffffffffffffff16815260200190815260200160002060009054906101000a900460ff16905092915050565b600073ffffffffffffffffffffffffffffffffffffffff168473ffffffffffffffffffffffffffffffffffffffff161415611442576040517f08c379a000000000000000000000000000000000000000000000000000000000815260040161143990613010565b60405180910390fd5b61144a611876565b73ffffffffffffffffffffffffffffffffffffffff168573ffffffffffffffffffffffffffffffffffffffff161480611490575061148f8561148a611876565b61133e565b5b6114cf576040517f08c379a00000000000000000000000000000000000000000000000000000000081526004016114c690612ff0565b60405180910390fd5b60006114d9611876565b90506114f98187876114ea88611df8565b6114f388611df8565b8761187e565b611576836040518060600160405280602a8152602001613481602a91396035600088815260200190815260200160002060008a73ffffffffffffffffffffffffffffffffffffffff1673ffffffffffffffffffffffffffffffffffffffff168152602001908152602001600020546118869092919063ffffffff16565b6035600086815260200190815260200160002060008873ffffffffffffffffffffffffffffffffffffffff1673ffffffffffffffffffffffffffffffffffffffff1681526020019081526020016000208190555061162d836035600087815260200190815260200160002060008873ffffffffffffffffffffffffffffffffffffffff1673ffffffffffffffffffffffffffffffffffffffff168152602001908152602001600020546118db90919063ffffffff16565b6035600086815260200190815260200160002060008773ffffffffffffffffffffffffffffffffffffffff1673ffffffffffffffffffffffffffffffffffffffff168152602001908152602001600020819055508473ffffffffffffffffffffffffffffffffffffffff168673ffffffffffffffffffffffffffffffffffffffff168273ffffffffffffffffffffffffffffffffffffffff167fc3d58168c5ae7397731d063d5bbf3d657854427343f4c083240f7aacaa2d0f6287876040516116f792919061310b565b60405180910390a461170d818787878787611e68565b505050505050565b806037908051906020019061172b92919061204b565b5050565b60606000821415611777576040518060400160405280600181526020017f30000000000000000000000000000000000000000000000000000000000000008152509050611871565b600082905060005b600082146117a1578080600101915050600a828161179957fe5b04915061177f565b60608167ffffffffffffffff811180156117ba57600080fd5b506040519080825280601f01601f1916602001820160405280156117ed5781602001600182028036833780820191505090505b50905060006001830390508593505b6000841461186957600a848161180e57fe5b0660300160f81b8282806001900393508151811061182857fe5b60200101907effffffffffffffffffffffffffffffffffffffffffffffffffffffffffffff1916908160001a905350600a848161186157fe5b0493506117fc565b819450505050505b919050565b600033905090565b505050505050565b60008383111582906118ce576040517f08c379a00000000000000000000000000000000000000000000000000000000081526004016118c59190612f2e565b60405180910390fd5b5082840390509392505050565b600080828401905083811015611926576040517f08c379a000000000000000000000000000000000000000000000000000000000815260040161191d90612fb0565b60405180910390fd5b8091505092915050565b61194f8473ffffffffffffffffffffffffffffffffffffffff16612038565b15611af8578373ffffffffffffffffffffffffffffffffffffffff1663bc197c8187878686866040518663ffffffff1660e01b8152600401611995959493929190612df8565b602060405180830381600087803b1580156119af57600080fd5b505af19250505080156119e057506040513d601f19601f820116820180604052508101906119dd9190612609565b60015b611a6f576119ec61336e565b806119f75750611a34565b806040517f08c379a0000000000000000000000000000000000000000000000000000000008152600401611a2b9190612f2e565b60405180910390fd5b6040517f08c379a0000000000000000000000000000000000000000000000000000000008152600401611a6690612f50565b60405180910390fd5b63bc197c8160e01b7bffffffffffffffffffffffffffffffffffffffffffffffffffffffff1916817bffffffffffffffffffffffffffffffffffffffffffffffffffffffff191614611af6576040517f08c379a0000000000000000000000000000000000000000000000000000000008152600401611aed90612f70565b60405180910390fd5b505b505050505050565b600073ffffffffffffffffffffffffffffffffffffffff168173ffffffffffffffffffffffffffffffffffffffff161415611b3a57600080fd5b8073ffffffffffffffffffffffffffffffffffffffff16603360009054906101000a900473ffffffffffffffffffffffffffffffffffffffff1673ffffffffffffffffffffffffffffffffffffffff167fc7c0c772add429241571afb3805861fb3cfa2af374534088b76cdb4325a87e9a60405160405180910390a380603360006101000a81548173ffffffffffffffffffffffffffffffffffffffff021916908373ffffffffffffffffffffffffffffffffffffffff16021790555050565b6000803090506000813b9050600081149250505090565b600073ffffffffffffffffffffffffffffffffffffffff168473ffffffffffffffffffffffffffffffffffffffff161415611c81576040517f08c379a0000000000000000000000000000000000000000000000000000000008152600401611c78906130d0565b60405180910390fd5b6000611c8b611876565b9050611cac81600087611c9d88611df8565b611ca688611df8565b8761187e565b611d0f836035600087815260200190815260200160002060008873ffffffffffffffffffffffffffffffffffffffff1673ffffffffffffffffffffffffffffffffffffffff168152602001908152602001600020546118db90919063ffffffff16565b6035600086815260200190815260200160002060008773ffffffffffffffffffffffffffffffffffffffff1673ffffffffffffffffffffffffffffffffffffffff168152602001908152602001600020819055508473ffffffffffffffffffffffffffffffffffffffff16600073ffffffffffffffffffffffffffffffffffffffff168273ffffffffffffffffffffffffffffffffffffffff167fc3d58168c5ae7397731d063d5bbf3d657854427343f4c083240f7aacaa2d0f628787604051611dda92919061310b565b60405180910390a4611df181600087878787611e68565b5050505050565b606080600167ffffffffffffffff81118015611e1357600080fd5b50604051908082528060200260200182016040528015611e425781602001602082028036833780820191505090505b5090508281600081518110611e5357fe5b60200260200101818152505080915050919050565b611e878473ffffffffffffffffffffffffffffffffffffffff16612038565b15612030578373ffffffffffffffffffffffffffffffffffffffff1663f23a6e6187878686866040518663ffffffff1660e01b8152600401611ecd959493929190612e60565b602060405180830381600087803b158015611ee757600080fd5b505af1925050508015611f1857506040513d601f19601f82011682018060405250810190611f159190612609565b60015b611fa757611f2461336e565b80611f2f5750611f6c565b806040517f08c379a0000000000000000000000000000000000000000000000000000000008152600401611f639190612f2e565b60405180910390fd5b6040517f08c379a0000000000000000000000000000000000000000000000000000000008152600401611f9e90612f50565b60405180910390fd5b63f23a6e6160e01b7bffffffffffffffffffffffffffffffffffffffffffffffffffffffff1916817bffffffffffffffffffffffffffffffffffffffffffffffffffffffff19161461202e576040517f08c379a000000000000000000000000000000000000000000000000000000000815260040161202590612f70565b60405180910390fd5b505b505050505050565b600080823b905060008111915050919050565b828054600181600116156101000203166002900490600052602060002090601f016020900481019282601f1061208c57805160ff19168380011785556120ba565b828001600101855582156120ba579182015b828111156120b957825182559160200191906001019061209e565b5b5090506120c791906120cb565b5090565b5b808211156120e45760008160009055506001016120cc565b5090565b6000813590506120f781613424565b92915050565b600082601f83011261210e57600080fd5b813561212161211c82613161565b613134565b9150818183526020840193506020810190508385602084028201111561214657600080fd5b60005b83811015612176578161215c88826120e8565b845260208401935060208301925050600181019050612149565b5050505092915050565b600082601f83011261219157600080fd5b81356121a461219f82613189565b613134565b915081818352602084019350602081019050838560208402820111156121c957600080fd5b60005b838110156121f957816121df8882612334565b8452602084019350602083019250506001810190506121cc565b5050505092915050565b6000813590506122128161343b565b92915050565b60008135905061222781613452565b92915050565b60008151905061223c81613452565b92915050565b60008083601f84011261225457600080fd5b8235905067ffffffffffffffff81111561226d57600080fd5b60208301915083600182028301111561228557600080fd5b9250929050565b600082601f83011261229d57600080fd5b81356122b06122ab826131b1565b613134565b915080825260208301602083018583830111156122cc57600080fd5b6122d783828461330e565b50505092915050565b600082601f8301126122f157600080fd5b81356123046122ff826131dd565b613134565b9150808252602083016020830185838301111561232057600080fd5b61232b83828461330e565b50505092915050565b60008135905061234381613469565b92915050565b60006020828403121561235b57600080fd5b6000612369848285016120e8565b91505092915050565b6000806040838503121561238557600080fd5b6000612393858286016120e8565b92505060206123a4858286016120e8565b9150509250929050565b600080600080600060a086880312156123c657600080fd5b60006123d4888289016120e8565b95505060206123e5888289016120e8565b945050604086013567ffffffffffffffff81111561240257600080fd5b61240e88828901612180565b935050606086013567ffffffffffffffff81111561242b57600080fd5b61243788828901612180565b925050608086013567ffffffffffffffff81111561245457600080fd5b6124608882890161228c565b9150509295509295909350565b600080600080600060a0868803121561248557600080fd5b6000612493888289016120e8565b95505060206124a4888289016120e8565b94505060406124b588828901612334565b93505060606124c688828901612334565b925050608086013567ffffffffffffffff8111156124e357600080fd5b6124ef8882890161228c565b9150509295509295909350565b6000806040838503121561250f57600080fd5b600061251d858286016120e8565b925050602061252e85828601612203565b9150509250929050565b6000806040838503121561254b57600080fd5b6000612559858286016120e8565b925050602061256a85828601612334565b9150509250929050565b6000806040838503121561258757600080fd5b600083013567ffffffffffffffff8111156125a157600080fd5b6125ad858286016120fd565b925050602083013567ffffffffffffffff8111156125ca57600080fd5b6125d685828601612180565b9150509250929050565b6000602082840312156125f257600080fd5b600061260084828501612218565b91505092915050565b60006020828403121561261b57600080fd5b60006126298482850161222d565b91505092915050565b60006020828403121561264457600080fd5b600082013567ffffffffffffffff81111561265e57600080fd5b61266a848285016122e0565b91505092915050565b60006020828403121561268557600080fd5b600061269384828501612334565b91505092915050565b6000806000604084860312156126b157600080fd5b60006126bf86828701612334565b935050602084013567ffffffffffffffff8111156126dc57600080fd5b6126e886828701612242565b92509250509250925092565b60006127008383612d9b565b60208301905092915050565b6127158161329a565b82525050565b60006127268261322e565b612730818561325c565b935061273b83613209565b8060005b8381101561276c57815161275388826126f4565b975061275e8361324f565b92505060018101905061273f565b5085935050505092915050565b612782816132ac565b82525050565b600061279382613239565b61279d818561326d565b93506127ad81856020860161331d565b6127b681613350565b840191505092915050565b60006127cc82613244565b6127d6818561327e565b93506127e681856020860161331d565b6127ef81613350565b840191505092915050565b600061280582613244565b61280f818561328f565b935061281f81856020860161331d565b80840191505092915050565b600081546001811660008114612848576001811461286d576128b1565b607f6002830416612859818761328f565b955060ff19831686528086019350506128b1565b6002820461287b818761328f565b955061288685613219565b60005b828110156128a857815481890152600182019150602081019050612889565b82880195505050505b505092915050565b60006128c660348361327e565b91507f455243313135353a207472616e7366657220746f206e6f6e204552433131353560008301527f526563656976657220696d706c656d656e7465720000000000000000000000006020830152604082019050919050565b600061292c60288361327e565b91507f455243313135353a204552433131353552656365697665722072656a6563746560008301527f6420746f6b656e730000000000000000000000000000000000000000000000006020830152604082019050919050565b6000612992602b8361327e565b91507f455243313135353a2062616c616e636520717565727920666f7220746865207a60008301527f65726f20616464726573730000000000000000000000000000000000000000006020830152604082019050919050565b60006129f8601b8361327e565b91507f536166654d6174683a206164646974696f6e206f766572666c6f7700000000006000830152602082019050919050565b6000612a38600b8361327e565b91507f6f6e6c79206172746973740000000000000000000000000000000000000000006000830152602082019050919050565b6000612a7860298361327e565b91507f455243313135353a2063616c6c6572206973206e6f74206f776e6572206e6f7260008301527f20617070726f76656400000000000000000000000000000000000000000000006020830152604082019050919050565b6000612ade60258361327e565b91507f455243313135353a207472616e7366657220746f20746865207a65726f20616460008301527f64726573730000000000000000000000000000000000000000000000000000006020830152604082019050919050565b6000612b4460328361327e565b91507f455243313135353a207472616e736665722063616c6c6572206973206e6f742060008301527f6f776e6572206e6f7220617070726f76656400000000000000000000000000006020830152604082019050919050565b6000612baa602e8361327e565b91507f436f6e747261637420696e7374616e63652068617320616c726561647920626560008301527f656e20696e697469616c697a65640000000000000000000000000000000000006020830152604082019050919050565b6000612c1060298361327e565b91507f455243313135353a2073657474696e6720617070726f76616c2073746174757360008301527f20666f722073656c6600000000000000000000000000000000000000000000006020830152604082019050919050565b6000612c7660298361327e565b91507f455243313135353a206163636f756e747320616e6420696473206c656e67746860008301527f206d69736d6174636800000000000000000000000000000000000000000000006020830152604082019050919050565b6000612cdc60288361327e565b91507f455243313135353a2069647320616e6420616d6f756e7473206c656e6774682060008301527f6d69736d617463680000000000000000000000000000000000000000000000006020830152604082019050919050565b6000612d4260218361327e565b91507f455243313135353a206d696e7420746f20746865207a65726f2061646472657360008301527f73000000000000000000000000000000000000000000000000000000000000006020830152604082019050919050565b612da481613304565b82525050565b612db381613304565b82525050565b6000612dc5828561282b565b9150612dd182846127fa565b91508190509392505050565b6000602082019050612df2600083018461270c565b92915050565b600060a082019050612e0d600083018861270c565b612e1a602083018761270c565b8181036040830152612e2c818661271b565b90508181036060830152612e40818561271b565b90508181036080830152612e548184612788565b90509695505050505050565b600060a082019050612e75600083018861270c565b612e82602083018761270c565b612e8f6040830186612daa565b612e9c6060830185612daa565b8181036080830152612eae8184612788565b90509695505050505050565b60006020820190508181036000830152612ed4818461271b565b905092915050565b60006040820190508181036000830152612ef6818561271b565b90508181036020830152612f0a818461271b565b90509392505050565b6000602082019050612f286000830184612779565b92915050565b60006020820190508181036000830152612f4881846127c1565b905092915050565b60006020820190508181036000830152612f69816128b9565b9050919050565b60006020820190508181036000830152612f898161291f565b9050919050565b60006020820190508181036000830152612fa981612985565b9050919050565b60006020820190508181036000830152612fc9816129eb565b9050919050565b60006020820190508181036000830152612fe981612a2b565b9050919050565b6000602082019050818103600083015261300981612a6b565b9050919050565b6000602082019050818103600083015261302981612ad1565b9050919050565b6000602082019050818103600083015261304981612b37565b9050919050565b6000602082019050818103600083015261306981612b9d565b9050919050565b6000602082019050818103600083015261308981612c03565b9050919050565b600060208201905081810360008301526130a981612c69565b9050919050565b600060208201905081810360008301526130c981612ccf565b9050919050565b600060208201905081810360008301526130e981612d35565b9050919050565b60006020820190506131056000830184612daa565b92915050565b60006040820190506131206000830185612daa565b61312d6020830184612daa565b9392505050565b6000604051905081810181811067ffffffffffffffff8211171561315757600080fd5b8060405250919050565b600067ffffffffffffffff82111561317857600080fd5b602082029050602081019050919050565b600067ffffffffffffffff8211156131a057600080fd5b602082029050602081019050919050565b600067ffffffffffffffff8211156131c857600080fd5b601f19601f8301169050602081019050919050565b600067ffffffffffffffff8211156131f457600080fd5b601f19601f8301169050602081019050919050565b6000819050602082019050919050565b60008190508160005260206000209050919050565b600081519050919050565b600081519050919050565b600081519050919050565b6000602082019050919050565b600082825260208201905092915050565b600082825260208201905092915050565b600082825260208201905092915050565b600081905092915050565b60006132a5826132e4565b9050919050565b60008115159050919050565b60007fffffffff0000000000000000000000000000000000000000000000000000000082169050919050565b600073ffffffffffffffffffffffffffffffffffffffff82169050919050565b6000819050919050565b82818337600083830152505050565b60005b8381101561333b578082015181840152602081019050613320565b8381111561334a576000848401525b50505050565b6000601f19601f8301169050919050565b60008160e01c9050919050565b600060443d101561337e57613421565b60046000803e61338f600051613361565b6308c379a081146133a05750613421565b60405160043d036004823e80513d602482011167ffffffffffffffff821117156133cc57505050613421565b808201805167ffffffffffffffff8111156133eb575050505050613421565b8060208301013d850181111561340657505050505050613421565b61340f82613350565b60208401016040528296505050505050505b90565b61342d8161329a565b811461343857600080fd5b50565b613444816132ac565b811461344f57600080fd5b50565b61345b816132b8565b811461346657600080fd5b50565b61347281613304565b811461347d57600080fd5b5056fe455243313135353a20696e73756666696369656e742062616c616e636520666f72207472616e73666572a26469706673582212209078a608fe10a42618b8739f0ce438cb6c812f5116f0c9d7cc34dd7e1978308464736f6c634300060c0033",
  "compiler": {
    "name": "solc",
    "version": "0.6.12+commit.27d51765.Emscripten.clang",
    "optimizer": {
      "enabled": false,
      "runs": 200
    },
    "evmVersion": "petersburg"
  }
}