{
  "fileName": "FixedSwapNFT.sol",
  "contractName": "FixedSwapNFT",
  "source": "// SPDX-License-Identifier: MIT\n\npragma solidity ^0.6.0;\npragma experimental ABIEncoderV2;\n\nimport \"@openzeppelin/contracts/math/SafeMath.sol\";\nimport \"@openzeppelin/contracts/token/ERC20/SafeERC20.sol\";\nimport \"@openzeppelin/contracts/token/ERC20/IERC20.sol\";\nimport \"@openzeppelin/contracts/token/ERC721/IERC721.sol\";\nimport \"@openzeppelin/contracts/token/ERC721/IERC721Receiver.sol\";\nimport \"./Governable.sol\";\nimport \"./interfaces/IERC1155.sol\";\nimport \"./NFTIndexer.sol\";\n\ncontract FixedSwapNFT is Configurable, IERC721Receiver {\n    using SafeMath for uint;\n    using SafeERC20 for IERC20;\n\n    uint    internal constant TypeErc721            = 0;\n    uint    internal constant TypeErc1155           = 1;\n\n    struct Pool {\n        // address of pool creator\n        address payable creator;\n        // pool name\n        string name;\n        // address of sell token\n        address token0;\n        // address of buy token\n        address token1;\n        // token id of token0\n        uint tokenId;\n        // total amount of token0\n        uint amountTotal0;\n        // total amount of token1\n        uint amountTotal1;\n        // the timestamp in seconds the pool will be closed\n        uint closeAt;\n        // NFT token type\n        uint nftType;\n    }\n\n    Pool[] public pools;\n\n    // creator address => pool index + 1. if the result is 0, the account don't create any pool.\n    mapping(address => uint) public myCreatedP;\n    // name => pool index + 1\n    mapping(string => uint) public myNameP;\n\n    // pool index => a flag that if creator is claimed the pool\n    mapping(uint => bool) public creatorClaimedP;\n    mapping(uint => bool) public swappedP;\n\n    // check if token0 in whitelist\n    bool public checkToken0;\n    // token0 address => true or false\n    mapping(address => bool) public token0List;\n\n    // pool index => swapped amount of token0\n    mapping(uint => uint) public swappedAmount0P;\n    // pool index => swapped amount of token1\n    mapping(uint => uint) public swappedAmount1P;\n\n    uint256 public fee;\n\n    uint256 public feeMax;\n\n    address payable public feeTo;\n\n    address indexer; \n\n    // the timestamp in seconds the pool will start\n    mapping(uint => uint) public startAt;\n\n    mapping(uint => bool) public poolIsUnique;\n    mapping(address => uint) public userLimited;\n\n    event Created(address indexed sender, uint indexed index, Pool pool, uint startTime);\n    event Swapped(address indexed sender, uint indexed index, uint amount0, uint amount1);\n    event Claimed(address indexed sender, uint indexed index, uint amount0);\n\n    function initialize(address _governor) public override initializer {\n        require(msg.sender == governor || governor == address(0), \"invalid governor\");\n        governor = _governor;\n        feeMax = 10000;\n    }\n\n    function createErc721(\n        // name of the pool\n        string memory name,\n        // address of token0\n        address token0,\n        // address of token1\n        address token1,\n        // token id of token0\n        uint tokenId,\n        // total amount of token1\n        uint amountTotal1,\n        // duration time\n        uint duration\n    ) external payable {\n        if (checkToken0) {\n            require(token0List[token0], \"invalid token0\");\n        }\n        uint amountTotal0 = 1;\n        _create(\n            name, token0, token1, tokenId, amountTotal0, amountTotal1,\n            duration, TypeErc721, now, false\n        );\n    }\n\n    function createErc721WithStartTime (\n        // name of the pool\n        string memory name,\n        // address of token0\n        address token0,\n        // address of token1\n        address token1,\n        // token id of token0\n        uint tokenId,\n        // total amount of token1\n        uint amountTotal1,\n        // duration time\n        uint duration,\n        // start time\n        uint startTime,\n        // is unique\n        bool isUnique\n    ) external payable {\n        if (checkToken0) {\n            require(token0List[token0], \"invalid token0\");\n        }\n        uint amountTotal0 = 1;\n        _create(\n            name, token0, token1, tokenId, amountTotal0, amountTotal1,\n            duration, TypeErc721, startTime, isUnique\n        );\n    }\n\n    function createErc1155(\n        // name of the pool\n        string memory name,\n        // address of token0\n        address token0,\n        // address of token1\n        address token1,\n        // token id of token0\n        uint tokenId,\n        // total amount of token0\n        uint amountTotal0,\n        // total amount of token1\n        uint amountTotal1,\n        // duration time\n        uint duration\n    ) external payable {\n        if (checkToken0) {\n            require(token0List[token0], \"invalid token0\");\n        }\n        _create(\n            name, token0, token1, tokenId, amountTotal0, amountTotal1,\n            duration, TypeErc1155, now, false\n        );\n    }\n\n    function createErc1155WithStartTime(\n        // name of the pool\n        string memory name,\n        // address of token0\n        address token0,\n        // address of token1\n        address token1,\n        // token id of token0\n        uint tokenId,\n        // total amount of token0\n        uint amountTotal0,\n        // total amount of token1\n        uint amountTotal1,\n        // duration time\n        uint duration,\n        // start time\n        uint startTime,\n        // is unique\n        bool isUnique\n    ) external payable {\n        if (checkToken0) {\n            require(token0List[token0], \"invalid token0\");\n        }\n        _create(\n            name, token0, token1, tokenId, amountTotal0, amountTotal1,\n            duration, TypeErc1155, startTime, isUnique\n        );\n    }\n\n    function _create(\n        string memory name,\n        address token0,\n        address token1,\n        uint tokenId,\n        uint amountTotal0,\n        uint amountTotal1,\n        uint duration,\n        uint nftType,\n        uint startTime,\n        bool isUnique\n    ) private\n    {\n        require(startTime > 0, \"start time should not be zero\");\n        require(amountTotal1 != 0, \"the value of amountTotal1 is zero.\");\n        require(duration != 0, \"the value of duration is zero.\");\n        require(bytes(name).length <= 15, \"the length of name is too long\");\n\n        uint closeTime = 0;\n        if (startTime <= now) {\n            closeTime = now.add(duration);\n        } else {\n            closeTime = startTime.add(duration);\n        }\n\n        // creator pool\n        Pool memory pool;\n        pool.creator = msg.sender;\n        pool.name = name;\n        pool.token0 = token0;\n        pool.token1 = token1;\n        pool.tokenId = tokenId;\n        pool.amountTotal0 = amountTotal0;\n        pool.amountTotal1 = amountTotal1;\n        pool.closeAt = closeTime;\n        pool.nftType = nftType;\n\n        uint index = pools.length;\n\n        pools.push(pool);\n        startAt[index] = startTime;\n        myCreatedP[msg.sender] = pools.length;\n        myNameP[name] = pools.length;\n        if (isUnique) {\n            poolIsUnique[index] = true;\n        }\n\n        // transfer tokenId of token0 to this contract\n        if (nftType == TypeErc721) {\n            require(amountTotal0 == 1, \"invalid amountTotal0\");\n            IERC721(token0).safeTransferFrom(msg.sender, address(this), tokenId);\n            NFTIndexer(indexer).new721Fixswap(token0, tokenId, pools.length - 1);\n        } else {\n            require(amountTotal0 != 0, \"invalid amountTotal0\");\n            IERC1155(token0).safeTransferFrom(msg.sender, address(this), tokenId, amountTotal0, \"\");\n            NFTIndexer(indexer).new1155Fixswap(token0, pool.creator, tokenId, pools.length - 1);\n        }\n\n        emit Created(msg.sender, index, pool, startTime);\n    }\n\n    function swap(uint index, uint amount0) external payable\n        isPoolExist(index)\n        isPoolNotClosed(index)\n        isPoolStarted(index)\n        isAccountLimited(index, msg.sender)\n    {\n        Pool storage pool = pools[index];\n        require(amount0 >= 1 && amount0 <= pool.amountTotal0, \"invalid amount0\");\n        require(swappedAmount0P[index].add(amount0) <= pool.amountTotal0, \"pool filled or invalid amount0\");\n\n        uint amount1 = amount0.mul(pool.amountTotal1).div(pool.amountTotal0);\n        swappedAmount0P[index] = swappedAmount0P[index].add(amount0);\n        swappedAmount1P[index] = swappedAmount1P[index].add(amount1);\n        if (swappedAmount0P[index] == pool.amountTotal0) {\n            // mark pool is swapped\n            swappedP[index] = true;\n        }\n        uint256 swapFee = 0;\n        if (feeTo != address(0) && fee > 0) {\n            swapFee = amount1.mul(fee).div(feeMax);\n        }\n\n        // transfer amount of token1 to creator\n        if (pool.token1 == address(0)) {\n            require(amount1 == msg.value, \"invalid ETH amount\");\n            // transfer ETH to creator\n\n            if (swapFee > 0) {\n                feeTo.transfer(swapFee);\n            }\n            pool.creator.transfer(amount1.sub(swapFee));\n        } else {\n            IERC20(pool.token1).safeTransferFrom(msg.sender, pool.creator, amount1.sub(swapFee));\n            if (swapFee > 0) {\n                IERC20(pool.token1).safeTransferFrom(msg.sender, feeTo, swapFee);\n            }\n        }\n\n        // transfer tokenId of token0 to sender\n        if (pool.nftType == TypeErc721) {\n            IERC721(pool.token0).safeTransferFrom(address(this), msg.sender, pool.tokenId);\n        } else {\n            IERC1155(pool.token0).safeTransferFrom(address(this), msg.sender, pool.tokenId, amount0, \"\");\n        }\n\n        if (swappedAmount0P[index] == pool.amountTotal0) {\n            pools[index].closeAt = now;\n        }\n\n        if (poolIsUnique[index]) {\n            userLimited[msg.sender] = block.timestamp;\n        }\n\n        emit Swapped(msg.sender, index, amount0, amount1);\n    }\n\n    function creatorClaim(uint index) external\n        isPoolExist(index)\n    {\n        require(isCreator(msg.sender, index), \"sender is not pool creator\");\n        require(!creatorClaimedP[index], \"creator has claimed this pool\");\n        creatorClaimedP[index] = true;\n\n        // remove ownership of this pool from creator\n        delete myCreatedP[msg.sender];\n\n        Pool memory pool = pools[index];\n        if (pool.nftType == TypeErc721) {\n            IERC721(pool.token0).safeTransferFrom(address(this), pool.creator, pool.tokenId);\n        } else {\n            IERC1155(pool.token0).safeTransferFrom(address(this), pool.creator, pool.tokenId, pool.amountTotal0.sub(swappedAmount0P[index]), \"\");\n        }\n\n        pools[index].closeAt = now;\n\n        emit Claimed(msg.sender, index, pool.amountTotal0.sub(swappedAmount0P[index]));\n    }\n\n    function transferGovernor(address _governor) external {\n        require(msg.sender == governor || governor == address(0), \"invalid governor\");\n        governor = _governor;\n    }\n\n    function isCreator(address target, uint index) internal view returns (bool) {\n        if (pools[index].creator == target) {\n            return true;\n        }\n        return false;\n    }\n\n    function getPoolCount() external view returns (uint) {\n        return pools.length;\n    }\n\n    function setFee(uint256 _fee) external governance returns (bool) {\n        fee = _fee;\n        return  true;\n    }\n\n    function setFeeMax(uint256 _feeMax) external governance returns (bool) {\n        feeMax = _feeMax;\n        return  true;\n    }\n\n    function setFeeTo(address payable _feeTo) external governance returns (bool) {\n        feeTo = _feeTo;\n        return  true;\n    }\n\n    function setIndexer(address _indexer) external governance returns (bool) {\n        indexer = _indexer;\n        return  true;\n    }\n\n    function onERC721Received(address, address, uint, bytes calldata) external override returns (bytes4) {\n        return this.onERC721Received.selector;\n    }\n\n    function onERC1155Received(address, address, uint, uint, bytes calldata) external returns(bytes4) {\n        return this.onERC1155Received.selector;\n    }\n\n    modifier isPoolClosed(uint index) {\n        require(pools[index].closeAt <= now, \"this pool is not closed\");\n        _;\n    }\n\n    modifier isPoolNotClosed(uint index) {\n        require(pools[index].closeAt > now, \"this pool is closed\");\n        _;\n    }\n\n    modifier isPoolExist(uint index) {\n        require(index < pools.length, \"this pool does not exist\");\n        _;\n    }\n\n    modifier isPoolStarted(uint index) {\n        require(startAt[index] <= now, \"this pool is not started yet\");\n        _;\n    }\n\n    function getStartTime(uint index) external view returns (uint) {\n        return startAt[index];\n    }\n\n    modifier isAccountLimited(uint index, address _address) {\n        if (poolIsUnique[index] && userLimited[_address] > 0) {\n            require(now - userLimited[_address] >= 10 minutes, \"this user is restricted in 10 minutes\");\n        }\n        _;\n    }\n}\n",
  "sourcePath": "contracts/FixedSwapNFT.sol",
  "abi": [
    {
      "anonymous": false,
      "inputs": [
        {
          "indexed": true,
          "internalType": "address",
          "name": "sender",
          "type": "address"
        },
        {
          "indexed": true,
          "internalType": "uint256",
          "name": "index",
          "type": "uint256"
        },
        {
          "indexed": false,
          "internalType": "uint256",
          "name": "amount0",
          "type": "uint256"
        }
      ],
      "name": "Claimed",
      "type": "event"
    },
    {
      "anonymous": false,
      "inputs": [
        {
          "indexed": true,
          "internalType": "address",
          "name": "sender",
          "type": "address"
        },
        {
          "indexed": true,
          "internalType": "uint256",
          "name": "index",
          "type": "uint256"
        },
        {
          "components": [
            {
              "internalType": "address payable",
              "name": "creator",
              "type": "address"
            },
            {
              "internalType": "string",
              "name": "name",
              "type": "string"
            },
            {
              "internalType": "address",
              "name": "token0",
              "type": "address"
            },
            {
              "internalType": "address",
              "name": "token1",
              "type": "address"
            },
            {
              "internalType": "uint256",
              "name": "tokenId",
              "type": "uint256"
            },
            {
              "internalType": "uint256",
              "name": "amountTotal0",
              "type": "uint256"
            },
            {
              "internalType": "uint256",
              "name": "amountTotal1",
              "type": "uint256"
            },
            {
              "internalType": "uint256",
              "name": "closeAt",
              "type": "uint256"
            },
            {
              "internalType": "uint256",
              "name": "nftType",
              "type": "uint256"
            }
          ],
          "indexed": false,
          "internalType": "struct FixedSwapNFT.Pool",
          "name": "pool",
          "type": "tuple"
        },
        {
          "indexed": false,
          "internalType": "uint256",
          "name": "startTime",
          "type": "uint256"
        }
      ],
      "name": "Created",
      "type": "event"
    },
    {
      "anonymous": false,
      "inputs": [
        {
          "indexed": true,
          "internalType": "address",
          "name": "previousGovernor",
          "type": "address"
        },
        {
          "indexed": true,
          "internalType": "address",
          "name": "newGovernor",
          "type": "address"
        }
      ],
      "name": "GovernorshipTransferred",
      "type": "event"
    },
    {
      "anonymous": false,
      "inputs": [
        {
          "indexed": true,
          "internalType": "address",
          "name": "sender",
          "type": "address"
        },
        {
          "indexed": true,
          "internalType": "uint256",
          "name": "index",
          "type": "uint256"
        },
        {
          "indexed": false,
          "internalType": "uint256",
          "name": "amount0",
          "type": "uint256"
        },
        {
          "indexed": false,
          "internalType": "uint256",
          "name": "amount1",
          "type": "uint256"
        }
      ],
      "name": "Swapped",
      "type": "event"
    },
    {
      "inputs": [],
      "name": "checkToken0",
      "outputs": [
        {
          "internalType": "bool",
          "name": "",
          "type": "bool"
        }
      ],
      "stateMutability": "view",
      "type": "function"
    },
    {
      "inputs": [
        {
          "internalType": "string",
          "name": "name",
          "type": "string"
        },
        {
          "internalType": "address",
          "name": "token0",
          "type": "address"
        },
        {
          "internalType": "address",
          "name": "token1",
          "type": "address"
        },
        {
          "internalType": "uint256",
          "name": "tokenId",
          "type": "uint256"
        },
        {
          "internalType": "uint256",
          "name": "amountTotal0",
          "type": "uint256"
        },
        {
          "internalType": "uint256",
          "name": "amountTotal1",
          "type": "uint256"
        },
        {
          "internalType": "uint256",
          "name": "duration",
          "type": "uint256"
        }
      ],
      "name": "createErc1155",
      "outputs": [],
      "stateMutability": "payable",
      "type": "function"
    },
    {
      "inputs": [
        {
          "internalType": "string",
          "name": "name",
          "type": "string"
        },
        {
          "internalType": "address",
          "name": "token0",
          "type": "address"
        },
        {
          "internalType": "address",
          "name": "token1",
          "type": "address"
        },
        {
          "internalType": "uint256",
          "name": "tokenId",
          "type": "uint256"
        },
        {
          "internalType": "uint256",
          "name": "amountTotal0",
          "type": "uint256"
        },
        {
          "internalType": "uint256",
          "name": "amountTotal1",
          "type": "uint256"
        },
        {
          "internalType": "uint256",
          "name": "duration",
          "type": "uint256"
        },
        {
          "internalType": "uint256",
          "name": "startTime",
          "type": "uint256"
        },
        {
          "internalType": "bool",
          "name": "isUnique",
          "type": "bool"
        }
      ],
      "name": "createErc1155WithStartTime",
      "outputs": [],
      "stateMutability": "payable",
      "type": "function"
    },
    {
      "inputs": [
        {
          "internalType": "string",
          "name": "name",
          "type": "string"
        },
        {
          "internalType": "address",
          "name": "token0",
          "type": "address"
        },
        {
          "internalType": "address",
          "name": "token1",
          "type": "address"
        },
        {
          "internalType": "uint256",
          "name": "tokenId",
          "type": "uint256"
        },
        {
          "internalType": "uint256",
          "name": "amountTotal1",
          "type": "uint256"
        },
        {
          "internalType": "uint256",
          "name": "duration",
          "type": "uint256"
        }
      ],
      "name": "createErc721",
      "outputs": [],
      "stateMutability": "payable",
      "type": "function"
    },
    {
      "inputs": [
        {
          "internalType": "string",
          "name": "name",
          "type": "string"
        },
        {
          "internalType": "address",
          "name": "token0",
          "type": "address"
        },
        {
          "internalType": "address",
          "name": "token1",
          "type": "address"
        },
        {
          "internalType": "uint256",
          "name": "tokenId",
          "type": "uint256"
        },
        {
          "internalType": "uint256",
          "name": "amountTotal1",
          "type": "uint256"
        },
        {
          "internalType": "uint256",
          "name": "duration",
          "type": "uint256"
        },
        {
          "internalType": "uint256",
          "name": "startTime",
          "type": "uint256"
        },
        {
          "internalType": "bool",
          "name": "isUnique",
          "type": "bool"
        }
      ],
      "name": "createErc721WithStartTime",
      "outputs": [],
      "stateMutability": "payable",
      "type": "function"
    },
    {
      "inputs": [
        {
          "internalType": "uint256",
          "name": "index",
          "type": "uint256"
        }
      ],
      "name": "creatorClaim",
      "outputs": [],
      "stateMutability": "nonpayable",
      "type": "function"
    },
    {
      "inputs": [
        {
          "internalType": "uint256",
          "name": "",
          "type": "uint256"
        }
      ],
      "name": "creatorClaimedP",
      "outputs": [
        {
          "internalType": "bool",
          "name": "",
          "type": "bool"
        }
      ],
      "stateMutability": "view",
      "type": "function"
    },
    {
      "inputs": [],
      "name": "fee",
      "outputs": [
        {
          "internalType": "uint256",
          "name": "",
          "type": "uint256"
        }
      ],
      "stateMutability": "view",
      "type": "function"
    },
    {
      "inputs": [],
      "name": "feeMax",
      "outputs": [
        {
          "internalType": "uint256",
          "name": "",
          "type": "uint256"
        }
      ],
      "stateMutability": "view",
      "type": "function"
    },
    {
      "inputs": [],
      "name": "feeTo",
      "outputs": [
        {
          "internalType": "address payable",
          "name": "",
          "type": "address"
        }
      ],
      "stateMutability": "view",
      "type": "function"
    },
    {
      "inputs": [
        {
          "internalType": "bytes32",
          "name": "key",
          "type": "bytes32"
        },
        {
          "internalType": "address",
          "name": "addr",
          "type": "address"
        }
      ],
      "name": "getConfig",
      "outputs": [
        {
          "internalType": "uint256",
          "name": "",
          "type": "uint256"
        }
      ],
      "stateMutability": "view",
      "type": "function"
    },
    {
      "inputs": [
        {
          "internalType": "bytes32",
          "name": "key",
          "type": "bytes32"
        }
      ],
      "name": "getConfig",
      "outputs": [
        {
          "internalType": "uint256",
          "name": "",
          "type": "uint256"
        }
      ],
      "stateMutability": "view",
      "type": "function"
    },
    {
      "inputs": [
        {
          "internalType": "bytes32",
          "name": "key",
          "type": "bytes32"
        },
        {
          "internalType": "uint256",
          "name": "index",
          "type": "uint256"
        }
      ],
      "name": "getConfig",
      "outputs": [
        {
          "internalType": "uint256",
          "name": "",
          "type": "uint256"
        }
      ],
      "stateMutability": "view",
      "type": "function"
    },
    {
      "inputs": [],
      "name": "getPoolCount",
      "outputs": [
        {
          "internalType": "uint256",
          "name": "",
          "type": "uint256"
        }
      ],
      "stateMutability": "view",
      "type": "function"
    },
    {
      "inputs": [
        {
          "internalType": "uint256",
          "name": "index",
          "type": "uint256"
        }
      ],
      "name": "getStartTime",
      "outputs": [
        {
          "internalType": "uint256",
          "name": "",
          "type": "uint256"
        }
      ],
      "stateMutability": "view",
      "type": "function"
    },
    {
      "inputs": [],
      "name": "governor",
      "outputs": [
        {
          "internalType": "address",
          "name": "",
          "type": "address"
        }
      ],
      "stateMutability": "view",
      "type": "function"
    },
    {
      "inputs": [
        {
          "internalType": "address",
          "name": "_governor",
          "type": "address"
        }
      ],
      "name": "initialize",
      "outputs": [],
      "stateMutability": "nonpayable",
      "type": "function"
    },
    {
      "inputs": [
        {
          "internalType": "address",
          "name": "",
          "type": "address"
        }
      ],
      "name": "myCreatedP",
      "outputs": [
        {
          "internalType": "uint256",
          "name": "",
          "type": "uint256"
        }
      ],
      "stateMutability": "view",
      "type": "function"
    },
    {
      "inputs": [
        {
          "internalType": "string",
          "name": "",
          "type": "string"
        }
      ],
      "name": "myNameP",
      "outputs": [
        {
          "internalType": "uint256",
          "name": "",
          "type": "uint256"
        }
      ],
      "stateMutability": "view",
      "type": "function"
    },
    {
      "inputs": [
        {
          "internalType": "address",
          "name": "",
          "type": "address"
        },
        {
          "internalType": "address",
          "name": "",
          "type": "address"
        },
        {
          "internalType": "uint256",
          "name": "",
          "type": "uint256"
        },
        {
          "internalType": "uint256",
          "name": "",
          "type": "uint256"
        },
        {
          "internalType": "bytes",
          "name": "",
          "type": "bytes"
        }
      ],
      "name": "onERC1155Received",
      "outputs": [
        {
          "internalType": "bytes4",
          "name": "",
          "type": "bytes4"
        }
      ],
      "stateMutability": "nonpayable",
      "type": "function"
    },
    {
      "inputs": [
        {
          "internalType": "address",
          "name": "",
          "type": "address"
        },
        {
          "internalType": "address",
          "name": "",
          "type": "address"
        },
        {
          "internalType": "uint256",
          "name": "",
          "type": "uint256"
        },
        {
          "internalType": "bytes",
          "name": "",
          "type": "bytes"
        }
      ],
      "name": "onERC721Received",
      "outputs": [
        {
          "internalType": "bytes4",
          "name": "",
          "type": "bytes4"
        }
      ],
      "stateMutability": "nonpayable",
      "type": "function"
    },
    {
      "inputs": [
        {
          "internalType": "uint256",
          "name": "",
          "type": "uint256"
        }
      ],
      "name": "poolIsUnique",
      "outputs": [
        {
          "internalType": "bool",
          "name": "",
          "type": "bool"
        }
      ],
      "stateMutability": "view",
      "type": "function"
    },
    {
      "inputs": [
        {
          "internalType": "uint256",
          "name": "",
          "type": "uint256"
        }
      ],
      "name": "pools",
      "outputs": [
        {
          "internalType": "address payable",
          "name": "creator",
          "type": "address"
        },
        {
          "internalType": "string",
          "name": "name",
          "type": "string"
        },
        {
          "internalType": "address",
          "name": "token0",
          "type": "address"
        },
        {
          "internalType": "address",
          "name": "token1",
          "type": "address"
        },
        {
          "internalType": "uint256",
          "name": "tokenId",
          "type": "uint256"
        },
        {
          "internalType": "uint256",
          "name": "amountTotal0",
          "type": "uint256"
        },
        {
          "internalType": "uint256",
          "name": "amountTotal1",
          "type": "uint256"
        },
        {
          "internalType": "uint256",
          "name": "closeAt",
          "type": "uint256"
        },
        {
          "internalType": "uint256",
          "name": "nftType",
          "type": "uint256"
        }
      ],
      "stateMutability": "view",
      "type": "function"
    },
    {
      "inputs": [],
      "name": "renounceGovernorship",
      "outputs": [],
      "stateMutability": "nonpayable",
      "type": "function"
    },
    {
      "inputs": [
        {
          "internalType": "bytes32",
          "name": "key",
          "type": "bytes32"
        },
        {
          "internalType": "uint256",
          "name": "value",
          "type": "uint256"
        }
      ],
      "name": "setConfig",
      "outputs": [],
      "stateMutability": "nonpayable",
      "type": "function"
    },
    {
      "inputs": [
        {
          "internalType": "bytes32",
          "name": "key",
          "type": "bytes32"
        },
        {
          "internalType": "address",
          "name": "addr",
          "type": "address"
        },
        {
          "internalType": "uint256",
          "name": "value",
          "type": "uint256"
        }
      ],
      "name": "setConfig",
      "outputs": [],
      "stateMutability": "nonpayable",
      "type": "function"
    },
    {
      "inputs": [
        {
          "internalType": "bytes32",
          "name": "key",
          "type": "bytes32"
        },
        {
          "internalType": "uint256",
          "name": "index",
          "type": "uint256"
        },
        {
          "internalType": "uint256",
          "name": "value",
          "type": "uint256"
        }
      ],
      "name": "setConfig",
      "outputs": [],
      "stateMutability": "nonpayable",
      "type": "function"
    },
    {
      "inputs": [
        {
          "internalType": "uint256",
          "name": "_fee",
          "type": "uint256"
        }
      ],
      "name": "setFee",
      "outputs": [
        {
          "internalType": "bool",
          "name": "",
          "type": "bool"
        }
      ],
      "stateMutability": "nonpayable",
      "type": "function"
    },
    {
      "inputs": [
        {
          "internalType": "uint256",
          "name": "_feeMax",
          "type": "uint256"
        }
      ],
      "name": "setFeeMax",
      "outputs": [
        {
          "internalType": "bool",
          "name": "",
          "type": "bool"
        }
      ],
      "stateMutability": "nonpayable",
      "type": "function"
    },
    {
      "inputs": [
        {
          "internalType": "address payable",
          "name": "_feeTo",
          "type": "address"
        }
      ],
      "name": "setFeeTo",
      "outputs": [
        {
          "internalType": "bool",
          "name": "",
          "type": "bool"
        }
      ],
      "stateMutability": "nonpayable",
      "type": "function"
    },
    {
      "inputs": [
        {
          "internalType": "address",
          "name": "_indexer",
          "type": "address"
        }
      ],
      "name": "setIndexer",
      "outputs": [
        {
          "internalType": "bool",
          "name": "",
          "type": "bool"
        }
      ],
      "stateMutability": "nonpayable",
      "type": "function"
    },
    {
      "inputs": [
        {
          "internalType": "uint256",
          "name": "",
          "type": "uint256"
        }
      ],
      "name": "startAt",
      "outputs": [
        {
          "internalType": "uint256",
          "name": "",
          "type": "uint256"
        }
      ],
      "stateMutability": "view",
      "type": "function"
    },
    {
      "inputs": [
        {
          "internalType": "uint256",
          "name": "index",
          "type": "uint256"
        },
        {
          "internalType": "uint256",
          "name": "amount0",
          "type": "uint256"
        }
      ],
      "name": "swap",
      "outputs": [],
      "stateMutability": "payable",
      "type": "function"
    },
    {
      "inputs": [
        {
          "internalType": "uint256",
          "name": "",
          "type": "uint256"
        }
      ],
      "name": "swappedAmount0P",
      "outputs": [
        {
          "internalType": "uint256",
          "name": "",
          "type": "uint256"
        }
      ],
      "stateMutability": "view",
      "type": "function"
    },
    {
      "inputs": [
        {
          "internalType": "uint256",
          "name": "",
          "type": "uint256"
        }
      ],
      "name": "swappedAmount1P",
      "outputs": [
        {
          "internalType": "uint256",
          "name": "",
          "type": "uint256"
        }
      ],
      "stateMutability": "view",
      "type": "function"
    },
    {
      "inputs": [
        {
          "internalType": "uint256",
          "name": "",
          "type": "uint256"
        }
      ],
      "name": "swappedP",
      "outputs": [
        {
          "internalType": "bool",
          "name": "",
          "type": "bool"
        }
      ],
      "stateMutability": "view",
      "type": "function"
    },
    {
      "inputs": [
        {
          "internalType": "address",
          "name": "",
          "type": "address"
        }
      ],
      "name": "token0List",
      "outputs": [
        {
          "internalType": "bool",
          "name": "",
          "type": "bool"
        }
      ],
      "stateMutability": "view",
      "type": "function"
    },
    {
      "inputs": [
        {
          "internalType": "address",
          "name": "_governor",
          "type": "address"
        }
      ],
      "name": "transferGovernor",
      "outputs": [],
      "stateMutability": "nonpayable",
      "type": "function"
    },
    {
      "inputs": [
        {
          "internalType": "address",
          "name": "newGovernor",
          "type": "address"
        }
      ],
      "name": "transferGovernorship",
      "outputs": [],
      "stateMutability": "nonpayable",
      "type": "function"
    },
    {
      "inputs": [
        {
          "internalType": "address",
          "name": "",
          "type": "address"
        }
      ],
      "name": "userLimited",
      "outputs": [
        {
          "internalType": "uint256",
          "name": "",
          "type": "uint256"
        }
      ],
      "stateMutability": "view",
      "type": "function"
    }
  ],
  "bytecode": "0x608060405234801561001057600080fd5b5061502a806100206000396000f3fe60806040526004361061023b5760003560e01c80638eec5d701161012e578063d96073cf116100ab578063eabdd2e61161006f578063eabdd2e61461090f578063f23a6e611461092b578063f46901ed14610968578063f691877e146109a5578063ffbe9f1e146109e25761023b565b8063d96073cf14610825578063db06c05f14610841578063ddca3f431461087e578063ddf2be3f146108a9578063e87ba7aa146108d25761023b565b8063b8cc9ce6116100f2578063b8cc9ce61461071c578063bbe7180d14610745578063bc2be1be14610782578063c4d66de8146107bf578063cbe4b8eb146107e85761023b565b80638eec5d701461061d5780639d6ce84b14610648578063ac4afa3814610685578063b21544f3146106ca578063b6aa515b146106f35761023b565b8063483a0966116101bc5780636dd5b69d116101805780636dd5b69d1461053357806373d9ced9146105705780637c013e9f1461058c57806381c0c263146105c95780638ec872e3146105e05761023b565b8063483a09661461040257806352665f471461043f578063615186721461047c57806369fe0e2d146104b95780636d17b1d8146104f65761023b565b806329dbd0981161020357806329dbd098146103185780632ad540ed146103555780632ca77bf81461037e5780633b431e92146103a957806340c3108e146103e65761023b565b8063017e7e581461024057806306350d711461026b5780630c340a2414610287578063150b7a02146102b257806315fe96dc146102ef575b600080fd5b34801561024c57600080fd5b50610255610a0d565b6040516102629190614764565b60405180910390f35b61028560048036038101906102809190613b3a565b610a33565b005b34801561029357600080fd5b5061029c610af2565b6040516102a99190614749565b60405180910390f35b3480156102be57600080fd5b506102d960048036038101906102d491906137de565b610b18565b6040516102e691906149ff565b60405180910390f35b3480156102fb57600080fd5b50610316600480360381019061031191906139cd565b610b2d565b005b34801561032457600080fd5b5061033f600480360381019061033a919061378c565b610b95565b60405161034c91906149e4565b60405180910390f35b34801561036157600080fd5b5061037c60048036038101906103779190613d98565b610bb5565b005b34801561038a57600080fd5b506103936110f2565b6040516103a091906149e4565b60405180910390f35b3480156103b557600080fd5b506103d060048036038101906103cb919061378c565b611105565b6040516103dd91906149e4565b60405180910390f35b61040060048036038101906103fb9190613cba565b6111ab565b005b34801561040e57600080fd5b506104296004803603810190610424919061378c565b61126b565b6040516104369190614d6c565b60405180910390f35b34801561044b57600080fd5b5061046660048036038101906104619190613942565b611283565b6040516104739190614d6c565b60405180910390f35b34801561048857600080fd5b506104a3600480360381019061049e9190613d98565b6112bf565b6040516104b091906149e4565b60405180910390f35b3480156104c557600080fd5b506104e060048036038101906104db9190613d98565b6112df565b6040516104ed91906149e4565b60405180910390f35b34801561050257600080fd5b5061051d60048036038101906105189190613d98565b61134b565b60405161052a9190614d6c565b60405180910390f35b34801561053f57600080fd5b5061055a60048036038101906105559190613919565b611363565b6040516105679190614d6c565b60405180910390f35b61058a60048036038101906105859190613a99565b611380565b005b34801561059857600080fd5b506105b360048036038101906105ae9190613d98565b611445565b6040516105c091906149e4565b60405180910390f35b3480156105d557600080fd5b506105de6114b1565b005b3480156105ec57600080fd5b50610607600480360381019061060291906139cd565b6115cc565b6040516106149190614d6c565b60405180910390f35b34801561062957600080fd5b506106326115f2565b60405161063f9190614d6c565b60405180910390f35b34801561065457600080fd5b5061066f600480360381019061066a9190613a58565b6115ff565b60405161067c9190614d6c565b60405180910390f35b34801561069157600080fd5b506106ac60048036038101906106a79190613d98565b61162d565b6040516106c19998979695949392919061480e565b60405180910390f35b3480156106d657600080fd5b506106f160048036038101906106ec919061397e565b611780565b005b3480156106ff57600080fd5b5061071a6004803603810190610715919061378c565b611807565b005b34801561072857600080fd5b50610743600480360381019061073e919061378c565b61186d565b005b34801561075157600080fd5b5061076c6004803603810190610767919061378c565b61199a565b6040516107799190614d6c565b60405180910390f35b34801561078e57600080fd5b506107a960048036038101906107a49190613d98565b6119b2565b6040516107b69190614d6c565b60405180910390f35b3480156107cb57600080fd5b506107e660048036038101906107e1919061378c565b6119cf565b005b3480156107f457600080fd5b5061080f600480360381019061080a9190613d98565b611beb565b60405161081c9190614d6c565b60405180910390f35b61083f600480360381019061083a9190613dc1565b611c03565b005b34801561084d57600080fd5b5061086860048036038101906108639190613d98565b612549565b60405161087591906149e4565b60405180910390f35b34801561088a57600080fd5b50610893612569565b6040516108a09190614d6c565b60405180910390f35b3480156108b557600080fd5b506108d060048036038101906108cb9190613a09565b61256f565b005b3480156108de57600080fd5b506108f960048036038101906108f49190613d98565b6125e0565b60405161090691906149e4565b60405180910390f35b61092960048036038101906109249190613bf0565b612600565b005b34801561093757600080fd5b50610952600480360381019061094d919061385e565b6126c6565b60405161095f91906149ff565b60405180910390f35b34801561097457600080fd5b5061098f600480360381019061098a91906137b5565b6126dc565b60405161099c91906149e4565b60405180910390f35b3480156109b157600080fd5b506109cc60048036038101906109c79190613d98565b612782565b6040516109d99190614d6c565b60405180910390f35b3480156109ee57600080fd5b506109f761279a565b604051610a049190614d6c565b60405180910390f35b604060009054906101000a900473ffffffffffffffffffffffffffffffffffffffff1681565b603a60009054906101000a900460ff1615610ad557603b60008773ffffffffffffffffffffffffffffffffffffffff1673ffffffffffffffffffffffffffffffffffffffff16815260200190815260200160002060009054906101000a900460ff16610ad4576040517f08c379a0000000000000000000000000000000000000000000000000000000008152600401610acb90614a9c565b60405180910390fd5b5b610ae98787878787878760014260006127a0565b50505050505050565b603360009054906101000a900473ffffffffffffffffffffffffffffffffffffffff1681565b600063150b7a0260e01b905095945050505050565b603360009054906101000a900473ffffffffffffffffffffffffffffffffffffffff1673ffffffffffffffffffffffffffffffffffffffff163373ffffffffffffffffffffffffffffffffffffffff1614610b8757600080fd5b610b918282612efc565b5050565b603b6020528060005260406000206000915054906101000a900460ff1681565b806035805490508110610bfd576040517f08c379a0000000000000000000000000000000000000000000000000000000008152600401610bf490614b1c565b60405180910390fd5b610c073383612f33565b610c46576040517f08c379a0000000000000000000000000000000000000000000000000000000008152600401610c3d90614adc565b60405180910390fd5b6038600083815260200190815260200160002060009054906101000a900460ff1615610ca7576040517f08c379a0000000000000000000000000000000000000000000000000000000008152600401610c9e90614bdc565b60405180910390fd5b60016038600084815260200190815260200160002060006101000a81548160ff021916908315150217905550603660003373ffffffffffffffffffffffffffffffffffffffff1673ffffffffffffffffffffffffffffffffffffffff16815260200190815260200160002060009055610d1e613545565b60358381548110610d2b57fe5b9060005260206000209060090201604051806101200160405290816000820160009054906101000a900473ffffffffffffffffffffffffffffffffffffffff1673ffffffffffffffffffffffffffffffffffffffff1673ffffffffffffffffffffffffffffffffffffffff168152602001600182018054600181600116156101000203166002900480601f016020809104026020016040519081016040528092919081815260200182805460018160011615610100020316600290048015610e345780601f10610e0957610100808354040283529160200191610e34565b820191906000526020600020905b815481529060010190602001808311610e1757829003601f168201915b505050505081526020016002820160009054906101000a900473ffffffffffffffffffffffffffffffffffffffff1673ffffffffffffffffffffffffffffffffffffffff1673ffffffffffffffffffffffffffffffffffffffff1681526020016003820160009054906101000a900473ffffffffffffffffffffffffffffffffffffffff1673ffffffffffffffffffffffffffffffffffffffff1673ffffffffffffffffffffffffffffffffffffffff16815260200160048201548152602001600582015481526020016006820154815260200160078201548152602001600882015481525050905060008161010001511415610fab57806040015173ffffffffffffffffffffffffffffffffffffffff166342842e0e30836000015184608001516040518463ffffffff1660e01b8152600401610f74939291906148a2565b600060405180830381600087803b158015610f8e57600080fd5b505af1158015610fa2573d6000803e3d6000fd5b50505050611052565b806040015173ffffffffffffffffffffffffffffffffffffffff1663f242432a3083600001518460800151611000603c60008a8152602001908152602001600020548760a00151612fbb90919063ffffffff16565b6040518563ffffffff1660e01b815260040161101f949392919061491e565b600060405180830381600087803b15801561103957600080fd5b505af115801561104d573d6000803e3d6000fd5b505050505b426035848154811061106057fe5b906000526020600020906009020160070181905550823373ffffffffffffffffffffffffffffffffffffffff167f987d620f307ff6b94d58743cb7a7509f24071586a77759b77c2d4e29f75a2f9a6110d8603c6000888152602001908152602001600020548560a00151612fbb90919063ffffffff16565b6040516110e59190614d6c565b60405180910390a3505050565b603a60009054906101000a900460ff1681565b6000603360009054906101000a900473ffffffffffffffffffffffffffffffffffffffff1673ffffffffffffffffffffffffffffffffffffffff163373ffffffffffffffffffffffffffffffffffffffff161461116157600080fd5b81604160006101000a81548173ffffffffffffffffffffffffffffffffffffffff021916908373ffffffffffffffffffffffffffffffffffffffff16021790555060019050919050565b603a60009054906101000a900460ff161561124d57603b60008973ffffffffffffffffffffffffffffffffffffffff1673ffffffffffffffffffffffffffffffffffffffff16815260200190815260200160002060009054906101000a900460ff1661124c576040517f08c379a000000000000000000000000000000000000000000000000000000000815260040161124390614a9c565b60405180910390fd5b5b6112608989898989898960018a8a6127a0565b505050505050505050565b60446020528060005260406000206000915090505481565b6000603460008373ffffffffffffffffffffffffffffffffffffffff168560001c1860001b815260200190815260200160002054905092915050565b60436020528060005260406000206000915054906101000a900460ff1681565b6000603360009054906101000a900473ffffffffffffffffffffffffffffffffffffffff1673ffffffffffffffffffffffffffffffffffffffff163373ffffffffffffffffffffffffffffffffffffffff161461133b57600080fd5b81603e8190555060019050919050565b603c6020528060005260406000206000915090505481565b600060346000838152602001908152602001600020549050919050565b603a60009054906101000a900460ff161561142257603b60008673ffffffffffffffffffffffffffffffffffffffff1673ffffffffffffffffffffffffffffffffffffffff16815260200190815260200160002060009054906101000a900460ff16611421576040517f08c379a000000000000000000000000000000000000000000000000000000000815260040161141890614a9c565b60405180910390fd5b5b60006001905061143c8787878785888860004260006127a0565b50505050505050565b6000603360009054906101000a900473ffffffffffffffffffffffffffffffffffffffff1673ffffffffffffffffffffffffffffffffffffffff163373ffffffffffffffffffffffffffffffffffffffff16146114a157600080fd5b81603f8190555060019050919050565b603360009054906101000a900473ffffffffffffffffffffffffffffffffffffffff1673ffffffffffffffffffffffffffffffffffffffff163373ffffffffffffffffffffffffffffffffffffffff161461150b57600080fd5b600073ffffffffffffffffffffffffffffffffffffffff16603360009054906101000a900473ffffffffffffffffffffffffffffffffffffffff1673ffffffffffffffffffffffffffffffffffffffff167fc7c0c772add429241571afb3805861fb3cfa2af374534088b76cdb4325a87e9a60405160405180910390a36000603360006101000a81548173ffffffffffffffffffffffffffffffffffffffff021916908373ffffffffffffffffffffffffffffffffffffffff160217905550565b600060346000838560001c1860001b815260200190815260200160002054905092915050565b6000603580549050905090565b6037818051602081018201805184825260208301602085012081835280955050505050506000915090505481565b6035818154811061163a57fe5b90600052602060002090600902016000915090508060000160009054906101000a900473ffffffffffffffffffffffffffffffffffffffff1690806001018054600181600116156101000203166002900480601f01602080910402602001604051908101604052809291908181526020018280546001816001161561010002031660029004801561170c5780601f106116e15761010080835404028352916020019161170c565b820191906000526020600020905b8154815290600101906020018083116116ef57829003601f168201915b5050505050908060020160009054906101000a900473ffffffffffffffffffffffffffffffffffffffff16908060030160009054906101000a900473ffffffffffffffffffffffffffffffffffffffff16908060040154908060050154908060060154908060070154908060080154905089565b603360009054906101000a900473ffffffffffffffffffffffffffffffffffffffff1673ffffffffffffffffffffffffffffffffffffffff163373ffffffffffffffffffffffffffffffffffffffff16146117da57600080fd5b6118028273ffffffffffffffffffffffffffffffffffffffff168460001c1860001b82612efc565b505050565b603360009054906101000a900473ffffffffffffffffffffffffffffffffffffffff1673ffffffffffffffffffffffffffffffffffffffff163373ffffffffffffffffffffffffffffffffffffffff161461186157600080fd5b61186a8161300b565b50565b603360009054906101000a900473ffffffffffffffffffffffffffffffffffffffff1673ffffffffffffffffffffffffffffffffffffffff163373ffffffffffffffffffffffffffffffffffffffff1614806119175750600073ffffffffffffffffffffffffffffffffffffffff16603360009054906101000a900473ffffffffffffffffffffffffffffffffffffffff1673ffffffffffffffffffffffffffffffffffffffff16145b611956576040517f08c379a000000000000000000000000000000000000000000000000000000000815260040161194d90614a3c565b60405180910390fd5b80603360006101000a81548173ffffffffffffffffffffffffffffffffffffffff021916908373ffffffffffffffffffffffffffffffffffffffff16021790555050565b60366020528060005260406000206000915090505481565b600060426000838152602001908152602001600020549050919050565b600060019054906101000a900460ff16806119ee57506119ed613105565b5b80611a04575060008054906101000a900460ff16155b611a43576040517f08c379a0000000000000000000000000000000000000000000000000000000008152600401611a3a90614c3c565b60405180910390fd5b60008060019054906101000a900460ff161590508015611a93576001600060016101000a81548160ff02191690831515021790555060016000806101000a81548160ff0219169083151502179055505b603360009054906101000a900473ffffffffffffffffffffffffffffffffffffffff1673ffffffffffffffffffffffffffffffffffffffff163373ffffffffffffffffffffffffffffffffffffffff161480611b3d5750600073ffffffffffffffffffffffffffffffffffffffff16603360009054906101000a900473ffffffffffffffffffffffffffffffffffffffff1673ffffffffffffffffffffffffffffffffffffffff16145b611b7c576040517f08c379a0000000000000000000000000000000000000000000000000000000008152600401611b7390614a3c565b60405180910390fd5b81603360006101000a81548173ffffffffffffffffffffffffffffffffffffffff021916908373ffffffffffffffffffffffffffffffffffffffff160217905550612710603f819055508015611be75760008060016101000a81548160ff0219169083151502179055505b5050565b603d6020528060005260406000206000915090505481565b816035805490508110611c4b576040517f08c379a0000000000000000000000000000000000000000000000000000000008152600401611c4290614b1c565b60405180910390fd5b824260358281548110611c5a57fe5b90600052602060002090600902016007015411611cac576040517f08c379a0000000000000000000000000000000000000000000000000000000008152600401611ca390614b3c565b60405180910390fd5b834260426000838152602001908152602001600020541115611d03576040517f08c379a0000000000000000000000000000000000000000000000000000000008152600401611cfa90614cfc565b60405180910390fd5b84336043600083815260200190815260200160002060009054906101000a900460ff168015611d7157506000604460008373ffffffffffffffffffffffffffffffffffffffff1673ffffffffffffffffffffffffffffffffffffffff16815260200190815260200160002054115b15611dfd57610258604460008373ffffffffffffffffffffffffffffffffffffffff1673ffffffffffffffffffffffffffffffffffffffff1681526020019081526020016000205442031015611dfc576040517f08c379a0000000000000000000000000000000000000000000000000000000008152600401611df390614c5c565b60405180910390fd5b5b600060358881548110611e0c57fe5b9060005260206000209060090201905060018710158015611e31575080600501548711155b611e70576040517f08c379a0000000000000000000000000000000000000000000000000000000008152600401611e6790614c9c565b60405180910390fd5b8060050154611e9b88603c60008c81526020019081526020016000205461311c90919063ffffffff16565b1115611edc576040517f08c379a0000000000000000000000000000000000000000000000000000000008152600401611ed390614d1c565b60405180910390fd5b6000611f0b8260050154611efd84600601548b61317190919063ffffffff16565b6131e190919063ffffffff16565b9050611f3388603c60008c81526020019081526020016000205461311c90919063ffffffff16565b603c60008b815260200190815260200160002081905550611f7081603d60008c81526020019081526020016000205461311c90919063ffffffff16565b603d60008b8152602001908152602001600020819055508160050154603c60008b8152602001908152602001600020541415611fd3576001603960008b815260200190815260200160002060006101000a81548160ff0219169083151502179055505b60008073ffffffffffffffffffffffffffffffffffffffff16604060009054906101000a900473ffffffffffffffffffffffffffffffffffffffff1673ffffffffffffffffffffffffffffffffffffffff161415801561203557506000603e54115b1561206657612063603f54612055603e548561317190919063ffffffff16565b6131e190919063ffffffff16565b90505b600073ffffffffffffffffffffffffffffffffffffffff168360030160009054906101000a900473ffffffffffffffffffffffffffffffffffffffff1673ffffffffffffffffffffffffffffffffffffffff1614156121f657348214612101576040517f08c379a00000000000000000000000000000000000000000000000000000000081526004016120f890614cbc565b60405180910390fd5b600081111561217457604060009054906101000a900473ffffffffffffffffffffffffffffffffffffffff1673ffffffffffffffffffffffffffffffffffffffff166108fc829081150290604051600060405180830381858888f19350505050158015612172573d6000803e3d6000fd5b505b8260000160009054906101000a900473ffffffffffffffffffffffffffffffffffffffff1673ffffffffffffffffffffffffffffffffffffffff166108fc6121c58385612fbb90919063ffffffff16565b9081150290604051600060405180830381858888f193505050501580156121f0573d6000803e3d6000fd5b506122fb565b61227d338460000160009054906101000a900473ffffffffffffffffffffffffffffffffffffffff166122328486612fbb90919063ffffffff16565b8660030160009054906101000a900473ffffffffffffffffffffffffffffffffffffffff1673ffffffffffffffffffffffffffffffffffffffff16613237909392919063ffffffff16565b60008111156122fa576122f933604060009054906101000a900473ffffffffffffffffffffffffffffffffffffffff16838660030160009054906101000a900473ffffffffffffffffffffffffffffffffffffffff1673ffffffffffffffffffffffffffffffffffffffff16613237909392919063ffffffff16565b5b5b6000836008015414156123a4578260020160009054906101000a900473ffffffffffffffffffffffffffffffffffffffff1673ffffffffffffffffffffffffffffffffffffffff166342842e0e303386600401546040518463ffffffff1660e01b815260040161236d939291906148a2565b600060405180830381600087803b15801561238757600080fd5b505af115801561239b573d6000803e3d6000fd5b5050505061243e565b8260020160009054906101000a900473ffffffffffffffffffffffffffffffffffffffff1673ffffffffffffffffffffffffffffffffffffffff1663f242432a303386600401548d6040518563ffffffff1660e01b815260040161240b949392919061491e565b600060405180830381600087803b15801561242557600080fd5b505af1158015612439573d6000803e3d6000fd5b505050505b8260050154603c60008c8152602001908152602001600020541415612481574260358b8154811061246b57fe5b9060005260206000209060090201600701819055505b604360008b815260200190815260200160002060009054906101000a900460ff16156124ec5742604460003373ffffffffffffffffffffffffffffffffffffffff1673ffffffffffffffffffffffffffffffffffffffff168152602001908152602001600020819055505b893373ffffffffffffffffffffffffffffffffffffffff167f36a39cf3f9b8206db312650e7d954482535a2e33fb0b54e1030f149ed213823a8b85604051612535929190614d87565b60405180910390a350505050505050505050565b60396020528060005260406000206000915054906101000a900460ff1681565b603e5481565b603360009054906101000a900473ffffffffffffffffffffffffffffffffffffffff1673ffffffffffffffffffffffffffffffffffffffff163373ffffffffffffffffffffffffffffffffffffffff16146125c957600080fd5b6125db828460001c1860001b82612efc565b505050565b60386020528060005260406000206000915054906101000a900460ff1681565b603a60009054906101000a900460ff16156126a257603b60008873ffffffffffffffffffffffffffffffffffffffff1673ffffffffffffffffffffffffffffffffffffffff16815260200190815260200160002060009054906101000a900460ff166126a1576040517f08c379a000000000000000000000000000000000000000000000000000000000815260040161269890614a9c565b60405180910390fd5b5b6000600190506126bb89898989858a8a60008b8b6127a0565b505050505050505050565b600063f23a6e6160e01b90509695505050505050565b6000603360009054906101000a900473ffffffffffffffffffffffffffffffffffffffff1673ffffffffffffffffffffffffffffffffffffffff163373ffffffffffffffffffffffffffffffffffffffff161461273857600080fd5b81604060006101000a81548173ffffffffffffffffffffffffffffffffffffffff021916908373ffffffffffffffffffffffffffffffffffffffff16021790555060019050919050565b60426020528060005260406000206000915090505481565b603f5481565b600082116127e3576040517f08c379a00000000000000000000000000000000000000000000000000000000081526004016127da90614a5c565b60405180910390fd5b6000851415612827576040517f08c379a000000000000000000000000000000000000000000000000000000000815260040161281e90614afc565b60405180910390fd5b600084141561286b576040517f08c379a000000000000000000000000000000000000000000000000000000000815260040161286290614a7c565b60405180910390fd5b600f8a5111156128b0576040517f08c379a00000000000000000000000000000000000000000000000000000000081526004016128a790614bfc565b60405180910390fd5b60004283116128d3576128cc854261311c90919063ffffffff16565b90506128e9565b6128e6858461311c90919063ffffffff16565b90505b6128f1613545565b33816000019073ffffffffffffffffffffffffffffffffffffffff16908173ffffffffffffffffffffffffffffffffffffffff16815250508b81602001819052508a816040019073ffffffffffffffffffffffffffffffffffffffff16908173ffffffffffffffffffffffffffffffffffffffff168152505089816060019073ffffffffffffffffffffffffffffffffffffffff16908173ffffffffffffffffffffffffffffffffffffffff168152505088816080018181525050878160a0018181525050868160c0018181525050818160e0018181525050848161010001818152505060006035805490509050603582908060018154018082558091505060019003906000526020600020906009020160009091909190915060008201518160000160006101000a81548173ffffffffffffffffffffffffffffffffffffffff021916908373ffffffffffffffffffffffffffffffffffffffff1602179055506020820151816001019080519060200190612a6e9291906135d3565b5060408201518160020160006101000a81548173ffffffffffffffffffffffffffffffffffffffff021916908373ffffffffffffffffffffffffffffffffffffffff16021790555060608201518160030160006101000a81548173ffffffffffffffffffffffffffffffffffffffff021916908373ffffffffffffffffffffffffffffffffffffffff1602179055506080820151816004015560a0820151816005015560c0820151816006015560e0820151816007015561010082015181600801555050846042600083815260200190815260200160002081905550603580549050603660003373ffffffffffffffffffffffffffffffffffffffff1673ffffffffffffffffffffffffffffffffffffffff1681526020019081526020016000208190555060358054905060378e604051612ba99190614732565b9081526020016040518091039020819055508315612bee5760016043600083815260200190815260200160002060006101000a81548160ff0219169083151502179055505b6000861415612d475760018914612c3a576040517f08c379a0000000000000000000000000000000000000000000000000000000008152600401612c3190614bbc565b60405180910390fd5b8b73ffffffffffffffffffffffffffffffffffffffff166342842e0e33308d6040518463ffffffff1660e01b8152600401612c779392919061477f565b600060405180830381600087803b158015612c9157600080fd5b505af1158015612ca5573d6000803e3d6000fd5b50505050604160009054906101000a900473ffffffffffffffffffffffffffffffffffffffff1673ffffffffffffffffffffffffffffffffffffffff16634091214c8d8c6001603580549050036040518463ffffffff1660e01b8152600401612d10939291906149ad565b600060405180830381600087803b158015612d2a57600080fd5b505af1158015612d3e573d6000803e3d6000fd5b50505050612e9c565b6000891415612d8b576040517f08c379a0000000000000000000000000000000000000000000000000000000008152600401612d8290614bbc565b60405180910390fd5b8b73ffffffffffffffffffffffffffffffffffffffff1663f242432a33308d8d6040518563ffffffff1660e01b8152600401612dca94939291906147b6565b600060405180830381600087803b158015612de457600080fd5b505af1158015612df8573d6000803e3d6000fd5b50505050604160009054906101000a900473ffffffffffffffffffffffffffffffffffffffff1673ffffffffffffffffffffffffffffffffffffffff1663f5444c678d84600001518d6001603580549050036040518563ffffffff1660e01b8152600401612e6994939291906148d9565b600060405180830381600087803b158015612e8357600080fd5b505af1158015612e97573d6000803e3d6000fd5b505050505b803373ffffffffffffffffffffffffffffffffffffffff167fbf218c2afe2674aa1e943b7125b9b3187f969fb280427da8092449e7b96837068488604051612ee5929190614d3c565b60405180910390a350505050505050505050505050565b80603460008481526020019081526020016000205414612f2f578060346000848152602001908152602001600020819055505b5050565b60008273ffffffffffffffffffffffffffffffffffffffff1660358381548110612f5957fe5b906000526020600020906009020160000160009054906101000a900473ffffffffffffffffffffffffffffffffffffffff1673ffffffffffffffffffffffffffffffffffffffff161415612fb05760019050612fb5565b600090505b92915050565b600082821115613000576040517f08c379a0000000000000000000000000000000000000000000000000000000008152600401612ff790614b5c565b60405180910390fd5b818303905092915050565b600073ffffffffffffffffffffffffffffffffffffffff168173ffffffffffffffffffffffffffffffffffffffff16141561304557600080fd5b8073ffffffffffffffffffffffffffffffffffffffff16603360009054906101000a900473ffffffffffffffffffffffffffffffffffffffff1673ffffffffffffffffffffffffffffffffffffffff167fc7c0c772add429241571afb3805861fb3cfa2af374534088b76cdb4325a87e9a60405160405180910390a380603360006101000a81548173ffffffffffffffffffffffffffffffffffffffff021916908373ffffffffffffffffffffffffffffffffffffffff16021790555050565b6000803090506000813b9050600081149250505090565b600080828401905083811015613167576040517f08c379a000000000000000000000000000000000000000000000000000000000815260040161315e90614abc565b60405180910390fd5b8091505092915050565b60008083141561318457600090506131db565b600082840290508284828161319557fe5b04146131d6576040517f08c379a00000000000000000000000000000000000000000000000000000000081526004016131cd90614c1c565b60405180910390fd5b809150505b92915050565b6000808211613225576040517f08c379a000000000000000000000000000000000000000000000000000000000815260040161321c90614b9c565b60405180910390fd5b81838161322e57fe5b04905092915050565b6132ba846323b872dd60e01b85858560405160240161325893929190614976565b604051602081830303815290604052907bffffffffffffffffffffffffffffffffffffffffffffffffffffffff19166020820180517bffffffffffffffffffffffffffffffffffffffffffffffffffffffff83818316178352505050506132c0565b50505050565b6060613322826040518060400160405280602081526020017f5361666545524332303a206c6f772d6c6576656c2063616c6c206661696c65648152508573ffffffffffffffffffffffffffffffffffffffff166133879092919063ffffffff16565b9050600081511115613382578080602001905181019061334291906138f0565b613381576040517f08c379a000000000000000000000000000000000000000000000000000000000815260040161337890614cdc565b60405180910390fd5b5b505050565b6060613396848460008561339f565b90509392505050565b6060823073ffffffffffffffffffffffffffffffffffffffff163110156133fb576040517f08c379a00000000000000000000000000000000000000000000000000000000081526004016133f290614b7c565b60405180910390fd5b613404856134cb565b613443576040517f08c379a000000000000000000000000000000000000000000000000000000000815260040161343a90614c7c565b60405180910390fd5b600060608673ffffffffffffffffffffffffffffffffffffffff16858760405161346d919061471b565b60006040518083038185875af1925050503d80600081146134aa576040519150601f19603f3d011682016040523d82523d6000602084013e6134af565b606091505b50915091506134bf8282866134de565b92505050949350505050565b600080823b905060008111915050919050565b606083156134ee5782905061353e565b6000835111156135015782518084602001fd5b816040517f08c379a00000000000000000000000000000000000000000000000000000000081526004016135359190614a1a565b60405180910390fd5b9392505050565b604051806101200160405280600073ffffffffffffffffffffffffffffffffffffffff16815260200160608152602001600073ffffffffffffffffffffffffffffffffffffffff168152602001600073ffffffffffffffffffffffffffffffffffffffff16815260200160008152602001600081526020016000815260200160008152602001600081525090565b828054600181600116156101000203166002900490600052602060002090601f016020900481019282601f1061361457805160ff1916838001178555613642565b82800160010185558215613642579182015b82811115613641578251825591602001919060010190613626565b5b50905061364f9190613653565b5090565b5b8082111561366c576000816000905550600101613654565b5090565b60008135905061367f81614f81565b92915050565b60008135905061369481614f98565b92915050565b6000813590506136a981614faf565b92915050565b6000815190506136be81614faf565b92915050565b6000813590506136d381614fc6565b92915050565b60008083601f8401126136eb57600080fd5b8235905067ffffffffffffffff81111561370457600080fd5b60208301915083600182028301111561371c57600080fd5b9250929050565b600082601f83011261373457600080fd5b813561374761374282614ddd565b614db0565b9150808252602083016020830185838301111561376357600080fd5b61376e838284614f2e565b50505092915050565b60008135905061378681614fdd565b92915050565b60006020828403121561379e57600080fd5b60006137ac84828501613670565b91505092915050565b6000602082840312156137c757600080fd5b60006137d584828501613685565b91505092915050565b6000806000806000608086880312156137f657600080fd5b600061380488828901613670565b955050602061381588828901613670565b945050604061382688828901613777565b935050606086013567ffffffffffffffff81111561384357600080fd5b61384f888289016136d9565b92509250509295509295909350565b60008060008060008060a0878903121561387757600080fd5b600061388589828a01613670565b965050602061389689828a01613670565b95505060406138a789828a01613777565b94505060606138b889828a01613777565b935050608087013567ffffffffffffffff8111156138d557600080fd5b6138e189828a016136d9565b92509250509295509295509295565b60006020828403121561390257600080fd5b6000613910848285016136af565b91505092915050565b60006020828403121561392b57600080fd5b6000613939848285016136c4565b91505092915050565b6000806040838503121561395557600080fd5b6000613963858286016136c4565b925050602061397485828601613670565b9150509250929050565b60008060006060848603121561399357600080fd5b60006139a1868287016136c4565b93505060206139b286828701613670565b92505060406139c386828701613777565b9150509250925092565b600080604083850312156139e057600080fd5b60006139ee858286016136c4565b92505060206139ff85828601613777565b9150509250929050565b600080600060608486031215613a1e57600080fd5b6000613a2c868287016136c4565b9350506020613a3d86828701613777565b9250506040613a4e86828701613777565b9150509250925092565b600060208284031215613a6a57600080fd5b600082013567ffffffffffffffff811115613a8457600080fd5b613a9084828501613723565b91505092915050565b60008060008060008060c08789031215613ab257600080fd5b600087013567ffffffffffffffff811115613acc57600080fd5b613ad889828a01613723565b9650506020613ae989828a01613670565b9550506040613afa89828a01613670565b9450506060613b0b89828a01613777565b9350506080613b1c89828a01613777565b92505060a0613b2d89828a01613777565b9150509295509295509295565b600080600080600080600060e0888a031215613b5557600080fd5b600088013567ffffffffffffffff811115613b6f57600080fd5b613b7b8a828b01613723565b9750506020613b8c8a828b01613670565b9650506040613b9d8a828b01613670565b9550506060613bae8a828b01613777565b9450506080613bbf8a828b01613777565b93505060a0613bd08a828b01613777565b92505060c0613be18a828b01613777565b91505092959891949750929550565b600080600080600080600080610100898b031215613c0d57600080fd5b600089013567ffffffffffffffff811115613c2757600080fd5b613c338b828c01613723565b9850506020613c448b828c01613670565b9750506040613c558b828c01613670565b9650506060613c668b828c01613777565b9550506080613c778b828c01613777565b94505060a0613c888b828c01613777565b93505060c0613c998b828c01613777565b92505060e0613caa8b828c0161369a565b9150509295985092959890939650565b60008060008060008060008060006101208a8c031215613cd957600080fd5b60008a013567ffffffffffffffff811115613cf357600080fd5b613cff8c828d01613723565b9950506020613d108c828d01613670565b9850506040613d218c828d01613670565b9750506060613d328c828d01613777565b9650506080613d438c828d01613777565b95505060a0613d548c828d01613777565b94505060c0613d658c828d01613777565b93505060e0613d768c828d01613777565b925050610100613d888c828d0161369a565b9150509295985092959850929598565b600060208284031215613daa57600080fd5b6000613db884828501613777565b91505092915050565b60008060408385031215613dd457600080fd5b6000613de285828601613777565b9250506020613df385828601613777565b9150509250929050565b613e0681614ef8565b82525050565b613e1581614e7a565b82525050565b613e2481614e7a565b82525050565b613e3381614e68565b82525050565b613e4281614e68565b82525050565b613e5181614e8c565b82525050565b613e6081614ea2565b82525050565b6000613e7182614e09565b613e7b8185614e30565b9350613e8b818560208601614f3d565b80840191505092915050565b6000613ea282614e14565b613eac8185614e3b565b9350613ebc818560208601614f3d565b613ec581614f70565b840191505092915050565b6000613edb82614e14565b613ee58185614e4c565b9350613ef5818560208601614f3d565b613efe81614f70565b840191505092915050565b6000613f1482614e14565b613f1e8185614e5d565b9350613f2e818560208601614f3d565b80840191505092915050565b6000613f47601083614e4c565b91507f696e76616c696420676f7665726e6f72000000000000000000000000000000006000830152602082019050919050565b6000613f87601d83614e4c565b91507f73746172742074696d652073686f756c64206e6f74206265207a65726f0000006000830152602082019050919050565b6000613fc7601e83614e4c565b91507f7468652076616c7565206f66206475726174696f6e206973207a65726f2e00006000830152602082019050919050565b6000614007600e83614e4c565b91507f696e76616c696420746f6b656e300000000000000000000000000000000000006000830152602082019050919050565b6000614047601b83614e4c565b91507f536166654d6174683a206164646974696f6e206f766572666c6f7700000000006000830152602082019050919050565b6000614087601a83614e4c565b91507f73656e646572206973206e6f7420706f6f6c2063726561746f720000000000006000830152602082019050919050565b60006140c7602283614e4c565b91507f7468652076616c7565206f6620616d6f756e74546f74616c31206973207a657260008301527f6f2e0000000000000000000000000000000000000000000000000000000000006020830152604082019050919050565b600061412d601883614e4c565b91507f7468697320706f6f6c20646f6573206e6f7420657869737400000000000000006000830152602082019050919050565b600061416d601383614e4c565b91507f7468697320706f6f6c20697320636c6f736564000000000000000000000000006000830152602082019050919050565b60006141ad601e83614e4c565b91507f536166654d6174683a207375627472616374696f6e206f766572666c6f7700006000830152602082019050919050565b60006141ed602683614e4c565b91507f416464726573733a20696e73756666696369656e742062616c616e636520666f60008301527f722063616c6c00000000000000000000000000000000000000000000000000006020830152604082019050919050565b6000614253601a83614e4c565b91507f536166654d6174683a206469766973696f6e206279207a65726f0000000000006000830152602082019050919050565b6000614293601483614e4c565b91507f696e76616c696420616d6f756e74546f74616c300000000000000000000000006000830152602082019050919050565b60006142d3601d83614e4c565b91507f63726561746f722068617320636c61696d6564207468697320706f6f6c0000006000830152602082019050919050565b6000614313601e83614e4c565b91507f746865206c656e677468206f66206e616d6520697320746f6f206c6f6e6700006000830152602082019050919050565b6000614353602183614e4c565b91507f536166654d6174683a206d756c7469706c69636174696f6e206f766572666c6f60008301527f77000000000000000000000000000000000000000000000000000000000000006020830152604082019050919050565b60006143b9602e83614e4c565b91507f436f6e747261637420696e7374616e63652068617320616c726561647920626560008301527f656e20696e697469616c697a65640000000000000000000000000000000000006020830152604082019050919050565b600061441f602583614e4c565b91507f746869732075736572206973207265737472696374656420696e203130206d6960008301527f6e757465730000000000000000000000000000000000000000000000000000006020830152604082019050919050565b6000614485600083614e1f565b9150600082019050919050565b600061449f601d83614e4c565b91507f416464726573733a2063616c6c20746f206e6f6e2d636f6e74726163740000006000830152602082019050919050565b60006144df600f83614e4c565b91507f696e76616c696420616d6f756e743000000000000000000000000000000000006000830152602082019050919050565b600061451f601283614e4c565b91507f696e76616c69642045544820616d6f756e7400000000000000000000000000006000830152602082019050919050565b600061455f602a83614e4c565b91507f5361666545524332303a204552433230206f7065726174696f6e20646964206e60008301527f6f742073756363656564000000000000000000000000000000000000000000006020830152604082019050919050565b60006145c5601c83614e4c565b91507f7468697320706f6f6c206973206e6f74207374617274656420796574000000006000830152602082019050919050565b6000614605601e83614e4c565b91507f706f6f6c2066696c6c6564206f7220696e76616c696420616d6f756e743000006000830152602082019050919050565b6000610120830160008301516146516000860182613e0c565b50602083015184820360208601526146698282613e97565b915050604083015161467e6040860182613e2a565b5060608301516146916060860182613e2a565b5060808301516146a460808601826146fd565b5060a08301516146b760a08601826146fd565b5060c08301516146ca60c08601826146fd565b5060e08301516146dd60e08601826146fd565b506101008301516146f26101008601826146fd565b508091505092915050565b61470681614eee565b82525050565b61471581614eee565b82525050565b60006147278284613e66565b915081905092915050565b600061473e8284613f09565b915081905092915050565b600060208201905061475e6000830184613e39565b92915050565b60006020820190506147796000830184613e1b565b92915050565b60006060820190506147946000830186613dfd565b6147a16020830185613e39565b6147ae604083018461470c565b949350505050565b600060a0820190506147cb6000830187613dfd565b6147d86020830186613e39565b6147e5604083018561470c565b6147f2606083018461470c565b818103608083015261480381614478565b905095945050505050565b600061012082019050614824600083018c613e1b565b8181036020830152614836818b613ed0565b9050614845604083018a613e39565b6148526060830189613e39565b61485f608083018861470c565b61486c60a083018761470c565b61487960c083018661470c565b61488660e083018561470c565b61489461010083018461470c565b9a9950505050505050505050565b60006060820190506148b76000830186613e39565b6148c46020830185613dfd565b6148d1604083018461470c565b949350505050565b60006080820190506148ee6000830187613e39565b6148fb6020830186613dfd565b614908604083018561470c565b614915606083018461470c565b95945050505050565b600060a0820190506149336000830187613e39565b6149406020830186613dfd565b61494d604083018561470c565b61495a606083018461470c565b818103608083015261496b81614478565b905095945050505050565b600060608201905061498b6000830186613e39565b6149986020830185613e39565b6149a5604083018461470c565b949350505050565b60006060820190506149c26000830186613e39565b6149cf602083018561470c565b6149dc604083018461470c565b949350505050565b60006020820190506149f96000830184613e48565b92915050565b6000602082019050614a146000830184613e57565b92915050565b60006020820190508181036000830152614a348184613ed0565b905092915050565b60006020820190508181036000830152614a5581613f3a565b9050919050565b60006020820190508181036000830152614a7581613f7a565b9050919050565b60006020820190508181036000830152614a9581613fba565b9050919050565b60006020820190508181036000830152614ab581613ffa565b9050919050565b60006020820190508181036000830152614ad58161403a565b9050919050565b60006020820190508181036000830152614af58161407a565b9050919050565b60006020820190508181036000830152614b15816140ba565b9050919050565b60006020820190508181036000830152614b3581614120565b9050919050565b60006020820190508181036000830152614b5581614160565b9050919050565b60006020820190508181036000830152614b75816141a0565b9050919050565b60006020820190508181036000830152614b95816141e0565b9050919050565b60006020820190508181036000830152614bb581614246565b9050919050565b60006020820190508181036000830152614bd581614286565b9050919050565b60006020820190508181036000830152614bf5816142c6565b9050919050565b60006020820190508181036000830152614c1581614306565b9050919050565b60006020820190508181036000830152614c3581614346565b9050919050565b60006020820190508181036000830152614c55816143ac565b9050919050565b60006020820190508181036000830152614c7581614412565b9050919050565b60006020820190508181036000830152614c9581614492565b9050919050565b60006020820190508181036000830152614cb5816144d2565b9050919050565b60006020820190508181036000830152614cd581614512565b9050919050565b60006020820190508181036000830152614cf581614552565b9050919050565b60006020820190508181036000830152614d15816145b8565b9050919050565b60006020820190508181036000830152614d35816145f8565b9050919050565b60006040820190508181036000830152614d568185614638565b9050614d65602083018461470c565b9392505050565b6000602082019050614d81600083018461470c565b92915050565b6000604082019050614d9c600083018561470c565b614da9602083018461470c565b9392505050565b6000604051905081810181811067ffffffffffffffff82111715614dd357600080fd5b8060405250919050565b600067ffffffffffffffff821115614df457600080fd5b601f19601f8301169050602081019050919050565b600081519050919050565b600081519050919050565b600082825260208201905092915050565b600081905092915050565b600082825260208201905092915050565b600082825260208201905092915050565b600081905092915050565b6000614e7382614ece565b9050919050565b6000614e8582614ece565b9050919050565b60008115159050919050565b6000819050919050565b60007fffffffff0000000000000000000000000000000000000000000000000000000082169050919050565b600073ffffffffffffffffffffffffffffffffffffffff82169050919050565b6000819050919050565b6000614f0382614f0a565b9050919050565b6000614f1582614f1c565b9050919050565b6000614f2782614ece565b9050919050565b82818337600083830152505050565b60005b83811015614f5b578082015181840152602081019050614f40565b83811115614f6a576000848401525b50505050565b6000601f19601f8301169050919050565b614f8a81614e68565b8114614f9557600080fd5b50565b614fa181614e7a565b8114614fac57600080fd5b50565b614fb881614e8c565b8114614fc357600080fd5b50565b614fcf81614e98565b8114614fda57600080fd5b50565b614fe681614eee565b8114614ff157600080fd5b5056fea26469706673582212201c458394113f637a1e6b64cefcceda9547c75a1f0280895254101ae79ee2120064736f6c634300060c0033",
  "compiler": {
    "name": "solc",
    "version": "0.6.12+commit.27d51765.Emscripten.clang",
    "optimizer": {
      "enabled": false,
      "runs": 200
    },
    "evmVersion": "petersburg"
  }
}