{
  "_format": "hh-sol-artifact-1",
  "contractName": "FreeMint721NFT",
  "sourceName": "contracts/FreeMint721NFT.sol",
  "abi": [
    {
      "inputs": [
        {
          "internalType": "string",
          "name": "name",
          "type": "string"
        },
        {
          "internalType": "string",
          "name": "symbol",
          "type": "string"
        },
        {
          "internalType": "string",
          "name": "baseURI",
          "type": "string"
        },
        {
          "internalType": "uint256",
          "name": "maxAmount",
          "type": "uint256"
        },
        {
          "internalType": "uint256",
          "name": "startTime",
          "type": "uint256"
        },
        {
          "internalType": "uint256",
          "name": "endTime",
          "type": "uint256"
        },
        {
          "internalType": "uint256",
          "name": "userLimit",
          "type": "uint256"
        },
        {
          "internalType": "address",
          "name": "acceptCurrency",
          "type": "address"
        },
        {
          "internalType": "uint256",
          "name": "mintPrice",
          "type": "uint256"
        }
      ],
      "stateMutability": "nonpayable",
      "type": "constructor"
    },
    {
      "anonymous": false,
      "inputs": [
        {
          "indexed": true,
          "internalType": "address",
          "name": "owner",
          "type": "address"
        },
        {
          "indexed": true,
          "internalType": "address",
          "name": "approved",
          "type": "address"
        },
        {
          "indexed": true,
          "internalType": "uint256",
          "name": "tokenId",
          "type": "uint256"
        }
      ],
      "name": "Approval",
      "type": "event"
    },
    {
      "anonymous": false,
      "inputs": [
        {
          "indexed": true,
          "internalType": "address",
          "name": "owner",
          "type": "address"
        },
        {
          "indexed": true,
          "internalType": "address",
          "name": "operator",
          "type": "address"
        },
        {
          "indexed": false,
          "internalType": "bool",
          "name": "approved",
          "type": "bool"
        }
      ],
      "name": "ApprovalForAll",
      "type": "event"
    },
    {
      "anonymous": false,
      "inputs": [
        {
          "indexed": true,
          "internalType": "address",
          "name": "previousGovernor",
          "type": "address"
        },
        {
          "indexed": true,
          "internalType": "address",
          "name": "newGovernor",
          "type": "address"
        }
      ],
      "name": "GovernorshipTransferred",
      "type": "event"
    },
    {
      "anonymous": false,
      "inputs": [
        {
          "indexed": true,
          "internalType": "address",
          "name": "owner",
          "type": "address"
        },
        {
          "indexed": true,
          "internalType": "uint256",
          "name": "tokenId",
          "type": "uint256"
        }
      ],
      "name": "Mint",
      "type": "event"
    },
    {
      "anonymous": false,
      "inputs": [
        {
          "indexed": true,
          "internalType": "address",
          "name": "from",
          "type": "address"
        },
        {
          "indexed": true,
          "internalType": "address",
          "name": "to",
          "type": "address"
        },
        {
          "indexed": true,
          "internalType": "uint256",
          "name": "tokenId",
          "type": "uint256"
        }
      ],
      "name": "Transfer",
      "type": "event"
    },
    {
      "inputs": [
        {
          "internalType": "address",
          "name": "to",
          "type": "address"
        },
        {
          "internalType": "uint256",
          "name": "tokenId",
          "type": "uint256"
        }
      ],
      "name": "approve",
      "outputs": [],
      "stateMutability": "nonpayable",
      "type": "function"
    },
    {
      "inputs": [
        {
          "internalType": "address",
          "name": "owner",
          "type": "address"
        }
      ],
      "name": "balanceOf",
      "outputs": [
        {
          "internalType": "uint256",
          "name": "",
          "type": "uint256"
        }
      ],
      "stateMutability": "view",
      "type": "function"
    },
    {
      "inputs": [],
      "name": "baseURI",
      "outputs": [
        {
          "internalType": "string",
          "name": "",
          "type": "string"
        }
      ],
      "stateMutability": "view",
      "type": "function"
    },
    {
      "inputs": [
        {
          "internalType": "address",
          "name": "token",
          "type": "address"
        },
        {
          "internalType": "uint256",
          "name": "amount",
          "type": "uint256"
        },
        {
          "internalType": "address",
          "name": "to",
          "type": "address"
        }
      ],
      "name": "claimTokenTo",
      "outputs": [],
      "stateMutability": "nonpayable",
      "type": "function"
    },
    {
      "inputs": [
        {
          "internalType": "uint256",
          "name": "tokenId",
          "type": "uint256"
        }
      ],
      "name": "getApproved",
      "outputs": [
        {
          "internalType": "address",
          "name": "",
          "type": "address"
        }
      ],
      "stateMutability": "view",
      "type": "function"
    },
    {
      "inputs": [],
      "name": "governor",
      "outputs": [
        {
          "internalType": "address",
          "name": "",
          "type": "address"
        }
      ],
      "stateMutability": "view",
      "type": "function"
    },
    {
      "inputs": [
        {
          "internalType": "address",
          "name": "governor_",
          "type": "address"
        }
      ],
      "name": "initialize",
      "outputs": [],
      "stateMutability": "nonpayable",
      "type": "function"
    },
    {
      "inputs": [
        {
          "internalType": "address",
          "name": "owner",
          "type": "address"
        },
        {
          "internalType": "address",
          "name": "operator",
          "type": "address"
        }
      ],
      "name": "isApprovedForAll",
      "outputs": [
        {
          "internalType": "bool",
          "name": "",
          "type": "bool"
        }
      ],
      "stateMutability": "view",
      "type": "function"
    },
    {
      "inputs": [],
      "name": "mint",
      "outputs": [],
      "stateMutability": "payable",
      "type": "function"
    },
    {
      "inputs": [],
      "name": "name",
      "outputs": [
        {
          "internalType": "string",
          "name": "",
          "type": "string"
        }
      ],
      "stateMutability": "view",
      "type": "function"
    },
    {
      "inputs": [
        {
          "internalType": "uint256",
          "name": "tokenId",
          "type": "uint256"
        }
      ],
      "name": "ownerOf",
      "outputs": [
        {
          "internalType": "address",
          "name": "",
          "type": "address"
        }
      ],
      "stateMutability": "view",
      "type": "function"
    },
    {
      "inputs": [],
      "name": "renounceGovernorship",
      "outputs": [],
      "stateMutability": "nonpayable",
      "type": "function"
    },
    {
      "inputs": [
        {
          "internalType": "address",
          "name": "from",
          "type": "address"
        },
        {
          "internalType": "address",
          "name": "to",
          "type": "address"
        },
        {
          "internalType": "uint256",
          "name": "tokenId",
          "type": "uint256"
        }
      ],
      "name": "safeTransferFrom",
      "outputs": [],
      "stateMutability": "nonpayable",
      "type": "function"
    },
    {
      "inputs": [
        {
          "internalType": "address",
          "name": "from",
          "type": "address"
        },
        {
          "internalType": "address",
          "name": "to",
          "type": "address"
        },
        {
          "internalType": "uint256",
          "name": "tokenId",
          "type": "uint256"
        },
        {
          "internalType": "bytes",
          "name": "_data",
          "type": "bytes"
        }
      ],
      "name": "safeTransferFrom",
      "outputs": [],
      "stateMutability": "nonpayable",
      "type": "function"
    },
    {
      "inputs": [
        {
          "internalType": "address",
          "name": "acceptCurrency",
          "type": "address"
        }
      ],
      "name": "setAcceptCurrency",
      "outputs": [],
      "stateMutability": "nonpayable",
      "type": "function"
    },
    {
      "inputs": [
        {
          "internalType": "address",
          "name": "operator",
          "type": "address"
        },
        {
          "internalType": "bool",
          "name": "approved",
          "type": "bool"
        }
      ],
      "name": "setApprovalForAll",
      "outputs": [],
      "stateMutability": "nonpayable",
      "type": "function"
    },
    {
      "inputs": [
        {
          "internalType": "string",
          "name": "baseURI",
          "type": "string"
        }
      ],
      "name": "setBaseURI",
      "outputs": [
        {
          "internalType": "bool",
          "name": "",
          "type": "bool"
        }
      ],
      "stateMutability": "nonpayable",
      "type": "function"
    },
    {
      "inputs": [
        {
          "internalType": "uint256",
          "name": "endTime",
          "type": "uint256"
        }
      ],
      "name": "setEndTime",
      "outputs": [],
      "stateMutability": "nonpayable",
      "type": "function"
    },
    {
      "inputs": [
        {
          "internalType": "uint256",
          "name": "maxAmount",
          "type": "uint256"
        }
      ],
      "name": "setMaxAmount",
      "outputs": [],
      "stateMutability": "nonpayable",
      "type": "function"
    },
    {
      "inputs": [
        {
          "internalType": "uint256",
          "name": "mintPrice",
          "type": "uint256"
        }
      ],
      "name": "setMintPrice",
      "outputs": [],
      "stateMutability": "nonpayable",
      "type": "function"
    },
    {
      "inputs": [
        {
          "internalType": "uint256",
          "name": "startTime",
          "type": "uint256"
        }
      ],
      "name": "setStartTime",
      "outputs": [],
      "stateMutability": "nonpayable",
      "type": "function"
    },
    {
      "inputs": [
        {
          "internalType": "uint256",
          "name": "tokenId",
          "type": "uint256"
        },
        {
          "internalType": "string",
          "name": "_tokenURI",
          "type": "string"
        }
      ],
      "name": "setTokenURI",
      "outputs": [
        {
          "internalType": "bool",
          "name": "",
          "type": "bool"
        }
      ],
      "stateMutability": "nonpayable",
      "type": "function"
    },
    {
      "inputs": [
        {
          "internalType": "uint256",
          "name": "userLimit",
          "type": "uint256"
        }
      ],
      "name": "setUserLimit",
      "outputs": [],
      "stateMutability": "nonpayable",
      "type": "function"
    },
    {
      "inputs": [
        {
          "internalType": "bytes4",
          "name": "interfaceId",
          "type": "bytes4"
        }
      ],
      "name": "supportsInterface",
      "outputs": [
        {
          "internalType": "bool",
          "name": "",
          "type": "bool"
        }
      ],
      "stateMutability": "view",
      "type": "function"
    },
    {
      "inputs": [],
      "name": "symbol",
      "outputs": [
        {
          "internalType": "string",
          "name": "",
          "type": "string"
        }
      ],
      "stateMutability": "view",
      "type": "function"
    },
    {
      "inputs": [
        {
          "internalType": "uint256",
          "name": "index",
          "type": "uint256"
        }
      ],
      "name": "tokenByIndex",
      "outputs": [
        {
          "internalType": "uint256",
          "name": "",
          "type": "uint256"
        }
      ],
      "stateMutability": "view",
      "type": "function"
    },
    {
      "inputs": [
        {
          "internalType": "address",
          "name": "owner",
          "type": "address"
        },
        {
          "internalType": "uint256",
          "name": "index",
          "type": "uint256"
        }
      ],
      "name": "tokenOfOwnerByIndex",
      "outputs": [
        {
          "internalType": "uint256",
          "name": "",
          "type": "uint256"
        }
      ],
      "stateMutability": "view",
      "type": "function"
    },
    {
      "inputs": [
        {
          "internalType": "uint256",
          "name": "tokenId",
          "type": "uint256"
        }
      ],
      "name": "tokenURI",
      "outputs": [
        {
          "internalType": "string",
          "name": "",
          "type": "string"
        }
      ],
      "stateMutability": "view",
      "type": "function"
    },
    {
      "inputs": [],
      "name": "totalSupply",
      "outputs": [
        {
          "internalType": "uint256",
          "name": "",
          "type": "uint256"
        }
      ],
      "stateMutability": "view",
      "type": "function"
    },
    {
      "inputs": [
        {
          "internalType": "address",
          "name": "from",
          "type": "address"
        },
        {
          "internalType": "address",
          "name": "to",
          "type": "address"
        },
        {
          "internalType": "uint256",
          "name": "tokenId",
          "type": "uint256"
        }
      ],
      "name": "transferFrom",
      "outputs": [],
      "stateMutability": "nonpayable",
      "type": "function"
    },
    {
      "inputs": [
        {
          "internalType": "address",
          "name": "newGovernor",
          "type": "address"
        }
      ],
      "name": "transferGovernorship",
      "outputs": [],
      "stateMutability": "nonpayable",
      "type": "function"
    },
    {
      "inputs": [
        {
          "internalType": "address",
          "name": "",
          "type": "address"
        }
      ],
      "name": "userMinted",
      "outputs": [
        {
          "internalType": "uint256",
          "name": "",
          "type": "uint256"
        }
      ],
      "stateMutability": "view",
      "type": "function"
    }
  ],
  "bytecode": "0x608060405260468054600160a060020a03191690553480156200002157600080fd5b50604051620032a7380380620032a7833981016040819052620000449162000736565b88886200007a7f01ffc9a700000000000000000000000000000000000000000000000000000000640100000000620001fc810204565b81516200008f90603a906020850190620005fb565b508051620000a590603b906020840190620005fb565b50620000da7f80ac58cd00000000000000000000000000000000000000000000000000000000640100000000620001fc810204565b6200010e7f5b5e139f00000000000000000000000000000000000000000000000000000000640100000000620001fc810204565b620001427f780e9d6300000000000000000000000000000000000000000000000000000000640100000000620001fc810204565b505060606200016030620002a1640100000000026401000000009004565b90506200019f88826040516020016200017b92919062000808565b6040516020818303038152906040526200040b640100000000026401000000009004565b603f879055604086905560418590556042849055604382905560448054600160a060020a031916600160a060020a038516179055620001ec3364010000000062000424810262000dd31704565b5050505050505050505062000955565b7fffffffff00000000000000000000000000000000000000000000000000000000808216141562000264576040517f08c379a00000000000000000000000000000000000000000000000000000000081526004016200025b906200088e565b60405180910390fd5b7fffffffff00000000000000000000000000000000000000000000000000000000166000908152603460205260409020805460ff19166001179055565b604080516028808252606082810190935282919060208201818036833701905050905060005b6014811015620004025760008160130360080260020a85600160a060020a031681620002ef57fe5b047f010000000000000000000000000000000000000000000000000000000000000002905060006010827f0100000000000000000000000000000000000000000000000000000000000000900460ff16816200034757fe5b047f0100000000000000000000000000000000000000000000000000000000000000908102915080820460100281840403026200038d8264010000000062000522810204565b8585600202815181106200039d57fe5b6020010190600160f860020a031916908160001a905350620003c88164010000000062000522810204565b858560020260010181518110620003db57fe5b6020010190600160f860020a031916908160001a9053505060019092019150620002c79050565b5090505b919050565b80516200042090603d906020840190620005fb565b5050565b600054610100900460ff168062000449575062000449640100000000620005f5810204565b8062000458575060005460ff16155b62000491576040517f08c379a00000000000000000000000000000000000000000000000000000000081526004016200025b90620008c5565b600054610100900460ff16158015620004bd576000805460ff1961ff0019909116610100171660011790555b60338054600160a060020a031916600160a060020a0384811691909117918290556040519116906000907fc7c0c772add429241571afb3805861fb3cfa2af374534088b76cdb4325a87e9a908290a3801562000420576000805461ff00191690555050565b6000600a60ff7f01000000000000000000000000000000000000000000000000000000000000008404161015620005a457817f010000000000000000000000000000000000000000000000000000000000000090046030017f010000000000000000000000000000000000000000000000000000000000000002905062000406565b817f010000000000000000000000000000000000000000000000000000000000000090046057017f010000000000000000000000000000000000000000000000000000000000000002905062000406565b303b1590565b828054600181600116156101000203166002900490600052602060002090601f016020900481019282601f106200063e57805160ff19168380011785556200066e565b828001600101855582156200066e579182015b828111156200066e57825182559160200191906001019062000651565b506200067c92915062000680565b5090565b5b808211156200067c576000815560010162000681565b8051600160a060020a0381168114620006af57600080fd5b92915050565b600082601f830112620006c6578081fd5b81516001604060020a0380821115620006dd578283fd5b604051601f8301601f191681016020018281118282101715620006fe578485fd5b6040528281529250828483016020018610156200071a57600080fd5b6200072d83602083016020880162000922565b50505092915050565b60008060008060008060008060006101208a8c03121562000755578485fd5b89516001604060020a03808211156200076c578687fd5b6200077a8d838e01620006b5565b9a5060208c015191508082111562000790578687fd5b6200079e8d838e01620006b5565b995060408c0151915080821115620007b4578687fd5b50620007c38c828d01620006b5565b97505060608a0151955060808a0151945060a08a0151935060c08a01519250620007f18b60e08c0162000697565b91506101008a015190509295985092959850929598565b600083516200081c81846020880162000922565b7f307800000000000000000000000000000000000000000000000000000000000090830190815283516200085881600284016020880162000922565b7f2f0000000000000000000000000000000000000000000000000000000000000060029290910191820152600301949350505050565b6020808252601c908201527f4552433136353a20696e76616c696420696e7465726661636520696400000000604082015260600190565b6020808252602e908201527f436f6e747261637420696e7374616e63652068617320616c726561647920626560408201527f656e20696e697469616c697a6564000000000000000000000000000000000000606082015260800190565b60005b838110156200093f57818101518382015260200162000925565b838111156200094f576000848401525b50505050565b61294280620009656000396000f3fe608060405260043610610200576000357c01000000000000000000000000000000000000000000000000000000009004806360b803311161011f578063b88d4fde116100b2578063d24f689a11610081578063d24f689a1461056a578063e985e9c51461058a578063f32b4590146105aa578063f4a0a528146105ca57610200565b8063b88d4fde146104ea578063c4d66de81461050a578063c87b56dd1461052a578063ccb98ffc1461054a57610200565b806381c0c263116100ee57806381c0c2631461048057806395d89b4114610495578063a22cb465146104aa578063b6aa515b146104ca57610200565b806360b803311461040b5780636352211e1461042b5780636c0360eb1461044b57806370a082311461046057610200565b80631aa5e8721161019757806342842e0e1161016657806342842e0e1461038b5780634f6ccce7146103ab5780634fe47f70146103cb57806355f804b3146103eb57610200565b80631aa5e8721461030b57806323b872dd1461032b5780632f745c591461034b5780633e0a322d1461036b57610200565b80630c340a24116101d35780630c340a24146102ac5780631249c58b146102c1578063162094c4146102c957806318160ddd146102e957610200565b806301ffc9a71461020557806306fdde031461023b578063081812fc1461025d578063095ea7b31461028a575b600080fd5b34801561021157600080fd5b50610225610220366004611f41565b6105ea565b604051610232919061210d565b60405180910390f35b34801561024757600080fd5b50610250610622565b6040516102329190612118565b34801561026957600080fd5b5061027d610278366004611fac565b6106b8565b6040516102329190612080565b34801561029657600080fd5b506102aa6102a5366004611eba565b610707565b005b3480156102b857600080fd5b5061027d6107a5565b6102aa6107b4565b3480156102d557600080fd5b506102256102e4366004611fc4565b6109a0565b3480156102f557600080fd5b506102fe6109ca565b604051610232919061282e565b34801561031757600080fd5b506102fe610326366004611d8c565b6109db565b34801561033757600080fd5b506102aa610346366004611ddb565b6109ed565b34801561035757600080fd5b506102fe610366366004611eba565b610a28565b34801561037757600080fd5b506102aa610386366004611fac565b610a51565b34801561039757600080fd5b506102aa6103a6366004611ddb565b610a6d565b3480156103b757600080fd5b506102fe6103c6366004611fac565b610a88565b3480156103d757600080fd5b506102aa6103e6366004611fac565b610a9e565b3480156103f757600080fd5b50610225610406366004611f79565b610aba565b34801561041757600080fd5b506102aa610426366004611fac565b610add565b34801561043757600080fd5b5061027d610446366004611fac565b610af9565b34801561045757600080fd5b50610250610b21565b34801561046c57600080fd5b506102fe61047b366004611d8c565b610b82565b34801561048c57600080fd5b506102aa610bce565b3480156104a157600080fd5b50610250610c3c565b3480156104b657600080fd5b506102aa6104c5366004611e83565b610c9d565b3480156104d657600080fd5b506102aa6104e5366004611d8c565b610d6e565b3480156104f657600080fd5b506102aa610505366004611e1b565b610d91565b34801561051657600080fd5b506102aa610525366004611d8c565b610dd3565b34801561053657600080fd5b50610250610545366004611fac565b610eb6565b34801561055657600080fd5b506102aa610565366004611fac565b610fff565b34801561057657600080fd5b506102aa610585366004611d8c565b61101b565b34801561059657600080fd5b506102256105a5366004611da7565b611061565b3480156105b657600080fd5b506102aa6105c5366004611ee4565b61108f565b3480156105d657600080fd5b506102aa6105e5366004611fac565b611191565b7bffffffffffffffffffffffffffffffffffffffffffffffffffffffff19811660009081526034602052604090205460ff165b919050565b603a8054604080516020601f60026000196101006001881615020190951694909404938401819004810282018101909252828152606093909290918301828280156106ae5780601f10610683576101008083540402835291602001916106ae565b820191906000526020600020905b81548152906001019060200180831161069157829003601f168201915b5050505050905090565b60006106c3826111ad565b6106eb5760405160e560020a62461bcd0281526004016106e29061256c565b60405180910390fd5b50600090815260386020526040902054600160a060020a031690565b600061071282610af9565b905080600160a060020a031683600160a060020a031614156107495760405160e560020a62461bcd0281526004016106e29061273d565b80600160a060020a031661075b6111ba565b600160a060020a031614806107775750610777816105a56111ba565b6107965760405160e560020a62461bcd0281526004016106e2906123b2565b6107a083836111be565b505050565b603354600160a060020a031681565b603f54603e54106107da5760405160e560020a62461bcd0281526004016106e2906122b0565b42604054106107fe5760405160e560020a62461bcd0281526004016106e290612344565b42604154116108225760405160e560020a62461bcd0281526004016106e29061240f565b60425433600090815260456020526040902054106108555760405160e560020a62461bcd0281526004016106e290612535565b6043541561094257604654604454600160a060020a03908116911614156108a05760435434101561089b5760405160e560020a62461bcd0281526004016106e29061237b565b610942565b6044546043546040517f23b872dd000000000000000000000000000000000000000000000000000000008152600160a060020a03909216916323b872dd916108ee9133913091600401612094565b602060405180830381600087803b15801561090857600080fd5b505af115801561091c573d6000803e3d6000fd5b505050506040513d601f19601f820116820180604052508101906109409190611f25565b505b603e805460019081018255336000818152604560205260409020805490920190915590546109709190611239565b603e5460405133907f0f6798a560793a54c3bcfe86a93cde1e73087d944c0ea20544137d412139688590600090a3565b603354600090600160a060020a031633146109ba57600080fd5b6109c48383611303565b92915050565b60006109d6603661134a565b905090565b60456020526000908152604090205481565b6109fe6109f86111ba565b82611355565b610a1d5760405160e560020a62461bcd0281526004016106e29061279a565b6107a08383836113dd565b600160a060020a0382166000908152603560205260408120610a4a90836114f1565b9392505050565b603354600160a060020a03163314610a6857600080fd5b604055565b6107a083838360405180602001604052806000815250610d91565b600080610a966036846114fd565b509392505050565b603354600160a060020a03163314610ab557600080fd5b603f55565b603354600090600160a060020a03163314610ad457600080fd5b61061d82611519565b603354600160a060020a03163314610af457600080fd5b604255565b60006109c4826040518060600160405280602981526020016128e4602991396036919061152c565b603d8054604080516020601f60026000196101006001881615020190951694909404938401819004810282018101909252828152606093909290918301828280156106ae5780601f10610683576101008083540402835291602001916106ae565b6000600160a060020a038216610bad5760405160e560020a62461bcd0281526004016106e290612446565b600160a060020a03821660009081526035602052604090206109c49061134a565b603354600160a060020a03163314610be557600080fd5b603354604051600091600160a060020a0316907fc7c0c772add429241571afb3805861fb3cfa2af374534088b76cdb4325a87e9a908390a36033805473ffffffffffffffffffffffffffffffffffffffff19169055565b603b8054604080516020601f60026000196101006001881615020190951694909404938401819004810282018101909252828152606093909290918301828280156106ae5780601f10610683576101008083540402835291602001916106ae565b610ca56111ba565b600160a060020a031682600160a060020a03161415610cd95760405160e560020a62461bcd0281526004016106e290612279565b8060396000610ce66111ba565b600160a060020a03908116825260208083019390935260409182016000908120918716808252919093529120805460ff191692151592909217909155610d2a6111ba565b600160a060020a03167f17307eab39ab6107e8899845ad3d59bd9653f200f220920489ca2b5937696c3183604051610d62919061210d565b60405180910390a35050565b603354600160a060020a03163314610d8557600080fd5b610d8e81611539565b50565b610da2610d9c6111ba565b83611355565b610dc15760405160e560020a62461bcd0281526004016106e29061279a565b610dcd848484846115b5565b50505050565b600054610100900460ff1680610dec5750610dec6115eb565b80610dfa575060005460ff16155b610e195760405160e560020a62461bcd0281526004016106e290612626565b600054610100900460ff16158015610e44576000805460ff1961ff0019909116610100171660011790555b6033805473ffffffffffffffffffffffffffffffffffffffff1916600160a060020a0384811691909117918290556040519116906000907fc7c0c772add429241571afb3805861fb3cfa2af374534088b76cdb4325a87e9a908290a38015610eb2576000805461ff00191690555b5050565b6060610ec1826111ad565b610ee05760405160e560020a62461bcd0281526004016106e2906126e0565b6000828152603c602090815260409182902080548351601f6002600019610100600186161502019093169290920491820184900484028101840190945280845260609392830182828015610f755780601f10610f4a57610100808354040283529160200191610f75565b820191906000526020600020905b815481529060010190602001808311610f5857829003601f168201915b505050505090506060610f86610b21565b9050805160001415610f9a5750905061061d565b815115610fcc578082604051602001610fb4929190612051565b6040516020818303038152906040529250505061061d565b80610fd6856115f1565b604051602001610fe7929190612051565b60405160208183030381529060405292505050919050565b603354600160a060020a0316331461101657600080fd5b604155565b603354600160a060020a0316331461103257600080fd5b6044805473ffffffffffffffffffffffffffffffffffffffff1916600160a060020a0392909216919091179055565b600160a060020a03918216600090815260396020908152604080832093909416825291909152205460ff1690565b603354600160a060020a031633146110a657600080fd5b604654600160a060020a03848116911614156110f857604051600160a060020a0382169083156108fc029084906000818181858888f193505050501580156110f2573d6000803e3d6000fd5b506107a0565b6040517fa9059cbb000000000000000000000000000000000000000000000000000000008152600160a060020a0384169063a9059cbb9061113f90849086906004016120f4565b602060405180830381600087803b15801561115957600080fd5b505af115801561116d573d6000803e3d6000fd5b505050506040513d601f19601f82011682018060405250810190610dcd9190611f25565b603354600160a060020a031633146111a857600080fd5b604355565b60006109c460368361171f565b3390565b6000818152603860205260409020805473ffffffffffffffffffffffffffffffffffffffff1916600160a060020a038416908117909155819061120082610af9565b600160a060020a03167f8c5be1e5ebec7d5bd14f71427d1e84f3dd0314c0f7b2291e5b200ac8c7c3b92560405160405180910390a45050565b600160a060020a0382166112625760405160e560020a62461bcd0281526004016106e290612500565b61126b816111ad565b1561128b5760405160e560020a62461bcd0281526004016106e2906121e5565b611297600083836107a0565b600160a060020a03821660009081526035602052604090206112b9908261172b565b506112c660368284611737565b506040518190600160a060020a038416906000907fddf252ad1be2c89b69c2b068fc378daa952ba7f163c4a11628f55a4df523b3ef908290a45050565b61130c826111ad565b61132b5760405160e560020a62461bcd0281526004016106e2906125c9565b6000828152603c6020908152604090912082516107a092840190611c64565b60006109c48261174d565b6000611360826111ad565b61137f5760405160e560020a62461bcd0281526004016106e2906122e7565b600061138a83610af9565b905080600160a060020a031684600160a060020a031614806113c5575083600160a060020a03166113ba846106b8565b600160a060020a0316145b806113d557506113d58185611061565b949350505050565b82600160a060020a03166113f082610af9565b600160a060020a0316146114195760405160e560020a62461bcd0281526004016106e290612683565b600160a060020a0382166114425760405160e560020a62461bcd0281526004016106e29061221c565b61144d8383836107a0565b6114586000826111be565b600160a060020a038316600090815260356020526040902061147a9082611751565b50600160a060020a038216600090815260356020526040902061149d908261172b565b506114aa60368284611737565b508082600160a060020a031684600160a060020a03167fddf252ad1be2c89b69c2b068fc378daa952ba7f163c4a11628f55a4df523b3ef60405160405180910390a4505050565b6000610a4a838361175d565b600080808061150c86866117a5565b9097909650945050505050565b8051610eb290603d906020840190611c64565b60006113d5848484611804565b600160a060020a03811661154c57600080fd5b603354604051600160a060020a038084169216907fc7c0c772add429241571afb3805861fb3cfa2af374534088b76cdb4325a87e9a90600090a36033805473ffffffffffffffffffffffffffffffffffffffff1916600160a060020a0392909216919091179055565b6115c08484846113dd565b6115cc84848484611866565b610dcd5760405160e560020a62461bcd0281526004016106e290612188565b303b1590565b606081611632575060408051808201909152600181527f3000000000000000000000000000000000000000000000000000000000000000602082015261061d565b8160005b811561164a57600101600a82049150611636565b60608167ffffffffffffffff8111801561166357600080fd5b506040519080825280601f01601f19166020018201604052801561168e576020820181803683370190505b50859350905060001982015b831561171657600a84066030017f010000000000000000000000000000000000000000000000000000000000000002828280600190039350815181106116dc57fe5b60200101907effffffffffffffffffffffffffffffffffffffffffffffffffffffffffffff1916908160001a905350600a8404935061169a565b50949350505050565b6000610a4a83836119b6565b6000610a4a83836119ce565b60006113d58484600160a060020a038516611a18565b5490565b6000610a4a8383611aaf565b815460009082106117835760405160e560020a62461bcd0281526004016106e29061212b565b82600001828154811061179257fe5b9060005260206000200154905092915050565b8154600090819083106117cd5760405160e560020a62461bcd0281526004016106e2906124a3565b60008460000184815481106117de57fe5b906000526020600020906002020190508060000154816001015492509250509250929050565b600082815260018401602052604081205482816118375760405160e560020a62461bcd0281526004016106e29190612118565b5084600001600182038154811061184a57fe5b9060005260206000209060020201600101549150509392505050565b600061187a84600160a060020a0316611b75565b611886575060016113d5565b60606119517f150b7a02000000000000000000000000000000000000000000000000000000006118b46111ba565b8887876040516024016118ca94939291906120b8565b604051602081830303815290604052907bffffffffffffffffffffffffffffffffffffffffffffffffffffffff19166020820180517bffffffffffffffffffffffffffffffffffffffffffffffffffffffff83818316178352505050506040518060600160405280603281526020016128b260329139600160a060020a0388169190611b7b565b90506000818060200190518101906119699190611f5d565b7bffffffffffffffffffffffffffffffffffffffffffffffffffffffff19167f150b7a02000000000000000000000000000000000000000000000000000000001492505050949350505050565b60009081526001919091016020526040902054151590565b60006119da83836119b6565b611a10575081546001818101845560008481526020808220909301849055845484825282860190935260409020919091556109c4565b5060006109c4565b600082815260018401602052604081205480611a7d575050604080518082018252838152602080820184815286546001818101895560008981528481209551600290930290950191825591519082015586548684528188019092529290912055610a4a565b82856000016001830381548110611a9057fe5b9060005260206000209060020201600101819055506000915050610a4a565b60008181526001830160205260408120548015611b6b5783546000198083019190810190600090879083908110611ae257fe5b9060005260206000200154905080876000018481548110611aff57fe5b600091825260208083209091019290925582815260018981019092526040902090840190558654879080611b2f57fe5b600190038181906000526020600020016000905590558660010160008781526020019081526020016000206000905560019450505050506109c4565b60009150506109c4565b3b151590565b60606113d5848460008585611b8f85611b75565b611bae5760405160e560020a62461bcd0281526004016106e2906127f7565b6000606086600160a060020a03168587604051611bcb9190612035565b60006040518083038185875af1925050503d8060008114611c08576040519150601f19603f3d011682016040523d82523d6000602084013e611c0d565b606091505b5091509150611c1d828286611c28565b979650505050505050565b60608315611c37575081610a4a565b825115611c475782518084602001fd5b8160405160e560020a62461bcd0281526004016106e29190612118565b828054600181600116156101000203166002900490600052602060002090601f016020900481019282601f10611ca557805160ff1916838001178555611cd2565b82800160010185558215611cd2579182015b82811115611cd2578251825591602001919060010190611cb7565b50611cde929150611ce2565b5090565b5b80821115611cde5760008155600101611ce3565b8035600160a060020a03811681146109c457600080fd5b600082601f830112611d1e578081fd5b813567ffffffffffffffff80821115611d35578283fd5b604051601f8301601f191681016020018281118282101715611d55578485fd5b604052828152925082848301602001861015611d7057600080fd5b8260208601602083013760006020848301015250505092915050565b600060208284031215611d9d578081fd5b610a4a8383611cf7565b60008060408385031215611db9578081fd5b611dc38484611cf7565b9150611dd28460208501611cf7565b90509250929050565b600080600060608486031215611def578081fd5b8335611dfa81612863565b92506020840135611e0a81612863565b929592945050506040919091013590565b60008060008060808587031215611e30578081fd5b611e3a8686611cf7565b9350611e498660208701611cf7565b925060408501359150606085013567ffffffffffffffff811115611e6b578182fd5b611e7787828801611d0e565b91505092959194509250565b60008060408385031215611e95578182fd5b611e9f8484611cf7565b91506020830135611eaf81612878565b809150509250929050565b60008060408385031215611ecc578182fd5b611ed68484611cf7565b946020939093013593505050565b600080600060608486031215611ef8578283fd5b8335611f0381612863565b9250602084013591506040840135611f1a81612863565b809150509250925092565b600060208284031215611f36578081fd5b8151610a4a81612878565b600060208284031215611f52578081fd5b8135610a4a81612886565b600060208284031215611f6e578081fd5b8151610a4a81612886565b600060208284031215611f8a578081fd5b813567ffffffffffffffff811115611fa0578182fd5b6113d584828501611d0e565b600060208284031215611fbd578081fd5b5035919050565b60008060408385031215611fd6578182fd5b82359150602083013567ffffffffffffffff811115611ff3578182fd5b611fff85828601611d0e565b9150509250929050565b60008151808452612021816020860160208601612837565b601f01601f19169290920160200192915050565b60008251612047818460208701612837565b9190910192915050565b60008351612063818460208801612837565b835190830190612077818360208801612837565b01949350505050565b600160a060020a0391909116815260200190565b600160a060020a039384168152919092166020820152604081019190915260600190565b6000600160a060020a038087168352808616602084015250836040830152608060608301526120ea6080830184612009565b9695505050505050565b600160a060020a03929092168252602082015260400190565b901515815260200190565b600060208252610a4a6020830184612009565b60208082526022908201527f456e756d657261626c655365743a20696e646578206f7574206f6620626f756e60408201527f6473000000000000000000000000000000000000000000000000000000000000606082015260800190565b60208082526032908201527f4552433732313a207472616e7366657220746f206e6f6e20455243373231526560408201527f63656976657220696d706c656d656e7465720000000000000000000000000000606082015260800190565b6020808252601c908201527f4552433732313a20746f6b656e20616c7265616479206d696e74656400000000604082015260600190565b60208082526024908201527f4552433732313a207472616e7366657220746f20746865207a65726f2061646460408201527f7265737300000000000000000000000000000000000000000000000000000000606082015260800190565b60208082526019908201527f4552433732313a20617070726f766520746f2063616c6c657200000000000000604082015260600190565b6020808252600e908201527f457863656564206d6178696d756d000000000000000000000000000000000000604082015260600190565b6020808252602c908201527f4552433732313a206f70657261746f7220717565727920666f72206e6f6e657860408201527f697374656e7420746f6b656e0000000000000000000000000000000000000000606082015260800190565b60208082526008908201527f6e6f207374617274000000000000000000000000000000000000000000000000604082015260600190565b60208082526012908201527f496e73756666696369656e742066756e64730000000000000000000000000000604082015260600190565b60208082526038908201527f4552433732313a20617070726f76652063616c6c6572206973206e6f74206f7760408201527f6e6572206e6f7220617070726f76656420666f7220616c6c0000000000000000606082015260800190565b60208082526006908201527f697320656e640000000000000000000000000000000000000000000000000000604082015260600190565b6020808252602a908201527f4552433732313a2062616c616e636520717565727920666f7220746865207a6560408201527f726f206164647265737300000000000000000000000000000000000000000000606082015260800190565b60208082526022908201527f456e756d657261626c654d61703a20696e646578206f7574206f6620626f756e60408201527f6473000000000000000000000000000000000000000000000000000000000000606082015260800190565b6020808252818101527f4552433732313a206d696e7420746f20746865207a65726f2061646472657373604082015260600190565b6020808252600c908201527f457863656564206c696d69740000000000000000000000000000000000000000604082015260600190565b6020808252602c908201527f4552433732313a20617070726f76656420717565727920666f72206e6f6e657860408201527f697374656e7420746f6b656e0000000000000000000000000000000000000000606082015260800190565b6020808252602c908201527f4552433732314d657461646174613a2055524920736574206f66206e6f6e657860408201527f697374656e7420746f6b656e0000000000000000000000000000000000000000606082015260800190565b6020808252602e908201527f436f6e747261637420696e7374616e63652068617320616c726561647920626560408201527f656e20696e697469616c697a6564000000000000000000000000000000000000606082015260800190565b60208082526029908201527f4552433732313a207472616e73666572206f6620746f6b656e2074686174206960408201527f73206e6f74206f776e0000000000000000000000000000000000000000000000606082015260800190565b6020808252602f908201527f4552433732314d657461646174613a2055524920717565727920666f72206e6f60408201527f6e6578697374656e7420746f6b656e0000000000000000000000000000000000606082015260800190565b60208082526021908201527f4552433732313a20617070726f76616c20746f2063757272656e74206f776e6560408201527f7200000000000000000000000000000000000000000000000000000000000000606082015260800190565b60208082526031908201527f4552433732313a207472616e736665722063616c6c6572206973206e6f74206f60408201527f776e6572206e6f7220617070726f766564000000000000000000000000000000606082015260800190565b6020808252601d908201527f416464726573733a2063616c6c20746f206e6f6e2d636f6e7472616374000000604082015260600190565b90815260200190565b60005b8381101561285257818101518382015260200161283a565b83811115610dcd5750506000910152565b600160a060020a0381168114610d8e57600080fd5b8015158114610d8e57600080fd5b7bffffffffffffffffffffffffffffffffffffffffffffffffffffffff1981168114610d8e57600080fdfe4552433732313a207472616e7366657220746f206e6f6e20455243373231526563656976657220696d706c656d656e7465724552433732313a206f776e657220717565727920666f72206e6f6e6578697374656e7420746f6b656ea2646970667358221220b58bc1da881362d2bab3d77ef77cc0a89f3c5db984da940a047bbe23f1f62a7464736f6c634300060c0033",
  "linkReferences": {},
  "deployedLinkReferences": {}
}