{
  "_format": "hh-sol-artifact-1",
  "contractName": "FreeMint721NFT",
  "sourceName": "contracts/FreeMint721NFT.sol",
  "abi": [
    {
      "inputs": [
        {
          "internalType": "string",
          "name": "name",
          "type": "string"
        },
        {
          "internalType": "string",
          "name": "symbol",
          "type": "string"
        },
        {
          "internalType": "string",
          "name": "baseURI",
          "type": "string"
        },
        {
          "internalType": "uint256",
          "name": "maxAmount",
          "type": "uint256"
        },
        {
          "internalType": "uint256",
          "name": "startTime",
          "type": "uint256"
        },
        {
          "internalType": "uint256",
          "name": "endTime",
          "type": "uint256"
        },
        {
          "internalType": "uint256",
          "name": "userLimit",
          "type": "uint256"
        },
        {
          "internalType": "address",
          "name": "acceptCurrency",
          "type": "address"
        },
        {
          "internalType": "uint256",
          "name": "mintPrice",
          "type": "uint256"
        }
      ],
      "stateMutability": "nonpayable",
      "type": "constructor"
    },
    {
      "anonymous": false,
      "inputs": [
        {
          "indexed": true,
          "internalType": "address",
          "name": "owner",
          "type": "address"
        },
        {
          "indexed": true,
          "internalType": "address",
          "name": "approved",
          "type": "address"
        },
        {
          "indexed": true,
          "internalType": "uint256",
          "name": "tokenId",
          "type": "uint256"
        }
      ],
      "name": "Approval",
      "type": "event"
    },
    {
      "anonymous": false,
      "inputs": [
        {
          "indexed": true,
          "internalType": "address",
          "name": "owner",
          "type": "address"
        },
        {
          "indexed": true,
          "internalType": "address",
          "name": "operator",
          "type": "address"
        },
        {
          "indexed": false,
          "internalType": "bool",
          "name": "approved",
          "type": "bool"
        }
      ],
      "name": "ApprovalForAll",
      "type": "event"
    },
    {
      "anonymous": false,
      "inputs": [
        {
          "indexed": true,
          "internalType": "address",
          "name": "previousGovernor",
          "type": "address"
        },
        {
          "indexed": true,
          "internalType": "address",
          "name": "newGovernor",
          "type": "address"
        }
      ],
      "name": "GovernorshipTransferred",
      "type": "event"
    },
    {
      "anonymous": false,
      "inputs": [
        {
          "indexed": true,
          "internalType": "address",
          "name": "owner",
          "type": "address"
        },
        {
          "indexed": true,
          "internalType": "uint256",
          "name": "tokenId",
          "type": "uint256"
        }
      ],
      "name": "Mint",
      "type": "event"
    },
    {
      "anonymous": false,
      "inputs": [
        {
          "indexed": true,
          "internalType": "address",
          "name": "from",
          "type": "address"
        },
        {
          "indexed": true,
          "internalType": "address",
          "name": "to",
          "type": "address"
        },
        {
          "indexed": true,
          "internalType": "uint256",
          "name": "tokenId",
          "type": "uint256"
        }
      ],
      "name": "Transfer",
      "type": "event"
    },
    {
      "inputs": [
        {
          "internalType": "address",
          "name": "to",
          "type": "address"
        },
        {
          "internalType": "uint256",
          "name": "tokenId",
          "type": "uint256"
        }
      ],
      "name": "approve",
      "outputs": [],
      "stateMutability": "nonpayable",
      "type": "function"
    },
    {
      "inputs": [
        {
          "internalType": "address",
          "name": "owner",
          "type": "address"
        }
      ],
      "name": "balanceOf",
      "outputs": [
        {
          "internalType": "uint256",
          "name": "",
          "type": "uint256"
        }
      ],
      "stateMutability": "view",
      "type": "function"
    },
    {
      "inputs": [],
      "name": "baseURI",
      "outputs": [
        {
          "internalType": "string",
          "name": "",
          "type": "string"
        }
      ],
      "stateMutability": "view",
      "type": "function"
    },
    {
      "inputs": [
        {
          "internalType": "address",
          "name": "token",
          "type": "address"
        },
        {
          "internalType": "uint256",
          "name": "amount",
          "type": "uint256"
        },
        {
          "internalType": "address",
          "name": "to",
          "type": "address"
        }
      ],
      "name": "claimTokenTo",
      "outputs": [],
      "stateMutability": "nonpayable",
      "type": "function"
    },
    {
      "inputs": [],
      "name": "getAcceptCurrency",
      "outputs": [
        {
          "internalType": "address",
          "name": "",
          "type": "address"
        }
      ],
      "stateMutability": "view",
      "type": "function"
    },
    {
      "inputs": [
        {
          "internalType": "uint256",
          "name": "tokenId",
          "type": "uint256"
        }
      ],
      "name": "getApproved",
      "outputs": [
        {
          "internalType": "address",
          "name": "",
          "type": "address"
        }
      ],
      "stateMutability": "view",
      "type": "function"
    },
    {
      "inputs": [],
      "name": "getEndTime",
      "outputs": [
        {
          "internalType": "uint256",
          "name": "",
          "type": "uint256"
        }
      ],
      "stateMutability": "view",
      "type": "function"
    },
    {
      "inputs": [],
      "name": "getMaxAmount",
      "outputs": [
        {
          "internalType": "uint256",
          "name": "",
          "type": "uint256"
        }
      ],
      "stateMutability": "view",
      "type": "function"
    },
    {
      "inputs": [],
      "name": "getMintPrice",
      "outputs": [
        {
          "internalType": "uint256",
          "name": "",
          "type": "uint256"
        }
      ],
      "stateMutability": "view",
      "type": "function"
    },
    {
      "inputs": [],
      "name": "getStartTime",
      "outputs": [
        {
          "internalType": "uint256",
          "name": "",
          "type": "uint256"
        }
      ],
      "stateMutability": "view",
      "type": "function"
    },
    {
      "inputs": [],
      "name": "getUserLimit",
      "outputs": [
        {
          "internalType": "uint256",
          "name": "",
          "type": "uint256"
        }
      ],
      "stateMutability": "view",
      "type": "function"
    },
    {
      "inputs": [
        {
          "internalType": "address",
          "name": "user",
          "type": "address"
        }
      ],
      "name": "getUserMinted",
      "outputs": [
        {
          "internalType": "uint256",
          "name": "",
          "type": "uint256"
        }
      ],
      "stateMutability": "view",
      "type": "function"
    },
    {
      "inputs": [],
      "name": "governor",
      "outputs": [
        {
          "internalType": "address",
          "name": "",
          "type": "address"
        }
      ],
      "stateMutability": "view",
      "type": "function"
    },
    {
      "inputs": [
        {
          "internalType": "address",
          "name": "governor_",
          "type": "address"
        }
      ],
      "name": "initialize",
      "outputs": [],
      "stateMutability": "nonpayable",
      "type": "function"
    },
    {
      "inputs": [
        {
          "internalType": "address",
          "name": "owner",
          "type": "address"
        },
        {
          "internalType": "address",
          "name": "operator",
          "type": "address"
        }
      ],
      "name": "isApprovedForAll",
      "outputs": [
        {
          "internalType": "bool",
          "name": "",
          "type": "bool"
        }
      ],
      "stateMutability": "view",
      "type": "function"
    },
    {
      "inputs": [],
      "name": "mint",
      "outputs": [],
      "stateMutability": "payable",
      "type": "function"
    },
    {
      "inputs": [],
      "name": "name",
      "outputs": [
        {
          "internalType": "string",
          "name": "",
          "type": "string"
        }
      ],
      "stateMutability": "view",
      "type": "function"
    },
    {
      "inputs": [
        {
          "internalType": "uint256",
          "name": "tokenId",
          "type": "uint256"
        }
      ],
      "name": "ownerOf",
      "outputs": [
        {
          "internalType": "address",
          "name": "",
          "type": "address"
        }
      ],
      "stateMutability": "view",
      "type": "function"
    },
    {
      "inputs": [],
      "name": "renounceGovernorship",
      "outputs": [],
      "stateMutability": "nonpayable",
      "type": "function"
    },
    {
      "inputs": [
        {
          "internalType": "address",
          "name": "from",
          "type": "address"
        },
        {
          "internalType": "address",
          "name": "to",
          "type": "address"
        },
        {
          "internalType": "uint256",
          "name": "tokenId",
          "type": "uint256"
        }
      ],
      "name": "safeTransferFrom",
      "outputs": [],
      "stateMutability": "nonpayable",
      "type": "function"
    },
    {
      "inputs": [
        {
          "internalType": "address",
          "name": "from",
          "type": "address"
        },
        {
          "internalType": "address",
          "name": "to",
          "type": "address"
        },
        {
          "internalType": "uint256",
          "name": "tokenId",
          "type": "uint256"
        },
        {
          "internalType": "bytes",
          "name": "_data",
          "type": "bytes"
        }
      ],
      "name": "safeTransferFrom",
      "outputs": [],
      "stateMutability": "nonpayable",
      "type": "function"
    },
    {
      "inputs": [
        {
          "internalType": "address",
          "name": "acceptCurrency",
          "type": "address"
        }
      ],
      "name": "setAcceptCurrency",
      "outputs": [],
      "stateMutability": "nonpayable",
      "type": "function"
    },
    {
      "inputs": [
        {
          "internalType": "address",
          "name": "operator",
          "type": "address"
        },
        {
          "internalType": "bool",
          "name": "approved",
          "type": "bool"
        }
      ],
      "name": "setApprovalForAll",
      "outputs": [],
      "stateMutability": "nonpayable",
      "type": "function"
    },
    {
      "inputs": [
        {
          "internalType": "string",
          "name": "baseURI",
          "type": "string"
        }
      ],
      "name": "setBaseURI",
      "outputs": [
        {
          "internalType": "bool",
          "name": "",
          "type": "bool"
        }
      ],
      "stateMutability": "nonpayable",
      "type": "function"
    },
    {
      "inputs": [
        {
          "internalType": "uint256",
          "name": "endTime",
          "type": "uint256"
        }
      ],
      "name": "setEndTime",
      "outputs": [],
      "stateMutability": "nonpayable",
      "type": "function"
    },
    {
      "inputs": [
        {
          "internalType": "uint256",
          "name": "maxAmount",
          "type": "uint256"
        }
      ],
      "name": "setMaxAmount",
      "outputs": [],
      "stateMutability": "nonpayable",
      "type": "function"
    },
    {
      "inputs": [
        {
          "internalType": "uint256",
          "name": "mintPrice",
          "type": "uint256"
        }
      ],
      "name": "setMintPrice",
      "outputs": [],
      "stateMutability": "nonpayable",
      "type": "function"
    },
    {
      "inputs": [
        {
          "internalType": "uint256",
          "name": "startTime",
          "type": "uint256"
        }
      ],
      "name": "setStartTime",
      "outputs": [],
      "stateMutability": "nonpayable",
      "type": "function"
    },
    {
      "inputs": [
        {
          "internalType": "uint256",
          "name": "tokenId",
          "type": "uint256"
        },
        {
          "internalType": "string",
          "name": "_tokenURI",
          "type": "string"
        }
      ],
      "name": "setTokenURI",
      "outputs": [
        {
          "internalType": "bool",
          "name": "",
          "type": "bool"
        }
      ],
      "stateMutability": "nonpayable",
      "type": "function"
    },
    {
      "inputs": [
        {
          "internalType": "uint256",
          "name": "userLimit",
          "type": "uint256"
        }
      ],
      "name": "setUserLimit",
      "outputs": [],
      "stateMutability": "nonpayable",
      "type": "function"
    },
    {
      "inputs": [
        {
          "internalType": "bytes4",
          "name": "interfaceId",
          "type": "bytes4"
        }
      ],
      "name": "supportsInterface",
      "outputs": [
        {
          "internalType": "bool",
          "name": "",
          "type": "bool"
        }
      ],
      "stateMutability": "view",
      "type": "function"
    },
    {
      "inputs": [],
      "name": "symbol",
      "outputs": [
        {
          "internalType": "string",
          "name": "",
          "type": "string"
        }
      ],
      "stateMutability": "view",
      "type": "function"
    },
    {
      "inputs": [
        {
          "internalType": "uint256",
          "name": "index",
          "type": "uint256"
        }
      ],
      "name": "tokenByIndex",
      "outputs": [
        {
          "internalType": "uint256",
          "name": "",
          "type": "uint256"
        }
      ],
      "stateMutability": "view",
      "type": "function"
    },
    {
      "inputs": [
        {
          "internalType": "address",
          "name": "owner",
          "type": "address"
        },
        {
          "internalType": "uint256",
          "name": "index",
          "type": "uint256"
        }
      ],
      "name": "tokenOfOwnerByIndex",
      "outputs": [
        {
          "internalType": "uint256",
          "name": "",
          "type": "uint256"
        }
      ],
      "stateMutability": "view",
      "type": "function"
    },
    {
      "inputs": [
        {
          "internalType": "uint256",
          "name": "tokenId",
          "type": "uint256"
        }
      ],
      "name": "tokenURI",
      "outputs": [
        {
          "internalType": "string",
          "name": "",
          "type": "string"
        }
      ],
      "stateMutability": "view",
      "type": "function"
    },
    {
      "inputs": [],
      "name": "totalSupply",
      "outputs": [
        {
          "internalType": "uint256",
          "name": "",
          "type": "uint256"
        }
      ],
      "stateMutability": "view",
      "type": "function"
    },
    {
      "inputs": [
        {
          "internalType": "address",
          "name": "from",
          "type": "address"
        },
        {
          "internalType": "address",
          "name": "to",
          "type": "address"
        },
        {
          "internalType": "uint256",
          "name": "tokenId",
          "type": "uint256"
        }
      ],
      "name": "transferFrom",
      "outputs": [],
      "stateMutability": "nonpayable",
      "type": "function"
    },
    {
      "inputs": [
        {
          "internalType": "address",
          "name": "newGovernor",
          "type": "address"
        }
      ],
      "name": "transferGovernorship",
      "outputs": [],
      "stateMutability": "nonpayable",
      "type": "function"
    },
    {
      "inputs": [
        {
          "internalType": "address",
          "name": "",
          "type": "address"
        }
      ],
      "name": "userMinted",
      "outputs": [
        {
          "internalType": "uint256",
          "name": "",
          "type": "uint256"
        }
      ],
      "stateMutability": "view",
      "type": "function"
    }
  ],
  "bytecode": "0x608060405260468054600160a060020a03191690553480156200002157600080fd5b50604051620033da380380620033da833981016040819052620000449162000736565b88886200007a7f01ffc9a700000000000000000000000000000000000000000000000000000000640100000000620001fc810204565b81516200008f90603a906020850190620005fb565b508051620000a590603b906020840190620005fb565b50620000da7f80ac58cd00000000000000000000000000000000000000000000000000000000640100000000620001fc810204565b6200010e7f5b5e139f00000000000000000000000000000000000000000000000000000000640100000000620001fc810204565b620001427f780e9d6300000000000000000000000000000000000000000000000000000000640100000000620001fc810204565b505060606200016030620002a1640100000000026401000000009004565b90506200019f88826040516020016200017b92919062000808565b6040516020818303038152906040526200040b640100000000026401000000009004565b603f879055604086905560418590556042849055604382905560448054600160a060020a031916600160a060020a038516179055620001ec3364010000000062000424810262000f001704565b5050505050505050505062000955565b7fffffffff00000000000000000000000000000000000000000000000000000000808216141562000264576040517f08c379a00000000000000000000000000000000000000000000000000000000081526004016200025b906200088e565b60405180910390fd5b7fffffffff00000000000000000000000000000000000000000000000000000000166000908152603460205260409020805460ff19166001179055565b604080516028808252606082810190935282919060208201818036833701905050905060005b6014811015620004025760008160130360080260020a85600160a060020a031681620002ef57fe5b047f010000000000000000000000000000000000000000000000000000000000000002905060006010827f0100000000000000000000000000000000000000000000000000000000000000900460ff16816200034757fe5b047f0100000000000000000000000000000000000000000000000000000000000000908102915080820460100281840403026200038d8264010000000062000522810204565b8585600202815181106200039d57fe5b6020010190600160f860020a031916908160001a905350620003c88164010000000062000522810204565b858560020260010181518110620003db57fe5b6020010190600160f860020a031916908160001a9053505060019092019150620002c79050565b5090505b919050565b80516200042090603d906020840190620005fb565b5050565b600054610100900460ff168062000449575062000449640100000000620005f5810204565b8062000458575060005460ff16155b62000491576040517f08c379a00000000000000000000000000000000000000000000000000000000081526004016200025b90620008c5565b600054610100900460ff16158015620004bd576000805460ff1961ff0019909116610100171660011790555b60338054600160a060020a031916600160a060020a0384811691909117918290556040519116906000907fc7c0c772add429241571afb3805861fb3cfa2af374534088b76cdb4325a87e9a908290a3801562000420576000805461ff00191690555050565b6000600a60ff7f01000000000000000000000000000000000000000000000000000000000000008404161015620005a457817f010000000000000000000000000000000000000000000000000000000000000090046030017f010000000000000000000000000000000000000000000000000000000000000002905062000406565b817f010000000000000000000000000000000000000000000000000000000000000090046057017f010000000000000000000000000000000000000000000000000000000000000002905062000406565b303b1590565b828054600181600116156101000203166002900490600052602060002090601f016020900481019282601f106200063e57805160ff19168380011785556200066e565b828001600101855582156200066e579182015b828111156200066e57825182559160200191906001019062000651565b506200067c92915062000680565b5090565b5b808211156200067c576000815560010162000681565b8051600160a060020a0381168114620006af57600080fd5b92915050565b600082601f830112620006c6578081fd5b81516001604060020a0380821115620006dd578283fd5b604051601f8301601f191681016020018281118282101715620006fe578485fd5b6040528281529250828483016020018610156200071a57600080fd5b6200072d83602083016020880162000922565b50505092915050565b60008060008060008060008060006101208a8c03121562000755578485fd5b89516001604060020a03808211156200076c578687fd5b6200077a8d838e01620006b5565b9a5060208c015191508082111562000790578687fd5b6200079e8d838e01620006b5565b995060408c0151915080821115620007b4578687fd5b50620007c38c828d01620006b5565b97505060608a0151955060808a0151945060a08a0151935060c08a01519250620007f18b60e08c0162000697565b91506101008a015190509295985092959850929598565b600083516200081c81846020880162000922565b7f307800000000000000000000000000000000000000000000000000000000000090830190815283516200085881600284016020880162000922565b7f2f0000000000000000000000000000000000000000000000000000000000000060029290910191820152600301949350505050565b6020808252601c908201527f4552433136353a20696e76616c696420696e7465726661636520696400000000604082015260600190565b6020808252602e908201527f436f6e747261637420696e7374616e63652068617320616c726561647920626560408201527f656e20696e697469616c697a6564000000000000000000000000000000000000606082015260800190565b60005b838110156200093f57818101518382015260200162000925565b838111156200094f576000848401525b50505050565b612a7580620009656000396000f3fe60806040526004361061024d576000357c01000000000000000000000000000000000000000000000000000000009004806355f804b31161014b578063b6aa515b116100c8578063ccb98ffc1161008c578063ccb98ffc14610635578063d24f689a14610655578063e985e9c514610675578063f32b459014610695578063f4a0a528146106b55761024d565b8063b6aa515b146105a0578063b88d4fde146105c0578063c4d66de8146105e0578063c828371e14610600578063c87b56dd146106155761024d565b806381c0c2631161010f57806381c0c2631461052157806395d89b4114610536578063a22cb4651461054b578063a7f93ebd1461056b578063a9709099146105805761024d565b806355f804b31461048c57806360b80331146104ac5780636352211e146104cc5780636c0360eb146104ec57806370a08231146105015761024d565b806318160ddd116101d95780633e0a322d1161019d5780633e0a322d146103f757806342842e0e14610417578063439f5ac2146104375780634f6ccce71461044c5780634fe47f701461046c5761024d565b806318160ddd1461036d5780631aa5e8721461038257806323b872dd146103a25780632f745c59146103c25780633733722d146103e25761024d565b8063095ea7b311610220578063095ea7b3146102ec5780630ba959091461030e5780630c340a24146103305780631249c58b14610345578063162094c41461034d5761024d565b806301ffc9a7146102525780630294f7af1461028857806306fdde03146102aa578063081812fc146102cc575b600080fd5b34801561025e57600080fd5b5061027261026d366004612074565b6106d5565b60405161027f9190612240565b60405180910390f35b34801561029457600080fd5b5061029d61070d565b60405161027f91906121b3565b3480156102b657600080fd5b506102bf61071c565b60405161027f919061224b565b3480156102d857600080fd5b5061029d6102e73660046120df565b6107b2565b3480156102f857600080fd5b5061030c610307366004611fed565b610801565b005b34801561031a57600080fd5b5061032361089f565b60405161027f9190612961565b34801561033c57600080fd5b5061029d6108a5565b61030c6108b4565b34801561035957600080fd5b506102726103683660046120f7565b610aa0565b34801561037957600080fd5b50610323610aca565b34801561038e57600080fd5b5061032361039d366004611ebf565b610adb565b3480156103ae57600080fd5b5061030c6103bd366004611f0e565b610aed565b3480156103ce57600080fd5b506103236103dd366004611fed565b610b28565b3480156103ee57600080fd5b50610323610b51565b34801561040357600080fd5b5061030c6104123660046120df565b610b57565b34801561042357600080fd5b5061030c610432366004611f0e565b610b73565b34801561044357600080fd5b50610323610b8e565b34801561045857600080fd5b506103236104673660046120df565b610b94565b34801561047857600080fd5b5061030c6104873660046120df565b610baa565b34801561049857600080fd5b506102726104a73660046120ac565b610bc6565b3480156104b857600080fd5b5061030c6104c73660046120df565b610be9565b3480156104d857600080fd5b5061029d6104e73660046120df565b610c05565b3480156104f857600080fd5b506102bf610c2d565b34801561050d57600080fd5b5061032361051c366004611ebf565b610c8e565b34801561052d57600080fd5b5061030c610cda565b34801561054257600080fd5b506102bf610d48565b34801561055757600080fd5b5061030c610566366004611fb6565b610da9565b34801561057757600080fd5b50610323610e7a565b34801561058c57600080fd5b5061032361059b366004611ebf565b610e80565b3480156105ac57600080fd5b5061030c6105bb366004611ebf565b610e9b565b3480156105cc57600080fd5b5061030c6105db366004611f4e565b610ebe565b3480156105ec57600080fd5b5061030c6105fb366004611ebf565b610f00565b34801561060c57600080fd5b50610323610fe3565b34801561062157600080fd5b506102bf6106303660046120df565b610fe9565b34801561064157600080fd5b5061030c6106503660046120df565b611132565b34801561066157600080fd5b5061030c610670366004611ebf565b61114e565b34801561068157600080fd5b50610272610690366004611eda565b611194565b3480156106a157600080fd5b5061030c6106b0366004612017565b6111c2565b3480156106c157600080fd5b5061030c6106d03660046120df565b6112c4565b7bffffffffffffffffffffffffffffffffffffffffffffffffffffffff19811660009081526034602052604090205460ff165b919050565b604454600160a060020a031690565b603a8054604080516020601f60026000196101006001881615020190951694909404938401819004810282018101909252828152606093909290918301828280156107a85780601f1061077d576101008083540402835291602001916107a8565b820191906000526020600020905b81548152906001019060200180831161078b57829003601f168201915b5050505050905090565b60006107bd826112e0565b6107e55760405160e560020a62461bcd0281526004016107dc9061269f565b60405180910390fd5b50600090815260386020526040902054600160a060020a031690565b600061080c82610c05565b905080600160a060020a031683600160a060020a031614156108435760405160e560020a62461bcd0281526004016107dc90612870565b80600160a060020a03166108556112ed565b600160a060020a031614806108715750610871816106906112ed565b6108905760405160e560020a62461bcd0281526004016107dc906124e5565b61089a83836112f1565b505050565b603f5490565b603354600160a060020a031681565b603f54603e54106108da5760405160e560020a62461bcd0281526004016107dc906123e3565b42604054106108fe5760405160e560020a62461bcd0281526004016107dc90612477565b42604154116109225760405160e560020a62461bcd0281526004016107dc90612542565b60425433600090815260456020526040902054106109555760405160e560020a62461bcd0281526004016107dc90612668565b60435415610a4257604654604454600160a060020a03908116911614156109a05760435434101561099b5760405160e560020a62461bcd0281526004016107dc906124ae565b610a42565b6044546043546040517f23b872dd000000000000000000000000000000000000000000000000000000008152600160a060020a03909216916323b872dd916109ee91339130916004016121c7565b602060405180830381600087803b158015610a0857600080fd5b505af1158015610a1c573d6000803e3d6000fd5b505050506040513d601f19601f82011682018060405250810190610a409190612058565b505b603e80546001908101825533600081815260456020526040902080549092019091559054610a70919061136c565b603e5460405133907f0f6798a560793a54c3bcfe86a93cde1e73087d944c0ea20544137d412139688590600090a3565b603354600090600160a060020a03163314610aba57600080fd5b610ac48383611436565b92915050565b6000610ad6603661147d565b905090565b60456020526000908152604090205481565b610afe610af86112ed565b82611488565b610b1d5760405160e560020a62461bcd0281526004016107dc906128cd565b61089a838383611510565b600160a060020a0382166000908152603560205260408120610b4a9083611624565b9392505050565b60425490565b603354600160a060020a03163314610b6e57600080fd5b604055565b61089a83838360405180602001604052806000815250610ebe565b60415490565b600080610ba2603684611630565b509392505050565b603354600160a060020a03163314610bc157600080fd5b603f55565b603354600090600160a060020a03163314610be057600080fd5b6107088261164c565b603354600160a060020a03163314610c0057600080fd5b604255565b6000610ac482604051806060016040528060298152602001612a17602991396036919061165f565b603d8054604080516020601f60026000196101006001881615020190951694909404938401819004810282018101909252828152606093909290918301828280156107a85780601f1061077d576101008083540402835291602001916107a8565b6000600160a060020a038216610cb95760405160e560020a62461bcd0281526004016107dc90612579565b600160a060020a0382166000908152603560205260409020610ac49061147d565b603354600160a060020a03163314610cf157600080fd5b603354604051600091600160a060020a0316907fc7c0c772add429241571afb3805861fb3cfa2af374534088b76cdb4325a87e9a908390a36033805473ffffffffffffffffffffffffffffffffffffffff19169055565b603b8054604080516020601f60026000196101006001881615020190951694909404938401819004810282018101909252828152606093909290918301828280156107a85780601f1061077d576101008083540402835291602001916107a8565b610db16112ed565b600160a060020a031682600160a060020a03161415610de55760405160e560020a62461bcd0281526004016107dc906123ac565b8060396000610df26112ed565b600160a060020a03908116825260208083019390935260409182016000908120918716808252919093529120805460ff191692151592909217909155610e366112ed565b600160a060020a03167f17307eab39ab6107e8899845ad3d59bd9653f200f220920489ca2b5937696c3183604051610e6e9190612240565b60405180910390a35050565b60435490565b600160a060020a031660009081526045602052604090205490565b603354600160a060020a03163314610eb257600080fd5b610ebb8161166c565b50565b610ecf610ec96112ed565b83611488565b610eee5760405160e560020a62461bcd0281526004016107dc906128cd565b610efa848484846116e8565b50505050565b600054610100900460ff1680610f195750610f1961171e565b80610f27575060005460ff16155b610f465760405160e560020a62461bcd0281526004016107dc90612759565b600054610100900460ff16158015610f71576000805460ff1961ff0019909116610100171660011790555b6033805473ffffffffffffffffffffffffffffffffffffffff1916600160a060020a0384811691909117918290556040519116906000907fc7c0c772add429241571afb3805861fb3cfa2af374534088b76cdb4325a87e9a908290a38015610fdf576000805461ff00191690555b5050565b60405490565b6060610ff4826112e0565b6110135760405160e560020a62461bcd0281526004016107dc90612813565b6000828152603c602090815260409182902080548351601f60026000196101006001861615020190931692909204918201849004840281018401909452808452606093928301828280156110a85780601f1061107d576101008083540402835291602001916110a8565b820191906000526020600020905b81548152906001019060200180831161108b57829003601f168201915b5050505050905060606110b9610c2d565b90508051600014156110cd57509050610708565b8151156110ff5780826040516020016110e7929190612184565b60405160208183030381529060405292505050610708565b8061110985611724565b60405160200161111a929190612184565b60405160208183030381529060405292505050919050565b603354600160a060020a0316331461114957600080fd5b604155565b603354600160a060020a0316331461116557600080fd5b6044805473ffffffffffffffffffffffffffffffffffffffff1916600160a060020a0392909216919091179055565b600160a060020a03918216600090815260396020908152604080832093909416825291909152205460ff1690565b603354600160a060020a031633146111d957600080fd5b604654600160a060020a038481169116141561122b57604051600160a060020a0382169083156108fc029084906000818181858888f19350505050158015611225573d6000803e3d6000fd5b5061089a565b6040517fa9059cbb000000000000000000000000000000000000000000000000000000008152600160a060020a0384169063a9059cbb906112729084908690600401612227565b602060405180830381600087803b15801561128c57600080fd5b505af11580156112a0573d6000803e3d6000fd5b505050506040513d601f19601f82011682018060405250810190610efa9190612058565b603354600160a060020a031633146112db57600080fd5b604355565b6000610ac4603683611852565b3390565b6000818152603860205260409020805473ffffffffffffffffffffffffffffffffffffffff1916600160a060020a038416908117909155819061133382610c05565b600160a060020a03167f8c5be1e5ebec7d5bd14f71427d1e84f3dd0314c0f7b2291e5b200ac8c7c3b92560405160405180910390a45050565b600160a060020a0382166113955760405160e560020a62461bcd0281526004016107dc90612633565b61139e816112e0565b156113be5760405160e560020a62461bcd0281526004016107dc90612318565b6113ca6000838361089a565b600160a060020a03821660009081526035602052604090206113ec908261185e565b506113f96036828461186a565b506040518190600160a060020a038416906000907fddf252ad1be2c89b69c2b068fc378daa952ba7f163c4a11628f55a4df523b3ef908290a45050565b61143f826112e0565b61145e5760405160e560020a62461bcd0281526004016107dc906126fc565b6000828152603c60209081526040909120825161089a92840190611d97565b6000610ac482611880565b6000611493826112e0565b6114b25760405160e560020a62461bcd0281526004016107dc9061241a565b60006114bd83610c05565b905080600160a060020a031684600160a060020a031614806114f8575083600160a060020a03166114ed846107b2565b600160a060020a0316145b8061150857506115088185611194565b949350505050565b82600160a060020a031661152382610c05565b600160a060020a03161461154c5760405160e560020a62461bcd0281526004016107dc906127b6565b600160a060020a0382166115755760405160e560020a62461bcd0281526004016107dc9061234f565b61158083838361089a565b61158b6000826112f1565b600160a060020a03831660009081526035602052604090206115ad9082611884565b50600160a060020a03821660009081526035602052604090206115d0908261185e565b506115dd6036828461186a565b508082600160a060020a031684600160a060020a03167fddf252ad1be2c89b69c2b068fc378daa952ba7f163c4a11628f55a4df523b3ef60405160405180910390a4505050565b6000610b4a8383611890565b600080808061163f86866118d8565b9097909650945050505050565b8051610fdf90603d906020840190611d97565b6000611508848484611937565b600160a060020a03811661167f57600080fd5b603354604051600160a060020a038084169216907fc7c0c772add429241571afb3805861fb3cfa2af374534088b76cdb4325a87e9a90600090a36033805473ffffffffffffffffffffffffffffffffffffffff1916600160a060020a0392909216919091179055565b6116f3848484611510565b6116ff84848484611999565b610efa5760405160e560020a62461bcd0281526004016107dc906122bb565b303b1590565b606081611765575060408051808201909152600181527f30000000000000000000000000000000000000000000000000000000000000006020820152610708565b8160005b811561177d57600101600a82049150611769565b60608167ffffffffffffffff8111801561179657600080fd5b506040519080825280601f01601f1916602001820160405280156117c1576020820181803683370190505b50859350905060001982015b831561184957600a84066030017f0100000000000000000000000000000000000000000000000000000000000000028282806001900393508151811061180f57fe5b60200101907effffffffffffffffffffffffffffffffffffffffffffffffffffffffffffff1916908160001a905350600a840493506117cd565b50949350505050565b6000610b4a8383611ae9565b6000610b4a8383611b01565b60006115088484600160a060020a038516611b4b565b5490565b6000610b4a8383611be2565b815460009082106118b65760405160e560020a62461bcd0281526004016107dc9061225e565b8260000182815481106118c557fe5b9060005260206000200154905092915050565b8154600090819083106119005760405160e560020a62461bcd0281526004016107dc906125d6565b600084600001848154811061191157fe5b906000526020600020906002020190508060000154816001015492509250509250929050565b6000828152600184016020526040812054828161196a5760405160e560020a62461bcd0281526004016107dc919061224b565b5084600001600182038154811061197d57fe5b9060005260206000209060020201600101549150509392505050565b60006119ad84600160a060020a0316611ca8565b6119b957506001611508565b6060611a847f150b7a02000000000000000000000000000000000000000000000000000000006119e76112ed565b8887876040516024016119fd94939291906121eb565b604051602081830303815290604052907bffffffffffffffffffffffffffffffffffffffffffffffffffffffff19166020820180517bffffffffffffffffffffffffffffffffffffffffffffffffffffffff83818316178352505050506040518060600160405280603281526020016129e560329139600160a060020a0388169190611cae565b9050600081806020019051810190611a9c9190612090565b7bffffffffffffffffffffffffffffffffffffffffffffffffffffffff19167f150b7a02000000000000000000000000000000000000000000000000000000001492505050949350505050565b60009081526001919091016020526040902054151590565b6000611b0d8383611ae9565b611b4357508154600181810184556000848152602080822090930184905584548482528286019093526040902091909155610ac4565b506000610ac4565b600082815260018401602052604081205480611bb0575050604080518082018252838152602080820184815286546001818101895560008981528481209551600290930290950191825591519082015586548684528188019092529290912055610b4a565b82856000016001830381548110611bc357fe5b9060005260206000209060020201600101819055506000915050610b4a565b60008181526001830160205260408120548015611c9e5783546000198083019190810190600090879083908110611c1557fe5b9060005260206000200154905080876000018481548110611c3257fe5b600091825260208083209091019290925582815260018981019092526040902090840190558654879080611c6257fe5b60019003818190600052602060002001600090559055866001016000878152602001908152602001600020600090556001945050505050610ac4565b6000915050610ac4565b3b151590565b6060611508848460008585611cc285611ca8565b611ce15760405160e560020a62461bcd0281526004016107dc9061292a565b6000606086600160a060020a03168587604051611cfe9190612168565b60006040518083038185875af1925050503d8060008114611d3b576040519150601f19603f3d011682016040523d82523d6000602084013e611d40565b606091505b5091509150611d50828286611d5b565b979650505050505050565b60608315611d6a575081610b4a565b825115611d7a5782518084602001fd5b8160405160e560020a62461bcd0281526004016107dc919061224b565b828054600181600116156101000203166002900490600052602060002090601f016020900481019282601f10611dd857805160ff1916838001178555611e05565b82800160010185558215611e05579182015b82811115611e05578251825591602001919060010190611dea565b50611e11929150611e15565b5090565b5b80821115611e115760008155600101611e16565b8035600160a060020a0381168114610ac457600080fd5b600082601f830112611e51578081fd5b813567ffffffffffffffff80821115611e68578283fd5b604051601f8301601f191681016020018281118282101715611e88578485fd5b604052828152925082848301602001861015611ea357600080fd5b8260208601602083013760006020848301015250505092915050565b600060208284031215611ed0578081fd5b610b4a8383611e2a565b60008060408385031215611eec578081fd5b611ef68484611e2a565b9150611f058460208501611e2a565b90509250929050565b600080600060608486031215611f22578081fd5b8335611f2d81612996565b92506020840135611f3d81612996565b929592945050506040919091013590565b60008060008060808587031215611f63578081fd5b611f6d8686611e2a565b9350611f7c8660208701611e2a565b925060408501359150606085013567ffffffffffffffff811115611f9e578182fd5b611faa87828801611e41565b91505092959194509250565b60008060408385031215611fc8578182fd5b611fd28484611e2a565b91506020830135611fe2816129ab565b809150509250929050565b60008060408385031215611fff578182fd5b6120098484611e2a565b946020939093013593505050565b60008060006060848603121561202b578283fd5b833561203681612996565b925060208401359150604084013561204d81612996565b809150509250925092565b600060208284031215612069578081fd5b8151610b4a816129ab565b600060208284031215612085578081fd5b8135610b4a816129b9565b6000602082840312156120a1578081fd5b8151610b4a816129b9565b6000602082840312156120bd578081fd5b813567ffffffffffffffff8111156120d3578182fd5b61150884828501611e41565b6000602082840312156120f0578081fd5b5035919050565b60008060408385031215612109578182fd5b82359150602083013567ffffffffffffffff811115612126578182fd5b61213285828601611e41565b9150509250929050565b6000815180845261215481602086016020860161296a565b601f01601f19169290920160200192915050565b6000825161217a81846020870161296a565b9190910192915050565b6000835161219681846020880161296a565b8351908301906121aa81836020880161296a565b01949350505050565b600160a060020a0391909116815260200190565b600160a060020a039384168152919092166020820152604081019190915260600190565b6000600160a060020a0380871683528086166020840152508360408301526080606083015261221d608083018461213c565b9695505050505050565b600160a060020a03929092168252602082015260400190565b901515815260200190565b600060208252610b4a602083018461213c565b60208082526022908201527f456e756d657261626c655365743a20696e646578206f7574206f6620626f756e60408201527f6473000000000000000000000000000000000000000000000000000000000000606082015260800190565b60208082526032908201527f4552433732313a207472616e7366657220746f206e6f6e20455243373231526560408201527f63656976657220696d706c656d656e7465720000000000000000000000000000606082015260800190565b6020808252601c908201527f4552433732313a20746f6b656e20616c7265616479206d696e74656400000000604082015260600190565b60208082526024908201527f4552433732313a207472616e7366657220746f20746865207a65726f2061646460408201527f7265737300000000000000000000000000000000000000000000000000000000606082015260800190565b60208082526019908201527f4552433732313a20617070726f766520746f2063616c6c657200000000000000604082015260600190565b6020808252600e908201527f457863656564206d6178696d756d000000000000000000000000000000000000604082015260600190565b6020808252602c908201527f4552433732313a206f70657261746f7220717565727920666f72206e6f6e657860408201527f697374656e7420746f6b656e0000000000000000000000000000000000000000606082015260800190565b60208082526008908201527f6e6f207374617274000000000000000000000000000000000000000000000000604082015260600190565b60208082526012908201527f496e73756666696369656e742066756e64730000000000000000000000000000604082015260600190565b60208082526038908201527f4552433732313a20617070726f76652063616c6c6572206973206e6f74206f7760408201527f6e6572206e6f7220617070726f76656420666f7220616c6c0000000000000000606082015260800190565b60208082526006908201527f697320656e640000000000000000000000000000000000000000000000000000604082015260600190565b6020808252602a908201527f4552433732313a2062616c616e636520717565727920666f7220746865207a6560408201527f726f206164647265737300000000000000000000000000000000000000000000606082015260800190565b60208082526022908201527f456e756d657261626c654d61703a20696e646578206f7574206f6620626f756e60408201527f6473000000000000000000000000000000000000000000000000000000000000606082015260800190565b6020808252818101527f4552433732313a206d696e7420746f20746865207a65726f2061646472657373604082015260600190565b6020808252600c908201527f457863656564206c696d69740000000000000000000000000000000000000000604082015260600190565b6020808252602c908201527f4552433732313a20617070726f76656420717565727920666f72206e6f6e657860408201527f697374656e7420746f6b656e0000000000000000000000000000000000000000606082015260800190565b6020808252602c908201527f4552433732314d657461646174613a2055524920736574206f66206e6f6e657860408201527f697374656e7420746f6b656e0000000000000000000000000000000000000000606082015260800190565b6020808252602e908201527f436f6e747261637420696e7374616e63652068617320616c726561647920626560408201527f656e20696e697469616c697a6564000000000000000000000000000000000000606082015260800190565b60208082526029908201527f4552433732313a207472616e73666572206f6620746f6b656e2074686174206960408201527f73206e6f74206f776e0000000000000000000000000000000000000000000000606082015260800190565b6020808252602f908201527f4552433732314d657461646174613a2055524920717565727920666f72206e6f60408201527f6e6578697374656e7420746f6b656e0000000000000000000000000000000000606082015260800190565b60208082526021908201527f4552433732313a20617070726f76616c20746f2063757272656e74206f776e6560408201527f7200000000000000000000000000000000000000000000000000000000000000606082015260800190565b60208082526031908201527f4552433732313a207472616e736665722063616c6c6572206973206e6f74206f60408201527f776e6572206e6f7220617070726f766564000000000000000000000000000000606082015260800190565b6020808252601d908201527f416464726573733a2063616c6c20746f206e6f6e2d636f6e7472616374000000604082015260600190565b90815260200190565b60005b8381101561298557818101518382015260200161296d565b83811115610efa5750506000910152565b600160a060020a0381168114610ebb57600080fd5b8015158114610ebb57600080fd5b7bffffffffffffffffffffffffffffffffffffffffffffffffffffffff1981168114610ebb57600080fdfe4552433732313a207472616e7366657220746f206e6f6e20455243373231526563656976657220696d706c656d656e7465724552433732313a206f776e657220717565727920666f72206e6f6e6578697374656e7420746f6b656ea2646970667358221220a74c66f50efe2453d068450950034129246be86f9aef9b3d0c247127b573a08964736f6c634300060c0033",
  "linkReferences": {},
  "deployedLinkReferences": {}
}