{
  "_format": "hh-sol-artifact-1",
  "contractName": "Game721NFT",
  "sourceName": "contracts/Game721NFT.sol",
  "abi": [
    {
      "inputs": [
        {
          "internalType": "string",
          "name": "name",
          "type": "string"
        },
        {
          "internalType": "string",
          "name": "symbol",
          "type": "string"
        },
        {
          "internalType": "string",
          "name": "baseURI",
          "type": "string"
        },
        {
          "internalType": "uint256",
          "name": "maxAmount",
          "type": "uint256"
        },
        {
          "internalType": "uint256",
          "name": "startTime",
          "type": "uint256"
        },
        {
          "internalType": "uint256",
          "name": "endTime",
          "type": "uint256"
        },
        {
          "internalType": "uint256",
          "name": "userLimit",
          "type": "uint256"
        },
        {
          "internalType": "address",
          "name": "acceptCurrency",
          "type": "address"
        },
        {
          "internalType": "uint256",
          "name": "mintPrice",
          "type": "uint256"
        },
        {
          "internalType": "address",
          "name": "signer",
          "type": "address"
        },
        {
          "internalType": "bool",
          "name": "needVerify",
          "type": "bool"
        }
      ],
      "stateMutability": "nonpayable",
      "type": "constructor"
    },
    {
      "anonymous": false,
      "inputs": [
        {
          "indexed": true,
          "internalType": "address",
          "name": "owner",
          "type": "address"
        },
        {
          "indexed": true,
          "internalType": "address",
          "name": "approved",
          "type": "address"
        },
        {
          "indexed": true,
          "internalType": "uint256",
          "name": "tokenId",
          "type": "uint256"
        }
      ],
      "name": "Approval",
      "type": "event"
    },
    {
      "anonymous": false,
      "inputs": [
        {
          "indexed": true,
          "internalType": "address",
          "name": "owner",
          "type": "address"
        },
        {
          "indexed": true,
          "internalType": "address",
          "name": "operator",
          "type": "address"
        },
        {
          "indexed": false,
          "internalType": "bool",
          "name": "approved",
          "type": "bool"
        }
      ],
      "name": "ApprovalForAll",
      "type": "event"
    },
    {
      "anonymous": false,
      "inputs": [
        {
          "indexed": true,
          "internalType": "address",
          "name": "previousGovernor",
          "type": "address"
        },
        {
          "indexed": true,
          "internalType": "address",
          "name": "newGovernor",
          "type": "address"
        }
      ],
      "name": "GovernorshipTransferred",
      "type": "event"
    },
    {
      "anonymous": false,
      "inputs": [
        {
          "indexed": true,
          "internalType": "address",
          "name": "owner",
          "type": "address"
        },
        {
          "indexed": true,
          "internalType": "uint256",
          "name": "tokenId",
          "type": "uint256"
        }
      ],
      "name": "Mint",
      "type": "event"
    },
    {
      "anonymous": false,
      "inputs": [
        {
          "indexed": true,
          "internalType": "address",
          "name": "from",
          "type": "address"
        },
        {
          "indexed": true,
          "internalType": "address",
          "name": "to",
          "type": "address"
        },
        {
          "indexed": true,
          "internalType": "uint256",
          "name": "tokenId",
          "type": "uint256"
        }
      ],
      "name": "Transfer",
      "type": "event"
    },
    {
      "inputs": [
        {
          "internalType": "address",
          "name": "to",
          "type": "address"
        },
        {
          "internalType": "uint256",
          "name": "tokenId",
          "type": "uint256"
        }
      ],
      "name": "approve",
      "outputs": [],
      "stateMutability": "nonpayable",
      "type": "function"
    },
    {
      "inputs": [
        {
          "internalType": "address",
          "name": "owner",
          "type": "address"
        }
      ],
      "name": "balanceOf",
      "outputs": [
        {
          "internalType": "uint256",
          "name": "",
          "type": "uint256"
        }
      ],
      "stateMutability": "view",
      "type": "function"
    },
    {
      "inputs": [],
      "name": "baseURI",
      "outputs": [
        {
          "internalType": "string",
          "name": "",
          "type": "string"
        }
      ],
      "stateMutability": "view",
      "type": "function"
    },
    {
      "inputs": [
        {
          "internalType": "address",
          "name": "token",
          "type": "address"
        },
        {
          "internalType": "uint256",
          "name": "amount",
          "type": "uint256"
        },
        {
          "internalType": "address",
          "name": "to",
          "type": "address"
        }
      ],
      "name": "claimTokenTo",
      "outputs": [],
      "stateMutability": "nonpayable",
      "type": "function"
    },
    {
      "inputs": [],
      "name": "getAcceptCurrency",
      "outputs": [
        {
          "internalType": "address",
          "name": "",
          "type": "address"
        }
      ],
      "stateMutability": "view",
      "type": "function"
    },
    {
      "inputs": [
        {
          "internalType": "uint256",
          "name": "tokenId",
          "type": "uint256"
        }
      ],
      "name": "getApproved",
      "outputs": [
        {
          "internalType": "address",
          "name": "",
          "type": "address"
        }
      ],
      "stateMutability": "view",
      "type": "function"
    },
    {
      "inputs": [],
      "name": "getEndTime",
      "outputs": [
        {
          "internalType": "uint256",
          "name": "",
          "type": "uint256"
        }
      ],
      "stateMutability": "view",
      "type": "function"
    },
    {
      "inputs": [],
      "name": "getMaxAmount",
      "outputs": [
        {
          "internalType": "uint256",
          "name": "",
          "type": "uint256"
        }
      ],
      "stateMutability": "view",
      "type": "function"
    },
    {
      "inputs": [],
      "name": "getMintPrice",
      "outputs": [
        {
          "internalType": "uint256",
          "name": "",
          "type": "uint256"
        }
      ],
      "stateMutability": "view",
      "type": "function"
    },
    {
      "inputs": [],
      "name": "getNeedVerify",
      "outputs": [
        {
          "internalType": "bool",
          "name": "",
          "type": "bool"
        }
      ],
      "stateMutability": "view",
      "type": "function"
    },
    {
      "inputs": [],
      "name": "getSigner",
      "outputs": [
        {
          "internalType": "address",
          "name": "",
          "type": "address"
        }
      ],
      "stateMutability": "view",
      "type": "function"
    },
    {
      "inputs": [],
      "name": "getStartTime",
      "outputs": [
        {
          "internalType": "uint256",
          "name": "",
          "type": "uint256"
        }
      ],
      "stateMutability": "view",
      "type": "function"
    },
    {
      "inputs": [],
      "name": "getUserLimit",
      "outputs": [
        {
          "internalType": "uint256",
          "name": "",
          "type": "uint256"
        }
      ],
      "stateMutability": "view",
      "type": "function"
    },
    {
      "inputs": [
        {
          "internalType": "address",
          "name": "user",
          "type": "address"
        }
      ],
      "name": "getUserMinted",
      "outputs": [
        {
          "internalType": "uint256",
          "name": "",
          "type": "uint256"
        }
      ],
      "stateMutability": "view",
      "type": "function"
    },
    {
      "inputs": [],
      "name": "governor",
      "outputs": [
        {
          "internalType": "address",
          "name": "",
          "type": "address"
        }
      ],
      "stateMutability": "view",
      "type": "function"
    },
    {
      "inputs": [
        {
          "internalType": "address",
          "name": "governor_",
          "type": "address"
        }
      ],
      "name": "initialize",
      "outputs": [],
      "stateMutability": "nonpayable",
      "type": "function"
    },
    {
      "inputs": [
        {
          "internalType": "address",
          "name": "owner",
          "type": "address"
        },
        {
          "internalType": "address",
          "name": "operator",
          "type": "address"
        }
      ],
      "name": "isApprovedForAll",
      "outputs": [
        {
          "internalType": "bool",
          "name": "",
          "type": "bool"
        }
      ],
      "stateMutability": "view",
      "type": "function"
    },
    {
      "inputs": [],
      "name": "mint",
      "outputs": [],
      "stateMutability": "payable",
      "type": "function"
    },
    {
      "inputs": [
        {
          "internalType": "uint256",
          "name": "_nonce",
          "type": "uint256"
        },
        {
          "internalType": "bytes",
          "name": "_signature",
          "type": "bytes"
        }
      ],
      "name": "mint",
      "outputs": [],
      "stateMutability": "payable",
      "type": "function"
    },
    {
      "inputs": [],
      "name": "name",
      "outputs": [
        {
          "internalType": "string",
          "name": "",
          "type": "string"
        }
      ],
      "stateMutability": "view",
      "type": "function"
    },
    {
      "inputs": [
        {
          "internalType": "uint256",
          "name": "tokenId",
          "type": "uint256"
        }
      ],
      "name": "ownerOf",
      "outputs": [
        {
          "internalType": "address",
          "name": "",
          "type": "address"
        }
      ],
      "stateMutability": "view",
      "type": "function"
    },
    {
      "inputs": [],
      "name": "renounceGovernorship",
      "outputs": [],
      "stateMutability": "nonpayable",
      "type": "function"
    },
    {
      "inputs": [
        {
          "internalType": "address",
          "name": "from",
          "type": "address"
        },
        {
          "internalType": "address",
          "name": "to",
          "type": "address"
        },
        {
          "internalType": "uint256",
          "name": "tokenId",
          "type": "uint256"
        }
      ],
      "name": "safeTransferFrom",
      "outputs": [],
      "stateMutability": "nonpayable",
      "type": "function"
    },
    {
      "inputs": [
        {
          "internalType": "address",
          "name": "from",
          "type": "address"
        },
        {
          "internalType": "address",
          "name": "to",
          "type": "address"
        },
        {
          "internalType": "uint256",
          "name": "tokenId",
          "type": "uint256"
        },
        {
          "internalType": "bytes",
          "name": "_data",
          "type": "bytes"
        }
      ],
      "name": "safeTransferFrom",
      "outputs": [],
      "stateMutability": "nonpayable",
      "type": "function"
    },
    {
      "inputs": [
        {
          "internalType": "address",
          "name": "acceptCurrency",
          "type": "address"
        }
      ],
      "name": "setAcceptCurrency",
      "outputs": [],
      "stateMutability": "nonpayable",
      "type": "function"
    },
    {
      "inputs": [
        {
          "internalType": "address",
          "name": "operator",
          "type": "address"
        },
        {
          "internalType": "bool",
          "name": "approved",
          "type": "bool"
        }
      ],
      "name": "setApprovalForAll",
      "outputs": [],
      "stateMutability": "nonpayable",
      "type": "function"
    },
    {
      "inputs": [
        {
          "internalType": "string",
          "name": "baseURI",
          "type": "string"
        }
      ],
      "name": "setBaseURI",
      "outputs": [
        {
          "internalType": "bool",
          "name": "",
          "type": "bool"
        }
      ],
      "stateMutability": "nonpayable",
      "type": "function"
    },
    {
      "inputs": [
        {
          "internalType": "uint256",
          "name": "endTime",
          "type": "uint256"
        }
      ],
      "name": "setEndTime",
      "outputs": [],
      "stateMutability": "nonpayable",
      "type": "function"
    },
    {
      "inputs": [
        {
          "internalType": "uint256",
          "name": "maxAmount",
          "type": "uint256"
        }
      ],
      "name": "setMaxAmount",
      "outputs": [],
      "stateMutability": "nonpayable",
      "type": "function"
    },
    {
      "inputs": [
        {
          "internalType": "uint256",
          "name": "mintPrice",
          "type": "uint256"
        }
      ],
      "name": "setMintPrice",
      "outputs": [],
      "stateMutability": "nonpayable",
      "type": "function"
    },
    {
      "inputs": [
        {
          "internalType": "bool",
          "name": "needVerify",
          "type": "bool"
        }
      ],
      "name": "setNeedVerify",
      "outputs": [],
      "stateMutability": "nonpayable",
      "type": "function"
    },
    {
      "inputs": [
        {
          "internalType": "address",
          "name": "signer",
          "type": "address"
        }
      ],
      "name": "setSigner",
      "outputs": [],
      "stateMutability": "nonpayable",
      "type": "function"
    },
    {
      "inputs": [
        {
          "internalType": "uint256",
          "name": "startTime",
          "type": "uint256"
        }
      ],
      "name": "setStartTime",
      "outputs": [],
      "stateMutability": "nonpayable",
      "type": "function"
    },
    {
      "inputs": [
        {
          "internalType": "uint256",
          "name": "tokenId",
          "type": "uint256"
        },
        {
          "internalType": "string",
          "name": "_tokenURI",
          "type": "string"
        }
      ],
      "name": "setTokenURI",
      "outputs": [
        {
          "internalType": "bool",
          "name": "",
          "type": "bool"
        }
      ],
      "stateMutability": "nonpayable",
      "type": "function"
    },
    {
      "inputs": [
        {
          "internalType": "uint256",
          "name": "userLimit",
          "type": "uint256"
        }
      ],
      "name": "setUserLimit",
      "outputs": [],
      "stateMutability": "nonpayable",
      "type": "function"
    },
    {
      "inputs": [
        {
          "internalType": "bytes",
          "name": "sig",
          "type": "bytes"
        }
      ],
      "name": "splitSignature",
      "outputs": [
        {
          "internalType": "bytes32",
          "name": "r",
          "type": "bytes32"
        },
        {
          "internalType": "bytes32",
          "name": "s",
          "type": "bytes32"
        },
        {
          "internalType": "uint8",
          "name": "v",
          "type": "uint8"
        }
      ],
      "stateMutability": "pure",
      "type": "function"
    },
    {
      "inputs": [
        {
          "internalType": "bytes4",
          "name": "interfaceId",
          "type": "bytes4"
        }
      ],
      "name": "supportsInterface",
      "outputs": [
        {
          "internalType": "bool",
          "name": "",
          "type": "bool"
        }
      ],
      "stateMutability": "view",
      "type": "function"
    },
    {
      "inputs": [],
      "name": "symbol",
      "outputs": [
        {
          "internalType": "string",
          "name": "",
          "type": "string"
        }
      ],
      "stateMutability": "view",
      "type": "function"
    },
    {
      "inputs": [
        {
          "internalType": "uint256",
          "name": "index",
          "type": "uint256"
        }
      ],
      "name": "tokenByIndex",
      "outputs": [
        {
          "internalType": "uint256",
          "name": "",
          "type": "uint256"
        }
      ],
      "stateMutability": "view",
      "type": "function"
    },
    {
      "inputs": [
        {
          "internalType": "address",
          "name": "owner",
          "type": "address"
        },
        {
          "internalType": "uint256",
          "name": "index",
          "type": "uint256"
        }
      ],
      "name": "tokenOfOwnerByIndex",
      "outputs": [
        {
          "internalType": "uint256",
          "name": "",
          "type": "uint256"
        }
      ],
      "stateMutability": "view",
      "type": "function"
    },
    {
      "inputs": [
        {
          "internalType": "uint256",
          "name": "tokenId",
          "type": "uint256"
        }
      ],
      "name": "tokenURI",
      "outputs": [
        {
          "internalType": "string",
          "name": "",
          "type": "string"
        }
      ],
      "stateMutability": "view",
      "type": "function"
    },
    {
      "inputs": [],
      "name": "totalSupply",
      "outputs": [
        {
          "internalType": "uint256",
          "name": "",
          "type": "uint256"
        }
      ],
      "stateMutability": "view",
      "type": "function"
    },
    {
      "inputs": [
        {
          "internalType": "address",
          "name": "from",
          "type": "address"
        },
        {
          "internalType": "address",
          "name": "to",
          "type": "address"
        },
        {
          "internalType": "uint256",
          "name": "tokenId",
          "type": "uint256"
        }
      ],
      "name": "transferFrom",
      "outputs": [],
      "stateMutability": "nonpayable",
      "type": "function"
    },
    {
      "inputs": [
        {
          "internalType": "address",
          "name": "newGovernor",
          "type": "address"
        }
      ],
      "name": "transferGovernorship",
      "outputs": [],
      "stateMutability": "nonpayable",
      "type": "function"
    },
    {
      "inputs": [
        {
          "internalType": "address",
          "name": "",
          "type": "address"
        }
      ],
      "name": "userMinted",
      "outputs": [
        {
          "internalType": "uint256",
          "name": "",
          "type": "uint256"
        }
      ],
      "stateMutability": "view",
      "type": "function"
    },
    {
      "inputs": [
        {
          "internalType": "address",
          "name": "_to",
          "type": "address"
        },
        {
          "internalType": "uint256",
          "name": "_nonce",
          "type": "uint256"
        },
        {
          "internalType": "address",
          "name": "contractAddress",
          "type": "address"
        },
        {
          "internalType": "bytes",
          "name": "signature",
          "type": "bytes"
        }
      ],
      "name": "verify",
      "outputs": [
        {
          "internalType": "address",
          "name": "",
          "type": "address"
        }
      ],
      "stateMutability": "pure",
      "type": "function"
    }
  ],
  "bytecode": "0x608060405260478054600160a060020a03191690553480156200002157600080fd5b5060405162003b1838038062003b18833981016040819052620000449162000783565b8a8a6200007a7f01ffc9a70000000000000000000000000000000000000000000000000000000064010000000062000238810204565b81516200008f90603a90602085019062000637565b508051620000a590603b90602084019062000637565b50620000da7f80ac58cd0000000000000000000000000000000000000000000000000000000064010000000062000238810204565b6200010e7f5b5e139f0000000000000000000000000000000000000000000000000000000064010000000062000238810204565b620001427f780e9d630000000000000000000000000000000000000000000000000000000064010000000062000238810204565b505060606200016030620002dd640100000000026401000000009004565b90506200019f8a826040516020016200017b92919062000889565b60405160208183030381529060405262000447640100000000026401000000009004565b603f899055604088905560418790556042869055604384905560448054600160a060020a03808816600160a060020a03199283161790925560458054851515740100000000000000000000000000000000000000000260a060020a60ff02199488169190931617929092161790556200022633640100000000620012076200046082021704565b505050505050505050505050620009d6565b7fffffffff000000000000000000000000000000000000000000000000000000008082161415620002a0576040517f08c379a000000000000000000000000000000000000000000000000000000000815260040162000297906200090f565b60405180910390fd5b7fffffffff00000000000000000000000000000000000000000000000000000000166000908152603460205260409020805460ff19166001179055565b604080516028808252606082810190935282919060208201818036833701905050905060005b60148110156200043e5760008160130360080260020a85600160a060020a0316816200032b57fe5b047f010000000000000000000000000000000000000000000000000000000000000002905060006010827f0100000000000000000000000000000000000000000000000000000000000000900460ff16816200038357fe5b047f010000000000000000000000000000000000000000000000000000000000000090810291508082046010028184040302620003c9826401000000006200055e810204565b858560020281518110620003d957fe5b6020010190600160f860020a031916908160001a90535062000404816401000000006200055e810204565b8585600202600101815181106200041757fe5b6020010190600160f860020a031916908160001a9053505060019092019150620003039050565b5090505b919050565b80516200045c90603d90602084019062000637565b5050565b600054610100900460ff16806200048557506200048564010000000062000631810204565b8062000494575060005460ff16155b620004cd576040517f08c379a0000000000000000000000000000000000000000000000000000000008152600401620002979062000946565b600054610100900460ff16158015620004f9576000805460ff1961ff0019909116610100171660011790555b60338054600160a060020a031916600160a060020a0384811691909117918290556040519116906000907fc7c0c772add429241571afb3805861fb3cfa2af374534088b76cdb4325a87e9a908290a380156200045c576000805461ff00191690555050565b6000600a60ff7f01000000000000000000000000000000000000000000000000000000000000008404161015620005e057817f010000000000000000000000000000000000000000000000000000000000000090046030017f010000000000000000000000000000000000000000000000000000000000000002905062000442565b817f010000000000000000000000000000000000000000000000000000000000000090046057017f010000000000000000000000000000000000000000000000000000000000000002905062000442565b303b1590565b828054600181600116156101000203166002900490600052602060002090601f016020900481019282601f106200067a57805160ff1916838001178555620006aa565b82800160010185558215620006aa579182015b82811115620006aa5782518255916020019190600101906200068d565b50620006b8929150620006bc565b5090565b5b80821115620006b85760008155600101620006bd565b8051600160a060020a0381168114620006eb57600080fd5b92915050565b80518015158114620006eb57600080fd5b600082601f83011262000713578081fd5b81516001604060020a03808211156200072a578283fd5b604051601f8301601f1916810160200182811182821017156200074b578485fd5b6040528281529250828483016020018610156200076757600080fd5b6200077a836020830160208801620009a3565b50505092915050565b60008060008060008060008060008060006101608c8e031215620007a5578687fd5b8b516001604060020a03811115620007bb578788fd5b620007c98e828f0162000702565b9b505060208c01516001604060020a03811115620007e5578788fd5b620007f38e828f0162000702565b9a505060408c01516001604060020a038111156200080f578788fd5b6200081d8e828f0162000702565b99505060608c0151975060808c0151965060a08c0151955060c08c015194506200084b8d60e08e01620006d3565b93506101008c01519250620008658d6101208e01620006d3565b9150620008778d6101408e01620006f1565b90509295989b509295989b9093969950565b600083516200089d818460208801620009a3565b7f30780000000000000000000000000000000000000000000000000000000000009083019081528351620008d9816002840160208801620009a3565b7f2f0000000000000000000000000000000000000000000000000000000000000060029290910191820152600301949350505050565b6020808252601c908201527f4552433136353a20696e76616c696420696e7465726661636520696400000000604082015260600190565b6020808252602e908201527f436f6e747261637420696e7374616e63652068617320616c726561647920626560408201527f656e20696e697469616c697a6564000000000000000000000000000000000000606082015260800190565b60005b83811015620009c0578181015183820152602001620009a6565b83811115620009d0576000848401525b50505050565b61313280620009e66000396000f3fe60806040526004361061029a576000357c0100000000000000000000000000000000000000000000000000000000900480636352211e1161016c578063b24635fa116100de578063ccb98ffc11610097578063ccb98ffc1461073b578063d24f689a1461075b578063db7fd4081461077b578063e985e9c51461078e578063f32b4590146107ae578063f4a0a528146107ce5761029a565b8063b24635fa14610686578063b6aa515b146106a6578063b88d4fde146106c6578063c4d66de8146106e6578063c828371e14610706578063c87b56dd1461071b5761029a565b806381c0c2631161013057806381c0c263146105d857806395d89b41146105ed578063a22cb46514610602578063a7bb580314610622578063a7f93ebd14610651578063a9709099146106665761029a565b80636352211e1461054e5780636c0360eb1461056e5780636c19e7831461058357806370a08231146105a35780637ac3c02f146105c35761029a565b806323b872dd1161021057806348608822116101c957806348608822146104995780634f6ccce7146104ae5780634fe47f70146104ce57806350a89730146104ee57806355f804b31461050e57806360b803311461052e5761029a565b806323b872dd146103ef5780632f745c591461040f5780633733722d1461042f5780633e0a322d1461044457806342842e0e14610464578063439f5ac2146104845761029a565b80630ba95909116102625780630ba959091461035b5780630c340a241461037d5780631249c58b14610392578063162094c41461039a57806318160ddd146103ba5780631aa5e872146103cf5761029a565b806301ffc9a71461029f5780630294f7af146102d557806306fdde03146102f7578063081812fc14610319578063095ea7b314610339575b600080fd5b3480156102ab57600080fd5b506102bf6102ba366004612622565b6107ee565b6040516102cc9190612821565b60405180910390f35b3480156102e157600080fd5b506102ea610826565b6040516102cc9190612794565b34801561030357600080fd5b5061030c610835565b6040516102cc9190612863565b34801561032557600080fd5b506102ea61033436600461268d565b6108cb565b34801561034557600080fd5b5061035961035436600461252f565b61091a565b005b34801561036757600080fd5b506103706109b8565b6040516102cc919061301e565b34801561038957600080fd5b506102ea6109be565b6103596109cd565b3480156103a657600080fd5b506102bf6103b53660046126a5565b610bf8565b3480156103c657600080fd5b50610370610c22565b3480156103db57600080fd5b506103706103ea366004612401565b610c33565b3480156103fb57600080fd5b5061035961040a366004612450565b610c45565b34801561041b57600080fd5b5061037061042a36600461252f565b610c80565b34801561043b57600080fd5b50610370610ca9565b34801561045057600080fd5b5061035961045f36600461268d565b610caf565b34801561047057600080fd5b5061035961047f366004612450565b610ccb565b34801561049057600080fd5b50610370610ce6565b3480156104a557600080fd5b506102bf610cec565b3480156104ba57600080fd5b506103706104c936600461268d565b610cfc565b3480156104da57600080fd5b506103596104e936600461268d565b610d12565b3480156104fa57600080fd5b506102ea61050936600461259a565b610d2e565b34801561051a57600080fd5b506102bf61052936600461265a565b610dd0565b34801561053a57600080fd5b5061035961054936600461268d565b610df3565b34801561055a57600080fd5b506102ea61056936600461268d565b610e0f565b34801561057a57600080fd5b5061030c610e37565b34801561058f57600080fd5b5061035961059e366004612401565b610e98565b3480156105af57600080fd5b506103706105be366004612401565b610ede565b3480156105cf57600080fd5b506102ea610f2a565b3480156105e457600080fd5b50610359610f54565b3480156105f957600080fd5b5061030c610fc2565b34801561060e57600080fd5b5061035961061d3660046124f8565b611023565b34801561062e57600080fd5b5061064261063d36600461265a565b6110f4565b6040516102cc9392919061282c565b34801561065d57600080fd5b5061037061113b565b34801561067257600080fd5b50610370610681366004612401565b611141565b34801561069257600080fd5b506103596106a13660046125ea565b61115c565b3480156106b257600080fd5b506103596106c1366004612401565b6111a2565b3480156106d257600080fd5b506103596106e1366004612490565b6111c5565b3480156106f257600080fd5b50610359610701366004612401565b611207565b34801561071257600080fd5b506103706112ea565b34801561072757600080fd5b5061030c61073636600461268d565b6112f0565b34801561074757600080fd5b5061035961075636600461268d565b611439565b34801561076757600080fd5b50610359610776366004612401565b611455565b6103596107893660046126a5565b61149b565b34801561079a57600080fd5b506102bf6107a936600461241c565b6116de565b3480156107ba57600080fd5b506103596107c9366004612559565b61170c565b3480156107da57600080fd5b506103596107e936600461268d565b61180e565b7bffffffffffffffffffffffffffffffffffffffffffffffffffffffff19811660009081526034602052604090205460ff165b919050565b604454600160a060020a031690565b603a8054604080516020601f60026000196101006001881615020190951694909404938401819004810282018101909252828152606093909290918301828280156108c15780601f10610896576101008083540402835291602001916108c1565b820191906000526020600020905b8154815290600101906020018083116108a457829003601f168201915b5050505050905090565b60006108d68261182a565b6108fe5760405160e560020a62461bcd0281526004016108f590612d25565b60405180910390fd5b50600090815260386020526040902054600160a060020a031690565b600061092582610e0f565b905080600160a060020a031683600160a060020a0316141561095c5760405160e560020a62461bcd0281526004016108f590612ef6565b80600160a060020a031661096e611837565b600160a060020a0316148061098a575061098a816107a9611837565b6109a95760405160e560020a62461bcd0281526004016108f590612b6b565b6109b3838361183b565b505050565b603f5490565b603354600160a060020a031681565b60455460a060020a900460ff1615610a0c5760455460a060020a900460ff1615610a0c5760405160e560020a62461bcd0281526004016108f590612967565b603f54603e5410610a325760405160e560020a62461bcd0281526004016108f590612a69565b4260405410610a565760405160e560020a62461bcd0281526004016108f590612afd565b4260415411610a7a5760405160e560020a62461bcd0281526004016108f590612bc8565b6042543360009081526046602052604090205410610aad5760405160e560020a62461bcd0281526004016108f590612cee565b60435415610b9a57604754604454600160a060020a0390811691161415610af857604354341015610af35760405160e560020a62461bcd0281526004016108f590612b34565b610b9a565b6044546043546040517f23b872dd000000000000000000000000000000000000000000000000000000008152600160a060020a03909216916323b872dd91610b4691339130916004016127a8565b602060405180830381600087803b158015610b6057600080fd5b505af1158015610b74573d6000803e3d6000fd5b505050506040513d601f19601f82011682018060405250810190610b989190612606565b505b603e80546001908101825533600081815260466020526040902080549092019091559054610bc891906118b6565b603e5460405133907f0f6798a560793a54c3bcfe86a93cde1e73087d944c0ea20544137d412139688590600090a3565b603354600090600160a060020a03163314610c1257600080fd5b610c1c8383611980565b92915050565b6000610c2e60366119c7565b905090565b60466020526000908152604090205481565b610c56610c50611837565b826119d2565b610c755760405160e560020a62461bcd0281526004016108f590612f53565b6109b3838383611a52565b600160a060020a0382166000908152603560205260408120610ca29083611b66565b9392505050565b60425490565b603354600160a060020a03163314610cc657600080fd5b604055565b6109b3838383604051806020016040528060008152506111c5565b60415490565b60455460a060020a900460ff1690565b600080610d0a603684611b72565b509392505050565b603354600160a060020a03163314610d2957600080fd5b603f55565b600080858585604051602001610d4693929190612716565b6040516020818303038152906040528051906020012090506000806000610d6c866110f4565b92509250925060018482858560405160008152602001604052604051610d959493929190612845565b6020604051602081039080840390855afa158015610db7573d6000803e3d6000fd5b505050602060405103519450505050505b949350505050565b603354600090600160a060020a03163314610dea57600080fd5b61082182611b8e565b603354600160a060020a03163314610e0a57600080fd5b604255565b6000610c1c826040518060600160405280602981526020016130d46029913960369190611ba1565b603d8054604080516020601f60026000196101006001881615020190951694909404938401819004810282018101909252828152606093909290918301828280156108c15780601f10610896576101008083540402835291602001916108c1565b603354600160a060020a03163314610eaf57600080fd5b6045805473ffffffffffffffffffffffffffffffffffffffff1916600160a060020a0392909216919091179055565b6000600160a060020a038216610f095760405160e560020a62461bcd0281526004016108f590612bff565b600160a060020a0382166000908152603560205260409020610c1c906119c7565b603354600090600160a060020a03163314610f4457600080fd5b50604554600160a060020a031690565b603354600160a060020a03163314610f6b57600080fd5b603354604051600091600160a060020a0316907fc7c0c772add429241571afb3805861fb3cfa2af374534088b76cdb4325a87e9a908390a36033805473ffffffffffffffffffffffffffffffffffffffff19169055565b603b8054604080516020601f60026000196101006001881615020190951694909404938401819004810282018101909252828152606093909290918301828280156108c15780601f10610896576101008083540402835291602001916108c1565b61102b611837565b600160a060020a031682600160a060020a0316141561105f5760405160e560020a62461bcd0281526004016108f590612a32565b806039600061106c611837565b600160a060020a03908116825260208083019390935260409182016000908120918716808252919093529120805460ff1916921515929092179091556110b0611837565b600160a060020a03167f17307eab39ab6107e8899845ad3d59bd9653f200f220920489ca2b5937696c31836040516110e89190612821565b60405180910390a35050565b6000806000835160411461111d5760405160e560020a62461bcd0281526004016108f590612fe7565b50505060208101516040820151606090920151909260009190911a90565b60435490565b600160a060020a031660009081526046602052604090205490565b603354600160a060020a0316331461117357600080fd5b6045805491151560a060020a0274ff000000000000000000000000000000000000000019909216919091179055565b603354600160a060020a031633146111b957600080fd5b6111c281611bae565b50565b6111d66111d0611837565b836119d2565b6111f55760405160e560020a62461bcd0281526004016108f590612f53565b61120184848484611c2a565b50505050565b600054610100900460ff16806112205750611220611c60565b8061122e575060005460ff16155b61124d5760405160e560020a62461bcd0281526004016108f590612ddf565b600054610100900460ff16158015611278576000805460ff1961ff0019909116610100171660011790555b6033805473ffffffffffffffffffffffffffffffffffffffff1916600160a060020a0384811691909117918290556040519116906000907fc7c0c772add429241571afb3805861fb3cfa2af374534088b76cdb4325a87e9a908290a380156112e6576000805461ff00191690555b5050565b60405490565b60606112fb8261182a565b61131a5760405160e560020a62461bcd0281526004016108f590612e99565b6000828152603c602090815260409182902080548351601f60026000196101006001861615020190931692909204918201849004840281018401909452808452606093928301828280156113af5780601f10611384576101008083540402835291602001916113af565b820191906000526020600020905b81548152906001019060200180831161139257829003601f168201915b5050505050905060606113c0610e37565b90508051600014156113d457509050610821565b8151156114065780826040516020016113ee929190612765565b60405160208183030381529060405292505050610821565b8061141085611c66565b604051602001611421929190612765565b60405160208183030381529060405292505050919050565b603354600160a060020a0316331461145057600080fd5b604155565b603354600160a060020a0316331461146c57600080fd5b6044805473ffffffffffffffffffffffffffffffffffffffff1916600160a060020a0392909216919091179055565b60455460a060020a900460ff16156114f05760006114bb33843085610d2e565b604554909150600160a060020a038083169116146114ee5760405160e560020a62461bcd0281526004016108f5906128d3565b505b603f54603e54106115165760405160e560020a62461bcd0281526004016108f590612a69565b426040541061153a5760405160e560020a62461bcd0281526004016108f590612afd565b426041541161155e5760405160e560020a62461bcd0281526004016108f590612bc8565b60425433600090815260466020526040902054106115915760405160e560020a62461bcd0281526004016108f590612cee565b6043541561167e57604754604454600160a060020a03908116911614156115dc576043543410156115d75760405160e560020a62461bcd0281526004016108f590612b34565b61167e565b6044546043546040517f23b872dd000000000000000000000000000000000000000000000000000000008152600160a060020a03909216916323b872dd9161162a91339130916004016127a8565b602060405180830381600087803b15801561164457600080fd5b505af1158015611658573d6000803e3d6000fd5b505050506040513d601f19601f8201168201806040525081019061167c9190612606565b505b603e805460019081018255336000818152604660205260409020805490920190915590546116ac91906118b6565b603e5460405133907f0f6798a560793a54c3bcfe86a93cde1e73087d944c0ea20544137d412139688590600090a35050565b600160a060020a03918216600090815260396020908152604080832093909416825291909152205460ff1690565b603354600160a060020a0316331461172357600080fd5b604754600160a060020a038481169116141561177557604051600160a060020a0382169083156108fc029084906000818181858888f1935050505015801561176f573d6000803e3d6000fd5b506109b3565b6040517fa9059cbb000000000000000000000000000000000000000000000000000000008152600160a060020a0384169063a9059cbb906117bc9084908690600401612808565b602060405180830381600087803b1580156117d657600080fd5b505af11580156117ea573d6000803e3d6000fd5b505050506040513d601f19601f820116820180604052508101906112019190612606565b603354600160a060020a0316331461182557600080fd5b604355565b6000610c1c603683611d94565b3390565b6000818152603860205260409020805473ffffffffffffffffffffffffffffffffffffffff1916600160a060020a038416908117909155819061187d82610e0f565b600160a060020a03167f8c5be1e5ebec7d5bd14f71427d1e84f3dd0314c0f7b2291e5b200ac8c7c3b92560405160405180910390a45050565b600160a060020a0382166118df5760405160e560020a62461bcd0281526004016108f590612cb9565b6118e88161182a565b156119085760405160e560020a62461bcd0281526004016108f59061299e565b611914600083836109b3565b600160a060020a03821660009081526035602052604090206119369082611da0565b5061194360368284611dac565b506040518190600160a060020a038416906000907fddf252ad1be2c89b69c2b068fc378daa952ba7f163c4a11628f55a4df523b3ef908290a45050565b6119898261182a565b6119a85760405160e560020a62461bcd0281526004016108f590612d82565b6000828152603c6020908152604090912082516109b3928401906122d9565b6000610c1c82611dc2565b60006119dd8261182a565b6119fc5760405160e560020a62461bcd0281526004016108f590612aa0565b6000611a0783610e0f565b905080600160a060020a031684600160a060020a03161480611a42575083600160a060020a0316611a37846108cb565b600160a060020a0316145b80610dc85750610dc881856116de565b82600160a060020a0316611a6582610e0f565b600160a060020a031614611a8e5760405160e560020a62461bcd0281526004016108f590612e3c565b600160a060020a038216611ab75760405160e560020a62461bcd0281526004016108f5906129d5565b611ac28383836109b3565b611acd60008261183b565b600160a060020a0383166000908152603560205260409020611aef9082611dc6565b50600160a060020a0382166000908152603560205260409020611b129082611da0565b50611b1f60368284611dac565b508082600160a060020a031684600160a060020a03167fddf252ad1be2c89b69c2b068fc378daa952ba7f163c4a11628f55a4df523b3ef60405160405180910390a4505050565b6000610ca28383611dd2565b6000808080611b818686611e1a565b9097909650945050505050565b80516112e690603d9060208401906122d9565b6000610dc8848484611e79565b600160a060020a038116611bc157600080fd5b603354604051600160a060020a038084169216907fc7c0c772add429241571afb3805861fb3cfa2af374534088b76cdb4325a87e9a90600090a36033805473ffffffffffffffffffffffffffffffffffffffff1916600160a060020a0392909216919091179055565b611c35848484611a52565b611c4184848484611edb565b6112015760405160e560020a62461bcd0281526004016108f59061290a565b303b1590565b606081611ca7575060408051808201909152600181527f30000000000000000000000000000000000000000000000000000000000000006020820152610821565b8160005b8115611cbf57600101600a82049150611cab565b60608167ffffffffffffffff81118015611cd857600080fd5b506040519080825280601f01601f191660200182016040528015611d03576020820181803683370190505b50859350905060001982015b8315611d8b57600a84066030017f01000000000000000000000000000000000000000000000000000000000000000282828060019003935081518110611d5157fe5b60200101907effffffffffffffffffffffffffffffffffffffffffffffffffffffffffffff1916908160001a905350600a84049350611d0f565b50949350505050565b6000610ca2838361202b565b6000610ca28383612043565b6000610dc88484600160a060020a03851661208d565b5490565b6000610ca28383612124565b81546000908210611df85760405160e560020a62461bcd0281526004016108f590612876565b826000018281548110611e0757fe5b9060005260206000200154905092915050565b815460009081908310611e425760405160e560020a62461bcd0281526004016108f590612c5c565b6000846000018481548110611e5357fe5b906000526020600020906002020190508060000154816001015492509250509250929050565b60008281526001840160205260408120548281611eac5760405160e560020a62461bcd0281526004016108f59190612863565b50846000016001820381548110611ebf57fe5b9060005260206000209060020201600101549150509392505050565b6000611eef84600160a060020a03166121ea565b611efb57506001610dc8565b6060611fc67f150b7a0200000000000000000000000000000000000000000000000000000000611f29611837565b888787604051602401611f3f94939291906127cc565b604051602081830303815290604052907bffffffffffffffffffffffffffffffffffffffffffffffffffffffff19166020820180517bffffffffffffffffffffffffffffffffffffffffffffffffffffffff83818316178352505050506040518060600160405280603281526020016130a260329139600160a060020a03881691906121f0565b9050600081806020019051810190611fde919061263e565b7bffffffffffffffffffffffffffffffffffffffffffffffffffffffff19167f150b7a02000000000000000000000000000000000000000000000000000000001492505050949350505050565b60009081526001919091016020526040902054151590565b600061204f838361202b565b61208557508154600181810184556000848152602080822090930184905584548482528286019093526040902091909155610c1c565b506000610c1c565b6000828152600184016020526040812054806120f2575050604080518082018252838152602080820184815286546001818101895560008981528481209551600290930290950191825591519082015586548684528188019092529290912055610ca2565b8285600001600183038154811061210557fe5b9060005260206000209060020201600101819055506000915050610ca2565b600081815260018301602052604081205480156121e0578354600019808301919081019060009087908390811061215757fe5b906000526020600020015490508087600001848154811061217457fe5b6000918252602080832090910192909255828152600189810190925260409020908401905586548790806121a457fe5b60019003818190600052602060002001600090559055866001016000878152602001908152602001600020600090556001945050505050610c1c565b6000915050610c1c565b3b151590565b6060610dc8848460008585612204856121ea565b6122235760405160e560020a62461bcd0281526004016108f590612fb0565b6000606086600160a060020a031685876040516122409190612749565b60006040518083038185875af1925050503d806000811461227d576040519150601f19603f3d011682016040523d82523d6000602084013e612282565b606091505b509150915061229282828661229d565b979650505050505050565b606083156122ac575081610ca2565b8251156122bc5782518084602001fd5b8160405160e560020a62461bcd0281526004016108f59190612863565b828054600181600116156101000203166002900490600052602060002090601f016020900481019282601f1061231a57805160ff1916838001178555612347565b82800160010185558215612347579182015b8281111561234757825182559160200191906001019061232c565b50612353929150612357565b5090565b5b808211156123535760008155600101612358565b8035600160a060020a0381168114610c1c57600080fd5b600082601f830112612393578081fd5b813567ffffffffffffffff808211156123aa578283fd5b604051601f8301601f1916810160200182811182821017156123ca578485fd5b6040528281529250828483016020018610156123e557600080fd5b8260208601602083013760006020848301015250505092915050565b600060208284031215612412578081fd5b610ca2838361236c565b6000806040838503121561242e578081fd5b612438848461236c565b9150612447846020850161236c565b90509250929050565b600080600060608486031215612464578081fd5b833561246f81613053565b9250602084013561247f81613053565b929592945050506040919091013590565b600080600080608085870312156124a5578081fd5b6124af868661236c565b93506124be866020870161236c565b925060408501359150606085013567ffffffffffffffff8111156124e0578182fd5b6124ec87828801612383565b91505092959194509250565b6000806040838503121561250a578182fd5b612514848461236c565b9150602083013561252481613068565b809150509250929050565b60008060408385031215612541578182fd5b61254b848461236c565b946020939093013593505050565b60008060006060848603121561256d578283fd5b833561257881613053565b925060208401359150604084013561258f81613053565b809150509250925092565b600080600080608085870312156125af578384fd5b6125b9868661236c565b9350602085013592506125cf866040870161236c565b9150606085013567ffffffffffffffff8111156124e0578182fd5b6000602082840312156125fb578081fd5b8135610ca281613068565b600060208284031215612617578081fd5b8151610ca281613068565b600060208284031215612633578081fd5b8135610ca281613076565b60006020828403121561264f578081fd5b8151610ca281613076565b60006020828403121561266b578081fd5b813567ffffffffffffffff811115612681578182fd5b610dc884828501612383565b60006020828403121561269e578081fd5b5035919050565b600080604083850312156126b7578182fd5b82359150602083013567ffffffffffffffff8111156126d4578182fd5b6126e085828601612383565b9150509250929050565b60008151808452612702816020860160208601613027565b601f01601f19169290920160200192915050565b6c01000000000000000000000000600160a060020a03948516810282526014820193909352921602603482015260480190565b6000825161275b818460208701613027565b9190910192915050565b60008351612777818460208801613027565b83519083019061278b818360208801613027565b01949350505050565b600160a060020a0391909116815260200190565b600160a060020a039384168152919092166020820152604081019190915260600190565b6000600160a060020a038087168352808616602084015250836040830152608060608301526127fe60808301846126ea565b9695505050505050565b600160a060020a03929092168252602082015260400190565b901515815260200190565b928352602083019190915260ff16604082015260600190565b93845260ff9290921660208401526040830152606082015260800190565b600060208252610ca260208301846126ea565b60208082526022908201527f456e756d657261626c655365743a20696e646578206f7574206f6620626f756e60408201527f6473000000000000000000000000000000000000000000000000000000000000606082015260800190565b60208082526011908201527f696e76616c6964207369676e6174757265000000000000000000000000000000604082015260600190565b60208082526032908201527f4552433732313a207472616e7366657220746f206e6f6e20455243373231526560408201527f63656976657220696d706c656d656e7465720000000000000000000000000000606082015260800190565b6020808252600b908201527f6e65656420766572696679000000000000000000000000000000000000000000604082015260600190565b6020808252601c908201527f4552433732313a20746f6b656e20616c7265616479206d696e74656400000000604082015260600190565b60208082526024908201527f4552433732313a207472616e7366657220746f20746865207a65726f2061646460408201527f7265737300000000000000000000000000000000000000000000000000000000606082015260800190565b60208082526019908201527f4552433732313a20617070726f766520746f2063616c6c657200000000000000604082015260600190565b6020808252600e908201527f457863656564206d6178696d756d000000000000000000000000000000000000604082015260600190565b6020808252602c908201527f4552433732313a206f70657261746f7220717565727920666f72206e6f6e657860408201527f697374656e7420746f6b656e0000000000000000000000000000000000000000606082015260800190565b60208082526008908201527f6e6f207374617274000000000000000000000000000000000000000000000000604082015260600190565b60208082526012908201527f496e73756666696369656e742066756e64730000000000000000000000000000604082015260600190565b60208082526038908201527f4552433732313a20617070726f76652063616c6c6572206973206e6f74206f7760408201527f6e6572206e6f7220617070726f76656420666f7220616c6c0000000000000000606082015260800190565b60208082526006908201527f697320656e640000000000000000000000000000000000000000000000000000604082015260600190565b6020808252602a908201527f4552433732313a2062616c616e636520717565727920666f7220746865207a6560408201527f726f206164647265737300000000000000000000000000000000000000000000606082015260800190565b60208082526022908201527f456e756d657261626c654d61703a20696e646578206f7574206f6620626f756e60408201527f6473000000000000000000000000000000000000000000000000000000000000606082015260800190565b6020808252818101527f4552433732313a206d696e7420746f20746865207a65726f2061646472657373604082015260600190565b6020808252600c908201527f457863656564206c696d69740000000000000000000000000000000000000000604082015260600190565b6020808252602c908201527f4552433732313a20617070726f76656420717565727920666f72206e6f6e657860408201527f697374656e7420746f6b656e0000000000000000000000000000000000000000606082015260800190565b6020808252602c908201527f4552433732314d657461646174613a2055524920736574206f66206e6f6e657860408201527f697374656e7420746f6b656e0000000000000000000000000000000000000000606082015260800190565b6020808252602e908201527f436f6e747261637420696e7374616e63652068617320616c726561647920626560408201527f656e20696e697469616c697a6564000000000000000000000000000000000000606082015260800190565b60208082526029908201527f4552433732313a207472616e73666572206f6620746f6b656e2074686174206960408201527f73206e6f74206f776e0000000000000000000000000000000000000000000000606082015260800190565b6020808252602f908201527f4552433732314d657461646174613a2055524920717565727920666f72206e6f60408201527f6e6578697374656e7420746f6b656e0000000000000000000000000000000000606082015260800190565b60208082526021908201527f4552433732313a20617070726f76616c20746f2063757272656e74206f776e6560408201527f7200000000000000000000000000000000000000000000000000000000000000606082015260800190565b60208082526031908201527f4552433732313a207472616e736665722063616c6c6572206973206e6f74206f60408201527f776e6572206e6f7220617070726f766564000000000000000000000000000000606082015260800190565b6020808252601d908201527f416464726573733a2063616c6c20746f206e6f6e2d636f6e7472616374000000604082015260600190565b60208082526018908201527f696e76616c6964207369676e6174757265206c656e6774680000000000000000604082015260600190565b90815260200190565b60005b8381101561304257818101518382015260200161302a565b838111156112015750506000910152565b600160a060020a03811681146111c257600080fd5b80151581146111c257600080fd5b7bffffffffffffffffffffffffffffffffffffffffffffffffffffffff19811681146111c257600080fdfe4552433732313a207472616e7366657220746f206e6f6e20455243373231526563656976657220696d706c656d656e7465724552433732313a206f776e657220717565727920666f72206e6f6e6578697374656e7420746f6b656ea26469706673582212207f4b010cdf71a1790897a043bdbc3c55bf79c6635b8db99ccbf70e3862d58bf364736f6c634300060c0033",
  "linkReferences": {},
  "deployedLinkReferences": {}
}