{
  "fileName": "NFTIndexer.sol",
  "contractName": "NFTIndexer",
  "source": "pragma solidity ^0.6.0;\n\nimport \"./Governable.sol\";\n\n\ncontract NFTIndexer is Governable {\n\n    mapping (address => mapping(uint256 => uint256)) public NFT721Auction;\n\n    mapping (address => mapping(uint256 => uint256)) public NFT721Fixswap;\n\n    mapping (address => mapping(uint256 => mapping(address => uint256))) public NFT1155Auction;\n\n    mapping (address => mapping(uint256 => mapping(address => uint256))) public NFT1155Fixswap;\n\n    address public auction;\n    address public fixswap;\n\n    modifier onlyAuction() {\n        require(msg.sender == auction, \"only auction\");\n        _;\n    }\n\n    modifier onlyFixswap() {\n        require(msg.sender == fixswap, \"only auction\");\n        _;\n    }\n\n    function initialize(address _governor) public override initializer {\n        super.initialize(_governor);\n    }\n\n    function setAuction(address _auction) external governance returns (bool) {\n        auction = _auction;\n    }\n\n    function setFixswap(address _fixswap) external governance returns (bool) {\n        fixswap = _fixswap;\n    }\n\n    function new721Auction(address _token, uint256 _tokenId, uint256 _poolId) public  onlyAuction {\n        NFT721Auction[_token][_tokenId] = _poolId;\n    }\n    \n    function new1155Auction(address _token, address _creator, uint256 _tokenId, uint256 _poolId) public  onlyAuction {\n        NFT1155Auction[_token][_tokenId][_creator] = _poolId;\n    }\n\n    function new721Fixswap(address _token, uint256 _tokenId, uint256 _poolId) public  onlyFixswap {\n        NFT721Fixswap[_token][_tokenId] = _poolId;\n    }\n    \n    function new1155Fixswap(address _token, address _creator, uint256 _tokenId, uint256 _poolId) public onlyFixswap{\n        NFT1155Fixswap[_token][_tokenId][_creator] = _poolId;\n    }\n\n    function del721Auction(address _token, uint256 _tokenId) public  onlyAuction {\n        delete NFT721Auction[_token][_tokenId];\n    }\n    \n    function del1155Auction(address _token, address _creator, uint256 _tokenId) public  onlyAuction {\n        delete NFT1155Auction[_token][_tokenId][_creator];\n    }\n\n    function del721Fixswap(address _token, uint256 _tokenId) public  onlyFixswap {\n        delete NFT721Fixswap[_token][_tokenId];\n    }\n    \n    function del1155Fixswap(address _token, address _creator, uint256 _tokenId) public onlyFixswap{\n        delete NFT1155Fixswap[_token][_tokenId][_creator];\n    }\n\n    function get721Auction(address _token, uint256 _tokenId) public view returns(uint256) {\n        return NFT721Auction[_token][_tokenId];\n    }\n\n    function get721Fixswap(address _token, uint256 _tokenId) public view returns(uint256) {\n        return NFT721Fixswap[_token][_tokenId];\n    }\n\n    function get1155Auction(address _token, address _creator, uint256 _tokenId) public view returns(uint256) {\n        return NFT1155Auction[_token][_tokenId][_creator];\n    }\n\n    function get1155Fixswap(address _token, address _creator, uint256 _tokenId) public view returns(uint256) {\n        return NFT1155Fixswap[_token][_tokenId][_creator];\n    }\n}\n",
  "sourcePath": "contracts/NFTIndexer.sol",
  "abi": [
    {
      "anonymous": false,
      "inputs": [
        {
          "indexed": true,
          "internalType": "address",
          "name": "previousGovernor",
          "type": "address"
        },
        {
          "indexed": true,
          "internalType": "address",
          "name": "newGovernor",
          "type": "address"
        }
      ],
      "name": "GovernorshipTransferred",
      "type": "event"
    },
    {
      "inputs": [
        {
          "internalType": "address",
          "name": "",
          "type": "address"
        },
        {
          "internalType": "uint256",
          "name": "",
          "type": "uint256"
        },
        {
          "internalType": "address",
          "name": "",
          "type": "address"
        }
      ],
      "name": "NFT1155Auction",
      "outputs": [
        {
          "internalType": "uint256",
          "name": "",
          "type": "uint256"
        }
      ],
      "stateMutability": "view",
      "type": "function"
    },
    {
      "inputs": [
        {
          "internalType": "address",
          "name": "",
          "type": "address"
        },
        {
          "internalType": "uint256",
          "name": "",
          "type": "uint256"
        },
        {
          "internalType": "address",
          "name": "",
          "type": "address"
        }
      ],
      "name": "NFT1155Fixswap",
      "outputs": [
        {
          "internalType": "uint256",
          "name": "",
          "type": "uint256"
        }
      ],
      "stateMutability": "view",
      "type": "function"
    },
    {
      "inputs": [
        {
          "internalType": "address",
          "name": "",
          "type": "address"
        },
        {
          "internalType": "uint256",
          "name": "",
          "type": "uint256"
        }
      ],
      "name": "NFT721Auction",
      "outputs": [
        {
          "internalType": "uint256",
          "name": "",
          "type": "uint256"
        }
      ],
      "stateMutability": "view",
      "type": "function"
    },
    {
      "inputs": [
        {
          "internalType": "address",
          "name": "",
          "type": "address"
        },
        {
          "internalType": "uint256",
          "name": "",
          "type": "uint256"
        }
      ],
      "name": "NFT721Fixswap",
      "outputs": [
        {
          "internalType": "uint256",
          "name": "",
          "type": "uint256"
        }
      ],
      "stateMutability": "view",
      "type": "function"
    },
    {
      "inputs": [],
      "name": "auction",
      "outputs": [
        {
          "internalType": "address",
          "name": "",
          "type": "address"
        }
      ],
      "stateMutability": "view",
      "type": "function"
    },
    {
      "inputs": [
        {
          "internalType": "address",
          "name": "_token",
          "type": "address"
        },
        {
          "internalType": "address",
          "name": "_creator",
          "type": "address"
        },
        {
          "internalType": "uint256",
          "name": "_tokenId",
          "type": "uint256"
        }
      ],
      "name": "del1155Auction",
      "outputs": [],
      "stateMutability": "nonpayable",
      "type": "function"
    },
    {
      "inputs": [
        {
          "internalType": "address",
          "name": "_token",
          "type": "address"
        },
        {
          "internalType": "address",
          "name": "_creator",
          "type": "address"
        },
        {
          "internalType": "uint256",
          "name": "_tokenId",
          "type": "uint256"
        }
      ],
      "name": "del1155Fixswap",
      "outputs": [],
      "stateMutability": "nonpayable",
      "type": "function"
    },
    {
      "inputs": [
        {
          "internalType": "address",
          "name": "_token",
          "type": "address"
        },
        {
          "internalType": "uint256",
          "name": "_tokenId",
          "type": "uint256"
        }
      ],
      "name": "del721Auction",
      "outputs": [],
      "stateMutability": "nonpayable",
      "type": "function"
    },
    {
      "inputs": [
        {
          "internalType": "address",
          "name": "_token",
          "type": "address"
        },
        {
          "internalType": "uint256",
          "name": "_tokenId",
          "type": "uint256"
        }
      ],
      "name": "del721Fixswap",
      "outputs": [],
      "stateMutability": "nonpayable",
      "type": "function"
    },
    {
      "inputs": [],
      "name": "fixswap",
      "outputs": [
        {
          "internalType": "address",
          "name": "",
          "type": "address"
        }
      ],
      "stateMutability": "view",
      "type": "function"
    },
    {
      "inputs": [
        {
          "internalType": "address",
          "name": "_token",
          "type": "address"
        },
        {
          "internalType": "address",
          "name": "_creator",
          "type": "address"
        },
        {
          "internalType": "uint256",
          "name": "_tokenId",
          "type": "uint256"
        }
      ],
      "name": "get1155Auction",
      "outputs": [
        {
          "internalType": "uint256",
          "name": "",
          "type": "uint256"
        }
      ],
      "stateMutability": "view",
      "type": "function"
    },
    {
      "inputs": [
        {
          "internalType": "address",
          "name": "_token",
          "type": "address"
        },
        {
          "internalType": "address",
          "name": "_creator",
          "type": "address"
        },
        {
          "internalType": "uint256",
          "name": "_tokenId",
          "type": "uint256"
        }
      ],
      "name": "get1155Fixswap",
      "outputs": [
        {
          "internalType": "uint256",
          "name": "",
          "type": "uint256"
        }
      ],
      "stateMutability": "view",
      "type": "function"
    },
    {
      "inputs": [
        {
          "internalType": "address",
          "name": "_token",
          "type": "address"
        },
        {
          "internalType": "uint256",
          "name": "_tokenId",
          "type": "uint256"
        }
      ],
      "name": "get721Auction",
      "outputs": [
        {
          "internalType": "uint256",
          "name": "",
          "type": "uint256"
        }
      ],
      "stateMutability": "view",
      "type": "function"
    },
    {
      "inputs": [
        {
          "internalType": "address",
          "name": "_token",
          "type": "address"
        },
        {
          "internalType": "uint256",
          "name": "_tokenId",
          "type": "uint256"
        }
      ],
      "name": "get721Fixswap",
      "outputs": [
        {
          "internalType": "uint256",
          "name": "",
          "type": "uint256"
        }
      ],
      "stateMutability": "view",
      "type": "function"
    },
    {
      "inputs": [],
      "name": "governor",
      "outputs": [
        {
          "internalType": "address",
          "name": "",
          "type": "address"
        }
      ],
      "stateMutability": "view",
      "type": "function"
    },
    {
      "inputs": [
        {
          "internalType": "address",
          "name": "_governor",
          "type": "address"
        }
      ],
      "name": "initialize",
      "outputs": [],
      "stateMutability": "nonpayable",
      "type": "function"
    },
    {
      "inputs": [
        {
          "internalType": "address",
          "name": "_token",
          "type": "address"
        },
        {
          "internalType": "address",
          "name": "_creator",
          "type": "address"
        },
        {
          "internalType": "uint256",
          "name": "_tokenId",
          "type": "uint256"
        },
        {
          "internalType": "uint256",
          "name": "_poolId",
          "type": "uint256"
        }
      ],
      "name": "new1155Auction",
      "outputs": [],
      "stateMutability": "nonpayable",
      "type": "function"
    },
    {
      "inputs": [
        {
          "internalType": "address",
          "name": "_token",
          "type": "address"
        },
        {
          "internalType": "address",
          "name": "_creator",
          "type": "address"
        },
        {
          "internalType": "uint256",
          "name": "_tokenId",
          "type": "uint256"
        },
        {
          "internalType": "uint256",
          "name": "_poolId",
          "type": "uint256"
        }
      ],
      "name": "new1155Fixswap",
      "outputs": [],
      "stateMutability": "nonpayable",
      "type": "function"
    },
    {
      "inputs": [
        {
          "internalType": "address",
          "name": "_token",
          "type": "address"
        },
        {
          "internalType": "uint256",
          "name": "_tokenId",
          "type": "uint256"
        },
        {
          "internalType": "uint256",
          "name": "_poolId",
          "type": "uint256"
        }
      ],
      "name": "new721Auction",
      "outputs": [],
      "stateMutability": "nonpayable",
      "type": "function"
    },
    {
      "inputs": [
        {
          "internalType": "address",
          "name": "_token",
          "type": "address"
        },
        {
          "internalType": "uint256",
          "name": "_tokenId",
          "type": "uint256"
        },
        {
          "internalType": "uint256",
          "name": "_poolId",
          "type": "uint256"
        }
      ],
      "name": "new721Fixswap",
      "outputs": [],
      "stateMutability": "nonpayable",
      "type": "function"
    },
    {
      "inputs": [],
      "name": "renounceGovernorship",
      "outputs": [],
      "stateMutability": "nonpayable",
      "type": "function"
    },
    {
      "inputs": [
        {
          "internalType": "address",
          "name": "_auction",
          "type": "address"
        }
      ],
      "name": "setAuction",
      "outputs": [
        {
          "internalType": "bool",
          "name": "",
          "type": "bool"
        }
      ],
      "stateMutability": "nonpayable",
      "type": "function"
    },
    {
      "inputs": [
        {
          "internalType": "address",
          "name": "_fixswap",
          "type": "address"
        }
      ],
      "name": "setFixswap",
      "outputs": [
        {
          "internalType": "bool",
          "name": "",
          "type": "bool"
        }
      ],
      "stateMutability": "nonpayable",
      "type": "function"
    },
    {
      "inputs": [
        {
          "internalType": "address",
          "name": "newGovernor",
          "type": "address"
        }
      ],
      "name": "transferGovernorship",
      "outputs": [],
      "stateMutability": "nonpayable",
      "type": "function"
    }
  ],
  "bytecode": "0x608060405234801561001057600080fd5b50611dc6806100206000396000f3fe608060405234801561001057600080fd5b50600436106101585760003560e01c80637d9f6db5116100c3578063c4d66de81161007c578063c4d66de81461078b578063c762786c146107cf578063e80bb8cd14610831578063f5444c6714610893578063fde0220e1461090b578063ff24c9a21461098d57610158565b80637d9f6db5146105d557806381c0c2631461060957806389cf642b146106135780639619bb9f1461066b578063b6aa515b146106ed578063b8c6f5791461073157610158565b8063304c5f2211610115578063304c5f22146103a95780634091214c1461040b5780634af59452146104635780635bc15cad1461049757806363e2a847146105195780636f4839f61461058757610158565b80630c1fc8101461015d5780630c340a24146101ab578063163dcf97146101df57806328093586146102415780632bbbbc00146102c35780632fef1fef1461033b575b600080fd5b6101a96004803603604081101561017357600080fd5b81019080803573ffffffffffffffffffffffffffffffffffffffff169060200190929190803590602001909291905050506109e7565b005b6101b3610b02565b604051808273ffffffffffffffffffffffffffffffffffffffff16815260200191505060405180910390f35b61022b600480360360408110156101f557600080fd5b81019080803573ffffffffffffffffffffffffffffffffffffffff16906020019092919080359060200190929190505050610b28565b6040518082815260200191505060405180910390f35b6102ad6004803603606081101561025757600080fd5b81019080803573ffffffffffffffffffffffffffffffffffffffff169060200190929190803573ffffffffffffffffffffffffffffffffffffffff16906020019092919080359060200190929190505050610b83565b6040518082815260200191505060405180910390f35b610339600480360360808110156102d957600080fd5b81019080803573ffffffffffffffffffffffffffffffffffffffff169060200190929190803573ffffffffffffffffffffffffffffffffffffffff1690602001909291908035906020019092919080359060200190929190505050610c1c565b005b6103a76004803603606081101561035157600080fd5b81019080803573ffffffffffffffffffffffffffffffffffffffff169060200190929190803573ffffffffffffffffffffffffffffffffffffffff16906020019092919080359060200190929190505050610d77565b005b6103f5600480360360408110156103bf57600080fd5b81019080803573ffffffffffffffffffffffffffffffffffffffff16906020019092919080359060200190929190505050610ed0565b6040518082815260200191505060405180910390f35b6104616004803603606081101561042157600080fd5b81019080803573ffffffffffffffffffffffffffffffffffffffff1690602001909291908035906020019092919080359060200190929190505050610f2b565b005b61046b611048565b604051808273ffffffffffffffffffffffffffffffffffffffff16815260200191505060405180910390f35b610503600480360360608110156104ad57600080fd5b81019080803573ffffffffffffffffffffffffffffffffffffffff16906020019092919080359060200190929190803573ffffffffffffffffffffffffffffffffffffffff16906020019092919050505061106e565b6040518082815260200191505060405180910390f35b6105856004803603606081101561052f57600080fd5b81019080803573ffffffffffffffffffffffffffffffffffffffff169060200190929190803573ffffffffffffffffffffffffffffffffffffffff169060200190929190803590602001909291905050506110a0565b005b6105d36004803603604081101561059d57600080fd5b81019080803573ffffffffffffffffffffffffffffffffffffffff169060200190929190803590602001909291905050506111f9565b005b6105dd611314565b604051808273ffffffffffffffffffffffffffffffffffffffff16815260200191505060405180910390f35b61061161133a565b005b6106696004803603606081101561062957600080fd5b81019080803573ffffffffffffffffffffffffffffffffffffffff1690602001909291908035906020019092919080359060200190929190505050611455565b005b6106d76004803603606081101561068157600080fd5b81019080803573ffffffffffffffffffffffffffffffffffffffff169060200190929190803573ffffffffffffffffffffffffffffffffffffffff16906020019092919080359060200190929190505050611572565b6040518082815260200191505060405180910390f35b61072f6004803603602081101561070357600080fd5b81019080803573ffffffffffffffffffffffffffffffffffffffff16906020019092919050505061160b565b005b6107736004803603602081101561074757600080fd5b81019080803573ffffffffffffffffffffffffffffffffffffffff169060200190929190505050611671565b60405180821515815260200191505060405180910390f35b6107cd600480360360208110156107a157600080fd5b81019080803573ffffffffffffffffffffffffffffffffffffffff169060200190929190505050611713565b005b61081b600480360360408110156107e557600080fd5b81019080803573ffffffffffffffffffffffffffffffffffffffff1690602001909291908035906020019092919050505061181b565b6040518082815260200191505060405180910390f35b61087d6004803603604081101561084757600080fd5b81019080803573ffffffffffffffffffffffffffffffffffffffff16906020019092919080359060200190929190505050611840565b6040518082815260200191505060405180910390f35b610909600480360360808110156108a957600080fd5b81019080803573ffffffffffffffffffffffffffffffffffffffff169060200190929190803573ffffffffffffffffffffffffffffffffffffffff1690602001909291908035906020019092919080359060200190929190505050611865565b005b6109776004803603606081101561092157600080fd5b81019080803573ffffffffffffffffffffffffffffffffffffffff16906020019092919080359060200190929190803573ffffffffffffffffffffffffffffffffffffffff1690602001909291905050506119c0565b6040518082815260200191505060405180910390f35b6109cf600480360360208110156109a357600080fd5b81019080803573ffffffffffffffffffffffffffffffffffffffff1690602001909291905050506119f2565b60405180821515815260200191505060405180910390f35b603860009054906101000a900473ffffffffffffffffffffffffffffffffffffffff1673ffffffffffffffffffffffffffffffffffffffff163373ffffffffffffffffffffffffffffffffffffffff1614610aaa576040517f08c379a000000000000000000000000000000000000000000000000000000000815260040180806020018281038252600c8152602001807f6f6e6c792061756374696f6e000000000000000000000000000000000000000081525060200191505060405180910390fd5b603460008373ffffffffffffffffffffffffffffffffffffffff1673ffffffffffffffffffffffffffffffffffffffff1681526020019081526020016000206000828152602001908152602001600020600090555050565b603360009054906101000a900473ffffffffffffffffffffffffffffffffffffffff1681565b6000603560008473ffffffffffffffffffffffffffffffffffffffff1673ffffffffffffffffffffffffffffffffffffffff168152602001908152602001600020600083815260200190815260200160002054905092915050565b6000603660008573ffffffffffffffffffffffffffffffffffffffff1673ffffffffffffffffffffffffffffffffffffffff168152602001908152602001600020600083815260200190815260200160002060008473ffffffffffffffffffffffffffffffffffffffff1673ffffffffffffffffffffffffffffffffffffffff1681526020019081526020016000205490509392505050565b603860009054906101000a900473ffffffffffffffffffffffffffffffffffffffff1673ffffffffffffffffffffffffffffffffffffffff163373ffffffffffffffffffffffffffffffffffffffff1614610cdf576040517f08c379a000000000000000000000000000000000000000000000000000000000815260040180806020018281038252600c8152602001807f6f6e6c792061756374696f6e000000000000000000000000000000000000000081525060200191505060405180910390fd5b80603660008673ffffffffffffffffffffffffffffffffffffffff1673ffffffffffffffffffffffffffffffffffffffff168152602001908152602001600020600084815260200190815260200160002060008573ffffffffffffffffffffffffffffffffffffffff1673ffffffffffffffffffffffffffffffffffffffff1681526020019081526020016000208190555050505050565b603960009054906101000a900473ffffffffffffffffffffffffffffffffffffffff1673ffffffffffffffffffffffffffffffffffffffff163373ffffffffffffffffffffffffffffffffffffffff1614610e3a576040517f08c379a000000000000000000000000000000000000000000000000000000000815260040180806020018281038252600c8152602001807f6f6e6c792061756374696f6e000000000000000000000000000000000000000081525060200191505060405180910390fd5b603760008473ffffffffffffffffffffffffffffffffffffffff1673ffffffffffffffffffffffffffffffffffffffff168152602001908152602001600020600082815260200190815260200160002060008373ffffffffffffffffffffffffffffffffffffffff1673ffffffffffffffffffffffffffffffffffffffff16815260200190815260200160002060009055505050565b6000603460008473ffffffffffffffffffffffffffffffffffffffff1673ffffffffffffffffffffffffffffffffffffffff168152602001908152602001600020600083815260200190815260200160002054905092915050565b603960009054906101000a900473ffffffffffffffffffffffffffffffffffffffff1673ffffffffffffffffffffffffffffffffffffffff163373ffffffffffffffffffffffffffffffffffffffff1614610fee576040517f08c379a000000000000000000000000000000000000000000000000000000000815260040180806020018281038252600c8152602001807f6f6e6c792061756374696f6e000000000000000000000000000000000000000081525060200191505060405180910390fd5b80603560008573ffffffffffffffffffffffffffffffffffffffff1673ffffffffffffffffffffffffffffffffffffffff168152602001908152602001600020600084815260200190815260200160002081905550505050565b603960009054906101000a900473ffffffffffffffffffffffffffffffffffffffff1681565b603660205282600052604060002060205281600052604060002060205280600052604060002060009250925050505481565b603860009054906101000a900473ffffffffffffffffffffffffffffffffffffffff1673ffffffffffffffffffffffffffffffffffffffff163373ffffffffffffffffffffffffffffffffffffffff1614611163576040517f08c379a000000000000000000000000000000000000000000000000000000000815260040180806020018281038252600c8152602001807f6f6e6c792061756374696f6e000000000000000000000000000000000000000081525060200191505060405180910390fd5b603660008473ffffffffffffffffffffffffffffffffffffffff1673ffffffffffffffffffffffffffffffffffffffff168152602001908152602001600020600082815260200190815260200160002060008373ffffffffffffffffffffffffffffffffffffffff1673ffffffffffffffffffffffffffffffffffffffff16815260200190815260200160002060009055505050565b603960009054906101000a900473ffffffffffffffffffffffffffffffffffffffff1673ffffffffffffffffffffffffffffffffffffffff163373ffffffffffffffffffffffffffffffffffffffff16146112bc576040517f08c379a000000000000000000000000000000000000000000000000000000000815260040180806020018281038252600c8152602001807f6f6e6c792061756374696f6e000000000000000000000000000000000000000081525060200191505060405180910390fd5b603560008373ffffffffffffffffffffffffffffffffffffffff1673ffffffffffffffffffffffffffffffffffffffff1681526020019081526020016000206000828152602001908152602001600020600090555050565b603860009054906101000a900473ffffffffffffffffffffffffffffffffffffffff1681565b603360009054906101000a900473ffffffffffffffffffffffffffffffffffffffff1673ffffffffffffffffffffffffffffffffffffffff163373ffffffffffffffffffffffffffffffffffffffff161461139457600080fd5b600073ffffffffffffffffffffffffffffffffffffffff16603360009054906101000a900473ffffffffffffffffffffffffffffffffffffffff1673ffffffffffffffffffffffffffffffffffffffff167fc7c0c772add429241571afb3805861fb3cfa2af374534088b76cdb4325a87e9a60405160405180910390a36000603360006101000a81548173ffffffffffffffffffffffffffffffffffffffff021916908373ffffffffffffffffffffffffffffffffffffffff160217905550565b603860009054906101000a900473ffffffffffffffffffffffffffffffffffffffff1673ffffffffffffffffffffffffffffffffffffffff163373ffffffffffffffffffffffffffffffffffffffff1614611518576040517f08c379a000000000000000000000000000000000000000000000000000000000815260040180806020018281038252600c8152602001807f6f6e6c792061756374696f6e000000000000000000000000000000000000000081525060200191505060405180910390fd5b80603460008573ffffffffffffffffffffffffffffffffffffffff1673ffffffffffffffffffffffffffffffffffffffff168152602001908152602001600020600084815260200190815260200160002081905550505050565b6000603760008573ffffffffffffffffffffffffffffffffffffffff1673ffffffffffffffffffffffffffffffffffffffff168152602001908152602001600020600083815260200190815260200160002060008473ffffffffffffffffffffffffffffffffffffffff1673ffffffffffffffffffffffffffffffffffffffff1681526020019081526020016000205490509392505050565b603360009054906101000a900473ffffffffffffffffffffffffffffffffffffffff1673ffffffffffffffffffffffffffffffffffffffff163373ffffffffffffffffffffffffffffffffffffffff161461166557600080fd5b61166e81611a94565b50565b6000603360009054906101000a900473ffffffffffffffffffffffffffffffffffffffff1673ffffffffffffffffffffffffffffffffffffffff163373ffffffffffffffffffffffffffffffffffffffff16146116cd57600080fd5b81603860006101000a81548173ffffffffffffffffffffffffffffffffffffffff021916908373ffffffffffffffffffffffffffffffffffffffff160217905550919050565b600060019054906101000a900460ff16806117325750611731611b8e565b5b80611748575060008054906101000a900460ff16155b61179d576040517f08c379a000000000000000000000000000000000000000000000000000000000815260040180806020018281038252602e815260200180611d63602e913960400191505060405180910390fd5b60008060019054906101000a900460ff1615905080156117ed576001600060016101000a81548160ff02191690831515021790555060016000806101000a81548160ff0219169083151502179055505b6117f682611ba5565b80156118175760008060016101000a81548160ff0219169083151502179055505b5050565b6035602052816000526040600020602052806000526040600020600091509150505481565b6034602052816000526040600020602052806000526040600020600091509150505481565b603960009054906101000a900473ffffffffffffffffffffffffffffffffffffffff1673ffffffffffffffffffffffffffffffffffffffff163373ffffffffffffffffffffffffffffffffffffffff1614611928576040517f08c379a000000000000000000000000000000000000000000000000000000000815260040180806020018281038252600c8152602001807f6f6e6c792061756374696f6e000000000000000000000000000000000000000081525060200191505060405180910390fd5b80603760008673ffffffffffffffffffffffffffffffffffffffff1673ffffffffffffffffffffffffffffffffffffffff168152602001908152602001600020600084815260200190815260200160002060008573ffffffffffffffffffffffffffffffffffffffff1673ffffffffffffffffffffffffffffffffffffffff1681526020019081526020016000208190555050505050565b603760205282600052604060002060205281600052604060002060205280600052604060002060009250925050505481565b6000603360009054906101000a900473ffffffffffffffffffffffffffffffffffffffff1673ffffffffffffffffffffffffffffffffffffffff163373ffffffffffffffffffffffffffffffffffffffff1614611a4e57600080fd5b81603960006101000a81548173ffffffffffffffffffffffffffffffffffffffff021916908373ffffffffffffffffffffffffffffffffffffffff160217905550919050565b600073ffffffffffffffffffffffffffffffffffffffff168173ffffffffffffffffffffffffffffffffffffffff161415611ace57600080fd5b8073ffffffffffffffffffffffffffffffffffffffff16603360009054906101000a900473ffffffffffffffffffffffffffffffffffffffff1673ffffffffffffffffffffffffffffffffffffffff167fc7c0c772add429241571afb3805861fb3cfa2af374534088b76cdb4325a87e9a60405160405180910390a380603360006101000a81548173ffffffffffffffffffffffffffffffffffffffff021916908373ffffffffffffffffffffffffffffffffffffffff16021790555050565b6000803090506000813b9050600081149250505090565b600060019054906101000a900460ff1680611bc45750611bc3611b8e565b5b80611bda575060008054906101000a900460ff16155b611c2f576040517f08c379a000000000000000000000000000000000000000000000000000000000815260040180806020018281038252602e815260200180611d63602e913960400191505060405180910390fd5b60008060019054906101000a900460ff161590508015611c7f576001600060016101000a81548160ff02191690831515021790555060016000806101000a81548160ff0219169083151502179055505b81603360006101000a81548173ffffffffffffffffffffffffffffffffffffffff021916908373ffffffffffffffffffffffffffffffffffffffff160217905550603360009054906101000a900473ffffffffffffffffffffffffffffffffffffffff1673ffffffffffffffffffffffffffffffffffffffff16600073ffffffffffffffffffffffffffffffffffffffff167fc7c0c772add429241571afb3805861fb3cfa2af374534088b76cdb4325a87e9a60405160405180910390a38015611d5e5760008060016101000a81548160ff0219169083151502179055505b505056fe436f6e747261637420696e7374616e63652068617320616c7265616479206265656e20696e697469616c697a6564a26469706673582212201a1631880c2562f2bb9a080f1554a1ad457939ea8e71e237459fb0f1007a47eb64736f6c634300060c0033",
  "compiler": {
    "name": "solc",
    "version": "0.6.12+commit.27d51765.Emscripten.clang",
    "optimizer": {
      "enabled": false,
      "runs": 200
    },
    "evmVersion": "petersburg"
  }
}