{
  "_format": "hh-sol-artifact-1",
  "contractName": "VaultReward",
  "sourceName": "contracts/VaultReward.sol",
  "abi": [
    {
      "anonymous": false,
      "inputs": [
        {
          "indexed": true,
          "internalType": "address",
          "name": "user",
          "type": "address"
        },
        {
          "indexed": false,
          "internalType": "address[]",
          "name": "tokens",
          "type": "address[]"
        },
        {
          "indexed": false,
          "internalType": "uint256[]",
          "name": "rewardAmounts",
          "type": "uint256[]"
        }
      ],
      "name": "Claimed",
      "type": "event"
    },
    {
      "anonymous": false,
      "inputs": [
        {
          "indexed": true,
          "internalType": "address",
          "name": "previousGovernor",
          "type": "address"
        },
        {
          "indexed": true,
          "internalType": "address",
          "name": "newGovernor",
          "type": "address"
        }
      ],
      "name": "GovernorshipTransferred",
      "type": "event"
    },
    {
      "inputs": [
        {
          "internalType": "uint256",
          "name": "_nonce",
          "type": "uint256"
        },
        {
          "internalType": "bytes",
          "name": "_signature",
          "type": "bytes"
        },
        {
          "internalType": "address[]",
          "name": "tokens",
          "type": "address[]"
        },
        {
          "internalType": "uint256[]",
          "name": "rewardAmounts",
          "type": "uint256[]"
        }
      ],
      "name": "claim",
      "outputs": [],
      "stateMutability": "nonpayable",
      "type": "function"
    },
    {
      "inputs": [
        {
          "internalType": "bytes32",
          "name": "key",
          "type": "bytes32"
        },
        {
          "internalType": "address",
          "name": "addr",
          "type": "address"
        }
      ],
      "name": "getConfig",
      "outputs": [
        {
          "internalType": "uint256",
          "name": "",
          "type": "uint256"
        }
      ],
      "stateMutability": "view",
      "type": "function"
    },
    {
      "inputs": [
        {
          "internalType": "bytes32",
          "name": "key",
          "type": "bytes32"
        }
      ],
      "name": "getConfig",
      "outputs": [
        {
          "internalType": "uint256",
          "name": "",
          "type": "uint256"
        }
      ],
      "stateMutability": "view",
      "type": "function"
    },
    {
      "inputs": [
        {
          "internalType": "bytes32",
          "name": "key",
          "type": "bytes32"
        },
        {
          "internalType": "uint256",
          "name": "index",
          "type": "uint256"
        }
      ],
      "name": "getConfig",
      "outputs": [
        {
          "internalType": "uint256",
          "name": "",
          "type": "uint256"
        }
      ],
      "stateMutability": "view",
      "type": "function"
    },
    {
      "inputs": [],
      "name": "getSigner",
      "outputs": [
        {
          "internalType": "address",
          "name": "",
          "type": "address"
        }
      ],
      "stateMutability": "nonpayable",
      "type": "function"
    },
    {
      "inputs": [
        {
          "internalType": "address",
          "name": "user",
          "type": "address"
        },
        {
          "internalType": "address",
          "name": "token",
          "type": "address"
        }
      ],
      "name": "getUserClaimed",
      "outputs": [
        {
          "internalType": "uint256",
          "name": "",
          "type": "uint256"
        }
      ],
      "stateMutability": "view",
      "type": "function"
    },
    {
      "inputs": [],
      "name": "governor",
      "outputs": [
        {
          "internalType": "address",
          "name": "",
          "type": "address"
        }
      ],
      "stateMutability": "view",
      "type": "function"
    },
    {
      "inputs": [
        {
          "internalType": "address",
          "name": "_governor",
          "type": "address"
        }
      ],
      "name": "initialize",
      "outputs": [],
      "stateMutability": "nonpayable",
      "type": "function"
    },
    {
      "inputs": [],
      "name": "renounceGovernorship",
      "outputs": [],
      "stateMutability": "nonpayable",
      "type": "function"
    },
    {
      "inputs": [
        {
          "internalType": "address[]",
          "name": "tokens",
          "type": "address[]"
        },
        {
          "internalType": "uint256[]",
          "name": "amounts",
          "type": "uint256[]"
        },
        {
          "internalType": "address",
          "name": "to",
          "type": "address"
        }
      ],
      "name": "retrieveToken",
      "outputs": [],
      "stateMutability": "nonpayable",
      "type": "function"
    },
    {
      "inputs": [
        {
          "internalType": "bytes32",
          "name": "key",
          "type": "bytes32"
        },
        {
          "internalType": "uint256",
          "name": "value",
          "type": "uint256"
        }
      ],
      "name": "setConfig",
      "outputs": [],
      "stateMutability": "nonpayable",
      "type": "function"
    },
    {
      "inputs": [
        {
          "internalType": "bytes32",
          "name": "key",
          "type": "bytes32"
        },
        {
          "internalType": "address",
          "name": "addr",
          "type": "address"
        },
        {
          "internalType": "uint256",
          "name": "value",
          "type": "uint256"
        }
      ],
      "name": "setConfig",
      "outputs": [],
      "stateMutability": "nonpayable",
      "type": "function"
    },
    {
      "inputs": [
        {
          "internalType": "bytes32",
          "name": "key",
          "type": "bytes32"
        },
        {
          "internalType": "uint256",
          "name": "index",
          "type": "uint256"
        },
        {
          "internalType": "uint256",
          "name": "value",
          "type": "uint256"
        }
      ],
      "name": "setConfig",
      "outputs": [],
      "stateMutability": "nonpayable",
      "type": "function"
    },
    {
      "inputs": [
        {
          "internalType": "address",
          "name": "_signer",
          "type": "address"
        }
      ],
      "name": "setSigner",
      "outputs": [
        {
          "internalType": "bool",
          "name": "",
          "type": "bool"
        }
      ],
      "stateMutability": "nonpayable",
      "type": "function"
    },
    {
      "inputs": [],
      "name": "signer",
      "outputs": [
        {
          "internalType": "address",
          "name": "",
          "type": "address"
        }
      ],
      "stateMutability": "view",
      "type": "function"
    },
    {
      "inputs": [
        {
          "internalType": "bytes",
          "name": "sig",
          "type": "bytes"
        }
      ],
      "name": "splitSignature",
      "outputs": [
        {
          "internalType": "bytes32",
          "name": "r",
          "type": "bytes32"
        },
        {
          "internalType": "bytes32",
          "name": "s",
          "type": "bytes32"
        },
        {
          "internalType": "uint8",
          "name": "v",
          "type": "uint8"
        }
      ],
      "stateMutability": "pure",
      "type": "function"
    },
    {
      "inputs": [
        {
          "internalType": "address",
          "name": "newGovernor",
          "type": "address"
        }
      ],
      "name": "transferGovernorship",
      "outputs": [],
      "stateMutability": "nonpayable",
      "type": "function"
    },
    {
      "inputs": [
        {
          "internalType": "address",
          "name": "",
          "type": "address"
        },
        {
          "internalType": "address",
          "name": "",
          "type": "address"
        }
      ],
      "name": "userClaimed",
      "outputs": [
        {
          "internalType": "uint256",
          "name": "",
          "type": "uint256"
        }
      ],
      "stateMutability": "view",
      "type": "function"
    },
    {
      "inputs": [
        {
          "internalType": "address",
          "name": "_signer",
          "type": "address"
        },
        {
          "internalType": "address",
          "name": "_to",
          "type": "address"
        },
        {
          "internalType": "uint256",
          "name": "_nonce",
          "type": "uint256"
        },
        {
          "internalType": "address",
          "name": "VRAddress",
          "type": "address"
        },
        {
          "internalType": "bytes",
          "name": "signature",
          "type": "bytes"
        },
        {
          "internalType": "address[]",
          "name": "tokens",
          "type": "address[]"
        },
        {
          "internalType": "uint256[]",
          "name": "rewardAmounts",
          "type": "uint256[]"
        }
      ],
      "name": "verify",
      "outputs": [
        {
          "internalType": "address",
          "name": "",
          "type": "address"
        }
      ],
      "stateMutability": "pure",
      "type": "function"
    }
  ],
  "bytecode": "0x608060405234801561001057600080fd5b50611703806100206000396000f3fe608060405234801561001057600080fd5b506004361061013e576000357c0100000000000000000000000000000000000000000000000000000000900480636dd5b69d116100ca578063b21544f31161008e578063b21544f314610262578063b6aa515b14610275578063c4d66de814610288578063d6a57e671461029b578063ddf2be3f146102ae5761013e565b80636dd5b69d1461020a5780637ac3c02f1461021d57806381c0c263146102255780638ec872e31461022d578063a7bb5803146102405761013e565b806323c4b4231161011157806323c4b42314610191578063289b2df1146101b15780634cf1e1fa146101c457806352665f47146101d75780636c19e783146101ea5761013e565b80630c340a24146101435780630da348801461016157806315fe96dc14610174578063238ac93314610189575b600080fd5b61014b6102c1565b6040516101589190611224565b60405180910390f35b61014b61016f366004610e6b565b6102d0565b610187610182366004611040565b610378565b005b61014b61039d565b6101a461019f366004610e37565b6103ac565b6040516101589190611638565b6101a46101bf366004610e37565b6103d9565b6101876101d23660046110c7565b6103f6565b6101a46101e5366004610fdc565b61066d565b6101fd6101f8366004610e1c565b610689565b60405161015891906112df565b6101a4610218366004610fc4565b6106d5565b61014b6106e7565b610187610711565b6101a461023b366004611040565b61077f565b61025361024e36600461108c565b610792565b604051610158939291906112ea565b61018761027036600461100b565b6107d9565b610187610283366004610e1c565b61080a565b610187610296366004610e1c565b61082d565b6101876102a9366004610f2f565b610931565b6101876102bc366004611061565b6109ac565b603354600160a060020a031681565b60008087878786866040516020016102ec95949392919061116a565b604051602081830303815290604052805190602001209050600080600061031288610792565b9250925092506001848285856040516000815260200160405260405161033b9493929190611303565b6020604051602081039080840390855afa15801561035d573d6000803e3d6000fd5b5050604051601f1901519d9c50505050505050505050505050565b603354600160a060020a0316331461038f57600080fd5b61039982826109cb565b5050565b603654600160a060020a031681565b600160a060020a038083166000908152603760209081526040808320938516835292905220545b92915050565b603760209081526000928352604080842090915290825290205481565b600260355414156104255760405160e560020a62461bcd02815260040161041c90611601565b60405180910390fd5b600260355560365460009061044890600160a060020a03163387308888886102d0565b603654909150600160a060020a0380831691161461047b5760405160e560020a62461bcd02815260040161041c90611354565b815183511461049f5760405160e560020a62461bcd02815260040161041c9061147c565b825160005b8181101561061c5733600090815260376020526040812086519091908790849081106104cc57fe5b6020026020010151600160a060020a0316600160a060020a031681526020019081526020016000205484828151811061050157fe5b60200260200101511115610614573360009081526037602052604081208651829088908590811061052e57fe5b6020026020010151600160a060020a0316600160a060020a031681526020019081526020016000205485838151811061056357fe5b602002602001015103905084828151811061057a57fe5b60200260200101516037600033600160a060020a0316600160a060020a0316815260200190815260200160002060008885815181106105b557fe5b6020026020010151600160a060020a0316600160a060020a031681526020019081526020016000208190555061061233828885815181106105f257fe5b6020026020010151600160a060020a03166109f29092919063ffffffff16565b505b6001016104a4565b5033600160a060020a03167f3f7cf851632b1a75cb709256fe77c4716c909947f7fb4cfdf1833253ed647f798585604051610658929190611251565b60405180910390a25050600160355550505050565b600160a060020a03161860009081526034602052604090205490565b603354600090600160a060020a031633146106a357600080fd5b5060368054600160a060020a03831673ffffffffffffffffffffffffffffffffffffffff199091161790556001919050565b60009081526034602052604090205490565b603354600090600160a060020a0316331461070157600080fd5b50603654600160a060020a031690565b603354600160a060020a0316331461072857600080fd5b603354604051600091600160a060020a0316907fc7c0c772add429241571afb3805861fb3cfa2af374534088b76cdb4325a87e9a908390a36033805473ffffffffffffffffffffffffffffffffffffffff19169055565b1860009081526034602052604090205490565b600080600083516041146107bb5760405160e560020a62461bcd02815260040161041c9061156d565b50505060208101516040820151606090920151909260009190911a90565b603354600160a060020a031633146107f057600080fd5b610805600160a060020a0383168418826109cb565b505050565b603354600160a060020a0316331461082157600080fd5b61082a81610a91565b50565b600054610100900460ff16806108465750610846610b0d565b80610854575060005460ff16155b6108735760405160e560020a62461bcd02815260040161041c906114d9565b600054610100900460ff1615801561089e576000805460ff1961ff0019909116610100171660011790555b603354600160a060020a03163314806108c05750603354600160a060020a0316155b6108df5760405160e560020a62461bcd02815260040161041c9061138b565b60338054600160a060020a03841673ffffffffffffffffffffffffffffffffffffffff19918216811790925560368054909116909117905560016035558015610399576000805461ff00191690555050565b603354600160a060020a0316331461094857600080fd5b815183511461096c5760405160e560020a62461bcd02815260040161041c9061141f565b825160005b818110156109a55761099d8385838151811061098957fe5b60200260200101518784815181106105f257fe5b600101610971565b5050505050565b603354600160a060020a031633146109c357600080fd5b610805838318825b60008281526034602052604090205481146103995760009182526034602052604090912055565b6108058363a9059cbb7c0100000000000000000000000000000000000000000000000000000000028484604051602401610a2d929190611238565b60408051601f198184030181529190526020810180517bffffffffffffffffffffffffffffffffffffffffffffffffffffffff167fffffffff0000000000000000000000000000000000000000000000000000000090931692909217909152610b13565b600160a060020a038116610aa457600080fd5b603354604051600160a060020a038084169216907fc7c0c772add429241571afb3805861fb3cfa2af374534088b76cdb4325a87e9a90600090a36033805473ffffffffffffffffffffffffffffffffffffffff1916600160a060020a0392909216919091179055565b303b1590565b6060610b68826040518060400160405280602081526020017f5361666545524332303a206c6f772d6c6576656c2063616c6c206661696c656481525085600160a060020a0316610ba59092919063ffffffff16565b8051909150156108055780806020019051810190610b869190610fa4565b6108055760405160e560020a62461bcd02815260040161041c906115a4565b6060610bb48484600085610bbe565b90505b9392505050565b60603031831115610be45760405160e560020a62461bcd02815260040161041c906113c2565b610bed85610c86565b610c0c5760405160e560020a62461bcd02815260040161041c90611536565b6000606086600160a060020a03168587604051610c299190611208565b60006040518083038185875af1925050503d8060008114610c66576040519150601f19603f3d011682016040523d82523d6000602084013e610c6b565b606091505b5091509150610c7b828286610c8c565b979650505050505050565b3b151590565b60608315610c9b575081610bb7565b825115610cab5782518084602001fd5b8160405160e560020a62461bcd02815260040161041c9190611321565b8035600160a060020a03811681146103d357600080fd5b600082601f830112610cef578081fd5b8135610d02610cfd82611668565b611641565b818152915060208083019084810181840286018201871015610d2357600080fd5b60005b84811015610d4a57610d388883610cc8565b84529282019290820190600101610d26565b505050505092915050565b600082601f830112610d65578081fd5b8135610d73610cfd82611668565b818152915060208083019084810181840286018201871015610d9457600080fd5b60005b84811015610d4a57813584529282019290820190600101610d97565b600082601f830112610dc3578081fd5b813567ffffffffffffffff811115610dd9578182fd5b610dec601f8201601f1916602001611641565b9150808252836020828501011115610e0357600080fd5b8060208401602084013760009082016020015292915050565b600060208284031215610e2d578081fd5b610bb78383610cc8565b60008060408385031215610e49578081fd5b610e538484610cc8565b9150610e628460208501610cc8565b90509250929050565b600080600080600080600060e0888a031215610e85578283fd5b8735610e90816116b8565b9650610e9f8960208a01610cc8565b955060408801359450610eb58960608a01610cc8565b9350608088013567ffffffffffffffff80821115610ed1578485fd5b610edd8b838c01610db3565b945060a08a0135915080821115610ef2578384fd5b610efe8b838c01610cdf565b935060c08a0135915080821115610f13578283fd5b50610f208a828b01610d55565b91505092959891949750929550565b600080600060608486031215610f43578283fd5b833567ffffffffffffffff80821115610f5a578485fd5b610f6687838801610cdf565b94506020860135915080821115610f7b578384fd5b50610f8886828701610d55565b9250506040840135610f99816116b8565b809150509250925092565b600060208284031215610fb5578081fd5b81518015158114610bb7578182fd5b600060208284031215610fd5578081fd5b5035919050565b60008060408385031215610fee578182fd5b823591506020830135611000816116b8565b809150509250929050565b60008060006060848603121561101f578283fd5b833592506110308560208601610cc8565b9150604084013590509250925092565b60008060408385031215611052578182fd5b50508035926020909101359150565b600080600060608486031215611075578283fd5b505081359360208301359350604090920135919050565b60006020828403121561109d578081fd5b813567ffffffffffffffff8111156110b3578182fd5b6110bf84828501610db3565b949350505050565b600080600080608085870312156110dc578384fd5b84359350602085013567ffffffffffffffff808211156110fa578485fd5b61110688838901610db3565b9450604087013591508082111561111b578384fd5b61112788838901610cdf565b9350606087013591508082111561113c578283fd5b5061114987828801610d55565b91505092959194509250565b815260200190565b600160a060020a03169052565b60006c01000000000000000000000000600160a060020a0381818a160284528760148501528181881602603485015250506048820184516020808701845b838110156111cb576111bb85835161115d565b93820193908201906001016111a8565b50508551818701939250845b818110156111f8576111ea848651611155565b9483019493506001016111d7565b50919a9950505050505050505050565b6000825161121a818460208701611688565b9190910192915050565b600160a060020a0391909116815260200190565b600160a060020a03929092168252602082015260400190565b604080825283519082018190526000906020906060840190828701845b828110156112915761128184835161115d565b928401929084019060010161126e565b505050838103828501528085516112a88184611638565b91508387019250845b818110156112d2576112c4838551611155565b9385019392506001016112b1565b5090979650505050505050565b901515815260200190565b928352602083019190915260ff16604082015260600190565b93845260ff9290921660208401526040830152606082015260800190565b6000602082528251806020840152611340816040850160208701611688565b601f01601f19169190910160400192915050565b60208082526011908201527f696e76616c6964207369676e6174757265000000000000000000000000000000604082015260600190565b60208082526010908201527f696e76616c696420676f7665726e6f7200000000000000000000000000000000604082015260600190565b60208082526026908201527f416464726573733a20696e73756666696369656e742062616c616e636520666f60408201527f722063616c6c0000000000000000000000000000000000000000000000000000606082015260800190565b60208082526021908201527f746f6b656e73202620616d6f756e7473206c656e67746820646966666572656e60408201527f7400000000000000000000000000000000000000000000000000000000000000606082015260800190565b60208082526027908201527f746f6b656e73202620726577617264416d6f756e7473206c656e67746820646960408201527f66666572656e7400000000000000000000000000000000000000000000000000606082015260800190565b6020808252602e908201527f436f6e747261637420696e7374616e63652068617320616c726561647920626560408201527f656e20696e697469616c697a6564000000000000000000000000000000000000606082015260800190565b6020808252601d908201527f416464726573733a2063616c6c20746f206e6f6e2d636f6e7472616374000000604082015260600190565b60208082526018908201527f696e76616c6964207369676e6174757265206c656e6774680000000000000000604082015260600190565b6020808252602a908201527f5361666545524332303a204552433230206f7065726174696f6e20646964206e60408201527f6f74207375636365656400000000000000000000000000000000000000000000606082015260800190565b6020808252601f908201527f5265656e7472616e637947756172643a207265656e7472616e742063616c6c00604082015260600190565b90815260200190565b60405181810167ffffffffffffffff8111828210171561166057600080fd5b604052919050565b600067ffffffffffffffff82111561167e578081fd5b5060209081020190565b60005b838110156116a357818101518382015260200161168b565b838111156116b2576000848401525b50505050565b600160a060020a038116811461082a57600080fdfea2646970667358221220cee2ab8ec5ed71817c56d86e198196fb35f404bfd9ccac3774ce4fac08de542264736f6c634300060c0033",
  "linkReferences": {},
  "deployedLinkReferences": {}
}