{
  "contractName": "DFA721NFT",
  "abi": [
    {
      "inputs": [
        {
          "internalType": "string",
          "name": "name",
          "type": "string"
        },
        {
          "internalType": "string",
          "name": "symbol",
          "type": "string"
        },
        {
          "internalType": "string",
          "name": "baseURI",
          "type": "string"
        }
      ],
      "stateMutability": "nonpayable",
      "type": "constructor"
    },
    {
      "anonymous": false,
      "inputs": [
        {
          "indexed": true,
          "internalType": "address",
          "name": "owner",
          "type": "address"
        },
        {
          "indexed": true,
          "internalType": "address",
          "name": "approved",
          "type": "address"
        },
        {
          "indexed": true,
          "internalType": "uint256",
          "name": "tokenId",
          "type": "uint256"
        }
      ],
      "name": "Approval",
      "type": "event"
    },
    {
      "anonymous": false,
      "inputs": [
        {
          "indexed": true,
          "internalType": "address",
          "name": "owner",
          "type": "address"
        },
        {
          "indexed": true,
          "internalType": "address",
          "name": "operator",
          "type": "address"
        },
        {
          "indexed": false,
          "internalType": "bool",
          "name": "approved",
          "type": "bool"
        }
      ],
      "name": "ApprovalForAll",
      "type": "event"
    },
    {
      "anonymous": false,
      "inputs": [
        {
          "indexed": true,
          "internalType": "address",
          "name": "previousGovernor",
          "type": "address"
        },
        {
          "indexed": true,
          "internalType": "address",
          "name": "newGovernor",
          "type": "address"
        }
      ],
      "name": "GovernorshipTransferred",
      "type": "event"
    },
    {
      "anonymous": false,
      "inputs": [
        {
          "indexed": true,
          "internalType": "address",
          "name": "owner",
          "type": "address"
        },
        {
          "indexed": true,
          "internalType": "uint256",
          "name": "tokenId",
          "type": "uint256"
        }
      ],
      "name": "Mint",
      "type": "event"
    },
    {
      "anonymous": false,
      "inputs": [
        {
          "indexed": true,
          "internalType": "address",
          "name": "from",
          "type": "address"
        },
        {
          "indexed": true,
          "internalType": "address",
          "name": "to",
          "type": "address"
        },
        {
          "indexed": true,
          "internalType": "uint256",
          "name": "tokenId",
          "type": "uint256"
        }
      ],
      "name": "Transfer",
      "type": "event"
    },
    {
      "inputs": [
        {
          "internalType": "address",
          "name": "to",
          "type": "address"
        },
        {
          "internalType": "uint256",
          "name": "tokenId",
          "type": "uint256"
        }
      ],
      "name": "approve",
      "outputs": [],
      "stateMutability": "nonpayable",
      "type": "function"
    },
    {
      "inputs": [
        {
          "internalType": "address",
          "name": "",
          "type": "address"
        }
      ],
      "name": "artist",
      "outputs": [
        {
          "internalType": "bool",
          "name": "",
          "type": "bool"
        }
      ],
      "stateMutability": "view",
      "type": "function"
    },
    {
      "inputs": [
        {
          "internalType": "address",
          "name": "owner",
          "type": "address"
        }
      ],
      "name": "balanceOf",
      "outputs": [
        {
          "internalType": "uint256",
          "name": "",
          "type": "uint256"
        }
      ],
      "stateMutability": "view",
      "type": "function"
    },
    {
      "inputs": [],
      "name": "baseURI",
      "outputs": [
        {
          "internalType": "string",
          "name": "",
          "type": "string"
        }
      ],
      "stateMutability": "view",
      "type": "function"
    },
    {
      "inputs": [
        {
          "internalType": "uint256",
          "name": "tokenId",
          "type": "uint256"
        }
      ],
      "name": "getApproved",
      "outputs": [
        {
          "internalType": "address",
          "name": "",
          "type": "address"
        }
      ],
      "stateMutability": "view",
      "type": "function"
    },
    {
      "inputs": [],
      "name": "governor",
      "outputs": [
        {
          "internalType": "address",
          "name": "",
          "type": "address"
        }
      ],
      "stateMutability": "view",
      "type": "function"
    },
    {
      "inputs": [
        {
          "internalType": "address",
          "name": "governor_",
          "type": "address"
        }
      ],
      "name": "initialize",
      "outputs": [],
      "stateMutability": "nonpayable",
      "type": "function"
    },
    {
      "inputs": [
        {
          "internalType": "address",
          "name": "owner",
          "type": "address"
        },
        {
          "internalType": "address",
          "name": "operator",
          "type": "address"
        }
      ],
      "name": "isApprovedForAll",
      "outputs": [
        {
          "internalType": "bool",
          "name": "",
          "type": "bool"
        }
      ],
      "stateMutability": "view",
      "type": "function"
    },
    {
      "inputs": [],
      "name": "mint",
      "outputs": [],
      "stateMutability": "nonpayable",
      "type": "function"
    },
    {
      "inputs": [],
      "name": "name",
      "outputs": [
        {
          "internalType": "string",
          "name": "",
          "type": "string"
        }
      ],
      "stateMutability": "view",
      "type": "function"
    },
    {
      "inputs": [
        {
          "internalType": "uint256",
          "name": "tokenId",
          "type": "uint256"
        }
      ],
      "name": "ownerOf",
      "outputs": [
        {
          "internalType": "address",
          "name": "",
          "type": "address"
        }
      ],
      "stateMutability": "view",
      "type": "function"
    },
    {
      "inputs": [],
      "name": "renounceGovernorship",
      "outputs": [],
      "stateMutability": "nonpayable",
      "type": "function"
    },
    {
      "inputs": [
        {
          "internalType": "address",
          "name": "from",
          "type": "address"
        },
        {
          "internalType": "address",
          "name": "to",
          "type": "address"
        },
        {
          "internalType": "uint256",
          "name": "tokenId",
          "type": "uint256"
        }
      ],
      "name": "safeTransferFrom",
      "outputs": [],
      "stateMutability": "nonpayable",
      "type": "function"
    },
    {
      "inputs": [
        {
          "internalType": "address",
          "name": "from",
          "type": "address"
        },
        {
          "internalType": "address",
          "name": "to",
          "type": "address"
        },
        {
          "internalType": "uint256",
          "name": "tokenId",
          "type": "uint256"
        },
        {
          "internalType": "bytes",
          "name": "_data",
          "type": "bytes"
        }
      ],
      "name": "safeTransferFrom",
      "outputs": [],
      "stateMutability": "nonpayable",
      "type": "function"
    },
    {
      "inputs": [
        {
          "internalType": "address",
          "name": "operator",
          "type": "address"
        },
        {
          "internalType": "bool",
          "name": "approved",
          "type": "bool"
        }
      ],
      "name": "setApprovalForAll",
      "outputs": [],
      "stateMutability": "nonpayable",
      "type": "function"
    },
    {
      "inputs": [
        {
          "internalType": "address",
          "name": "_artist",
          "type": "address"
        },
        {
          "internalType": "bool",
          "name": "enabled",
          "type": "bool"
        }
      ],
      "name": "setArtist",
      "outputs": [
        {
          "internalType": "bool",
          "name": "",
          "type": "bool"
        }
      ],
      "stateMutability": "nonpayable",
      "type": "function"
    },
    {
      "inputs": [
        {
          "internalType": "string",
          "name": "baseURI",
          "type": "string"
        }
      ],
      "name": "setBaseURI",
      "outputs": [
        {
          "internalType": "bool",
          "name": "",
          "type": "bool"
        }
      ],
      "stateMutability": "nonpayable",
      "type": "function"
    },
    {
      "inputs": [
        {
          "internalType": "uint256",
          "name": "tokenId",
          "type": "uint256"
        },
        {
          "internalType": "string",
          "name": "_tokenURI",
          "type": "string"
        }
      ],
      "name": "setTokenURI",
      "outputs": [
        {
          "internalType": "bool",
          "name": "",
          "type": "bool"
        }
      ],
      "stateMutability": "nonpayable",
      "type": "function"
    },
    {
      "inputs": [
        {
          "internalType": "bytes4",
          "name": "interfaceId",
          "type": "bytes4"
        }
      ],
      "name": "supportsInterface",
      "outputs": [
        {
          "internalType": "bool",
          "name": "",
          "type": "bool"
        }
      ],
      "stateMutability": "view",
      "type": "function"
    },
    {
      "inputs": [],
      "name": "symbol",
      "outputs": [
        {
          "internalType": "string",
          "name": "",
          "type": "string"
        }
      ],
      "stateMutability": "view",
      "type": "function"
    },
    {
      "inputs": [
        {
          "internalType": "uint256",
          "name": "index",
          "type": "uint256"
        }
      ],
      "name": "tokenByIndex",
      "outputs": [
        {
          "internalType": "uint256",
          "name": "",
          "type": "uint256"
        }
      ],
      "stateMutability": "view",
      "type": "function"
    },
    {
      "inputs": [
        {
          "internalType": "address",
          "name": "owner",
          "type": "address"
        },
        {
          "internalType": "uint256",
          "name": "index",
          "type": "uint256"
        }
      ],
      "name": "tokenOfOwnerByIndex",
      "outputs": [
        {
          "internalType": "uint256",
          "name": "",
          "type": "uint256"
        }
      ],
      "stateMutability": "view",
      "type": "function"
    },
    {
      "inputs": [
        {
          "internalType": "uint256",
          "name": "tokenId",
          "type": "uint256"
        }
      ],
      "name": "tokenURI",
      "outputs": [
        {
          "internalType": "string",
          "name": "",
          "type": "string"
        }
      ],
      "stateMutability": "view",
      "type": "function"
    },
    {
      "inputs": [],
      "name": "totalSupply",
      "outputs": [
        {
          "internalType": "uint256",
          "name": "",
          "type": "uint256"
        }
      ],
      "stateMutability": "view",
      "type": "function"
    },
    {
      "inputs": [
        {
          "internalType": "address",
          "name": "from",
          "type": "address"
        },
        {
          "internalType": "address",
          "name": "to",
          "type": "address"
        },
        {
          "internalType": "uint256",
          "name": "tokenId",
          "type": "uint256"
        }
      ],
      "name": "transferFrom",
      "outputs": [],
      "stateMutability": "nonpayable",
      "type": "function"
    },
    {
      "inputs": [
        {
          "internalType": "address",
          "name": "newGovernor",
          "type": "address"
        }
      ],
      "name": "transferGovernorship",
      "outputs": [],
      "stateMutability": "nonpayable",
      "type": "function"
    }
  ],
  "bytecode": "0x60806040523480156200001157600080fd5b50d380156200001f57600080fd5b50d280156200002d57600080fd5b5060405162004025380380620040258339818101604052810190620000539190620004dd565b82826200006d6301ffc9a760e01b6200011960201b60201c565b81603a908051906020019062000085929190620003db565b5080603b90805190602001906200009e929190620003db565b50620000b76380ac58cd60e01b6200011960201b60201c565b620000cf635b5e139f60e01b6200011960201b60201c565b620000e763780e9d6360e01b6200011960201b60201c565b5050620000fa81620001f260201b60201c565b62000110336200020e60201b620010bc1760201c565b5050506200070e565b63ffffffff60e01b817bffffffffffffffffffffffffffffffffffffffffffffffffffffffff1916141562000185576040517f08c379a00000000000000000000000000000000000000000000000000000000081526004016200017c9062000628565b60405180910390fd5b600160346000837bffffffffffffffffffffffffffffffffffffffffffffffffffffffff19167bffffffffffffffffffffffffffffffffffffffffffffffffffffffff1916815260200190815260200160002060006101000a81548160ff02191690831515021790555050565b80603d90805190602001906200020a929190620003db565b5050565b600060019054906101000a900460ff168062000236575062000235620003c460201b60201c565b5b806200024d575060008054906101000a900460ff16155b6200028f576040517f08c379a000000000000000000000000000000000000000000000000000000000815260040162000286906200064a565b60405180910390fd5b60008060019054906101000a900460ff161590508015620002e0576001600060016101000a81548160ff02191690831515021790555060016000806101000a81548160ff0219169083151502179055505b81603360006101000a81548173ffffffffffffffffffffffffffffffffffffffff021916908373ffffffffffffffffffffffffffffffffffffffff160217905550603360009054906101000a900473ffffffffffffffffffffffffffffffffffffffff1673ffffffffffffffffffffffffffffffffffffffff16600073ffffffffffffffffffffffffffffffffffffffff167fc7c0c772add429241571afb3805861fb3cfa2af374534088b76cdb4325a87e9a60405160405180910390a38015620003c05760008060016101000a81548160ff0219169083151502179055505b5050565b6000803090506000813b9050600081149250505090565b828054600181600116156101000203166002900490600052602060002090601f016020900481019282601f106200041e57805160ff19168380011785556200044f565b828001600101855582156200044f579182015b828111156200044e57825182559160200191906001019062000431565b5b5090506200045e919062000462565b5090565b5b808211156200047d57600081600090555060010162000463565b5090565b600082601f8301126200049357600080fd5b8151620004aa620004a4826200069a565b6200066c565b91508082526020830160208301858383011115620004c757600080fd5b620004d4838284620006d8565b50505092915050565b600080600060608486031215620004f357600080fd5b600084015167ffffffffffffffff8111156200050e57600080fd5b6200051c8682870162000481565b935050602084015167ffffffffffffffff8111156200053a57600080fd5b620005488682870162000481565b925050604084015167ffffffffffffffff8111156200056657600080fd5b620005748682870162000481565b9150509250925092565b60006200058d601c83620006c7565b91507f4552433136353a20696e76616c696420696e74657266616365206964000000006000830152602082019050919050565b6000620005cf602e83620006c7565b91507f436f6e747261637420696e7374616e63652068617320616c726561647920626560008301527f656e20696e697469616c697a65640000000000000000000000000000000000006020830152604082019050919050565b6000602082019050818103600083015262000643816200057e565b9050919050565b600060208201905081810360008301526200066581620005c0565b9050919050565b6000604051905081810181811067ffffffffffffffff821117156200069057600080fd5b8060405250919050565b600067ffffffffffffffff821115620006b257600080fd5b601f19601f8301169050602081019050919050565b600082825260208201905092915050565b60005b83811015620006f8578082015181840152602081019050620006db565b8381111562000708576000848401525b50505050565b613907806200071e6000396000f3fe608060405234801561001057600080fd5b50d3801561001d57600080fd5b50d2801561002a57600080fd5b50600436106101a85760003560e01c80636352211e116100f8578063a22cb465116100b1578063c4d66de81161008b578063c4d66de8146104af578063c87b56dd146104cb578063de8daee5146104fb578063e985e9c51461052b576101a8565b8063a22cb4651461045b578063b6aa515b14610477578063b88d4fde14610493576101a8565b80636352211e146103855780636c0360eb146103b557806370a08231146103d357806378b330ee1461040357806381c0c2631461043357806395d89b411461043d576101a8565b8063162094c4116101655780632f745c591161013f5780632f745c59146102d957806342842e0e146103095780634f6ccce71461032557806355f804b314610355576101a8565b8063162094c41461026f57806318160ddd1461029f57806323b872dd146102bd576101a8565b806301ffc9a7146101ad57806306fdde03146101dd578063081812fc146101fb578063095ea7b31461022b5780630c340a24146102475780631249c58b14610265575b600080fd5b6101c760048036038101906101c29190612979565b61055b565b6040516101d49190613375565b60405180910390f35b6101e56105c3565b6040516101f29190613390565b60405180910390f35b61021560048036038101906102109190612a0c565b610665565b604051610222919061330e565b60405180910390f35b6102456004803603810190610240919061293d565b6106ea565b005b61024f610802565b60405161025c919061330e565b60405180910390f35b61026d610828565b005b61028960048036038101906102849190612a35565b610919565b6040516102969190613375565b60405180910390f35b6102a7610985565b6040516102b49190613632565b60405180910390f35b6102d760048036038101906102d29190612837565b610996565b005b6102f360048036038101906102ee919061293d565b6109f6565b6040516103009190613632565b60405180910390f35b610323600480360381019061031e9190612837565b610a51565b005b61033f600480360381019061033a9190612a0c565b610a71565b60405161034c9190613632565b60405180910390f35b61036f600480360381019061036a91906129cb565b610a94565b60405161037c9190613375565b60405180910390f35b61039f600480360381019061039a9190612a0c565b610afe565b6040516103ac919061330e565b60405180910390f35b6103bd610b35565b6040516103ca9190613390565b60405180910390f35b6103ed60048036038101906103e891906127d2565b610bd7565b6040516103fa9190613632565b60405180910390f35b61041d600480360381019061041891906127d2565b610c96565b60405161042a9190613375565b60405180910390f35b61043b610cb6565b005b610445610dd1565b6040516104529190613390565b60405180910390f35b61047560048036038101906104709190612901565b610e73565b005b610491600480360381019061048c91906127d2565b610ff4565b005b6104ad60048036038101906104a89190612886565b61105a565b005b6104c960048036038101906104c491906127d2565b6110bc565b005b6104e560048036038101906104e09190612a0c565b611263565b6040516104f29190613390565b60405180910390f35b61051560048036038101906105109190612901565b6113e6565b6040516105229190613375565b60405180910390f35b610545600480360381019061054091906127fb565b6114a3565b6040516105529190613375565b60405180910390f35b600060346000837bffffffffffffffffffffffffffffffffffffffffffffffffffffffff19167bffffffffffffffffffffffffffffffffffffffffffffffffffffffff1916815260200190815260200160002060009054906101000a900460ff169050919050565b6060603a8054600181600116156101000203166002900480601f01602080910402602001604051908101604052809291908181526020018280546001816001161561010002031660029004801561065b5780601f106106305761010080835404028352916020019161065b565b820191906000526020600020905b81548152906001019060200180831161063e57829003601f168201915b5050505050905090565b600061067082611537565b6106af576040517f08c379a00000000000000000000000000000000000000000000000000000000081526004016106a690613532565b60405180910390fd5b6038600083815260200190815260200160002060009054906101000a900473ffffffffffffffffffffffffffffffffffffffff169050919050565b60006106f582610afe565b90508073ffffffffffffffffffffffffffffffffffffffff168373ffffffffffffffffffffffffffffffffffffffff161415610766576040517f08c379a000000000000000000000000000000000000000000000000000000000815260040161075d906135d2565b60405180910390fd5b8073ffffffffffffffffffffffffffffffffffffffff16610785611554565b73ffffffffffffffffffffffffffffffffffffffff1614806107b457506107b3816107ae611554565b6114a3565b5b6107f3576040517f08c379a00000000000000000000000000000000000000000000000000000000081526004016107ea906134b2565b60405180910390fd5b6107fd838361155c565b505050565b603360009054906101000a900473ffffffffffffffffffffffffffffffffffffffff1681565b603f60003373ffffffffffffffffffffffffffffffffffffffff1673ffffffffffffffffffffffffffffffffffffffff16815260200190815260200160002060009054906101000a900460ff166108b4576040517f08c379a00000000000000000000000000000000000000000000000000000000081526004016108ab90613412565b60405180910390fd5b6001603e600082825401925050819055506108d133603e54611615565b603e543373ffffffffffffffffffffffffffffffffffffffff167f0f6798a560793a54c3bcfe86a93cde1e73087d944c0ea20544137d412139688560405160405180910390a3565b6000603360009054906101000a900473ffffffffffffffffffffffffffffffffffffffff1673ffffffffffffffffffffffffffffffffffffffff163373ffffffffffffffffffffffffffffffffffffffff161461097557600080fd5b61097f83836117a3565b92915050565b60006109916036611817565b905090565b6109a76109a1611554565b8261182c565b6109e6576040517f08c379a00000000000000000000000000000000000000000000000000000000081526004016109dd906135f2565b60405180910390fd5b6109f183838361190a565b505050565b6000610a4982603560008673ffffffffffffffffffffffffffffffffffffffff1673ffffffffffffffffffffffffffffffffffffffff168152602001908152602001600020611b2190919063ffffffff16565b905092915050565b610a6c8383836040518060200160405280600081525061105a565b505050565b600080610a88836036611b3b90919063ffffffff16565b50905080915050919050565b6000603360009054906101000a900473ffffffffffffffffffffffffffffffffffffffff1673ffffffffffffffffffffffffffffffffffffffff163373ffffffffffffffffffffffffffffffffffffffff1614610af057600080fd5b610af982611b67565b919050565b6000610b2e826040518060600160405280602981526020016138a9602991396036611b819092919063ffffffff16565b9050919050565b6060603d8054600181600116156101000203166002900480601f016020809104026020016040519081016040528092919081815260200182805460018160011615610100020316600290048015610bcd5780601f10610ba257610100808354040283529160200191610bcd565b820191906000526020600020905b815481529060010190602001808311610bb057829003601f168201915b5050505050905090565b60008073ffffffffffffffffffffffffffffffffffffffff168273ffffffffffffffffffffffffffffffffffffffff161415610c48576040517f08c379a0000000000000000000000000000000000000000000000000000000008152600401610c3f906134d2565b60405180910390fd5b610c8f603560008473ffffffffffffffffffffffffffffffffffffffff1673ffffffffffffffffffffffffffffffffffffffff168152602001908152602001600020611ba0565b9050919050565b603f6020528060005260406000206000915054906101000a900460ff1681565b603360009054906101000a900473ffffffffffffffffffffffffffffffffffffffff1673ffffffffffffffffffffffffffffffffffffffff163373ffffffffffffffffffffffffffffffffffffffff1614610d1057600080fd5b600073ffffffffffffffffffffffffffffffffffffffff16603360009054906101000a900473ffffffffffffffffffffffffffffffffffffffff1673ffffffffffffffffffffffffffffffffffffffff167fc7c0c772add429241571afb3805861fb3cfa2af374534088b76cdb4325a87e9a60405160405180910390a36000603360006101000a81548173ffffffffffffffffffffffffffffffffffffffff021916908373ffffffffffffffffffffffffffffffffffffffff160217905550565b6060603b8054600181600116156101000203166002900480601f016020809104026020016040519081016040528092919081815260200182805460018160011615610100020316600290048015610e695780601f10610e3e57610100808354040283529160200191610e69565b820191906000526020600020905b815481529060010190602001808311610e4c57829003601f168201915b5050505050905090565b610e7b611554565b73ffffffffffffffffffffffffffffffffffffffff168273ffffffffffffffffffffffffffffffffffffffff161415610ee9576040517f08c379a0000000000000000000000000000000000000000000000000000000008152600401610ee090613452565b60405180910390fd5b8060396000610ef6611554565b73ffffffffffffffffffffffffffffffffffffffff1673ffffffffffffffffffffffffffffffffffffffff16815260200190815260200160002060008473ffffffffffffffffffffffffffffffffffffffff1673ffffffffffffffffffffffffffffffffffffffff16815260200190815260200160002060006101000a81548160ff0219169083151502179055508173ffffffffffffffffffffffffffffffffffffffff16610fa3611554565b73ffffffffffffffffffffffffffffffffffffffff167f17307eab39ab6107e8899845ad3d59bd9653f200f220920489ca2b5937696c3183604051610fe89190613375565b60405180910390a35050565b603360009054906101000a900473ffffffffffffffffffffffffffffffffffffffff1673ffffffffffffffffffffffffffffffffffffffff163373ffffffffffffffffffffffffffffffffffffffff161461104e57600080fd5b61105781611bb5565b50565b61106b611065611554565b8361182c565b6110aa576040517f08c379a00000000000000000000000000000000000000000000000000000000081526004016110a1906135f2565b60405180910390fd5b6110b684848484611caf565b50505050565b600060019054906101000a900460ff16806110db57506110da611d0b565b5b806110f1575060008054906101000a900460ff16155b611130576040517f08c379a000000000000000000000000000000000000000000000000000000000815260040161112790613572565b60405180910390fd5b60008060019054906101000a900460ff161590508015611180576001600060016101000a81548160ff02191690831515021790555060016000806101000a81548160ff0219169083151502179055505b81603360006101000a81548173ffffffffffffffffffffffffffffffffffffffff021916908373ffffffffffffffffffffffffffffffffffffffff160217905550603360009054906101000a900473ffffffffffffffffffffffffffffffffffffffff1673ffffffffffffffffffffffffffffffffffffffff16600073ffffffffffffffffffffffffffffffffffffffff167fc7c0c772add429241571afb3805861fb3cfa2af374534088b76cdb4325a87e9a60405160405180910390a3801561125f5760008060016101000a81548160ff0219169083151502179055505b5050565b606061126e82611537565b6112ad576040517f08c379a00000000000000000000000000000000000000000000000000000000081526004016112a4906135b2565b60405180910390fd5b6060603c60008481526020019081526020016000208054600181600116156101000203166002900480601f0160208091040260200160405190810160405280929190818152602001828054600181600116156101000203166002900480156113565780601f1061132b57610100808354040283529160200191611356565b820191906000526020600020905b81548152906001019060200180831161133957829003601f168201915b505050505090506060611367610b35565b905060008151141561137d5781925050506113e1565b6000825111156113b257808260405160200161139a9291906132ea565b604051602081830303815290604052925050506113e1565b806113bc85611d22565b6040516020016113cd9291906132ea565b604051602081830303815290604052925050505b919050565b6000603360009054906101000a900473ffffffffffffffffffffffffffffffffffffffff1673ffffffffffffffffffffffffffffffffffffffff163373ffffffffffffffffffffffffffffffffffffffff161461144257600080fd5b81603f60008573ffffffffffffffffffffffffffffffffffffffff1673ffffffffffffffffffffffffffffffffffffffff16815260200190815260200160002060006101000a81548160ff0219169083151502179055506001905092915050565b6000603960008473ffffffffffffffffffffffffffffffffffffffff1673ffffffffffffffffffffffffffffffffffffffff16815260200190815260200160002060008373ffffffffffffffffffffffffffffffffffffffff1673ffffffffffffffffffffffffffffffffffffffff16815260200190815260200160002060009054906101000a900460ff16905092915050565b600061154d826036611e6990919063ffffffff16565b9050919050565b600033905090565b816038600083815260200190815260200160002060006101000a81548173ffffffffffffffffffffffffffffffffffffffff021916908373ffffffffffffffffffffffffffffffffffffffff160217905550808273ffffffffffffffffffffffffffffffffffffffff166115cf83610afe565b73ffffffffffffffffffffffffffffffffffffffff167f8c5be1e5ebec7d5bd14f71427d1e84f3dd0314c0f7b2291e5b200ac8c7c3b92560405160405180910390a45050565b600073ffffffffffffffffffffffffffffffffffffffff168273ffffffffffffffffffffffffffffffffffffffff161415611685576040517f08c379a000000000000000000000000000000000000000000000000000000000815260040161167c90613512565b60405180910390fd5b61168e81611537565b156116ce576040517f08c379a00000000000000000000000000000000000000000000000000000000081526004016116c5906133f2565b60405180910390fd5b6116da60008383611e83565b61172b81603560008573ffffffffffffffffffffffffffffffffffffffff1673ffffffffffffffffffffffffffffffffffffffff168152602001908152602001600020611e8890919063ffffffff16565b5061174281836036611ea29092919063ffffffff16565b50808273ffffffffffffffffffffffffffffffffffffffff16600073ffffffffffffffffffffffffffffffffffffffff167fddf252ad1be2c89b69c2b068fc378daa952ba7f163c4a11628f55a4df523b3ef60405160405180910390a45050565b6117ac82611537565b6117eb576040517f08c379a00000000000000000000000000000000000000000000000000000000081526004016117e290613552565b60405180910390fd5b80603c60008481526020019081526020016000209080519060200190611812929190612619565b505050565b600061182582600001611ed7565b9050919050565b600061183782611537565b611876576040517f08c379a000000000000000000000000000000000000000000000000000000000815260040161186d90613492565b60405180910390fd5b600061188183610afe565b90508073ffffffffffffffffffffffffffffffffffffffff168473ffffffffffffffffffffffffffffffffffffffff1614806118f057508373ffffffffffffffffffffffffffffffffffffffff166118d884610665565b73ffffffffffffffffffffffffffffffffffffffff16145b80611901575061190081856114a3565b5b91505092915050565b8273ffffffffffffffffffffffffffffffffffffffff1661192a82610afe565b73ffffffffffffffffffffffffffffffffffffffff1614611980576040517f08c379a000000000000000000000000000000000000000000000000000000000815260040161197790613592565b60405180910390fd5b600073ffffffffffffffffffffffffffffffffffffffff168273ffffffffffffffffffffffffffffffffffffffff1614156119f0576040517f08c379a00000000000000000000000000000000000000000000000000000000081526004016119e790613432565b60405180910390fd5b6119fb838383611e83565b611a0660008261155c565b611a5781603560008673ffffffffffffffffffffffffffffffffffffffff1673ffffffffffffffffffffffffffffffffffffffff168152602001908152602001600020611ee890919063ffffffff16565b50611aa981603560008573ffffffffffffffffffffffffffffffffffffffff1673ffffffffffffffffffffffffffffffffffffffff168152602001908152602001600020611e8890919063ffffffff16565b50611ac081836036611ea29092919063ffffffff16565b50808273ffffffffffffffffffffffffffffffffffffffff168473ffffffffffffffffffffffffffffffffffffffff167fddf252ad1be2c89b69c2b068fc378daa952ba7f163c4a11628f55a4df523b3ef60405160405180910390a4505050565b6000611b308360000183611f02565b60001c905092915050565b600080600080611b4e8660000186611f6f565b915091508160001c8160001c9350935050509250929050565b80603d9080519060200190611b7d929190612619565b5050565b6000611b94846000018460001b84611ff2565b60001c90509392505050565b6000611bae82600001612083565b9050919050565b600073ffffffffffffffffffffffffffffffffffffffff168173ffffffffffffffffffffffffffffffffffffffff161415611bef57600080fd5b8073ffffffffffffffffffffffffffffffffffffffff16603360009054906101000a900473ffffffffffffffffffffffffffffffffffffffff1673ffffffffffffffffffffffffffffffffffffffff167fc7c0c772add429241571afb3805861fb3cfa2af374534088b76cdb4325a87e9a60405160405180910390a380603360006101000a81548173ffffffffffffffffffffffffffffffffffffffff021916908373ffffffffffffffffffffffffffffffffffffffff16021790555050565b611cba84848461190a565b611cc684848484612094565b611d05576040517f08c379a0000000000000000000000000000000000000000000000000000000008152600401611cfc906133d2565b60405180910390fd5b50505050565b6000803090506000813b9050600081149250505090565b60606000821415611d6a576040518060400160405280600181526020017f30000000000000000000000000000000000000000000000000000000000000008152509050611e64565b600082905060005b60008214611d94578080600101915050600a8281611d8c57fe5b049150611d72565b60608167ffffffffffffffff81118015611dad57600080fd5b506040519080825280601f01601f191660200182016040528015611de05781602001600182028036833780820191505090505b50905060006001830390508593505b60008414611e5c57600a8481611e0157fe5b0660300160f81b82828060019003935081518110611e1b57fe5b60200101907effffffffffffffffffffffffffffffffffffffffffffffffffffffffffffff1916908160001a905350600a8481611e5457fe5b049350611def565b819450505050505b919050565b6000611e7b836000018360001b6121f8565b905092915050565b505050565b6000611e9a836000018360001b61221b565b905092915050565b6000611ece846000018460001b8473ffffffffffffffffffffffffffffffffffffffff1660001b61228b565b90509392505050565b600081600001805490509050919050565b6000611efa836000018360001b612367565b905092915050565b600081836000018054905011611f4d576040517f08c379a0000000000000000000000000000000000000000000000000000000008152600401611f44906133b2565b60405180910390fd5b826000018281548110611f5c57fe5b9060005260206000200154905092915050565b60008082846000018054905011611fbb576040517f08c379a0000000000000000000000000000000000000000000000000000000008152600401611fb2906134f2565b60405180910390fd5b6000846000018481548110611fcc57fe5b906000526020600020906002020190508060000154816001015492509250509250929050565b60008084600101600085815260200190815260200160002054905060008114158390612054576040517f08c379a000000000000000000000000000000000000000000000000000000000815260040161204b9190613390565b60405180910390fd5b5084600001600182038154811061206757fe5b9060005260206000209060020201600101549150509392505050565b600081600001805490509050919050565b60006120b58473ffffffffffffffffffffffffffffffffffffffff1661244f565b6120c257600190506121f0565b606061218963150b7a0260e01b6120d7611554565b8887876040516024016120ed9493929190613329565b604051602081830303815290604052907bffffffffffffffffffffffffffffffffffffffffffffffffffffffff19166020820180517bffffffffffffffffffffffffffffffffffffffffffffffffffffffff8381831617835250505050604051806060016040528060328152602001613877603291398773ffffffffffffffffffffffffffffffffffffffff166124629092919063ffffffff16565b90506000818060200190518101906121a191906129a2565b905063150b7a0260e01b7bffffffffffffffffffffffffffffffffffffffffffffffffffffffff1916817bffffffffffffffffffffffffffffffffffffffffffffffffffffffff191614925050505b949350505050565b600080836001016000848152602001908152602001600020541415905092915050565b6000612227838361247a565b612280578260000182908060018154018082558091505060019003906000526020600020016000909190919091505582600001805490508360010160008481526020019081526020016000208190555060019050612285565b600090505b92915050565b600080846001016000858152602001908152602001600020549050600081141561233257846000016040518060400160405280868152602001858152509080600181540180825580915050600190039060005260206000209060020201600090919091909150600082015181600001556020820151816001015550508460000180549050856001016000868152602001908152602001600020819055506001915050612360565b8285600001600183038154811061234557fe5b90600052602060002090600202016001018190555060009150505b9392505050565b6000808360010160008481526020019081526020016000205490506000811461244357600060018203905060006001866000018054905003905060008660000182815481106123b257fe5b90600052602060002001549050808760000184815481106123cf57fe5b906000526020600020018190555060018301876001016000838152602001908152602001600020819055508660000180548061240757fe5b60019003818190600052602060002001600090559055866001016000878152602001908152602001600020600090556001945050505050612449565b60009150505b92915050565b600080823b905060008111915050919050565b6060612471848460008561249d565b90509392505050565b600080836001016000848152602001908152602001600020541415905092915050565b6060824710156124e2576040517f08c379a00000000000000000000000000000000000000000000000000000000081526004016124d990613472565b60405180910390fd5b6124eb8561244f565b61252a576040517f08c379a000000000000000000000000000000000000000000000000000000000815260040161252190613612565b60405180910390fd5b600060608673ffffffffffffffffffffffffffffffffffffffff16858760405161255491906132d3565b60006040518083038185875af1925050503d8060008114612591576040519150601f19603f3d011682016040523d82523d6000602084013e612596565b606091505b50915091506125a68282866125b2565b92505050949350505050565b606083156125c257829050612612565b6000835111156125d55782518084602001fd5b816040517f08c379a00000000000000000000000000000000000000000000000000000000081526004016126099190613390565b60405180910390fd5b9392505050565b828054600181600116156101000203166002900490600052602060002090601f016020900481019282601f1061265a57805160ff1916838001178555612688565b82800160010185558215612688579182015b8281111561268757825182559160200191906001019061266c565b5b5090506126959190612699565b5090565b5b808211156126b257600081600090555060010161269a565b5090565b6000813590506126c58161381a565b6126ce81613720565b905092915050565b6000813590506126e581613831565b92915050565b6000813590506126fa81613848565b92915050565b60008151905061270f81613848565b92915050565b600082601f83011261272657600080fd5b81356127396127348261367a565b61364d565b9150808252602083016020830185838301111561275557600080fd5b6127608382846137c7565b50505092915050565b600082601f83011261277a57600080fd5b813561278d612788826136a6565b61364d565b915080825260208301602083018583830111156127a957600080fd5b6127b48382846137c7565b50505092915050565b6000813590506127cc8161385f565b92915050565b6000602082840312156127e457600080fd5b60006127f2848285016126b6565b91505092915050565b6000806040838503121561280e57600080fd5b600061281c858286016126b6565b925050602061282d858286016126b6565b9150509250929050565b60008060006060848603121561284c57600080fd5b600061285a868287016126b6565b935050602061286b868287016126b6565b925050604061287c868287016127bd565b9150509250925092565b6000806000806080858703121561289c57600080fd5b60006128aa878288016126b6565b94505060206128bb878288016126b6565b93505060406128cc878288016127bd565b925050606085013567ffffffffffffffff8111156128e957600080fd5b6128f587828801612715565b91505092959194509250565b6000806040838503121561291457600080fd5b6000612922858286016126b6565b9250506020612933858286016126d6565b9150509250929050565b6000806040838503121561295057600080fd5b600061295e858286016126b6565b925050602061296f858286016127bd565b9150509250929050565b60006020828403121561298b57600080fd5b6000612999848285016126eb565b91505092915050565b6000602082840312156129b457600080fd5b60006129c284828501612700565b91505092915050565b6000602082840312156129dd57600080fd5b600082013567ffffffffffffffff8111156129f757600080fd5b612a0384828501612769565b91505092915050565b600060208284031215612a1e57600080fd5b6000612a2c848285016127bd565b91505092915050565b60008060408385031215612a4857600080fd5b6000612a56858286016127bd565b925050602083013567ffffffffffffffff811115612a7357600080fd5b612a7f85828601612769565b9150509250929050565b612a9281613732565b82525050565b612aa181613720565b82525050565b612ab081613744565b82525050565b6000612ac1826136d2565b612acb81856136e8565b9350612adb8185602086016137d6565b612ae481613809565b840191505092915050565b6000612afa826136d2565b612b0481856136f9565b9350612b148185602086016137d6565b80840191505092915050565b6000612b2b826136dd565b612b358185613704565b9350612b458185602086016137d6565b612b4e81613809565b840191505092915050565b6000612b64826136dd565b612b6e8185613715565b9350612b7e8185602086016137d6565b80840191505092915050565b6000612b97602283613704565b91507f456e756d657261626c655365743a20696e646578206f7574206f6620626f756e60008301527f64730000000000000000000000000000000000000000000000000000000000006020830152604082019050919050565b6000612bfd603283613704565b91507f4552433732313a207472616e7366657220746f206e6f6e20455243373231526560008301527f63656976657220696d706c656d656e74657200000000000000000000000000006020830152604082019050919050565b6000612c63601c83613704565b91507f4552433732313a20746f6b656e20616c7265616479206d696e746564000000006000830152602082019050919050565b6000612ca3600b83613704565b91507f6f6e6c79206172746973740000000000000000000000000000000000000000006000830152602082019050919050565b6000612ce3602483613704565b91507f4552433732313a207472616e7366657220746f20746865207a65726f2061646460008301527f72657373000000000000000000000000000000000000000000000000000000006020830152604082019050919050565b6000612d49601983613704565b91507f4552433732313a20617070726f766520746f2063616c6c6572000000000000006000830152602082019050919050565b6000612d89602683613704565b91507f416464726573733a20696e73756666696369656e742062616c616e636520666f60008301527f722063616c6c00000000000000000000000000000000000000000000000000006020830152604082019050919050565b6000612def602c83613704565b91507f4552433732313a206f70657261746f7220717565727920666f72206e6f6e657860008301527f697374656e7420746f6b656e00000000000000000000000000000000000000006020830152604082019050919050565b6000612e55603883613704565b91507f4552433732313a20617070726f76652063616c6c6572206973206e6f74206f7760008301527f6e6572206e6f7220617070726f76656420666f7220616c6c00000000000000006020830152604082019050919050565b6000612ebb602a83613704565b91507f4552433732313a2062616c616e636520717565727920666f7220746865207a6560008301527f726f2061646472657373000000000000000000000000000000000000000000006020830152604082019050919050565b6000612f21602283613704565b91507f456e756d657261626c654d61703a20696e646578206f7574206f6620626f756e60008301527f64730000000000000000000000000000000000000000000000000000000000006020830152604082019050919050565b6000612f87602083613704565b91507f4552433732313a206d696e7420746f20746865207a65726f20616464726573736000830152602082019050919050565b6000612fc7602c83613704565b91507f4552433732313a20617070726f76656420717565727920666f72206e6f6e657860008301527f697374656e7420746f6b656e00000000000000000000000000000000000000006020830152604082019050919050565b600061302d602c83613704565b91507f4552433732314d657461646174613a2055524920736574206f66206e6f6e657860008301527f697374656e7420746f6b656e00000000000000000000000000000000000000006020830152604082019050919050565b6000613093602e83613704565b91507f436f6e747261637420696e7374616e63652068617320616c726561647920626560008301527f656e20696e697469616c697a65640000000000000000000000000000000000006020830152604082019050919050565b60006130f9602983613704565b91507f4552433732313a207472616e73666572206f6620746f6b656e2074686174206960008301527f73206e6f74206f776e00000000000000000000000000000000000000000000006020830152604082019050919050565b600061315f602f83613704565b91507f4552433732314d657461646174613a2055524920717565727920666f72206e6f60008301527f6e6578697374656e7420746f6b656e00000000000000000000000000000000006020830152604082019050919050565b60006131c5602183613704565b91507f4552433732313a20617070726f76616c20746f2063757272656e74206f776e6560008301527f72000000000000000000000000000000000000000000000000000000000000006020830152604082019050919050565b600061322b603183613704565b91507f4552433732313a207472616e736665722063616c6c6572206973206e6f74206f60008301527f776e6572206e6f7220617070726f7665640000000000000000000000000000006020830152604082019050919050565b6000613291601d83613704565b91507f416464726573733a2063616c6c20746f206e6f6e2d636f6e74726163740000006000830152602082019050919050565b6132cd816137bd565b82525050565b60006132df8284612aef565b915081905092915050565b60006132f68285612b59565b91506133028284612b59565b91508190509392505050565b60006020820190506133236000830184612a98565b92915050565b600060808201905061333e6000830187612a89565b61334b6020830186612a98565b61335860408301856132c4565b818103606083015261336a8184612ab6565b905095945050505050565b600060208201905061338a6000830184612aa7565b92915050565b600060208201905081810360008301526133aa8184612b20565b905092915050565b600060208201905081810360008301526133cb81612b8a565b9050919050565b600060208201905081810360008301526133eb81612bf0565b9050919050565b6000602082019050818103600083015261340b81612c56565b9050919050565b6000602082019050818103600083015261342b81612c96565b9050919050565b6000602082019050818103600083015261344b81612cd6565b9050919050565b6000602082019050818103600083015261346b81612d3c565b9050919050565b6000602082019050818103600083015261348b81612d7c565b9050919050565b600060208201905081810360008301526134ab81612de2565b9050919050565b600060208201905081810360008301526134cb81612e48565b9050919050565b600060208201905081810360008301526134eb81612eae565b9050919050565b6000602082019050818103600083015261350b81612f14565b9050919050565b6000602082019050818103600083015261352b81612f7a565b9050919050565b6000602082019050818103600083015261354b81612fba565b9050919050565b6000602082019050818103600083015261356b81613020565b9050919050565b6000602082019050818103600083015261358b81613086565b9050919050565b600060208201905081810360008301526135ab816130ec565b9050919050565b600060208201905081810360008301526135cb81613152565b9050919050565b600060208201905081810360008301526135eb816131b8565b9050919050565b6000602082019050818103600083015261360b8161321e565b9050919050565b6000602082019050818103600083015261362b81613284565b9050919050565b600060208201905061364760008301846132c4565b92915050565b6000604051905081810181811067ffffffffffffffff8211171561367057600080fd5b8060405250919050565b600067ffffffffffffffff82111561369157600080fd5b601f19601f8301169050602081019050919050565b600067ffffffffffffffff8211156136bd57600080fd5b601f19601f8301169050602081019050919050565b600081519050919050565b600081519050919050565b600082825260208201905092915050565b600081905092915050565b600082825260208201905092915050565b600081905092915050565b600061372b8261377c565b9050919050565b600061373d8261377c565b9050919050565b60008115159050919050565b60007fffffffff0000000000000000000000000000000000000000000000000000000082169050919050565b600073ffffffffffffffffffffffffffffffffffffffff82169050919050565b600074ffffffffffffffffffffffffffffffffffffffffff82169050919050565b6000819050919050565b82818337600083830152505050565b60005b838110156137f45780820151818401526020810190506137d9565b83811115613803576000848401525b50505050565b6000601f19601f8301169050919050565b6138238161379c565b811461382e57600080fd5b50565b61383a81613744565b811461384557600080fd5b50565b61385181613750565b811461385c57600080fd5b50565b613868816137bd565b811461387357600080fd5b5056fe4552433732313a207472616e7366657220746f206e6f6e20455243373231526563656976657220696d706c656d656e7465724552433732313a206f776e657220717565727920666f72206e6f6e6578697374656e7420746f6b656ea264697066735822122063880a28e2f8176a8ff3f285f8fffab80c6302c6daf3c733662c939fe827ae0f64736f6c634300060c0033",
  "source": "pragma solidity ^0.6.0;\npragma experimental ABIEncoderV2;\n\nimport \"@openzeppelin/contracts/token/ERC721/ERC721.sol\";\nimport \"./Governable.sol\";\n\ncontract DFA721NFT is Governable, ERC721 {\n\n  event Mint(address indexed owner, uint256 indexed tokenId);\n\n  uint256 private _counter;\n\n\n  mapping(address => bool) public artist;\n\n  modifier onlyArtist() {\n    require(artist[msg.sender], \"only artist\");\n    _;\n  }\n\n  constructor (\n    string memory name, \n    string memory symbol, \n    string memory baseURI\n  ) ERC721(name, symbol) public {\n    _setBaseURI(baseURI);\n    super.initialize(msg.sender);\n  }\n\n  function setBaseURI(string memory baseURI) external governance returns (bool) {\n      _setBaseURI(baseURI);\n  }\n\n  function setTokenURI(uint256 tokenId, string memory _tokenURI) external governance returns (bool) {\n      _setTokenURI(tokenId, _tokenURI);\n  }\n\n  function mint() public onlyArtist {\n    _counter += 1;\n    _mint(msg.sender, _counter);\n    emit Mint(msg.sender, _counter);\n  }\n\n  function setArtist(address _artist, bool enabled) external governance returns (bool) {\n        artist[_artist] = enabled;\n        return true;\n    }\n\n}\n",
  "sourcePath": "/Users/horipse/workspace/define-contract/contracts/DFA721NFT.sol",
  "compiler": {
    "name": "solc",
    "version": "0.6.12+commit.5e807836.Emscripten.clang"
  },
  "schemaVersion": "2.0.1",
  "updatedAt": "2021-08-22T04:30:56.711Z"
}