{
  "contractName": "EnglishAuctionNFT",
  "abi": [
    {
      "anonymous": false,
      "inputs": [
        {
          "indexed": true,
          "internalType": "address",
          "name": "sender",
          "type": "address"
        },
        {
          "indexed": true,
          "internalType": "uint256",
          "name": "index",
          "type": "uint256"
        }
      ],
      "name": "AuctionClosed",
      "type": "event"
    },
    {
      "anonymous": false,
      "inputs": [
        {
          "indexed": false,
          "internalType": "address",
          "name": "sender",
          "type": "address"
        },
        {
          "indexed": false,
          "internalType": "uint256",
          "name": "index",
          "type": "uint256"
        },
        {
          "indexed": false,
          "internalType": "uint256",
          "name": "amount1",
          "type": "uint256"
        },
        {
          "indexed": false,
          "internalType": "uint256",
          "name": "closeAt",
          "type": "uint256"
        }
      ],
      "name": "Bid",
      "type": "event"
    },
    {
      "anonymous": false,
      "inputs": [
        {
          "indexed": false,
          "internalType": "address",
          "name": "sender",
          "type": "address"
        },
        {
          "indexed": false,
          "internalType": "uint256",
          "name": "index",
          "type": "uint256"
        }
      ],
      "name": "Claimed",
      "type": "event"
    },
    {
      "anonymous": false,
      "inputs": [
        {
          "indexed": true,
          "internalType": "address",
          "name": "sender",
          "type": "address"
        },
        {
          "indexed": true,
          "internalType": "uint256",
          "name": "index",
          "type": "uint256"
        },
        {
          "components": [
            {
              "internalType": "address payable",
              "name": "creator",
              "type": "address"
            },
            {
              "internalType": "string",
              "name": "name",
              "type": "string"
            },
            {
              "internalType": "address",
              "name": "token0",
              "type": "address"
            },
            {
              "internalType": "uint256",
              "name": "tokenId",
              "type": "uint256"
            },
            {
              "internalType": "uint256",
              "name": "tokenAmount0",
              "type": "uint256"
            },
            {
              "internalType": "uint256",
              "name": "amountMin1",
              "type": "uint256"
            },
            {
              "internalType": "uint256",
              "name": "amountMinIncr1",
              "type": "uint256"
            },
            {
              "internalType": "uint256",
              "name": "confirmTime",
              "type": "uint256"
            },
            {
              "internalType": "uint256",
              "name": "closeAt",
              "type": "uint256"
            },
            {
              "internalType": "uint256",
              "name": "nftType",
              "type": "uint256"
            }
          ],
          "indexed": false,
          "internalType": "struct EnglishAuctionNFT.Pool",
          "name": "pool",
          "type": "tuple"
        },
        {
          "indexed": false,
          "internalType": "address",
          "name": "token1",
          "type": "address"
        },
        {
          "indexed": false,
          "internalType": "uint256",
          "name": "startTime",
          "type": "uint256"
        }
      ],
      "name": "Created",
      "type": "event"
    },
    {
      "anonymous": false,
      "inputs": [
        {
          "indexed": true,
          "internalType": "address",
          "name": "previousGovernor",
          "type": "address"
        },
        {
          "indexed": true,
          "internalType": "address",
          "name": "newGovernor",
          "type": "address"
        }
      ],
      "name": "GovernorshipTransferred",
      "type": "event"
    },
    {
      "inputs": [
        {
          "internalType": "uint256",
          "name": "index",
          "type": "uint256"
        },
        {
          "internalType": "uint256",
          "name": "amount1",
          "type": "uint256"
        }
      ],
      "name": "bid",
      "outputs": [],
      "stateMutability": "payable",
      "type": "function"
    },
    {
      "inputs": [
        {
          "internalType": "uint256",
          "name": "",
          "type": "uint256"
        }
      ],
      "name": "bidCountP",
      "outputs": [
        {
          "internalType": "uint256",
          "name": "",
          "type": "uint256"
        }
      ],
      "stateMutability": "view",
      "type": "function"
    },
    {
      "inputs": [
        {
          "internalType": "uint256",
          "name": "index",
          "type": "uint256"
        }
      ],
      "name": "bidderClaim",
      "outputs": [],
      "stateMutability": "nonpayable",
      "type": "function"
    },
    {
      "inputs": [],
      "name": "checkToken0",
      "outputs": [
        {
          "internalType": "bool",
          "name": "",
          "type": "bool"
        }
      ],
      "stateMutability": "view",
      "type": "function"
    },
    {
      "inputs": [
        {
          "internalType": "uint256",
          "name": "index",
          "type": "uint256"
        }
      ],
      "name": "closeAuction",
      "outputs": [],
      "stateMutability": "nonpayable",
      "type": "function"
    },
    {
      "inputs": [
        {
          "internalType": "string",
          "name": "name",
          "type": "string"
        },
        {
          "internalType": "address",
          "name": "token0",
          "type": "address"
        },
        {
          "internalType": "address",
          "name": "token1",
          "type": "address"
        },
        {
          "internalType": "uint256",
          "name": "tokenId",
          "type": "uint256"
        },
        {
          "internalType": "uint256",
          "name": "tokenAmount0",
          "type": "uint256"
        },
        {
          "internalType": "uint256",
          "name": "amountMin1",
          "type": "uint256"
        },
        {
          "internalType": "uint256",
          "name": "amountMinIncr1",
          "type": "uint256"
        },
        {
          "internalType": "uint256",
          "name": "confirmTime",
          "type": "uint256"
        },
        {
          "internalType": "bool",
          "name": "addTime",
          "type": "bool"
        }
      ],
      "name": "createErc1155",
      "outputs": [],
      "stateMutability": "payable",
      "type": "function"
    },
    {
      "inputs": [
        {
          "internalType": "string",
          "name": "name",
          "type": "string"
        },
        {
          "internalType": "address",
          "name": "token0",
          "type": "address"
        },
        {
          "internalType": "address",
          "name": "token1",
          "type": "address"
        },
        {
          "internalType": "uint256",
          "name": "tokenId",
          "type": "uint256"
        },
        {
          "internalType": "uint256",
          "name": "tokenAmount0",
          "type": "uint256"
        },
        {
          "internalType": "uint256",
          "name": "amountMin1",
          "type": "uint256"
        },
        {
          "internalType": "uint256",
          "name": "amountMinIncr1",
          "type": "uint256"
        },
        {
          "internalType": "uint256",
          "name": "confirmTime",
          "type": "uint256"
        },
        {
          "internalType": "bool",
          "name": "addTime",
          "type": "bool"
        },
        {
          "internalType": "uint256",
          "name": "startTime",
          "type": "uint256"
        }
      ],
      "name": "createErc1155WithStartTime",
      "outputs": [],
      "stateMutability": "payable",
      "type": "function"
    },
    {
      "inputs": [
        {
          "internalType": "string",
          "name": "name",
          "type": "string"
        },
        {
          "internalType": "address",
          "name": "token0",
          "type": "address"
        },
        {
          "internalType": "address",
          "name": "token1",
          "type": "address"
        },
        {
          "internalType": "uint256",
          "name": "tokenId",
          "type": "uint256"
        },
        {
          "internalType": "uint256",
          "name": "amountMin1",
          "type": "uint256"
        },
        {
          "internalType": "uint256",
          "name": "amountMinIncr1",
          "type": "uint256"
        },
        {
          "internalType": "uint256",
          "name": "confirmTime",
          "type": "uint256"
        },
        {
          "internalType": "bool",
          "name": "addTime",
          "type": "bool"
        }
      ],
      "name": "createErc721",
      "outputs": [],
      "stateMutability": "payable",
      "type": "function"
    },
    {
      "inputs": [
        {
          "internalType": "string",
          "name": "name",
          "type": "string"
        },
        {
          "internalType": "address",
          "name": "token0",
          "type": "address"
        },
        {
          "internalType": "address",
          "name": "token1",
          "type": "address"
        },
        {
          "internalType": "uint256",
          "name": "tokenId",
          "type": "uint256"
        },
        {
          "internalType": "uint256",
          "name": "amountMin1",
          "type": "uint256"
        },
        {
          "internalType": "uint256",
          "name": "amountMinIncr1",
          "type": "uint256"
        },
        {
          "internalType": "uint256",
          "name": "confirmTime",
          "type": "uint256"
        },
        {
          "internalType": "bool",
          "name": "addTime",
          "type": "bool"
        },
        {
          "internalType": "uint256",
          "name": "startTime",
          "type": "uint256"
        }
      ],
      "name": "createErc721WithStartTime",
      "outputs": [],
      "stateMutability": "payable",
      "type": "function"
    },
    {
      "inputs": [
        {
          "internalType": "uint256",
          "name": "index",
          "type": "uint256"
        }
      ],
      "name": "creatorClaim",
      "outputs": [],
      "stateMutability": "nonpayable",
      "type": "function"
    },
    {
      "inputs": [
        {
          "internalType": "uint256",
          "name": "",
          "type": "uint256"
        }
      ],
      "name": "creatorClaimedP",
      "outputs": [
        {
          "internalType": "bool",
          "name": "",
          "type": "bool"
        }
      ],
      "stateMutability": "view",
      "type": "function"
    },
    {
      "inputs": [
        {
          "internalType": "uint256",
          "name": "index",
          "type": "uint256"
        }
      ],
      "name": "currentBidderAmount",
      "outputs": [
        {
          "internalType": "uint256",
          "name": "",
          "type": "uint256"
        }
      ],
      "stateMutability": "view",
      "type": "function"
    },
    {
      "inputs": [
        {
          "internalType": "uint256",
          "name": "",
          "type": "uint256"
        }
      ],
      "name": "currentBidderAmount1P",
      "outputs": [
        {
          "internalType": "uint256",
          "name": "",
          "type": "uint256"
        }
      ],
      "stateMutability": "view",
      "type": "function"
    },
    {
      "inputs": [
        {
          "internalType": "uint256",
          "name": "",
          "type": "uint256"
        }
      ],
      "name": "currentBidderP",
      "outputs": [
        {
          "internalType": "address payable",
          "name": "",
          "type": "address"
        }
      ],
      "stateMutability": "view",
      "type": "function"
    },
    {
      "inputs": [],
      "name": "fee",
      "outputs": [
        {
          "internalType": "uint256",
          "name": "",
          "type": "uint256"
        }
      ],
      "stateMutability": "view",
      "type": "function"
    },
    {
      "inputs": [],
      "name": "feeMax",
      "outputs": [
        {
          "internalType": "uint256",
          "name": "",
          "type": "uint256"
        }
      ],
      "stateMutability": "view",
      "type": "function"
    },
    {
      "inputs": [],
      "name": "feeTo",
      "outputs": [
        {
          "internalType": "address payable",
          "name": "",
          "type": "address"
        }
      ],
      "stateMutability": "view",
      "type": "function"
    },
    {
      "inputs": [
        {
          "internalType": "bytes32",
          "name": "key",
          "type": "bytes32"
        },
        {
          "internalType": "address",
          "name": "addr",
          "type": "address"
        }
      ],
      "name": "getConfig",
      "outputs": [
        {
          "internalType": "uint256",
          "name": "",
          "type": "uint256"
        }
      ],
      "stateMutability": "view",
      "type": "function"
    },
    {
      "inputs": [
        {
          "internalType": "bytes32",
          "name": "key",
          "type": "bytes32"
        }
      ],
      "name": "getConfig",
      "outputs": [
        {
          "internalType": "uint256",
          "name": "",
          "type": "uint256"
        }
      ],
      "stateMutability": "view",
      "type": "function"
    },
    {
      "inputs": [
        {
          "internalType": "bytes32",
          "name": "key",
          "type": "bytes32"
        },
        {
          "internalType": "uint256",
          "name": "index",
          "type": "uint256"
        }
      ],
      "name": "getConfig",
      "outputs": [
        {
          "internalType": "uint256",
          "name": "",
          "type": "uint256"
        }
      ],
      "stateMutability": "view",
      "type": "function"
    },
    {
      "inputs": [],
      "name": "getPoolCount",
      "outputs": [
        {
          "internalType": "uint256",
          "name": "",
          "type": "uint256"
        }
      ],
      "stateMutability": "view",
      "type": "function"
    },
    {
      "inputs": [
        {
          "internalType": "uint256",
          "name": "index",
          "type": "uint256"
        }
      ],
      "name": "getStartTime",
      "outputs": [
        {
          "internalType": "uint256",
          "name": "",
          "type": "uint256"
        }
      ],
      "stateMutability": "view",
      "type": "function"
    },
    {
      "inputs": [
        {
          "internalType": "address",
          "name": "_promoToken",
          "type": "address"
        }
      ],
      "name": "getTokenRate",
      "outputs": [
        {
          "internalType": "uint256",
          "name": "",
          "type": "uint256"
        }
      ],
      "stateMutability": "view",
      "type": "function"
    },
    {
      "inputs": [],
      "name": "governor",
      "outputs": [
        {
          "internalType": "address",
          "name": "",
          "type": "address"
        }
      ],
      "stateMutability": "view",
      "type": "function"
    },
    {
      "inputs": [
        {
          "internalType": "address",
          "name": "_governor",
          "type": "address"
        }
      ],
      "name": "initialize",
      "outputs": [],
      "stateMutability": "nonpayable",
      "type": "function"
    },
    {
      "inputs": [
        {
          "internalType": "address",
          "name": "",
          "type": "address"
        },
        {
          "internalType": "uint256",
          "name": "",
          "type": "uint256"
        }
      ],
      "name": "myBidP",
      "outputs": [
        {
          "internalType": "uint256",
          "name": "",
          "type": "uint256"
        }
      ],
      "stateMutability": "view",
      "type": "function"
    },
    {
      "inputs": [
        {
          "internalType": "address",
          "name": "",
          "type": "address"
        },
        {
          "internalType": "uint256",
          "name": "",
          "type": "uint256"
        }
      ],
      "name": "myBidderAmount1P",
      "outputs": [
        {
          "internalType": "uint256",
          "name": "",
          "type": "uint256"
        }
      ],
      "stateMutability": "view",
      "type": "function"
    },
    {
      "inputs": [
        {
          "internalType": "address",
          "name": "",
          "type": "address"
        },
        {
          "internalType": "uint256",
          "name": "",
          "type": "uint256"
        }
      ],
      "name": "myClaimedP",
      "outputs": [
        {
          "internalType": "bool",
          "name": "",
          "type": "bool"
        }
      ],
      "stateMutability": "view",
      "type": "function"
    },
    {
      "inputs": [
        {
          "internalType": "string",
          "name": "",
          "type": "string"
        }
      ],
      "name": "myNameP",
      "outputs": [
        {
          "internalType": "uint256",
          "name": "",
          "type": "uint256"
        }
      ],
      "stateMutability": "view",
      "type": "function"
    },
    {
      "inputs": [
        {
          "internalType": "address",
          "name": "",
          "type": "address"
        },
        {
          "internalType": "address",
          "name": "",
          "type": "address"
        },
        {
          "internalType": "uint256",
          "name": "",
          "type": "uint256"
        },
        {
          "internalType": "uint256",
          "name": "",
          "type": "uint256"
        },
        {
          "internalType": "bytes",
          "name": "",
          "type": "bytes"
        }
      ],
      "name": "onERC1155Received",
      "outputs": [
        {
          "internalType": "bytes4",
          "name": "",
          "type": "bytes4"
        }
      ],
      "stateMutability": "nonpayable",
      "type": "function"
    },
    {
      "inputs": [
        {
          "internalType": "address",
          "name": "",
          "type": "address"
        },
        {
          "internalType": "address",
          "name": "",
          "type": "address"
        },
        {
          "internalType": "uint256",
          "name": "",
          "type": "uint256"
        },
        {
          "internalType": "bytes",
          "name": "",
          "type": "bytes"
        }
      ],
      "name": "onERC721Received",
      "outputs": [
        {
          "internalType": "bytes4",
          "name": "",
          "type": "bytes4"
        }
      ],
      "stateMutability": "nonpayable",
      "type": "function"
    },
    {
      "inputs": [
        {
          "internalType": "uint256",
          "name": "",
          "type": "uint256"
        }
      ],
      "name": "poolTime",
      "outputs": [
        {
          "internalType": "bool",
          "name": "",
          "type": "bool"
        }
      ],
      "stateMutability": "view",
      "type": "function"
    },
    {
      "inputs": [
        {
          "internalType": "uint256",
          "name": "",
          "type": "uint256"
        }
      ],
      "name": "pools",
      "outputs": [
        {
          "internalType": "address payable",
          "name": "creator",
          "type": "address"
        },
        {
          "internalType": "string",
          "name": "name",
          "type": "string"
        },
        {
          "internalType": "address",
          "name": "token0",
          "type": "address"
        },
        {
          "internalType": "uint256",
          "name": "tokenId",
          "type": "uint256"
        },
        {
          "internalType": "uint256",
          "name": "tokenAmount0",
          "type": "uint256"
        },
        {
          "internalType": "uint256",
          "name": "amountMin1",
          "type": "uint256"
        },
        {
          "internalType": "uint256",
          "name": "amountMinIncr1",
          "type": "uint256"
        },
        {
          "internalType": "uint256",
          "name": "confirmTime",
          "type": "uint256"
        },
        {
          "internalType": "uint256",
          "name": "closeAt",
          "type": "uint256"
        },
        {
          "internalType": "uint256",
          "name": "nftType",
          "type": "uint256"
        }
      ],
      "stateMutability": "view",
      "type": "function"
    },
    {
      "inputs": [
        {
          "internalType": "address",
          "name": "",
          "type": "address"
        }
      ],
      "name": "promoTokenList",
      "outputs": [
        {
          "internalType": "uint256",
          "name": "",
          "type": "uint256"
        }
      ],
      "stateMutability": "view",
      "type": "function"
    },
    {
      "inputs": [],
      "name": "renounceGovernorship",
      "outputs": [],
      "stateMutability": "nonpayable",
      "type": "function"
    },
    {
      "inputs": [
        {
          "internalType": "bool",
          "name": "_checkToken0",
          "type": "bool"
        }
      ],
      "name": "setCheckToken0",
      "outputs": [
        {
          "internalType": "bool",
          "name": "",
          "type": "bool"
        }
      ],
      "stateMutability": "nonpayable",
      "type": "function"
    },
    {
      "inputs": [
        {
          "internalType": "bytes32",
          "name": "key",
          "type": "bytes32"
        },
        {
          "internalType": "uint256",
          "name": "value",
          "type": "uint256"
        }
      ],
      "name": "setConfig",
      "outputs": [],
      "stateMutability": "nonpayable",
      "type": "function"
    },
    {
      "inputs": [
        {
          "internalType": "bytes32",
          "name": "key",
          "type": "bytes32"
        },
        {
          "internalType": "address",
          "name": "addr",
          "type": "address"
        },
        {
          "internalType": "uint256",
          "name": "value",
          "type": "uint256"
        }
      ],
      "name": "setConfig",
      "outputs": [],
      "stateMutability": "nonpayable",
      "type": "function"
    },
    {
      "inputs": [
        {
          "internalType": "bytes32",
          "name": "key",
          "type": "bytes32"
        },
        {
          "internalType": "uint256",
          "name": "index",
          "type": "uint256"
        },
        {
          "internalType": "uint256",
          "name": "value",
          "type": "uint256"
        }
      ],
      "name": "setConfig",
      "outputs": [],
      "stateMutability": "nonpayable",
      "type": "function"
    },
    {
      "inputs": [
        {
          "internalType": "uint256",
          "name": "_fee",
          "type": "uint256"
        }
      ],
      "name": "setFee",
      "outputs": [
        {
          "internalType": "bool",
          "name": "",
          "type": "bool"
        }
      ],
      "stateMutability": "nonpayable",
      "type": "function"
    },
    {
      "inputs": [
        {
          "internalType": "uint256",
          "name": "_feeMax",
          "type": "uint256"
        }
      ],
      "name": "setFeeMax",
      "outputs": [
        {
          "internalType": "bool",
          "name": "",
          "type": "bool"
        }
      ],
      "stateMutability": "nonpayable",
      "type": "function"
    },
    {
      "inputs": [
        {
          "internalType": "address payable",
          "name": "_feeTo",
          "type": "address"
        }
      ],
      "name": "setFeeTo",
      "outputs": [
        {
          "internalType": "bool",
          "name": "",
          "type": "bool"
        }
      ],
      "stateMutability": "nonpayable",
      "type": "function"
    },
    {
      "inputs": [
        {
          "internalType": "address",
          "name": "_indexer",
          "type": "address"
        }
      ],
      "name": "setIndexer",
      "outputs": [
        {
          "internalType": "bool",
          "name": "",
          "type": "bool"
        }
      ],
      "stateMutability": "nonpayable",
      "type": "function"
    },
    {
      "inputs": [
        {
          "internalType": "uint256",
          "name": "index",
          "type": "uint256"
        },
        {
          "internalType": "bool",
          "name": "add",
          "type": "bool"
        }
      ],
      "name": "setPoolTime",
      "outputs": [
        {
          "internalType": "bool",
          "name": "",
          "type": "bool"
        }
      ],
      "stateMutability": "nonpayable",
      "type": "function"
    },
    {
      "inputs": [
        {
          "internalType": "address",
          "name": "_promoToken",
          "type": "address"
        },
        {
          "internalType": "uint256",
          "name": "_fee",
          "type": "uint256"
        }
      ],
      "name": "setPromoToken",
      "outputs": [
        {
          "internalType": "bool",
          "name": "",
          "type": "bool"
        }
      ],
      "stateMutability": "nonpayable",
      "type": "function"
    },
    {
      "inputs": [
        {
          "internalType": "address",
          "name": "_token0",
          "type": "address"
        },
        {
          "internalType": "bool",
          "name": "enable",
          "type": "bool"
        }
      ],
      "name": "setToken0List",
      "outputs": [
        {
          "internalType": "bool",
          "name": "",
          "type": "bool"
        }
      ],
      "stateMutability": "nonpayable",
      "type": "function"
    },
    {
      "inputs": [
        {
          "internalType": "uint256",
          "name": "",
          "type": "uint256"
        }
      ],
      "name": "startAt",
      "outputs": [
        {
          "internalType": "uint256",
          "name": "",
          "type": "uint256"
        }
      ],
      "stateMutability": "view",
      "type": "function"
    },
    {
      "inputs": [
        {
          "internalType": "address",
          "name": "",
          "type": "address"
        }
      ],
      "name": "token0List",
      "outputs": [
        {
          "internalType": "bool",
          "name": "",
          "type": "bool"
        }
      ],
      "stateMutability": "view",
      "type": "function"
    },
    {
      "inputs": [
        {
          "internalType": "uint256",
          "name": "",
          "type": "uint256"
        }
      ],
      "name": "token1P",
      "outputs": [
        {
          "internalType": "address",
          "name": "",
          "type": "address"
        }
      ],
      "stateMutability": "view",
      "type": "function"
    },
    {
      "inputs": [
        {
          "internalType": "address",
          "name": "_erc20Address",
          "type": "address"
        },
        {
          "internalType": "address",
          "name": "_to",
          "type": "address"
        },
        {
          "internalType": "uint256",
          "name": "_amount",
          "type": "uint256"
        }
      ],
      "name": "transferERC20",
      "outputs": [
        {
          "internalType": "bool",
          "name": "",
          "type": "bool"
        }
      ],
      "stateMutability": "nonpayable",
      "type": "function"
    },
    {
      "inputs": [
        {
          "internalType": "address",
          "name": "_erc721Address",
          "type": "address"
        },
        {
          "internalType": "address",
          "name": "_to",
          "type": "address"
        },
        {
          "internalType": "uint256",
          "name": "_tokenId",
          "type": "uint256"
        }
      ],
      "name": "transferERC721",
      "outputs": [
        {
          "internalType": "bool",
          "name": "",
          "type": "bool"
        }
      ],
      "stateMutability": "nonpayable",
      "type": "function"
    },
    {
      "inputs": [
        {
          "internalType": "address",
          "name": "newGovernor",
          "type": "address"
        }
      ],
      "name": "transferGovernorship",
      "outputs": [],
      "stateMutability": "nonpayable",
      "type": "function"
    }
  ],
  "bytecode": "0x60806040523480156200001157600080fd5b50d380156200001f57600080fd5b50d280156200002d57600080fd5b506175ba806200003e6000396000f3fe6080604052600436106102ff5760003560e01c806381c0c26311610190578063b87b9ce4116100dc578063e87ba7aa11610095578063f46901ed1161006f578063f46901ed14611116578063f5639ff51461116d578063f691877e146111c4578063ffbe9f1e1461121b576102ff565b8063e87ba7aa14611011578063ef5135ed14611068578063f23a6e61146110bf576102ff565b8063b87b9ce414610e41578063bc2be1be14610e98578063c4d66de814610eef578063d286bea514610f32578063ddca3f4314610f89578063ddf2be3f14610fce576102ff565b80639a67105711610149578063a12edc2011610123578063a12edc2014610d3f578063ac4afa3814610d5b578063b21544f314610dbb578063b6aa515b14610dfe576102ff565b80639a67105714610c3a5780639d6ce84b14610c915780639db5dbe414610ce8576102ff565b806381c0c26314610a685780638695f2d214610a995780638d32b65814610af05780638ec872e314610b475780638eec5d7014610b9e5780638f6ad53b14610be3576102ff565b80633a5028491161024f57806354dea00a1161020857806364cc79bd116101e257806364cc79bd1461090c57806369fe0e2d146109635780636dd5b69d146109ba5780637c013e9f14610a11576102ff565b806354dea00a14610856578063598647f8146108ad57806360de1d61146108c9576102ff565b80633a502849146106c25780633b431e921461071957806342fed70b1461077057806346e9aab11461078c578063507a0a3d146107a857806352665f47146107ff576102ff565b8063204e979d116102bc57806329dbd0981161029657806329dbd0981461058c5780632ad540ed146105e35780632ca77bf8146106265780633345dc9c1461066b576102ff565b8063204e979d146104d6578063236ed8f3146104f257806329a65f8f14610535576102ff565b8063017e7e58146103045780630c340a2414610349578063107d64ea1461038e578063150b7a02146103e557806315fe96dc1461043c5780631aca63761461047f575b600080fd5b34801561031057600080fd5b50d3801561031d57600080fd5b50d2801561032a57600080fd5b50610333611260565b6040516103409190616a6f565b60405180910390f35b34801561035557600080fd5b50d3801561036257600080fd5b50d2801561036f57600080fd5b50610378611286565b6040516103859190616a54565b60405180910390f35b34801561039a57600080fd5b50d380156103a757600080fd5b50d280156103b457600080fd5b506103cf60048036038101906103ca91906158dc565b6112ac565b6040516103dc9190616e16565b60405180910390f35b3480156103f157600080fd5b50d380156103fe57600080fd5b50d2801561040b57600080fd5b5061042660048036038101906104219190615752565b61132b565b6040516104339190616e31565b60405180910390f35b34801561044857600080fd5b50d3801561045557600080fd5b50d2801561046257600080fd5b5061047d600480360381019061047891906159e2565b611340565b005b34801561048b57600080fd5b50d3801561049857600080fd5b50d280156104a557600080fd5b506104c060048036038101906104bb9190615703565b6113a8565b6040516104cd9190616e16565b60405180910390f35b6104f060048036038101906104eb9190615c56565b6114a3565b005b3480156104fe57600080fd5b50d3801561050b57600080fd5b50d2801561051857600080fd5b50610533600480360381019061052e9190615e27565b611617565b005b34801561054157600080fd5b50d3801561054e57600080fd5b50d2801561055b57600080fd5b5061057660048036038101906105719190615e27565b611781565b604051610583919061724c565b60405180910390f35b34801561059857600080fd5b50d380156105a557600080fd5b50d280156105b257600080fd5b506105cd60048036038101906105c891906156b1565b611799565b6040516105da9190616e16565b60405180910390f35b3480156105ef57600080fd5b50d380156105fc57600080fd5b50d2801561060957600080fd5b50610624600480360381019061061f9190615e27565b6117b9565b005b34801561063257600080fd5b50d3801561063f57600080fd5b50d2801561064c57600080fd5b50610655611a2f565b6040516106629190616e16565b60405180910390f35b34801561067757600080fd5b50d3801561068457600080fd5b50d2801561069157600080fd5b506106ac60048036038101906106a79190615e79565b611a42565b6040516106b99190616e16565b60405180910390f35b3480156106ce57600080fd5b50d380156106db57600080fd5b50d280156106e857600080fd5b5061070360048036038101906106fe9190615864565b611ad3565b6040516107109190616e16565b60405180910390f35b34801561072557600080fd5b50d3801561073257600080fd5b50d2801561073f57600080fd5b5061075a600480360381019061075591906156b1565b611b90565b6040516107679190616e16565b60405180910390f35b61078a60048036038101906107859190615d34565b611c36565b005b6107a660048036038101906107a19190615aae565b611dab565b005b3480156107b457600080fd5b50d380156107c157600080fd5b50d280156107ce57600080fd5b506107e960048036038101906107e491906158a0565b611f25565b6040516107f6919061724c565b60405180910390f35b34801561080b57600080fd5b50d3801561081857600080fd5b50d2801561082557600080fd5b50610840600480360381019061083b9190615957565b611f53565b60405161084d919061724c565b60405180910390f35b34801561086257600080fd5b50d3801561086f57600080fd5b50d2801561087c57600080fd5b50610897600480360381019061089291906156b1565b611f8f565b6040516108a4919061724c565b60405180910390f35b6108c760048036038101906108c29190615eb5565b61202a565b005b3480156108d557600080fd5b50d380156108e257600080fd5b50d280156108ef57600080fd5b5061090a60048036038101906109059190615e27565b6127d5565b005b34801561091857600080fd5b50d3801561092557600080fd5b50d2801561093257600080fd5b5061094d60048036038101906109489190615e27565b612a02565b60405161095a919061724c565b60405180910390f35b34801561096f57600080fd5b50d3801561097c57600080fd5b50d2801561098957600080fd5b506109a4600480360381019061099f9190615e27565b612a1a565b6040516109b19190616e16565b60405180910390f35b3480156109c657600080fd5b50d380156109d357600080fd5b50d280156109e057600080fd5b506109fb60048036038101906109f6919061592e565b612a86565b604051610a08919061724c565b60405180910390f35b348015610a1d57600080fd5b50d38015610a2a57600080fd5b50d28015610a3757600080fd5b50610a526004803603810190610a4d9190615e27565b612aa3565b604051610a5f9190616e16565b60405180910390f35b348015610a7457600080fd5b50d38015610a8157600080fd5b50d28015610a8e57600080fd5b50610a97612b0f565b005b348015610aa557600080fd5b50d38015610ab257600080fd5b50d28015610abf57600080fd5b50610ada6004803603810190610ad59190615e27565b612c2a565b604051610ae7919061724c565b60405180910390f35b348015610afc57600080fd5b50d38015610b0957600080fd5b50d28015610b1657600080fd5b50610b316004803603810190610b2c91906158a0565b612eb2565b604051610b3e919061724c565b60405180910390f35b348015610b5357600080fd5b50d38015610b6057600080fd5b50d28015610b6d57600080fd5b50610b886004803603810190610b8391906159e2565b612ed7565b604051610b95919061724c565b60405180910390f35b348015610baa57600080fd5b50d38015610bb757600080fd5b50d28015610bc457600080fd5b50610bcd612efd565b604051610bda919061724c565b60405180910390f35b348015610bef57600080fd5b50d38015610bfc57600080fd5b50d28015610c0957600080fd5b50610c246004803603810190610c1f91906158a0565b612f0a565b604051610c319190616e16565b60405180910390f35b348015610c4657600080fd5b50d38015610c5357600080fd5b50d28015610c6057600080fd5b50610c7b6004803603810190610c7691906156b1565b612fb4565b604051610c88919061724c565b60405180910390f35b348015610c9d57600080fd5b50d38015610caa57600080fd5b50d28015610cb757600080fd5b50610cd26004803603810190610ccd9190615a6d565b612fcc565b604051610cdf919061724c565b60405180910390f35b348015610cf457600080fd5b50d38015610d0157600080fd5b50d28015610d0e57600080fd5b50610d296004803603810190610d249190615703565b612ffa565b604051610d369190616e16565b60405180910390f35b610d596004803603810190610d549190615b78565b613114565b005b348015610d6757600080fd5b50d38015610d7457600080fd5b50d28015610d8157600080fd5b50610d9c6004803603810190610d979190615e27565b61328f565b604051610db29a99989796959493929190616b19565b60405180910390f35b348015610dc757600080fd5b50d38015610dd457600080fd5b50d28015610de157600080fd5b50610dfc6004803603810190610df79190615993565b6133c8565b005b348015610e0a57600080fd5b50d38015610e1757600080fd5b50d28015610e2457600080fd5b50610e3f6004803603810190610e3a91906156b1565b61344f565b005b348015610e4d57600080fd5b50d38015610e5a57600080fd5b50d28015610e6757600080fd5b50610e826004803603810190610e7d9190615e27565b6134b5565b604051610e8f9190616e16565b60405180910390f35b348015610ea457600080fd5b50d38015610eb157600080fd5b50d28015610ebe57600080fd5b50610ed96004803603810190610ed49190615e27565b6134d5565b604051610ee6919061724c565b60405180910390f35b348015610efb57600080fd5b50d38015610f0857600080fd5b50d28015610f1557600080fd5b50610f306004803603810190610f2b91906156b1565b6134f2565b005b348015610f3e57600080fd5b50d38015610f4b57600080fd5b50d28015610f5857600080fd5b50610f736004803603810190610f6e91906158a0565b6135e4565b604051610f809190616e16565b60405180910390f35b348015610f9557600080fd5b50d38015610fa257600080fd5b50d28015610faf57600080fd5b50610fb8613613565b604051610fc5919061724c565b60405180910390f35b348015610fda57600080fd5b50d38015610fe757600080fd5b50d28015610ff457600080fd5b5061100f600480360381019061100a9190615a1e565b613619565b005b34801561101d57600080fd5b50d3801561102a57600080fd5b50d2801561103757600080fd5b50611052600480360381019061104d9190615e27565b61368a565b60405161105f9190616e16565b60405180910390f35b34801561107457600080fd5b50d3801561108157600080fd5b50d2801561108e57600080fd5b506110a960048036038101906110a49190615e27565b6136aa565b6040516110b69190616a54565b60405180910390f35b3480156110cb57600080fd5b50d380156110d857600080fd5b50d280156110e557600080fd5b5061110060048036038101906110fb91906157d2565b6136dd565b60405161110d9190616e31565b60405180910390f35b34801561112257600080fd5b50d3801561112f57600080fd5b50d2801561113c57600080fd5b50611157600480360381019061115291906156da565b6136f3565b6040516111649190616e16565b60405180910390f35b34801561117957600080fd5b50d3801561118657600080fd5b50d2801561119357600080fd5b506111ae60048036038101906111a99190615e27565b613799565b6040516111bb9190616a6f565b60405180910390f35b3480156111d057600080fd5b50d380156111dd57600080fd5b50d280156111ea57600080fd5b5061120560048036038101906112009190615e27565b6137cc565b604051611212919061724c565b60405180910390f35b34801561122757600080fd5b50d3801561123457600080fd5b50d2801561124157600080fd5b5061124a6137e4565b604051611257919061724c565b60405180910390f35b604360009054906101000a900473ffffffffffffffffffffffffffffffffffffffff1681565b603360009054906101000a900473ffffffffffffffffffffffffffffffffffffffff1681565b6000603360009054906101000a900473ffffffffffffffffffffffffffffffffffffffff1673ffffffffffffffffffffffffffffffffffffffff163373ffffffffffffffffffffffffffffffffffffffff161461130857600080fd5b81603f60006101000a81548160ff02191690831515021790555060019050919050565b600063150b7a0260e01b905095945050505050565b603360009054906101000a900473ffffffffffffffffffffffffffffffffffffffff1673ffffffffffffffffffffffffffffffffffffffff163373ffffffffffffffffffffffffffffffffffffffff161461139a57600080fd5b6113a482826137ea565b5050565b6000603360009054906101000a900473ffffffffffffffffffffffffffffffffffffffff1673ffffffffffffffffffffffffffffffffffffffff163373ffffffffffffffffffffffffffffffffffffffff161461140457600080fd5b8373ffffffffffffffffffffffffffffffffffffffff166342842e0e3085856040518463ffffffff1660e01b815260040161144193929190616d27565b600060405180830381600087803b15801561145b57600080fd5b505af192505050801561146c575060015b6114975761147861745b565b80611483575061148d565b600091505061149c565b3d6000803e3d6000fd5b600190505b9392505050565b603f60009054906101000a900460ff161561154557604060008973ffffffffffffffffffffffffffffffffffffffff1673ffffffffffffffffffffffffffffffffffffffff16815260200190815260200160002060009054906101000a900460ff16611544576040517f08c379a000000000000000000000000000000000000000000000000000000000815260040161153b90616eee565b60405180910390fd5b5b61154d61542c565b604051806060016040528087815260200186815260200185815250905061157c8a8a8a8a858860018942613821565b600073ffffffffffffffffffffffffffffffffffffffff168873ffffffffffffffffffffffffffffffffffffffff161461160b5787603e6000600160358054905003815260200190815260200160002060006101000a81548173ffffffffffffffffffffffffffffffffffffffff021916908373ffffffffffffffffffffffffffffffffffffffff1602179055505b50505050505050505050565b80603580549050811061165f576040517f08c379a000000000000000000000000000000000000000000000000000000000815260040161165690616f6e565b60405180910390fd5b81426035828154811061166e57fe5b90600052602060002090600a020160080154116116c0576040517f08c379a00000000000000000000000000000000000000000000000000000000081526004016116b790616f8e565b60405180910390fd5b60003390506116cf8185613efc565b61170e576040517f08c379a000000000000000000000000000000000000000000000000000000000815260040161170590616f4e565b60405180910390fd5b60006035858154811061171d57fe5b90600052602060002090600a02019050428160080181905550848273ffffffffffffffffffffffffffffffffffffffff167f1d78ca6377547e2f5434a04066a4dcac7670fd77e146b686b06bf8fbc06fb43560405160405180910390a35050505050565b603d6020528060005260406000206000915090505481565b60406020528060005260406000206000915054906101000a900460ff1681565b806035805490508110611801576040517f08c379a00000000000000000000000000000000000000000000000000000000081526004016117f890616f6e565b60405180910390fd5b81426035828154811061181057fe5b90600052602060002090600a0201600801541115611863576040517f08c379a000000000000000000000000000000000000000000000000000000000815260040161185a906171ce565b60405180910390fd5b60003390506118728185613efc565b6118b1576040517f08c379a00000000000000000000000000000000000000000000000000000000081526004016118a890616f4e565b60405180910390fd5b6036600085815260200190815260200160002060009054906101000a900460ff1615611912576040517f08c379a00000000000000000000000000000000000000000000000000000000081526004016119099061702e565b60405180910390fd5b61191b84613f84565b600073ffffffffffffffffffffffffffffffffffffffff166037600086815260200190815260200160002060009054906101000a900473ffffffffffffffffffffffffffffffffffffffff1673ffffffffffffffffffffffffffffffffffffffff1614611a295760006037600086815260200190815260200160002060009054906101000a900473ffffffffffffffffffffffffffffffffffffffff169050603c60008273ffffffffffffffffffffffffffffffffffffffff1673ffffffffffffffffffffffffffffffffffffffff168152602001908152602001600020600086815260200190815260200160002060009054906101000a900460ff16611a2757611a268186614840565b5b505b50505050565b603f60009054906101000a900460ff1681565b6000603360009054906101000a900473ffffffffffffffffffffffffffffffffffffffff1673ffffffffffffffffffffffffffffffffffffffff163373ffffffffffffffffffffffffffffffffffffffff1614611a9e57600080fd5b816044600085815260200190815260200160002060006101000a81548160ff0219169083151502179055506001905092915050565b6000603360009054906101000a900473ffffffffffffffffffffffffffffffffffffffff1673ffffffffffffffffffffffffffffffffffffffff163373ffffffffffffffffffffffffffffffffffffffff1614611b2f57600080fd5b81604060008573ffffffffffffffffffffffffffffffffffffffff1673ffffffffffffffffffffffffffffffffffffffff16815260200190815260200160002060006101000a81548160ff0219169083151502179055506001905092915050565b6000603360009054906101000a900473ffffffffffffffffffffffffffffffffffffffff1673ffffffffffffffffffffffffffffffffffffffff163373ffffffffffffffffffffffffffffffffffffffff1614611bec57600080fd5b81604560006101000a81548173ffffffffffffffffffffffffffffffffffffffff021916908373ffffffffffffffffffffffffffffffffffffffff16021790555060019050919050565b603f60009054906101000a900460ff1615611cd857604060008a73ffffffffffffffffffffffffffffffffffffffff1673ffffffffffffffffffffffffffffffffffffffff16815260200190815260200160002060009054906101000a900460ff16611cd7576040517f08c379a0000000000000000000000000000000000000000000000000000000008152600401611cce90616eee565b60405180910390fd5b5b611ce061542c565b6040518060600160405280888152602001878152602001868152509050611d0f8b8b8b8b858960018a8a613821565b600073ffffffffffffffffffffffffffffffffffffffff168973ffffffffffffffffffffffffffffffffffffffff1614611d9e5788603e6000600160358054905003815260200190815260200160002060006101000a81548173ffffffffffffffffffffffffffffffffffffffff021916908373ffffffffffffffffffffffffffffffffffffffff1602179055505b5050505050505050505050565b603f60009054906101000a900460ff1615611e4d57604060008873ffffffffffffffffffffffffffffffffffffffff1673ffffffffffffffffffffffffffffffffffffffff16815260200190815260200160002060009054906101000a900460ff16611e4c576040517f08c379a0000000000000000000000000000000000000000000000000000000008152600401611e4390616eee565b60405180910390fd5b5b600060019050611e5b61542c565b6040518060600160405280838152602001878152602001868152509050611e8a8a8a8a8a858960008a42613821565b600073ffffffffffffffffffffffffffffffffffffffff168873ffffffffffffffffffffffffffffffffffffffff1614611f195787603e6000600160358054905003815260200190815260200160002060006101000a81548173ffffffffffffffffffffffffffffffffffffffff021916908373ffffffffffffffffffffffffffffffffffffffff1602179055505b50505050505050505050565b603a6020528160005260406000208181548110611f3e57fe5b90600052602060002001600091509150505481565b6000603460008373ffffffffffffffffffffffffffffffffffffffff168560001c1860001b815260200190815260200160002054905092915050565b60008060415490506000604760008573ffffffffffffffffffffffffffffffffffffffff1673ffffffffffffffffffffffffffffffffffffffff168152602001908152602001600020541461202157604760008473ffffffffffffffffffffffffffffffffffffffff1673ffffffffffffffffffffffffffffffffffffffff1681526020019081526020016000205490505b80915050919050565b816035805490508110612072576040517f08c379a000000000000000000000000000000000000000000000000000000000815260040161206990616f6e565b60405180910390fd5b8242604660008381526020019081526020016000205411156120c9576040517f08c379a00000000000000000000000000000000000000000000000000000000081526004016120c0906171ee565b60405180910390fd5b8342603582815481106120d857fe5b90600052602060002090600a0201600801541161212a576040517f08c379a000000000000000000000000000000000000000000000000000000000815260040161212190616f8e565b60405180910390fd5b600033905060006035878154811061213e57fe5b90600052602060002090600a020190508173ffffffffffffffffffffffffffffffffffffffff168160000160009054906101000a900473ffffffffffffffffffffffffffffffffffffffff1673ffffffffffffffffffffffffffffffffffffffff1614156121e1576040517f08c379a00000000000000000000000000000000000000000000000000000000081526004016121d89061708e565b60405180910390fd5b6000861415612225576040517f08c379a000000000000000000000000000000000000000000000000000000000815260040161221c90616ece565b60405180910390fd5b806005015486101561226c576040517f08c379a0000000000000000000000000000000000000000000000000000000008152600401612263906170ce565b60405180910390fd5b61227587612c2a565b8610156122b7576040517f08c379a00000000000000000000000000000000000000000000000000000000081526004016122ae9061714e565b60405180910390fd5b6000603e600089815260200190815260200160002060009054906101000a900473ffffffffffffffffffffffffffffffffffffffff169050600073ffffffffffffffffffffffffffffffffffffffff168173ffffffffffffffffffffffffffffffffffffffff16141561236b57348714612366576040517f08c379a000000000000000000000000000000000000000000000000000000000815260040161235d9061716e565b60405180910390fd5b6123c5565b6123988330898473ffffffffffffffffffffffffffffffffffffffff16614bb4909392919063ffffffff16565b6123c43060008373ffffffffffffffffffffffffffffffffffffffff16614c3d9092919063ffffffff16565b5b600073ffffffffffffffffffffffffffffffffffffffff16603760008a815260200190815260200160002060009054906101000a900473ffffffffffffffffffffffffffffffffffffffff1673ffffffffffffffffffffffffffffffffffffffff161415801561244857506000603860008a815260200190815260200160002054115b156125ea57600073ffffffffffffffffffffffffffffffffffffffff168173ffffffffffffffffffffffffffffffffffffffff161415612514576037600089815260200190815260200160002060009054906101000a900473ffffffffffffffffffffffffffffffffffffffff1673ffffffffffffffffffffffffffffffffffffffff166108fc603860008b8152602001908152602001600020549081150290604051600060405180830381858888f1935050505015801561250e573d6000803e3d6000fd5b506125e9565b8073ffffffffffffffffffffffffffffffffffffffff1663a9059cbb603760008b815260200190815260200160002060009054906101000a900473ffffffffffffffffffffffffffffffffffffffff16603860008c8152602001908152602001600020546040518363ffffffff1660e01b8152600401612595929190616bbc565b602060405180830381600087803b1580156125af57600080fd5b505af11580156125c3573d6000803e3d6000fd5b505050506040513d601f19601f820116820180604052508101906125e79190615905565b505b5b60011515604460008a815260200190815260200160002060009054906101000a900460ff16151514156126375761262e826007015442614d9b90919063ffffffff16565b82600801819055505b82603760008a815260200190815260200160002060006101000a81548173ffffffffffffffffffffffffffffffffffffffff021916908373ffffffffffffffffffffffffffffffffffffffff16021790555086603860008a8152602001908152602001600020819055506001603d60008a81526020019081526020016000205401603d60008a815260200190815260200160002081905550603a60008473ffffffffffffffffffffffffffffffffffffffff1673ffffffffffffffffffffffffffffffffffffffff16815260200190815260200160002088908060018154018082558091505060019003906000526020600020016000909190919091505586603b60008573ffffffffffffffffffffffffffffffffffffffff1673ffffffffffffffffffffffffffffffffffffffff16815260200190815260200160002060008a8152602001908152602001600020819055507f4dcc013473324698bfbe263facec4ea4b1bc43624236542deabec62c2122b30583898985600801546040516127c39493929190616be5565b60405180910390a15050505050505050565b80603580549050811061281d576040517f08c379a000000000000000000000000000000000000000000000000000000000815260040161281490616f6e565b60405180910390fd5b81426035828154811061282c57fe5b90600052602060002090600a020160080154111561287f576040517f08c379a0000000000000000000000000000000000000000000000000000000008152600401612876906171ce565b60405180910390fd5b60003390508073ffffffffffffffffffffffffffffffffffffffff166037600086815260200190815260200160002060009054906101000a900473ffffffffffffffffffffffffffffffffffffffff1673ffffffffffffffffffffffffffffffffffffffff1614612925576040517f08c379a000000000000000000000000000000000000000000000000000000000815260040161291c9061710e565b60405180910390fd5b603c60008273ffffffffffffffffffffffffffffffffffffffff1673ffffffffffffffffffffffffffffffffffffffff168152602001908152602001600020600085815260200190815260200160002060009054906101000a900460ff16156129c3576040517f08c379a00000000000000000000000000000000000000000000000000000000081526004016129ba9061712e565b60405180910390fd5b6129cd8185614840565b6036600085815260200190815260200160002060009054906101000a900460ff166129fc576129fb84613f84565b5b50505050565b60386020528060005260406000206000915090505481565b6000603360009054906101000a900473ffffffffffffffffffffffffffffffffffffffff1673ffffffffffffffffffffffffffffffffffffffff163373ffffffffffffffffffffffffffffffffffffffff1614612a7657600080fd5b8160418190555060019050919050565b600060346000838152602001908152602001600020549050919050565b6000603360009054906101000a900473ffffffffffffffffffffffffffffffffffffffff1673ffffffffffffffffffffffffffffffffffffffff163373ffffffffffffffffffffffffffffffffffffffff1614612aff57600080fd5b8160428190555060019050919050565b603360009054906101000a900473ffffffffffffffffffffffffffffffffffffffff1673ffffffffffffffffffffffffffffffffffffffff163373ffffffffffffffffffffffffffffffffffffffff1614612b6957600080fd5b600073ffffffffffffffffffffffffffffffffffffffff16603360009054906101000a900473ffffffffffffffffffffffffffffffffffffffff1673ffffffffffffffffffffffffffffffffffffffff167fc7c0c772add429241571afb3805861fb3cfa2af374534088b76cdb4325a87e9a60405160405180910390a36000603360006101000a81548173ffffffffffffffffffffffffffffffffffffffff021916908373ffffffffffffffffffffffffffffffffffffffff160217905550565b6000612c3461544e565b60358381548110612c4157fe5b90600052602060002090600a0201604051806101400160405290816000820160009054906101000a900473ffffffffffffffffffffffffffffffffffffffff1673ffffffffffffffffffffffffffffffffffffffff1673ffffffffffffffffffffffffffffffffffffffff168152602001600182018054600181600116156101000203166002900480601f016020809104026020016040519081016040528092919081815260200182805460018160011615610100020316600290048015612d4a5780601f10612d1f57610100808354040283529160200191612d4a565b820191906000526020600020905b815481529060010190602001808311612d2d57829003601f168201915b505050505081526020016002820160009054906101000a900473ffffffffffffffffffffffffffffffffffffffff1673ffffffffffffffffffffffffffffffffffffffff1673ffffffffffffffffffffffffffffffffffffffff168152602001600382015481526020016004820154815260200160058201548152602001600682015481526020016007820154815260200160088201548152602001600982015481525050905060008160a001519050600073ffffffffffffffffffffffffffffffffffffffff166037600086815260200190815260200160002060009054906101000a900473ffffffffffffffffffffffffffffffffffffffff1673ffffffffffffffffffffffffffffffffffffffff1614612e9257612e8b8260c001516038600087815260200190815260200160002054614d9b90919063ffffffff16565b9050612ea8565b60008260a001511415612ea7578160c0015190505b5b8092505050919050565b603b602052816000526040600020602052806000526040600020600091509150505481565b600060346000838560001c1860001b815260200190815260200160002054905092915050565b6000603580549050905090565b6000603360009054906101000a900473ffffffffffffffffffffffffffffffffffffffff1673ffffffffffffffffffffffffffffffffffffffff163373ffffffffffffffffffffffffffffffffffffffff1614612f6657600080fd5b81604760008573ffffffffffffffffffffffffffffffffffffffff1673ffffffffffffffffffffffffffffffffffffffff168152602001908152602001600020819055506001905092915050565b60476020528060005260406000206000915090505481565b6039818051602081018201805184825260208301602085012081835280955050505050506000915090505481565b6000603360009054906101000a900473ffffffffffffffffffffffffffffffffffffffff1673ffffffffffffffffffffffffffffffffffffffff163373ffffffffffffffffffffffffffffffffffffffff161461305657600080fd5b8373ffffffffffffffffffffffffffffffffffffffff1663a9059cbb84846040518363ffffffff1660e01b8152600401613091929190616db6565b602060405180830381600087803b1580156130ab57600080fd5b505af19250505080156130dc57506040513d601f19601f820116820180604052508101906130d99190615905565b60015b613107576130e861745b565b806130f357506130fd565b600091505061310d565b3d6000803e3d6000fd5b50600190505b9392505050565b603f60009054906101000a900460ff16156131b657604060008973ffffffffffffffffffffffffffffffffffffffff1673ffffffffffffffffffffffffffffffffffffffff16815260200190815260200160002060009054906101000a900460ff166131b5576040517f08c379a00000000000000000000000000000000000000000000000000000000081526004016131ac90616eee565b60405180910390fd5b5b6000600190506131c461542c565b60405180606001604052808381526020018881526020018781525090506131f38b8b8b8b858a60008b8b613821565b600073ffffffffffffffffffffffffffffffffffffffff168973ffffffffffffffffffffffffffffffffffffffff16146132825788603e6000600160358054905003815260200190815260200160002060006101000a81548173ffffffffffffffffffffffffffffffffffffffff021916908373ffffffffffffffffffffffffffffffffffffffff1602179055505b5050505050505050505050565b6035818154811061329c57fe5b90600052602060002090600a02016000915090508060000160009054906101000a900473ffffffffffffffffffffffffffffffffffffffff1690806001018054600181600116156101000203166002900480601f01602080910402602001604051908101604052809291908181526020018280546001816001161561010002031660029004801561336e5780601f106133435761010080835404028352916020019161336e565b820191906000526020600020905b81548152906001019060200180831161335157829003601f168201915b5050505050908060020160009054906101000a900473ffffffffffffffffffffffffffffffffffffffff1690806003015490806004015490806005015490806006015490806007015490806008015490806009015490508a565b603360009054906101000a900473ffffffffffffffffffffffffffffffffffffffff1673ffffffffffffffffffffffffffffffffffffffff163373ffffffffffffffffffffffffffffffffffffffff161461342257600080fd5b61344a8273ffffffffffffffffffffffffffffffffffffffff168460001c1860001b826137ea565b505050565b603360009054906101000a900473ffffffffffffffffffffffffffffffffffffffff1673ffffffffffffffffffffffffffffffffffffffff163373ffffffffffffffffffffffffffffffffffffffff16146134a957600080fd5b6134b281614df0565b50565b60446020528060005260406000206000915054906101000a900460ff1681565b600060466000838152602001908152602001600020549050919050565b600060019054906101000a900460ff16806135115750613510614eea565b5b80613527575060008054906101000a900460ff16155b613566576040517f08c379a000000000000000000000000000000000000000000000000000000000815260040161355d906170ae565b60405180910390fd5b60008060019054906101000a900460ff1615905080156135b6576001600060016101000a81548160ff02191690831515021790555060016000806101000a81548160ff0219169083151502179055505b6135bf82614f01565b80156135e05760008060016101000a81548160ff0219169083151502179055505b5050565b603c6020528160005260406000206020528060005260406000206000915091509054906101000a900460ff1681565b60415481565b603360009054906101000a900473ffffffffffffffffffffffffffffffffffffffff1673ffffffffffffffffffffffffffffffffffffffff163373ffffffffffffffffffffffffffffffffffffffff161461367357600080fd5b613685828460001c1860001b826137ea565b505050565b60366020528060005260406000206000915054906101000a900460ff1681565b603e6020528060005260406000206000915054906101000a900473ffffffffffffffffffffffffffffffffffffffff1681565b600063f23a6e6160e01b90509695505050505050565b6000603360009054906101000a900473ffffffffffffffffffffffffffffffffffffffff1673ffffffffffffffffffffffffffffffffffffffff163373ffffffffffffffffffffffffffffffffffffffff161461374f57600080fd5b81604360006101000a81548173ffffffffffffffffffffffffffffffffffffffff021916908373ffffffffffffffffffffffffffffffffffffffff16021790555060019050919050565b60376020528060005260406000206000915054906101000a900473ffffffffffffffffffffffffffffffffffffffff1681565b60466020528060005260406000206000915090505481565b60425481565b8060346000848152602001908152602001600020541461381d578060346000848152602001908152602001600020819055505b5050565b600033905060008211613869576040517f08c379a000000000000000000000000000000000000000000000000000000000815260040161386090616eae565b60405180910390fd5b60008660006003811061387857fe5b602002015114156138be576040517f08c379a00000000000000000000000000000000000000000000000000000000081526004016138b590616e6e565b60405180910390fd5b6000866002600381106138cd57fe5b60200201511415613913576040517f08c379a000000000000000000000000000000000000000000000000000000000815260040161390a9061700e565b60405180910390fd5b61012c851015613958576040517f08c379a000000000000000000000000000000000000000000000000000000000815260040161394f90616e8e565b60405180910390fd5b62093a8085111561399e576040517f08c379a000000000000000000000000000000000000000000000000000000000815260040161399590616f2e565b60405180910390fd5b600f8a5111156139e3576040517f08c379a00000000000000000000000000000000000000000000000000000000081526004016139da9061704e565b60405180910390fd5b6139eb61544e565b81816000019073ffffffffffffffffffffffffffffffffffffffff16908173ffffffffffffffffffffffffffffffffffffffff16815250508a816020018190525089816040019073ffffffffffffffffffffffffffffffffffffffff16908173ffffffffffffffffffffffffffffffffffffffff16815250508781606001818152505086600060038110613a7b57fe5b602002015181608001818152505086600160038110613a9657fe5b60200201518160a001818152505086600260038110613ab157fe5b60200201518160c0018181525050858160e0018181525050613adc8684614d9b90919063ffffffff16565b8161010001818152505084816101200181815250506000603580549050905060358290806001815401808255809150506001900390600052602060002090600a020160009091909190915060008201518160000160006101000a81548173ffffffffffffffffffffffffffffffffffffffff021916908373ffffffffffffffffffffffffffffffffffffffff1602179055506020820151816001019080519060200190613b8a9291906154cd565b5060408201518160020160006101000a81548173ffffffffffffffffffffffffffffffffffffffff021916908373ffffffffffffffffffffffffffffffffffffffff160217905550606082015181600301556080820151816004015560a0820151816005015560c0820151816006015560e082015181600701556101008201518160080155610120820151816009015550508460446000600160358054905003815260200190815260200160002060006101000a81548160ff0219169083151502179055508360466000838152602001908152602001600020819055506000861415613d7d578a73ffffffffffffffffffffffffffffffffffffffff166342842e0e84308c6040518463ffffffff1660e01b8152600401613cad93929190616a8a565b600060405180830381600087803b158015613cc757600080fd5b505af1158015613cdb573d6000803e3d6000fd5b50505050604560009054906101000a900473ffffffffffffffffffffffffffffffffffffffff1673ffffffffffffffffffffffffffffffffffffffff166389cf642b8c8b6001603580549050036040518463ffffffff1660e01b8152600401613d4693929190616ddf565b600060405180830381600087803b158015613d6057600080fd5b505af1158015613d74573d6000803e3d6000fd5b50505050613e9b565b8a73ffffffffffffffffffffffffffffffffffffffff1663f242432a84308c8c600060038110613da957fe5b60200201516040518563ffffffff1660e01b8152600401613dcd9493929190616ac1565b600060405180830381600087803b158015613de757600080fd5b505af1158015613dfb573d6000803e3d6000fd5b50505050604560009054906101000a900473ffffffffffffffffffffffffffffffffffffffff1673ffffffffffffffffffffffffffffffffffffffff16632bbbbc008c858c6001603580549050036040518563ffffffff1660e01b8152600401613e689493929190616c8a565b600060405180830381600087803b158015613e8257600080fd5b505af1158015613e96573d6000803e3d6000fd5b505050505b808373ffffffffffffffffffffffffffffffffffffffff167f28b2cbbd79888d3b725620972a97edc8cc91dd3a2f0ab526c41ef08fa49d70a2848d88604051613ee69392919061720e565b60405180910390a3505050505050505050505050565b60008273ffffffffffffffffffffffffffffffffffffffff1660358381548110613f2257fe5b90600052602060002090600a020160000160009054906101000a900473ffffffffffffffffffffffffffffffffffffffff1673ffffffffffffffffffffffffffffffffffffffff161415613f795760019050613f7e565b600090505b92915050565b60016036600083815260200190815260200160002060006101000a81548160ff021916908315150217905550613fb861544e565b60358281548110613fc557fe5b90600052602060002090600a0201604051806101400160405290816000820160009054906101000a900473ffffffffffffffffffffffffffffffffffffffff1673ffffffffffffffffffffffffffffffffffffffff1673ffffffffffffffffffffffffffffffffffffffff168152602001600182018054600181600116156101000203166002900480601f0160208091040260200160405190810160405280929190818152602001828054600181600116156101000203166002900480156140ce5780601f106140a3576101008083540402835291602001916140ce565b820191906000526020600020905b8154815290600101906020018083116140b157829003601f168201915b505050505081526020016002820160009054906101000a900473ffffffffffffffffffffffffffffffffffffffff1673ffffffffffffffffffffffffffffffffffffffff1673ffffffffffffffffffffffffffffffffffffffff1681526020016003820154815260200160048201548152602001600582015481526020016006820154815260200160078201548152602001600882015481526020016009820154815250509050600073ffffffffffffffffffffffffffffffffffffffff166037600084815260200190815260200160002060009054906101000a900473ffffffffffffffffffffffffffffffffffffffff1673ffffffffffffffffffffffffffffffffffffffff16146146ee5760006037600084815260200190815260200160002060009054906101000a900473ffffffffffffffffffffffffffffffffffffffff16905060006038600085815260200190815260200160002054905060008073ffffffffffffffffffffffffffffffffffffffff16604360009054906101000a900473ffffffffffffffffffffffffffffffffffffffff1673ffffffffffffffffffffffffffffffffffffffff161415801561428e57506000604154115b156143da57600060476000603e600089815260200190815260200160002060009054906101000a900473ffffffffffffffffffffffffffffffffffffffff1673ffffffffffffffffffffffffffffffffffffffff1673ffffffffffffffffffffffffffffffffffffffff16815260200190815260200160002054146143ad576143a660425461439860476000603e60008b815260200190815260200160002060009054906101000a900473ffffffffffffffffffffffffffffffffffffffff1673ffffffffffffffffffffffffffffffffffffffff1673ffffffffffffffffffffffffffffffffffffffff16815260200190815260200160002054856150a890919063ffffffff16565b61511890919063ffffffff16565b90506143d9565b6143d66042546143c8604154856150a890919063ffffffff16565b61511890919063ffffffff16565b90505b5b60008211156146e657600073ffffffffffffffffffffffffffffffffffffffff16603e600087815260200190815260200160002060009054906101000a900473ffffffffffffffffffffffffffffffffffffffff1673ffffffffffffffffffffffffffffffffffffffff1614156145205760008111156144be57604360009054906101000a900473ffffffffffffffffffffffffffffffffffffffff1673ffffffffffffffffffffffffffffffffffffffff166108fc829081150290604051600060405180830381858888f193505050501580156144bc573d6000803e3d6000fd5b505b836000015173ffffffffffffffffffffffffffffffffffffffff166108fc6144ef838561516e90919063ffffffff16565b9081150290604051600060405180830381858888f1935050505015801561451a573d6000803e3d6000fd5b506146e5565b600081111561460d57603e600086815260200190815260200160002060009054906101000a900473ffffffffffffffffffffffffffffffffffffffff1673ffffffffffffffffffffffffffffffffffffffff1663a9059cbb604360009054906101000a900473ffffffffffffffffffffffffffffffffffffffff16836040518363ffffffff1660e01b81526004016145b9929190616bbc565b602060405180830381600087803b1580156145d357600080fd5b505af11580156145e7573d6000803e3d6000fd5b505050506040513d601f19601f8201168201806040525081019061460b9190615905565b505b603e600086815260200190815260200160002060009054906101000a900473ffffffffffffffffffffffffffffffffffffffff1673ffffffffffffffffffffffffffffffffffffffff1663a9059cbb8560000151614674848661516e90919063ffffffff16565b6040518363ffffffff1660e01b8152600401614691929190616bbc565b602060405180830381600087803b1580156146ab57600080fd5b505af11580156146bf573d6000803e3d6000fd5b505050506040513d601f19601f820116820180604052508101906146e39190615905565b505b5b5050506147ff565b6000816101200151141561477c57806040015173ffffffffffffffffffffffffffffffffffffffff166342842e0e30836000015184606001516040518463ffffffff1660e01b815260040161474593929190616c53565b600060405180830381600087803b15801561475f57600080fd5b505af1158015614773573d6000803e3d6000fd5b505050506147fe565b806040015173ffffffffffffffffffffffffffffffffffffffff1663f242432a308360000151846060015185608001516040518563ffffffff1660e01b81526004016147cb9493929190616ccf565b600060405180830381600087803b1580156147e557600080fd5b505af11580156147f9573d6000803e3d6000fd5b505050505b5b7fd8138f8a3f377c5259ca548e70e4c2de94f129f5a11036a15b69513cba2b426a816000015183604051614834929190616bbc565b60405180910390a15050565b6001603c60008473ffffffffffffffffffffffffffffffffffffffff1673ffffffffffffffffffffffffffffffffffffffff168152602001908152602001600020600083815260200190815260200160002060006101000a81548160ff0219169083151502179055506148b161544e565b603582815481106148be57fe5b90600052602060002090600a0201604051806101400160405290816000820160009054906101000a900473ffffffffffffffffffffffffffffffffffffffff1673ffffffffffffffffffffffffffffffffffffffff1673ffffffffffffffffffffffffffffffffffffffff168152602001600182018054600181600116156101000203166002900480601f0160208091040260200160405190810160405280929190818152602001828054600181600116156101000203166002900480156149c75780601f1061499c576101008083540402835291602001916149c7565b820191906000526020600020905b8154815290600101906020018083116149aa57829003601f168201915b505050505081526020016002820160009054906101000a900473ffffffffffffffffffffffffffffffffffffffff1673ffffffffffffffffffffffffffffffffffffffff1673ffffffffffffffffffffffffffffffffffffffff168152602001600382015481526020016004820154815260200160058201548152602001600682015481526020016007820154815260200160088201548152602001600982015481525050905060008161012001511415614af857806040015173ffffffffffffffffffffffffffffffffffffffff166342842e0e308584606001516040518463ffffffff1660e01b8152600401614ac193929190616d27565b600060405180830381600087803b158015614adb57600080fd5b505af1158015614aef573d6000803e3d6000fd5b50505050614b76565b806040015173ffffffffffffffffffffffffffffffffffffffff1663f242432a3085846060015185608001516040518563ffffffff1660e01b8152600401614b439493929190616d5e565b600060405180830381600087803b158015614b5d57600080fd5b505af1158015614b71573d6000803e3d6000fd5b505050505b7fd8138f8a3f377c5259ca548e70e4c2de94f129f5a11036a15b69513cba2b426a8383604051614ba7929190616db6565b60405180910390a1505050565b614c37846323b872dd60e01b858585604051602401614bd593929190616d27565b604051602081830303815290604052907bffffffffffffffffffffffffffffffffffffffffffffffffffffffff19166020820180517bffffffffffffffffffffffffffffffffffffffffffffffffffffffff83818316178352505050506151be565b50505050565b6000811480614cd6575060008373ffffffffffffffffffffffffffffffffffffffff1663dd62ed3e30856040518363ffffffff1660e01b8152600401614c84929190616c2a565b60206040518083038186803b158015614c9c57600080fd5b505afa158015614cb0573d6000803e3d6000fd5b505050506040513d601f19601f82011682018060405250810190614cd49190615e50565b145b614d15576040517f08c379a0000000000000000000000000000000000000000000000000000000008152600401614d0c906171ae565b60405180910390fd5b614d968363095ea7b360e01b8484604051602401614d34929190616db6565b604051602081830303815290604052907bffffffffffffffffffffffffffffffffffffffffffffffffffffffff19166020820180517bffffffffffffffffffffffffffffffffffffffffffffffffffffffff83818316178352505050506151be565b505050565b600080828401905083811015614de6576040517f08c379a0000000000000000000000000000000000000000000000000000000008152600401614ddd90616f0e565b60405180910390fd5b8091505092915050565b600073ffffffffffffffffffffffffffffffffffffffff168173ffffffffffffffffffffffffffffffffffffffff161415614e2a57600080fd5b8073ffffffffffffffffffffffffffffffffffffffff16603360009054906101000a900473ffffffffffffffffffffffffffffffffffffffff1673ffffffffffffffffffffffffffffffffffffffff167fc7c0c772add429241571afb3805861fb3cfa2af374534088b76cdb4325a87e9a60405160405180910390a380603360006101000a81548173ffffffffffffffffffffffffffffffffffffffff021916908373ffffffffffffffffffffffffffffffffffffffff16021790555050565b6000803090506000813b9050600081149250505090565b600060019054906101000a900460ff1680614f205750614f1f614eea565b5b80614f36575060008054906101000a900460ff16155b614f75576040517f08c379a0000000000000000000000000000000000000000000000000000000008152600401614f6c906170ae565b60405180910390fd5b60008060019054906101000a900460ff161590508015614fc5576001600060016101000a81548160ff02191690831515021790555060016000806101000a81548160ff0219169083151502179055505b81603360006101000a81548173ffffffffffffffffffffffffffffffffffffffff021916908373ffffffffffffffffffffffffffffffffffffffff160217905550603360009054906101000a900473ffffffffffffffffffffffffffffffffffffffff1673ffffffffffffffffffffffffffffffffffffffff16600073ffffffffffffffffffffffffffffffffffffffff167fc7c0c772add429241571afb3805861fb3cfa2af374534088b76cdb4325a87e9a60405160405180910390a380156150a45760008060016101000a81548160ff0219169083151502179055505b5050565b6000808314156150bb5760009050615112565b60008284029050828482816150cc57fe5b041461510d576040517f08c379a00000000000000000000000000000000000000000000000000000000081526004016151049061706e565b60405180910390fd5b809150505b92915050565b600080821161515c576040517f08c379a000000000000000000000000000000000000000000000000000000000815260040161515390616fee565b60405180910390fd5b81838161516557fe5b04905092915050565b6000828211156151b3576040517f08c379a00000000000000000000000000000000000000000000000000000000081526004016151aa90616fae565b60405180910390fd5b818303905092915050565b6060615220826040518060400160405280602081526020017f5361666545524332303a206c6f772d6c6576656c2063616c6c206661696c65648152508573ffffffffffffffffffffffffffffffffffffffff166152859092919063ffffffff16565b905060008151111561528057808060200190518101906152409190615905565b61527f576040517f08c379a00000000000000000000000000000000000000000000000000000000081526004016152769061718e565b60405180910390fd5b5b505050565b6060615294848460008561529d565b90509392505050565b6060824710156152e2576040517f08c379a00000000000000000000000000000000000000000000000000000000081526004016152d990616fce565b60405180910390fd5b6152eb856153b2565b61532a576040517f08c379a0000000000000000000000000000000000000000000000000000000008152600401615321906170ee565b60405180910390fd5b600060608673ffffffffffffffffffffffffffffffffffffffff1685876040516153549190616a3d565b60006040518083038185875af1925050503d8060008114615391576040519150601f19603f3d011682016040523d82523d6000602084013e615396565b606091505b50915091506153a68282866153c5565b92505050949350505050565b600080823b905060008111915050919050565b606083156153d557829050615425565b6000835111156153e85782518084602001fd5b816040517f08c379a000000000000000000000000000000000000000000000000000000000815260040161541c9190616e4c565b60405180910390fd5b9392505050565b6040518060600160405280600390602082028036833780820191505090505090565b604051806101400160405280600073ffffffffffffffffffffffffffffffffffffffff16815260200160608152602001600073ffffffffffffffffffffffffffffffffffffffff168152602001600081526020016000815260200160008152602001600081526020016000815260200160008152602001600081525090565b828054600181600116156101000203166002900490600052602060002090601f016020900481019282601f1061550e57805160ff191683800117855561553c565b8280016001018555821561553c579182015b8281111561553b578251825591602001919060010190615520565b5b509050615549919061554d565b5090565b5b8082111561556657600081600090555060010161554e565b5090565b60008135905061557981617511565b61558281617314565b905092915050565b60008135905061559981617528565b6155a281617326565b905092915050565b6000813590506155b98161753f565b92915050565b6000815190506155ce8161753f565b92915050565b6000813590506155e381617556565b92915050565b60008083601f8401126155fb57600080fd5b8235905067ffffffffffffffff81111561561457600080fd5b60208301915083600182028301111561562c57600080fd5b9250929050565b600082601f83011261564457600080fd5b813561565761565282617294565b617267565b9150808252602083016020830185838301111561567357600080fd5b61567e8382846173fb565b50505092915050565b6000813590506156968161756d565b92915050565b6000815190506156ab8161756d565b92915050565b6000602082840312156156c357600080fd5b60006156d18482850161556a565b91505092915050565b6000602082840312156156ec57600080fd5b60006156fa8482850161558a565b91505092915050565b60008060006060848603121561571857600080fd5b60006157268682870161556a565b93505060206157378682870161556a565b925050604061574886828701615687565b9150509250925092565b60008060008060006080868803121561576a57600080fd5b60006157788882890161556a565b95505060206157898882890161556a565b945050604061579a88828901615687565b935050606086013567ffffffffffffffff8111156157b757600080fd5b6157c3888289016155e9565b92509250509295509295909350565b60008060008060008060a087890312156157eb57600080fd5b60006157f989828a0161556a565b965050602061580a89828a0161556a565b955050604061581b89828a01615687565b945050606061582c89828a01615687565b935050608087013567ffffffffffffffff81111561584957600080fd5b61585589828a016155e9565b92509250509295509295509295565b6000806040838503121561587757600080fd5b60006158858582860161556a565b9250506020615896858286016155aa565b9150509250929050565b600080604083850312156158b357600080fd5b60006158c18582860161556a565b92505060206158d285828601615687565b9150509250929050565b6000602082840312156158ee57600080fd5b60006158fc848285016155aa565b91505092915050565b60006020828403121561591757600080fd5b6000615925848285016155bf565b91505092915050565b60006020828403121561594057600080fd5b600061594e848285016155d4565b91505092915050565b6000806040838503121561596a57600080fd5b6000615978858286016155d4565b92505060206159898582860161556a565b9150509250929050565b6000806000606084860312156159a857600080fd5b60006159b6868287016155d4565b93505060206159c78682870161556a565b92505060406159d886828701615687565b9150509250925092565b600080604083850312156159f557600080fd5b6000615a03858286016155d4565b9250506020615a1485828601615687565b9150509250929050565b600080600060608486031215615a3357600080fd5b6000615a41868287016155d4565b9350506020615a5286828701615687565b9250506040615a6386828701615687565b9150509250925092565b600060208284031215615a7f57600080fd5b600082013567ffffffffffffffff811115615a9957600080fd5b615aa584828501615633565b91505092915050565b600080600080600080600080610100898b031215615acb57600080fd5b600089013567ffffffffffffffff811115615ae557600080fd5b615af18b828c01615633565b9850506020615b028b828c0161556a565b9750506040615b138b828c0161556a565b9650506060615b248b828c01615687565b9550506080615b358b828c01615687565b94505060a0615b468b828c01615687565b93505060c0615b578b828c01615687565b92505060e0615b688b828c016155aa565b9150509295985092959890939650565b60008060008060008060008060006101208a8c031215615b9757600080fd5b60008a013567ffffffffffffffff811115615bb157600080fd5b615bbd8c828d01615633565b9950506020615bce8c828d0161556a565b9850506040615bdf8c828d0161556a565b9750506060615bf08c828d01615687565b9650506080615c018c828d01615687565b95505060a0615c128c828d01615687565b94505060c0615c238c828d01615687565b93505060e0615c348c828d016155aa565b925050610100615c468c828d01615687565b9150509295985092959850929598565b60008060008060008060008060006101208a8c031215615c7557600080fd5b60008a013567ffffffffffffffff811115615c8f57600080fd5b615c9b8c828d01615633565b9950506020615cac8c828d0161556a565b9850506040615cbd8c828d0161556a565b9750506060615cce8c828d01615687565b9650506080615cdf8c828d01615687565b95505060a0615cf08c828d01615687565b94505060c0615d018c828d01615687565b93505060e0615d128c828d01615687565b925050610100615d248c828d016155aa565b9150509295985092959850929598565b6000806000806000806000806000806101408b8d031215615d5457600080fd5b60008b013567ffffffffffffffff811115615d6e57600080fd5b615d7a8d828e01615633565b9a50506020615d8b8d828e0161556a565b9950506040615d9c8d828e0161556a565b9850506060615dad8d828e01615687565b9750506080615dbe8d828e01615687565b96505060a0615dcf8d828e01615687565b95505060c0615de08d828e01615687565b94505060e0615df18d828e01615687565b935050610100615e038d828e016155aa565b925050610120615e158d828e01615687565b9150509295989b9194979a5092959850565b600060208284031215615e3957600080fd5b6000615e4784828501615687565b91505092915050565b600060208284031215615e6257600080fd5b6000615e708482850161569c565b91505092915050565b60008060408385031215615e8c57600080fd5b6000615e9a85828601615687565b9250506020615eab858286016155aa565b9150509250929050565b60008060408385031215615ec857600080fd5b6000615ed685828601615687565b9250506020615ee785828601615687565b9150509250929050565b615efa816173c5565b82525050565b615f0981617326565b82525050565b615f1881617326565b82525050565b615f2781617314565b82525050565b615f3681617314565b82525050565b615f4581617338565b82525050565b615f548161734e565b82525050565b6000615f65826172c0565b615f6f81856172e7565b9350615f7f81856020860161740a565b80840191505092915050565b6000615f96826172cb565b615fa081856172f2565b9350615fb081856020860161740a565b615fb98161743d565b840191505092915050565b6000615fcf826172cb565b615fd98185617303565b9350615fe981856020860161740a565b615ff28161743d565b840191505092915050565b600061600a602183617303565b91507f7468652076616c7565206f6620746f6b656e416d6f756e7430206973207a657260008301527f6f000000000000000000000000000000000000000000000000000000000000006020830152604082019050919050565b6000616070602c83617303565b91507f7468652076616c7565206f6620636f6e6669726d54696d65206c65737320746860008301527f616e2035206d696e7574657300000000000000000000000000000000000000006020830152604082019050919050565b60006160d6601d83617303565b91507f73746172742074696d652073686f756c64206e6f74206265207a65726f0000006000830152602082019050919050565b6000616116601c83617303565b91507f7468652076616c7565206f6620616d6f756e7431206973207a65726f000000006000830152602082019050919050565b6000616156600e83617303565b91507f696e76616c696420746f6b656e300000000000000000000000000000000000006000830152602082019050919050565b6000616196601b83617303565b91507f536166654d6174683a206164646974696f6e206f766572666c6f7700000000006000830152602082019050919050565b60006161d6602b83617303565b91507f7468652076616c7565206f6620636f6e6669726d54696d65206973206578636560008301527f65646564203720646179730000000000000000000000000000000000000000006020830152604082019050919050565b600061623c601a83617303565b91507f73656e646572206973206e6f7420706f6f6c2063726561746f720000000000006000830152602082019050919050565b600061627c601883617303565b91507f7468697320706f6f6c20646f6573206e6f7420657869737400000000000000006000830152602082019050919050565b60006162bc601383617303565b91507f7468697320706f6f6c20697320636c6f736564000000000000000000000000006000830152602082019050919050565b60006162fc601e83617303565b91507f536166654d6174683a207375627472616374696f6e206f766572666c6f7700006000830152602082019050919050565b600061633c602683617303565b91507f416464726573733a20696e73756666696369656e742062616c616e636520666f60008301527f722063616c6c00000000000000000000000000000000000000000000000000006020830152604082019050919050565b60006163a2601a83617303565b91507f536166654d6174683a206469766973696f6e206279207a65726f0000000000006000830152602082019050919050565b60006163e2602383617303565b91507f7468652076616c7565206f6620616d6f756e744d696e496e637231206973207a60008301527f65726f00000000000000000000000000000000000000000000000000000000006020830152604082019050919050565b6000616448601d83617303565b91507f63726561746f722068617320636c61696d6564207468697320706f6f6c0000006000830152602082019050919050565b6000616488601e83617303565b91507f746865206c656e677468206f66206e616d6520697320746f6f206c6f6e6700006000830152602082019050919050565b60006164c8602183617303565b91507f536166654d6174683a206d756c7469706c69636174696f6e206f766572666c6f60008301527f77000000000000000000000000000000000000000000000000000000000000006020830152604082019050919050565b600061652e602a83617303565b91507f63726561746f722063616e2774206269642074686520706f6f6c20637265617460008301527f65642062792073656c66000000000000000000000000000000000000000000006020830152604082019050919050565b6000616594602e83617303565b91507f436f6e747261637420696e7374616e63652068617320616c726561647920626560008301527f656e20696e697469616c697a65640000000000000000000000000000000000006020830152604082019050919050565b60006165fa603283617303565b91507f7468652062696420616d6f756e74206973206c6f776572207468616e206d696e60008301527f696d756d2062696464657220616d6f756e7400000000000000000000000000006020830152604082019050919050565b60006166606000836172d6565b9150600082019050919050565b600061667a601d83617303565b91507f416464726573733a2063616c6c20746f206e6f6e2d636f6e74726163740000006000830152602082019050919050565b60006166ba602583617303565b91507f73656e646572206973206e6f74207468652077696e6e6572206f66207468697360008301527f20706f6f6c0000000000000000000000000000000000000000000000000000006020830152604082019050919050565b6000616720601c83617303565b91507f73656e6465722068617320636c61696d6564207468697320706f6f6c000000006000830152602082019050919050565b6000616760603683617303565b91507f7468652062696420616d6f756e74206973206c6f776572207468616e2074686560008301527f2063757272656e742062696464657220616d6f756e74000000000000000000006020830152604082019050919050565b60006167c6601283617303565b91507f696e76616c69642045544820616d6f756e7400000000000000000000000000006000830152602082019050919050565b6000616806602a83617303565b91507f5361666545524332303a204552433230206f7065726174696f6e20646964206e60008301527f6f742073756363656564000000000000000000000000000000000000000000006020830152604082019050919050565b600061686c603683617303565b91507f5361666545524332303a20617070726f76652066726f6d206e6f6e2d7a65726f60008301527f20746f206e6f6e2d7a65726f20616c6c6f77616e6365000000000000000000006020830152604082019050919050565b60006168d2601783617303565b91507f7468697320706f6f6c206973206e6f7420636c6f7365640000000000000000006000830152602082019050919050565b6000616912601c83617303565b91507f7468697320706f6f6c206973206e6f74207374617274656420796574000000006000830152602082019050919050565b60006101408301600083015161695e6000860182615f00565b50602083015184820360208601526169768282615f8b565b915050604083015161698b6040860182615f1e565b50606083015161699e6060860182616a1f565b5060808301516169b16080860182616a1f565b5060a08301516169c460a0860182616a1f565b5060c08301516169d760c0860182616a1f565b5060e08301516169ea60e0860182616a1f565b506101008301516169ff610100860182616a1f565b50610120830151616a14610120860182616a1f565b508091505092915050565b616a28816173bb565b82525050565b616a37816173bb565b82525050565b6000616a498284615f5a565b915081905092915050565b6000602082019050616a696000830184615f2d565b92915050565b6000602082019050616a846000830184615f0f565b92915050565b6000606082019050616a9f6000830186615ef1565b616aac6020830185615f2d565b616ab96040830184616a2e565b949350505050565b600060a082019050616ad66000830187615ef1565b616ae36020830186615f2d565b616af06040830185616a2e565b616afd6060830184616a2e565b8181036080830152616b0e81616653565b905095945050505050565b600061014082019050616b2f600083018d615f0f565b8181036020830152616b41818c615fc4565b9050616b50604083018b615f2d565b616b5d606083018a616a2e565b616b6a6080830189616a2e565b616b7760a0830188616a2e565b616b8460c0830187616a2e565b616b9160e0830186616a2e565b616b9f610100830185616a2e565b616bad610120830184616a2e565b9b9a5050505050505050505050565b6000604082019050616bd16000830185615ef1565b616bde6020830184616a2e565b9392505050565b6000608082019050616bfa6000830187615ef1565b616c076020830186616a2e565b616c146040830185616a2e565b616c216060830184616a2e565b95945050505050565b6000604082019050616c3f6000830185615f2d565b616c4c6020830184615f2d565b9392505050565b6000606082019050616c686000830186615f2d565b616c756020830185615ef1565b616c826040830184616a2e565b949350505050565b6000608082019050616c9f6000830187615f2d565b616cac6020830186615ef1565b616cb96040830185616a2e565b616cc66060830184616a2e565b95945050505050565b600060a082019050616ce46000830187615f2d565b616cf16020830186615ef1565b616cfe6040830185616a2e565b616d0b6060830184616a2e565b8181036080830152616d1c81616653565b905095945050505050565b6000606082019050616d3c6000830186615f2d565b616d496020830185615f2d565b616d566040830184616a2e565b949350505050565b600060a082019050616d736000830187615f2d565b616d806020830186615f2d565b616d8d6040830185616a2e565b616d9a6060830184616a2e565b8181036080830152616dab81616653565b905095945050505050565b6000604082019050616dcb6000830185615f2d565b616dd86020830184616a2e565b9392505050565b6000606082019050616df46000830186615f2d565b616e016020830185616a2e565b616e0e6040830184616a2e565b949350505050565b6000602082019050616e2b6000830184615f3c565b92915050565b6000602082019050616e466000830184615f4b565b92915050565b60006020820190508181036000830152616e668184615fc4565b905092915050565b60006020820190508181036000830152616e8781615ffd565b9050919050565b60006020820190508181036000830152616ea781616063565b9050919050565b60006020820190508181036000830152616ec7816160c9565b9050919050565b60006020820190508181036000830152616ee781616109565b9050919050565b60006020820190508181036000830152616f0781616149565b9050919050565b60006020820190508181036000830152616f2781616189565b9050919050565b60006020820190508181036000830152616f47816161c9565b9050919050565b60006020820190508181036000830152616f678161622f565b9050919050565b60006020820190508181036000830152616f878161626f565b9050919050565b60006020820190508181036000830152616fa7816162af565b9050919050565b60006020820190508181036000830152616fc7816162ef565b9050919050565b60006020820190508181036000830152616fe78161632f565b9050919050565b6000602082019050818103600083015261700781616395565b9050919050565b60006020820190508181036000830152617027816163d5565b9050919050565b600060208201905081810360008301526170478161643b565b9050919050565b600060208201905081810360008301526170678161647b565b9050919050565b60006020820190508181036000830152617087816164bb565b9050919050565b600060208201905081810360008301526170a781616521565b9050919050565b600060208201905081810360008301526170c781616587565b9050919050565b600060208201905081810360008301526170e7816165ed565b9050919050565b600060208201905081810360008301526171078161666d565b9050919050565b60006020820190508181036000830152617127816166ad565b9050919050565b6000602082019050818103600083015261714781616713565b9050919050565b6000602082019050818103600083015261716781616753565b9050919050565b60006020820190508181036000830152617187816167b9565b9050919050565b600060208201905081810360008301526171a7816167f9565b9050919050565b600060208201905081810360008301526171c78161685f565b9050919050565b600060208201905081810360008301526171e7816168c5565b9050919050565b6000602082019050818103600083015261720781616905565b9050919050565b600060608201905081810360008301526172288186616945565b90506172376020830185615f2d565b6172446040830184616a2e565b949350505050565b60006020820190506172616000830184616a2e565b92915050565b6000604051905081810181811067ffffffffffffffff8211171561728a57600080fd5b8060405250919050565b600067ffffffffffffffff8211156172ab57600080fd5b601f19601f8301169050602081019050919050565b600081519050919050565b600081519050919050565b600082825260208201905092915050565b600081905092915050565b600082825260208201905092915050565b600082825260208201905092915050565b600061731f8261737a565b9050919050565b60006173318261737a565b9050919050565b60008115159050919050565b6000819050919050565b60007fffffffff0000000000000000000000000000000000000000000000000000000082169050919050565b600073ffffffffffffffffffffffffffffffffffffffff82169050919050565b600074ffffffffffffffffffffffffffffffffffffffffff82169050919050565b6000819050919050565b60006173d0826173d7565b9050919050565b60006173e2826173e9565b9050919050565b60006173f48261737a565b9050919050565b82818337600083830152505050565b60005b8381101561742857808201518184015260208101905061740d565b83811115617437576000848401525b50505050565b6000601f19601f8301169050919050565b60008160e01c9050919050565b600060443d101561746b5761750e565b60046000803e61747c60005161744e565b6308c379a0811461748d575061750e565b60405160043d036004823e80513d602482011167ffffffffffffffff821117156174b95750505061750e565b808201805167ffffffffffffffff8111156174d857505050505061750e565b8060208301013d85018111156174f35750505050505061750e565b6174fc8261743d565b60208401016040528296505050505050505b90565b61751a8161739a565b811461752557600080fd5b50565b6175318161739a565b811461753c57600080fd5b50565b61754881617338565b811461755357600080fd5b50565b61755f81617344565b811461756a57600080fd5b50565b617576816173bb565b811461758157600080fd5b5056fea26469706673582212205c64221a9b801aab491cfdb6f17b56f7abb4d175b98375328c68aeb344a6a67064736f6c634300060c0033",
  "source": "// SPDX-License-Identifier: MIT\n\npragma solidity ^0.6.0;\npragma experimental ABIEncoderV2;\n\nimport \"@openzeppelin/contracts/math/SafeMath.sol\";\nimport \"@openzeppelin/contracts/token/ERC20/SafeERC20.sol\";\nimport \"@openzeppelin/contracts/token/ERC20/IERC20.sol\";\nimport \"@openzeppelin/contracts/token/ERC721/IERC721.sol\";\nimport \"@openzeppelin/contracts/token/ERC721/IERC721Receiver.sol\";\nimport \"./Governable.sol\";\nimport \"./interfaces/IERC1155.sol\";\nimport \"./NFTIndexer.sol\";\n\ncontract EnglishAuctionNFT is Configurable, IERC721Receiver {\n    using SafeMath for uint256;\n    using SafeERC20 for IERC20;\n\n    uint256 internal constant TypeErc721 = 0;\n    uint256 internal constant TypeErc1155 = 1;\n    address internal constant DeadAddress =\n        0x000000000000000000000000000000000000dEaD;\n    address internal constant UniSwapContract =\n        0x7a250d5630B4cF539739dF2C5dAcb4c659F2488D;\n\n    struct Pool {\n        // address of pool creator\n        address payable creator;\n        // pool name\n        string name;\n        // address of sell token\n        address token0;\n        // token id of token0\n        uint256 tokenId;\n        // amount of token id of token0\n        uint256 tokenAmount0;\n        // minimum amount of ETH that creator want to swap\n        uint256 amountMin1;\n        // minimum incremental amount of token1\n        uint256 amountMinIncr1;\n        // how many seconds the pool will be live since last bid\n        uint256 confirmTime;\n        // the timestamp in seconds the pool will be closed\n        uint256 closeAt;\n        // NFT token type\n        uint256 nftType;\n    }\n\n    Pool[] public pools;\n\n    // pool index => a flag that if creator is claimed the pool\n    mapping(uint256 => bool) public creatorClaimedP;\n    // pool index => the candidate of winner who bid the highest amount1 in current round\n    mapping(uint256 => address payable) public currentBidderP;\n    // pool index => the highest amount1 in current round\n    mapping(uint256 => uint256) public currentBidderAmount1P;\n\n    // name => pool index + 1\n    mapping(string => uint256) public myNameP;\n\n    // account => array of pool index\n    mapping(address => uint256[]) public myBidP;\n    // account => pool index => bid amount1\n    mapping(address => mapping(uint256 => uint256)) public myBidderAmount1P;\n    // account => pool index => claim flag\n    mapping(address => mapping(uint256 => bool)) public myClaimedP;\n\n    // pool index => bid count; v1.15.0\n    mapping(uint256 => uint256) public bidCountP;\n    // pool index => address of buy token; v1.16.0\n    mapping(uint256 => address) public token1P;\n\n    // check if token0 in whitelist\n    bool public checkToken0;\n\n    // token0 address => true or false\n    mapping(address => bool) public token0List;\n\n    uint256 public fee;\n\n    uint256 public feeMax;\n\n    address payable public feeTo;\n\n    // pool add time after bid\n    mapping(uint256 => bool) public poolTime;\n\n    address indexer;\n\n    // the timestamp in seconds the pool will start\n    mapping(uint256 => uint256) public startAt;\n\n    // promo token list\n    mapping(address => uint256) public promoTokenList;\n\n    event Created(\n        address indexed sender,\n        uint256 indexed index,\n        Pool pool,\n        address token1,\n        uint256 startTime\n    );\n    event Bid(address sender, uint256 index, uint256 amount1, uint256 closeAt);\n    event Claimed(address sender, uint256 index);\n    event AuctionClosed(address indexed sender, uint256 indexed index);\n\n    function initialize(address _governor) public override initializer {\n        super.initialize(_governor);\n    }\n\n    function createErc721(\n        // name of the pool\n        string memory name,\n        // address of token0\n        address token0,\n        // address of token1\n        address token1,\n        // token id of token0\n        uint256 tokenId,\n        // minimum amount of token1\n        uint256 amountMin1,\n        // minimum incremental amount of token1\n        uint256 amountMinIncr1,\n        // confirmation time\n        uint256 confirmTime,\n        // add close time after bid\n        bool addTime\n    ) external payable {\n        if (checkToken0) {\n            require(token0List[token0], \"invalid token0\");\n        }\n        uint256 tokenAmount0 = 1;\n        uint256[3] memory amounts = [tokenAmount0, amountMin1, amountMinIncr1];\n        _create(\n            name,\n            token0,\n            token1,\n            tokenId,\n            amounts,\n            confirmTime,\n            TypeErc721,\n            addTime,\n            now\n        );\n        if (token1 != address(0)) {\n            token1P[pools.length - 1] = token1;\n        }\n    }\n\n    function createErc721WithStartTime(\n        // name of the pool\n        string memory name,\n        // address of token0\n        address token0,\n        // address of token1\n        address token1,\n        // token id of token0\n        uint256 tokenId,\n        // minimum amount of token1\n        uint256 amountMin1,\n        // minimum incremental amount of token1\n        uint256 amountMinIncr1,\n        // confirmation time\n        uint256 confirmTime,\n        // add close time after bid\n        bool addTime,\n        uint256 startTime\n    ) external payable {\n        if (checkToken0) {\n            require(token0List[token0], \"invalid token0\");\n        }\n        uint256 tokenAmount0 = 1;\n        uint256[3] memory amounts = [tokenAmount0, amountMin1, amountMinIncr1];\n        _create(\n            name,\n            token0,\n            token1,\n            tokenId,\n            amounts,\n            confirmTime,\n            TypeErc721,\n            addTime,\n            startTime\n        );\n        if (token1 != address(0)) {\n            token1P[pools.length - 1] = token1;\n        }\n    }\n\n    function createErc1155WithStartTime(\n        // name of the pool\n        string memory name,\n        // address of token0\n        address token0,\n        // address of token1\n        address token1,\n        // token id of token0\n        uint256 tokenId,\n        // amount of token id of token0\n        uint256 tokenAmount0,\n        // minimum amount of token1\n        uint256 amountMin1,\n        // minimum incremental amount of token1\n        uint256 amountMinIncr1,\n        // confirmation time\n        uint256 confirmTime,\n        // add close time after bid\n        bool addTime,\n        uint256 startTime\n    ) external payable {\n        if (checkToken0) {\n            require(token0List[token0], \"invalid token0\");\n        }\n        uint256[3] memory amounts = [tokenAmount0, amountMin1, amountMinIncr1];\n        _create(\n            name,\n            token0,\n            token1,\n            tokenId,\n            amounts,\n            confirmTime,\n            TypeErc1155,\n            addTime,\n            startTime\n        );\n        if (token1 != address(0)) {\n            token1P[pools.length - 1] = token1;\n        }\n    }\n\n    function createErc1155(\n        // name of the pool\n        string memory name,\n        // address of token0\n        address token0,\n        // address of token1\n        address token1,\n        // token id of token0\n        uint256 tokenId,\n        // amount of token id of token0\n        uint256 tokenAmount0,\n        // minimum amount of token1\n        uint256 amountMin1,\n        // minimum incremental amount of token1\n        uint256 amountMinIncr1,\n        // confirmation time\n        uint256 confirmTime,\n        // add close time after bid\n        bool addTime\n    ) external payable {\n        if (checkToken0) {\n            require(token0List[token0], \"invalid token0\");\n        }\n        uint256[3] memory amounts = [tokenAmount0, amountMin1, amountMinIncr1];\n        _create(\n            name,\n            token0,\n            token1,\n            tokenId,\n            amounts,\n            confirmTime,\n            TypeErc1155,\n            addTime,\n            now\n        );\n        if (token1 != address(0)) {\n            token1P[pools.length - 1] = token1;\n        }\n    }\n\n    function _create(\n        // name of the pool\n        string memory name,\n        // address of token0\n        address token0,\n        // address of token1\n        address token1,\n        // token id of token0\n        uint256 tokenId,\n        // 0: uint tokenAmount0, amount of token id of token0\n        // 1: uint amountMin1, minimum amount of token1\n        // 2: uint amountMinIncr1, minimum incremental amount of token1\n        uint256[3] memory amounts,\n        // confirmation time\n        uint256 confirmTime,\n        // NFT token type\n        uint256 nftType,\n        bool addTime,\n        uint256 startTime\n    ) private {\n        address payable creator = msg.sender;\n\n        require(startTime > 0, \"start time should not be zero\");\n        require(amounts[0] != 0, \"the value of tokenAmount0 is zero\");\n        require(amounts[2] != 0, \"the value of amountMinIncr1 is zero\");\n        require(\n            confirmTime >= 5 minutes,\n            \"the value of confirmTime less than 5 minutes\"\n        );\n        require(\n            confirmTime <= 7 days,\n            \"the value of confirmTime is exceeded 7 days\"\n        );\n        require(bytes(name).length <= 15, \"the length of name is too long\");\n\n        // creator pool\n        Pool memory pool;\n        pool.creator = creator;\n        pool.name = name;\n        pool.token0 = token0;\n        pool.tokenId = tokenId;\n        pool.tokenAmount0 = amounts[0];\n        pool.amountMin1 = amounts[1];\n        pool.amountMinIncr1 = amounts[2];\n        pool.confirmTime = confirmTime;\n        pool.closeAt = startTime.add(confirmTime);\n        pool.nftType = nftType;\n\n        uint256 index = pools.length;\n        pools.push(pool);\n        poolTime[pools.length - 1] = addTime;\n\n        startAt[index] = startTime;\n\n        // transfer tokenId of token0 to this contract\n        if (nftType == TypeErc721) {\n            IERC721(token0).safeTransferFrom(creator, address(this), tokenId);\n            NFTIndexer(indexer).new721Auction(\n                token0,\n                tokenId,\n                pools.length - 1\n            );\n        } else {\n            IERC1155(token0).safeTransferFrom(\n                creator,\n                address(this),\n                tokenId,\n                amounts[0],\n                \"\"\n            );\n            NFTIndexer(indexer).new1155Auction(\n                token0,\n                creator,\n                tokenId,\n                pools.length - 1\n            );\n        }\n\n        emit Created(creator, index, pool, token1, startTime);\n    }\n\n    function bid(\n        // pool index\n        uint256 index,\n        // amount of token1\n        uint256 amount1\n    )\n        external\n        payable\n        isPoolExist(index)\n        isPoolStarted(index)\n        isPoolNotClosed(index)\n    {\n        address payable sender = msg.sender;\n\n        Pool storage pool = pools[index];\n        require(\n            pool.creator != sender,\n            \"creator can't bid the pool created by self\"\n        );\n        require(amount1 != 0, \"the value of amount1 is zero\");\n        require(\n            amount1 >= pool.amountMin1,\n            \"the bid amount is lower than minimum bidder amount\"\n        );\n\n        require(\n            amount1 >= currentBidderAmount(index),\n            \"the bid amount is lower than the current bidder amount\"\n        );\n\n        address token1 = token1P[index];\n        if (token1 == address(0)) {\n            require(amount1 == msg.value, \"invalid ETH amount\");\n        } else {\n            IERC20(token1).safeTransferFrom(sender, address(this), amount1);\n            IERC20(token1).safeApprove(address(this), 0);\n        }\n\n        // return ETH to previous bidder\n        if (\n            currentBidderP[index] != address(0) &&\n            currentBidderAmount1P[index] > 0\n        ) {\n            if (token1 == address(0)) {\n                currentBidderP[index].transfer(currentBidderAmount1P[index]);\n            } else {\n                IERC20(token1).transfer(\n                    currentBidderP[index],\n                    currentBidderAmount1P[index]\n                );\n            }\n        }\n\n        // update closeAt\n        if (poolTime[index] == true) {\n            pool.closeAt = now.add(pool.confirmTime);\n        }\n\n        // record new winner\n        currentBidderP[index] = sender;\n        currentBidderAmount1P[index] = amount1;\n        bidCountP[index] = bidCountP[index] + 1;\n\n        myBidP[sender].push(index);\n        myBidderAmount1P[sender][index] = amount1;\n\n        emit Bid(sender, index, amount1, pool.closeAt);\n    }\n\n    function creatorClaim(uint256 index)\n        external\n        isPoolExist(index)\n        isPoolClosed(index)\n    {\n        address payable sender = msg.sender;\n        require(isCreator(sender, index), \"sender is not pool creator\");\n        require(!creatorClaimedP[index], \"creator has claimed this pool\");\n\n        _creatorClaim(index);\n\n        if (currentBidderP[index] != address(0)) {\n            address bidder = currentBidderP[index];\n            if (!myClaimedP[bidder][index]) {\n                _bidderClaim(bidder, index);\n            }\n        }\n    }\n\n    function bidderClaim(uint256 index)\n        external\n        isPoolExist(index)\n        isPoolClosed(index)\n    {\n        address payable sender = msg.sender;\n        require(\n            currentBidderP[index] == sender,\n            \"sender is not the winner of this pool\"\n        );\n        require(!myClaimedP[sender][index], \"sender has claimed this pool\");\n\n        _bidderClaim(sender, index);\n\n        if (!creatorClaimedP[index]) {\n            _creatorClaim(index);\n        }\n    }\n\n    function _creatorClaim(uint256 index) internal {\n        creatorClaimedP[index] = true;\n        Pool memory pool = pools[index];\n\n        if (currentBidderP[index] != address(0)) {\n            address payable winner = currentBidderP[index];\n            uint256 amount1 = currentBidderAmount1P[index];\n\n            uint256 auctionFee = 0;\n            if (feeTo != address(0) && fee > 0) {\n                if (promoTokenList[token1P[index]] != 0) {\n                    auctionFee = amount1\n                        .mul(promoTokenList[token1P[index]])\n                        .div(feeMax);\n                } else {\n                    auctionFee = amount1.mul(fee).div(feeMax);\n                }\n            }\n\n            if (amount1 > 0) {\n                if (token1P[index] == address(0)) {\n                    // transfer ETH to creator\n                    if (auctionFee > 0) {\n                        feeTo.transfer(auctionFee);\n                    }\n                    pool.creator.transfer(amount1.sub(auctionFee));\n                } else {\n                    if (auctionFee > 0) {\n                        IERC20(token1P[index]).transfer(feeTo, auctionFee);\n                    }\n                    IERC20(token1P[index]).transfer(\n                        pool.creator,\n                        amount1.sub(auctionFee)\n                    );\n                }\n            }\n        } else {\n            // transfer token0 back to creator\n            if (pool.nftType == TypeErc721) {\n                IERC721(pool.token0).safeTransferFrom(\n                    address(this),\n                    pool.creator,\n                    pool.tokenId\n                );\n            } else {\n                IERC1155(pool.token0).safeTransferFrom(\n                    address(this),\n                    pool.creator,\n                    pool.tokenId,\n                    pool.tokenAmount0,\n                    \"\"\n                );\n            }\n        }\n\n        emit Claimed(pool.creator, index);\n    }\n\n    function _bidderClaim(address sender, uint256 index) internal {\n        myClaimedP[sender][index] = true;\n\n        Pool memory pool = pools[index];\n\n        // transfer token0 to bidder\n        if (pool.nftType == TypeErc721) {\n            IERC721(pool.token0).safeTransferFrom(\n                address(this),\n                sender,\n                pool.tokenId\n            );\n        } else {\n            IERC1155(pool.token0).safeTransferFrom(\n                address(this),\n                sender,\n                pool.tokenId,\n                pool.tokenAmount0,\n                \"\"\n            );\n        }\n\n        emit Claimed(sender, index);\n    }\n\n    function closeAuction(uint256 index)\n        external\n        isPoolExist(index)\n        isPoolNotClosed(index)\n    {\n        address payable sender = msg.sender;\n        require(isCreator(sender, index), \"sender is not pool creator\");\n\n        Pool storage pool = pools[index];\n        pool.closeAt = now;\n\n        emit AuctionClosed(sender, index);\n    }\n\n    function onERC721Received(\n        address,\n        address,\n        uint256,\n        bytes calldata\n    ) external override returns (bytes4) {\n        return this.onERC721Received.selector;\n    }\n\n    function onERC1155Received(\n        address,\n        address,\n        uint256,\n        uint256,\n        bytes calldata\n    ) external returns (bytes4) {\n        return this.onERC1155Received.selector;\n    }\n\n    function getPoolCount() external view returns (uint256) {\n        return pools.length;\n    }\n\n    function getStartTime(uint256 index) external view returns (uint256) {\n        return startAt[index];\n    }\n\n    function setFee(uint256 _fee) external governance returns (bool) {\n        fee = _fee;\n        return true;\n    }\n\n    function setFeeMax(uint256 _feeMax) external governance returns (bool) {\n        feeMax = _feeMax;\n        return true;\n    }\n\n    function setFeeTo(address payable _feeTo)\n        external\n        governance\n        returns (bool)\n    {\n        feeTo = _feeTo;\n        return true;\n    }\n\n    function setCheckToken0(bool _checkToken0)\n        external\n        governance\n        returns (bool)\n    {\n        checkToken0 = _checkToken0;\n        return true;\n    }\n\n    function setIndexer(address _indexer) external governance returns (bool) {\n        indexer = _indexer;\n        return true;\n    }\n\n    function setToken0List(address _token0, bool enable)\n        external\n        governance\n        returns (bool)\n    {\n        token0List[_token0] = enable;\n        return true;\n    }\n\n    function setPoolTime(uint256 index, bool add)\n        external\n        governance\n        returns (bool)\n    {\n        poolTime[index] = add;\n        return true;\n    }\n\n    function currentBidderAmount(uint256 index) public view returns (uint256) {\n        Pool memory pool = pools[index];\n        uint256 amount = pool.amountMin1;\n\n        if (currentBidderP[index] != address(0)) {\n            amount = currentBidderAmount1P[index].add(pool.amountMinIncr1);\n        } else if (pool.amountMin1 == 0) {\n            amount = pool.amountMinIncr1;\n        }\n\n        return amount;\n    }\n\n    function isCreator(address target, uint256 index)\n        private\n        view\n        returns (bool)\n    {\n        if (pools[index].creator == target) {\n            return true;\n        }\n        return false;\n    }\n\n    modifier isPoolClosed(uint256 index) {\n        require(pools[index].closeAt <= now, \"this pool is not closed\");\n        _;\n    }\n\n    modifier isPoolNotClosed(uint256 index) {\n        require(pools[index].closeAt > now, \"this pool is closed\");\n        _;\n    }\n\n    modifier isPoolExist(uint256 index) {\n        require(index < pools.length, \"this pool does not exist\");\n        _;\n    }\n\n    modifier isPoolStarted(uint256 index) {\n        require(startAt[index] <= now, \"this pool is not started yet\");\n        _;\n    }\n\n    function setPromoToken(address _promoToken, uint256 _fee)\n        external\n        governance\n        returns (bool)\n    {\n        promoTokenList[_promoToken] = _fee;\n        return true;\n    }\n\n    function getTokenRate(address _promoToken) external view returns (uint256) {\n        uint256 rate = fee;\n        if (promoTokenList[_promoToken] != 0) {\n            rate = promoTokenList[_promoToken];\n        }\n        return rate;\n    }\n\n    function transferERC20(\n        address _erc20Address,\n        address _to,\n        uint256 _amount\n    ) external governance returns (bool) {\n        try IERC20(_erc20Address).transfer(_to, _amount) {\n            return true;\n        } catch Error(string memory) {\n            return false;\n        }\n    }\n\n    function transferERC721(\n        address _erc721Address,\n        address _to,\n        uint256 _tokenId\n    ) external governance returns (bool) {\n        try\n            IERC721(_erc721Address).safeTransferFrom(\n                address(this),\n                _to,\n                _tokenId\n            )\n        {\n            return true;\n        } catch Error(string memory) {\n            return false;\n        }\n    }\n}\n",
  "sourcePath": "/Users/horipse/workspace/define-contract/contracts/EnglishAuctionNFT.sol",
  "compiler": {
    "name": "solc",
    "version": "0.6.12+commit.5e807836.Emscripten.clang"
  },
  "schemaVersion": "2.0.1",
  "updatedAt": "2021-08-22T08:34:22.599Z"
}