{
  "contractName": "FixedSwapNFT",
  "abi": [
    {
      "anonymous": false,
      "inputs": [
        {
          "indexed": true,
          "internalType": "address",
          "name": "sender",
          "type": "address"
        },
        {
          "indexed": true,
          "internalType": "uint256",
          "name": "index",
          "type": "uint256"
        },
        {
          "indexed": false,
          "internalType": "uint256",
          "name": "amount0",
          "type": "uint256"
        }
      ],
      "name": "Claimed",
      "type": "event"
    },
    {
      "anonymous": false,
      "inputs": [
        {
          "indexed": true,
          "internalType": "address",
          "name": "sender",
          "type": "address"
        },
        {
          "indexed": true,
          "internalType": "uint256",
          "name": "index",
          "type": "uint256"
        },
        {
          "components": [
            {
              "internalType": "address payable",
              "name": "creator",
              "type": "address"
            },
            {
              "internalType": "string",
              "name": "name",
              "type": "string"
            },
            {
              "internalType": "address",
              "name": "token0",
              "type": "address"
            },
            {
              "internalType": "address",
              "name": "token1",
              "type": "address"
            },
            {
              "internalType": "uint256",
              "name": "tokenId",
              "type": "uint256"
            },
            {
              "internalType": "uint256",
              "name": "amountTotal0",
              "type": "uint256"
            },
            {
              "internalType": "uint256",
              "name": "amountTotal1",
              "type": "uint256"
            },
            {
              "internalType": "uint256",
              "name": "closeAt",
              "type": "uint256"
            },
            {
              "internalType": "uint256",
              "name": "nftType",
              "type": "uint256"
            }
          ],
          "indexed": false,
          "internalType": "struct FixedSwapNFT.Pool",
          "name": "pool",
          "type": "tuple"
        },
        {
          "indexed": false,
          "internalType": "uint256",
          "name": "startTime",
          "type": "uint256"
        }
      ],
      "name": "Created",
      "type": "event"
    },
    {
      "anonymous": false,
      "inputs": [
        {
          "indexed": true,
          "internalType": "address",
          "name": "previousGovernor",
          "type": "address"
        },
        {
          "indexed": true,
          "internalType": "address",
          "name": "newGovernor",
          "type": "address"
        }
      ],
      "name": "GovernorshipTransferred",
      "type": "event"
    },
    {
      "anonymous": false,
      "inputs": [
        {
          "indexed": true,
          "internalType": "address",
          "name": "sender",
          "type": "address"
        },
        {
          "indexed": true,
          "internalType": "uint256",
          "name": "index",
          "type": "uint256"
        },
        {
          "indexed": false,
          "internalType": "uint256",
          "name": "amount0",
          "type": "uint256"
        },
        {
          "indexed": false,
          "internalType": "uint256",
          "name": "amount1",
          "type": "uint256"
        }
      ],
      "name": "Swapped",
      "type": "event"
    },
    {
      "inputs": [],
      "name": "checkToken0",
      "outputs": [
        {
          "internalType": "bool",
          "name": "",
          "type": "bool"
        }
      ],
      "stateMutability": "view",
      "type": "function"
    },
    {
      "inputs": [
        {
          "internalType": "string",
          "name": "name",
          "type": "string"
        },
        {
          "internalType": "address",
          "name": "token0",
          "type": "address"
        },
        {
          "internalType": "address",
          "name": "token1",
          "type": "address"
        },
        {
          "internalType": "uint256",
          "name": "tokenId",
          "type": "uint256"
        },
        {
          "internalType": "uint256",
          "name": "amountTotal0",
          "type": "uint256"
        },
        {
          "internalType": "uint256",
          "name": "amountTotal1",
          "type": "uint256"
        },
        {
          "internalType": "uint256",
          "name": "duration",
          "type": "uint256"
        }
      ],
      "name": "createErc1155",
      "outputs": [],
      "stateMutability": "payable",
      "type": "function"
    },
    {
      "inputs": [
        {
          "internalType": "string",
          "name": "name",
          "type": "string"
        },
        {
          "internalType": "address",
          "name": "token0",
          "type": "address"
        },
        {
          "internalType": "address",
          "name": "token1",
          "type": "address"
        },
        {
          "internalType": "uint256",
          "name": "tokenId",
          "type": "uint256"
        },
        {
          "internalType": "uint256",
          "name": "amountTotal0",
          "type": "uint256"
        },
        {
          "internalType": "uint256",
          "name": "amountTotal1",
          "type": "uint256"
        },
        {
          "internalType": "uint256",
          "name": "duration",
          "type": "uint256"
        },
        {
          "internalType": "uint256",
          "name": "startTime",
          "type": "uint256"
        },
        {
          "internalType": "bool",
          "name": "isUnique",
          "type": "bool"
        }
      ],
      "name": "createErc1155WithStartTime",
      "outputs": [],
      "stateMutability": "payable",
      "type": "function"
    },
    {
      "inputs": [
        {
          "internalType": "string",
          "name": "name",
          "type": "string"
        },
        {
          "internalType": "address",
          "name": "token0",
          "type": "address"
        },
        {
          "internalType": "address",
          "name": "token1",
          "type": "address"
        },
        {
          "internalType": "uint256",
          "name": "tokenId",
          "type": "uint256"
        },
        {
          "internalType": "uint256",
          "name": "amountTotal1",
          "type": "uint256"
        },
        {
          "internalType": "uint256",
          "name": "duration",
          "type": "uint256"
        }
      ],
      "name": "createErc721",
      "outputs": [],
      "stateMutability": "payable",
      "type": "function"
    },
    {
      "inputs": [
        {
          "internalType": "string",
          "name": "name",
          "type": "string"
        },
        {
          "internalType": "address",
          "name": "token0",
          "type": "address"
        },
        {
          "internalType": "address",
          "name": "token1",
          "type": "address"
        },
        {
          "internalType": "uint256",
          "name": "tokenId",
          "type": "uint256"
        },
        {
          "internalType": "uint256",
          "name": "amountTotal1",
          "type": "uint256"
        },
        {
          "internalType": "uint256",
          "name": "duration",
          "type": "uint256"
        },
        {
          "internalType": "uint256",
          "name": "startTime",
          "type": "uint256"
        },
        {
          "internalType": "bool",
          "name": "isUnique",
          "type": "bool"
        }
      ],
      "name": "createErc721WithStartTime",
      "outputs": [],
      "stateMutability": "payable",
      "type": "function"
    },
    {
      "inputs": [
        {
          "internalType": "uint256",
          "name": "index",
          "type": "uint256"
        }
      ],
      "name": "creatorClaim",
      "outputs": [],
      "stateMutability": "nonpayable",
      "type": "function"
    },
    {
      "inputs": [
        {
          "internalType": "uint256",
          "name": "",
          "type": "uint256"
        }
      ],
      "name": "creatorClaimedP",
      "outputs": [
        {
          "internalType": "bool",
          "name": "",
          "type": "bool"
        }
      ],
      "stateMutability": "view",
      "type": "function"
    },
    {
      "inputs": [],
      "name": "fee",
      "outputs": [
        {
          "internalType": "uint256",
          "name": "",
          "type": "uint256"
        }
      ],
      "stateMutability": "view",
      "type": "function"
    },
    {
      "inputs": [],
      "name": "feeMax",
      "outputs": [
        {
          "internalType": "uint256",
          "name": "",
          "type": "uint256"
        }
      ],
      "stateMutability": "view",
      "type": "function"
    },
    {
      "inputs": [],
      "name": "feeTo",
      "outputs": [
        {
          "internalType": "address payable",
          "name": "",
          "type": "address"
        }
      ],
      "stateMutability": "view",
      "type": "function"
    },
    {
      "inputs": [
        {
          "internalType": "bytes32",
          "name": "key",
          "type": "bytes32"
        },
        {
          "internalType": "address",
          "name": "addr",
          "type": "address"
        }
      ],
      "name": "getConfig",
      "outputs": [
        {
          "internalType": "uint256",
          "name": "",
          "type": "uint256"
        }
      ],
      "stateMutability": "view",
      "type": "function"
    },
    {
      "inputs": [
        {
          "internalType": "bytes32",
          "name": "key",
          "type": "bytes32"
        }
      ],
      "name": "getConfig",
      "outputs": [
        {
          "internalType": "uint256",
          "name": "",
          "type": "uint256"
        }
      ],
      "stateMutability": "view",
      "type": "function"
    },
    {
      "inputs": [
        {
          "internalType": "bytes32",
          "name": "key",
          "type": "bytes32"
        },
        {
          "internalType": "uint256",
          "name": "index",
          "type": "uint256"
        }
      ],
      "name": "getConfig",
      "outputs": [
        {
          "internalType": "uint256",
          "name": "",
          "type": "uint256"
        }
      ],
      "stateMutability": "view",
      "type": "function"
    },
    {
      "inputs": [],
      "name": "getPoolCount",
      "outputs": [
        {
          "internalType": "uint256",
          "name": "",
          "type": "uint256"
        }
      ],
      "stateMutability": "view",
      "type": "function"
    },
    {
      "inputs": [
        {
          "internalType": "uint256",
          "name": "index",
          "type": "uint256"
        }
      ],
      "name": "getStartTime",
      "outputs": [
        {
          "internalType": "uint256",
          "name": "",
          "type": "uint256"
        }
      ],
      "stateMutability": "view",
      "type": "function"
    },
    {
      "inputs": [],
      "name": "governor",
      "outputs": [
        {
          "internalType": "address",
          "name": "",
          "type": "address"
        }
      ],
      "stateMutability": "view",
      "type": "function"
    },
    {
      "inputs": [
        {
          "internalType": "address",
          "name": "_governor",
          "type": "address"
        }
      ],
      "name": "initialize",
      "outputs": [],
      "stateMutability": "nonpayable",
      "type": "function"
    },
    {
      "inputs": [
        {
          "internalType": "address",
          "name": "",
          "type": "address"
        }
      ],
      "name": "myCreatedP",
      "outputs": [
        {
          "internalType": "uint256",
          "name": "",
          "type": "uint256"
        }
      ],
      "stateMutability": "view",
      "type": "function"
    },
    {
      "inputs": [
        {
          "internalType": "string",
          "name": "",
          "type": "string"
        }
      ],
      "name": "myNameP",
      "outputs": [
        {
          "internalType": "uint256",
          "name": "",
          "type": "uint256"
        }
      ],
      "stateMutability": "view",
      "type": "function"
    },
    {
      "inputs": [
        {
          "internalType": "address",
          "name": "",
          "type": "address"
        },
        {
          "internalType": "address",
          "name": "",
          "type": "address"
        },
        {
          "internalType": "uint256",
          "name": "",
          "type": "uint256"
        },
        {
          "internalType": "uint256",
          "name": "",
          "type": "uint256"
        },
        {
          "internalType": "bytes",
          "name": "",
          "type": "bytes"
        }
      ],
      "name": "onERC1155Received",
      "outputs": [
        {
          "internalType": "bytes4",
          "name": "",
          "type": "bytes4"
        }
      ],
      "stateMutability": "nonpayable",
      "type": "function"
    },
    {
      "inputs": [
        {
          "internalType": "address",
          "name": "",
          "type": "address"
        },
        {
          "internalType": "address",
          "name": "",
          "type": "address"
        },
        {
          "internalType": "uint256",
          "name": "",
          "type": "uint256"
        },
        {
          "internalType": "bytes",
          "name": "",
          "type": "bytes"
        }
      ],
      "name": "onERC721Received",
      "outputs": [
        {
          "internalType": "bytes4",
          "name": "",
          "type": "bytes4"
        }
      ],
      "stateMutability": "nonpayable",
      "type": "function"
    },
    {
      "inputs": [
        {
          "internalType": "uint256",
          "name": "",
          "type": "uint256"
        }
      ],
      "name": "poolIsUnique",
      "outputs": [
        {
          "internalType": "bool",
          "name": "",
          "type": "bool"
        }
      ],
      "stateMutability": "view",
      "type": "function"
    },
    {
      "inputs": [
        {
          "internalType": "uint256",
          "name": "",
          "type": "uint256"
        }
      ],
      "name": "pools",
      "outputs": [
        {
          "internalType": "address payable",
          "name": "creator",
          "type": "address"
        },
        {
          "internalType": "string",
          "name": "name",
          "type": "string"
        },
        {
          "internalType": "address",
          "name": "token0",
          "type": "address"
        },
        {
          "internalType": "address",
          "name": "token1",
          "type": "address"
        },
        {
          "internalType": "uint256",
          "name": "tokenId",
          "type": "uint256"
        },
        {
          "internalType": "uint256",
          "name": "amountTotal0",
          "type": "uint256"
        },
        {
          "internalType": "uint256",
          "name": "amountTotal1",
          "type": "uint256"
        },
        {
          "internalType": "uint256",
          "name": "closeAt",
          "type": "uint256"
        },
        {
          "internalType": "uint256",
          "name": "nftType",
          "type": "uint256"
        }
      ],
      "stateMutability": "view",
      "type": "function"
    },
    {
      "inputs": [],
      "name": "renounceGovernorship",
      "outputs": [],
      "stateMutability": "nonpayable",
      "type": "function"
    },
    {
      "inputs": [
        {
          "internalType": "bytes32",
          "name": "key",
          "type": "bytes32"
        },
        {
          "internalType": "uint256",
          "name": "value",
          "type": "uint256"
        }
      ],
      "name": "setConfig",
      "outputs": [],
      "stateMutability": "nonpayable",
      "type": "function"
    },
    {
      "inputs": [
        {
          "internalType": "bytes32",
          "name": "key",
          "type": "bytes32"
        },
        {
          "internalType": "address",
          "name": "addr",
          "type": "address"
        },
        {
          "internalType": "uint256",
          "name": "value",
          "type": "uint256"
        }
      ],
      "name": "setConfig",
      "outputs": [],
      "stateMutability": "nonpayable",
      "type": "function"
    },
    {
      "inputs": [
        {
          "internalType": "bytes32",
          "name": "key",
          "type": "bytes32"
        },
        {
          "internalType": "uint256",
          "name": "index",
          "type": "uint256"
        },
        {
          "internalType": "uint256",
          "name": "value",
          "type": "uint256"
        }
      ],
      "name": "setConfig",
      "outputs": [],
      "stateMutability": "nonpayable",
      "type": "function"
    },
    {
      "inputs": [
        {
          "internalType": "uint256",
          "name": "_fee",
          "type": "uint256"
        }
      ],
      "name": "setFee",
      "outputs": [
        {
          "internalType": "bool",
          "name": "",
          "type": "bool"
        }
      ],
      "stateMutability": "nonpayable",
      "type": "function"
    },
    {
      "inputs": [
        {
          "internalType": "uint256",
          "name": "_feeMax",
          "type": "uint256"
        }
      ],
      "name": "setFeeMax",
      "outputs": [
        {
          "internalType": "bool",
          "name": "",
          "type": "bool"
        }
      ],
      "stateMutability": "nonpayable",
      "type": "function"
    },
    {
      "inputs": [
        {
          "internalType": "address payable",
          "name": "_feeTo",
          "type": "address"
        }
      ],
      "name": "setFeeTo",
      "outputs": [
        {
          "internalType": "bool",
          "name": "",
          "type": "bool"
        }
      ],
      "stateMutability": "nonpayable",
      "type": "function"
    },
    {
      "inputs": [
        {
          "internalType": "address",
          "name": "_indexer",
          "type": "address"
        }
      ],
      "name": "setIndexer",
      "outputs": [
        {
          "internalType": "bool",
          "name": "",
          "type": "bool"
        }
      ],
      "stateMutability": "nonpayable",
      "type": "function"
    },
    {
      "inputs": [
        {
          "internalType": "uint256",
          "name": "",
          "type": "uint256"
        }
      ],
      "name": "startAt",
      "outputs": [
        {
          "internalType": "uint256",
          "name": "",
          "type": "uint256"
        }
      ],
      "stateMutability": "view",
      "type": "function"
    },
    {
      "inputs": [
        {
          "internalType": "uint256",
          "name": "index",
          "type": "uint256"
        },
        {
          "internalType": "uint256",
          "name": "amount0",
          "type": "uint256"
        }
      ],
      "name": "swap",
      "outputs": [],
      "stateMutability": "payable",
      "type": "function"
    },
    {
      "inputs": [
        {
          "internalType": "uint256",
          "name": "",
          "type": "uint256"
        }
      ],
      "name": "swappedAmount0P",
      "outputs": [
        {
          "internalType": "uint256",
          "name": "",
          "type": "uint256"
        }
      ],
      "stateMutability": "view",
      "type": "function"
    },
    {
      "inputs": [
        {
          "internalType": "uint256",
          "name": "",
          "type": "uint256"
        }
      ],
      "name": "swappedAmount1P",
      "outputs": [
        {
          "internalType": "uint256",
          "name": "",
          "type": "uint256"
        }
      ],
      "stateMutability": "view",
      "type": "function"
    },
    {
      "inputs": [
        {
          "internalType": "uint256",
          "name": "",
          "type": "uint256"
        }
      ],
      "name": "swappedP",
      "outputs": [
        {
          "internalType": "bool",
          "name": "",
          "type": "bool"
        }
      ],
      "stateMutability": "view",
      "type": "function"
    },
    {
      "inputs": [
        {
          "internalType": "address",
          "name": "",
          "type": "address"
        }
      ],
      "name": "token0List",
      "outputs": [
        {
          "internalType": "bool",
          "name": "",
          "type": "bool"
        }
      ],
      "stateMutability": "view",
      "type": "function"
    },
    {
      "inputs": [
        {
          "internalType": "address",
          "name": "_erc20Address",
          "type": "address"
        },
        {
          "internalType": "address",
          "name": "_to",
          "type": "address"
        },
        {
          "internalType": "uint256",
          "name": "_amount",
          "type": "uint256"
        }
      ],
      "name": "transferERC20",
      "outputs": [
        {
          "internalType": "bool",
          "name": "",
          "type": "bool"
        }
      ],
      "stateMutability": "nonpayable",
      "type": "function"
    },
    {
      "inputs": [
        {
          "internalType": "address",
          "name": "_erc721Address",
          "type": "address"
        },
        {
          "internalType": "address",
          "name": "_to",
          "type": "address"
        },
        {
          "internalType": "uint256",
          "name": "_tokenId",
          "type": "uint256"
        }
      ],
      "name": "transferERC721",
      "outputs": [
        {
          "internalType": "bool",
          "name": "",
          "type": "bool"
        }
      ],
      "stateMutability": "nonpayable",
      "type": "function"
    },
    {
      "inputs": [
        {
          "internalType": "address",
          "name": "_governor",
          "type": "address"
        }
      ],
      "name": "transferGovernor",
      "outputs": [],
      "stateMutability": "nonpayable",
      "type": "function"
    },
    {
      "inputs": [
        {
          "internalType": "address",
          "name": "newGovernor",
          "type": "address"
        }
      ],
      "name": "transferGovernorship",
      "outputs": [],
      "stateMutability": "nonpayable",
      "type": "function"
    },
    {
      "inputs": [
        {
          "internalType": "address",
          "name": "",
          "type": "address"
        }
      ],
      "name": "userLimited",
      "outputs": [
        {
          "internalType": "uint256",
          "name": "",
          "type": "uint256"
        }
      ],
      "stateMutability": "view",
      "type": "function"
    }
  ],
  "bytecode": "0x60806040523480156200001157600080fd5b50d380156200001f57600080fd5b50d280156200002d57600080fd5b506157ec806200003e6000396000f3fe6080604052600436106102515760003560e01c80638eec5d7011610139578063cbe4b8eb116100b6578063e87ba7aa1161007a578063e87ba7aa14610ca2578063eabdd2e614610cf9578063f23a6e6114610d15578063f46901ed14610d6c578063f691877e14610dc3578063ffbe9f1e14610e1a57610251565b8063cbe4b8eb14610b50578063d96073cf14610ba7578063db06c05f14610bc3578063ddca3f4314610c1a578063ddf2be3f14610c5f57610251565b8063b6aa515b116100fd578063b6aa515b146109d9578063b8cc9ce614610a1c578063bbe7180d14610a5f578063bc2be1be14610ab6578063c4d66de814610b0d57610251565b80638eec5d70146108445780639d6ce84b146108895780639db5dbe4146108e0578063ac4afa3814610937578063b21544f31461099657610251565b806340c3108e116101d25780636d17b1d8116101965780636d17b1d81461069b5780636dd5b69d146106f257806373d9ced9146107495780637c013e9f1461076557806381c0c263146107bc5780638ec872e3146107ed57610251565b806340c3108e14610523578063483a09661461053f57806352665f471461059657806361518672146105ed57806369fe0e2d1461064457610251565b80631aca6376116102195780631aca63761461039657806329dbd098146103ed5780632ad540ed146104445780632ca77bf8146104875780633b431e92146104cc57610251565b8063017e7e581461025657806306350d711461029b5780630c340a24146102b7578063150b7a02146102fc57806315fe96dc14610353575b600080fd5b34801561026257600080fd5b50d3801561026f57600080fd5b50d2801561027c57600080fd5b50610285610e5f565b6040516102929190614e19565b60405180910390f35b6102b560048036038101906102b091906141ef565b610e85565b005b3480156102c357600080fd5b50d380156102d057600080fd5b50d280156102dd57600080fd5b506102e6610f44565b6040516102f39190614dfe565b60405180910390f35b34801561030857600080fd5b50d3801561031557600080fd5b50d2801561032257600080fd5b5061033d60048036038101906103389190613e93565b610f6a565b60405161034a91906150dd565b60405180910390f35b34801561035f57600080fd5b50d3801561036c57600080fd5b50d2801561037957600080fd5b50610394600480360381019061038f9190614082565b610f7f565b005b3480156103a257600080fd5b50d380156103af57600080fd5b50d280156103bc57600080fd5b506103d760048036038101906103d29190613e44565b610fe7565b6040516103e491906150c2565b60405180910390f35b3480156103f957600080fd5b50d3801561040657600080fd5b50d2801561041357600080fd5b5061042e60048036038101906104299190613df2565b6110e2565b60405161043b91906150c2565b60405180910390f35b34801561045057600080fd5b50d3801561045d57600080fd5b50d2801561046a57600080fd5b506104856004803603810190610480919061444d565b611102565b005b34801561049357600080fd5b50d380156104a057600080fd5b50d280156104ad57600080fd5b506104b661163f565b6040516104c391906150c2565b60405180910390f35b3480156104d857600080fd5b50d380156104e557600080fd5b50d280156104f257600080fd5b5061050d60048036038101906105089190613df2565b611652565b60405161051a91906150c2565b60405180910390f35b61053d6004803603810190610538919061436f565b6116f8565b005b34801561054b57600080fd5b50d3801561055857600080fd5b50d2801561056557600080fd5b50610580600480360381019061057b9190613df2565b6117b8565b60405161058d919061544a565b60405180910390f35b3480156105a257600080fd5b50d380156105af57600080fd5b50d280156105bc57600080fd5b506105d760048036038101906105d29190613ff7565b6117d0565b6040516105e4919061544a565b60405180910390f35b3480156105f957600080fd5b50d3801561060657600080fd5b50d2801561061357600080fd5b5061062e6004803603810190610629919061444d565b61180c565b60405161063b91906150c2565b60405180910390f35b34801561065057600080fd5b50d3801561065d57600080fd5b50d2801561066a57600080fd5b506106856004803603810190610680919061444d565b61182c565b60405161069291906150c2565b60405180910390f35b3480156106a757600080fd5b50d380156106b457600080fd5b50d280156106c157600080fd5b506106dc60048036038101906106d7919061444d565b611898565b6040516106e9919061544a565b60405180910390f35b3480156106fe57600080fd5b50d3801561070b57600080fd5b50d2801561071857600080fd5b50610733600480360381019061072e9190613fce565b6118b0565b604051610740919061544a565b60405180910390f35b610763600480360381019061075e919061414e565b6118cd565b005b34801561077157600080fd5b50d3801561077e57600080fd5b50d2801561078b57600080fd5b506107a660048036038101906107a1919061444d565b611992565b6040516107b391906150c2565b60405180910390f35b3480156107c857600080fd5b50d380156107d557600080fd5b50d280156107e257600080fd5b506107eb6119fe565b005b3480156107f957600080fd5b50d3801561080657600080fd5b50d2801561081357600080fd5b5061082e60048036038101906108299190614082565b611b19565b60405161083b919061544a565b60405180910390f35b34801561085057600080fd5b50d3801561085d57600080fd5b50d2801561086a57600080fd5b50610873611b3f565b604051610880919061544a565b60405180910390f35b34801561089557600080fd5b50d380156108a257600080fd5b50d280156108af57600080fd5b506108ca60048036038101906108c5919061410d565b611b4c565b6040516108d7919061544a565b60405180910390f35b3480156108ec57600080fd5b50d380156108f957600080fd5b50d2801561090657600080fd5b50610921600480360381019061091c9190613e44565b611b7a565b60405161092e91906150c2565b60405180910390f35b34801561094357600080fd5b50d3801561095057600080fd5b50d2801561095d57600080fd5b506109786004803603810190610973919061444d565b611c94565b60405161098d99989796959493929190614ec3565b60405180910390f35b3480156109a257600080fd5b50d380156109af57600080fd5b50d280156109bc57600080fd5b506109d760048036038101906109d29190614033565b611de7565b005b3480156109e557600080fd5b50d380156109f257600080fd5b50d280156109ff57600080fd5b50610a1a6004803603810190610a159190613df2565b611e6e565b005b348015610a2857600080fd5b50d38015610a3557600080fd5b50d28015610a4257600080fd5b50610a5d6004803603810190610a589190613df2565b611ed4565b005b348015610a6b57600080fd5b50d38015610a7857600080fd5b50d28015610a8557600080fd5b50610aa06004803603810190610a9b9190613df2565b612001565b604051610aad919061544a565b60405180910390f35b348015610ac257600080fd5b50d38015610acf57600080fd5b50d28015610adc57600080fd5b50610af76004803603810190610af2919061444d565b612019565b604051610b04919061544a565b60405180910390f35b348015610b1957600080fd5b50d38015610b2657600080fd5b50d28015610b3357600080fd5b50610b4e6004803603810190610b499190613df2565b612036565b005b348015610b5c57600080fd5b50d38015610b6957600080fd5b50d28015610b7657600080fd5b50610b916004803603810190610b8c919061444d565b612252565b604051610b9e919061544a565b60405180910390f35b610bc16004803603810190610bbc9190614476565b61226a565b005b348015610bcf57600080fd5b50d38015610bdc57600080fd5b50d28015610be957600080fd5b50610c046004803603810190610bff919061444d565b612bb0565b604051610c1191906150c2565b60405180910390f35b348015610c2657600080fd5b50d38015610c3357600080fd5b50d28015610c4057600080fd5b50610c49612bd0565b604051610c56919061544a565b60405180910390f35b348015610c6b57600080fd5b50d38015610c7857600080fd5b50d28015610c8557600080fd5b50610ca06004803603810190610c9b91906140be565b612bd6565b005b348015610cae57600080fd5b50d38015610cbb57600080fd5b50d28015610cc857600080fd5b50610ce36004803603810190610cde919061444d565b612c47565b604051610cf091906150c2565b60405180910390f35b610d136004803603810190610d0e91906142a5565b612c67565b005b348015610d2157600080fd5b50d38015610d2e57600080fd5b50d28015610d3b57600080fd5b50610d566004803603810190610d519190613f13565b612d2d565b604051610d6391906150dd565b60405180910390f35b348015610d7857600080fd5b50d38015610d8557600080fd5b50d28015610d9257600080fd5b50610dad6004803603810190610da89190613e1b565b612d43565b604051610dba91906150c2565b60405180910390f35b348015610dcf57600080fd5b50d38015610ddc57600080fd5b50d28015610de957600080fd5b50610e046004803603810190610dff919061444d565b612de9565b604051610e11919061544a565b60405180910390f35b348015610e2657600080fd5b50d38015610e3357600080fd5b50d28015610e4057600080fd5b50610e49612e01565b604051610e56919061544a565b60405180910390f35b604060009054906101000a900473ffffffffffffffffffffffffffffffffffffffff1681565b603a60009054906101000a900460ff1615610f2757603b60008773ffffffffffffffffffffffffffffffffffffffff1673ffffffffffffffffffffffffffffffffffffffff16815260200190815260200160002060009054906101000a900460ff16610f26576040517f08c379a0000000000000000000000000000000000000000000000000000000008152600401610f1d9061517a565b60405180910390fd5b5b610f3b878787878787876001426000612e07565b50505050505050565b603360009054906101000a900473ffffffffffffffffffffffffffffffffffffffff1681565b600063150b7a0260e01b905095945050505050565b603360009054906101000a900473ffffffffffffffffffffffffffffffffffffffff1673ffffffffffffffffffffffffffffffffffffffff163373ffffffffffffffffffffffffffffffffffffffff1614610fd957600080fd5b610fe38282613563565b5050565b6000603360009054906101000a900473ffffffffffffffffffffffffffffffffffffffff1673ffffffffffffffffffffffffffffffffffffffff163373ffffffffffffffffffffffffffffffffffffffff161461104357600080fd5b8373ffffffffffffffffffffffffffffffffffffffff166342842e0e3085856040518463ffffffff1660e01b81526004016110809392919061502b565b600060405180830381600087803b15801561109a57600080fd5b505af19250505080156110ab575060015b6110d6576110b761568d565b806110c257506110cc565b60009150506110db565b3d6000803e3d6000fd5b600190505b9392505050565b603b6020528060005260406000206000915054906101000a900460ff1681565b80603580549050811061114a576040517f08c379a0000000000000000000000000000000000000000000000000000000008152600401611141906151fa565b60405180910390fd5b611154338361359a565b611193576040517f08c379a000000000000000000000000000000000000000000000000000000000815260040161118a906151ba565b60405180910390fd5b6038600083815260200190815260200160002060009054906101000a900460ff16156111f4576040517f08c379a00000000000000000000000000000000000000000000000000000000081526004016111eb906152ba565b60405180910390fd5b60016038600084815260200190815260200160002060006101000a81548160ff021916908315150217905550603660003373ffffffffffffffffffffffffffffffffffffffff1673ffffffffffffffffffffffffffffffffffffffff1681526020019081526020016000206000905561126b613b95565b6035838154811061127857fe5b9060005260206000209060090201604051806101200160405290816000820160009054906101000a900473ffffffffffffffffffffffffffffffffffffffff1673ffffffffffffffffffffffffffffffffffffffff1673ffffffffffffffffffffffffffffffffffffffff168152602001600182018054600181600116156101000203166002900480601f0160208091040260200160405190810160405280929190818152602001828054600181600116156101000203166002900480156113815780601f1061135657610100808354040283529160200191611381565b820191906000526020600020905b81548152906001019060200180831161136457829003601f168201915b505050505081526020016002820160009054906101000a900473ffffffffffffffffffffffffffffffffffffffff1673ffffffffffffffffffffffffffffffffffffffff1673ffffffffffffffffffffffffffffffffffffffff1681526020016003820160009054906101000a900473ffffffffffffffffffffffffffffffffffffffff1673ffffffffffffffffffffffffffffffffffffffff1673ffffffffffffffffffffffffffffffffffffffff168152602001600482015481526020016005820154815260200160068201548152602001600782015481526020016008820154815250509050600081610100015114156114f857806040015173ffffffffffffffffffffffffffffffffffffffff166342842e0e30836000015184608001516040518463ffffffff1660e01b81526004016114c193929190614f57565b600060405180830381600087803b1580156114db57600080fd5b505af11580156114ef573d6000803e3d6000fd5b5050505061159f565b806040015173ffffffffffffffffffffffffffffffffffffffff1663f242432a308360000151846080015161154d603c60008a8152602001908152602001600020548760a0015161362290919063ffffffff16565b6040518563ffffffff1660e01b815260040161156c9493929190614fd3565b600060405180830381600087803b15801561158657600080fd5b505af115801561159a573d6000803e3d6000fd5b505050505b42603584815481106115ad57fe5b906000526020600020906009020160070181905550823373ffffffffffffffffffffffffffffffffffffffff167f987d620f307ff6b94d58743cb7a7509f24071586a77759b77c2d4e29f75a2f9a611625603c6000888152602001908152602001600020548560a0015161362290919063ffffffff16565b604051611632919061544a565b60405180910390a3505050565b603a60009054906101000a900460ff1681565b6000603360009054906101000a900473ffffffffffffffffffffffffffffffffffffffff1673ffffffffffffffffffffffffffffffffffffffff163373ffffffffffffffffffffffffffffffffffffffff16146116ae57600080fd5b81604160006101000a81548173ffffffffffffffffffffffffffffffffffffffff021916908373ffffffffffffffffffffffffffffffffffffffff16021790555060019050919050565b603a60009054906101000a900460ff161561179a57603b60008973ffffffffffffffffffffffffffffffffffffffff1673ffffffffffffffffffffffffffffffffffffffff16815260200190815260200160002060009054906101000a900460ff16611799576040517f08c379a00000000000000000000000000000000000000000000000000000000081526004016117909061517a565b60405180910390fd5b5b6117ad8989898989898960018a8a612e07565b505050505050505050565b60446020528060005260406000206000915090505481565b6000603460008373ffffffffffffffffffffffffffffffffffffffff168560001c1860001b815260200190815260200160002054905092915050565b60436020528060005260406000206000915054906101000a900460ff1681565b6000603360009054906101000a900473ffffffffffffffffffffffffffffffffffffffff1673ffffffffffffffffffffffffffffffffffffffff163373ffffffffffffffffffffffffffffffffffffffff161461188857600080fd5b81603e8190555060019050919050565b603c6020528060005260406000206000915090505481565b600060346000838152602001908152602001600020549050919050565b603a60009054906101000a900460ff161561196f57603b60008673ffffffffffffffffffffffffffffffffffffffff1673ffffffffffffffffffffffffffffffffffffffff16815260200190815260200160002060009054906101000a900460ff1661196e576040517f08c379a00000000000000000000000000000000000000000000000000000000081526004016119659061517a565b60405180910390fd5b5b600060019050611989878787878588886000426000612e07565b50505050505050565b6000603360009054906101000a900473ffffffffffffffffffffffffffffffffffffffff1673ffffffffffffffffffffffffffffffffffffffff163373ffffffffffffffffffffffffffffffffffffffff16146119ee57600080fd5b81603f8190555060019050919050565b603360009054906101000a900473ffffffffffffffffffffffffffffffffffffffff1673ffffffffffffffffffffffffffffffffffffffff163373ffffffffffffffffffffffffffffffffffffffff1614611a5857600080fd5b600073ffffffffffffffffffffffffffffffffffffffff16603360009054906101000a900473ffffffffffffffffffffffffffffffffffffffff1673ffffffffffffffffffffffffffffffffffffffff167fc7c0c772add429241571afb3805861fb3cfa2af374534088b76cdb4325a87e9a60405160405180910390a36000603360006101000a81548173ffffffffffffffffffffffffffffffffffffffff021916908373ffffffffffffffffffffffffffffffffffffffff160217905550565b600060346000838560001c1860001b815260200190815260200160002054905092915050565b6000603580549050905090565b6037818051602081018201805184825260208301602085012081835280955050505050506000915090505481565b6000603360009054906101000a900473ffffffffffffffffffffffffffffffffffffffff1673ffffffffffffffffffffffffffffffffffffffff163373ffffffffffffffffffffffffffffffffffffffff1614611bd657600080fd5b8373ffffffffffffffffffffffffffffffffffffffff1663a9059cbb84846040518363ffffffff1660e01b8152600401611c11929190615062565b602060405180830381600087803b158015611c2b57600080fd5b505af1925050508015611c5c57506040513d601f19601f82011682018060405250810190611c599190613fa5565b60015b611c8757611c6861568d565b80611c735750611c7d565b6000915050611c8d565b3d6000803e3d6000fd5b50600190505b9392505050565b60358181548110611ca157fe5b90600052602060002090600902016000915090508060000160009054906101000a900473ffffffffffffffffffffffffffffffffffffffff1690806001018054600181600116156101000203166002900480601f016020809104026020016040519081016040528092919081815260200182805460018160011615610100020316600290048015611d735780601f10611d4857610100808354040283529160200191611d73565b820191906000526020600020905b815481529060010190602001808311611d5657829003601f168201915b5050505050908060020160009054906101000a900473ffffffffffffffffffffffffffffffffffffffff16908060030160009054906101000a900473ffffffffffffffffffffffffffffffffffffffff16908060040154908060050154908060060154908060070154908060080154905089565b603360009054906101000a900473ffffffffffffffffffffffffffffffffffffffff1673ffffffffffffffffffffffffffffffffffffffff163373ffffffffffffffffffffffffffffffffffffffff1614611e4157600080fd5b611e698273ffffffffffffffffffffffffffffffffffffffff168460001c1860001b82613563565b505050565b603360009054906101000a900473ffffffffffffffffffffffffffffffffffffffff1673ffffffffffffffffffffffffffffffffffffffff163373ffffffffffffffffffffffffffffffffffffffff1614611ec857600080fd5b611ed181613672565b50565b603360009054906101000a900473ffffffffffffffffffffffffffffffffffffffff1673ffffffffffffffffffffffffffffffffffffffff163373ffffffffffffffffffffffffffffffffffffffff161480611f7e5750600073ffffffffffffffffffffffffffffffffffffffff16603360009054906101000a900473ffffffffffffffffffffffffffffffffffffffff1673ffffffffffffffffffffffffffffffffffffffff16145b611fbd576040517f08c379a0000000000000000000000000000000000000000000000000000000008152600401611fb49061511a565b60405180910390fd5b80603360006101000a81548173ffffffffffffffffffffffffffffffffffffffff021916908373ffffffffffffffffffffffffffffffffffffffff16021790555050565b60366020528060005260406000206000915090505481565b600060426000838152602001908152602001600020549050919050565b600060019054906101000a900460ff1680612055575061205461376c565b5b8061206b575060008054906101000a900460ff16155b6120aa576040517f08c379a00000000000000000000000000000000000000000000000000000000081526004016120a19061533a565b60405180910390fd5b60008060019054906101000a900460ff1615905080156120fa576001600060016101000a81548160ff02191690831515021790555060016000806101000a81548160ff0219169083151502179055505b603360009054906101000a900473ffffffffffffffffffffffffffffffffffffffff1673ffffffffffffffffffffffffffffffffffffffff163373ffffffffffffffffffffffffffffffffffffffff1614806121a45750600073ffffffffffffffffffffffffffffffffffffffff16603360009054906101000a900473ffffffffffffffffffffffffffffffffffffffff1673ffffffffffffffffffffffffffffffffffffffff16145b6121e3576040517f08c379a00000000000000000000000000000000000000000000000000000000081526004016121da9061511a565b60405180910390fd5b81603360006101000a81548173ffffffffffffffffffffffffffffffffffffffff021916908373ffffffffffffffffffffffffffffffffffffffff160217905550612710603f81905550801561224e5760008060016101000a81548160ff0219169083151502179055505b5050565b603d6020528060005260406000206000915090505481565b8160358054905081106122b2576040517f08c379a00000000000000000000000000000000000000000000000000000000081526004016122a9906151fa565b60405180910390fd5b8242603582815481106122c157fe5b90600052602060002090600902016007015411612313576040517f08c379a000000000000000000000000000000000000000000000000000000000815260040161230a9061521a565b60405180910390fd5b83426042600083815260200190815260200160002054111561236a576040517f08c379a0000000000000000000000000000000000000000000000000000000008152600401612361906153da565b60405180910390fd5b84336043600083815260200190815260200160002060009054906101000a900460ff1680156123d857506000604460008373ffffffffffffffffffffffffffffffffffffffff1673ffffffffffffffffffffffffffffffffffffffff16815260200190815260200160002054115b1561246457610708604460008373ffffffffffffffffffffffffffffffffffffffff1673ffffffffffffffffffffffffffffffffffffffff1681526020019081526020016000205442031015612463576040517f08c379a000000000000000000000000000000000000000000000000000000000815260040161245a906152da565b60405180910390fd5b5b60006035888154811061247357fe5b9060005260206000209060090201905060018710158015612498575080600501548711155b6124d7576040517f08c379a00000000000000000000000000000000000000000000000000000000081526004016124ce9061537a565b60405180910390fd5b806005015461250288603c60008c81526020019081526020016000205461378390919063ffffffff16565b1115612543576040517f08c379a000000000000000000000000000000000000000000000000000000000815260040161253a906153fa565b60405180910390fd5b6000612572826005015461256484600601548b6137d890919063ffffffff16565b61384890919063ffffffff16565b905061259a88603c60008c81526020019081526020016000205461378390919063ffffffff16565b603c60008b8152602001908152602001600020819055506125d781603d60008c81526020019081526020016000205461378390919063ffffffff16565b603d60008b8152602001908152602001600020819055508160050154603c60008b815260200190815260200160002054141561263a576001603960008b815260200190815260200160002060006101000a81548160ff0219169083151502179055505b60008073ffffffffffffffffffffffffffffffffffffffff16604060009054906101000a900473ffffffffffffffffffffffffffffffffffffffff1673ffffffffffffffffffffffffffffffffffffffff161415801561269c57506000603e54115b156126cd576126ca603f546126bc603e54856137d890919063ffffffff16565b61384890919063ffffffff16565b90505b600073ffffffffffffffffffffffffffffffffffffffff168360030160009054906101000a900473ffffffffffffffffffffffffffffffffffffffff1673ffffffffffffffffffffffffffffffffffffffff16141561285d57348214612768576040517f08c379a000000000000000000000000000000000000000000000000000000000815260040161275f9061539a565b60405180910390fd5b60008111156127db57604060009054906101000a900473ffffffffffffffffffffffffffffffffffffffff1673ffffffffffffffffffffffffffffffffffffffff166108fc829081150290604051600060405180830381858888f193505050501580156127d9573d6000803e3d6000fd5b505b8260000160009054906101000a900473ffffffffffffffffffffffffffffffffffffffff1673ffffffffffffffffffffffffffffffffffffffff166108fc61282c838561362290919063ffffffff16565b9081150290604051600060405180830381858888f19350505050158015612857573d6000803e3d6000fd5b50612962565b6128e4338460000160009054906101000a900473ffffffffffffffffffffffffffffffffffffffff16612899848661362290919063ffffffff16565b8660030160009054906101000a900473ffffffffffffffffffffffffffffffffffffffff1673ffffffffffffffffffffffffffffffffffffffff1661389e909392919063ffffffff16565b60008111156129615761296033604060009054906101000a900473ffffffffffffffffffffffffffffffffffffffff16838660030160009054906101000a900473ffffffffffffffffffffffffffffffffffffffff1673ffffffffffffffffffffffffffffffffffffffff1661389e909392919063ffffffff16565b5b5b600083600801541415612a0b578260020160009054906101000a900473ffffffffffffffffffffffffffffffffffffffff1673ffffffffffffffffffffffffffffffffffffffff166342842e0e303386600401546040518463ffffffff1660e01b81526004016129d493929190614f57565b600060405180830381600087803b1580156129ee57600080fd5b505af1158015612a02573d6000803e3d6000fd5b50505050612aa5565b8260020160009054906101000a900473ffffffffffffffffffffffffffffffffffffffff1673ffffffffffffffffffffffffffffffffffffffff1663f242432a303386600401548d6040518563ffffffff1660e01b8152600401612a729493929190614fd3565b600060405180830381600087803b158015612a8c57600080fd5b505af1158015612aa0573d6000803e3d6000fd5b505050505b8260050154603c60008c8152602001908152602001600020541415612ae8574260358b81548110612ad257fe5b9060005260206000209060090201600701819055505b604360008b815260200190815260200160002060009054906101000a900460ff1615612b535742604460003373ffffffffffffffffffffffffffffffffffffffff1673ffffffffffffffffffffffffffffffffffffffff168152602001908152602001600020819055505b893373ffffffffffffffffffffffffffffffffffffffff167f36a39cf3f9b8206db312650e7d954482535a2e33fb0b54e1030f149ed213823a8b85604051612b9c929190615465565b60405180910390a350505050505050505050565b60396020528060005260406000206000915054906101000a900460ff1681565b603e5481565b603360009054906101000a900473ffffffffffffffffffffffffffffffffffffffff1673ffffffffffffffffffffffffffffffffffffffff163373ffffffffffffffffffffffffffffffffffffffff1614612c3057600080fd5b612c42828460001c1860001b82613563565b505050565b60386020528060005260406000206000915054906101000a900460ff1681565b603a60009054906101000a900460ff1615612d0957603b60008873ffffffffffffffffffffffffffffffffffffffff1673ffffffffffffffffffffffffffffffffffffffff16815260200190815260200160002060009054906101000a900460ff16612d08576040517f08c379a0000000000000000000000000000000000000000000000000000000008152600401612cff9061517a565b60405180910390fd5b5b600060019050612d2289898989858a8a60008b8b612e07565b505050505050505050565b600063f23a6e6160e01b90509695505050505050565b6000603360009054906101000a900473ffffffffffffffffffffffffffffffffffffffff1673ffffffffffffffffffffffffffffffffffffffff163373ffffffffffffffffffffffffffffffffffffffff1614612d9f57600080fd5b81604060006101000a81548173ffffffffffffffffffffffffffffffffffffffff021916908373ffffffffffffffffffffffffffffffffffffffff16021790555060019050919050565b60426020528060005260406000206000915090505481565b603f5481565b60008211612e4a576040517f08c379a0000000000000000000000000000000000000000000000000000000008152600401612e419061513a565b60405180910390fd5b6000851415612e8e576040517f08c379a0000000000000000000000000000000000000000000000000000000008152600401612e85906151da565b60405180910390fd5b6000841415612ed2576040517f08c379a0000000000000000000000000000000000000000000000000000000008152600401612ec99061515a565b60405180910390fd5b600f8a511115612f17576040517f08c379a0000000000000000000000000000000000000000000000000000000008152600401612f0e906152fa565b60405180910390fd5b6000428311612f3a57612f33854261378390919063ffffffff16565b9050612f50565b612f4d858461378390919063ffffffff16565b90505b612f58613b95565b33816000019073ffffffffffffffffffffffffffffffffffffffff16908173ffffffffffffffffffffffffffffffffffffffff16815250508b81602001819052508a816040019073ffffffffffffffffffffffffffffffffffffffff16908173ffffffffffffffffffffffffffffffffffffffff168152505089816060019073ffffffffffffffffffffffffffffffffffffffff16908173ffffffffffffffffffffffffffffffffffffffff168152505088816080018181525050878160a0018181525050868160c0018181525050818160e0018181525050848161010001818152505060006035805490509050603582908060018154018082558091505060019003906000526020600020906009020160009091909190915060008201518160000160006101000a81548173ffffffffffffffffffffffffffffffffffffffff021916908373ffffffffffffffffffffffffffffffffffffffff16021790555060208201518160010190805190602001906130d5929190613c23565b5060408201518160020160006101000a81548173ffffffffffffffffffffffffffffffffffffffff021916908373ffffffffffffffffffffffffffffffffffffffff16021790555060608201518160030160006101000a81548173ffffffffffffffffffffffffffffffffffffffff021916908373ffffffffffffffffffffffffffffffffffffffff1602179055506080820151816004015560a0820151816005015560c0820151816006015560e0820151816007015561010082015181600801555050846042600083815260200190815260200160002081905550603580549050603660003373ffffffffffffffffffffffffffffffffffffffff1673ffffffffffffffffffffffffffffffffffffffff1681526020019081526020016000208190555060358054905060378e6040516132109190614de7565b90815260200160405180910390208190555083156132555760016043600083815260200190815260200160002060006101000a81548160ff0219169083151502179055505b60008614156133ae57600189146132a1576040517f08c379a00000000000000000000000000000000000000000000000000000000081526004016132989061529a565b60405180910390fd5b8b73ffffffffffffffffffffffffffffffffffffffff166342842e0e33308d6040518463ffffffff1660e01b81526004016132de93929190614e34565b600060405180830381600087803b1580156132f857600080fd5b505af115801561330c573d6000803e3d6000fd5b50505050604160009054906101000a900473ffffffffffffffffffffffffffffffffffffffff1673ffffffffffffffffffffffffffffffffffffffff16634091214c8d8c6001603580549050036040518463ffffffff1660e01b81526004016133779392919061508b565b600060405180830381600087803b15801561339157600080fd5b505af11580156133a5573d6000803e3d6000fd5b50505050613503565b60008914156133f2576040517f08c379a00000000000000000000000000000000000000000000000000000000081526004016133e99061529a565b60405180910390fd5b8b73ffffffffffffffffffffffffffffffffffffffff1663f242432a33308d8d6040518563ffffffff1660e01b81526004016134319493929190614e6b565b600060405180830381600087803b15801561344b57600080fd5b505af115801561345f573d6000803e3d6000fd5b50505050604160009054906101000a900473ffffffffffffffffffffffffffffffffffffffff1673ffffffffffffffffffffffffffffffffffffffff1663f5444c678d84600001518d6001603580549050036040518563ffffffff1660e01b81526004016134d09493929190614f8e565b600060405180830381600087803b1580156134ea57600080fd5b505af11580156134fe573d6000803e3d6000fd5b505050505b803373ffffffffffffffffffffffffffffffffffffffff167fbf218c2afe2674aa1e943b7125b9b3187f969fb280427da8092449e7b9683706848860405161354c92919061541a565b60405180910390a350505050505050505050505050565b80603460008481526020019081526020016000205414613596578060346000848152602001908152602001600020819055505b5050565b60008273ffffffffffffffffffffffffffffffffffffffff16603583815481106135c057fe5b906000526020600020906009020160000160009054906101000a900473ffffffffffffffffffffffffffffffffffffffff1673ffffffffffffffffffffffffffffffffffffffff161415613617576001905061361c565b600090505b92915050565b600082821115613667576040517f08c379a000000000000000000000000000000000000000000000000000000000815260040161365e9061523a565b60405180910390fd5b818303905092915050565b600073ffffffffffffffffffffffffffffffffffffffff168173ffffffffffffffffffffffffffffffffffffffff1614156136ac57600080fd5b8073ffffffffffffffffffffffffffffffffffffffff16603360009054906101000a900473ffffffffffffffffffffffffffffffffffffffff1673ffffffffffffffffffffffffffffffffffffffff167fc7c0c772add429241571afb3805861fb3cfa2af374534088b76cdb4325a87e9a60405160405180910390a380603360006101000a81548173ffffffffffffffffffffffffffffffffffffffff021916908373ffffffffffffffffffffffffffffffffffffffff16021790555050565b6000803090506000813b9050600081149250505090565b6000808284019050838110156137ce576040517f08c379a00000000000000000000000000000000000000000000000000000000081526004016137c59061519a565b60405180910390fd5b8091505092915050565b6000808314156137eb5760009050613842565b60008284029050828482816137fc57fe5b041461383d576040517f08c379a00000000000000000000000000000000000000000000000000000000081526004016138349061531a565b60405180910390fd5b809150505b92915050565b600080821161388c576040517f08c379a00000000000000000000000000000000000000000000000000000000081526004016138839061527a565b60405180910390fd5b81838161389557fe5b04905092915050565b613921846323b872dd60e01b8585856040516024016138bf9392919061502b565b604051602081830303815290604052907bffffffffffffffffffffffffffffffffffffffffffffffffffffffff19166020820180517bffffffffffffffffffffffffffffffffffffffffffffffffffffffff8381831617835250505050613927565b50505050565b6060613989826040518060400160405280602081526020017f5361666545524332303a206c6f772d6c6576656c2063616c6c206661696c65648152508573ffffffffffffffffffffffffffffffffffffffff166139ee9092919063ffffffff16565b90506000815111156139e957808060200190518101906139a99190613fa5565b6139e8576040517f08c379a00000000000000000000000000000000000000000000000000000000081526004016139df906153ba565b60405180910390fd5b5b505050565b60606139fd8484600085613a06565b90509392505050565b606082471015613a4b576040517f08c379a0000000000000000000000000000000000000000000000000000000008152600401613a429061525a565b60405180910390fd5b613a5485613b1b565b613a93576040517f08c379a0000000000000000000000000000000000000000000000000000000008152600401613a8a9061535a565b60405180910390fd5b600060608673ffffffffffffffffffffffffffffffffffffffff168587604051613abd9190614dd0565b60006040518083038185875af1925050503d8060008114613afa576040519150601f19603f3d011682016040523d82523d6000602084013e613aff565b606091505b5091509150613b0f828286613b2e565b92505050949350505050565b600080823b905060008111915050919050565b60608315613b3e57829050613b8e565b600083511115613b515782518084602001fd5b816040517f08c379a0000000000000000000000000000000000000000000000000000000008152600401613b8591906150f8565b60405180910390fd5b9392505050565b604051806101200160405280600073ffffffffffffffffffffffffffffffffffffffff16815260200160608152602001600073ffffffffffffffffffffffffffffffffffffffff168152602001600073ffffffffffffffffffffffffffffffffffffffff16815260200160008152602001600081526020016000815260200160008152602001600081525090565b828054600181600116156101000203166002900490600052602060002090601f016020900481019282601f10613c6457805160ff1916838001178555613c92565b82800160010185558215613c92579182015b82811115613c91578251825591602001919060010190613c76565b5b509050613c9f9190613ca3565b5090565b5b80821115613cbc576000816000905550600101613ca4565b5090565b600081359050613ccf81615743565b613cd881615546565b905092915050565b600081359050613cef8161575a565b613cf881615558565b905092915050565b600081359050613d0f81615771565b92915050565b600081519050613d2481615771565b92915050565b600081359050613d3981615788565b92915050565b60008083601f840112613d5157600080fd5b8235905067ffffffffffffffff811115613d6a57600080fd5b602083019150836001820283011115613d8257600080fd5b9250929050565b600082601f830112613d9a57600080fd5b8135613dad613da8826154bb565b61548e565b91508082526020830160208301858383011115613dc957600080fd5b613dd483828461562d565b50505092915050565b600081359050613dec8161579f565b92915050565b600060208284031215613e0457600080fd5b6000613e1284828501613cc0565b91505092915050565b600060208284031215613e2d57600080fd5b6000613e3b84828501613ce0565b91505092915050565b600080600060608486031215613e5957600080fd5b6000613e6786828701613cc0565b9350506020613e7886828701613cc0565b9250506040613e8986828701613ddd565b9150509250925092565b600080600080600060808688031215613eab57600080fd5b6000613eb988828901613cc0565b9550506020613eca88828901613cc0565b9450506040613edb88828901613ddd565b935050606086013567ffffffffffffffff811115613ef857600080fd5b613f0488828901613d3f565b92509250509295509295909350565b60008060008060008060a08789031215613f2c57600080fd5b6000613f3a89828a01613cc0565b9650506020613f4b89828a01613cc0565b9550506040613f5c89828a01613ddd565b9450506060613f6d89828a01613ddd565b935050608087013567ffffffffffffffff811115613f8a57600080fd5b613f9689828a01613d3f565b92509250509295509295509295565b600060208284031215613fb757600080fd5b6000613fc584828501613d15565b91505092915050565b600060208284031215613fe057600080fd5b6000613fee84828501613d2a565b91505092915050565b6000806040838503121561400a57600080fd5b600061401885828601613d2a565b925050602061402985828601613cc0565b9150509250929050565b60008060006060848603121561404857600080fd5b600061405686828701613d2a565b935050602061406786828701613cc0565b925050604061407886828701613ddd565b9150509250925092565b6000806040838503121561409557600080fd5b60006140a385828601613d2a565b92505060206140b485828601613ddd565b9150509250929050565b6000806000606084860312156140d357600080fd5b60006140e186828701613d2a565b93505060206140f286828701613ddd565b925050604061410386828701613ddd565b9150509250925092565b60006020828403121561411f57600080fd5b600082013567ffffffffffffffff81111561413957600080fd5b61414584828501613d89565b91505092915050565b60008060008060008060c0878903121561416757600080fd5b600087013567ffffffffffffffff81111561418157600080fd5b61418d89828a01613d89565b965050602061419e89828a01613cc0565b95505060406141af89828a01613cc0565b94505060606141c089828a01613ddd565b93505060806141d189828a01613ddd565b92505060a06141e289828a01613ddd565b9150509295509295509295565b600080600080600080600060e0888a03121561420a57600080fd5b600088013567ffffffffffffffff81111561422457600080fd5b6142308a828b01613d89565b97505060206142418a828b01613cc0565b96505060406142528a828b01613cc0565b95505060606142638a828b01613ddd565b94505060806142748a828b01613ddd565b93505060a06142858a828b01613ddd565b92505060c06142968a828b01613ddd565b91505092959891949750929550565b600080600080600080600080610100898b0312156142c257600080fd5b600089013567ffffffffffffffff8111156142dc57600080fd5b6142e88b828c01613d89565b98505060206142f98b828c01613cc0565b975050604061430a8b828c01613cc0565b965050606061431b8b828c01613ddd565b955050608061432c8b828c01613ddd565b94505060a061433d8b828c01613ddd565b93505060c061434e8b828c01613ddd565b92505060e061435f8b828c01613d00565b9150509295985092959890939650565b60008060008060008060008060006101208a8c03121561438e57600080fd5b60008a013567ffffffffffffffff8111156143a857600080fd5b6143b48c828d01613d89565b99505060206143c58c828d01613cc0565b98505060406143d68c828d01613cc0565b97505060606143e78c828d01613ddd565b96505060806143f88c828d01613ddd565b95505060a06144098c828d01613ddd565b94505060c061441a8c828d01613ddd565b93505060e061442b8c828d01613ddd565b92505061010061443d8c828d01613d00565b9150509295985092959850929598565b60006020828403121561445f57600080fd5b600061446d84828501613ddd565b91505092915050565b6000806040838503121561448957600080fd5b600061449785828601613ddd565b92505060206144a885828601613ddd565b9150509250929050565b6144bb816155f7565b82525050565b6144ca81615558565b82525050565b6144d981615558565b82525050565b6144e881615546565b82525050565b6144f781615546565b82525050565b6145068161556a565b82525050565b61451581615580565b82525050565b6000614526826154e7565b614530818561550e565b935061454081856020860161563c565b80840191505092915050565b6000614557826154f2565b6145618185615519565b935061457181856020860161563c565b61457a8161566f565b840191505092915050565b6000614590826154f2565b61459a818561552a565b93506145aa81856020860161563c565b6145b38161566f565b840191505092915050565b60006145c9826154f2565b6145d3818561553b565b93506145e381856020860161563c565b80840191505092915050565b60006145fc60108361552a565b91507f696e76616c696420676f7665726e6f72000000000000000000000000000000006000830152602082019050919050565b600061463c601d8361552a565b91507f73746172742074696d652073686f756c64206e6f74206265207a65726f0000006000830152602082019050919050565b600061467c601e8361552a565b91507f7468652076616c7565206f66206475726174696f6e206973207a65726f2e00006000830152602082019050919050565b60006146bc600e8361552a565b91507f696e76616c696420746f6b656e300000000000000000000000000000000000006000830152602082019050919050565b60006146fc601b8361552a565b91507f536166654d6174683a206164646974696f6e206f766572666c6f7700000000006000830152602082019050919050565b600061473c601a8361552a565b91507f73656e646572206973206e6f7420706f6f6c2063726561746f720000000000006000830152602082019050919050565b600061477c60228361552a565b91507f7468652076616c7565206f6620616d6f756e74546f74616c31206973207a657260008301527f6f2e0000000000000000000000000000000000000000000000000000000000006020830152604082019050919050565b60006147e260188361552a565b91507f7468697320706f6f6c20646f6573206e6f7420657869737400000000000000006000830152602082019050919050565b600061482260138361552a565b91507f7468697320706f6f6c20697320636c6f736564000000000000000000000000006000830152602082019050919050565b6000614862601e8361552a565b91507f536166654d6174683a207375627472616374696f6e206f766572666c6f7700006000830152602082019050919050565b60006148a260268361552a565b91507f416464726573733a20696e73756666696369656e742062616c616e636520666f60008301527f722063616c6c00000000000000000000000000000000000000000000000000006020830152604082019050919050565b6000614908601a8361552a565b91507f536166654d6174683a206469766973696f6e206279207a65726f0000000000006000830152602082019050919050565b600061494860148361552a565b91507f696e76616c696420616d6f756e74546f74616c300000000000000000000000006000830152602082019050919050565b6000614988601d8361552a565b91507f63726561746f722068617320636c61696d6564207468697320706f6f6c0000006000830152602082019050919050565b60006149c860258361552a565b91507f746869732075736572206973207265737472696374656420696e203330206d6960008301527f6e757465730000000000000000000000000000000000000000000000000000006020830152604082019050919050565b6000614a2e601e8361552a565b91507f746865206c656e677468206f66206e616d6520697320746f6f206c6f6e6700006000830152602082019050919050565b6000614a6e60218361552a565b91507f536166654d6174683a206d756c7469706c69636174696f6e206f766572666c6f60008301527f77000000000000000000000000000000000000000000000000000000000000006020830152604082019050919050565b6000614ad4602e8361552a565b91507f436f6e747261637420696e7374616e63652068617320616c726561647920626560008301527f656e20696e697469616c697a65640000000000000000000000000000000000006020830152604082019050919050565b6000614b3a6000836154fd565b9150600082019050919050565b6000614b54601d8361552a565b91507f416464726573733a2063616c6c20746f206e6f6e2d636f6e74726163740000006000830152602082019050919050565b6000614b94600f8361552a565b91507f696e76616c696420616d6f756e743000000000000000000000000000000000006000830152602082019050919050565b6000614bd460128361552a565b91507f696e76616c69642045544820616d6f756e7400000000000000000000000000006000830152602082019050919050565b6000614c14602a8361552a565b91507f5361666545524332303a204552433230206f7065726174696f6e20646964206e60008301527f6f742073756363656564000000000000000000000000000000000000000000006020830152604082019050919050565b6000614c7a601c8361552a565b91507f7468697320706f6f6c206973206e6f74207374617274656420796574000000006000830152602082019050919050565b6000614cba601e8361552a565b91507f706f6f6c2066696c6c6564206f7220696e76616c696420616d6f756e743000006000830152602082019050919050565b600061012083016000830151614d0660008601826144c1565b5060208301518482036020860152614d1e828261454c565b9150506040830151614d3360408601826144df565b506060830151614d4660608601826144df565b506080830151614d596080860182614db2565b5060a0830151614d6c60a0860182614db2565b5060c0830151614d7f60c0860182614db2565b5060e0830151614d9260e0860182614db2565b50610100830151614da7610100860182614db2565b508091505092915050565b614dbb816155ed565b82525050565b614dca816155ed565b82525050565b6000614ddc828461451b565b915081905092915050565b6000614df382846145be565b915081905092915050565b6000602082019050614e1360008301846144ee565b92915050565b6000602082019050614e2e60008301846144d0565b92915050565b6000606082019050614e4960008301866144b2565b614e5660208301856144ee565b614e636040830184614dc1565b949350505050565b600060a082019050614e8060008301876144b2565b614e8d60208301866144ee565b614e9a6040830185614dc1565b614ea76060830184614dc1565b8181036080830152614eb881614b2d565b905095945050505050565b600061012082019050614ed9600083018c6144d0565b8181036020830152614eeb818b614585565b9050614efa604083018a6144ee565b614f0760608301896144ee565b614f146080830188614dc1565b614f2160a0830187614dc1565b614f2e60c0830186614dc1565b614f3b60e0830185614dc1565b614f49610100830184614dc1565b9a9950505050505050505050565b6000606082019050614f6c60008301866144ee565b614f7960208301856144b2565b614f866040830184614dc1565b949350505050565b6000608082019050614fa360008301876144ee565b614fb060208301866144b2565b614fbd6040830185614dc1565b614fca6060830184614dc1565b95945050505050565b600060a082019050614fe860008301876144ee565b614ff560208301866144b2565b6150026040830185614dc1565b61500f6060830184614dc1565b818103608083015261502081614b2d565b905095945050505050565b600060608201905061504060008301866144ee565b61504d60208301856144ee565b61505a6040830184614dc1565b949350505050565b600060408201905061507760008301856144ee565b6150846020830184614dc1565b9392505050565b60006060820190506150a060008301866144ee565b6150ad6020830185614dc1565b6150ba6040830184614dc1565b949350505050565b60006020820190506150d760008301846144fd565b92915050565b60006020820190506150f2600083018461450c565b92915050565b600060208201905081810360008301526151128184614585565b905092915050565b60006020820190508181036000830152615133816145ef565b9050919050565b600060208201905081810360008301526151538161462f565b9050919050565b600060208201905081810360008301526151738161466f565b9050919050565b60006020820190508181036000830152615193816146af565b9050919050565b600060208201905081810360008301526151b3816146ef565b9050919050565b600060208201905081810360008301526151d38161472f565b9050919050565b600060208201905081810360008301526151f38161476f565b9050919050565b60006020820190508181036000830152615213816147d5565b9050919050565b6000602082019050818103600083015261523381614815565b9050919050565b6000602082019050818103600083015261525381614855565b9050919050565b6000602082019050818103600083015261527381614895565b9050919050565b60006020820190508181036000830152615293816148fb565b9050919050565b600060208201905081810360008301526152b38161493b565b9050919050565b600060208201905081810360008301526152d38161497b565b9050919050565b600060208201905081810360008301526152f3816149bb565b9050919050565b6000602082019050818103600083015261531381614a21565b9050919050565b6000602082019050818103600083015261533381614a61565b9050919050565b6000602082019050818103600083015261535381614ac7565b9050919050565b6000602082019050818103600083015261537381614b47565b9050919050565b6000602082019050818103600083015261539381614b87565b9050919050565b600060208201905081810360008301526153b381614bc7565b9050919050565b600060208201905081810360008301526153d381614c07565b9050919050565b600060208201905081810360008301526153f381614c6d565b9050919050565b6000602082019050818103600083015261541381614cad565b9050919050565b600060408201905081810360008301526154348185614ced565b90506154436020830184614dc1565b9392505050565b600060208201905061545f6000830184614dc1565b92915050565b600060408201905061547a6000830185614dc1565b6154876020830184614dc1565b9392505050565b6000604051905081810181811067ffffffffffffffff821117156154b157600080fd5b8060405250919050565b600067ffffffffffffffff8211156154d257600080fd5b601f19601f8301169050602081019050919050565b600081519050919050565b600081519050919050565b600082825260208201905092915050565b600081905092915050565b600082825260208201905092915050565b600082825260208201905092915050565b600081905092915050565b6000615551826155ac565b9050919050565b6000615563826155ac565b9050919050565b60008115159050919050565b6000819050919050565b60007fffffffff0000000000000000000000000000000000000000000000000000000082169050919050565b600073ffffffffffffffffffffffffffffffffffffffff82169050919050565b600074ffffffffffffffffffffffffffffffffffffffffff82169050919050565b6000819050919050565b600061560282615609565b9050919050565b60006156148261561b565b9050919050565b6000615626826155ac565b9050919050565b82818337600083830152505050565b60005b8381101561565a57808201518184015260208101905061563f565b83811115615669576000848401525b50505050565b6000601f19601f8301169050919050565b60008160e01c9050919050565b600060443d101561569d57615740565b60046000803e6156ae600051615680565b6308c379a081146156bf5750615740565b60405160043d036004823e80513d602482011167ffffffffffffffff821117156156eb57505050615740565b808201805167ffffffffffffffff81111561570a575050505050615740565b8060208301013d850181111561572557505050505050615740565b61572e8261566f565b60208401016040528296505050505050505b90565b61574c816155cc565b811461575757600080fd5b50565b615763816155cc565b811461576e57600080fd5b50565b61577a8161556a565b811461578557600080fd5b50565b61579181615576565b811461579c57600080fd5b50565b6157a8816155ed565b81146157b357600080fd5b5056fea26469706673582212207ea9ae5539171cb74f2a20200e2be5d895978f161ee94c6bb4bd409013b4aed164736f6c634300060c0033",
  "source": "// SPDX-License-Identifier: MIT\n\npragma solidity ^0.6.0;\npragma experimental ABIEncoderV2;\n\nimport \"@openzeppelin/contracts/math/SafeMath.sol\";\nimport \"@openzeppelin/contracts/token/ERC20/SafeERC20.sol\";\nimport \"@openzeppelin/contracts/token/ERC20/IERC20.sol\";\nimport \"@openzeppelin/contracts/token/ERC721/IERC721.sol\";\nimport \"@openzeppelin/contracts/token/ERC721/IERC721Receiver.sol\";\nimport \"./Governable.sol\";\nimport \"./interfaces/IERC1155.sol\";\nimport \"./NFTIndexer.sol\";\n\ncontract FixedSwapNFT is Configurable, IERC721Receiver {\n    using SafeMath for uint256;\n    using SafeERC20 for IERC20;\n\n    uint256 internal constant TypeErc721 = 0;\n    uint256 internal constant TypeErc1155 = 1;\n\n    struct Pool {\n        // address of pool creator\n        address payable creator;\n        // pool name\n        string name;\n        // address of sell token\n        address token0;\n        // address of buy token\n        address token1;\n        // token id of token0\n        uint256 tokenId;\n        // total amount of token0\n        uint256 amountTotal0;\n        // total amount of token1\n        uint256 amountTotal1;\n        // the timestamp in seconds the pool will be closed\n        uint256 closeAt;\n        // NFT token type\n        uint256 nftType;\n    }\n\n    Pool[] public pools;\n\n    // creator address => pool index + 1. if the result is 0, the account don't create any pool.\n    mapping(address => uint256) public myCreatedP;\n    // name => pool index + 1\n    mapping(string => uint256) public myNameP;\n\n    // pool index => a flag that if creator is claimed the pool\n    mapping(uint256 => bool) public creatorClaimedP;\n    mapping(uint256 => bool) public swappedP;\n\n    // check if token0 in whitelist\n    bool public checkToken0;\n    // token0 address => true or false\n    mapping(address => bool) public token0List;\n\n    // pool index => swapped amount of token0\n    mapping(uint256 => uint256) public swappedAmount0P;\n    // pool index => swapped amount of token1\n    mapping(uint256 => uint256) public swappedAmount1P;\n\n    uint256 public fee;\n\n    uint256 public feeMax;\n\n    address payable public feeTo;\n\n    address indexer;\n\n    // the timestamp in seconds the pool will start\n    mapping(uint256 => uint256) public startAt;\n\n    mapping(uint256 => bool) public poolIsUnique;\n    mapping(address => uint256) public userLimited;\n\n    event Created(\n        address indexed sender,\n        uint256 indexed index,\n        Pool pool,\n        uint256 startTime\n    );\n    event Swapped(\n        address indexed sender,\n        uint256 indexed index,\n        uint256 amount0,\n        uint256 amount1\n    );\n    event Claimed(\n        address indexed sender,\n        uint256 indexed index,\n        uint256 amount0\n    );\n\n    function initialize(address _governor) public override initializer {\n        require(\n            msg.sender == governor || governor == address(0),\n            \"invalid governor\"\n        );\n        governor = _governor;\n        feeMax = 10000;\n    }\n\n    function createErc721(\n        // name of the pool\n        string memory name,\n        // address of token0\n        address token0,\n        // address of token1\n        address token1,\n        // token id of token0\n        uint256 tokenId,\n        // total amount of token1\n        uint256 amountTotal1,\n        // duration time\n        uint256 duration\n    ) external payable {\n        if (checkToken0) {\n            require(token0List[token0], \"invalid token0\");\n        }\n        uint256 amountTotal0 = 1;\n        _create(\n            name,\n            token0,\n            token1,\n            tokenId,\n            amountTotal0,\n            amountTotal1,\n            duration,\n            TypeErc721,\n            now,\n            false\n        );\n    }\n\n    function createErc721WithStartTime(\n        // name of the pool\n        string memory name,\n        // address of token0\n        address token0,\n        // address of token1\n        address token1,\n        // token id of token0\n        uint256 tokenId,\n        // total amount of token1\n        uint256 amountTotal1,\n        // duration time\n        uint256 duration,\n        // start time\n        uint256 startTime,\n        // is unique\n        bool isUnique\n    ) external payable {\n        if (checkToken0) {\n            require(token0List[token0], \"invalid token0\");\n        }\n        uint256 amountTotal0 = 1;\n        _create(\n            name,\n            token0,\n            token1,\n            tokenId,\n            amountTotal0,\n            amountTotal1,\n            duration,\n            TypeErc721,\n            startTime,\n            isUnique\n        );\n    }\n\n    function createErc1155(\n        // name of the pool\n        string memory name,\n        // address of token0\n        address token0,\n        // address of token1\n        address token1,\n        // token id of token0\n        uint256 tokenId,\n        // total amount of token0\n        uint256 amountTotal0,\n        // total amount of token1\n        uint256 amountTotal1,\n        // duration time\n        uint256 duration\n    ) external payable {\n        if (checkToken0) {\n            require(token0List[token0], \"invalid token0\");\n        }\n        _create(\n            name,\n            token0,\n            token1,\n            tokenId,\n            amountTotal0,\n            amountTotal1,\n            duration,\n            TypeErc1155,\n            now,\n            false\n        );\n    }\n\n    function createErc1155WithStartTime(\n        // name of the pool\n        string memory name,\n        // address of token0\n        address token0,\n        // address of token1\n        address token1,\n        // token id of token0\n        uint256 tokenId,\n        // total amount of token0\n        uint256 amountTotal0,\n        // total amount of token1\n        uint256 amountTotal1,\n        // duration time\n        uint256 duration,\n        // start time\n        uint256 startTime,\n        // is unique\n        bool isUnique\n    ) external payable {\n        if (checkToken0) {\n            require(token0List[token0], \"invalid token0\");\n        }\n        _create(\n            name,\n            token0,\n            token1,\n            tokenId,\n            amountTotal0,\n            amountTotal1,\n            duration,\n            TypeErc1155,\n            startTime,\n            isUnique\n        );\n    }\n\n    function _create(\n        string memory name,\n        address token0,\n        address token1,\n        uint256 tokenId,\n        uint256 amountTotal0,\n        uint256 amountTotal1,\n        uint256 duration,\n        uint256 nftType,\n        uint256 startTime,\n        bool isUnique\n    ) private {\n        require(startTime > 0, \"start time should not be zero\");\n        require(amountTotal1 != 0, \"the value of amountTotal1 is zero.\");\n        require(duration != 0, \"the value of duration is zero.\");\n        require(bytes(name).length <= 15, \"the length of name is too long\");\n\n        uint256 closeTime = 0;\n        if (startTime <= now) {\n            closeTime = now.add(duration);\n        } else {\n            closeTime = startTime.add(duration);\n        }\n\n        // creator pool\n        Pool memory pool;\n        pool.creator = msg.sender;\n        pool.name = name;\n        pool.token0 = token0;\n        pool.token1 = token1;\n        pool.tokenId = tokenId;\n        pool.amountTotal0 = amountTotal0;\n        pool.amountTotal1 = amountTotal1;\n        pool.closeAt = closeTime;\n        pool.nftType = nftType;\n\n        uint256 index = pools.length;\n\n        pools.push(pool);\n        startAt[index] = startTime;\n        myCreatedP[msg.sender] = pools.length;\n        myNameP[name] = pools.length;\n        if (isUnique) {\n            poolIsUnique[index] = true;\n        }\n\n        // transfer tokenId of token0 to this contract\n        if (nftType == TypeErc721) {\n            require(amountTotal0 == 1, \"invalid amountTotal0\");\n            IERC721(token0).safeTransferFrom(\n                msg.sender,\n                address(this),\n                tokenId\n            );\n            NFTIndexer(indexer).new721Fixswap(\n                token0,\n                tokenId,\n                pools.length - 1\n            );\n        } else {\n            require(amountTotal0 != 0, \"invalid amountTotal0\");\n            IERC1155(token0).safeTransferFrom(\n                msg.sender,\n                address(this),\n                tokenId,\n                amountTotal0,\n                \"\"\n            );\n            NFTIndexer(indexer).new1155Fixswap(\n                token0,\n                pool.creator,\n                tokenId,\n                pools.length - 1\n            );\n        }\n\n        emit Created(msg.sender, index, pool, startTime);\n    }\n\n    function swap(uint256 index, uint256 amount0)\n        external\n        payable\n        isPoolExist(index)\n        isPoolNotClosed(index)\n        isPoolStarted(index)\n        isAccountLimited(index, msg.sender)\n    {\n        Pool storage pool = pools[index];\n        require(\n            amount0 >= 1 && amount0 <= pool.amountTotal0,\n            \"invalid amount0\"\n        );\n        require(\n            swappedAmount0P[index].add(amount0) <= pool.amountTotal0,\n            \"pool filled or invalid amount0\"\n        );\n\n        uint256 amount1 = amount0.mul(pool.amountTotal1).div(pool.amountTotal0);\n        swappedAmount0P[index] = swappedAmount0P[index].add(amount0);\n        swappedAmount1P[index] = swappedAmount1P[index].add(amount1);\n        if (swappedAmount0P[index] == pool.amountTotal0) {\n            // mark pool is swapped\n            swappedP[index] = true;\n        }\n        uint256 swapFee = 0;\n        if (feeTo != address(0) && fee > 0) {\n            swapFee = amount1.mul(fee).div(feeMax);\n        }\n\n        // transfer amount of token1 to creator\n        if (pool.token1 == address(0)) {\n            require(amount1 == msg.value, \"invalid ETH amount\");\n            // transfer ETH to creator\n\n            if (swapFee > 0) {\n                feeTo.transfer(swapFee);\n            }\n            pool.creator.transfer(amount1.sub(swapFee));\n        } else {\n            IERC20(pool.token1).safeTransferFrom(\n                msg.sender,\n                pool.creator,\n                amount1.sub(swapFee)\n            );\n            if (swapFee > 0) {\n                IERC20(pool.token1).safeTransferFrom(\n                    msg.sender,\n                    feeTo,\n                    swapFee\n                );\n            }\n        }\n\n        // transfer tokenId of token0 to sender\n        if (pool.nftType == TypeErc721) {\n            IERC721(pool.token0).safeTransferFrom(\n                address(this),\n                msg.sender,\n                pool.tokenId\n            );\n        } else {\n            IERC1155(pool.token0).safeTransferFrom(\n                address(this),\n                msg.sender,\n                pool.tokenId,\n                amount0,\n                \"\"\n            );\n        }\n\n        if (swappedAmount0P[index] == pool.amountTotal0) {\n            pools[index].closeAt = now;\n        }\n\n        if (poolIsUnique[index]) {\n            userLimited[msg.sender] = block.timestamp;\n        }\n\n        emit Swapped(msg.sender, index, amount0, amount1);\n    }\n\n    function creatorClaim(uint256 index) external isPoolExist(index) {\n        require(isCreator(msg.sender, index), \"sender is not pool creator\");\n        require(!creatorClaimedP[index], \"creator has claimed this pool\");\n        creatorClaimedP[index] = true;\n\n        // remove ownership of this pool from creator\n        delete myCreatedP[msg.sender];\n\n        Pool memory pool = pools[index];\n        if (pool.nftType == TypeErc721) {\n            IERC721(pool.token0).safeTransferFrom(\n                address(this),\n                pool.creator,\n                pool.tokenId\n            );\n        } else {\n            IERC1155(pool.token0).safeTransferFrom(\n                address(this),\n                pool.creator,\n                pool.tokenId,\n                pool.amountTotal0.sub(swappedAmount0P[index]),\n                \"\"\n            );\n        }\n\n        pools[index].closeAt = now;\n\n        emit Claimed(\n            msg.sender,\n            index,\n            pool.amountTotal0.sub(swappedAmount0P[index])\n        );\n    }\n\n    function transferGovernor(address _governor) external {\n        require(\n            msg.sender == governor || governor == address(0),\n            \"invalid governor\"\n        );\n        governor = _governor;\n    }\n\n    function isCreator(address target, uint256 index)\n        internal\n        view\n        returns (bool)\n    {\n        if (pools[index].creator == target) {\n            return true;\n        }\n        return false;\n    }\n\n    function getPoolCount() external view returns (uint256) {\n        return pools.length;\n    }\n\n    function setFee(uint256 _fee) external governance returns (bool) {\n        fee = _fee;\n        return true;\n    }\n\n    function setFeeMax(uint256 _feeMax) external governance returns (bool) {\n        feeMax = _feeMax;\n        return true;\n    }\n\n    function setFeeTo(address payable _feeTo)\n        external\n        governance\n        returns (bool)\n    {\n        feeTo = _feeTo;\n        return true;\n    }\n\n    function setIndexer(address _indexer) external governance returns (bool) {\n        indexer = _indexer;\n        return true;\n    }\n\n    function onERC721Received(\n        address,\n        address,\n        uint256,\n        bytes calldata\n    ) external override returns (bytes4) {\n        return this.onERC721Received.selector;\n    }\n\n    function onERC1155Received(\n        address,\n        address,\n        uint256,\n        uint256,\n        bytes calldata\n    ) external returns (bytes4) {\n        return this.onERC1155Received.selector;\n    }\n\n    modifier isPoolClosed(uint256 index) {\n        require(pools[index].closeAt <= now, \"this pool is not closed\");\n        _;\n    }\n\n    modifier isPoolNotClosed(uint256 index) {\n        require(pools[index].closeAt > now, \"this pool is closed\");\n        _;\n    }\n\n    modifier isPoolExist(uint256 index) {\n        require(index < pools.length, \"this pool does not exist\");\n        _;\n    }\n\n    modifier isPoolStarted(uint256 index) {\n        require(startAt[index] <= now, \"this pool is not started yet\");\n        _;\n    }\n\n    function getStartTime(uint256 index) external view returns (uint256) {\n        return startAt[index];\n    }\n\n    modifier isAccountLimited(uint256 index, address _address) {\n        if (poolIsUnique[index] && userLimited[_address] > 0) {\n            require(\n                now - userLimited[_address] >= 30 minutes,\n                \"this user is restricted in 30 minutes\"\n            );\n        }\n        _;\n    }\n\n    function transferERC20(\n        address _erc20Address,\n        address _to,\n        uint256 _amount\n    ) external governance returns (bool) {\n        try IERC20(_erc20Address).transfer(_to, _amount) {\n            return true;\n        } catch Error(string memory) {\n            return false;\n        }\n    }\n\n    function transferERC721(\n        address _erc721Address,\n        address _to,\n        uint256 _tokenId\n    ) external governance returns (bool) {\n        try\n            IERC721(_erc721Address).safeTransferFrom(\n                address(this),\n                _to,\n                _tokenId\n            ) {\n            return true;\n        } catch Error(string memory) {\n            return false;\n        }\n    }\n}\n",
  "sourcePath": "/Users/horipse/workspace/define-contract/contracts/FixedSwapNFT.sol",
  "compiler": {
    "name": "solc",
    "version": "0.6.12+commit.5e807836.Emscripten.clang"
  },
  "schemaVersion": "2.0.1",
  "updatedAt": "2021-08-22T09:54:47.110Z"
}